{
	"contracts/CrowdFunding.sol": {
		"CrowdFunding": {
			"abi": [
				{
					"inputs": [
						{
							"internalType": "address",
							"name": "_tokenAddress",
							"type": "address"
						},
						{
							"internalType": "uint256",
							"name": "_fundingGoal",
							"type": "uint256"
						}
					],
					"stateMutability": "nonpayable",
					"type": "constructor"
				},
				{
					"anonymous": false,
					"inputs": [
						{
							"indexed": true,
							"internalType": "address",
							"name": "contributor",
							"type": "address"
						},
						{
							"indexed": false,
							"internalType": "uint256",
							"name": "amount",
							"type": "uint256"
						}
					],
					"name": "ContributionReceived",
					"type": "event"
				},
				{
					"anonymous": false,
					"inputs": [
						{
							"indexed": false,
							"internalType": "uint256",
							"name": "totalAmount",
							"type": "uint256"
						}
					],
					"name": "GoalReached",
					"type": "event"
				},
				{
					"anonymous": false,
					"inputs": [
						{
							"indexed": false,
							"internalType": "uint256",
							"name": "amount",
							"type": "uint256"
						}
					],
					"name": "SponsorshipReceived",
					"type": "event"
				},
				{
					"anonymous": false,
					"inputs": [
						{
							"indexed": false,
							"internalType": "enum CrowdFunding.State",
							"name": "newState",
							"type": "uint8"
						}
					],
					"name": "StateChanged",
					"type": "event"
				},
				{
					"anonymous": false,
					"inputs": [
						{
							"indexed": true,
							"internalType": "address",
							"name": "contributor",
							"type": "address"
						},
						{
							"indexed": false,
							"internalType": "uint256",
							"name": "amount",
							"type": "uint256"
						}
					],
					"name": "WithdrawalMade",
					"type": "event"
				},
				{
					"inputs": [
						{
							"internalType": "uint256",
							"name": "_amount",
							"type": "uint256"
						}
					],
					"name": "contribute",
					"outputs": [],
					"stateMutability": "nonpayable",
					"type": "function"
				},
				{
					"inputs": [
						{
							"internalType": "address",
							"name": "",
							"type": "address"
						}
					],
					"name": "contributions",
					"outputs": [
						{
							"internalType": "uint256",
							"name": "",
							"type": "uint256"
						}
					],
					"stateMutability": "view",
					"type": "function"
				},
				{
					"inputs": [],
					"name": "currentAmount",
					"outputs": [
						{
							"internalType": "uint256",
							"name": "",
							"type": "uint256"
						}
					],
					"stateMutability": "view",
					"type": "function"
				},
				{
					"inputs": [],
					"name": "currentState",
					"outputs": [
						{
							"internalType": "enum CrowdFunding.State",
							"name": "",
							"type": "uint8"
						}
					],
					"stateMutability": "view",
					"type": "function"
				},
				{
					"inputs": [],
					"name": "distributeAddress",
					"outputs": [
						{
							"internalType": "address",
							"name": "",
							"type": "address"
						}
					],
					"stateMutability": "view",
					"type": "function"
				},
				{
					"inputs": [],
					"name": "finalizeAndTransfer",
					"outputs": [],
					"stateMutability": "nonpayable",
					"type": "function"
				},
				{
					"inputs": [],
					"name": "fundingGoal",
					"outputs": [
						{
							"internalType": "uint256",
							"name": "",
							"type": "uint256"
						}
					],
					"stateMutability": "view",
					"type": "function"
				},
				{
					"inputs": [
						{
							"internalType": "address",
							"name": "_contributor",
							"type": "address"
						}
					],
					"name": "getContribution",
					"outputs": [
						{
							"internalType": "uint256",
							"name": "",
							"type": "uint256"
						}
					],
					"stateMutability": "view",
					"type": "function"
				},
				{
					"inputs": [],
					"name": "getRemainingAmount",
					"outputs": [
						{
							"internalType": "uint256",
							"name": "",
							"type": "uint256"
						}
					],
					"stateMutability": "view",
					"type": "function"
				},
				{
					"inputs": [],
					"name": "getState",
					"outputs": [
						{
							"internalType": "string",
							"name": "",
							"type": "string"
						}
					],
					"stateMutability": "view",
					"type": "function"
				},
				{
					"inputs": [],
					"name": "owner",
					"outputs": [
						{
							"internalType": "address",
							"name": "",
							"type": "address"
						}
					],
					"stateMutability": "view",
					"type": "function"
				},
				{
					"inputs": [],
					"name": "requestSponsorship",
					"outputs": [],
					"stateMutability": "nonpayable",
					"type": "function"
				},
				{
					"inputs": [
						{
							"internalType": "address",
							"name": "_distributeAddress",
							"type": "address"
						}
					],
					"name": "setDistributeAddress",
					"outputs": [],
					"stateMutability": "nonpayable",
					"type": "function"
				},
				{
					"inputs": [
						{
							"internalType": "address",
							"name": "_sponsorAddress",
							"type": "address"
						}
					],
					"name": "setSponsorAddress",
					"outputs": [],
					"stateMutability": "nonpayable",
					"type": "function"
				},
				{
					"inputs": [],
					"name": "sponsorAddress",
					"outputs": [
						{
							"internalType": "address",
							"name": "",
							"type": "address"
						}
					],
					"stateMutability": "view",
					"type": "function"
				},
				{
					"inputs": [],
					"name": "tokenAddress",
					"outputs": [
						{
							"internalType": "address",
							"name": "",
							"type": "address"
						}
					],
					"stateMutability": "view",
					"type": "function"
				},
				{
					"inputs": [
						{
							"internalType": "uint256",
							"name": "_amount",
							"type": "uint256"
						}
					],
					"name": "withdraw",
					"outputs": [],
					"stateMutability": "nonpayable",
					"type": "function"
				}
			],
			"devdoc": {
				"kind": "dev",
				"methods": {},
				"version": 1
			},
			"evm": {
				"assembly": "    /* \"contracts/CrowdFunding.sol\":431:5006  contract CrowdFunding {... */\n  mstore(0x40, 0x80)\n    /* \"contracts/CrowdFunding.sol\":1341:1697  constructor(address _tokenAddress, uint256 _fundingGoal) {... */\n  callvalue\n  dup1\n  iszero\n  tag_1\n  jumpi\n  0x00\n  dup1\n  revert\ntag_1:\n  pop\n  mload(0x40)\n  sub(codesize, bytecodeSize)\n  dup1\n  bytecodeSize\n  dup4\n  codecopy\n  dup2\n  dup2\n  add\n  0x40\n  mstore\n  dup2\n  add\n  swap1\n  tag_2\n  swap2\n  swap1\n  tag_3\n  jump\t// in\ntag_2:\n    /* \"contracts/CrowdFunding.sol\":1442:1443  0 */\n  0x00\n    /* \"contracts/CrowdFunding.sol\":1417:1444  _tokenAddress != address(0) */\n  0xffffffffffffffffffffffffffffffffffffffff\n  and\n    /* \"contracts/CrowdFunding.sol\":1417:1430  _tokenAddress */\n  dup3\n    /* \"contracts/CrowdFunding.sol\":1417:1444  _tokenAddress != address(0) */\n  0xffffffffffffffffffffffffffffffffffffffff\n  and\n  sub\n    /* \"contracts/CrowdFunding.sol\":1409:1462  require(_tokenAddress != address(0), \"Invalid token\") */\n  tag_6\n  jumpi\n  mload(0x40)\n  0x08c379a000000000000000000000000000000000000000000000000000000000\n  dup2\n  mstore\n  0x04\n  add\n  tag_7\n  swap1\n  tag_8\n  jump\t// in\ntag_7:\n  mload(0x40)\n  dup1\n  swap2\n  sub\n  swap1\n  revert\ntag_6:\n    /* \"contracts/CrowdFunding.sol\":1496:1497  0 */\n  0x00\n    /* \"contracts/CrowdFunding.sol\":1481:1493  _fundingGoal */\n  dup2\n    /* \"contracts/CrowdFunding.sol\":1481:1497  _fundingGoal > 0 */\n  gt\n    /* \"contracts/CrowdFunding.sol\":1473:1514  require(_fundingGoal > 0, \"Invalid goal\") */\n  tag_9\n  jumpi\n  mload(0x40)\n  0x08c379a000000000000000000000000000000000000000000000000000000000\n  dup2\n  mstore\n  0x04\n  add\n  tag_10\n  swap1\n  tag_11\n  jump\t// in\ntag_10:\n  mload(0x40)\n  dup1\n  swap2\n  sub\n  swap1\n  revert\ntag_9:\n    /* \"contracts/CrowdFunding.sol\":1533:1543  msg.sender */\n  caller\n    /* \"contracts/CrowdFunding.sol\":1525:1530  owner */\n  0x00\n  dup1\n    /* \"contracts/CrowdFunding.sol\":1525:1543  owner = msg.sender */\n  0x0100\n  exp\n  dup2\n  sload\n  dup2\n  0xffffffffffffffffffffffffffffffffffffffff\n  mul\n  not\n  and\n  swap1\n  dup4\n  0xffffffffffffffffffffffffffffffffffffffff\n  and\n  mul\n  or\n  swap1\n  sstore\n  pop\n    /* \"contracts/CrowdFunding.sol\":1569:1582  _tokenAddress */\n  dup2\n    /* \"contracts/CrowdFunding.sol\":1554:1566  tokenAddress */\n  0x01\n  0x00\n    /* \"contracts/CrowdFunding.sol\":1554:1582  tokenAddress = _tokenAddress */\n  0x0100\n  exp\n  dup2\n  sload\n  dup2\n  0xffffffffffffffffffffffffffffffffffffffff\n  mul\n  not\n  and\n  swap1\n  dup4\n  0xffffffffffffffffffffffffffffffffffffffff\n  and\n  mul\n  or\n  swap1\n  sstore\n  pop\n    /* \"contracts/CrowdFunding.sol\":1607:1619  _fundingGoal */\n  dup1\n    /* \"contracts/CrowdFunding.sol\":1593:1604  fundingGoal */\n  0x04\n    /* \"contracts/CrowdFunding.sol\":1593:1619  fundingGoal = _fundingGoal */\n  dup2\n  swap1\n  sstore\n  pop\n    /* \"contracts/CrowdFunding.sol\":1646:1647  0 */\n  0x00\n    /* \"contracts/CrowdFunding.sol\":1630:1643  currentAmount */\n  0x05\n    /* \"contracts/CrowdFunding.sol\":1630:1647  currentAmount = 0 */\n  dup2\n  swap1\n  sstore\n  pop\n    /* \"contracts/CrowdFunding.sol\":1673:1689  State.Nefinantat */\n  0x00\n    /* \"contracts/CrowdFunding.sol\":1658:1670  currentState */\n  0x06\n  0x00\n    /* \"contracts/CrowdFunding.sol\":1658:1689  currentState = State.Nefinantat */\n  0x0100\n  exp\n  dup2\n  sload\n  dup2\n  0xff\n  mul\n  not\n  and\n  swap1\n  dup4\n  0x02\n  dup2\n  gt\n  iszero\n  tag_12\n  jumpi\n  tag_13\n  tag_14\n  jump\t// in\ntag_13:\ntag_12:\n  mul\n  or\n  swap1\n  sstore\n  pop\n    /* \"contracts/CrowdFunding.sol\":1341:1697  constructor(address _tokenAddress, uint256 _fundingGoal) {... */\n  pop\n  pop\n    /* \"contracts/CrowdFunding.sol\":431:5006  contract CrowdFunding {... */\n  jump(tag_15)\n    /* \"#utility.yul\":88:205   */\ntag_17:\n    /* \"#utility.yul\":197:198   */\n  0x00\n    /* \"#utility.yul\":194:195   */\n  dup1\n    /* \"#utility.yul\":187:199   */\n  revert\n    /* \"#utility.yul\":334:460   */\ntag_19:\n    /* \"#utility.yul\":371:378   */\n  0x00\n    /* \"#utility.yul\":411:453   */\n  0xffffffffffffffffffffffffffffffffffffffff\n    /* \"#utility.yul\":404:409   */\n  dup3\n    /* \"#utility.yul\":400:454   */\n  and\n    /* \"#utility.yul\":389:454   */\n  swap1\n  pop\n    /* \"#utility.yul\":334:460   */\n  swap2\n  swap1\n  pop\n  jump\t// out\n    /* \"#utility.yul\":466:562   */\ntag_20:\n    /* \"#utility.yul\":503:510   */\n  0x00\n    /* \"#utility.yul\":532:556   */\n  tag_37\n    /* \"#utility.yul\":550:555   */\n  dup3\n    /* \"#utility.yul\":532:556   */\n  tag_19\n  jump\t// in\ntag_37:\n    /* \"#utility.yul\":521:556   */\n  swap1\n  pop\n    /* \"#utility.yul\":466:562   */\n  swap2\n  swap1\n  pop\n  jump\t// out\n    /* \"#utility.yul\":568:690   */\ntag_21:\n    /* \"#utility.yul\":641:665   */\n  tag_39\n    /* \"#utility.yul\":659:664   */\n  dup2\n    /* \"#utility.yul\":641:665   */\n  tag_20\n  jump\t// in\ntag_39:\n    /* \"#utility.yul\":634:639   */\n  dup2\n    /* \"#utility.yul\":631:666   */\n  eq\n    /* \"#utility.yul\":621:684   */\n  tag_40\n  jumpi\n    /* \"#utility.yul\":680:681   */\n  0x00\n    /* \"#utility.yul\":677:678   */\n  dup1\n    /* \"#utility.yul\":670:682   */\n  revert\n    /* \"#utility.yul\":621:684   */\ntag_40:\n    /* \"#utility.yul\":568:690   */\n  pop\n  jump\t// out\n    /* \"#utility.yul\":696:839   */\ntag_22:\n    /* \"#utility.yul\":753:758   */\n  0x00\n    /* \"#utility.yul\":784:790   */\n  dup2\n    /* \"#utility.yul\":778:791   */\n  mload\n    /* \"#utility.yul\":769:791   */\n  swap1\n  pop\n    /* \"#utility.yul\":800:833   */\n  tag_42\n    /* \"#utility.yul\":827:832   */\n  dup2\n    /* \"#utility.yul\":800:833   */\n  tag_21\n  jump\t// in\ntag_42:\n    /* \"#utility.yul\":696:839   */\n  swap3\n  swap2\n  pop\n  pop\n  jump\t// out\n    /* \"#utility.yul\":845:922   */\ntag_23:\n    /* \"#utility.yul\":882:889   */\n  0x00\n    /* \"#utility.yul\":911:916   */\n  dup2\n    /* \"#utility.yul\":900:916   */\n  swap1\n  pop\n    /* \"#utility.yul\":845:922   */\n  swap2\n  swap1\n  pop\n  jump\t// out\n    /* \"#utility.yul\":928:1050   */\ntag_24:\n    /* \"#utility.yul\":1001:1025   */\n  tag_45\n    /* \"#utility.yul\":1019:1024   */\n  dup2\n    /* \"#utility.yul\":1001:1025   */\n  tag_23\n  jump\t// in\ntag_45:\n    /* \"#utility.yul\":994:999   */\n  dup2\n    /* \"#utility.yul\":991:1026   */\n  eq\n    /* \"#utility.yul\":981:1044   */\n  tag_46\n  jumpi\n    /* \"#utility.yul\":1040:1041   */\n  0x00\n    /* \"#utility.yul\":1037:1038   */\n  dup1\n    /* \"#utility.yul\":1030:1042   */\n  revert\n    /* \"#utility.yul\":981:1044   */\ntag_46:\n    /* \"#utility.yul\":928:1050   */\n  pop\n  jump\t// out\n    /* \"#utility.yul\":1056:1199   */\ntag_25:\n    /* \"#utility.yul\":1113:1118   */\n  0x00\n    /* \"#utility.yul\":1144:1150   */\n  dup2\n    /* \"#utility.yul\":1138:1151   */\n  mload\n    /* \"#utility.yul\":1129:1151   */\n  swap1\n  pop\n    /* \"#utility.yul\":1160:1193   */\n  tag_48\n    /* \"#utility.yul\":1187:1192   */\n  dup2\n    /* \"#utility.yul\":1160:1193   */\n  tag_24\n  jump\t// in\ntag_48:\n    /* \"#utility.yul\":1056:1199   */\n  swap3\n  swap2\n  pop\n  pop\n  jump\t// out\n    /* \"#utility.yul\":1205:1712   */\ntag_3:\n    /* \"#utility.yul\":1284:1290   */\n  0x00\n    /* \"#utility.yul\":1292:1298   */\n  dup1\n    /* \"#utility.yul\":1341:1343   */\n  0x40\n    /* \"#utility.yul\":1329:1338   */\n  dup4\n    /* \"#utility.yul\":1320:1327   */\n  dup6\n    /* \"#utility.yul\":1316:1339   */\n  sub\n    /* \"#utility.yul\":1312:1344   */\n  slt\n    /* \"#utility.yul\":1309:1428   */\n  iszero\n  tag_50\n  jumpi\n    /* \"#utility.yul\":1347:1426   */\n  tag_51\n  tag_17\n  jump\t// in\ntag_51:\n    /* \"#utility.yul\":1309:1428   */\ntag_50:\n    /* \"#utility.yul\":1467:1468   */\n  0x00\n    /* \"#utility.yul\":1492:1556   */\n  tag_52\n    /* \"#utility.yul\":1548:1555   */\n  dup6\n    /* \"#utility.yul\":1539:1545   */\n  dup3\n    /* \"#utility.yul\":1528:1537   */\n  dup7\n    /* \"#utility.yul\":1524:1546   */\n  add\n    /* \"#utility.yul\":1492:1556   */\n  tag_22\n  jump\t// in\ntag_52:\n    /* \"#utility.yul\":1482:1556   */\n  swap3\n  pop\n    /* \"#utility.yul\":1438:1566   */\n  pop\n    /* \"#utility.yul\":1605:1607   */\n  0x20\n    /* \"#utility.yul\":1631:1695   */\n  tag_53\n    /* \"#utility.yul\":1687:1694   */\n  dup6\n    /* \"#utility.yul\":1678:1684   */\n  dup3\n    /* \"#utility.yul\":1667:1676   */\n  dup7\n    /* \"#utility.yul\":1663:1685   */\n  add\n    /* \"#utility.yul\":1631:1695   */\n  tag_25\n  jump\t// in\ntag_53:\n    /* \"#utility.yul\":1621:1695   */\n  swap2\n  pop\n    /* \"#utility.yul\":1576:1705   */\n  pop\n    /* \"#utility.yul\":1205:1712   */\n  swap3\n  pop\n  swap3\n  swap1\n  pop\n  jump\t// out\n    /* \"#utility.yul\":1718:1887   */\ntag_26:\n    /* \"#utility.yul\":1802:1813   */\n  0x00\n    /* \"#utility.yul\":1836:1842   */\n  dup3\n    /* \"#utility.yul\":1831:1834   */\n  dup3\n    /* \"#utility.yul\":1824:1843   */\n  mstore\n    /* \"#utility.yul\":1876:1880   */\n  0x20\n    /* \"#utility.yul\":1871:1874   */\n  dup3\n    /* \"#utility.yul\":1867:1881   */\n  add\n    /* \"#utility.yul\":1852:1881   */\n  swap1\n  pop\n    /* \"#utility.yul\":1718:1887   */\n  swap3\n  swap2\n  pop\n  pop\n  jump\t// out\n    /* \"#utility.yul\":1893:2056   */\ntag_27:\n    /* \"#utility.yul\":2033:2048   */\n  0x496e76616c696420746f6b656e00000000000000000000000000000000000000\n    /* \"#utility.yul\":2029:2030   */\n  0x00\n    /* \"#utility.yul\":2021:2027   */\n  dup3\n    /* \"#utility.yul\":2017:2031   */\n  add\n    /* \"#utility.yul\":2010:2049   */\n  mstore\n    /* \"#utility.yul\":1893:2056   */\n  pop\n  jump\t// out\n    /* \"#utility.yul\":2062:2428   */\ntag_28:\n    /* \"#utility.yul\":2204:2207   */\n  0x00\n    /* \"#utility.yul\":2225:2292   */\n  tag_57\n    /* \"#utility.yul\":2289:2291   */\n  0x0d\n    /* \"#utility.yul\":2284:2287   */\n  dup4\n    /* \"#utility.yul\":2225:2292   */\n  tag_26\n  jump\t// in\ntag_57:\n    /* \"#utility.yul\":2218:2292   */\n  swap2\n  pop\n    /* \"#utility.yul\":2301:2394   */\n  tag_58\n    /* \"#utility.yul\":2390:2393   */\n  dup3\n    /* \"#utility.yul\":2301:2394   */\n  tag_27\n  jump\t// in\ntag_58:\n    /* \"#utility.yul\":2419:2421   */\n  0x20\n    /* \"#utility.yul\":2414:2417   */\n  dup3\n    /* \"#utility.yul\":2410:2422   */\n  add\n    /* \"#utility.yul\":2403:2422   */\n  swap1\n  pop\n    /* \"#utility.yul\":2062:2428   */\n  swap2\n  swap1\n  pop\n  jump\t// out\n    /* \"#utility.yul\":2434:2853   */\ntag_8:\n    /* \"#utility.yul\":2600:2604   */\n  0x00\n    /* \"#utility.yul\":2638:2640   */\n  0x20\n    /* \"#utility.yul\":2627:2636   */\n  dup3\n    /* \"#utility.yul\":2623:2641   */\n  add\n    /* \"#utility.yul\":2615:2641   */\n  swap1\n  pop\n    /* \"#utility.yul\":2687:2696   */\n  dup2\n    /* \"#utility.yul\":2681:2685   */\n  dup2\n    /* \"#utility.yul\":2677:2697   */\n  sub\n    /* \"#utility.yul\":2673:2674   */\n  0x00\n    /* \"#utility.yul\":2662:2671   */\n  dup4\n    /* \"#utility.yul\":2658:2675   */\n  add\n    /* \"#utility.yul\":2651:2698   */\n  mstore\n    /* \"#utility.yul\":2715:2846   */\n  tag_60\n    /* \"#utility.yul\":2841:2845   */\n  dup2\n    /* \"#utility.yul\":2715:2846   */\n  tag_28\n  jump\t// in\ntag_60:\n    /* \"#utility.yul\":2707:2846   */\n  swap1\n  pop\n    /* \"#utility.yul\":2434:2853   */\n  swap2\n  swap1\n  pop\n  jump\t// out\n    /* \"#utility.yul\":2859:3021   */\ntag_29:\n    /* \"#utility.yul\":2999:3013   */\n  0x496e76616c696420676f616c0000000000000000000000000000000000000000\n    /* \"#utility.yul\":2995:2996   */\n  0x00\n    /* \"#utility.yul\":2987:2993   */\n  dup3\n    /* \"#utility.yul\":2983:2997   */\n  add\n    /* \"#utility.yul\":2976:3014   */\n  mstore\n    /* \"#utility.yul\":2859:3021   */\n  pop\n  jump\t// out\n    /* \"#utility.yul\":3027:3393   */\ntag_30:\n    /* \"#utility.yul\":3169:3172   */\n  0x00\n    /* \"#utility.yul\":3190:3257   */\n  tag_63\n    /* \"#utility.yul\":3254:3256   */\n  0x0c\n    /* \"#utility.yul\":3249:3252   */\n  dup4\n    /* \"#utility.yul\":3190:3257   */\n  tag_26\n  jump\t// in\ntag_63:\n    /* \"#utility.yul\":3183:3257   */\n  swap2\n  pop\n    /* \"#utility.yul\":3266:3359   */\n  tag_64\n    /* \"#utility.yul\":3355:3358   */\n  dup3\n    /* \"#utility.yul\":3266:3359   */\n  tag_29\n  jump\t// in\ntag_64:\n    /* \"#utility.yul\":3384:3386   */\n  0x20\n    /* \"#utility.yul\":3379:3382   */\n  dup3\n    /* \"#utility.yul\":3375:3387   */\n  add\n    /* \"#utility.yul\":3368:3387   */\n  swap1\n  pop\n    /* \"#utility.yul\":3027:3393   */\n  swap2\n  swap1\n  pop\n  jump\t// out\n    /* \"#utility.yul\":3399:3818   */\ntag_11:\n    /* \"#utility.yul\":3565:3569   */\n  0x00\n    /* \"#utility.yul\":3603:3605   */\n  0x20\n    /* \"#utility.yul\":3592:3601   */\n  dup3\n    /* \"#utility.yul\":3588:3606   */\n  add\n    /* \"#utility.yul\":3580:3606   */\n  swap1\n  pop\n    /* \"#utility.yul\":3652:3661   */\n  dup2\n    /* \"#utility.yul\":3646:3650   */\n  dup2\n    /* \"#utility.yul\":3642:3662   */\n  sub\n    /* \"#utility.yul\":3638:3639   */\n  0x00\n    /* \"#utility.yul\":3627:3636   */\n  dup4\n    /* \"#utility.yul\":3623:3640   */\n  add\n    /* \"#utility.yul\":3616:3663   */\n  mstore\n    /* \"#utility.yul\":3680:3811   */\n  tag_66\n    /* \"#utility.yul\":3806:3810   */\n  dup2\n    /* \"#utility.yul\":3680:3811   */\n  tag_30\n  jump\t// in\ntag_66:\n    /* \"#utility.yul\":3672:3811   */\n  swap1\n  pop\n    /* \"#utility.yul\":3399:3818   */\n  swap2\n  swap1\n  pop\n  jump\t// out\n    /* \"#utility.yul\":3824:4004   */\ntag_14:\n    /* \"#utility.yul\":3872:3949   */\n  0x4e487b7100000000000000000000000000000000000000000000000000000000\n    /* \"#utility.yul\":3869:3870   */\n  0x00\n    /* \"#utility.yul\":3862:3950   */\n  mstore\n    /* \"#utility.yul\":3969:3973   */\n  0x21\n    /* \"#utility.yul\":3966:3967   */\n  0x04\n    /* \"#utility.yul\":3959:3974   */\n  mstore\n    /* \"#utility.yul\":3993:3997   */\n  0x24\n    /* \"#utility.yul\":3990:3991   */\n  0x00\n    /* \"#utility.yul\":3983:3998   */\n  revert\n    /* \"contracts/CrowdFunding.sol\":431:5006  contract CrowdFunding {... */\ntag_15:\n  dataSize(sub_0)\n  dup1\n  dataOffset(sub_0)\n  0x00\n  codecopy\n  0x00\n  return\nstop\n\nsub_0: assembly {\n        /* \"contracts/CrowdFunding.sol\":431:5006  contract CrowdFunding {... */\n      mstore(0x40, 0x80)\n      callvalue\n      dup1\n      iszero\n      tag_1\n      jumpi\n      0x00\n      dup1\n      revert\n    tag_1:\n      pop\n      jumpi(tag_2, lt(calldatasize, 0x04))\n      shr(0xe0, calldataload(0x00))\n      dup1\n      0x7a3a0e84\n      gt\n      tag_20\n      jumpi\n      dup1\n      0xc1cbbca7\n      gt\n      tag_21\n      jumpi\n      dup1\n      0xc1cbbca7\n      eq\n      tag_15\n      jumpi\n      dup1\n      0xd69f84fd\n      eq\n      tag_16\n      jumpi\n      dup1\n      0xdabaae11\n      eq\n      tag_17\n      jumpi\n      dup1\n      0xdd682c3c\n      eq\n      tag_18\n      jumpi\n      dup1\n      0xf441b1c8\n      eq\n      tag_19\n      jumpi\n      jump(tag_2)\n    tag_21:\n      dup1\n      0x7a3a0e84\n      eq\n      tag_11\n      jumpi\n      dup1\n      0x8da5cb5b\n      eq\n      tag_12\n      jumpi\n      dup1\n      0x9d76ea58\n      eq\n      tag_13\n      jumpi\n      dup1\n      0xb90a52c6\n      eq\n      tag_14\n      jumpi\n      jump(tag_2)\n    tag_20:\n      dup1\n      0x42e94c90\n      gt\n      tag_22\n      jumpi\n      dup1\n      0x42e94c90\n      eq\n      tag_7\n      jumpi\n      dup1\n      0x511569a6\n      eq\n      tag_8\n      jumpi\n      dup1\n      0x5f23c4c6\n      eq\n      tag_9\n      jumpi\n      dup1\n      0x6aeefe10\n      eq\n      tag_10\n      jumpi\n      jump(tag_2)\n    tag_22:\n      dup1\n      0x0c3f6acf\n      eq\n      tag_3\n      jumpi\n      dup1\n      0x1865c57d\n      eq\n      tag_4\n      jumpi\n      dup1\n      0x21eff7fc\n      eq\n      tag_5\n      jumpi\n      dup1\n      0x2e1a7d4d\n      eq\n      tag_6\n      jumpi\n    tag_2:\n      0x00\n      dup1\n      revert\n        /* \"contracts/CrowdFunding.sol\":724:749  State public currentState */\n    tag_3:\n      tag_23\n      tag_24\n      jump\t// in\n    tag_23:\n      mload(0x40)\n      tag_25\n      swap2\n      swap1\n      tag_26\n      jump\t// in\n    tag_25:\n      mload(0x40)\n      dup1\n      swap2\n      sub\n      swap1\n      return\n        /* \"contracts/CrowdFunding.sol\":4453:4683  function getState() public view returns (string memory) {... */\n    tag_4:\n      tag_27\n      tag_28\n      jump\t// in\n    tag_27:\n      mload(0x40)\n      tag_29\n      swap2\n      swap1\n      tag_30\n      jump\t// in\n    tag_29:\n      mload(0x40)\n      dup1\n      swap2\n      sub\n      swap1\n      return\n        /* \"contracts/CrowdFunding.sol\":4695:4825  function getContribution(address _contributor) public view returns (uint256) {... */\n    tag_5:\n      tag_31\n      0x04\n      dup1\n      calldatasize\n      sub\n      dup2\n      add\n      swap1\n      tag_32\n      swap2\n      swap1\n      tag_33\n      jump\t// in\n    tag_32:\n      tag_34\n      jump\t// in\n    tag_31:\n      mload(0x40)\n      tag_35\n      swap2\n      swap1\n      tag_36\n      jump\t// in\n    tag_35:\n      mload(0x40)\n      dup1\n      swap2\n      sub\n      swap1\n      return\n        /* \"contracts/CrowdFunding.sol\":2854:3346  function withdraw(uint256 _amount) public inState(State.Nefinantat) {... */\n    tag_6:\n      tag_37\n      0x04\n      dup1\n      calldatasize\n      sub\n      dup2\n      add\n      swap1\n      tag_38\n      swap2\n      swap1\n      tag_39\n      jump\t// in\n    tag_38:\n      tag_40\n      jump\t// in\n    tag_37:\n      stop\n        /* \"contracts/CrowdFunding.sol\":762:810  mapping(address => uint256) public contributions */\n    tag_7:\n      tag_41\n      0x04\n      dup1\n      calldatasize\n      sub\n      dup2\n      add\n      swap1\n      tag_42\n      swap2\n      swap1\n      tag_33\n      jump\t// in\n    tag_42:\n      tag_43\n      jump\t// in\n    tag_41:\n      mload(0x40)\n      tag_44\n      swap2\n      swap1\n      tag_36\n      jump\t// in\n    tag_44:\n      mload(0x40)\n      dup1\n      swap2\n      sub\n      swap1\n      return\n        /* \"contracts/CrowdFunding.sol\":557:589  address public distributeAddress */\n    tag_8:\n      tag_45\n      tag_46\n      jump\t// in\n    tag_45:\n      mload(0x40)\n      tag_47\n      swap2\n      swap1\n      tag_48\n      jump\t// in\n    tag_47:\n      mload(0x40)\n      dup1\n      swap2\n      sub\n      swap1\n      return\n        /* \"contracts/CrowdFunding.sol\":4024:4441  function finalizeAndTransfer() public onlyOwner inState(State.Finantat) {... */\n    tag_9:\n      tag_49\n      tag_50\n      jump\t// in\n    tag_49:\n      stop\n        /* \"contracts/CrowdFunding.sol\":521:550  address public sponsorAddress */\n    tag_10:\n      tag_51\n      tag_52\n      jump\t// in\n    tag_51:\n      mload(0x40)\n      tag_53\n      swap2\n      swap1\n      tag_48\n      jump\t// in\n    tag_53:\n      mload(0x40)\n      dup1\n      swap2\n      sub\n      swap1\n      return\n        /* \"contracts/CrowdFunding.sol\":596:622  uint256 public fundingGoal */\n    tag_11:\n      tag_54\n      tag_55\n      jump\t// in\n    tag_54:\n      mload(0x40)\n      tag_56\n      swap2\n      swap1\n      tag_36\n      jump\t// in\n    tag_56:\n      mload(0x40)\n      dup1\n      swap2\n      sub\n      swap1\n      return\n        /* \"contracts/CrowdFunding.sol\":460:480  address public owner */\n    tag_12:\n      tag_57\n      tag_58\n      jump\t// in\n    tag_57:\n      mload(0x40)\n      tag_59\n      swap2\n      swap1\n      tag_48\n      jump\t// in\n    tag_59:\n      mload(0x40)\n      dup1\n      swap2\n      sub\n      swap1\n      return\n        /* \"contracts/CrowdFunding.sol\":487:514  address public tokenAddress */\n    tag_13:\n      tag_60\n      tag_61\n      jump\t// in\n    tag_60:\n      mload(0x40)\n      tag_62\n      swap2\n      swap1\n      tag_48\n      jump\t// in\n    tag_62:\n      mload(0x40)\n      dup1\n      swap2\n      sub\n      swap1\n      return\n        /* \"contracts/CrowdFunding.sol\":1909:2112  function setDistributeAddress(address _distributeAddress) public onlyOwner {... */\n    tag_14:\n      tag_63\n      0x04\n      dup1\n      calldatasize\n      sub\n      dup2\n      add\n      swap1\n      tag_64\n      swap2\n      swap1\n      tag_33\n      jump\t// in\n    tag_64:\n      tag_65\n      jump\t// in\n    tag_63:\n      stop\n        /* \"contracts/CrowdFunding.sol\":2124:2842  function contribute(uint256 _amount) public inState(State.Nefinantat) {... */\n    tag_15:\n      tag_66\n      0x04\n      dup1\n      calldatasize\n      sub\n      dup2\n      add\n      swap1\n      tag_67\n      swap2\n      swap1\n      tag_39\n      jump\t// in\n    tag_67:\n      tag_68\n      jump\t// in\n    tag_66:\n      stop\n        /* \"contracts/CrowdFunding.sol\":3358:4012  function requestSponsorship() public onlyOwner inState(State.Prefinantat) {... */\n    tag_16:\n      tag_69\n      tag_70\n      jump\t// in\n    tag_69:\n      stop\n        /* \"contracts/CrowdFunding.sol\":4837:5003  function getRemainingAmount() public view returns (uint256) {... */\n    tag_17:\n      tag_71\n      tag_72\n      jump\t// in\n    tag_71:\n      mload(0x40)\n      tag_73\n      swap2\n      swap1\n      tag_36\n      jump\t// in\n    tag_73:\n      mload(0x40)\n      dup1\n      swap2\n      sub\n      swap1\n      return\n        /* \"contracts/CrowdFunding.sol\":1709:1897  function setSponsorAddress(address _sponsorAddress) public onlyOwner {... */\n    tag_18:\n      tag_74\n      0x04\n      dup1\n      calldatasize\n      sub\n      dup2\n      add\n      swap1\n      tag_75\n      swap2\n      swap1\n      tag_33\n      jump\t// in\n    tag_75:\n      tag_76\n      jump\t// in\n    tag_74:\n      stop\n        /* \"contracts/CrowdFunding.sol\":629:657  uint256 public currentAmount */\n    tag_19:\n      tag_77\n      tag_78\n      jump\t// in\n    tag_77:\n      mload(0x40)\n      tag_79\n      swap2\n      swap1\n      tag_36\n      jump\t// in\n    tag_79:\n      mload(0x40)\n      dup1\n      swap2\n      sub\n      swap1\n      return\n        /* \"contracts/CrowdFunding.sol\":724:749  State public currentState */\n    tag_24:\n      0x06\n      0x00\n      swap1\n      sload\n      swap1\n      0x0100\n      exp\n      swap1\n      div\n      0xff\n      and\n      dup2\n      jump\t// out\n        /* \"contracts/CrowdFunding.sol\":4453:4683  function getState() public view returns (string memory) {... */\n    tag_28:\n        /* \"contracts/CrowdFunding.sol\":4494:4507  string memory */\n      0x60\n        /* \"contracts/CrowdFunding.sol\":4540:4556  State.Nefinantat */\n      0x00\n        /* \"contracts/CrowdFunding.sol\":4524:4556  currentState == State.Nefinantat */\n      0x02\n      dup2\n      gt\n      iszero\n      tag_81\n      jumpi\n      tag_82\n      tag_83\n      jump\t// in\n    tag_82:\n    tag_81:\n        /* \"contracts/CrowdFunding.sol\":4524:4536  currentState */\n      0x06\n      0x00\n      swap1\n      sload\n      swap1\n      0x0100\n      exp\n      swap1\n      div\n      0xff\n      and\n        /* \"contracts/CrowdFunding.sol\":4524:4556  currentState == State.Nefinantat */\n      0x02\n      dup2\n      gt\n      iszero\n      tag_84\n      jumpi\n      tag_85\n      tag_83\n      jump\t// in\n    tag_85:\n    tag_84:\n      sub\n        /* \"contracts/CrowdFunding.sol\":4520:4577  if (currentState == State.Nefinantat) return \"nefinantat\" */\n      tag_86\n      jumpi\n        /* \"contracts/CrowdFunding.sol\":4558:4577  return \"nefinantat\" */\n      mload(0x40)\n      dup1\n      0x40\n      add\n      0x40\n      mstore\n      dup1\n      0x0a\n      dup2\n      mstore\n      0x20\n      add\n      0x6e6566696e616e74617400000000000000000000000000000000000000000000\n      dup2\n      mstore\n      pop\n      swap1\n      pop\n      jump(tag_80)\n        /* \"contracts/CrowdFunding.sol\":4520:4577  if (currentState == State.Nefinantat) return \"nefinantat\" */\n    tag_86:\n        /* \"contracts/CrowdFunding.sol\":4608:4625  State.Prefinantat */\n      0x01\n        /* \"contracts/CrowdFunding.sol\":4592:4625  currentState == State.Prefinantat */\n      0x02\n      dup2\n      gt\n      iszero\n      tag_87\n      jumpi\n      tag_88\n      tag_83\n      jump\t// in\n    tag_88:\n    tag_87:\n        /* \"contracts/CrowdFunding.sol\":4592:4604  currentState */\n      0x06\n      0x00\n      swap1\n      sload\n      swap1\n      0x0100\n      exp\n      swap1\n      div\n      0xff\n      and\n        /* \"contracts/CrowdFunding.sol\":4592:4625  currentState == State.Prefinantat */\n      0x02\n      dup2\n      gt\n      iszero\n      tag_89\n      jumpi\n      tag_90\n      tag_83\n      jump\t// in\n    tag_90:\n    tag_89:\n      sub\n        /* \"contracts/CrowdFunding.sol\":4588:4647  if (currentState == State.Prefinantat) return \"prefinantat\" */\n      tag_91\n      jumpi\n        /* \"contracts/CrowdFunding.sol\":4627:4647  return \"prefinantat\" */\n      mload(0x40)\n      dup1\n      0x40\n      add\n      0x40\n      mstore\n      dup1\n      0x0b\n      dup2\n      mstore\n      0x20\n      add\n      0x70726566696e616e746174000000000000000000000000000000000000000000\n      dup2\n      mstore\n      pop\n      swap1\n      pop\n      jump(tag_80)\n        /* \"contracts/CrowdFunding.sol\":4588:4647  if (currentState == State.Prefinantat) return \"prefinantat\" */\n    tag_91:\n        /* \"contracts/CrowdFunding.sol\":4658:4675  return \"finantat\" */\n      mload(0x40)\n      dup1\n      0x40\n      add\n      0x40\n      mstore\n      dup1\n      0x08\n      dup2\n      mstore\n      0x20\n      add\n      0x66696e616e746174000000000000000000000000000000000000000000000000\n      dup2\n      mstore\n      pop\n      swap1\n      pop\n        /* \"contracts/CrowdFunding.sol\":4453:4683  function getState() public view returns (string memory) {... */\n    tag_80:\n      swap1\n      jump\t// out\n        /* \"contracts/CrowdFunding.sol\":4695:4825  function getContribution(address _contributor) public view returns (uint256) {... */\n    tag_34:\n        /* \"contracts/CrowdFunding.sol\":4763:4770  uint256 */\n      0x00\n        /* \"contracts/CrowdFunding.sol\":4790:4803  contributions */\n      0x07\n        /* \"contracts/CrowdFunding.sol\":4790:4817  contributions[_contributor] */\n      0x00\n        /* \"contracts/CrowdFunding.sol\":4804:4816  _contributor */\n      dup4\n        /* \"contracts/CrowdFunding.sol\":4790:4817  contributions[_contributor] */\n      0xffffffffffffffffffffffffffffffffffffffff\n      and\n      0xffffffffffffffffffffffffffffffffffffffff\n      and\n      dup2\n      mstore\n      0x20\n      add\n      swap1\n      dup2\n      mstore\n      0x20\n      add\n      0x00\n      keccak256\n      sload\n        /* \"contracts/CrowdFunding.sol\":4783:4817  return contributions[_contributor] */\n      swap1\n      pop\n        /* \"contracts/CrowdFunding.sol\":4695:4825  function getContribution(address _contributor) public view returns (uint256) {... */\n      swap2\n      swap1\n      pop\n      jump\t// out\n        /* \"contracts/CrowdFunding.sol\":2854:3346  function withdraw(uint256 _amount) public inState(State.Nefinantat) {... */\n    tag_40:\n        /* \"contracts/CrowdFunding.sol\":2904:2920  State.Nefinantat */\n      0x00\n        /* \"contracts/CrowdFunding.sol\":1285:1291  _state */\n      dup1\n        /* \"contracts/CrowdFunding.sol\":1269:1291  currentState == _state */\n      0x02\n      dup2\n      gt\n      iszero\n      tag_94\n      jumpi\n      tag_95\n      tag_83\n      jump\t// in\n    tag_95:\n    tag_94:\n        /* \"contracts/CrowdFunding.sol\":1269:1281  currentState */\n      0x06\n      0x00\n      swap1\n      sload\n      swap1\n      0x0100\n      exp\n      swap1\n      div\n      0xff\n      and\n        /* \"contracts/CrowdFunding.sol\":1269:1291  currentState == _state */\n      0x02\n      dup2\n      gt\n      iszero\n      tag_96\n      jumpi\n      tag_97\n      tag_83\n      jump\t// in\n    tag_97:\n    tag_96:\n      eq\n        /* \"contracts/CrowdFunding.sol\":1261:1309  require(currentState == _state, \"Invalid state\") */\n      tag_98\n      jumpi\n      mload(0x40)\n      0x08c379a000000000000000000000000000000000000000000000000000000000\n      dup2\n      mstore\n      0x04\n      add\n      tag_99\n      swap1\n      tag_100\n      jump\t// in\n    tag_99:\n      mload(0x40)\n      dup1\n      swap2\n      sub\n      swap1\n      revert\n    tag_98:\n        /* \"contracts/CrowdFunding.sol\":2951:2952  0 */\n      0x00\n        /* \"contracts/CrowdFunding.sol\":2941:2948  _amount */\n      dup3\n        /* \"contracts/CrowdFunding.sol\":2941:2952  _amount > 0 */\n      gt\n        /* \"contracts/CrowdFunding.sol\":2933:2980  require(_amount > 0, \"Amount must be positive\") */\n      tag_102\n      jumpi\n      mload(0x40)\n      0x08c379a000000000000000000000000000000000000000000000000000000000\n      dup2\n      mstore\n      0x04\n      add\n      tag_103\n      swap1\n      tag_104\n      jump\t// in\n    tag_103:\n      mload(0x40)\n      dup1\n      swap2\n      sub\n      swap1\n      revert\n    tag_102:\n        /* \"contracts/CrowdFunding.sol\":3028:3035  _amount */\n      dup2\n        /* \"contracts/CrowdFunding.sol\":2999:3012  contributions */\n      0x07\n        /* \"contracts/CrowdFunding.sol\":2999:3024  contributions[msg.sender] */\n      0x00\n        /* \"contracts/CrowdFunding.sol\":3013:3023  msg.sender */\n      caller\n        /* \"contracts/CrowdFunding.sol\":2999:3024  contributions[msg.sender] */\n      0xffffffffffffffffffffffffffffffffffffffff\n      and\n      0xffffffffffffffffffffffffffffffffffffffff\n      and\n      dup2\n      mstore\n      0x20\n      add\n      swap1\n      dup2\n      mstore\n      0x20\n      add\n      0x00\n      keccak256\n      sload\n        /* \"contracts/CrowdFunding.sol\":2999:3035  contributions[msg.sender] >= _amount */\n      lt\n      iszero\n        /* \"contracts/CrowdFunding.sol\":2991:3065  require(contributions[msg.sender] >= _amount, \"Insufficient contribution\") */\n      tag_105\n      jumpi\n      mload(0x40)\n      0x08c379a000000000000000000000000000000000000000000000000000000000\n      dup2\n      mstore\n      0x04\n      add\n      tag_106\n      swap1\n      tag_107\n      jump\t// in\n    tag_106:\n      mload(0x40)\n      dup1\n      swap2\n      sub\n      swap1\n      revert\n    tag_105:\n        /* \"contracts/CrowdFunding.sol\":3115:3122  _amount */\n      dup2\n        /* \"contracts/CrowdFunding.sol\":3086:3099  contributions */\n      0x07\n        /* \"contracts/CrowdFunding.sol\":3086:3111  contributions[msg.sender] */\n      0x00\n        /* \"contracts/CrowdFunding.sol\":3100:3110  msg.sender */\n      caller\n        /* \"contracts/CrowdFunding.sol\":3086:3111  contributions[msg.sender] */\n      0xffffffffffffffffffffffffffffffffffffffff\n      and\n      0xffffffffffffffffffffffffffffffffffffffff\n      and\n      dup2\n      mstore\n      0x20\n      add\n      swap1\n      dup2\n      mstore\n      0x20\n      add\n      0x00\n      keccak256\n      0x00\n        /* \"contracts/CrowdFunding.sol\":3086:3122  contributions[msg.sender] -= _amount */\n      dup3\n      dup3\n      sload\n      tag_108\n      swap2\n      swap1\n      tag_109\n      jump\t// in\n    tag_108:\n      swap3\n      pop\n      pop\n      dup2\n      swap1\n      sstore\n      pop\n        /* \"contracts/CrowdFunding.sol\":3150:3157  _amount */\n      dup2\n        /* \"contracts/CrowdFunding.sol\":3133:3146  currentAmount */\n      0x05\n      0x00\n        /* \"contracts/CrowdFunding.sol\":3133:3157  currentAmount -= _amount */\n      dup3\n      dup3\n      sload\n      tag_110\n      swap2\n      swap1\n      tag_109\n      jump\t// in\n    tag_110:\n      swap3\n      pop\n      pop\n      dup2\n      swap1\n      sstore\n      pop\n        /* \"contracts/CrowdFunding.sol\":3178:3190  IERC20 token */\n      0x00\n        /* \"contracts/CrowdFunding.sol\":3200:3212  tokenAddress */\n      0x01\n      0x00\n      swap1\n      sload\n      swap1\n      0x0100\n      exp\n      swap1\n      div\n      0xffffffffffffffffffffffffffffffffffffffff\n      and\n        /* \"contracts/CrowdFunding.sol\":3178:3213  IERC20 token = IERC20(tokenAddress) */\n      swap1\n      pop\n        /* \"contracts/CrowdFunding.sol\":3232:3237  token */\n      dup1\n        /* \"contracts/CrowdFunding.sol\":3232:3246  token.transfer */\n      0xffffffffffffffffffffffffffffffffffffffff\n      and\n      0xa9059cbb\n        /* \"contracts/CrowdFunding.sol\":3247:3257  msg.sender */\n      caller\n        /* \"contracts/CrowdFunding.sol\":3259:3266  _amount */\n      dup6\n        /* \"contracts/CrowdFunding.sol\":3232:3267  token.transfer(msg.sender, _amount) */\n      mload(0x40)\n      dup4\n      0xffffffff\n      and\n      0xe0\n      shl\n      dup2\n      mstore\n      0x04\n      add\n      tag_111\n      swap3\n      swap2\n      swap1\n      tag_112\n      jump\t// in\n    tag_111:\n      0x20\n      mload(0x40)\n      dup1\n      dup4\n      sub\n      dup2\n      0x00\n      dup8\n      gas\n      call\n      iszero\n      dup1\n      iszero\n      tag_114\n      jumpi\n      returndatasize\n      0x00\n      dup1\n      returndatacopy\n      revert(0x00, returndatasize)\n    tag_114:\n      pop\n      pop\n      pop\n      pop\n      mload(0x40)\n      returndatasize\n      not(0x1f)\n      0x1f\n      dup3\n      add\n      and\n      dup3\n      add\n      dup1\n      0x40\n      mstore\n      pop\n      dup2\n      add\n      swap1\n      tag_115\n      swap2\n      swap1\n      tag_116\n      jump\t// in\n    tag_115:\n        /* \"contracts/CrowdFunding.sol\":3224:3287  require(token.transfer(msg.sender, _amount), \"Transfer failed\") */\n      tag_117\n      jumpi\n      mload(0x40)\n      0x08c379a000000000000000000000000000000000000000000000000000000000\n      dup2\n      mstore\n      0x04\n      add\n      tag_118\n      swap1\n      tag_119\n      jump\t// in\n    tag_118:\n      mload(0x40)\n      dup1\n      swap2\n      sub\n      swap1\n      revert\n    tag_117:\n        /* \"contracts/CrowdFunding.sol\":3318:3328  msg.sender */\n      caller\n        /* \"contracts/CrowdFunding.sol\":3303:3338  WithdrawalMade(msg.sender, _amount) */\n      0xffffffffffffffffffffffffffffffffffffffff\n      and\n      0xbc158bb64f05d6383aea69bbb0b20c1bbf4b7a18f63359c5649b7c39e29d3884\n        /* \"contracts/CrowdFunding.sol\":3330:3337  _amount */\n      dup5\n        /* \"contracts/CrowdFunding.sol\":3303:3338  WithdrawalMade(msg.sender, _amount) */\n      mload(0x40)\n      tag_120\n      swap2\n      swap1\n      tag_36\n      jump\t// in\n    tag_120:\n      mload(0x40)\n      dup1\n      swap2\n      sub\n      swap1\n      log2\n        /* \"contracts/CrowdFunding.sol\":2922:3346  {... */\n      pop\n        /* \"contracts/CrowdFunding.sol\":2854:3346  function withdraw(uint256 _amount) public inState(State.Nefinantat) {... */\n      pop\n      pop\n      jump\t// out\n        /* \"contracts/CrowdFunding.sol\":762:810  mapping(address => uint256) public contributions */\n    tag_43:\n      mstore(0x20, 0x07)\n      dup1\n      0x00\n      mstore\n      keccak256(0x00, 0x40)\n      0x00\n      swap2\n      pop\n      swap1\n      pop\n      sload\n      dup2\n      jump\t// out\n        /* \"contracts/CrowdFunding.sol\":557:589  address public distributeAddress */\n    tag_46:\n      0x03\n      0x00\n      swap1\n      sload\n      swap1\n      0x0100\n      exp\n      swap1\n      div\n      0xffffffffffffffffffffffffffffffffffffffff\n      and\n      dup2\n      jump\t// out\n        /* \"contracts/CrowdFunding.sol\":4024:4441  function finalizeAndTransfer() public onlyOwner inState(State.Finantat) {... */\n    tag_50:\n        /* \"contracts/CrowdFunding.sol\":1167:1172  owner */\n      0x00\n      dup1\n      sload\n      swap1\n      0x0100\n      exp\n      swap1\n      div\n      0xffffffffffffffffffffffffffffffffffffffff\n      and\n        /* \"contracts/CrowdFunding.sol\":1153:1172  msg.sender == owner */\n      0xffffffffffffffffffffffffffffffffffffffff\n      and\n        /* \"contracts/CrowdFunding.sol\":1153:1163  msg.sender */\n      caller\n        /* \"contracts/CrowdFunding.sol\":1153:1172  msg.sender == owner */\n      0xffffffffffffffffffffffffffffffffffffffff\n      and\n      eq\n        /* \"contracts/CrowdFunding.sol\":1145:1187  require(msg.sender == owner, \"Only owner\") */\n      tag_122\n      jumpi\n      mload(0x40)\n      0x08c379a000000000000000000000000000000000000000000000000000000000\n      dup2\n      mstore\n      0x04\n      add\n      tag_123\n      swap1\n      tag_124\n      jump\t// in\n    tag_123:\n      mload(0x40)\n      dup1\n      swap2\n      sub\n      swap1\n      revert\n    tag_122:\n        /* \"contracts/CrowdFunding.sol\":4080:4094  State.Finantat */\n      0x02\n        /* \"contracts/CrowdFunding.sol\":1285:1291  _state */\n      dup1\n        /* \"contracts/CrowdFunding.sol\":1269:1291  currentState == _state */\n      0x02\n      dup2\n      gt\n      iszero\n      tag_126\n      jumpi\n      tag_127\n      tag_83\n      jump\t// in\n    tag_127:\n    tag_126:\n        /* \"contracts/CrowdFunding.sol\":1269:1281  currentState */\n      0x06\n      0x00\n      swap1\n      sload\n      swap1\n      0x0100\n      exp\n      swap1\n      div\n      0xff\n      and\n        /* \"contracts/CrowdFunding.sol\":1269:1291  currentState == _state */\n      0x02\n      dup2\n      gt\n      iszero\n      tag_128\n      jumpi\n      tag_129\n      tag_83\n      jump\t// in\n    tag_129:\n    tag_128:\n      eq\n        /* \"contracts/CrowdFunding.sol\":1261:1309  require(currentState == _state, \"Invalid state\") */\n      tag_130\n      jumpi\n      mload(0x40)\n      0x08c379a000000000000000000000000000000000000000000000000000000000\n      dup2\n      mstore\n      0x04\n      add\n      tag_131\n      swap1\n      tag_100\n      jump\t// in\n    tag_131:\n      mload(0x40)\n      dup1\n      swap2\n      sub\n      swap1\n      revert\n    tag_130:\n        /* \"contracts/CrowdFunding.sol\":4144:4145  0 */\n      0x00\n        /* \"contracts/CrowdFunding.sol\":4115:4146  distributeAddress != address(0) */\n      0xffffffffffffffffffffffffffffffffffffffff\n      and\n        /* \"contracts/CrowdFunding.sol\":4115:4132  distributeAddress */\n      0x03\n      0x00\n      swap1\n      sload\n      swap1\n      0x0100\n      exp\n      swap1\n      div\n      0xffffffffffffffffffffffffffffffffffffffff\n      and\n        /* \"contracts/CrowdFunding.sol\":4115:4146  distributeAddress != address(0) */\n      0xffffffffffffffffffffffffffffffffffffffff\n      and\n      sub\n        /* \"contracts/CrowdFunding.sol\":4107:4169  require(distributeAddress != address(0), \"Distribute not set\") */\n      tag_133\n      jumpi\n      mload(0x40)\n      0x08c379a000000000000000000000000000000000000000000000000000000000\n      dup2\n      mstore\n      0x04\n      add\n      tag_134\n      swap1\n      tag_135\n      jump\t// in\n    tag_134:\n      mload(0x40)\n      dup1\n      swap2\n      sub\n      swap1\n      revert\n    tag_133:\n        /* \"contracts/CrowdFunding.sol\":4190:4205  uint256 balance */\n      0x00\n        /* \"contracts/CrowdFunding.sol\":4215:4227  tokenAddress */\n      0x01\n      0x00\n      swap1\n      sload\n      swap1\n      0x0100\n      exp\n      swap1\n      div\n      0xffffffffffffffffffffffffffffffffffffffff\n      and\n        /* \"contracts/CrowdFunding.sol\":4208:4238  IERC20(tokenAddress).balanceOf */\n      0xffffffffffffffffffffffffffffffffffffffff\n      and\n      0x70a08231\n        /* \"contracts/CrowdFunding.sol\":4247:4251  this */\n      address\n        /* \"contracts/CrowdFunding.sol\":4208:4253  IERC20(tokenAddress).balanceOf(address(this)) */\n      mload(0x40)\n      dup3\n      0xffffffff\n      and\n      0xe0\n      shl\n      dup2\n      mstore\n      0x04\n      add\n      tag_136\n      swap2\n      swap1\n      tag_48\n      jump\t// in\n    tag_136:\n      0x20\n      mload(0x40)\n      dup1\n      dup4\n      sub\n      dup2\n      dup7\n      gas\n      staticcall\n      iszero\n      dup1\n      iszero\n      tag_138\n      jumpi\n      returndatasize\n      0x00\n      dup1\n      returndatacopy\n      revert(0x00, returndatasize)\n    tag_138:\n      pop\n      pop\n      pop\n      pop\n      mload(0x40)\n      returndatasize\n      not(0x1f)\n      0x1f\n      dup3\n      add\n      and\n      dup3\n      add\n      dup1\n      0x40\n      mstore\n      pop\n      dup2\n      add\n      swap1\n      tag_139\n      swap2\n      swap1\n      tag_140\n      jump\t// in\n    tag_139:\n        /* \"contracts/CrowdFunding.sol\":4190:4253  uint256 balance = IERC20(tokenAddress).balanceOf(address(this)) */\n      swap1\n      pop\n        /* \"contracts/CrowdFunding.sol\":4282:4283  0 */\n      0x00\n        /* \"contracts/CrowdFunding.sol\":4272:4279  balance */\n      dup2\n        /* \"contracts/CrowdFunding.sol\":4272:4283  balance > 0 */\n      gt\n        /* \"contracts/CrowdFunding.sol\":4264:4296  require(balance > 0, \"No funds\") */\n      tag_141\n      jumpi\n      mload(0x40)\n      0x08c379a000000000000000000000000000000000000000000000000000000000\n      dup2\n      mstore\n      0x04\n      add\n      tag_142\n      swap1\n      tag_143\n      jump\t// in\n    tag_142:\n      mload(0x40)\n      dup1\n      swap2\n      sub\n      swap1\n      revert\n    tag_141:\n        /* \"contracts/CrowdFunding.sol\":4317:4329  IERC20 token */\n      0x00\n        /* \"contracts/CrowdFunding.sol\":4339:4351  tokenAddress */\n      0x01\n      0x00\n      swap1\n      sload\n      swap1\n      0x0100\n      exp\n      swap1\n      div\n      0xffffffffffffffffffffffffffffffffffffffff\n      and\n        /* \"contracts/CrowdFunding.sol\":4317:4352  IERC20 token = IERC20(tokenAddress) */\n      swap1\n      pop\n        /* \"contracts/CrowdFunding.sol\":4371:4376  token */\n      dup1\n        /* \"contracts/CrowdFunding.sol\":4371:4385  token.transfer */\n      0xffffffffffffffffffffffffffffffffffffffff\n      and\n      0xa9059cbb\n        /* \"contracts/CrowdFunding.sol\":4386:4403  distributeAddress */\n      0x03\n      0x00\n      swap1\n      sload\n      swap1\n      0x0100\n      exp\n      swap1\n      div\n      0xffffffffffffffffffffffffffffffffffffffff\n      and\n        /* \"contracts/CrowdFunding.sol\":4405:4412  balance */\n      dup5\n        /* \"contracts/CrowdFunding.sol\":4371:4413  token.transfer(distributeAddress, balance) */\n      mload(0x40)\n      dup4\n      0xffffffff\n      and\n      0xe0\n      shl\n      dup2\n      mstore\n      0x04\n      add\n      tag_144\n      swap3\n      swap2\n      swap1\n      tag_112\n      jump\t// in\n    tag_144:\n      0x20\n      mload(0x40)\n      dup1\n      dup4\n      sub\n      dup2\n      0x00\n      dup8\n      gas\n      call\n      iszero\n      dup1\n      iszero\n      tag_146\n      jumpi\n      returndatasize\n      0x00\n      dup1\n      returndatacopy\n      revert(0x00, returndatasize)\n    tag_146:\n      pop\n      pop\n      pop\n      pop\n      mload(0x40)\n      returndatasize\n      not(0x1f)\n      0x1f\n      dup3\n      add\n      and\n      dup3\n      add\n      dup1\n      0x40\n      mstore\n      pop\n      dup2\n      add\n      swap1\n      tag_147\n      swap2\n      swap1\n      tag_116\n      jump\t// in\n    tag_147:\n        /* \"contracts/CrowdFunding.sol\":4363:4433  require(token.transfer(distributeAddress, balance), \"Transfer failed\") */\n      tag_148\n      jumpi\n      mload(0x40)\n      0x08c379a000000000000000000000000000000000000000000000000000000000\n      dup2\n      mstore\n      0x04\n      add\n      tag_149\n      swap1\n      tag_119\n      jump\t// in\n    tag_149:\n      mload(0x40)\n      dup1\n      swap2\n      sub\n      swap1\n      revert\n    tag_148:\n        /* \"contracts/CrowdFunding.sol\":4096:4441  {... */\n      pop\n      pop\n        /* \"contracts/CrowdFunding.sol\":1198:1199  _ */\n      pop\n        /* \"contracts/CrowdFunding.sol\":4024:4441  function finalizeAndTransfer() public onlyOwner inState(State.Finantat) {... */\n      jump\t// out\n        /* \"contracts/CrowdFunding.sol\":521:550  address public sponsorAddress */\n    tag_52:\n      0x02\n      0x00\n      swap1\n      sload\n      swap1\n      0x0100\n      exp\n      swap1\n      div\n      0xffffffffffffffffffffffffffffffffffffffff\n      and\n      dup2\n      jump\t// out\n        /* \"contracts/CrowdFunding.sol\":596:622  uint256 public fundingGoal */\n    tag_55:\n      sload(0x04)\n      dup2\n      jump\t// out\n        /* \"contracts/CrowdFunding.sol\":460:480  address public owner */\n    tag_58:\n      0x00\n      dup1\n      sload\n      swap1\n      0x0100\n      exp\n      swap1\n      div\n      0xffffffffffffffffffffffffffffffffffffffff\n      and\n      dup2\n      jump\t// out\n        /* \"contracts/CrowdFunding.sol\":487:514  address public tokenAddress */\n    tag_61:\n      0x01\n      0x00\n      swap1\n      sload\n      swap1\n      0x0100\n      exp\n      swap1\n      div\n      0xffffffffffffffffffffffffffffffffffffffff\n      and\n      dup2\n      jump\t// out\n        /* \"contracts/CrowdFunding.sol\":1909:2112  function setDistributeAddress(address _distributeAddress) public onlyOwner {... */\n    tag_65:\n        /* \"contracts/CrowdFunding.sol\":1167:1172  owner */\n      0x00\n      dup1\n      sload\n      swap1\n      0x0100\n      exp\n      swap1\n      div\n      0xffffffffffffffffffffffffffffffffffffffff\n      and\n        /* \"contracts/CrowdFunding.sol\":1153:1172  msg.sender == owner */\n      0xffffffffffffffffffffffffffffffffffffffff\n      and\n        /* \"contracts/CrowdFunding.sol\":1153:1163  msg.sender */\n      caller\n        /* \"contracts/CrowdFunding.sol\":1153:1172  msg.sender == owner */\n      0xffffffffffffffffffffffffffffffffffffffff\n      and\n      eq\n        /* \"contracts/CrowdFunding.sol\":1145:1187  require(msg.sender == owner, \"Only owner\") */\n      tag_151\n      jumpi\n      mload(0x40)\n      0x08c379a000000000000000000000000000000000000000000000000000000000\n      dup2\n      mstore\n      0x04\n      add\n      tag_152\n      swap1\n      tag_124\n      jump\t// in\n    tag_152:\n      mload(0x40)\n      dup1\n      swap2\n      sub\n      swap1\n      revert\n    tag_151:\n        /* \"contracts/CrowdFunding.sol\":2033:2034  0 */\n      0x00\n        /* \"contracts/CrowdFunding.sol\":2003:2035  _distributeAddress != address(0) */\n      0xffffffffffffffffffffffffffffffffffffffff\n      and\n        /* \"contracts/CrowdFunding.sol\":2003:2021  _distributeAddress */\n      dup2\n        /* \"contracts/CrowdFunding.sol\":2003:2035  _distributeAddress != address(0) */\n      0xffffffffffffffffffffffffffffffffffffffff\n      and\n      sub\n        /* \"contracts/CrowdFunding.sol\":1995:2055  require(_distributeAddress != address(0), \"Invalid address\") */\n      tag_154\n      jumpi\n      mload(0x40)\n      0x08c379a000000000000000000000000000000000000000000000000000000000\n      dup2\n      mstore\n      0x04\n      add\n      tag_155\n      swap1\n      tag_156\n      jump\t// in\n    tag_155:\n      mload(0x40)\n      dup1\n      swap2\n      sub\n      swap1\n      revert\n    tag_154:\n        /* \"contracts/CrowdFunding.sol\":2086:2104  _distributeAddress */\n      dup1\n        /* \"contracts/CrowdFunding.sol\":2066:2083  distributeAddress */\n      0x03\n      0x00\n        /* \"contracts/CrowdFunding.sol\":2066:2104  distributeAddress = _distributeAddress */\n      0x0100\n      exp\n      dup2\n      sload\n      dup2\n      0xffffffffffffffffffffffffffffffffffffffff\n      mul\n      not\n      and\n      swap1\n      dup4\n      0xffffffffffffffffffffffffffffffffffffffff\n      and\n      mul\n      or\n      swap1\n      sstore\n      pop\n        /* \"contracts/CrowdFunding.sol\":1909:2112  function setDistributeAddress(address _distributeAddress) public onlyOwner {... */\n      pop\n      jump\t// out\n        /* \"contracts/CrowdFunding.sol\":2124:2842  function contribute(uint256 _amount) public inState(State.Nefinantat) {... */\n    tag_68:\n        /* \"contracts/CrowdFunding.sol\":2176:2192  State.Nefinantat */\n      0x00\n        /* \"contracts/CrowdFunding.sol\":1285:1291  _state */\n      dup1\n        /* \"contracts/CrowdFunding.sol\":1269:1291  currentState == _state */\n      0x02\n      dup2\n      gt\n      iszero\n      tag_158\n      jumpi\n      tag_159\n      tag_83\n      jump\t// in\n    tag_159:\n    tag_158:\n        /* \"contracts/CrowdFunding.sol\":1269:1281  currentState */\n      0x06\n      0x00\n      swap1\n      sload\n      swap1\n      0x0100\n      exp\n      swap1\n      div\n      0xff\n      and\n        /* \"contracts/CrowdFunding.sol\":1269:1291  currentState == _state */\n      0x02\n      dup2\n      gt\n      iszero\n      tag_160\n      jumpi\n      tag_161\n      tag_83\n      jump\t// in\n    tag_161:\n    tag_160:\n      eq\n        /* \"contracts/CrowdFunding.sol\":1261:1309  require(currentState == _state, \"Invalid state\") */\n      tag_162\n      jumpi\n      mload(0x40)\n      0x08c379a000000000000000000000000000000000000000000000000000000000\n      dup2\n      mstore\n      0x04\n      add\n      tag_163\n      swap1\n      tag_100\n      jump\t// in\n    tag_163:\n      mload(0x40)\n      dup1\n      swap2\n      sub\n      swap1\n      revert\n    tag_162:\n        /* \"contracts/CrowdFunding.sol\":2223:2224  0 */\n      0x00\n        /* \"contracts/CrowdFunding.sol\":2213:2220  _amount */\n      dup3\n        /* \"contracts/CrowdFunding.sol\":2213:2224  _amount > 0 */\n      gt\n        /* \"contracts/CrowdFunding.sol\":2205:2252  require(_amount > 0, \"Amount must be positive\") */\n      tag_165\n      jumpi\n      mload(0x40)\n      0x08c379a000000000000000000000000000000000000000000000000000000000\n      dup2\n      mstore\n      0x04\n      add\n      tag_166\n      swap1\n      tag_104\n      jump\t// in\n    tag_166:\n      mload(0x40)\n      dup1\n      swap2\n      sub\n      swap1\n      revert\n    tag_165:\n        /* \"contracts/CrowdFunding.sol\":2298:2309  fundingGoal */\n      sload(0x04)\n        /* \"contracts/CrowdFunding.sol\":2287:2294  _amount */\n      dup3\n        /* \"contracts/CrowdFunding.sol\":2271:2284  currentAmount */\n      sload(0x05)\n        /* \"contracts/CrowdFunding.sol\":2271:2294  currentAmount + _amount */\n      tag_167\n      swap2\n      swap1\n      tag_168\n      jump\t// in\n    tag_167:\n        /* \"contracts/CrowdFunding.sol\":2271:2309  currentAmount + _amount <= fundingGoal */\n      gt\n      iszero\n        /* \"contracts/CrowdFunding.sol\":2263:2326  require(currentAmount + _amount <= fundingGoal, \"Exceeds goal\") */\n      tag_169\n      jumpi\n      mload(0x40)\n      0x08c379a000000000000000000000000000000000000000000000000000000000\n      dup2\n      mstore\n      0x04\n      add\n      tag_170\n      swap1\n      tag_171\n      jump\t// in\n    tag_170:\n      mload(0x40)\n      dup1\n      swap2\n      sub\n      swap1\n      revert\n    tag_169:\n        /* \"contracts/CrowdFunding.sol\":2347:2359  IERC20 token */\n      0x00\n        /* \"contracts/CrowdFunding.sol\":2369:2381  tokenAddress */\n      0x01\n      0x00\n      swap1\n      sload\n      swap1\n      0x0100\n      exp\n      swap1\n      div\n      0xffffffffffffffffffffffffffffffffffffffff\n      and\n        /* \"contracts/CrowdFunding.sol\":2347:2382  IERC20 token = IERC20(tokenAddress) */\n      swap1\n      pop\n        /* \"contracts/CrowdFunding.sol\":2401:2406  token */\n      dup1\n        /* \"contracts/CrowdFunding.sol\":2401:2419  token.transferFrom */\n      0xffffffffffffffffffffffffffffffffffffffff\n      and\n      0x23b872dd\n        /* \"contracts/CrowdFunding.sol\":2420:2430  msg.sender */\n      caller\n        /* \"contracts/CrowdFunding.sol\":2440:2444  this */\n      address\n        /* \"contracts/CrowdFunding.sol\":2447:2454  _amount */\n      dup7\n        /* \"contracts/CrowdFunding.sol\":2401:2455  token.transferFrom(msg.sender, address(this), _amount) */\n      mload(0x40)\n      dup5\n      0xffffffff\n      and\n      0xe0\n      shl\n      dup2\n      mstore\n      0x04\n      add\n      tag_172\n      swap4\n      swap3\n      swap2\n      swap1\n      tag_173\n      jump\t// in\n    tag_172:\n      0x20\n      mload(0x40)\n      dup1\n      dup4\n      sub\n      dup2\n      0x00\n      dup8\n      gas\n      call\n      iszero\n      dup1\n      iszero\n      tag_175\n      jumpi\n      returndatasize\n      0x00\n      dup1\n      returndatacopy\n      revert(0x00, returndatasize)\n    tag_175:\n      pop\n      pop\n      pop\n      pop\n      mload(0x40)\n      returndatasize\n      not(0x1f)\n      0x1f\n      dup3\n      add\n      and\n      dup3\n      add\n      dup1\n      0x40\n      mstore\n      pop\n      dup2\n      add\n      swap1\n      tag_176\n      swap2\n      swap1\n      tag_116\n      jump\t// in\n    tag_176:\n        /* \"contracts/CrowdFunding.sol\":2393:2475  require(token.transferFrom(msg.sender, address(this), _amount), \"Transfer failed\") */\n      tag_177\n      jumpi\n      mload(0x40)\n      0x08c379a000000000000000000000000000000000000000000000000000000000\n      dup2\n      mstore\n      0x04\n      add\n      tag_178\n      swap1\n      tag_119\n      jump\t// in\n    tag_178:\n      mload(0x40)\n      dup1\n      swap2\n      sub\n      swap1\n      revert\n    tag_177:\n        /* \"contracts/CrowdFunding.sol\":2525:2532  _amount */\n      dup3\n        /* \"contracts/CrowdFunding.sol\":2496:2509  contributions */\n      0x07\n        /* \"contracts/CrowdFunding.sol\":2496:2521  contributions[msg.sender] */\n      0x00\n        /* \"contracts/CrowdFunding.sol\":2510:2520  msg.sender */\n      caller\n        /* \"contracts/CrowdFunding.sol\":2496:2521  contributions[msg.sender] */\n      0xffffffffffffffffffffffffffffffffffffffff\n      and\n      0xffffffffffffffffffffffffffffffffffffffff\n      and\n      dup2\n      mstore\n      0x20\n      add\n      swap1\n      dup2\n      mstore\n      0x20\n      add\n      0x00\n      keccak256\n      0x00\n        /* \"contracts/CrowdFunding.sol\":2496:2532  contributions[msg.sender] += _amount */\n      dup3\n      dup3\n      sload\n      tag_179\n      swap2\n      swap1\n      tag_168\n      jump\t// in\n    tag_179:\n      swap3\n      pop\n      pop\n      dup2\n      swap1\n      sstore\n      pop\n        /* \"contracts/CrowdFunding.sol\":2560:2567  _amount */\n      dup3\n        /* \"contracts/CrowdFunding.sol\":2543:2556  currentAmount */\n      0x05\n      0x00\n        /* \"contracts/CrowdFunding.sol\":2543:2567  currentAmount += _amount */\n      dup3\n      dup3\n      sload\n      tag_180\n      swap2\n      swap1\n      tag_168\n      jump\t// in\n    tag_180:\n      swap3\n      pop\n      pop\n      dup2\n      swap1\n      sstore\n      pop\n        /* \"contracts/CrowdFunding.sol\":2604:2614  msg.sender */\n      caller\n        /* \"contracts/CrowdFunding.sol\":2583:2624  ContributionReceived(msg.sender, _amount) */\n      0xffffffffffffffffffffffffffffffffffffffff\n      and\n      0x1bb460ccaaf70fbacfec17a376f8acbd278c1405590ffcc8ebe4b88daf4f64ad\n        /* \"contracts/CrowdFunding.sol\":2616:2623  _amount */\n      dup5\n        /* \"contracts/CrowdFunding.sol\":2583:2624  ContributionReceived(msg.sender, _amount) */\n      mload(0x40)\n      tag_181\n      swap2\n      swap1\n      tag_36\n      jump\t// in\n    tag_181:\n      mload(0x40)\n      dup1\n      swap2\n      sub\n      swap1\n      log2\n        /* \"contracts/CrowdFunding.sol\":2666:2677  fundingGoal */\n      sload(0x04)\n        /* \"contracts/CrowdFunding.sol\":2649:2662  currentAmount */\n      sload(0x05)\n        /* \"contracts/CrowdFunding.sol\":2649:2677  currentAmount >= fundingGoal */\n      lt\n        /* \"contracts/CrowdFunding.sol\":2645:2835  if (currentAmount >= fundingGoal) {... */\n      tag_182\n      jumpi\n        /* \"contracts/CrowdFunding.sol\":2709:2726  State.Prefinantat */\n      0x01\n        /* \"contracts/CrowdFunding.sol\":2694:2706  currentState */\n      0x06\n      0x00\n        /* \"contracts/CrowdFunding.sol\":2694:2726  currentState = State.Prefinantat */\n      0x0100\n      exp\n      dup2\n      sload\n      dup2\n      0xff\n      mul\n      not\n      and\n      swap1\n      dup4\n      0x02\n      dup2\n      gt\n      iszero\n      tag_183\n      jumpi\n      tag_184\n      tag_83\n      jump\t// in\n    tag_184:\n    tag_183:\n      mul\n      or\n      swap1\n      sstore\n      pop\n        /* \"contracts/CrowdFunding.sol\":2746:2772  GoalReached(currentAmount) */\n      0xfbfd8ab7c24300fa9888cd721c8565a7da56759384781283684dcf7c7c4a846b\n        /* \"contracts/CrowdFunding.sol\":2758:2771  currentAmount */\n      sload(0x05)\n        /* \"contracts/CrowdFunding.sol\":2746:2772  GoalReached(currentAmount) */\n      mload(0x40)\n      tag_185\n      swap2\n      swap1\n      tag_36\n      jump\t// in\n    tag_185:\n      mload(0x40)\n      dup1\n      swap2\n      sub\n      swap1\n      log1\n        /* \"contracts/CrowdFunding.sol\":2792:2823  StateChanged(State.Prefinantat) */\n      0x551dc40198cc79684bb69e4931dba4ac16e4598792ee1c0a5000aeea366d7bb6\n        /* \"contracts/CrowdFunding.sol\":2805:2822  State.Prefinantat */\n      0x01\n        /* \"contracts/CrowdFunding.sol\":2792:2823  StateChanged(State.Prefinantat) */\n      mload(0x40)\n      tag_186\n      swap2\n      swap1\n      tag_26\n      jump\t// in\n    tag_186:\n      mload(0x40)\n      dup1\n      swap2\n      sub\n      swap1\n      log1\n        /* \"contracts/CrowdFunding.sol\":2645:2835  if (currentAmount >= fundingGoal) {... */\n    tag_182:\n        /* \"contracts/CrowdFunding.sol\":2194:2842  {... */\n      pop\n        /* \"contracts/CrowdFunding.sol\":2124:2842  function contribute(uint256 _amount) public inState(State.Nefinantat) {... */\n      pop\n      pop\n      jump\t// out\n        /* \"contracts/CrowdFunding.sol\":3358:4012  function requestSponsorship() public onlyOwner inState(State.Prefinantat) {... */\n    tag_70:\n        /* \"contracts/CrowdFunding.sol\":1167:1172  owner */\n      0x00\n      dup1\n      sload\n      swap1\n      0x0100\n      exp\n      swap1\n      div\n      0xffffffffffffffffffffffffffffffffffffffff\n      and\n        /* \"contracts/CrowdFunding.sol\":1153:1172  msg.sender == owner */\n      0xffffffffffffffffffffffffffffffffffffffff\n      and\n        /* \"contracts/CrowdFunding.sol\":1153:1163  msg.sender */\n      caller\n        /* \"contracts/CrowdFunding.sol\":1153:1172  msg.sender == owner */\n      0xffffffffffffffffffffffffffffffffffffffff\n      and\n      eq\n        /* \"contracts/CrowdFunding.sol\":1145:1187  require(msg.sender == owner, \"Only owner\") */\n      tag_188\n      jumpi\n      mload(0x40)\n      0x08c379a000000000000000000000000000000000000000000000000000000000\n      dup2\n      mstore\n      0x04\n      add\n      tag_189\n      swap1\n      tag_124\n      jump\t// in\n    tag_189:\n      mload(0x40)\n      dup1\n      swap2\n      sub\n      swap1\n      revert\n    tag_188:\n        /* \"contracts/CrowdFunding.sol\":3413:3430  State.Prefinantat */\n      0x01\n        /* \"contracts/CrowdFunding.sol\":1285:1291  _state */\n      dup1\n        /* \"contracts/CrowdFunding.sol\":1269:1291  currentState == _state */\n      0x02\n      dup2\n      gt\n      iszero\n      tag_191\n      jumpi\n      tag_192\n      tag_83\n      jump\t// in\n    tag_192:\n    tag_191:\n        /* \"contracts/CrowdFunding.sol\":1269:1281  currentState */\n      0x06\n      0x00\n      swap1\n      sload\n      swap1\n      0x0100\n      exp\n      swap1\n      div\n      0xff\n      and\n        /* \"contracts/CrowdFunding.sol\":1269:1291  currentState == _state */\n      0x02\n      dup2\n      gt\n      iszero\n      tag_193\n      jumpi\n      tag_194\n      tag_83\n      jump\t// in\n    tag_194:\n    tag_193:\n      eq\n        /* \"contracts/CrowdFunding.sol\":1261:1309  require(currentState == _state, \"Invalid state\") */\n      tag_195\n      jumpi\n      mload(0x40)\n      0x08c379a000000000000000000000000000000000000000000000000000000000\n      dup2\n      mstore\n      0x04\n      add\n      tag_196\n      swap1\n      tag_100\n      jump\t// in\n    tag_196:\n      mload(0x40)\n      dup1\n      swap2\n      sub\n      swap1\n      revert\n    tag_195:\n        /* \"contracts/CrowdFunding.sol\":3477:3478  0 */\n      0x00\n        /* \"contracts/CrowdFunding.sol\":3451:3479  sponsorAddress != address(0) */\n      0xffffffffffffffffffffffffffffffffffffffff\n      and\n        /* \"contracts/CrowdFunding.sol\":3451:3465  sponsorAddress */\n      0x02\n      0x00\n      swap1\n      sload\n      swap1\n      0x0100\n      exp\n      swap1\n      div\n      0xffffffffffffffffffffffffffffffffffffffff\n      and\n        /* \"contracts/CrowdFunding.sol\":3451:3479  sponsorAddress != address(0) */\n      0xffffffffffffffffffffffffffffffffffffffff\n      and\n      sub\n        /* \"contracts/CrowdFunding.sol\":3443:3499  require(sponsorAddress != address(0), \"Sponsor not set\") */\n      tag_198\n      jumpi\n      mload(0x40)\n      0x08c379a000000000000000000000000000000000000000000000000000000000\n      dup2\n      mstore\n      0x04\n      add\n      tag_199\n      swap1\n      tag_200\n      jump\t// in\n    tag_199:\n      mload(0x40)\n      dup1\n      swap2\n      sub\n      swap1\n      revert\n    tag_198:\n        /* \"contracts/CrowdFunding.sol\":3520:3541  uint256 balanceBefore */\n      0x00\n        /* \"contracts/CrowdFunding.sol\":3551:3563  tokenAddress */\n      0x01\n      0x00\n      swap1\n      sload\n      swap1\n      0x0100\n      exp\n      swap1\n      div\n      0xffffffffffffffffffffffffffffffffffffffff\n      and\n        /* \"contracts/CrowdFunding.sol\":3544:3574  IERC20(tokenAddress).balanceOf */\n      0xffffffffffffffffffffffffffffffffffffffff\n      and\n      0x70a08231\n        /* \"contracts/CrowdFunding.sol\":3583:3587  this */\n      address\n        /* \"contracts/CrowdFunding.sol\":3544:3589  IERC20(tokenAddress).balanceOf(address(this)) */\n      mload(0x40)\n      dup3\n      0xffffffff\n      and\n      0xe0\n      shl\n      dup2\n      mstore\n      0x04\n      add\n      tag_201\n      swap2\n      swap1\n      tag_48\n      jump\t// in\n    tag_201:\n      0x20\n      mload(0x40)\n      dup1\n      dup4\n      sub\n      dup2\n      dup7\n      gas\n      staticcall\n      iszero\n      dup1\n      iszero\n      tag_203\n      jumpi\n      returndatasize\n      0x00\n      dup1\n      returndatacopy\n      revert(0x00, returndatasize)\n    tag_203:\n      pop\n      pop\n      pop\n      pop\n      mload(0x40)\n      returndatasize\n      not(0x1f)\n      0x1f\n      dup3\n      add\n      and\n      dup3\n      add\n      dup1\n      0x40\n      mstore\n      pop\n      dup2\n      add\n      swap1\n      tag_204\n      swap2\n      swap1\n      tag_140\n      jump\t// in\n    tag_204:\n        /* \"contracts/CrowdFunding.sol\":3520:3589  uint256 balanceBefore = IERC20(tokenAddress).balanceOf(address(this)) */\n      swap1\n      pop\n        /* \"contracts/CrowdFunding.sol\":3616:3630  sponsorAddress */\n      0x02\n      0x00\n      swap1\n      sload\n      swap1\n      0x0100\n      exp\n      swap1\n      div\n      0xffffffffffffffffffffffffffffffffffffffff\n      and\n        /* \"contracts/CrowdFunding.sol\":3600:3646  ISponsorFunding(sponsorAddress).provideSponsor */\n      0xffffffffffffffffffffffffffffffffffffffff\n      and\n      0xc5d9b404\n        /* \"contracts/CrowdFunding.sol\":3655:3659  this */\n      address\n        /* \"contracts/CrowdFunding.sol\":3600:3661  ISponsorFunding(sponsorAddress).provideSponsor(address(this)) */\n      mload(0x40)\n      dup3\n      0xffffffff\n      and\n      0xe0\n      shl\n      dup2\n      mstore\n      0x04\n      add\n      tag_205\n      swap2\n      swap1\n      tag_48\n      jump\t// in\n    tag_205:\n      0x00\n      mload(0x40)\n      dup1\n      dup4\n      sub\n      dup2\n      0x00\n      dup8\n      dup1\n      extcodesize\n      iszero\n      dup1\n      iszero\n      tag_206\n      jumpi\n      0x00\n      dup1\n      revert\n    tag_206:\n      pop\n      gas\n      call\n      iszero\n      dup1\n      iszero\n      tag_208\n      jumpi\n      returndatasize\n      0x00\n      dup1\n      returndatacopy\n      revert(0x00, returndatasize)\n    tag_208:\n      pop\n      pop\n      pop\n      pop\n        /* \"contracts/CrowdFunding.sol\":3672:3692  uint256 balanceAfter */\n      0x00\n        /* \"contracts/CrowdFunding.sol\":3702:3714  tokenAddress */\n      0x01\n      0x00\n      swap1\n      sload\n      swap1\n      0x0100\n      exp\n      swap1\n      div\n      0xffffffffffffffffffffffffffffffffffffffff\n      and\n        /* \"contracts/CrowdFunding.sol\":3695:3725  IERC20(tokenAddress).balanceOf */\n      0xffffffffffffffffffffffffffffffffffffffff\n      and\n      0x70a08231\n        /* \"contracts/CrowdFunding.sol\":3734:3738  this */\n      address\n        /* \"contracts/CrowdFunding.sol\":3695:3740  IERC20(tokenAddress).balanceOf(address(this)) */\n      mload(0x40)\n      dup3\n      0xffffffff\n      and\n      0xe0\n      shl\n      dup2\n      mstore\n      0x04\n      add\n      tag_209\n      swap2\n      swap1\n      tag_48\n      jump\t// in\n    tag_209:\n      0x20\n      mload(0x40)\n      dup1\n      dup4\n      sub\n      dup2\n      dup7\n      gas\n      staticcall\n      iszero\n      dup1\n      iszero\n      tag_211\n      jumpi\n      returndatasize\n      0x00\n      dup1\n      returndatacopy\n      revert(0x00, returndatasize)\n    tag_211:\n      pop\n      pop\n      pop\n      pop\n      mload(0x40)\n      returndatasize\n      not(0x1f)\n      0x1f\n      dup3\n      add\n      and\n      dup3\n      add\n      dup1\n      0x40\n      mstore\n      pop\n      dup2\n      add\n      swap1\n      tag_212\n      swap2\n      swap1\n      tag_140\n      jump\t// in\n    tag_212:\n        /* \"contracts/CrowdFunding.sol\":3672:3740  uint256 balanceAfter = IERC20(tokenAddress).balanceOf(address(this)) */\n      swap1\n      pop\n        /* \"contracts/CrowdFunding.sol\":3761:3786  uint256 sponsorshipAmount */\n      0x00\n        /* \"contracts/CrowdFunding.sol\":3804:3817  balanceBefore */\n      dup3\n        /* \"contracts/CrowdFunding.sol\":3789:3801  balanceAfter */\n      dup3\n        /* \"contracts/CrowdFunding.sol\":3789:3817  balanceAfter - balanceBefore */\n      tag_213\n      swap2\n      swap1\n      tag_109\n      jump\t// in\n    tag_213:\n        /* \"contracts/CrowdFunding.sol\":3761:3817  uint256 sponsorshipAmount = balanceAfter - balanceBefore */\n      swap1\n      pop\n        /* \"contracts/CrowdFunding.sol\":3844:3856  balanceAfter */\n      dup2\n        /* \"contracts/CrowdFunding.sol\":3828:3841  currentAmount */\n      0x05\n        /* \"contracts/CrowdFunding.sol\":3828:3856  currentAmount = balanceAfter */\n      dup2\n      swap1\n      sstore\n      pop\n        /* \"contracts/CrowdFunding.sol\":3882:3896  State.Finantat */\n      0x02\n        /* \"contracts/CrowdFunding.sol\":3867:3879  currentState */\n      0x06\n      0x00\n        /* \"contracts/CrowdFunding.sol\":3867:3896  currentState = State.Finantat */\n      0x0100\n      exp\n      dup2\n      sload\n      dup2\n      0xff\n      mul\n      not\n      and\n      swap1\n      dup4\n      0x02\n      dup2\n      gt\n      iszero\n      tag_214\n      jumpi\n      tag_215\n      tag_83\n      jump\t// in\n    tag_215:\n    tag_214:\n      mul\n      or\n      swap1\n      sstore\n      pop\n        /* \"contracts/CrowdFunding.sol\":3922:3960  SponsorshipReceived(sponsorshipAmount) */\n      0xe39ffe3225753008b3e2be16d5450bd66fae7dd9bf04cccdc2f2218a74f24210\n        /* \"contracts/CrowdFunding.sol\":3942:3959  sponsorshipAmount */\n      dup2\n        /* \"contracts/CrowdFunding.sol\":3922:3960  SponsorshipReceived(sponsorshipAmount) */\n      mload(0x40)\n      tag_216\n      swap2\n      swap1\n      tag_36\n      jump\t// in\n    tag_216:\n      mload(0x40)\n      dup1\n      swap2\n      sub\n      swap1\n      log1\n        /* \"contracts/CrowdFunding.sol\":3976:4004  StateChanged(State.Finantat) */\n      0x551dc40198cc79684bb69e4931dba4ac16e4598792ee1c0a5000aeea366d7bb6\n        /* \"contracts/CrowdFunding.sol\":3989:4003  State.Finantat */\n      0x02\n        /* \"contracts/CrowdFunding.sol\":3976:4004  StateChanged(State.Finantat) */\n      mload(0x40)\n      tag_217\n      swap2\n      swap1\n      tag_26\n      jump\t// in\n    tag_217:\n      mload(0x40)\n      dup1\n      swap2\n      sub\n      swap1\n      log1\n        /* \"contracts/CrowdFunding.sol\":3432:4012  {... */\n      pop\n      pop\n      pop\n        /* \"contracts/CrowdFunding.sol\":1198:1199  _ */\n      pop\n        /* \"contracts/CrowdFunding.sol\":3358:4012  function requestSponsorship() public onlyOwner inState(State.Prefinantat) {... */\n      jump\t// out\n        /* \"contracts/CrowdFunding.sol\":4837:5003  function getRemainingAmount() public view returns (uint256) {... */\n    tag_72:\n        /* \"contracts/CrowdFunding.sol\":4888:4895  uint256 */\n      0x00\n        /* \"contracts/CrowdFunding.sol\":4929:4940  fundingGoal */\n      sload(0x04)\n        /* \"contracts/CrowdFunding.sol\":4912:4925  currentAmount */\n      sload(0x05)\n        /* \"contracts/CrowdFunding.sol\":4912:4940  currentAmount >= fundingGoal */\n      lt\n        /* \"contracts/CrowdFunding.sol\":4908:4950  if (currentAmount >= fundingGoal) return 0 */\n      tag_219\n      jumpi\n        /* \"contracts/CrowdFunding.sol\":4949:4950  0 */\n      0x00\n        /* \"contracts/CrowdFunding.sol\":4942:4950  return 0 */\n      swap1\n      pop\n      jump(tag_218)\n        /* \"contracts/CrowdFunding.sol\":4908:4950  if (currentAmount >= fundingGoal) return 0 */\n    tag_219:\n        /* \"contracts/CrowdFunding.sol\":4982:4995  currentAmount */\n      sload(0x05)\n        /* \"contracts/CrowdFunding.sol\":4968:4979  fundingGoal */\n      sload(0x04)\n        /* \"contracts/CrowdFunding.sol\":4968:4995  fundingGoal - currentAmount */\n      tag_220\n      swap2\n      swap1\n      tag_109\n      jump\t// in\n    tag_220:\n        /* \"contracts/CrowdFunding.sol\":4961:4995  return fundingGoal - currentAmount */\n      swap1\n      pop\n        /* \"contracts/CrowdFunding.sol\":4837:5003  function getRemainingAmount() public view returns (uint256) {... */\n    tag_218:\n      swap1\n      jump\t// out\n        /* \"contracts/CrowdFunding.sol\":1709:1897  function setSponsorAddress(address _sponsorAddress) public onlyOwner {... */\n    tag_76:\n        /* \"contracts/CrowdFunding.sol\":1167:1172  owner */\n      0x00\n      dup1\n      sload\n      swap1\n      0x0100\n      exp\n      swap1\n      div\n      0xffffffffffffffffffffffffffffffffffffffff\n      and\n        /* \"contracts/CrowdFunding.sol\":1153:1172  msg.sender == owner */\n      0xffffffffffffffffffffffffffffffffffffffff\n      and\n        /* \"contracts/CrowdFunding.sol\":1153:1163  msg.sender */\n      caller\n        /* \"contracts/CrowdFunding.sol\":1153:1172  msg.sender == owner */\n      0xffffffffffffffffffffffffffffffffffffffff\n      and\n      eq\n        /* \"contracts/CrowdFunding.sol\":1145:1187  require(msg.sender == owner, \"Only owner\") */\n      tag_222\n      jumpi\n      mload(0x40)\n      0x08c379a000000000000000000000000000000000000000000000000000000000\n      dup2\n      mstore\n      0x04\n      add\n      tag_223\n      swap1\n      tag_124\n      jump\t// in\n    tag_223:\n      mload(0x40)\n      dup1\n      swap2\n      sub\n      swap1\n      revert\n    tag_222:\n        /* \"contracts/CrowdFunding.sol\":1824:1825  0 */\n      0x00\n        /* \"contracts/CrowdFunding.sol\":1797:1826  _sponsorAddress != address(0) */\n      0xffffffffffffffffffffffffffffffffffffffff\n      and\n        /* \"contracts/CrowdFunding.sol\":1797:1812  _sponsorAddress */\n      dup2\n        /* \"contracts/CrowdFunding.sol\":1797:1826  _sponsorAddress != address(0) */\n      0xffffffffffffffffffffffffffffffffffffffff\n      and\n      sub\n        /* \"contracts/CrowdFunding.sol\":1789:1846  require(_sponsorAddress != address(0), \"Invalid address\") */\n      tag_225\n      jumpi\n      mload(0x40)\n      0x08c379a000000000000000000000000000000000000000000000000000000000\n      dup2\n      mstore\n      0x04\n      add\n      tag_226\n      swap1\n      tag_156\n      jump\t// in\n    tag_226:\n      mload(0x40)\n      dup1\n      swap2\n      sub\n      swap1\n      revert\n    tag_225:\n        /* \"contracts/CrowdFunding.sol\":1874:1889  _sponsorAddress */\n      dup1\n        /* \"contracts/CrowdFunding.sol\":1857:1871  sponsorAddress */\n      0x02\n      0x00\n        /* \"contracts/CrowdFunding.sol\":1857:1889  sponsorAddress = _sponsorAddress */\n      0x0100\n      exp\n      dup2\n      sload\n      dup2\n      0xffffffffffffffffffffffffffffffffffffffff\n      mul\n      not\n      and\n      swap1\n      dup4\n      0xffffffffffffffffffffffffffffffffffffffff\n      and\n      mul\n      or\n      swap1\n      sstore\n      pop\n        /* \"contracts/CrowdFunding.sol\":1709:1897  function setSponsorAddress(address _sponsorAddress) public onlyOwner {... */\n      pop\n      jump\t// out\n        /* \"contracts/CrowdFunding.sol\":629:657  uint256 public currentAmount */\n    tag_78:\n      sload(0x05)\n      dup2\n      jump\t// out\n        /* \"#utility.yul\":7:187   */\n    tag_83:\n        /* \"#utility.yul\":55:132   */\n      0x4e487b7100000000000000000000000000000000000000000000000000000000\n        /* \"#utility.yul\":52:53   */\n      0x00\n        /* \"#utility.yul\":45:133   */\n      mstore\n        /* \"#utility.yul\":152:156   */\n      0x21\n        /* \"#utility.yul\":149:150   */\n      0x04\n        /* \"#utility.yul\":142:157   */\n      mstore\n        /* \"#utility.yul\":176:180   */\n      0x24\n        /* \"#utility.yul\":173:174   */\n      0x00\n        /* \"#utility.yul\":166:181   */\n      revert\n        /* \"#utility.yul\":193:306   */\n    tag_227:\n        /* \"#utility.yul\":274:275   */\n      0x03\n        /* \"#utility.yul\":267:272   */\n      dup2\n        /* \"#utility.yul\":264:276   */\n      lt\n        /* \"#utility.yul\":254:300   */\n      tag_276\n      jumpi\n        /* \"#utility.yul\":280:298   */\n      tag_277\n      tag_83\n      jump\t// in\n    tag_277:\n        /* \"#utility.yul\":254:300   */\n    tag_276:\n        /* \"#utility.yul\":193:306   */\n      pop\n      jump\t// out\n        /* \"#utility.yul\":312:439   */\n    tag_228:\n        /* \"#utility.yul\":357:364   */\n      0x00\n        /* \"#utility.yul\":386:391   */\n      dup2\n        /* \"#utility.yul\":375:391   */\n      swap1\n      pop\n        /* \"#utility.yul\":392:433   */\n      tag_279\n        /* \"#utility.yul\":427:432   */\n      dup3\n        /* \"#utility.yul\":392:433   */\n      tag_227\n      jump\t// in\n    tag_279:\n        /* \"#utility.yul\":312:439   */\n      swap2\n      swap1\n      pop\n      jump\t// out\n        /* \"#utility.yul\":445:572   */\n    tag_229:\n        /* \"#utility.yul\":501:510   */\n      0x00\n        /* \"#utility.yul\":534:566   */\n      tag_281\n        /* \"#utility.yul\":560:565   */\n      dup3\n        /* \"#utility.yul\":534:566   */\n      tag_228\n      jump\t// in\n    tag_281:\n        /* \"#utility.yul\":521:566   */\n      swap1\n      pop\n        /* \"#utility.yul\":445:572   */\n      swap2\n      swap1\n      pop\n      jump\t// out\n        /* \"#utility.yul\":578:721   */\n    tag_230:\n        /* \"#utility.yul\":671:714   */\n      tag_283\n        /* \"#utility.yul\":708:713   */\n      dup2\n        /* \"#utility.yul\":671:714   */\n      tag_229\n      jump\t// in\n    tag_283:\n        /* \"#utility.yul\":666:669   */\n      dup3\n        /* \"#utility.yul\":659:715   */\n      mstore\n        /* \"#utility.yul\":578:721   */\n      pop\n      pop\n      jump\t// out\n        /* \"#utility.yul\":727:961   */\n    tag_26:\n        /* \"#utility.yul\":826:830   */\n      0x00\n        /* \"#utility.yul\":864:866   */\n      0x20\n        /* \"#utility.yul\":853:862   */\n      dup3\n        /* \"#utility.yul\":849:867   */\n      add\n        /* \"#utility.yul\":841:867   */\n      swap1\n      pop\n        /* \"#utility.yul\":877:954   */\n      tag_285\n        /* \"#utility.yul\":951:952   */\n      0x00\n        /* \"#utility.yul\":940:949   */\n      dup4\n        /* \"#utility.yul\":936:953   */\n      add\n        /* \"#utility.yul\":927:933   */\n      dup5\n        /* \"#utility.yul\":877:954   */\n      tag_230\n      jump\t// in\n    tag_285:\n        /* \"#utility.yul\":727:961   */\n      swap3\n      swap2\n      pop\n      pop\n      jump\t// out\n        /* \"#utility.yul\":967:1066   */\n    tag_231:\n        /* \"#utility.yul\":1019:1025   */\n      0x00\n        /* \"#utility.yul\":1053:1058   */\n      dup2\n        /* \"#utility.yul\":1047:1059   */\n      mload\n        /* \"#utility.yul\":1037:1059   */\n      swap1\n      pop\n        /* \"#utility.yul\":967:1066   */\n      swap2\n      swap1\n      pop\n      jump\t// out\n        /* \"#utility.yul\":1072:1241   */\n    tag_232:\n        /* \"#utility.yul\":1156:1167   */\n      0x00\n        /* \"#utility.yul\":1190:1196   */\n      dup3\n        /* \"#utility.yul\":1185:1188   */\n      dup3\n        /* \"#utility.yul\":1178:1197   */\n      mstore\n        /* \"#utility.yul\":1230:1234   */\n      0x20\n        /* \"#utility.yul\":1225:1228   */\n      dup3\n        /* \"#utility.yul\":1221:1235   */\n      add\n        /* \"#utility.yul\":1206:1235   */\n      swap1\n      pop\n        /* \"#utility.yul\":1072:1241   */\n      swap3\n      swap2\n      pop\n      pop\n      jump\t// out\n        /* \"#utility.yul\":1247:1495   */\n    tag_233:\n        /* \"#utility.yul\":1329:1330   */\n      0x00\n        /* \"#utility.yul\":1339:1452   */\n    tag_289:\n        /* \"#utility.yul\":1353:1359   */\n      dup4\n        /* \"#utility.yul\":1350:1351   */\n      dup2\n        /* \"#utility.yul\":1347:1360   */\n      lt\n        /* \"#utility.yul\":1339:1452   */\n      iszero\n      tag_291\n      jumpi\n        /* \"#utility.yul\":1438:1439   */\n      dup1\n        /* \"#utility.yul\":1433:1436   */\n      dup3\n        /* \"#utility.yul\":1429:1440   */\n      add\n        /* \"#utility.yul\":1423:1441   */\n      mload\n        /* \"#utility.yul\":1419:1420   */\n      dup2\n        /* \"#utility.yul\":1414:1417   */\n      dup5\n        /* \"#utility.yul\":1410:1421   */\n      add\n        /* \"#utility.yul\":1403:1442   */\n      mstore\n        /* \"#utility.yul\":1375:1377   */\n      0x20\n        /* \"#utility.yul\":1372:1373   */\n      dup2\n        /* \"#utility.yul\":1368:1378   */\n      add\n        /* \"#utility.yul\":1363:1378   */\n      swap1\n      pop\n        /* \"#utility.yul\":1339:1452   */\n      jump(tag_289)\n    tag_291:\n        /* \"#utility.yul\":1486:1487   */\n      0x00\n        /* \"#utility.yul\":1477:1483   */\n      dup5\n        /* \"#utility.yul\":1472:1475   */\n      dup5\n        /* \"#utility.yul\":1468:1484   */\n      add\n        /* \"#utility.yul\":1461:1488   */\n      mstore\n        /* \"#utility.yul\":1309:1495   */\n      pop\n        /* \"#utility.yul\":1247:1495   */\n      pop\n      pop\n      pop\n      jump\t// out\n        /* \"#utility.yul\":1501:1603   */\n    tag_234:\n        /* \"#utility.yul\":1542:1548   */\n      0x00\n        /* \"#utility.yul\":1593:1595   */\n      0x1f\n        /* \"#utility.yul\":1589:1596   */\n      not\n        /* \"#utility.yul\":1584:1586   */\n      0x1f\n        /* \"#utility.yul\":1577:1582   */\n      dup4\n        /* \"#utility.yul\":1573:1587   */\n      add\n        /* \"#utility.yul\":1569:1597   */\n      and\n        /* \"#utility.yul\":1559:1597   */\n      swap1\n      pop\n        /* \"#utility.yul\":1501:1603   */\n      swap2\n      swap1\n      pop\n      jump\t// out\n        /* \"#utility.yul\":1609:1986   */\n    tag_235:\n        /* \"#utility.yul\":1697:1700   */\n      0x00\n        /* \"#utility.yul\":1725:1764   */\n      tag_294\n        /* \"#utility.yul\":1758:1763   */\n      dup3\n        /* \"#utility.yul\":1725:1764   */\n      tag_231\n      jump\t// in\n    tag_294:\n        /* \"#utility.yul\":1780:1851   */\n      tag_295\n        /* \"#utility.yul\":1844:1850   */\n      dup2\n        /* \"#utility.yul\":1839:1842   */\n      dup6\n        /* \"#utility.yul\":1780:1851   */\n      tag_232\n      jump\t// in\n    tag_295:\n        /* \"#utility.yul\":1773:1851   */\n      swap4\n      pop\n        /* \"#utility.yul\":1860:1925   */\n      tag_296\n        /* \"#utility.yul\":1918:1924   */\n      dup2\n        /* \"#utility.yul\":1913:1916   */\n      dup6\n        /* \"#utility.yul\":1906:1910   */\n      0x20\n        /* \"#utility.yul\":1899:1904   */\n      dup7\n        /* \"#utility.yul\":1895:1911   */\n      add\n        /* \"#utility.yul\":1860:1925   */\n      tag_233\n      jump\t// in\n    tag_296:\n        /* \"#utility.yul\":1950:1979   */\n      tag_297\n        /* \"#utility.yul\":1972:1978   */\n      dup2\n        /* \"#utility.yul\":1950:1979   */\n      tag_234\n      jump\t// in\n    tag_297:\n        /* \"#utility.yul\":1945:1948   */\n      dup5\n        /* \"#utility.yul\":1941:1980   */\n      add\n        /* \"#utility.yul\":1934:1980   */\n      swap2\n      pop\n        /* \"#utility.yul\":1701:1986   */\n      pop\n        /* \"#utility.yul\":1609:1986   */\n      swap3\n      swap2\n      pop\n      pop\n      jump\t// out\n        /* \"#utility.yul\":1992:2305   */\n    tag_30:\n        /* \"#utility.yul\":2105:2109   */\n      0x00\n        /* \"#utility.yul\":2143:2145   */\n      0x20\n        /* \"#utility.yul\":2132:2141   */\n      dup3\n        /* \"#utility.yul\":2128:2146   */\n      add\n        /* \"#utility.yul\":2120:2146   */\n      swap1\n      pop\n        /* \"#utility.yul\":2192:2201   */\n      dup2\n        /* \"#utility.yul\":2186:2190   */\n      dup2\n        /* \"#utility.yul\":2182:2202   */\n      sub\n        /* \"#utility.yul\":2178:2179   */\n      0x00\n        /* \"#utility.yul\":2167:2176   */\n      dup4\n        /* \"#utility.yul\":2163:2180   */\n      add\n        /* \"#utility.yul\":2156:2203   */\n      mstore\n        /* \"#utility.yul\":2220:2298   */\n      tag_299\n        /* \"#utility.yul\":2293:2297   */\n      dup2\n        /* \"#utility.yul\":2284:2290   */\n      dup5\n        /* \"#utility.yul\":2220:2298   */\n      tag_235\n      jump\t// in\n    tag_299:\n        /* \"#utility.yul\":2212:2298   */\n      swap1\n      pop\n        /* \"#utility.yul\":1992:2305   */\n      swap3\n      swap2\n      pop\n      pop\n      jump\t// out\n        /* \"#utility.yul\":2392:2509   */\n    tag_237:\n        /* \"#utility.yul\":2501:2502   */\n      0x00\n        /* \"#utility.yul\":2498:2499   */\n      dup1\n        /* \"#utility.yul\":2491:2503   */\n      revert\n        /* \"#utility.yul\":2638:2764   */\n    tag_239:\n        /* \"#utility.yul\":2675:2682   */\n      0x00\n        /* \"#utility.yul\":2715:2757   */\n      0xffffffffffffffffffffffffffffffffffffffff\n        /* \"#utility.yul\":2708:2713   */\n      dup3\n        /* \"#utility.yul\":2704:2758   */\n      and\n        /* \"#utility.yul\":2693:2758   */\n      swap1\n      pop\n        /* \"#utility.yul\":2638:2764   */\n      swap2\n      swap1\n      pop\n      jump\t// out\n        /* \"#utility.yul\":2770:2866   */\n    tag_240:\n        /* \"#utility.yul\":2807:2814   */\n      0x00\n        /* \"#utility.yul\":2836:2860   */\n      tag_305\n        /* \"#utility.yul\":2854:2859   */\n      dup3\n        /* \"#utility.yul\":2836:2860   */\n      tag_239\n      jump\t// in\n    tag_305:\n        /* \"#utility.yul\":2825:2860   */\n      swap1\n      pop\n        /* \"#utility.yul\":2770:2866   */\n      swap2\n      swap1\n      pop\n      jump\t// out\n        /* \"#utility.yul\":2872:2994   */\n    tag_241:\n        /* \"#utility.yul\":2945:2969   */\n      tag_307\n        /* \"#utility.yul\":2963:2968   */\n      dup2\n        /* \"#utility.yul\":2945:2969   */\n      tag_240\n      jump\t// in\n    tag_307:\n        /* \"#utility.yul\":2938:2943   */\n      dup2\n        /* \"#utility.yul\":2935:2970   */\n      eq\n        /* \"#utility.yul\":2925:2988   */\n      tag_308\n      jumpi\n        /* \"#utility.yul\":2984:2985   */\n      0x00\n        /* \"#utility.yul\":2981:2982   */\n      dup1\n        /* \"#utility.yul\":2974:2986   */\n      revert\n        /* \"#utility.yul\":2925:2988   */\n    tag_308:\n        /* \"#utility.yul\":2872:2994   */\n      pop\n      jump\t// out\n        /* \"#utility.yul\":3000:3139   */\n    tag_242:\n        /* \"#utility.yul\":3046:3051   */\n      0x00\n        /* \"#utility.yul\":3084:3090   */\n      dup2\n        /* \"#utility.yul\":3071:3091   */\n      calldataload\n        /* \"#utility.yul\":3062:3091   */\n      swap1\n      pop\n        /* \"#utility.yul\":3100:3133   */\n      tag_310\n        /* \"#utility.yul\":3127:3132   */\n      dup2\n        /* \"#utility.yul\":3100:3133   */\n      tag_241\n      jump\t// in\n    tag_310:\n        /* \"#utility.yul\":3000:3139   */\n      swap3\n      swap2\n      pop\n      pop\n      jump\t// out\n        /* \"#utility.yul\":3145:3474   */\n    tag_33:\n        /* \"#utility.yul\":3204:3210   */\n      0x00\n        /* \"#utility.yul\":3253:3255   */\n      0x20\n        /* \"#utility.yul\":3241:3250   */\n      dup3\n        /* \"#utility.yul\":3232:3239   */\n      dup5\n        /* \"#utility.yul\":3228:3251   */\n      sub\n        /* \"#utility.yul\":3224:3256   */\n      slt\n        /* \"#utility.yul\":3221:3340   */\n      iszero\n      tag_312\n      jumpi\n        /* \"#utility.yul\":3259:3338   */\n      tag_313\n      tag_237\n      jump\t// in\n    tag_313:\n        /* \"#utility.yul\":3221:3340   */\n    tag_312:\n        /* \"#utility.yul\":3379:3380   */\n      0x00\n        /* \"#utility.yul\":3404:3457   */\n      tag_314\n        /* \"#utility.yul\":3449:3456   */\n      dup5\n        /* \"#utility.yul\":3440:3446   */\n      dup3\n        /* \"#utility.yul\":3429:3438   */\n      dup6\n        /* \"#utility.yul\":3425:3447   */\n      add\n        /* \"#utility.yul\":3404:3457   */\n      tag_242\n      jump\t// in\n    tag_314:\n        /* \"#utility.yul\":3394:3457   */\n      swap2\n      pop\n        /* \"#utility.yul\":3350:3467   */\n      pop\n        /* \"#utility.yul\":3145:3474   */\n      swap3\n      swap2\n      pop\n      pop\n      jump\t// out\n        /* \"#utility.yul\":3480:3557   */\n    tag_243:\n        /* \"#utility.yul\":3517:3524   */\n      0x00\n        /* \"#utility.yul\":3546:3551   */\n      dup2\n        /* \"#utility.yul\":3535:3551   */\n      swap1\n      pop\n        /* \"#utility.yul\":3480:3557   */\n      swap2\n      swap1\n      pop\n      jump\t// out\n        /* \"#utility.yul\":3563:3681   */\n    tag_244:\n        /* \"#utility.yul\":3650:3674   */\n      tag_317\n        /* \"#utility.yul\":3668:3673   */\n      dup2\n        /* \"#utility.yul\":3650:3674   */\n      tag_243\n      jump\t// in\n    tag_317:\n        /* \"#utility.yul\":3645:3648   */\n      dup3\n        /* \"#utility.yul\":3638:3675   */\n      mstore\n        /* \"#utility.yul\":3563:3681   */\n      pop\n      pop\n      jump\t// out\n        /* \"#utility.yul\":3687:3909   */\n    tag_36:\n        /* \"#utility.yul\":3780:3784   */\n      0x00\n        /* \"#utility.yul\":3818:3820   */\n      0x20\n        /* \"#utility.yul\":3807:3816   */\n      dup3\n        /* \"#utility.yul\":3803:3821   */\n      add\n        /* \"#utility.yul\":3795:3821   */\n      swap1\n      pop\n        /* \"#utility.yul\":3831:3902   */\n      tag_319\n        /* \"#utility.yul\":3899:3900   */\n      0x00\n        /* \"#utility.yul\":3888:3897   */\n      dup4\n        /* \"#utility.yul\":3884:3901   */\n      add\n        /* \"#utility.yul\":3875:3881   */\n      dup5\n        /* \"#utility.yul\":3831:3902   */\n      tag_244\n      jump\t// in\n    tag_319:\n        /* \"#utility.yul\":3687:3909   */\n      swap3\n      swap2\n      pop\n      pop\n      jump\t// out\n        /* \"#utility.yul\":3915:4037   */\n    tag_245:\n        /* \"#utility.yul\":3988:4012   */\n      tag_321\n        /* \"#utility.yul\":4006:4011   */\n      dup2\n        /* \"#utility.yul\":3988:4012   */\n      tag_243\n      jump\t// in\n    tag_321:\n        /* \"#utility.yul\":3981:3986   */\n      dup2\n        /* \"#utility.yul\":3978:4013   */\n      eq\n        /* \"#utility.yul\":3968:4031   */\n      tag_322\n      jumpi\n        /* \"#utility.yul\":4027:4028   */\n      0x00\n        /* \"#utility.yul\":4024:4025   */\n      dup1\n        /* \"#utility.yul\":4017:4029   */\n      revert\n        /* \"#utility.yul\":3968:4031   */\n    tag_322:\n        /* \"#utility.yul\":3915:4037   */\n      pop\n      jump\t// out\n        /* \"#utility.yul\":4043:4182   */\n    tag_246:\n        /* \"#utility.yul\":4089:4094   */\n      0x00\n        /* \"#utility.yul\":4127:4133   */\n      dup2\n        /* \"#utility.yul\":4114:4134   */\n      calldataload\n        /* \"#utility.yul\":4105:4134   */\n      swap1\n      pop\n        /* \"#utility.yul\":4143:4176   */\n      tag_324\n        /* \"#utility.yul\":4170:4175   */\n      dup2\n        /* \"#utility.yul\":4143:4176   */\n      tag_245\n      jump\t// in\n    tag_324:\n        /* \"#utility.yul\":4043:4182   */\n      swap3\n      swap2\n      pop\n      pop\n      jump\t// out\n        /* \"#utility.yul\":4188:4517   */\n    tag_39:\n        /* \"#utility.yul\":4247:4253   */\n      0x00\n        /* \"#utility.yul\":4296:4298   */\n      0x20\n        /* \"#utility.yul\":4284:4293   */\n      dup3\n        /* \"#utility.yul\":4275:4282   */\n      dup5\n        /* \"#utility.yul\":4271:4294   */\n      sub\n        /* \"#utility.yul\":4267:4299   */\n      slt\n        /* \"#utility.yul\":4264:4383   */\n      iszero\n      tag_326\n      jumpi\n        /* \"#utility.yul\":4302:4381   */\n      tag_327\n      tag_237\n      jump\t// in\n    tag_327:\n        /* \"#utility.yul\":4264:4383   */\n    tag_326:\n        /* \"#utility.yul\":4422:4423   */\n      0x00\n        /* \"#utility.yul\":4447:4500   */\n      tag_328\n        /* \"#utility.yul\":4492:4499   */\n      dup5\n        /* \"#utility.yul\":4483:4489   */\n      dup3\n        /* \"#utility.yul\":4472:4481   */\n      dup6\n        /* \"#utility.yul\":4468:4490   */\n      add\n        /* \"#utility.yul\":4447:4500   */\n      tag_246\n      jump\t// in\n    tag_328:\n        /* \"#utility.yul\":4437:4500   */\n      swap2\n      pop\n        /* \"#utility.yul\":4393:4510   */\n      pop\n        /* \"#utility.yul\":4188:4517   */\n      swap3\n      swap2\n      pop\n      pop\n      jump\t// out\n        /* \"#utility.yul\":4523:4641   */\n    tag_247:\n        /* \"#utility.yul\":4610:4634   */\n      tag_330\n        /* \"#utility.yul\":4628:4633   */\n      dup2\n        /* \"#utility.yul\":4610:4634   */\n      tag_240\n      jump\t// in\n    tag_330:\n        /* \"#utility.yul\":4605:4608   */\n      dup3\n        /* \"#utility.yul\":4598:4635   */\n      mstore\n        /* \"#utility.yul\":4523:4641   */\n      pop\n      pop\n      jump\t// out\n        /* \"#utility.yul\":4647:4869   */\n    tag_48:\n        /* \"#utility.yul\":4740:4744   */\n      0x00\n        /* \"#utility.yul\":4778:4780   */\n      0x20\n        /* \"#utility.yul\":4767:4776   */\n      dup3\n        /* \"#utility.yul\":4763:4781   */\n      add\n        /* \"#utility.yul\":4755:4781   */\n      swap1\n      pop\n        /* \"#utility.yul\":4791:4862   */\n      tag_332\n        /* \"#utility.yul\":4859:4860   */\n      0x00\n        /* \"#utility.yul\":4848:4857   */\n      dup4\n        /* \"#utility.yul\":4844:4861   */\n      add\n        /* \"#utility.yul\":4835:4841   */\n      dup5\n        /* \"#utility.yul\":4791:4862   */\n      tag_247\n      jump\t// in\n    tag_332:\n        /* \"#utility.yul\":4647:4869   */\n      swap3\n      swap2\n      pop\n      pop\n      jump\t// out\n        /* \"#utility.yul\":4875:5038   */\n    tag_248:\n        /* \"#utility.yul\":5015:5030   */\n      0x496e76616c696420737461746500000000000000000000000000000000000000\n        /* \"#utility.yul\":5011:5012   */\n      0x00\n        /* \"#utility.yul\":5003:5009   */\n      dup3\n        /* \"#utility.yul\":4999:5013   */\n      add\n        /* \"#utility.yul\":4992:5031   */\n      mstore\n        /* \"#utility.yul\":4875:5038   */\n      pop\n      jump\t// out\n        /* \"#utility.yul\":5044:5410   */\n    tag_249:\n        /* \"#utility.yul\":5186:5189   */\n      0x00\n        /* \"#utility.yul\":5207:5274   */\n      tag_335\n        /* \"#utility.yul\":5271:5273   */\n      0x0d\n        /* \"#utility.yul\":5266:5269   */\n      dup4\n        /* \"#utility.yul\":5207:5274   */\n      tag_232\n      jump\t// in\n    tag_335:\n        /* \"#utility.yul\":5200:5274   */\n      swap2\n      pop\n        /* \"#utility.yul\":5283:5376   */\n      tag_336\n        /* \"#utility.yul\":5372:5375   */\n      dup3\n        /* \"#utility.yul\":5283:5376   */\n      tag_248\n      jump\t// in\n    tag_336:\n        /* \"#utility.yul\":5401:5403   */\n      0x20\n        /* \"#utility.yul\":5396:5399   */\n      dup3\n        /* \"#utility.yul\":5392:5404   */\n      add\n        /* \"#utility.yul\":5385:5404   */\n      swap1\n      pop\n        /* \"#utility.yul\":5044:5410   */\n      swap2\n      swap1\n      pop\n      jump\t// out\n        /* \"#utility.yul\":5416:5835   */\n    tag_100:\n        /* \"#utility.yul\":5582:5586   */\n      0x00\n        /* \"#utility.yul\":5620:5622   */\n      0x20\n        /* \"#utility.yul\":5609:5618   */\n      dup3\n        /* \"#utility.yul\":5605:5623   */\n      add\n        /* \"#utility.yul\":5597:5623   */\n      swap1\n      pop\n        /* \"#utility.yul\":5669:5678   */\n      dup2\n        /* \"#utility.yul\":5663:5667   */\n      dup2\n        /* \"#utility.yul\":5659:5679   */\n      sub\n        /* \"#utility.yul\":5655:5656   */\n      0x00\n        /* \"#utility.yul\":5644:5653   */\n      dup4\n        /* \"#utility.yul\":5640:5657   */\n      add\n        /* \"#utility.yul\":5633:5680   */\n      mstore\n        /* \"#utility.yul\":5697:5828   */\n      tag_338\n        /* \"#utility.yul\":5823:5827   */\n      dup2\n        /* \"#utility.yul\":5697:5828   */\n      tag_249\n      jump\t// in\n    tag_338:\n        /* \"#utility.yul\":5689:5828   */\n      swap1\n      pop\n        /* \"#utility.yul\":5416:5835   */\n      swap2\n      swap1\n      pop\n      jump\t// out\n        /* \"#utility.yul\":5841:6014   */\n    tag_250:\n        /* \"#utility.yul\":5981:6006   */\n      0x416d6f756e74206d75737420626520706f736974697665000000000000000000\n        /* \"#utility.yul\":5977:5978   */\n      0x00\n        /* \"#utility.yul\":5969:5975   */\n      dup3\n        /* \"#utility.yul\":5965:5979   */\n      add\n        /* \"#utility.yul\":5958:6007   */\n      mstore\n        /* \"#utility.yul\":5841:6014   */\n      pop\n      jump\t// out\n        /* \"#utility.yul\":6020:6386   */\n    tag_251:\n        /* \"#utility.yul\":6162:6165   */\n      0x00\n        /* \"#utility.yul\":6183:6250   */\n      tag_341\n        /* \"#utility.yul\":6247:6249   */\n      0x17\n        /* \"#utility.yul\":6242:6245   */\n      dup4\n        /* \"#utility.yul\":6183:6250   */\n      tag_232\n      jump\t// in\n    tag_341:\n        /* \"#utility.yul\":6176:6250   */\n      swap2\n      pop\n        /* \"#utility.yul\":6259:6352   */\n      tag_342\n        /* \"#utility.yul\":6348:6351   */\n      dup3\n        /* \"#utility.yul\":6259:6352   */\n      tag_250\n      jump\t// in\n    tag_342:\n        /* \"#utility.yul\":6377:6379   */\n      0x20\n        /* \"#utility.yul\":6372:6375   */\n      dup3\n        /* \"#utility.yul\":6368:6380   */\n      add\n        /* \"#utility.yul\":6361:6380   */\n      swap1\n      pop\n        /* \"#utility.yul\":6020:6386   */\n      swap2\n      swap1\n      pop\n      jump\t// out\n        /* \"#utility.yul\":6392:6811   */\n    tag_104:\n        /* \"#utility.yul\":6558:6562   */\n      0x00\n        /* \"#utility.yul\":6596:6598   */\n      0x20\n        /* \"#utility.yul\":6585:6594   */\n      dup3\n        /* \"#utility.yul\":6581:6599   */\n      add\n        /* \"#utility.yul\":6573:6599   */\n      swap1\n      pop\n        /* \"#utility.yul\":6645:6654   */\n      dup2\n        /* \"#utility.yul\":6639:6643   */\n      dup2\n        /* \"#utility.yul\":6635:6655   */\n      sub\n        /* \"#utility.yul\":6631:6632   */\n      0x00\n        /* \"#utility.yul\":6620:6629   */\n      dup4\n        /* \"#utility.yul\":6616:6633   */\n      add\n        /* \"#utility.yul\":6609:6656   */\n      mstore\n        /* \"#utility.yul\":6673:6804   */\n      tag_344\n        /* \"#utility.yul\":6799:6803   */\n      dup2\n        /* \"#utility.yul\":6673:6804   */\n      tag_251\n      jump\t// in\n    tag_344:\n        /* \"#utility.yul\":6665:6804   */\n      swap1\n      pop\n        /* \"#utility.yul\":6392:6811   */\n      swap2\n      swap1\n      pop\n      jump\t// out\n        /* \"#utility.yul\":6817:6992   */\n    tag_252:\n        /* \"#utility.yul\":6957:6984   */\n      0x496e73756666696369656e7420636f6e747269627574696f6e00000000000000\n        /* \"#utility.yul\":6953:6954   */\n      0x00\n        /* \"#utility.yul\":6945:6951   */\n      dup3\n        /* \"#utility.yul\":6941:6955   */\n      add\n        /* \"#utility.yul\":6934:6985   */\n      mstore\n        /* \"#utility.yul\":6817:6992   */\n      pop\n      jump\t// out\n        /* \"#utility.yul\":6998:7364   */\n    tag_253:\n        /* \"#utility.yul\":7140:7143   */\n      0x00\n        /* \"#utility.yul\":7161:7228   */\n      tag_347\n        /* \"#utility.yul\":7225:7227   */\n      0x19\n        /* \"#utility.yul\":7220:7223   */\n      dup4\n        /* \"#utility.yul\":7161:7228   */\n      tag_232\n      jump\t// in\n    tag_347:\n        /* \"#utility.yul\":7154:7228   */\n      swap2\n      pop\n        /* \"#utility.yul\":7237:7330   */\n      tag_348\n        /* \"#utility.yul\":7326:7329   */\n      dup3\n        /* \"#utility.yul\":7237:7330   */\n      tag_252\n      jump\t// in\n    tag_348:\n        /* \"#utility.yul\":7355:7357   */\n      0x20\n        /* \"#utility.yul\":7350:7353   */\n      dup3\n        /* \"#utility.yul\":7346:7358   */\n      add\n        /* \"#utility.yul\":7339:7358   */\n      swap1\n      pop\n        /* \"#utility.yul\":6998:7364   */\n      swap2\n      swap1\n      pop\n      jump\t// out\n        /* \"#utility.yul\":7370:7789   */\n    tag_107:\n        /* \"#utility.yul\":7536:7540   */\n      0x00\n        /* \"#utility.yul\":7574:7576   */\n      0x20\n        /* \"#utility.yul\":7563:7572   */\n      dup3\n        /* \"#utility.yul\":7559:7577   */\n      add\n        /* \"#utility.yul\":7551:7577   */\n      swap1\n      pop\n        /* \"#utility.yul\":7623:7632   */\n      dup2\n        /* \"#utility.yul\":7617:7621   */\n      dup2\n        /* \"#utility.yul\":7613:7633   */\n      sub\n        /* \"#utility.yul\":7609:7610   */\n      0x00\n        /* \"#utility.yul\":7598:7607   */\n      dup4\n        /* \"#utility.yul\":7594:7611   */\n      add\n        /* \"#utility.yul\":7587:7634   */\n      mstore\n        /* \"#utility.yul\":7651:7782   */\n      tag_350\n        /* \"#utility.yul\":7777:7781   */\n      dup2\n        /* \"#utility.yul\":7651:7782   */\n      tag_253\n      jump\t// in\n    tag_350:\n        /* \"#utility.yul\":7643:7782   */\n      swap1\n      pop\n        /* \"#utility.yul\":7370:7789   */\n      swap2\n      swap1\n      pop\n      jump\t// out\n        /* \"#utility.yul\":7795:7975   */\n    tag_254:\n        /* \"#utility.yul\":7843:7920   */\n      0x4e487b7100000000000000000000000000000000000000000000000000000000\n        /* \"#utility.yul\":7840:7841   */\n      0x00\n        /* \"#utility.yul\":7833:7921   */\n      mstore\n        /* \"#utility.yul\":7940:7944   */\n      0x11\n        /* \"#utility.yul\":7937:7938   */\n      0x04\n        /* \"#utility.yul\":7930:7945   */\n      mstore\n        /* \"#utility.yul\":7964:7968   */\n      0x24\n        /* \"#utility.yul\":7961:7962   */\n      0x00\n        /* \"#utility.yul\":7954:7969   */\n      revert\n        /* \"#utility.yul\":7981:8175   */\n    tag_109:\n        /* \"#utility.yul\":8021:8025   */\n      0x00\n        /* \"#utility.yul\":8041:8061   */\n      tag_353\n        /* \"#utility.yul\":8059:8060   */\n      dup3\n        /* \"#utility.yul\":8041:8061   */\n      tag_243\n      jump\t// in\n    tag_353:\n        /* \"#utility.yul\":8036:8061   */\n      swap2\n      pop\n        /* \"#utility.yul\":8075:8095   */\n      tag_354\n        /* \"#utility.yul\":8093:8094   */\n      dup4\n        /* \"#utility.yul\":8075:8095   */\n      tag_243\n      jump\t// in\n    tag_354:\n        /* \"#utility.yul\":8070:8095   */\n      swap3\n      pop\n        /* \"#utility.yul\":8119:8120   */\n      dup3\n        /* \"#utility.yul\":8116:8117   */\n      dup3\n        /* \"#utility.yul\":8112:8121   */\n      sub\n        /* \"#utility.yul\":8104:8121   */\n      swap1\n      pop\n        /* \"#utility.yul\":8143:8144   */\n      dup2\n        /* \"#utility.yul\":8137:8141   */\n      dup2\n        /* \"#utility.yul\":8134:8145   */\n      gt\n        /* \"#utility.yul\":8131:8168   */\n      iszero\n      tag_355\n      jumpi\n        /* \"#utility.yul\":8148:8166   */\n      tag_356\n      tag_254\n      jump\t// in\n    tag_356:\n        /* \"#utility.yul\":8131:8168   */\n    tag_355:\n        /* \"#utility.yul\":7981:8175   */\n      swap3\n      swap2\n      pop\n      pop\n      jump\t// out\n        /* \"#utility.yul\":8181:8513   */\n    tag_112:\n        /* \"#utility.yul\":8302:8306   */\n      0x00\n        /* \"#utility.yul\":8340:8342   */\n      0x40\n        /* \"#utility.yul\":8329:8338   */\n      dup3\n        /* \"#utility.yul\":8325:8343   */\n      add\n        /* \"#utility.yul\":8317:8343   */\n      swap1\n      pop\n        /* \"#utility.yul\":8353:8424   */\n      tag_358\n        /* \"#utility.yul\":8421:8422   */\n      0x00\n        /* \"#utility.yul\":8410:8419   */\n      dup4\n        /* \"#utility.yul\":8406:8423   */\n      add\n        /* \"#utility.yul\":8397:8403   */\n      dup6\n        /* \"#utility.yul\":8353:8424   */\n      tag_247\n      jump\t// in\n    tag_358:\n        /* \"#utility.yul\":8434:8506   */\n      tag_359\n        /* \"#utility.yul\":8502:8504   */\n      0x20\n        /* \"#utility.yul\":8491:8500   */\n      dup4\n        /* \"#utility.yul\":8487:8505   */\n      add\n        /* \"#utility.yul\":8478:8484   */\n      dup5\n        /* \"#utility.yul\":8434:8506   */\n      tag_244\n      jump\t// in\n    tag_359:\n        /* \"#utility.yul\":8181:8513   */\n      swap4\n      swap3\n      pop\n      pop\n      pop\n      jump\t// out\n        /* \"#utility.yul\":8519:8609   */\n    tag_255:\n        /* \"#utility.yul\":8553:8560   */\n      0x00\n        /* \"#utility.yul\":8596:8601   */\n      dup2\n        /* \"#utility.yul\":8589:8602   */\n      iszero\n        /* \"#utility.yul\":8582:8603   */\n      iszero\n        /* \"#utility.yul\":8571:8603   */\n      swap1\n      pop\n        /* \"#utility.yul\":8519:8609   */\n      swap2\n      swap1\n      pop\n      jump\t// out\n        /* \"#utility.yul\":8615:8731   */\n    tag_256:\n        /* \"#utility.yul\":8685:8706   */\n      tag_362\n        /* \"#utility.yul\":8700:8705   */\n      dup2\n        /* \"#utility.yul\":8685:8706   */\n      tag_255\n      jump\t// in\n    tag_362:\n        /* \"#utility.yul\":8678:8683   */\n      dup2\n        /* \"#utility.yul\":8675:8707   */\n      eq\n        /* \"#utility.yul\":8665:8725   */\n      tag_363\n      jumpi\n        /* \"#utility.yul\":8721:8722   */\n      0x00\n        /* \"#utility.yul\":8718:8719   */\n      dup1\n        /* \"#utility.yul\":8711:8723   */\n      revert\n        /* \"#utility.yul\":8665:8725   */\n    tag_363:\n        /* \"#utility.yul\":8615:8731   */\n      pop\n      jump\t// out\n        /* \"#utility.yul\":8737:8874   */\n    tag_257:\n        /* \"#utility.yul\":8791:8796   */\n      0x00\n        /* \"#utility.yul\":8822:8828   */\n      dup2\n        /* \"#utility.yul\":8816:8829   */\n      mload\n        /* \"#utility.yul\":8807:8829   */\n      swap1\n      pop\n        /* \"#utility.yul\":8838:8868   */\n      tag_365\n        /* \"#utility.yul\":8862:8867   */\n      dup2\n        /* \"#utility.yul\":8838:8868   */\n      tag_256\n      jump\t// in\n    tag_365:\n        /* \"#utility.yul\":8737:8874   */\n      swap3\n      swap2\n      pop\n      pop\n      jump\t// out\n        /* \"#utility.yul\":8880:9225   */\n    tag_116:\n        /* \"#utility.yul\":8947:8953   */\n      0x00\n        /* \"#utility.yul\":8996:8998   */\n      0x20\n        /* \"#utility.yul\":8984:8993   */\n      dup3\n        /* \"#utility.yul\":8975:8982   */\n      dup5\n        /* \"#utility.yul\":8971:8994   */\n      sub\n        /* \"#utility.yul\":8967:8999   */\n      slt\n        /* \"#utility.yul\":8964:9083   */\n      iszero\n      tag_367\n      jumpi\n        /* \"#utility.yul\":9002:9081   */\n      tag_368\n      tag_237\n      jump\t// in\n    tag_368:\n        /* \"#utility.yul\":8964:9083   */\n    tag_367:\n        /* \"#utility.yul\":9122:9123   */\n      0x00\n        /* \"#utility.yul\":9147:9208   */\n      tag_369\n        /* \"#utility.yul\":9200:9207   */\n      dup5\n        /* \"#utility.yul\":9191:9197   */\n      dup3\n        /* \"#utility.yul\":9180:9189   */\n      dup6\n        /* \"#utility.yul\":9176:9198   */\n      add\n        /* \"#utility.yul\":9147:9208   */\n      tag_257\n      jump\t// in\n    tag_369:\n        /* \"#utility.yul\":9137:9208   */\n      swap2\n      pop\n        /* \"#utility.yul\":9093:9218   */\n      pop\n        /* \"#utility.yul\":8880:9225   */\n      swap3\n      swap2\n      pop\n      pop\n      jump\t// out\n        /* \"#utility.yul\":9231:9396   */\n    tag_258:\n        /* \"#utility.yul\":9371:9388   */\n      0x5472616e73666572206661696c65640000000000000000000000000000000000\n        /* \"#utility.yul\":9367:9368   */\n      0x00\n        /* \"#utility.yul\":9359:9365   */\n      dup3\n        /* \"#utility.yul\":9355:9369   */\n      add\n        /* \"#utility.yul\":9348:9389   */\n      mstore\n        /* \"#utility.yul\":9231:9396   */\n      pop\n      jump\t// out\n        /* \"#utility.yul\":9402:9768   */\n    tag_259:\n        /* \"#utility.yul\":9544:9547   */\n      0x00\n        /* \"#utility.yul\":9565:9632   */\n      tag_372\n        /* \"#utility.yul\":9629:9631   */\n      0x0f\n        /* \"#utility.yul\":9624:9627   */\n      dup4\n        /* \"#utility.yul\":9565:9632   */\n      tag_232\n      jump\t// in\n    tag_372:\n        /* \"#utility.yul\":9558:9632   */\n      swap2\n      pop\n        /* \"#utility.yul\":9641:9734   */\n      tag_373\n        /* \"#utility.yul\":9730:9733   */\n      dup3\n        /* \"#utility.yul\":9641:9734   */\n      tag_258\n      jump\t// in\n    tag_373:\n        /* \"#utility.yul\":9759:9761   */\n      0x20\n        /* \"#utility.yul\":9754:9757   */\n      dup3\n        /* \"#utility.yul\":9750:9762   */\n      add\n        /* \"#utility.yul\":9743:9762   */\n      swap1\n      pop\n        /* \"#utility.yul\":9402:9768   */\n      swap2\n      swap1\n      pop\n      jump\t// out\n        /* \"#utility.yul\":9774:10193   */\n    tag_119:\n        /* \"#utility.yul\":9940:9944   */\n      0x00\n        /* \"#utility.yul\":9978:9980   */\n      0x20\n        /* \"#utility.yul\":9967:9976   */\n      dup3\n        /* \"#utility.yul\":9963:9981   */\n      add\n        /* \"#utility.yul\":9955:9981   */\n      swap1\n      pop\n        /* \"#utility.yul\":10027:10036   */\n      dup2\n        /* \"#utility.yul\":10021:10025   */\n      dup2\n        /* \"#utility.yul\":10017:10037   */\n      sub\n        /* \"#utility.yul\":10013:10014   */\n      0x00\n        /* \"#utility.yul\":10002:10011   */\n      dup4\n        /* \"#utility.yul\":9998:10015   */\n      add\n        /* \"#utility.yul\":9991:10038   */\n      mstore\n        /* \"#utility.yul\":10055:10186   */\n      tag_375\n        /* \"#utility.yul\":10181:10185   */\n      dup2\n        /* \"#utility.yul\":10055:10186   */\n      tag_259\n      jump\t// in\n    tag_375:\n        /* \"#utility.yul\":10047:10186   */\n      swap1\n      pop\n        /* \"#utility.yul\":9774:10193   */\n      swap2\n      swap1\n      pop\n      jump\t// out\n        /* \"#utility.yul\":10199:10359   */\n    tag_260:\n        /* \"#utility.yul\":10339:10351   */\n      0x4f6e6c79206f776e657200000000000000000000000000000000000000000000\n        /* \"#utility.yul\":10335:10336   */\n      0x00\n        /* \"#utility.yul\":10327:10333   */\n      dup3\n        /* \"#utility.yul\":10323:10337   */\n      add\n        /* \"#utility.yul\":10316:10352   */\n      mstore\n        /* \"#utility.yul\":10199:10359   */\n      pop\n      jump\t// out\n        /* \"#utility.yul\":10365:10731   */\n    tag_261:\n        /* \"#utility.yul\":10507:10510   */\n      0x00\n        /* \"#utility.yul\":10528:10595   */\n      tag_378\n        /* \"#utility.yul\":10592:10594   */\n      0x0a\n        /* \"#utility.yul\":10587:10590   */\n      dup4\n        /* \"#utility.yul\":10528:10595   */\n      tag_232\n      jump\t// in\n    tag_378:\n        /* \"#utility.yul\":10521:10595   */\n      swap2\n      pop\n        /* \"#utility.yul\":10604:10697   */\n      tag_379\n        /* \"#utility.yul\":10693:10696   */\n      dup3\n        /* \"#utility.yul\":10604:10697   */\n      tag_260\n      jump\t// in\n    tag_379:\n        /* \"#utility.yul\":10722:10724   */\n      0x20\n        /* \"#utility.yul\":10717:10720   */\n      dup3\n        /* \"#utility.yul\":10713:10725   */\n      add\n        /* \"#utility.yul\":10706:10725   */\n      swap1\n      pop\n        /* \"#utility.yul\":10365:10731   */\n      swap2\n      swap1\n      pop\n      jump\t// out\n        /* \"#utility.yul\":10737:11156   */\n    tag_124:\n        /* \"#utility.yul\":10903:10907   */\n      0x00\n        /* \"#utility.yul\":10941:10943   */\n      0x20\n        /* \"#utility.yul\":10930:10939   */\n      dup3\n        /* \"#utility.yul\":10926:10944   */\n      add\n        /* \"#utility.yul\":10918:10944   */\n      swap1\n      pop\n        /* \"#utility.yul\":10990:10999   */\n      dup2\n        /* \"#utility.yul\":10984:10988   */\n      dup2\n        /* \"#utility.yul\":10980:11000   */\n      sub\n        /* \"#utility.yul\":10976:10977   */\n      0x00\n        /* \"#utility.yul\":10965:10974   */\n      dup4\n        /* \"#utility.yul\":10961:10978   */\n      add\n        /* \"#utility.yul\":10954:11001   */\n      mstore\n        /* \"#utility.yul\":11018:11149   */\n      tag_381\n        /* \"#utility.yul\":11144:11148   */\n      dup2\n        /* \"#utility.yul\":11018:11149   */\n      tag_261\n      jump\t// in\n    tag_381:\n        /* \"#utility.yul\":11010:11149   */\n      swap1\n      pop\n        /* \"#utility.yul\":10737:11156   */\n      swap2\n      swap1\n      pop\n      jump\t// out\n        /* \"#utility.yul\":11162:11330   */\n    tag_262:\n        /* \"#utility.yul\":11302:11322   */\n      0x44697374726962757465206e6f74207365740000000000000000000000000000\n        /* \"#utility.yul\":11298:11299   */\n      0x00\n        /* \"#utility.yul\":11290:11296   */\n      dup3\n        /* \"#utility.yul\":11286:11300   */\n      add\n        /* \"#utility.yul\":11279:11323   */\n      mstore\n        /* \"#utility.yul\":11162:11330   */\n      pop\n      jump\t// out\n        /* \"#utility.yul\":11336:11702   */\n    tag_263:\n        /* \"#utility.yul\":11478:11481   */\n      0x00\n        /* \"#utility.yul\":11499:11566   */\n      tag_384\n        /* \"#utility.yul\":11563:11565   */\n      0x12\n        /* \"#utility.yul\":11558:11561   */\n      dup4\n        /* \"#utility.yul\":11499:11566   */\n      tag_232\n      jump\t// in\n    tag_384:\n        /* \"#utility.yul\":11492:11566   */\n      swap2\n      pop\n        /* \"#utility.yul\":11575:11668   */\n      tag_385\n        /* \"#utility.yul\":11664:11667   */\n      dup3\n        /* \"#utility.yul\":11575:11668   */\n      tag_262\n      jump\t// in\n    tag_385:\n        /* \"#utility.yul\":11693:11695   */\n      0x20\n        /* \"#utility.yul\":11688:11691   */\n      dup3\n        /* \"#utility.yul\":11684:11696   */\n      add\n        /* \"#utility.yul\":11677:11696   */\n      swap1\n      pop\n        /* \"#utility.yul\":11336:11702   */\n      swap2\n      swap1\n      pop\n      jump\t// out\n        /* \"#utility.yul\":11708:12127   */\n    tag_135:\n        /* \"#utility.yul\":11874:11878   */\n      0x00\n        /* \"#utility.yul\":11912:11914   */\n      0x20\n        /* \"#utility.yul\":11901:11910   */\n      dup3\n        /* \"#utility.yul\":11897:11915   */\n      add\n        /* \"#utility.yul\":11889:11915   */\n      swap1\n      pop\n        /* \"#utility.yul\":11961:11970   */\n      dup2\n        /* \"#utility.yul\":11955:11959   */\n      dup2\n        /* \"#utility.yul\":11951:11971   */\n      sub\n        /* \"#utility.yul\":11947:11948   */\n      0x00\n        /* \"#utility.yul\":11936:11945   */\n      dup4\n        /* \"#utility.yul\":11932:11949   */\n      add\n        /* \"#utility.yul\":11925:11972   */\n      mstore\n        /* \"#utility.yul\":11989:12120   */\n      tag_387\n        /* \"#utility.yul\":12115:12119   */\n      dup2\n        /* \"#utility.yul\":11989:12120   */\n      tag_263\n      jump\t// in\n    tag_387:\n        /* \"#utility.yul\":11981:12120   */\n      swap1\n      pop\n        /* \"#utility.yul\":11708:12127   */\n      swap2\n      swap1\n      pop\n      jump\t// out\n        /* \"#utility.yul\":12133:12276   */\n    tag_264:\n        /* \"#utility.yul\":12190:12195   */\n      0x00\n        /* \"#utility.yul\":12221:12227   */\n      dup2\n        /* \"#utility.yul\":12215:12228   */\n      mload\n        /* \"#utility.yul\":12206:12228   */\n      swap1\n      pop\n        /* \"#utility.yul\":12237:12270   */\n      tag_389\n        /* \"#utility.yul\":12264:12269   */\n      dup2\n        /* \"#utility.yul\":12237:12270   */\n      tag_245\n      jump\t// in\n    tag_389:\n        /* \"#utility.yul\":12133:12276   */\n      swap3\n      swap2\n      pop\n      pop\n      jump\t// out\n        /* \"#utility.yul\":12282:12633   */\n    tag_140:\n        /* \"#utility.yul\":12352:12358   */\n      0x00\n        /* \"#utility.yul\":12401:12403   */\n      0x20\n        /* \"#utility.yul\":12389:12398   */\n      dup3\n        /* \"#utility.yul\":12380:12387   */\n      dup5\n        /* \"#utility.yul\":12376:12399   */\n      sub\n        /* \"#utility.yul\":12372:12404   */\n      slt\n        /* \"#utility.yul\":12369:12488   */\n      iszero\n      tag_391\n      jumpi\n        /* \"#utility.yul\":12407:12486   */\n      tag_392\n      tag_237\n      jump\t// in\n    tag_392:\n        /* \"#utility.yul\":12369:12488   */\n    tag_391:\n        /* \"#utility.yul\":12527:12528   */\n      0x00\n        /* \"#utility.yul\":12552:12616   */\n      tag_393\n        /* \"#utility.yul\":12608:12615   */\n      dup5\n        /* \"#utility.yul\":12599:12605   */\n      dup3\n        /* \"#utility.yul\":12588:12597   */\n      dup6\n        /* \"#utility.yul\":12584:12606   */\n      add\n        /* \"#utility.yul\":12552:12616   */\n      tag_264\n      jump\t// in\n    tag_393:\n        /* \"#utility.yul\":12542:12616   */\n      swap2\n      pop\n        /* \"#utility.yul\":12498:12626   */\n      pop\n        /* \"#utility.yul\":12282:12633   */\n      swap3\n      swap2\n      pop\n      pop\n      jump\t// out\n        /* \"#utility.yul\":12639:12797   */\n    tag_265:\n        /* \"#utility.yul\":12779:12789   */\n      0x4e6f2066756e6473000000000000000000000000000000000000000000000000\n        /* \"#utility.yul\":12775:12776   */\n      0x00\n        /* \"#utility.yul\":12767:12773   */\n      dup3\n        /* \"#utility.yul\":12763:12777   */\n      add\n        /* \"#utility.yul\":12756:12790   */\n      mstore\n        /* \"#utility.yul\":12639:12797   */\n      pop\n      jump\t// out\n        /* \"#utility.yul\":12803:13168   */\n    tag_266:\n        /* \"#utility.yul\":12945:12948   */\n      0x00\n        /* \"#utility.yul\":12966:13032   */\n      tag_396\n        /* \"#utility.yul\":13030:13031   */\n      0x08\n        /* \"#utility.yul\":13025:13028   */\n      dup4\n        /* \"#utility.yul\":12966:13032   */\n      tag_232\n      jump\t// in\n    tag_396:\n        /* \"#utility.yul\":12959:13032   */\n      swap2\n      pop\n        /* \"#utility.yul\":13041:13134   */\n      tag_397\n        /* \"#utility.yul\":13130:13133   */\n      dup3\n        /* \"#utility.yul\":13041:13134   */\n      tag_265\n      jump\t// in\n    tag_397:\n        /* \"#utility.yul\":13159:13161   */\n      0x20\n        /* \"#utility.yul\":13154:13157   */\n      dup3\n        /* \"#utility.yul\":13150:13162   */\n      add\n        /* \"#utility.yul\":13143:13162   */\n      swap1\n      pop\n        /* \"#utility.yul\":12803:13168   */\n      swap2\n      swap1\n      pop\n      jump\t// out\n        /* \"#utility.yul\":13174:13593   */\n    tag_143:\n        /* \"#utility.yul\":13340:13344   */\n      0x00\n        /* \"#utility.yul\":13378:13380   */\n      0x20\n        /* \"#utility.yul\":13367:13376   */\n      dup3\n        /* \"#utility.yul\":13363:13381   */\n      add\n        /* \"#utility.yul\":13355:13381   */\n      swap1\n      pop\n        /* \"#utility.yul\":13427:13436   */\n      dup2\n        /* \"#utility.yul\":13421:13425   */\n      dup2\n        /* \"#utility.yul\":13417:13437   */\n      sub\n        /* \"#utility.yul\":13413:13414   */\n      0x00\n        /* \"#utility.yul\":13402:13411   */\n      dup4\n        /* \"#utility.yul\":13398:13415   */\n      add\n        /* \"#utility.yul\":13391:13438   */\n      mstore\n        /* \"#utility.yul\":13455:13586   */\n      tag_399\n        /* \"#utility.yul\":13581:13585   */\n      dup2\n        /* \"#utility.yul\":13455:13586   */\n      tag_266\n      jump\t// in\n    tag_399:\n        /* \"#utility.yul\":13447:13586   */\n      swap1\n      pop\n        /* \"#utility.yul\":13174:13593   */\n      swap2\n      swap1\n      pop\n      jump\t// out\n        /* \"#utility.yul\":13599:13764   */\n    tag_267:\n        /* \"#utility.yul\":13739:13756   */\n      0x496e76616c696420616464726573730000000000000000000000000000000000\n        /* \"#utility.yul\":13735:13736   */\n      0x00\n        /* \"#utility.yul\":13727:13733   */\n      dup3\n        /* \"#utility.yul\":13723:13737   */\n      add\n        /* \"#utility.yul\":13716:13757   */\n      mstore\n        /* \"#utility.yul\":13599:13764   */\n      pop\n      jump\t// out\n        /* \"#utility.yul\":13770:14136   */\n    tag_268:\n        /* \"#utility.yul\":13912:13915   */\n      0x00\n        /* \"#utility.yul\":13933:14000   */\n      tag_402\n        /* \"#utility.yul\":13997:13999   */\n      0x0f\n        /* \"#utility.yul\":13992:13995   */\n      dup4\n        /* \"#utility.yul\":13933:14000   */\n      tag_232\n      jump\t// in\n    tag_402:\n        /* \"#utility.yul\":13926:14000   */\n      swap2\n      pop\n        /* \"#utility.yul\":14009:14102   */\n      tag_403\n        /* \"#utility.yul\":14098:14101   */\n      dup3\n        /* \"#utility.yul\":14009:14102   */\n      tag_267\n      jump\t// in\n    tag_403:\n        /* \"#utility.yul\":14127:14129   */\n      0x20\n        /* \"#utility.yul\":14122:14125   */\n      dup3\n        /* \"#utility.yul\":14118:14130   */\n      add\n        /* \"#utility.yul\":14111:14130   */\n      swap1\n      pop\n        /* \"#utility.yul\":13770:14136   */\n      swap2\n      swap1\n      pop\n      jump\t// out\n        /* \"#utility.yul\":14142:14561   */\n    tag_156:\n        /* \"#utility.yul\":14308:14312   */\n      0x00\n        /* \"#utility.yul\":14346:14348   */\n      0x20\n        /* \"#utility.yul\":14335:14344   */\n      dup3\n        /* \"#utility.yul\":14331:14349   */\n      add\n        /* \"#utility.yul\":14323:14349   */\n      swap1\n      pop\n        /* \"#utility.yul\":14395:14404   */\n      dup2\n        /* \"#utility.yul\":14389:14393   */\n      dup2\n        /* \"#utility.yul\":14385:14405   */\n      sub\n        /* \"#utility.yul\":14381:14382   */\n      0x00\n        /* \"#utility.yul\":14370:14379   */\n      dup4\n        /* \"#utility.yul\":14366:14383   */\n      add\n        /* \"#utility.yul\":14359:14406   */\n      mstore\n        /* \"#utility.yul\":14423:14554   */\n      tag_405\n        /* \"#utility.yul\":14549:14553   */\n      dup2\n        /* \"#utility.yul\":14423:14554   */\n      tag_268\n      jump\t// in\n    tag_405:\n        /* \"#utility.yul\":14415:14554   */\n      swap1\n      pop\n        /* \"#utility.yul\":14142:14561   */\n      swap2\n      swap1\n      pop\n      jump\t// out\n        /* \"#utility.yul\":14567:14758   */\n    tag_168:\n        /* \"#utility.yul\":14607:14610   */\n      0x00\n        /* \"#utility.yul\":14626:14646   */\n      tag_407\n        /* \"#utility.yul\":14644:14645   */\n      dup3\n        /* \"#utility.yul\":14626:14646   */\n      tag_243\n      jump\t// in\n    tag_407:\n        /* \"#utility.yul\":14621:14646   */\n      swap2\n      pop\n        /* \"#utility.yul\":14660:14680   */\n      tag_408\n        /* \"#utility.yul\":14678:14679   */\n      dup4\n        /* \"#utility.yul\":14660:14680   */\n      tag_243\n      jump\t// in\n    tag_408:\n        /* \"#utility.yul\":14655:14680   */\n      swap3\n      pop\n        /* \"#utility.yul\":14703:14704   */\n      dup3\n        /* \"#utility.yul\":14700:14701   */\n      dup3\n        /* \"#utility.yul\":14696:14705   */\n      add\n        /* \"#utility.yul\":14689:14705   */\n      swap1\n      pop\n        /* \"#utility.yul\":14724:14727   */\n      dup1\n        /* \"#utility.yul\":14721:14722   */\n      dup3\n        /* \"#utility.yul\":14718:14728   */\n      gt\n        /* \"#utility.yul\":14715:14751   */\n      iszero\n      tag_409\n      jumpi\n        /* \"#utility.yul\":14731:14749   */\n      tag_410\n      tag_254\n      jump\t// in\n    tag_410:\n        /* \"#utility.yul\":14715:14751   */\n    tag_409:\n        /* \"#utility.yul\":14567:14758   */\n      swap3\n      swap2\n      pop\n      pop\n      jump\t// out\n        /* \"#utility.yul\":14764:14926   */\n    tag_269:\n        /* \"#utility.yul\":14904:14918   */\n      0x4578636565647320676f616c0000000000000000000000000000000000000000\n        /* \"#utility.yul\":14900:14901   */\n      0x00\n        /* \"#utility.yul\":14892:14898   */\n      dup3\n        /* \"#utility.yul\":14888:14902   */\n      add\n        /* \"#utility.yul\":14881:14919   */\n      mstore\n        /* \"#utility.yul\":14764:14926   */\n      pop\n      jump\t// out\n        /* \"#utility.yul\":14932:15298   */\n    tag_270:\n        /* \"#utility.yul\":15074:15077   */\n      0x00\n        /* \"#utility.yul\":15095:15162   */\n      tag_413\n        /* \"#utility.yul\":15159:15161   */\n      0x0c\n        /* \"#utility.yul\":15154:15157   */\n      dup4\n        /* \"#utility.yul\":15095:15162   */\n      tag_232\n      jump\t// in\n    tag_413:\n        /* \"#utility.yul\":15088:15162   */\n      swap2\n      pop\n        /* \"#utility.yul\":15171:15264   */\n      tag_414\n        /* \"#utility.yul\":15260:15263   */\n      dup3\n        /* \"#utility.yul\":15171:15264   */\n      tag_269\n      jump\t// in\n    tag_414:\n        /* \"#utility.yul\":15289:15291   */\n      0x20\n        /* \"#utility.yul\":15284:15287   */\n      dup3\n        /* \"#utility.yul\":15280:15292   */\n      add\n        /* \"#utility.yul\":15273:15292   */\n      swap1\n      pop\n        /* \"#utility.yul\":14932:15298   */\n      swap2\n      swap1\n      pop\n      jump\t// out\n        /* \"#utility.yul\":15304:15723   */\n    tag_171:\n        /* \"#utility.yul\":15470:15474   */\n      0x00\n        /* \"#utility.yul\":15508:15510   */\n      0x20\n        /* \"#utility.yul\":15497:15506   */\n      dup3\n        /* \"#utility.yul\":15493:15511   */\n      add\n        /* \"#utility.yul\":15485:15511   */\n      swap1\n      pop\n        /* \"#utility.yul\":15557:15566   */\n      dup2\n        /* \"#utility.yul\":15551:15555   */\n      dup2\n        /* \"#utility.yul\":15547:15567   */\n      sub\n        /* \"#utility.yul\":15543:15544   */\n      0x00\n        /* \"#utility.yul\":15532:15541   */\n      dup4\n        /* \"#utility.yul\":15528:15545   */\n      add\n        /* \"#utility.yul\":15521:15568   */\n      mstore\n        /* \"#utility.yul\":15585:15716   */\n      tag_416\n        /* \"#utility.yul\":15711:15715   */\n      dup2\n        /* \"#utility.yul\":15585:15716   */\n      tag_270\n      jump\t// in\n    tag_416:\n        /* \"#utility.yul\":15577:15716   */\n      swap1\n      pop\n        /* \"#utility.yul\":15304:15723   */\n      swap2\n      swap1\n      pop\n      jump\t// out\n        /* \"#utility.yul\":15729:16171   */\n    tag_173:\n        /* \"#utility.yul\":15878:15882   */\n      0x00\n        /* \"#utility.yul\":15916:15918   */\n      0x60\n        /* \"#utility.yul\":15905:15914   */\n      dup3\n        /* \"#utility.yul\":15901:15919   */\n      add\n        /* \"#utility.yul\":15893:15919   */\n      swap1\n      pop\n        /* \"#utility.yul\":15929:16000   */\n      tag_418\n        /* \"#utility.yul\":15997:15998   */\n      0x00\n        /* \"#utility.yul\":15986:15995   */\n      dup4\n        /* \"#utility.yul\":15982:15999   */\n      add\n        /* \"#utility.yul\":15973:15979   */\n      dup7\n        /* \"#utility.yul\":15929:16000   */\n      tag_247\n      jump\t// in\n    tag_418:\n        /* \"#utility.yul\":16010:16082   */\n      tag_419\n        /* \"#utility.yul\":16078:16080   */\n      0x20\n        /* \"#utility.yul\":16067:16076   */\n      dup4\n        /* \"#utility.yul\":16063:16081   */\n      add\n        /* \"#utility.yul\":16054:16060   */\n      dup6\n        /* \"#utility.yul\":16010:16082   */\n      tag_247\n      jump\t// in\n    tag_419:\n        /* \"#utility.yul\":16092:16164   */\n      tag_420\n        /* \"#utility.yul\":16160:16162   */\n      0x40\n        /* \"#utility.yul\":16149:16158   */\n      dup4\n        /* \"#utility.yul\":16145:16163   */\n      add\n        /* \"#utility.yul\":16136:16142   */\n      dup5\n        /* \"#utility.yul\":16092:16164   */\n      tag_244\n      jump\t// in\n    tag_420:\n        /* \"#utility.yul\":15729:16171   */\n      swap5\n      swap4\n      pop\n      pop\n      pop\n      pop\n      jump\t// out\n        /* \"#utility.yul\":16177:16342   */\n    tag_271:\n        /* \"#utility.yul\":16317:16334   */\n      0x53706f6e736f72206e6f74207365740000000000000000000000000000000000\n        /* \"#utility.yul\":16313:16314   */\n      0x00\n        /* \"#utility.yul\":16305:16311   */\n      dup3\n        /* \"#utility.yul\":16301:16315   */\n      add\n        /* \"#utility.yul\":16294:16335   */\n      mstore\n        /* \"#utility.yul\":16177:16342   */\n      pop\n      jump\t// out\n        /* \"#utility.yul\":16348:16714   */\n    tag_272:\n        /* \"#utility.yul\":16490:16493   */\n      0x00\n        /* \"#utility.yul\":16511:16578   */\n      tag_423\n        /* \"#utility.yul\":16575:16577   */\n      0x0f\n        /* \"#utility.yul\":16570:16573   */\n      dup4\n        /* \"#utility.yul\":16511:16578   */\n      tag_232\n      jump\t// in\n    tag_423:\n        /* \"#utility.yul\":16504:16578   */\n      swap2\n      pop\n        /* \"#utility.yul\":16587:16680   */\n      tag_424\n        /* \"#utility.yul\":16676:16679   */\n      dup3\n        /* \"#utility.yul\":16587:16680   */\n      tag_271\n      jump\t// in\n    tag_424:\n        /* \"#utility.yul\":16705:16707   */\n      0x20\n        /* \"#utility.yul\":16700:16703   */\n      dup3\n        /* \"#utility.yul\":16696:16708   */\n      add\n        /* \"#utility.yul\":16689:16708   */\n      swap1\n      pop\n        /* \"#utility.yul\":16348:16714   */\n      swap2\n      swap1\n      pop\n      jump\t// out\n        /* \"#utility.yul\":16720:17139   */\n    tag_200:\n        /* \"#utility.yul\":16886:16890   */\n      0x00\n        /* \"#utility.yul\":16924:16926   */\n      0x20\n        /* \"#utility.yul\":16913:16922   */\n      dup3\n        /* \"#utility.yul\":16909:16927   */\n      add\n        /* \"#utility.yul\":16901:16927   */\n      swap1\n      pop\n        /* \"#utility.yul\":16973:16982   */\n      dup2\n        /* \"#utility.yul\":16967:16971   */\n      dup2\n        /* \"#utility.yul\":16963:16983   */\n      sub\n        /* \"#utility.yul\":16959:16960   */\n      0x00\n        /* \"#utility.yul\":16948:16957   */\n      dup4\n        /* \"#utility.yul\":16944:16961   */\n      add\n        /* \"#utility.yul\":16937:16984   */\n      mstore\n        /* \"#utility.yul\":17001:17132   */\n      tag_426\n        /* \"#utility.yul\":17127:17131   */\n      dup2\n        /* \"#utility.yul\":17001:17132   */\n      tag_272\n      jump\t// in\n    tag_426:\n        /* \"#utility.yul\":16993:17132   */\n      swap1\n      pop\n        /* \"#utility.yul\":16720:17139   */\n      swap2\n      swap1\n      pop\n      jump\t// out\n\n    auxdata: 0xa26469706673582212208e55854befc025f628423c4a5bbd4ba0bc852d44ed945f4ac7c103a3aa962f8f64736f6c634300081e0033\n}\n",
				"bytecode": {
					"linkReferences": {},
					"object": "608060405234801561001057600080fd5b5060405161220d38038061220d8339818101604052810190610032919061023f565b600073ffffffffffffffffffffffffffffffffffffffff168273ffffffffffffffffffffffffffffffffffffffff16036100a1576040517f08c379a0000000000000000000000000000000000000000000000000000000008152600401610098906102dc565b60405180910390fd5b600081116100e4576040517f08c379a00000000000000000000000000000000000000000000000000000000081526004016100db90610348565b60405180910390fd5b336000806101000a81548173ffffffffffffffffffffffffffffffffffffffff021916908373ffffffffffffffffffffffffffffffffffffffff16021790555081600160006101000a81548173ffffffffffffffffffffffffffffffffffffffff021916908373ffffffffffffffffffffffffffffffffffffffff1602179055508060048190555060006005819055506000600660006101000a81548160ff0219169083600281111561019a57610199610368565b5b02179055505050610397565b600080fd5b600073ffffffffffffffffffffffffffffffffffffffff82169050919050565b60006101d6826101ab565b9050919050565b6101e6816101cb565b81146101f157600080fd5b50565b600081519050610203816101dd565b92915050565b6000819050919050565b61021c81610209565b811461022757600080fd5b50565b60008151905061023981610213565b92915050565b60008060408385031215610256576102556101a6565b5b6000610264858286016101f4565b92505060206102758582860161022a565b9150509250929050565b600082825260208201905092915050565b7f496e76616c696420746f6b656e00000000000000000000000000000000000000600082015250565b60006102c6600d8361027f565b91506102d182610290565b602082019050919050565b600060208201905081810360008301526102f5816102b9565b9050919050565b7f496e76616c696420676f616c0000000000000000000000000000000000000000600082015250565b6000610332600c8361027f565b915061033d826102fc565b602082019050919050565b6000602082019050818103600083015261036181610325565b9050919050565b7f4e487b7100000000000000000000000000000000000000000000000000000000600052602160045260246000fd5b611e67806103a66000396000f3fe608060405234801561001057600080fd5b506004361061010b5760003560e01c80637a3a0e84116100a2578063c1cbbca711610071578063c1cbbca714610284578063d69f84fd146102a0578063dabaae11146102aa578063dd682c3c146102c8578063f441b1c8146102e45761010b565b80637a3a0e841461020e5780638da5cb5b1461022c5780639d76ea581461024a578063b90a52c6146102685761010b565b806342e94c90116100de57806342e94c9014610198578063511569a6146101c85780635f23c4c6146101e65780636aeefe10146101f05761010b565b80630c3f6acf146101105780631865c57d1461012e57806321eff7fc1461014c5780632e1a7d4d1461017c575b600080fd5b610118610302565b6040516101259190611647565b60405180910390f35b610136610315565b60405161014391906116f2565b60405180910390f35b61016660048036038101906101619190611777565b610443565b60405161017391906117bd565b60405180910390f35b61019660048036038101906101919190611804565b61048c565b005b6101b260048036038101906101ad9190611777565b61076e565b6040516101bf91906117bd565b60405180910390f35b6101d0610786565b6040516101dd9190611840565b60405180910390f35b6101ee6107ac565b005b6101f8610b30565b6040516102059190611840565b60405180910390f35b610216610b56565b60405161022391906117bd565b60405180910390f35b610234610b5c565b6040516102419190611840565b60405180910390f35b610252610b80565b60405161025f9190611840565b60405180910390f35b610282600480360381019061027d9190611777565b610ba6565b005b61029e60048036038101906102999190611804565b610ce7565b005b6102a8611043565b005b6102b261145d565b6040516102bf91906117bd565b60405180910390f35b6102e260048036038101906102dd9190611777565b611489565b005b6102ec6115ca565b6040516102f991906117bd565b60405180910390f35b600660009054906101000a900460ff1681565b60606000600281111561032b5761032a6115d0565b5b600660009054906101000a900460ff16600281111561034d5761034c6115d0565b5b0361038f576040518060400160405280600a81526020017f6e6566696e616e746174000000000000000000000000000000000000000000008152509050610440565b600160028111156103a3576103a26115d0565b5b600660009054906101000a900460ff1660028111156103c5576103c46115d0565b5b03610407576040518060400160405280600b81526020017f70726566696e616e7461740000000000000000000000000000000000000000008152509050610440565b6040518060400160405280600881526020017f66696e616e74617400000000000000000000000000000000000000000000000081525090505b90565b6000600760008373ffffffffffffffffffffffffffffffffffffffff1673ffffffffffffffffffffffffffffffffffffffff168152602001908152602001600020549050919050565b60008060028111156104a1576104a06115d0565b5b600660009054906101000a900460ff1660028111156104c3576104c26115d0565b5b14610503576040517f08c379a00000000000000000000000000000000000000000000000000000000081526004016104fa906118a7565b60405180910390fd5b60008211610546576040517f08c379a000000000000000000000000000000000000000000000000000000000815260040161053d90611913565b60405180910390fd5b81600760003373ffffffffffffffffffffffffffffffffffffffff1673ffffffffffffffffffffffffffffffffffffffff1681526020019081526020016000205410156105c8576040517f08c379a00000000000000000000000000000000000000000000000000000000081526004016105bf9061197f565b60405180910390fd5b81600760003373ffffffffffffffffffffffffffffffffffffffff1673ffffffffffffffffffffffffffffffffffffffff168152602001908152602001600020600082825461061791906119ce565b92505081905550816005600082825461063091906119ce565b925050819055506000600160009054906101000a900473ffffffffffffffffffffffffffffffffffffffff1690508073ffffffffffffffffffffffffffffffffffffffff1663a9059cbb33856040518363ffffffff1660e01b8152600401610699929190611a02565b6020604051808303816000875af11580156106b8573d6000803e3d6000fd5b505050506040513d601f19601f820116820180604052508101906106dc9190611a63565b61071b576040517f08c379a000000000000000000000000000000000000000000000000000000000815260040161071290611adc565b60405180910390fd5b3373ffffffffffffffffffffffffffffffffffffffff167fbc158bb64f05d6383aea69bbb0b20c1bbf4b7a18f63359c5649b7c39e29d38848460405161076191906117bd565b60405180910390a2505050565b60076020528060005260406000206000915090505481565b600360009054906101000a900473ffffffffffffffffffffffffffffffffffffffff1681565b60008054906101000a900473ffffffffffffffffffffffffffffffffffffffff1673ffffffffffffffffffffffffffffffffffffffff163373ffffffffffffffffffffffffffffffffffffffff161461083a576040517f08c379a000000000000000000000000000000000000000000000000000000000815260040161083190611b48565b60405180910390fd5b600280600281111561084f5761084e6115d0565b5b600660009054906101000a900460ff166002811115610871576108706115d0565b5b146108b1576040517f08c379a00000000000000000000000000000000000000000000000000000000081526004016108a8906118a7565b60405180910390fd5b600073ffffffffffffffffffffffffffffffffffffffff16600360009054906101000a900473ffffffffffffffffffffffffffffffffffffffff1673ffffffffffffffffffffffffffffffffffffffff1603610942576040517f08c379a000000000000000000000000000000000000000000000000000000000815260040161093990611bb4565b60405180910390fd5b6000600160009054906101000a900473ffffffffffffffffffffffffffffffffffffffff1673ffffffffffffffffffffffffffffffffffffffff166370a08231306040518263ffffffff1660e01b815260040161099f9190611840565b602060405180830381865afa1580156109bc573d6000803e3d6000fd5b505050506040513d601f19601f820116820180604052508101906109e09190611be9565b905060008111610a25576040517f08c379a0000000000000000000000000000000000000000000000000000000008152600401610a1c90611c62565b60405180910390fd5b6000600160009054906101000a900473ffffffffffffffffffffffffffffffffffffffff1690508073ffffffffffffffffffffffffffffffffffffffff1663a9059cbb600360009054906101000a900473ffffffffffffffffffffffffffffffffffffffff16846040518363ffffffff1660e01b8152600401610aa9929190611a02565b6020604051808303816000875af1158015610ac8573d6000803e3d6000fd5b505050506040513d601f19601f82011682018060405250810190610aec9190611a63565b610b2b576040517f08c379a0000000000000000000000000000000000000000000000000000000008152600401610b2290611adc565b60405180910390fd5b505050565b600260009054906101000a900473ffffffffffffffffffffffffffffffffffffffff1681565b60045481565b60008054906101000a900473ffffffffffffffffffffffffffffffffffffffff1681565b600160009054906101000a900473ffffffffffffffffffffffffffffffffffffffff1681565b60008054906101000a900473ffffffffffffffffffffffffffffffffffffffff1673ffffffffffffffffffffffffffffffffffffffff163373ffffffffffffffffffffffffffffffffffffffff1614610c34576040517f08c379a0000000000000000000000000000000000000000000000000000000008152600401610c2b90611b48565b60405180910390fd5b600073ffffffffffffffffffffffffffffffffffffffff168173ffffffffffffffffffffffffffffffffffffffff1603610ca3576040517f08c379a0000000000000000000000000000000000000000000000000000000008152600401610c9a90611cce565b60405180910390fd5b80600360006101000a81548173ffffffffffffffffffffffffffffffffffffffff021916908373ffffffffffffffffffffffffffffffffffffffff16021790555050565b6000806002811115610cfc57610cfb6115d0565b5b600660009054906101000a900460ff166002811115610d1e57610d1d6115d0565b5b14610d5e576040517f08c379a0000000000000000000000000000000000000000000000000000000008152600401610d55906118a7565b60405180910390fd5b60008211610da1576040517f08c379a0000000000000000000000000000000000000000000000000000000008152600401610d9890611913565b60405180910390fd5b60045482600554610db29190611cee565b1115610df3576040517f08c379a0000000000000000000000000000000000000000000000000000000008152600401610dea90611d6e565b60405180910390fd5b6000600160009054906101000a900473ffffffffffffffffffffffffffffffffffffffff1690508073ffffffffffffffffffffffffffffffffffffffff166323b872dd3330866040518463ffffffff1660e01b8152600401610e5793929190611d8e565b6020604051808303816000875af1158015610e76573d6000803e3d6000fd5b505050506040513d601f19601f82011682018060405250810190610e9a9190611a63565b610ed9576040517f08c379a0000000000000000000000000000000000000000000000000000000008152600401610ed090611adc565b60405180910390fd5b82600760003373ffffffffffffffffffffffffffffffffffffffff1673ffffffffffffffffffffffffffffffffffffffff1681526020019081526020016000206000828254610f289190611cee565b925050819055508260056000828254610f419190611cee565b925050819055503373ffffffffffffffffffffffffffffffffffffffff167f1bb460ccaaf70fbacfec17a376f8acbd278c1405590ffcc8ebe4b88daf4f64ad84604051610f8e91906117bd565b60405180910390a26004546005541061103e576001600660006101000a81548160ff02191690836002811115610fc757610fc66115d0565b5b02179055507ffbfd8ab7c24300fa9888cd721c8565a7da56759384781283684dcf7c7c4a846b600554604051610ffd91906117bd565b60405180910390a17f551dc40198cc79684bb69e4931dba4ac16e4598792ee1c0a5000aeea366d7bb660016040516110359190611647565b60405180910390a15b505050565b60008054906101000a900473ffffffffffffffffffffffffffffffffffffffff1673ffffffffffffffffffffffffffffffffffffffff163373ffffffffffffffffffffffffffffffffffffffff16146110d1576040517f08c379a00000000000000000000000000000000000000000000000000000000081526004016110c890611b48565b60405180910390fd5b60018060028111156110e6576110e56115d0565b5b600660009054906101000a900460ff166002811115611108576111076115d0565b5b14611148576040517f08c379a000000000000000000000000000000000000000000000000000000000815260040161113f906118a7565b60405180910390fd5b600073ffffffffffffffffffffffffffffffffffffffff16600260009054906101000a900473ffffffffffffffffffffffffffffffffffffffff1673ffffffffffffffffffffffffffffffffffffffff16036111d9576040517f08c379a00000000000000000000000000000000000000000000000000000000081526004016111d090611e11565b60405180910390fd5b6000600160009054906101000a900473ffffffffffffffffffffffffffffffffffffffff1673ffffffffffffffffffffffffffffffffffffffff166370a08231306040518263ffffffff1660e01b81526004016112369190611840565b602060405180830381865afa158015611253573d6000803e3d6000fd5b505050506040513d601f19601f820116820180604052508101906112779190611be9565b9050600260009054906101000a900473ffffffffffffffffffffffffffffffffffffffff1673ffffffffffffffffffffffffffffffffffffffff1663c5d9b404306040518263ffffffff1660e01b81526004016112d49190611840565b600060405180830381600087803b1580156112ee57600080fd5b505af1158015611302573d6000803e3d6000fd5b505050506000600160009054906101000a900473ffffffffffffffffffffffffffffffffffffffff1673ffffffffffffffffffffffffffffffffffffffff166370a08231306040518263ffffffff1660e01b81526004016113639190611840565b602060405180830381865afa158015611380573d6000803e3d6000fd5b505050506040513d601f19601f820116820180604052508101906113a49190611be9565b9050600082826113b491906119ce565b9050816005819055506002600660006101000a81548160ff021916908360028111156113e3576113e26115d0565b5b02179055507fe39ffe3225753008b3e2be16d5450bd66fae7dd9bf04cccdc2f2218a74f242108160405161141791906117bd565b60405180910390a17f551dc40198cc79684bb69e4931dba4ac16e4598792ee1c0a5000aeea366d7bb6600260405161144f9190611647565b60405180910390a150505050565b6000600454600554106114735760009050611486565b60055460045461148391906119ce565b90505b90565b60008054906101000a900473ffffffffffffffffffffffffffffffffffffffff1673ffffffffffffffffffffffffffffffffffffffff163373ffffffffffffffffffffffffffffffffffffffff1614611517576040517f08c379a000000000000000000000000000000000000000000000000000000000815260040161150e90611b48565b60405180910390fd5b600073ffffffffffffffffffffffffffffffffffffffff168173ffffffffffffffffffffffffffffffffffffffff1603611586576040517f08c379a000000000000000000000000000000000000000000000000000000000815260040161157d90611cce565b60405180910390fd5b80600260006101000a81548173ffffffffffffffffffffffffffffffffffffffff021916908373ffffffffffffffffffffffffffffffffffffffff16021790555050565b60055481565b7f4e487b7100000000000000000000000000000000000000000000000000000000600052602160045260246000fd5b600381106116105761160f6115d0565b5b50565b6000819050611621826115ff565b919050565b600061163182611613565b9050919050565b61164181611626565b82525050565b600060208201905061165c6000830184611638565b92915050565b600081519050919050565b600082825260208201905092915050565b60005b8381101561169c578082015181840152602081019050611681565b60008484015250505050565b6000601f19601f8301169050919050565b60006116c482611662565b6116ce818561166d565b93506116de81856020860161167e565b6116e7816116a8565b840191505092915050565b6000602082019050818103600083015261170c81846116b9565b905092915050565b600080fd5b600073ffffffffffffffffffffffffffffffffffffffff82169050919050565b600061174482611719565b9050919050565b61175481611739565b811461175f57600080fd5b50565b6000813590506117718161174b565b92915050565b60006020828403121561178d5761178c611714565b5b600061179b84828501611762565b91505092915050565b6000819050919050565b6117b7816117a4565b82525050565b60006020820190506117d260008301846117ae565b92915050565b6117e1816117a4565b81146117ec57600080fd5b50565b6000813590506117fe816117d8565b92915050565b60006020828403121561181a57611819611714565b5b6000611828848285016117ef565b91505092915050565b61183a81611739565b82525050565b60006020820190506118556000830184611831565b92915050565b7f496e76616c696420737461746500000000000000000000000000000000000000600082015250565b6000611891600d8361166d565b915061189c8261185b565b602082019050919050565b600060208201905081810360008301526118c081611884565b9050919050565b7f416d6f756e74206d75737420626520706f736974697665000000000000000000600082015250565b60006118fd60178361166d565b9150611908826118c7565b602082019050919050565b6000602082019050818103600083015261192c816118f0565b9050919050565b7f496e73756666696369656e7420636f6e747269627574696f6e00000000000000600082015250565b600061196960198361166d565b915061197482611933565b602082019050919050565b600060208201905081810360008301526119988161195c565b9050919050565b7f4e487b7100000000000000000000000000000000000000000000000000000000600052601160045260246000fd5b60006119d9826117a4565b91506119e4836117a4565b92508282039050818111156119fc576119fb61199f565b5b92915050565b6000604082019050611a176000830185611831565b611a2460208301846117ae565b9392505050565b60008115159050919050565b611a4081611a2b565b8114611a4b57600080fd5b50565b600081519050611a5d81611a37565b92915050565b600060208284031215611a7957611a78611714565b5b6000611a8784828501611a4e565b91505092915050565b7f5472616e73666572206661696c65640000000000000000000000000000000000600082015250565b6000611ac6600f8361166d565b9150611ad182611a90565b602082019050919050565b60006020820190508181036000830152611af581611ab9565b9050919050565b7f4f6e6c79206f776e657200000000000000000000000000000000000000000000600082015250565b6000611b32600a8361166d565b9150611b3d82611afc565b602082019050919050565b60006020820190508181036000830152611b6181611b25565b9050919050565b7f44697374726962757465206e6f74207365740000000000000000000000000000600082015250565b6000611b9e60128361166d565b9150611ba982611b68565b602082019050919050565b60006020820190508181036000830152611bcd81611b91565b9050919050565b600081519050611be3816117d8565b92915050565b600060208284031215611bff57611bfe611714565b5b6000611c0d84828501611bd4565b91505092915050565b7f4e6f2066756e6473000000000000000000000000000000000000000000000000600082015250565b6000611c4c60088361166d565b9150611c5782611c16565b602082019050919050565b60006020820190508181036000830152611c7b81611c3f565b9050919050565b7f496e76616c696420616464726573730000000000000000000000000000000000600082015250565b6000611cb8600f8361166d565b9150611cc382611c82565b602082019050919050565b60006020820190508181036000830152611ce781611cab565b9050919050565b6000611cf9826117a4565b9150611d04836117a4565b9250828201905080821115611d1c57611d1b61199f565b5b92915050565b7f4578636565647320676f616c0000000000000000000000000000000000000000600082015250565b6000611d58600c8361166d565b9150611d6382611d22565b602082019050919050565b60006020820190508181036000830152611d8781611d4b565b9050919050565b6000606082019050611da36000830186611831565b611db06020830185611831565b611dbd60408301846117ae565b949350505050565b7f53706f6e736f72206e6f74207365740000000000000000000000000000000000600082015250565b6000611dfb600f8361166d565b9150611e0682611dc5565b602082019050919050565b60006020820190508181036000830152611e2a81611dee565b905091905056fea26469706673582212208e55854befc025f628423c4a5bbd4ba0bc852d44ed945f4ac7c103a3aa962f8f64736f6c634300081e0033",
					"opcodes": "PUSH1 0x80 PUSH1 0x40 MSTORE CALLVALUE DUP1 ISZERO PUSH2 0x10 JUMPI PUSH1 0x0 DUP1 REVERT JUMPDEST POP PUSH1 0x40 MLOAD PUSH2 0x220D CODESIZE SUB DUP1 PUSH2 0x220D DUP4 CODECOPY DUP2 DUP2 ADD PUSH1 0x40 MSTORE DUP2 ADD SWAP1 PUSH2 0x32 SWAP2 SWAP1 PUSH2 0x23F JUMP JUMPDEST PUSH1 0x0 PUSH20 0xFFFFFFFFFFFFFFFFFFFFFFFFFFFFFFFFFFFFFFFF AND DUP3 PUSH20 0xFFFFFFFFFFFFFFFFFFFFFFFFFFFFFFFFFFFFFFFF AND SUB PUSH2 0xA1 JUMPI PUSH1 0x40 MLOAD PUSH32 0x8C379A000000000000000000000000000000000000000000000000000000000 DUP2 MSTORE PUSH1 0x4 ADD PUSH2 0x98 SWAP1 PUSH2 0x2DC JUMP JUMPDEST PUSH1 0x40 MLOAD DUP1 SWAP2 SUB SWAP1 REVERT JUMPDEST PUSH1 0x0 DUP2 GT PUSH2 0xE4 JUMPI PUSH1 0x40 MLOAD PUSH32 0x8C379A000000000000000000000000000000000000000000000000000000000 DUP2 MSTORE PUSH1 0x4 ADD PUSH2 0xDB SWAP1 PUSH2 0x348 JUMP JUMPDEST PUSH1 0x40 MLOAD DUP1 SWAP2 SUB SWAP1 REVERT JUMPDEST CALLER PUSH1 0x0 DUP1 PUSH2 0x100 EXP DUP2 SLOAD DUP2 PUSH20 0xFFFFFFFFFFFFFFFFFFFFFFFFFFFFFFFFFFFFFFFF MUL NOT AND SWAP1 DUP4 PUSH20 0xFFFFFFFFFFFFFFFFFFFFFFFFFFFFFFFFFFFFFFFF AND MUL OR SWAP1 SSTORE POP DUP2 PUSH1 0x1 PUSH1 0x0 PUSH2 0x100 EXP DUP2 SLOAD DUP2 PUSH20 0xFFFFFFFFFFFFFFFFFFFFFFFFFFFFFFFFFFFFFFFF MUL NOT AND SWAP1 DUP4 PUSH20 0xFFFFFFFFFFFFFFFFFFFFFFFFFFFFFFFFFFFFFFFF AND MUL OR SWAP1 SSTORE POP DUP1 PUSH1 0x4 DUP2 SWAP1 SSTORE POP PUSH1 0x0 PUSH1 0x5 DUP2 SWAP1 SSTORE POP PUSH1 0x0 PUSH1 0x6 PUSH1 0x0 PUSH2 0x100 EXP DUP2 SLOAD DUP2 PUSH1 0xFF MUL NOT AND SWAP1 DUP4 PUSH1 0x2 DUP2 GT ISZERO PUSH2 0x19A JUMPI PUSH2 0x199 PUSH2 0x368 JUMP JUMPDEST JUMPDEST MUL OR SWAP1 SSTORE POP POP POP PUSH2 0x397 JUMP JUMPDEST PUSH1 0x0 DUP1 REVERT JUMPDEST PUSH1 0x0 PUSH20 0xFFFFFFFFFFFFFFFFFFFFFFFFFFFFFFFFFFFFFFFF DUP3 AND SWAP1 POP SWAP2 SWAP1 POP JUMP JUMPDEST PUSH1 0x0 PUSH2 0x1D6 DUP3 PUSH2 0x1AB JUMP JUMPDEST SWAP1 POP SWAP2 SWAP1 POP JUMP JUMPDEST PUSH2 0x1E6 DUP2 PUSH2 0x1CB JUMP JUMPDEST DUP2 EQ PUSH2 0x1F1 JUMPI PUSH1 0x0 DUP1 REVERT JUMPDEST POP JUMP JUMPDEST PUSH1 0x0 DUP2 MLOAD SWAP1 POP PUSH2 0x203 DUP2 PUSH2 0x1DD JUMP JUMPDEST SWAP3 SWAP2 POP POP JUMP JUMPDEST PUSH1 0x0 DUP2 SWAP1 POP SWAP2 SWAP1 POP JUMP JUMPDEST PUSH2 0x21C DUP2 PUSH2 0x209 JUMP JUMPDEST DUP2 EQ PUSH2 0x227 JUMPI PUSH1 0x0 DUP1 REVERT JUMPDEST POP JUMP JUMPDEST PUSH1 0x0 DUP2 MLOAD SWAP1 POP PUSH2 0x239 DUP2 PUSH2 0x213 JUMP JUMPDEST SWAP3 SWAP2 POP POP JUMP JUMPDEST PUSH1 0x0 DUP1 PUSH1 0x40 DUP4 DUP6 SUB SLT ISZERO PUSH2 0x256 JUMPI PUSH2 0x255 PUSH2 0x1A6 JUMP JUMPDEST JUMPDEST PUSH1 0x0 PUSH2 0x264 DUP6 DUP3 DUP7 ADD PUSH2 0x1F4 JUMP JUMPDEST SWAP3 POP POP PUSH1 0x20 PUSH2 0x275 DUP6 DUP3 DUP7 ADD PUSH2 0x22A JUMP JUMPDEST SWAP2 POP POP SWAP3 POP SWAP3 SWAP1 POP JUMP JUMPDEST PUSH1 0x0 DUP3 DUP3 MSTORE PUSH1 0x20 DUP3 ADD SWAP1 POP SWAP3 SWAP2 POP POP JUMP JUMPDEST PUSH32 0x496E76616C696420746F6B656E00000000000000000000000000000000000000 PUSH1 0x0 DUP3 ADD MSTORE POP JUMP JUMPDEST PUSH1 0x0 PUSH2 0x2C6 PUSH1 0xD DUP4 PUSH2 0x27F JUMP JUMPDEST SWAP2 POP PUSH2 0x2D1 DUP3 PUSH2 0x290 JUMP JUMPDEST PUSH1 0x20 DUP3 ADD SWAP1 POP SWAP2 SWAP1 POP JUMP JUMPDEST PUSH1 0x0 PUSH1 0x20 DUP3 ADD SWAP1 POP DUP2 DUP2 SUB PUSH1 0x0 DUP4 ADD MSTORE PUSH2 0x2F5 DUP2 PUSH2 0x2B9 JUMP JUMPDEST SWAP1 POP SWAP2 SWAP1 POP JUMP JUMPDEST PUSH32 0x496E76616C696420676F616C0000000000000000000000000000000000000000 PUSH1 0x0 DUP3 ADD MSTORE POP JUMP JUMPDEST PUSH1 0x0 PUSH2 0x332 PUSH1 0xC DUP4 PUSH2 0x27F JUMP JUMPDEST SWAP2 POP PUSH2 0x33D DUP3 PUSH2 0x2FC JUMP JUMPDEST PUSH1 0x20 DUP3 ADD SWAP1 POP SWAP2 SWAP1 POP JUMP JUMPDEST PUSH1 0x0 PUSH1 0x20 DUP3 ADD SWAP1 POP DUP2 DUP2 SUB PUSH1 0x0 DUP4 ADD MSTORE PUSH2 0x361 DUP2 PUSH2 0x325 JUMP JUMPDEST SWAP1 POP SWAP2 SWAP1 POP JUMP JUMPDEST PUSH32 0x4E487B7100000000000000000000000000000000000000000000000000000000 PUSH1 0x0 MSTORE PUSH1 0x21 PUSH1 0x4 MSTORE PUSH1 0x24 PUSH1 0x0 REVERT JUMPDEST PUSH2 0x1E67 DUP1 PUSH2 0x3A6 PUSH1 0x0 CODECOPY PUSH1 0x0 RETURN INVALID PUSH1 0x80 PUSH1 0x40 MSTORE CALLVALUE DUP1 ISZERO PUSH2 0x10 JUMPI PUSH1 0x0 DUP1 REVERT JUMPDEST POP PUSH1 0x4 CALLDATASIZE LT PUSH2 0x10B JUMPI PUSH1 0x0 CALLDATALOAD PUSH1 0xE0 SHR DUP1 PUSH4 0x7A3A0E84 GT PUSH2 0xA2 JUMPI DUP1 PUSH4 0xC1CBBCA7 GT PUSH2 0x71 JUMPI DUP1 PUSH4 0xC1CBBCA7 EQ PUSH2 0x284 JUMPI DUP1 PUSH4 0xD69F84FD EQ PUSH2 0x2A0 JUMPI DUP1 PUSH4 0xDABAAE11 EQ PUSH2 0x2AA JUMPI DUP1 PUSH4 0xDD682C3C EQ PUSH2 0x2C8 JUMPI DUP1 PUSH4 0xF441B1C8 EQ PUSH2 0x2E4 JUMPI PUSH2 0x10B JUMP JUMPDEST DUP1 PUSH4 0x7A3A0E84 EQ PUSH2 0x20E JUMPI DUP1 PUSH4 0x8DA5CB5B EQ PUSH2 0x22C JUMPI DUP1 PUSH4 0x9D76EA58 EQ PUSH2 0x24A JUMPI DUP1 PUSH4 0xB90A52C6 EQ PUSH2 0x268 JUMPI PUSH2 0x10B JUMP JUMPDEST DUP1 PUSH4 0x42E94C90 GT PUSH2 0xDE JUMPI DUP1 PUSH4 0x42E94C90 EQ PUSH2 0x198 JUMPI DUP1 PUSH4 0x511569A6 EQ PUSH2 0x1C8 JUMPI DUP1 PUSH4 0x5F23C4C6 EQ PUSH2 0x1E6 JUMPI DUP1 PUSH4 0x6AEEFE10 EQ PUSH2 0x1F0 JUMPI PUSH2 0x10B JUMP JUMPDEST DUP1 PUSH4 0xC3F6ACF EQ PUSH2 0x110 JUMPI DUP1 PUSH4 0x1865C57D EQ PUSH2 0x12E JUMPI DUP1 PUSH4 0x21EFF7FC EQ PUSH2 0x14C JUMPI DUP1 PUSH4 0x2E1A7D4D EQ PUSH2 0x17C JUMPI JUMPDEST PUSH1 0x0 DUP1 REVERT JUMPDEST PUSH2 0x118 PUSH2 0x302 JUMP JUMPDEST PUSH1 0x40 MLOAD PUSH2 0x125 SWAP2 SWAP1 PUSH2 0x1647 JUMP JUMPDEST PUSH1 0x40 MLOAD DUP1 SWAP2 SUB SWAP1 RETURN JUMPDEST PUSH2 0x136 PUSH2 0x315 JUMP JUMPDEST PUSH1 0x40 MLOAD PUSH2 0x143 SWAP2 SWAP1 PUSH2 0x16F2 JUMP JUMPDEST PUSH1 0x40 MLOAD DUP1 SWAP2 SUB SWAP1 RETURN JUMPDEST PUSH2 0x166 PUSH1 0x4 DUP1 CALLDATASIZE SUB DUP2 ADD SWAP1 PUSH2 0x161 SWAP2 SWAP1 PUSH2 0x1777 JUMP JUMPDEST PUSH2 0x443 JUMP JUMPDEST PUSH1 0x40 MLOAD PUSH2 0x173 SWAP2 SWAP1 PUSH2 0x17BD JUMP JUMPDEST PUSH1 0x40 MLOAD DUP1 SWAP2 SUB SWAP1 RETURN JUMPDEST PUSH2 0x196 PUSH1 0x4 DUP1 CALLDATASIZE SUB DUP2 ADD SWAP1 PUSH2 0x191 SWAP2 SWAP1 PUSH2 0x1804 JUMP JUMPDEST PUSH2 0x48C JUMP JUMPDEST STOP JUMPDEST PUSH2 0x1B2 PUSH1 0x4 DUP1 CALLDATASIZE SUB DUP2 ADD SWAP1 PUSH2 0x1AD SWAP2 SWAP1 PUSH2 0x1777 JUMP JUMPDEST PUSH2 0x76E JUMP JUMPDEST PUSH1 0x40 MLOAD PUSH2 0x1BF SWAP2 SWAP1 PUSH2 0x17BD JUMP JUMPDEST PUSH1 0x40 MLOAD DUP1 SWAP2 SUB SWAP1 RETURN JUMPDEST PUSH2 0x1D0 PUSH2 0x786 JUMP JUMPDEST PUSH1 0x40 MLOAD PUSH2 0x1DD SWAP2 SWAP1 PUSH2 0x1840 JUMP JUMPDEST PUSH1 0x40 MLOAD DUP1 SWAP2 SUB SWAP1 RETURN JUMPDEST PUSH2 0x1EE PUSH2 0x7AC JUMP JUMPDEST STOP JUMPDEST PUSH2 0x1F8 PUSH2 0xB30 JUMP JUMPDEST PUSH1 0x40 MLOAD PUSH2 0x205 SWAP2 SWAP1 PUSH2 0x1840 JUMP JUMPDEST PUSH1 0x40 MLOAD DUP1 SWAP2 SUB SWAP1 RETURN JUMPDEST PUSH2 0x216 PUSH2 0xB56 JUMP JUMPDEST PUSH1 0x40 MLOAD PUSH2 0x223 SWAP2 SWAP1 PUSH2 0x17BD JUMP JUMPDEST PUSH1 0x40 MLOAD DUP1 SWAP2 SUB SWAP1 RETURN JUMPDEST PUSH2 0x234 PUSH2 0xB5C JUMP JUMPDEST PUSH1 0x40 MLOAD PUSH2 0x241 SWAP2 SWAP1 PUSH2 0x1840 JUMP JUMPDEST PUSH1 0x40 MLOAD DUP1 SWAP2 SUB SWAP1 RETURN JUMPDEST PUSH2 0x252 PUSH2 0xB80 JUMP JUMPDEST PUSH1 0x40 MLOAD PUSH2 0x25F SWAP2 SWAP1 PUSH2 0x1840 JUMP JUMPDEST PUSH1 0x40 MLOAD DUP1 SWAP2 SUB SWAP1 RETURN JUMPDEST PUSH2 0x282 PUSH1 0x4 DUP1 CALLDATASIZE SUB DUP2 ADD SWAP1 PUSH2 0x27D SWAP2 SWAP1 PUSH2 0x1777 JUMP JUMPDEST PUSH2 0xBA6 JUMP JUMPDEST STOP JUMPDEST PUSH2 0x29E PUSH1 0x4 DUP1 CALLDATASIZE SUB DUP2 ADD SWAP1 PUSH2 0x299 SWAP2 SWAP1 PUSH2 0x1804 JUMP JUMPDEST PUSH2 0xCE7 JUMP JUMPDEST STOP JUMPDEST PUSH2 0x2A8 PUSH2 0x1043 JUMP JUMPDEST STOP JUMPDEST PUSH2 0x2B2 PUSH2 0x145D JUMP JUMPDEST PUSH1 0x40 MLOAD PUSH2 0x2BF SWAP2 SWAP1 PUSH2 0x17BD JUMP JUMPDEST PUSH1 0x40 MLOAD DUP1 SWAP2 SUB SWAP1 RETURN JUMPDEST PUSH2 0x2E2 PUSH1 0x4 DUP1 CALLDATASIZE SUB DUP2 ADD SWAP1 PUSH2 0x2DD SWAP2 SWAP1 PUSH2 0x1777 JUMP JUMPDEST PUSH2 0x1489 JUMP JUMPDEST STOP JUMPDEST PUSH2 0x2EC PUSH2 0x15CA JUMP JUMPDEST PUSH1 0x40 MLOAD PUSH2 0x2F9 SWAP2 SWAP1 PUSH2 0x17BD JUMP JUMPDEST PUSH1 0x40 MLOAD DUP1 SWAP2 SUB SWAP1 RETURN JUMPDEST PUSH1 0x6 PUSH1 0x0 SWAP1 SLOAD SWAP1 PUSH2 0x100 EXP SWAP1 DIV PUSH1 0xFF AND DUP2 JUMP JUMPDEST PUSH1 0x60 PUSH1 0x0 PUSH1 0x2 DUP2 GT ISZERO PUSH2 0x32B JUMPI PUSH2 0x32A PUSH2 0x15D0 JUMP JUMPDEST JUMPDEST PUSH1 0x6 PUSH1 0x0 SWAP1 SLOAD SWAP1 PUSH2 0x100 EXP SWAP1 DIV PUSH1 0xFF AND PUSH1 0x2 DUP2 GT ISZERO PUSH2 0x34D JUMPI PUSH2 0x34C PUSH2 0x15D0 JUMP JUMPDEST JUMPDEST SUB PUSH2 0x38F JUMPI PUSH1 0x40 MLOAD DUP1 PUSH1 0x40 ADD PUSH1 0x40 MSTORE DUP1 PUSH1 0xA DUP2 MSTORE PUSH1 0x20 ADD PUSH32 0x6E6566696E616E74617400000000000000000000000000000000000000000000 DUP2 MSTORE POP SWAP1 POP PUSH2 0x440 JUMP JUMPDEST PUSH1 0x1 PUSH1 0x2 DUP2 GT ISZERO PUSH2 0x3A3 JUMPI PUSH2 0x3A2 PUSH2 0x15D0 JUMP JUMPDEST JUMPDEST PUSH1 0x6 PUSH1 0x0 SWAP1 SLOAD SWAP1 PUSH2 0x100 EXP SWAP1 DIV PUSH1 0xFF AND PUSH1 0x2 DUP2 GT ISZERO PUSH2 0x3C5 JUMPI PUSH2 0x3C4 PUSH2 0x15D0 JUMP JUMPDEST JUMPDEST SUB PUSH2 0x407 JUMPI PUSH1 0x40 MLOAD DUP1 PUSH1 0x40 ADD PUSH1 0x40 MSTORE DUP1 PUSH1 0xB DUP2 MSTORE PUSH1 0x20 ADD PUSH32 0x70726566696E616E746174000000000000000000000000000000000000000000 DUP2 MSTORE POP SWAP1 POP PUSH2 0x440 JUMP JUMPDEST PUSH1 0x40 MLOAD DUP1 PUSH1 0x40 ADD PUSH1 0x40 MSTORE DUP1 PUSH1 0x8 DUP2 MSTORE PUSH1 0x20 ADD PUSH32 0x66696E616E746174000000000000000000000000000000000000000000000000 DUP2 MSTORE POP SWAP1 POP JUMPDEST SWAP1 JUMP JUMPDEST PUSH1 0x0 PUSH1 0x7 PUSH1 0x0 DUP4 PUSH20 0xFFFFFFFFFFFFFFFFFFFFFFFFFFFFFFFFFFFFFFFF AND PUSH20 0xFFFFFFFFFFFFFFFFFFFFFFFFFFFFFFFFFFFFFFFF AND DUP2 MSTORE PUSH1 0x20 ADD SWAP1 DUP2 MSTORE PUSH1 0x20 ADD PUSH1 0x0 KECCAK256 SLOAD SWAP1 POP SWAP2 SWAP1 POP JUMP JUMPDEST PUSH1 0x0 DUP1 PUSH1 0x2 DUP2 GT ISZERO PUSH2 0x4A1 JUMPI PUSH2 0x4A0 PUSH2 0x15D0 JUMP JUMPDEST JUMPDEST PUSH1 0x6 PUSH1 0x0 SWAP1 SLOAD SWAP1 PUSH2 0x100 EXP SWAP1 DIV PUSH1 0xFF AND PUSH1 0x2 DUP2 GT ISZERO PUSH2 0x4C3 JUMPI PUSH2 0x4C2 PUSH2 0x15D0 JUMP JUMPDEST JUMPDEST EQ PUSH2 0x503 JUMPI PUSH1 0x40 MLOAD PUSH32 0x8C379A000000000000000000000000000000000000000000000000000000000 DUP2 MSTORE PUSH1 0x4 ADD PUSH2 0x4FA SWAP1 PUSH2 0x18A7 JUMP JUMPDEST PUSH1 0x40 MLOAD DUP1 SWAP2 SUB SWAP1 REVERT JUMPDEST PUSH1 0x0 DUP3 GT PUSH2 0x546 JUMPI PUSH1 0x40 MLOAD PUSH32 0x8C379A000000000000000000000000000000000000000000000000000000000 DUP2 MSTORE PUSH1 0x4 ADD PUSH2 0x53D SWAP1 PUSH2 0x1913 JUMP JUMPDEST PUSH1 0x40 MLOAD DUP1 SWAP2 SUB SWAP1 REVERT JUMPDEST DUP2 PUSH1 0x7 PUSH1 0x0 CALLER PUSH20 0xFFFFFFFFFFFFFFFFFFFFFFFFFFFFFFFFFFFFFFFF AND PUSH20 0xFFFFFFFFFFFFFFFFFFFFFFFFFFFFFFFFFFFFFFFF AND DUP2 MSTORE PUSH1 0x20 ADD SWAP1 DUP2 MSTORE PUSH1 0x20 ADD PUSH1 0x0 KECCAK256 SLOAD LT ISZERO PUSH2 0x5C8 JUMPI PUSH1 0x40 MLOAD PUSH32 0x8C379A000000000000000000000000000000000000000000000000000000000 DUP2 MSTORE PUSH1 0x4 ADD PUSH2 0x5BF SWAP1 PUSH2 0x197F JUMP JUMPDEST PUSH1 0x40 MLOAD DUP1 SWAP2 SUB SWAP1 REVERT JUMPDEST DUP2 PUSH1 0x7 PUSH1 0x0 CALLER PUSH20 0xFFFFFFFFFFFFFFFFFFFFFFFFFFFFFFFFFFFFFFFF AND PUSH20 0xFFFFFFFFFFFFFFFFFFFFFFFFFFFFFFFFFFFFFFFF AND DUP2 MSTORE PUSH1 0x20 ADD SWAP1 DUP2 MSTORE PUSH1 0x20 ADD PUSH1 0x0 KECCAK256 PUSH1 0x0 DUP3 DUP3 SLOAD PUSH2 0x617 SWAP2 SWAP1 PUSH2 0x19CE JUMP JUMPDEST SWAP3 POP POP DUP2 SWAP1 SSTORE POP DUP2 PUSH1 0x5 PUSH1 0x0 DUP3 DUP3 SLOAD PUSH2 0x630 SWAP2 SWAP1 PUSH2 0x19CE JUMP JUMPDEST SWAP3 POP POP DUP2 SWAP1 SSTORE POP PUSH1 0x0 PUSH1 0x1 PUSH1 0x0 SWAP1 SLOAD SWAP1 PUSH2 0x100 EXP SWAP1 DIV PUSH20 0xFFFFFFFFFFFFFFFFFFFFFFFFFFFFFFFFFFFFFFFF AND SWAP1 POP DUP1 PUSH20 0xFFFFFFFFFFFFFFFFFFFFFFFFFFFFFFFFFFFFFFFF AND PUSH4 0xA9059CBB CALLER DUP6 PUSH1 0x40 MLOAD DUP4 PUSH4 0xFFFFFFFF AND PUSH1 0xE0 SHL DUP2 MSTORE PUSH1 0x4 ADD PUSH2 0x699 SWAP3 SWAP2 SWAP1 PUSH2 0x1A02 JUMP JUMPDEST PUSH1 0x20 PUSH1 0x40 MLOAD DUP1 DUP4 SUB DUP2 PUSH1 0x0 DUP8 GAS CALL ISZERO DUP1 ISZERO PUSH2 0x6B8 JUMPI RETURNDATASIZE PUSH1 0x0 DUP1 RETURNDATACOPY RETURNDATASIZE PUSH1 0x0 REVERT JUMPDEST POP POP POP POP PUSH1 0x40 MLOAD RETURNDATASIZE PUSH1 0x1F NOT PUSH1 0x1F DUP3 ADD AND DUP3 ADD DUP1 PUSH1 0x40 MSTORE POP DUP2 ADD SWAP1 PUSH2 0x6DC SWAP2 SWAP1 PUSH2 0x1A63 JUMP JUMPDEST PUSH2 0x71B JUMPI PUSH1 0x40 MLOAD PUSH32 0x8C379A000000000000000000000000000000000000000000000000000000000 DUP2 MSTORE PUSH1 0x4 ADD PUSH2 0x712 SWAP1 PUSH2 0x1ADC JUMP JUMPDEST PUSH1 0x40 MLOAD DUP1 SWAP2 SUB SWAP1 REVERT JUMPDEST CALLER PUSH20 0xFFFFFFFFFFFFFFFFFFFFFFFFFFFFFFFFFFFFFFFF AND PUSH32 0xBC158BB64F05D6383AEA69BBB0B20C1BBF4B7A18F63359C5649B7C39E29D3884 DUP5 PUSH1 0x40 MLOAD PUSH2 0x761 SWAP2 SWAP1 PUSH2 0x17BD JUMP JUMPDEST PUSH1 0x40 MLOAD DUP1 SWAP2 SUB SWAP1 LOG2 POP POP POP JUMP JUMPDEST PUSH1 0x7 PUSH1 0x20 MSTORE DUP1 PUSH1 0x0 MSTORE PUSH1 0x40 PUSH1 0x0 KECCAK256 PUSH1 0x0 SWAP2 POP SWAP1 POP SLOAD DUP2 JUMP JUMPDEST PUSH1 0x3 PUSH1 0x0 SWAP1 SLOAD SWAP1 PUSH2 0x100 EXP SWAP1 DIV PUSH20 0xFFFFFFFFFFFFFFFFFFFFFFFFFFFFFFFFFFFFFFFF AND DUP2 JUMP JUMPDEST PUSH1 0x0 DUP1 SLOAD SWAP1 PUSH2 0x100 EXP SWAP1 DIV PUSH20 0xFFFFFFFFFFFFFFFFFFFFFFFFFFFFFFFFFFFFFFFF AND PUSH20 0xFFFFFFFFFFFFFFFFFFFFFFFFFFFFFFFFFFFFFFFF AND CALLER PUSH20 0xFFFFFFFFFFFFFFFFFFFFFFFFFFFFFFFFFFFFFFFF AND EQ PUSH2 0x83A JUMPI PUSH1 0x40 MLOAD PUSH32 0x8C379A000000000000000000000000000000000000000000000000000000000 DUP2 MSTORE PUSH1 0x4 ADD PUSH2 0x831 SWAP1 PUSH2 0x1B48 JUMP JUMPDEST PUSH1 0x40 MLOAD DUP1 SWAP2 SUB SWAP1 REVERT JUMPDEST PUSH1 0x2 DUP1 PUSH1 0x2 DUP2 GT ISZERO PUSH2 0x84F JUMPI PUSH2 0x84E PUSH2 0x15D0 JUMP JUMPDEST JUMPDEST PUSH1 0x6 PUSH1 0x0 SWAP1 SLOAD SWAP1 PUSH2 0x100 EXP SWAP1 DIV PUSH1 0xFF AND PUSH1 0x2 DUP2 GT ISZERO PUSH2 0x871 JUMPI PUSH2 0x870 PUSH2 0x15D0 JUMP JUMPDEST JUMPDEST EQ PUSH2 0x8B1 JUMPI PUSH1 0x40 MLOAD PUSH32 0x8C379A000000000000000000000000000000000000000000000000000000000 DUP2 MSTORE PUSH1 0x4 ADD PUSH2 0x8A8 SWAP1 PUSH2 0x18A7 JUMP JUMPDEST PUSH1 0x40 MLOAD DUP1 SWAP2 SUB SWAP1 REVERT JUMPDEST PUSH1 0x0 PUSH20 0xFFFFFFFFFFFFFFFFFFFFFFFFFFFFFFFFFFFFFFFF AND PUSH1 0x3 PUSH1 0x0 SWAP1 SLOAD SWAP1 PUSH2 0x100 EXP SWAP1 DIV PUSH20 0xFFFFFFFFFFFFFFFFFFFFFFFFFFFFFFFFFFFFFFFF AND PUSH20 0xFFFFFFFFFFFFFFFFFFFFFFFFFFFFFFFFFFFFFFFF AND SUB PUSH2 0x942 JUMPI PUSH1 0x40 MLOAD PUSH32 0x8C379A000000000000000000000000000000000000000000000000000000000 DUP2 MSTORE PUSH1 0x4 ADD PUSH2 0x939 SWAP1 PUSH2 0x1BB4 JUMP JUMPDEST PUSH1 0x40 MLOAD DUP1 SWAP2 SUB SWAP1 REVERT JUMPDEST PUSH1 0x0 PUSH1 0x1 PUSH1 0x0 SWAP1 SLOAD SWAP1 PUSH2 0x100 EXP SWAP1 DIV PUSH20 0xFFFFFFFFFFFFFFFFFFFFFFFFFFFFFFFFFFFFFFFF AND PUSH20 0xFFFFFFFFFFFFFFFFFFFFFFFFFFFFFFFFFFFFFFFF AND PUSH4 0x70A08231 ADDRESS PUSH1 0x40 MLOAD DUP3 PUSH4 0xFFFFFFFF AND PUSH1 0xE0 SHL DUP2 MSTORE PUSH1 0x4 ADD PUSH2 0x99F SWAP2 SWAP1 PUSH2 0x1840 JUMP JUMPDEST PUSH1 0x20 PUSH1 0x40 MLOAD DUP1 DUP4 SUB DUP2 DUP7 GAS STATICCALL ISZERO DUP1 ISZERO PUSH2 0x9BC JUMPI RETURNDATASIZE PUSH1 0x0 DUP1 RETURNDATACOPY RETURNDATASIZE PUSH1 0x0 REVERT JUMPDEST POP POP POP POP PUSH1 0x40 MLOAD RETURNDATASIZE PUSH1 0x1F NOT PUSH1 0x1F DUP3 ADD AND DUP3 ADD DUP1 PUSH1 0x40 MSTORE POP DUP2 ADD SWAP1 PUSH2 0x9E0 SWAP2 SWAP1 PUSH2 0x1BE9 JUMP JUMPDEST SWAP1 POP PUSH1 0x0 DUP2 GT PUSH2 0xA25 JUMPI PUSH1 0x40 MLOAD PUSH32 0x8C379A000000000000000000000000000000000000000000000000000000000 DUP2 MSTORE PUSH1 0x4 ADD PUSH2 0xA1C SWAP1 PUSH2 0x1C62 JUMP JUMPDEST PUSH1 0x40 MLOAD DUP1 SWAP2 SUB SWAP1 REVERT JUMPDEST PUSH1 0x0 PUSH1 0x1 PUSH1 0x0 SWAP1 SLOAD SWAP1 PUSH2 0x100 EXP SWAP1 DIV PUSH20 0xFFFFFFFFFFFFFFFFFFFFFFFFFFFFFFFFFFFFFFFF AND SWAP1 POP DUP1 PUSH20 0xFFFFFFFFFFFFFFFFFFFFFFFFFFFFFFFFFFFFFFFF AND PUSH4 0xA9059CBB PUSH1 0x3 PUSH1 0x0 SWAP1 SLOAD SWAP1 PUSH2 0x100 EXP SWAP1 DIV PUSH20 0xFFFFFFFFFFFFFFFFFFFFFFFFFFFFFFFFFFFFFFFF AND DUP5 PUSH1 0x40 MLOAD DUP4 PUSH4 0xFFFFFFFF AND PUSH1 0xE0 SHL DUP2 MSTORE PUSH1 0x4 ADD PUSH2 0xAA9 SWAP3 SWAP2 SWAP1 PUSH2 0x1A02 JUMP JUMPDEST PUSH1 0x20 PUSH1 0x40 MLOAD DUP1 DUP4 SUB DUP2 PUSH1 0x0 DUP8 GAS CALL ISZERO DUP1 ISZERO PUSH2 0xAC8 JUMPI RETURNDATASIZE PUSH1 0x0 DUP1 RETURNDATACOPY RETURNDATASIZE PUSH1 0x0 REVERT JUMPDEST POP POP POP POP PUSH1 0x40 MLOAD RETURNDATASIZE PUSH1 0x1F NOT PUSH1 0x1F DUP3 ADD AND DUP3 ADD DUP1 PUSH1 0x40 MSTORE POP DUP2 ADD SWAP1 PUSH2 0xAEC SWAP2 SWAP1 PUSH2 0x1A63 JUMP JUMPDEST PUSH2 0xB2B JUMPI PUSH1 0x40 MLOAD PUSH32 0x8C379A000000000000000000000000000000000000000000000000000000000 DUP2 MSTORE PUSH1 0x4 ADD PUSH2 0xB22 SWAP1 PUSH2 0x1ADC JUMP JUMPDEST PUSH1 0x40 MLOAD DUP1 SWAP2 SUB SWAP1 REVERT JUMPDEST POP POP POP JUMP JUMPDEST PUSH1 0x2 PUSH1 0x0 SWAP1 SLOAD SWAP1 PUSH2 0x100 EXP SWAP1 DIV PUSH20 0xFFFFFFFFFFFFFFFFFFFFFFFFFFFFFFFFFFFFFFFF AND DUP2 JUMP JUMPDEST PUSH1 0x4 SLOAD DUP2 JUMP JUMPDEST PUSH1 0x0 DUP1 SLOAD SWAP1 PUSH2 0x100 EXP SWAP1 DIV PUSH20 0xFFFFFFFFFFFFFFFFFFFFFFFFFFFFFFFFFFFFFFFF AND DUP2 JUMP JUMPDEST PUSH1 0x1 PUSH1 0x0 SWAP1 SLOAD SWAP1 PUSH2 0x100 EXP SWAP1 DIV PUSH20 0xFFFFFFFFFFFFFFFFFFFFFFFFFFFFFFFFFFFFFFFF AND DUP2 JUMP JUMPDEST PUSH1 0x0 DUP1 SLOAD SWAP1 PUSH2 0x100 EXP SWAP1 DIV PUSH20 0xFFFFFFFFFFFFFFFFFFFFFFFFFFFFFFFFFFFFFFFF AND PUSH20 0xFFFFFFFFFFFFFFFFFFFFFFFFFFFFFFFFFFFFFFFF AND CALLER PUSH20 0xFFFFFFFFFFFFFFFFFFFFFFFFFFFFFFFFFFFFFFFF AND EQ PUSH2 0xC34 JUMPI PUSH1 0x40 MLOAD PUSH32 0x8C379A000000000000000000000000000000000000000000000000000000000 DUP2 MSTORE PUSH1 0x4 ADD PUSH2 0xC2B SWAP1 PUSH2 0x1B48 JUMP JUMPDEST PUSH1 0x40 MLOAD DUP1 SWAP2 SUB SWAP1 REVERT JUMPDEST PUSH1 0x0 PUSH20 0xFFFFFFFFFFFFFFFFFFFFFFFFFFFFFFFFFFFFFFFF AND DUP2 PUSH20 0xFFFFFFFFFFFFFFFFFFFFFFFFFFFFFFFFFFFFFFFF AND SUB PUSH2 0xCA3 JUMPI PUSH1 0x40 MLOAD PUSH32 0x8C379A000000000000000000000000000000000000000000000000000000000 DUP2 MSTORE PUSH1 0x4 ADD PUSH2 0xC9A SWAP1 PUSH2 0x1CCE JUMP JUMPDEST PUSH1 0x40 MLOAD DUP1 SWAP2 SUB SWAP1 REVERT JUMPDEST DUP1 PUSH1 0x3 PUSH1 0x0 PUSH2 0x100 EXP DUP2 SLOAD DUP2 PUSH20 0xFFFFFFFFFFFFFFFFFFFFFFFFFFFFFFFFFFFFFFFF MUL NOT AND SWAP1 DUP4 PUSH20 0xFFFFFFFFFFFFFFFFFFFFFFFFFFFFFFFFFFFFFFFF AND MUL OR SWAP1 SSTORE POP POP JUMP JUMPDEST PUSH1 0x0 DUP1 PUSH1 0x2 DUP2 GT ISZERO PUSH2 0xCFC JUMPI PUSH2 0xCFB PUSH2 0x15D0 JUMP JUMPDEST JUMPDEST PUSH1 0x6 PUSH1 0x0 SWAP1 SLOAD SWAP1 PUSH2 0x100 EXP SWAP1 DIV PUSH1 0xFF AND PUSH1 0x2 DUP2 GT ISZERO PUSH2 0xD1E JUMPI PUSH2 0xD1D PUSH2 0x15D0 JUMP JUMPDEST JUMPDEST EQ PUSH2 0xD5E JUMPI PUSH1 0x40 MLOAD PUSH32 0x8C379A000000000000000000000000000000000000000000000000000000000 DUP2 MSTORE PUSH1 0x4 ADD PUSH2 0xD55 SWAP1 PUSH2 0x18A7 JUMP JUMPDEST PUSH1 0x40 MLOAD DUP1 SWAP2 SUB SWAP1 REVERT JUMPDEST PUSH1 0x0 DUP3 GT PUSH2 0xDA1 JUMPI PUSH1 0x40 MLOAD PUSH32 0x8C379A000000000000000000000000000000000000000000000000000000000 DUP2 MSTORE PUSH1 0x4 ADD PUSH2 0xD98 SWAP1 PUSH2 0x1913 JUMP JUMPDEST PUSH1 0x40 MLOAD DUP1 SWAP2 SUB SWAP1 REVERT JUMPDEST PUSH1 0x4 SLOAD DUP3 PUSH1 0x5 SLOAD PUSH2 0xDB2 SWAP2 SWAP1 PUSH2 0x1CEE JUMP JUMPDEST GT ISZERO PUSH2 0xDF3 JUMPI PUSH1 0x40 MLOAD PUSH32 0x8C379A000000000000000000000000000000000000000000000000000000000 DUP2 MSTORE PUSH1 0x4 ADD PUSH2 0xDEA SWAP1 PUSH2 0x1D6E JUMP JUMPDEST PUSH1 0x40 MLOAD DUP1 SWAP2 SUB SWAP1 REVERT JUMPDEST PUSH1 0x0 PUSH1 0x1 PUSH1 0x0 SWAP1 SLOAD SWAP1 PUSH2 0x100 EXP SWAP1 DIV PUSH20 0xFFFFFFFFFFFFFFFFFFFFFFFFFFFFFFFFFFFFFFFF AND SWAP1 POP DUP1 PUSH20 0xFFFFFFFFFFFFFFFFFFFFFFFFFFFFFFFFFFFFFFFF AND PUSH4 0x23B872DD CALLER ADDRESS DUP7 PUSH1 0x40 MLOAD DUP5 PUSH4 0xFFFFFFFF AND PUSH1 0xE0 SHL DUP2 MSTORE PUSH1 0x4 ADD PUSH2 0xE57 SWAP4 SWAP3 SWAP2 SWAP1 PUSH2 0x1D8E JUMP JUMPDEST PUSH1 0x20 PUSH1 0x40 MLOAD DUP1 DUP4 SUB DUP2 PUSH1 0x0 DUP8 GAS CALL ISZERO DUP1 ISZERO PUSH2 0xE76 JUMPI RETURNDATASIZE PUSH1 0x0 DUP1 RETURNDATACOPY RETURNDATASIZE PUSH1 0x0 REVERT JUMPDEST POP POP POP POP PUSH1 0x40 MLOAD RETURNDATASIZE PUSH1 0x1F NOT PUSH1 0x1F DUP3 ADD AND DUP3 ADD DUP1 PUSH1 0x40 MSTORE POP DUP2 ADD SWAP1 PUSH2 0xE9A SWAP2 SWAP1 PUSH2 0x1A63 JUMP JUMPDEST PUSH2 0xED9 JUMPI PUSH1 0x40 MLOAD PUSH32 0x8C379A000000000000000000000000000000000000000000000000000000000 DUP2 MSTORE PUSH1 0x4 ADD PUSH2 0xED0 SWAP1 PUSH2 0x1ADC JUMP JUMPDEST PUSH1 0x40 MLOAD DUP1 SWAP2 SUB SWAP1 REVERT JUMPDEST DUP3 PUSH1 0x7 PUSH1 0x0 CALLER PUSH20 0xFFFFFFFFFFFFFFFFFFFFFFFFFFFFFFFFFFFFFFFF AND PUSH20 0xFFFFFFFFFFFFFFFFFFFFFFFFFFFFFFFFFFFFFFFF AND DUP2 MSTORE PUSH1 0x20 ADD SWAP1 DUP2 MSTORE PUSH1 0x20 ADD PUSH1 0x0 KECCAK256 PUSH1 0x0 DUP3 DUP3 SLOAD PUSH2 0xF28 SWAP2 SWAP1 PUSH2 0x1CEE JUMP JUMPDEST SWAP3 POP POP DUP2 SWAP1 SSTORE POP DUP3 PUSH1 0x5 PUSH1 0x0 DUP3 DUP3 SLOAD PUSH2 0xF41 SWAP2 SWAP1 PUSH2 0x1CEE JUMP JUMPDEST SWAP3 POP POP DUP2 SWAP1 SSTORE POP CALLER PUSH20 0xFFFFFFFFFFFFFFFFFFFFFFFFFFFFFFFFFFFFFFFF AND PUSH32 0x1BB460CCAAF70FBACFEC17A376F8ACBD278C1405590FFCC8EBE4B88DAF4F64AD DUP5 PUSH1 0x40 MLOAD PUSH2 0xF8E SWAP2 SWAP1 PUSH2 0x17BD JUMP JUMPDEST PUSH1 0x40 MLOAD DUP1 SWAP2 SUB SWAP1 LOG2 PUSH1 0x4 SLOAD PUSH1 0x5 SLOAD LT PUSH2 0x103E JUMPI PUSH1 0x1 PUSH1 0x6 PUSH1 0x0 PUSH2 0x100 EXP DUP2 SLOAD DUP2 PUSH1 0xFF MUL NOT AND SWAP1 DUP4 PUSH1 0x2 DUP2 GT ISZERO PUSH2 0xFC7 JUMPI PUSH2 0xFC6 PUSH2 0x15D0 JUMP JUMPDEST JUMPDEST MUL OR SWAP1 SSTORE POP PUSH32 0xFBFD8AB7C24300FA9888CD721C8565A7DA56759384781283684DCF7C7C4A846B PUSH1 0x5 SLOAD PUSH1 0x40 MLOAD PUSH2 0xFFD SWAP2 SWAP1 PUSH2 0x17BD JUMP JUMPDEST PUSH1 0x40 MLOAD DUP1 SWAP2 SUB SWAP1 LOG1 PUSH32 0x551DC40198CC79684BB69E4931DBA4AC16E4598792EE1C0A5000AEEA366D7BB6 PUSH1 0x1 PUSH1 0x40 MLOAD PUSH2 0x1035 SWAP2 SWAP1 PUSH2 0x1647 JUMP JUMPDEST PUSH1 0x40 MLOAD DUP1 SWAP2 SUB SWAP1 LOG1 JUMPDEST POP POP POP JUMP JUMPDEST PUSH1 0x0 DUP1 SLOAD SWAP1 PUSH2 0x100 EXP SWAP1 DIV PUSH20 0xFFFFFFFFFFFFFFFFFFFFFFFFFFFFFFFFFFFFFFFF AND PUSH20 0xFFFFFFFFFFFFFFFFFFFFFFFFFFFFFFFFFFFFFFFF AND CALLER PUSH20 0xFFFFFFFFFFFFFFFFFFFFFFFFFFFFFFFFFFFFFFFF AND EQ PUSH2 0x10D1 JUMPI PUSH1 0x40 MLOAD PUSH32 0x8C379A000000000000000000000000000000000000000000000000000000000 DUP2 MSTORE PUSH1 0x4 ADD PUSH2 0x10C8 SWAP1 PUSH2 0x1B48 JUMP JUMPDEST PUSH1 0x40 MLOAD DUP1 SWAP2 SUB SWAP1 REVERT JUMPDEST PUSH1 0x1 DUP1 PUSH1 0x2 DUP2 GT ISZERO PUSH2 0x10E6 JUMPI PUSH2 0x10E5 PUSH2 0x15D0 JUMP JUMPDEST JUMPDEST PUSH1 0x6 PUSH1 0x0 SWAP1 SLOAD SWAP1 PUSH2 0x100 EXP SWAP1 DIV PUSH1 0xFF AND PUSH1 0x2 DUP2 GT ISZERO PUSH2 0x1108 JUMPI PUSH2 0x1107 PUSH2 0x15D0 JUMP JUMPDEST JUMPDEST EQ PUSH2 0x1148 JUMPI PUSH1 0x40 MLOAD PUSH32 0x8C379A000000000000000000000000000000000000000000000000000000000 DUP2 MSTORE PUSH1 0x4 ADD PUSH2 0x113F SWAP1 PUSH2 0x18A7 JUMP JUMPDEST PUSH1 0x40 MLOAD DUP1 SWAP2 SUB SWAP1 REVERT JUMPDEST PUSH1 0x0 PUSH20 0xFFFFFFFFFFFFFFFFFFFFFFFFFFFFFFFFFFFFFFFF AND PUSH1 0x2 PUSH1 0x0 SWAP1 SLOAD SWAP1 PUSH2 0x100 EXP SWAP1 DIV PUSH20 0xFFFFFFFFFFFFFFFFFFFFFFFFFFFFFFFFFFFFFFFF AND PUSH20 0xFFFFFFFFFFFFFFFFFFFFFFFFFFFFFFFFFFFFFFFF AND SUB PUSH2 0x11D9 JUMPI PUSH1 0x40 MLOAD PUSH32 0x8C379A000000000000000000000000000000000000000000000000000000000 DUP2 MSTORE PUSH1 0x4 ADD PUSH2 0x11D0 SWAP1 PUSH2 0x1E11 JUMP JUMPDEST PUSH1 0x40 MLOAD DUP1 SWAP2 SUB SWAP1 REVERT JUMPDEST PUSH1 0x0 PUSH1 0x1 PUSH1 0x0 SWAP1 SLOAD SWAP1 PUSH2 0x100 EXP SWAP1 DIV PUSH20 0xFFFFFFFFFFFFFFFFFFFFFFFFFFFFFFFFFFFFFFFF AND PUSH20 0xFFFFFFFFFFFFFFFFFFFFFFFFFFFFFFFFFFFFFFFF AND PUSH4 0x70A08231 ADDRESS PUSH1 0x40 MLOAD DUP3 PUSH4 0xFFFFFFFF AND PUSH1 0xE0 SHL DUP2 MSTORE PUSH1 0x4 ADD PUSH2 0x1236 SWAP2 SWAP1 PUSH2 0x1840 JUMP JUMPDEST PUSH1 0x20 PUSH1 0x40 MLOAD DUP1 DUP4 SUB DUP2 DUP7 GAS STATICCALL ISZERO DUP1 ISZERO PUSH2 0x1253 JUMPI RETURNDATASIZE PUSH1 0x0 DUP1 RETURNDATACOPY RETURNDATASIZE PUSH1 0x0 REVERT JUMPDEST POP POP POP POP PUSH1 0x40 MLOAD RETURNDATASIZE PUSH1 0x1F NOT PUSH1 0x1F DUP3 ADD AND DUP3 ADD DUP1 PUSH1 0x40 MSTORE POP DUP2 ADD SWAP1 PUSH2 0x1277 SWAP2 SWAP1 PUSH2 0x1BE9 JUMP JUMPDEST SWAP1 POP PUSH1 0x2 PUSH1 0x0 SWAP1 SLOAD SWAP1 PUSH2 0x100 EXP SWAP1 DIV PUSH20 0xFFFFFFFFFFFFFFFFFFFFFFFFFFFFFFFFFFFFFFFF AND PUSH20 0xFFFFFFFFFFFFFFFFFFFFFFFFFFFFFFFFFFFFFFFF AND PUSH4 0xC5D9B404 ADDRESS PUSH1 0x40 MLOAD DUP3 PUSH4 0xFFFFFFFF AND PUSH1 0xE0 SHL DUP2 MSTORE PUSH1 0x4 ADD PUSH2 0x12D4 SWAP2 SWAP1 PUSH2 0x1840 JUMP JUMPDEST PUSH1 0x0 PUSH1 0x40 MLOAD DUP1 DUP4 SUB DUP2 PUSH1 0x0 DUP8 DUP1 EXTCODESIZE ISZERO DUP1 ISZERO PUSH2 0x12EE JUMPI PUSH1 0x0 DUP1 REVERT JUMPDEST POP GAS CALL ISZERO DUP1 ISZERO PUSH2 0x1302 JUMPI RETURNDATASIZE PUSH1 0x0 DUP1 RETURNDATACOPY RETURNDATASIZE PUSH1 0x0 REVERT JUMPDEST POP POP POP POP PUSH1 0x0 PUSH1 0x1 PUSH1 0x0 SWAP1 SLOAD SWAP1 PUSH2 0x100 EXP SWAP1 DIV PUSH20 0xFFFFFFFFFFFFFFFFFFFFFFFFFFFFFFFFFFFFFFFF AND PUSH20 0xFFFFFFFFFFFFFFFFFFFFFFFFFFFFFFFFFFFFFFFF AND PUSH4 0x70A08231 ADDRESS PUSH1 0x40 MLOAD DUP3 PUSH4 0xFFFFFFFF AND PUSH1 0xE0 SHL DUP2 MSTORE PUSH1 0x4 ADD PUSH2 0x1363 SWAP2 SWAP1 PUSH2 0x1840 JUMP JUMPDEST PUSH1 0x20 PUSH1 0x40 MLOAD DUP1 DUP4 SUB DUP2 DUP7 GAS STATICCALL ISZERO DUP1 ISZERO PUSH2 0x1380 JUMPI RETURNDATASIZE PUSH1 0x0 DUP1 RETURNDATACOPY RETURNDATASIZE PUSH1 0x0 REVERT JUMPDEST POP POP POP POP PUSH1 0x40 MLOAD RETURNDATASIZE PUSH1 0x1F NOT PUSH1 0x1F DUP3 ADD AND DUP3 ADD DUP1 PUSH1 0x40 MSTORE POP DUP2 ADD SWAP1 PUSH2 0x13A4 SWAP2 SWAP1 PUSH2 0x1BE9 JUMP JUMPDEST SWAP1 POP PUSH1 0x0 DUP3 DUP3 PUSH2 0x13B4 SWAP2 SWAP1 PUSH2 0x19CE JUMP JUMPDEST SWAP1 POP DUP2 PUSH1 0x5 DUP2 SWAP1 SSTORE POP PUSH1 0x2 PUSH1 0x6 PUSH1 0x0 PUSH2 0x100 EXP DUP2 SLOAD DUP2 PUSH1 0xFF MUL NOT AND SWAP1 DUP4 PUSH1 0x2 DUP2 GT ISZERO PUSH2 0x13E3 JUMPI PUSH2 0x13E2 PUSH2 0x15D0 JUMP JUMPDEST JUMPDEST MUL OR SWAP1 SSTORE POP PUSH32 0xE39FFE3225753008B3E2BE16D5450BD66FAE7DD9BF04CCCDC2F2218A74F24210 DUP2 PUSH1 0x40 MLOAD PUSH2 0x1417 SWAP2 SWAP1 PUSH2 0x17BD JUMP JUMPDEST PUSH1 0x40 MLOAD DUP1 SWAP2 SUB SWAP1 LOG1 PUSH32 0x551DC40198CC79684BB69E4931DBA4AC16E4598792EE1C0A5000AEEA366D7BB6 PUSH1 0x2 PUSH1 0x40 MLOAD PUSH2 0x144F SWAP2 SWAP1 PUSH2 0x1647 JUMP JUMPDEST PUSH1 0x40 MLOAD DUP1 SWAP2 SUB SWAP1 LOG1 POP POP POP POP JUMP JUMPDEST PUSH1 0x0 PUSH1 0x4 SLOAD PUSH1 0x5 SLOAD LT PUSH2 0x1473 JUMPI PUSH1 0x0 SWAP1 POP PUSH2 0x1486 JUMP JUMPDEST PUSH1 0x5 SLOAD PUSH1 0x4 SLOAD PUSH2 0x1483 SWAP2 SWAP1 PUSH2 0x19CE JUMP JUMPDEST SWAP1 POP JUMPDEST SWAP1 JUMP JUMPDEST PUSH1 0x0 DUP1 SLOAD SWAP1 PUSH2 0x100 EXP SWAP1 DIV PUSH20 0xFFFFFFFFFFFFFFFFFFFFFFFFFFFFFFFFFFFFFFFF AND PUSH20 0xFFFFFFFFFFFFFFFFFFFFFFFFFFFFFFFFFFFFFFFF AND CALLER PUSH20 0xFFFFFFFFFFFFFFFFFFFFFFFFFFFFFFFFFFFFFFFF AND EQ PUSH2 0x1517 JUMPI PUSH1 0x40 MLOAD PUSH32 0x8C379A000000000000000000000000000000000000000000000000000000000 DUP2 MSTORE PUSH1 0x4 ADD PUSH2 0x150E SWAP1 PUSH2 0x1B48 JUMP JUMPDEST PUSH1 0x40 MLOAD DUP1 SWAP2 SUB SWAP1 REVERT JUMPDEST PUSH1 0x0 PUSH20 0xFFFFFFFFFFFFFFFFFFFFFFFFFFFFFFFFFFFFFFFF AND DUP2 PUSH20 0xFFFFFFFFFFFFFFFFFFFFFFFFFFFFFFFFFFFFFFFF AND SUB PUSH2 0x1586 JUMPI PUSH1 0x40 MLOAD PUSH32 0x8C379A000000000000000000000000000000000000000000000000000000000 DUP2 MSTORE PUSH1 0x4 ADD PUSH2 0x157D SWAP1 PUSH2 0x1CCE JUMP JUMPDEST PUSH1 0x40 MLOAD DUP1 SWAP2 SUB SWAP1 REVERT JUMPDEST DUP1 PUSH1 0x2 PUSH1 0x0 PUSH2 0x100 EXP DUP2 SLOAD DUP2 PUSH20 0xFFFFFFFFFFFFFFFFFFFFFFFFFFFFFFFFFFFFFFFF MUL NOT AND SWAP1 DUP4 PUSH20 0xFFFFFFFFFFFFFFFFFFFFFFFFFFFFFFFFFFFFFFFF AND MUL OR SWAP1 SSTORE POP POP JUMP JUMPDEST PUSH1 0x5 SLOAD DUP2 JUMP JUMPDEST PUSH32 0x4E487B7100000000000000000000000000000000000000000000000000000000 PUSH1 0x0 MSTORE PUSH1 0x21 PUSH1 0x4 MSTORE PUSH1 0x24 PUSH1 0x0 REVERT JUMPDEST PUSH1 0x3 DUP2 LT PUSH2 0x1610 JUMPI PUSH2 0x160F PUSH2 0x15D0 JUMP JUMPDEST JUMPDEST POP JUMP JUMPDEST PUSH1 0x0 DUP2 SWAP1 POP PUSH2 0x1621 DUP3 PUSH2 0x15FF JUMP JUMPDEST SWAP2 SWAP1 POP JUMP JUMPDEST PUSH1 0x0 PUSH2 0x1631 DUP3 PUSH2 0x1613 JUMP JUMPDEST SWAP1 POP SWAP2 SWAP1 POP JUMP JUMPDEST PUSH2 0x1641 DUP2 PUSH2 0x1626 JUMP JUMPDEST DUP3 MSTORE POP POP JUMP JUMPDEST PUSH1 0x0 PUSH1 0x20 DUP3 ADD SWAP1 POP PUSH2 0x165C PUSH1 0x0 DUP4 ADD DUP5 PUSH2 0x1638 JUMP JUMPDEST SWAP3 SWAP2 POP POP JUMP JUMPDEST PUSH1 0x0 DUP2 MLOAD SWAP1 POP SWAP2 SWAP1 POP JUMP JUMPDEST PUSH1 0x0 DUP3 DUP3 MSTORE PUSH1 0x20 DUP3 ADD SWAP1 POP SWAP3 SWAP2 POP POP JUMP JUMPDEST PUSH1 0x0 JUMPDEST DUP4 DUP2 LT ISZERO PUSH2 0x169C JUMPI DUP1 DUP3 ADD MLOAD DUP2 DUP5 ADD MSTORE PUSH1 0x20 DUP2 ADD SWAP1 POP PUSH2 0x1681 JUMP JUMPDEST PUSH1 0x0 DUP5 DUP5 ADD MSTORE POP POP POP POP JUMP JUMPDEST PUSH1 0x0 PUSH1 0x1F NOT PUSH1 0x1F DUP4 ADD AND SWAP1 POP SWAP2 SWAP1 POP JUMP JUMPDEST PUSH1 0x0 PUSH2 0x16C4 DUP3 PUSH2 0x1662 JUMP JUMPDEST PUSH2 0x16CE DUP2 DUP6 PUSH2 0x166D JUMP JUMPDEST SWAP4 POP PUSH2 0x16DE DUP2 DUP6 PUSH1 0x20 DUP7 ADD PUSH2 0x167E JUMP JUMPDEST PUSH2 0x16E7 DUP2 PUSH2 0x16A8 JUMP JUMPDEST DUP5 ADD SWAP2 POP POP SWAP3 SWAP2 POP POP JUMP JUMPDEST PUSH1 0x0 PUSH1 0x20 DUP3 ADD SWAP1 POP DUP2 DUP2 SUB PUSH1 0x0 DUP4 ADD MSTORE PUSH2 0x170C DUP2 DUP5 PUSH2 0x16B9 JUMP JUMPDEST SWAP1 POP SWAP3 SWAP2 POP POP JUMP JUMPDEST PUSH1 0x0 DUP1 REVERT JUMPDEST PUSH1 0x0 PUSH20 0xFFFFFFFFFFFFFFFFFFFFFFFFFFFFFFFFFFFFFFFF DUP3 AND SWAP1 POP SWAP2 SWAP1 POP JUMP JUMPDEST PUSH1 0x0 PUSH2 0x1744 DUP3 PUSH2 0x1719 JUMP JUMPDEST SWAP1 POP SWAP2 SWAP1 POP JUMP JUMPDEST PUSH2 0x1754 DUP2 PUSH2 0x1739 JUMP JUMPDEST DUP2 EQ PUSH2 0x175F JUMPI PUSH1 0x0 DUP1 REVERT JUMPDEST POP JUMP JUMPDEST PUSH1 0x0 DUP2 CALLDATALOAD SWAP1 POP PUSH2 0x1771 DUP2 PUSH2 0x174B JUMP JUMPDEST SWAP3 SWAP2 POP POP JUMP JUMPDEST PUSH1 0x0 PUSH1 0x20 DUP3 DUP5 SUB SLT ISZERO PUSH2 0x178D JUMPI PUSH2 0x178C PUSH2 0x1714 JUMP JUMPDEST JUMPDEST PUSH1 0x0 PUSH2 0x179B DUP5 DUP3 DUP6 ADD PUSH2 0x1762 JUMP JUMPDEST SWAP2 POP POP SWAP3 SWAP2 POP POP JUMP JUMPDEST PUSH1 0x0 DUP2 SWAP1 POP SWAP2 SWAP1 POP JUMP JUMPDEST PUSH2 0x17B7 DUP2 PUSH2 0x17A4 JUMP JUMPDEST DUP3 MSTORE POP POP JUMP JUMPDEST PUSH1 0x0 PUSH1 0x20 DUP3 ADD SWAP1 POP PUSH2 0x17D2 PUSH1 0x0 DUP4 ADD DUP5 PUSH2 0x17AE JUMP JUMPDEST SWAP3 SWAP2 POP POP JUMP JUMPDEST PUSH2 0x17E1 DUP2 PUSH2 0x17A4 JUMP JUMPDEST DUP2 EQ PUSH2 0x17EC JUMPI PUSH1 0x0 DUP1 REVERT JUMPDEST POP JUMP JUMPDEST PUSH1 0x0 DUP2 CALLDATALOAD SWAP1 POP PUSH2 0x17FE DUP2 PUSH2 0x17D8 JUMP JUMPDEST SWAP3 SWAP2 POP POP JUMP JUMPDEST PUSH1 0x0 PUSH1 0x20 DUP3 DUP5 SUB SLT ISZERO PUSH2 0x181A JUMPI PUSH2 0x1819 PUSH2 0x1714 JUMP JUMPDEST JUMPDEST PUSH1 0x0 PUSH2 0x1828 DUP5 DUP3 DUP6 ADD PUSH2 0x17EF JUMP JUMPDEST SWAP2 POP POP SWAP3 SWAP2 POP POP JUMP JUMPDEST PUSH2 0x183A DUP2 PUSH2 0x1739 JUMP JUMPDEST DUP3 MSTORE POP POP JUMP JUMPDEST PUSH1 0x0 PUSH1 0x20 DUP3 ADD SWAP1 POP PUSH2 0x1855 PUSH1 0x0 DUP4 ADD DUP5 PUSH2 0x1831 JUMP JUMPDEST SWAP3 SWAP2 POP POP JUMP JUMPDEST PUSH32 0x496E76616C696420737461746500000000000000000000000000000000000000 PUSH1 0x0 DUP3 ADD MSTORE POP JUMP JUMPDEST PUSH1 0x0 PUSH2 0x1891 PUSH1 0xD DUP4 PUSH2 0x166D JUMP JUMPDEST SWAP2 POP PUSH2 0x189C DUP3 PUSH2 0x185B JUMP JUMPDEST PUSH1 0x20 DUP3 ADD SWAP1 POP SWAP2 SWAP1 POP JUMP JUMPDEST PUSH1 0x0 PUSH1 0x20 DUP3 ADD SWAP1 POP DUP2 DUP2 SUB PUSH1 0x0 DUP4 ADD MSTORE PUSH2 0x18C0 DUP2 PUSH2 0x1884 JUMP JUMPDEST SWAP1 POP SWAP2 SWAP1 POP JUMP JUMPDEST PUSH32 0x416D6F756E74206D75737420626520706F736974697665000000000000000000 PUSH1 0x0 DUP3 ADD MSTORE POP JUMP JUMPDEST PUSH1 0x0 PUSH2 0x18FD PUSH1 0x17 DUP4 PUSH2 0x166D JUMP JUMPDEST SWAP2 POP PUSH2 0x1908 DUP3 PUSH2 0x18C7 JUMP JUMPDEST PUSH1 0x20 DUP3 ADD SWAP1 POP SWAP2 SWAP1 POP JUMP JUMPDEST PUSH1 0x0 PUSH1 0x20 DUP3 ADD SWAP1 POP DUP2 DUP2 SUB PUSH1 0x0 DUP4 ADD MSTORE PUSH2 0x192C DUP2 PUSH2 0x18F0 JUMP JUMPDEST SWAP1 POP SWAP2 SWAP1 POP JUMP JUMPDEST PUSH32 0x496E73756666696369656E7420636F6E747269627574696F6E00000000000000 PUSH1 0x0 DUP3 ADD MSTORE POP JUMP JUMPDEST PUSH1 0x0 PUSH2 0x1969 PUSH1 0x19 DUP4 PUSH2 0x166D JUMP JUMPDEST SWAP2 POP PUSH2 0x1974 DUP3 PUSH2 0x1933 JUMP JUMPDEST PUSH1 0x20 DUP3 ADD SWAP1 POP SWAP2 SWAP1 POP JUMP JUMPDEST PUSH1 0x0 PUSH1 0x20 DUP3 ADD SWAP1 POP DUP2 DUP2 SUB PUSH1 0x0 DUP4 ADD MSTORE PUSH2 0x1998 DUP2 PUSH2 0x195C JUMP JUMPDEST SWAP1 POP SWAP2 SWAP1 POP JUMP JUMPDEST PUSH32 0x4E487B7100000000000000000000000000000000000000000000000000000000 PUSH1 0x0 MSTORE PUSH1 0x11 PUSH1 0x4 MSTORE PUSH1 0x24 PUSH1 0x0 REVERT JUMPDEST PUSH1 0x0 PUSH2 0x19D9 DUP3 PUSH2 0x17A4 JUMP JUMPDEST SWAP2 POP PUSH2 0x19E4 DUP4 PUSH2 0x17A4 JUMP JUMPDEST SWAP3 POP DUP3 DUP3 SUB SWAP1 POP DUP2 DUP2 GT ISZERO PUSH2 0x19FC JUMPI PUSH2 0x19FB PUSH2 0x199F JUMP JUMPDEST JUMPDEST SWAP3 SWAP2 POP POP JUMP JUMPDEST PUSH1 0x0 PUSH1 0x40 DUP3 ADD SWAP1 POP PUSH2 0x1A17 PUSH1 0x0 DUP4 ADD DUP6 PUSH2 0x1831 JUMP JUMPDEST PUSH2 0x1A24 PUSH1 0x20 DUP4 ADD DUP5 PUSH2 0x17AE JUMP JUMPDEST SWAP4 SWAP3 POP POP POP JUMP JUMPDEST PUSH1 0x0 DUP2 ISZERO ISZERO SWAP1 POP SWAP2 SWAP1 POP JUMP JUMPDEST PUSH2 0x1A40 DUP2 PUSH2 0x1A2B JUMP JUMPDEST DUP2 EQ PUSH2 0x1A4B JUMPI PUSH1 0x0 DUP1 REVERT JUMPDEST POP JUMP JUMPDEST PUSH1 0x0 DUP2 MLOAD SWAP1 POP PUSH2 0x1A5D DUP2 PUSH2 0x1A37 JUMP JUMPDEST SWAP3 SWAP2 POP POP JUMP JUMPDEST PUSH1 0x0 PUSH1 0x20 DUP3 DUP5 SUB SLT ISZERO PUSH2 0x1A79 JUMPI PUSH2 0x1A78 PUSH2 0x1714 JUMP JUMPDEST JUMPDEST PUSH1 0x0 PUSH2 0x1A87 DUP5 DUP3 DUP6 ADD PUSH2 0x1A4E JUMP JUMPDEST SWAP2 POP POP SWAP3 SWAP2 POP POP JUMP JUMPDEST PUSH32 0x5472616E73666572206661696C65640000000000000000000000000000000000 PUSH1 0x0 DUP3 ADD MSTORE POP JUMP JUMPDEST PUSH1 0x0 PUSH2 0x1AC6 PUSH1 0xF DUP4 PUSH2 0x166D JUMP JUMPDEST SWAP2 POP PUSH2 0x1AD1 DUP3 PUSH2 0x1A90 JUMP JUMPDEST PUSH1 0x20 DUP3 ADD SWAP1 POP SWAP2 SWAP1 POP JUMP JUMPDEST PUSH1 0x0 PUSH1 0x20 DUP3 ADD SWAP1 POP DUP2 DUP2 SUB PUSH1 0x0 DUP4 ADD MSTORE PUSH2 0x1AF5 DUP2 PUSH2 0x1AB9 JUMP JUMPDEST SWAP1 POP SWAP2 SWAP1 POP JUMP JUMPDEST PUSH32 0x4F6E6C79206F776E657200000000000000000000000000000000000000000000 PUSH1 0x0 DUP3 ADD MSTORE POP JUMP JUMPDEST PUSH1 0x0 PUSH2 0x1B32 PUSH1 0xA DUP4 PUSH2 0x166D JUMP JUMPDEST SWAP2 POP PUSH2 0x1B3D DUP3 PUSH2 0x1AFC JUMP JUMPDEST PUSH1 0x20 DUP3 ADD SWAP1 POP SWAP2 SWAP1 POP JUMP JUMPDEST PUSH1 0x0 PUSH1 0x20 DUP3 ADD SWAP1 POP DUP2 DUP2 SUB PUSH1 0x0 DUP4 ADD MSTORE PUSH2 0x1B61 DUP2 PUSH2 0x1B25 JUMP JUMPDEST SWAP1 POP SWAP2 SWAP1 POP JUMP JUMPDEST PUSH32 0x44697374726962757465206E6F74207365740000000000000000000000000000 PUSH1 0x0 DUP3 ADD MSTORE POP JUMP JUMPDEST PUSH1 0x0 PUSH2 0x1B9E PUSH1 0x12 DUP4 PUSH2 0x166D JUMP JUMPDEST SWAP2 POP PUSH2 0x1BA9 DUP3 PUSH2 0x1B68 JUMP JUMPDEST PUSH1 0x20 DUP3 ADD SWAP1 POP SWAP2 SWAP1 POP JUMP JUMPDEST PUSH1 0x0 PUSH1 0x20 DUP3 ADD SWAP1 POP DUP2 DUP2 SUB PUSH1 0x0 DUP4 ADD MSTORE PUSH2 0x1BCD DUP2 PUSH2 0x1B91 JUMP JUMPDEST SWAP1 POP SWAP2 SWAP1 POP JUMP JUMPDEST PUSH1 0x0 DUP2 MLOAD SWAP1 POP PUSH2 0x1BE3 DUP2 PUSH2 0x17D8 JUMP JUMPDEST SWAP3 SWAP2 POP POP JUMP JUMPDEST PUSH1 0x0 PUSH1 0x20 DUP3 DUP5 SUB SLT ISZERO PUSH2 0x1BFF JUMPI PUSH2 0x1BFE PUSH2 0x1714 JUMP JUMPDEST JUMPDEST PUSH1 0x0 PUSH2 0x1C0D DUP5 DUP3 DUP6 ADD PUSH2 0x1BD4 JUMP JUMPDEST SWAP2 POP POP SWAP3 SWAP2 POP POP JUMP JUMPDEST PUSH32 0x4E6F2066756E6473000000000000000000000000000000000000000000000000 PUSH1 0x0 DUP3 ADD MSTORE POP JUMP JUMPDEST PUSH1 0x0 PUSH2 0x1C4C PUSH1 0x8 DUP4 PUSH2 0x166D JUMP JUMPDEST SWAP2 POP PUSH2 0x1C57 DUP3 PUSH2 0x1C16 JUMP JUMPDEST PUSH1 0x20 DUP3 ADD SWAP1 POP SWAP2 SWAP1 POP JUMP JUMPDEST PUSH1 0x0 PUSH1 0x20 DUP3 ADD SWAP1 POP DUP2 DUP2 SUB PUSH1 0x0 DUP4 ADD MSTORE PUSH2 0x1C7B DUP2 PUSH2 0x1C3F JUMP JUMPDEST SWAP1 POP SWAP2 SWAP1 POP JUMP JUMPDEST PUSH32 0x496E76616C696420616464726573730000000000000000000000000000000000 PUSH1 0x0 DUP3 ADD MSTORE POP JUMP JUMPDEST PUSH1 0x0 PUSH2 0x1CB8 PUSH1 0xF DUP4 PUSH2 0x166D JUMP JUMPDEST SWAP2 POP PUSH2 0x1CC3 DUP3 PUSH2 0x1C82 JUMP JUMPDEST PUSH1 0x20 DUP3 ADD SWAP1 POP SWAP2 SWAP1 POP JUMP JUMPDEST PUSH1 0x0 PUSH1 0x20 DUP3 ADD SWAP1 POP DUP2 DUP2 SUB PUSH1 0x0 DUP4 ADD MSTORE PUSH2 0x1CE7 DUP2 PUSH2 0x1CAB JUMP JUMPDEST SWAP1 POP SWAP2 SWAP1 POP JUMP JUMPDEST PUSH1 0x0 PUSH2 0x1CF9 DUP3 PUSH2 0x17A4 JUMP JUMPDEST SWAP2 POP PUSH2 0x1D04 DUP4 PUSH2 0x17A4 JUMP JUMPDEST SWAP3 POP DUP3 DUP3 ADD SWAP1 POP DUP1 DUP3 GT ISZERO PUSH2 0x1D1C JUMPI PUSH2 0x1D1B PUSH2 0x199F JUMP JUMPDEST JUMPDEST SWAP3 SWAP2 POP POP JUMP JUMPDEST PUSH32 0x4578636565647320676F616C0000000000000000000000000000000000000000 PUSH1 0x0 DUP3 ADD MSTORE POP JUMP JUMPDEST PUSH1 0x0 PUSH2 0x1D58 PUSH1 0xC DUP4 PUSH2 0x166D JUMP JUMPDEST SWAP2 POP PUSH2 0x1D63 DUP3 PUSH2 0x1D22 JUMP JUMPDEST PUSH1 0x20 DUP3 ADD SWAP1 POP SWAP2 SWAP1 POP JUMP JUMPDEST PUSH1 0x0 PUSH1 0x20 DUP3 ADD SWAP1 POP DUP2 DUP2 SUB PUSH1 0x0 DUP4 ADD MSTORE PUSH2 0x1D87 DUP2 PUSH2 0x1D4B JUMP JUMPDEST SWAP1 POP SWAP2 SWAP1 POP JUMP JUMPDEST PUSH1 0x0 PUSH1 0x60 DUP3 ADD SWAP1 POP PUSH2 0x1DA3 PUSH1 0x0 DUP4 ADD DUP7 PUSH2 0x1831 JUMP JUMPDEST PUSH2 0x1DB0 PUSH1 0x20 DUP4 ADD DUP6 PUSH2 0x1831 JUMP JUMPDEST PUSH2 0x1DBD PUSH1 0x40 DUP4 ADD DUP5 PUSH2 0x17AE JUMP JUMPDEST SWAP5 SWAP4 POP POP POP POP JUMP JUMPDEST PUSH32 0x53706F6E736F72206E6F74207365740000000000000000000000000000000000 PUSH1 0x0 DUP3 ADD MSTORE POP JUMP JUMPDEST PUSH1 0x0 PUSH2 0x1DFB PUSH1 0xF DUP4 PUSH2 0x166D JUMP JUMPDEST SWAP2 POP PUSH2 0x1E06 DUP3 PUSH2 0x1DC5 JUMP JUMPDEST PUSH1 0x20 DUP3 ADD SWAP1 POP SWAP2 SWAP1 POP JUMP JUMPDEST PUSH1 0x0 PUSH1 0x20 DUP3 ADD SWAP1 POP DUP2 DUP2 SUB PUSH1 0x0 DUP4 ADD MSTORE PUSH2 0x1E2A DUP2 PUSH2 0x1DEE JUMP JUMPDEST SWAP1 POP SWAP2 SWAP1 POP JUMP INVALID LOG2 PUSH5 0x6970667358 0x22 SLT KECCAK256 DUP15 SSTORE DUP6 0x4B 0xEF 0xC0 0x25 0xF6 0x28 TIMESTAMP EXTCODECOPY BLOBBASEFEE JUMPDEST 0xBD 0x4B LOG0 0xBC DUP6 0x2D PREVRANDAO 0xED SWAP5 PUSH0 BLOBBASEFEE 0xC7 0xC1 SUB LOG3 0xAA SWAP7 0x2F DUP16 PUSH5 0x736F6C6343 STOP ADDMOD 0x1E STOP CALLER "
				},
				"gasEstimates": {
					"creation": {
						"codeDepositCost": "1556600",
						"executionCost": "infinite",
						"totalCost": "infinite"
					},
					"external": {
						"contribute(uint256)": "infinite",
						"contributions(address)": "2837",
						"currentAmount()": "2539",
						"currentState()": "2584",
						"distributeAddress()": "2559",
						"finalizeAndTransfer()": "infinite",
						"fundingGoal()": "2452",
						"getContribution(address)": "2909",
						"getRemainingAmount()": "infinite",
						"getState()": "infinite",
						"owner()": "2556",
						"requestSponsorship()": "infinite",
						"setDistributeAddress(address)": "27013",
						"setSponsorAddress(address)": "27012",
						"sponsorAddress()": "2603",
						"tokenAddress()": "2581",
						"withdraw(uint256)": "infinite"
					}
				},
				"methodIdentifiers": {
					"contribute(uint256)": "c1cbbca7",
					"contributions(address)": "42e94c90",
					"currentAmount()": "f441b1c8",
					"currentState()": "0c3f6acf",
					"distributeAddress()": "511569a6",
					"finalizeAndTransfer()": "5f23c4c6",
					"fundingGoal()": "7a3a0e84",
					"getContribution(address)": "21eff7fc",
					"getRemainingAmount()": "dabaae11",
					"getState()": "1865c57d",
					"owner()": "8da5cb5b",
					"requestSponsorship()": "d69f84fd",
					"setDistributeAddress(address)": "b90a52c6",
					"setSponsorAddress(address)": "dd682c3c",
					"sponsorAddress()": "6aeefe10",
					"tokenAddress()": "9d76ea58",
					"withdraw(uint256)": "2e1a7d4d"
				}
			},
			"storageLayout": {
				"storage": [
					{
						"astId": 37,
						"contract": "contracts/CrowdFunding.sol:CrowdFunding",
						"label": "owner",
						"offset": 0,
						"slot": "0",
						"type": "t_address"
					},
					{
						"astId": 39,
						"contract": "contracts/CrowdFunding.sol:CrowdFunding",
						"label": "tokenAddress",
						"offset": 0,
						"slot": "1",
						"type": "t_address"
					},
					{
						"astId": 41,
						"contract": "contracts/CrowdFunding.sol:CrowdFunding",
						"label": "sponsorAddress",
						"offset": 0,
						"slot": "2",
						"type": "t_address"
					},
					{
						"astId": 43,
						"contract": "contracts/CrowdFunding.sol:CrowdFunding",
						"label": "distributeAddress",
						"offset": 0,
						"slot": "3",
						"type": "t_address"
					},
					{
						"astId": 45,
						"contract": "contracts/CrowdFunding.sol:CrowdFunding",
						"label": "fundingGoal",
						"offset": 0,
						"slot": "4",
						"type": "t_uint256"
					},
					{
						"astId": 47,
						"contract": "contracts/CrowdFunding.sol:CrowdFunding",
						"label": "currentAmount",
						"offset": 0,
						"slot": "5",
						"type": "t_uint256"
					},
					{
						"astId": 54,
						"contract": "contracts/CrowdFunding.sol:CrowdFunding",
						"label": "currentState",
						"offset": 0,
						"slot": "6",
						"type": "t_enum(State)51"
					},
					{
						"astId": 58,
						"contract": "contracts/CrowdFunding.sol:CrowdFunding",
						"label": "contributions",
						"offset": 0,
						"slot": "7",
						"type": "t_mapping(t_address,t_uint256)"
					}
				],
				"types": {
					"t_address": {
						"encoding": "inplace",
						"label": "address",
						"numberOfBytes": "20"
					},
					"t_enum(State)51": {
						"encoding": "inplace",
						"label": "enum CrowdFunding.State",
						"numberOfBytes": "1"
					},
					"t_mapping(t_address,t_uint256)": {
						"encoding": "mapping",
						"key": "t_address",
						"label": "mapping(address => uint256)",
						"numberOfBytes": "32",
						"value": "t_uint256"
					},
					"t_uint256": {
						"encoding": "inplace",
						"label": "uint256",
						"numberOfBytes": "32"
					}
				}
			},
			"userdoc": {
				"kind": "user",
				"methods": {},
				"version": 1
			}
		}
	}
}