{
	"contracts/SponsorFunding.sol": {
		"SponsorFunding": {
			"abi": [
				{
					"inputs": [
						{
							"internalType": "address",
							"name": "_tokenAddress",
							"type": "address"
						},
						{
							"internalType": "uint256",
							"name": "_sponsorshipPercentage",
							"type": "uint256"
						}
					],
					"stateMutability": "nonpayable",
					"type": "constructor"
				},
				{
					"anonymous": false,
					"inputs": [
						{
							"indexed": true,
							"internalType": "address",
							"name": "to",
							"type": "address"
						},
						{
							"indexed": false,
							"internalType": "uint256",
							"name": "amount",
							"type": "uint256"
						}
					],
					"name": "ETHWithdrawn",
					"type": "event"
				},
				{
					"anonymous": false,
					"inputs": [
						{
							"indexed": true,
							"internalType": "address",
							"name": "crowdFunding",
							"type": "address"
						},
						{
							"indexed": false,
							"internalType": "uint256",
							"name": "required",
							"type": "uint256"
						},
						{
							"indexed": false,
							"internalType": "uint256",
							"name": "available",
							"type": "uint256"
						}
					],
					"name": "SponsorshipFailed",
					"type": "event"
				},
				{
					"anonymous": false,
					"inputs": [
						{
							"indexed": true,
							"internalType": "address",
							"name": "crowdFunding",
							"type": "address"
						},
						{
							"indexed": false,
							"internalType": "uint256",
							"name": "amount",
							"type": "uint256"
						}
					],
					"name": "SponsorshipProvided",
					"type": "event"
				},
				{
					"anonymous": false,
					"inputs": [
						{
							"indexed": false,
							"internalType": "uint256",
							"name": "amount",
							"type": "uint256"
						}
					],
					"name": "TokensPurchased",
					"type": "event"
				},
				{
					"anonymous": false,
					"inputs": [
						{
							"indexed": true,
							"internalType": "address",
							"name": "to",
							"type": "address"
						},
						{
							"indexed": false,
							"internalType": "uint256",
							"name": "amount",
							"type": "uint256"
						}
					],
					"name": "TokensWithdrawn",
					"type": "event"
				},
				{
					"inputs": [],
					"name": "buyTokensForSponsorship",
					"outputs": [
						{
							"internalType": "uint256",
							"name": "",
							"type": "uint256"
						}
					],
					"stateMutability": "payable",
					"type": "function"
				},
				{
					"inputs": [],
					"name": "getBalance",
					"outputs": [
						{
							"internalType": "uint256",
							"name": "",
							"type": "uint256"
						}
					],
					"stateMutability": "view",
					"type": "function"
				},
				{
					"inputs": [],
					"name": "owner",
					"outputs": [
						{
							"internalType": "address",
							"name": "",
							"type": "address"
						}
					],
					"stateMutability": "view",
					"type": "function"
				},
				{
					"inputs": [
						{
							"internalType": "address",
							"name": "crowdFundingAddress",
							"type": "address"
						}
					],
					"name": "provideSponsor",
					"outputs": [],
					"stateMutability": "nonpayable",
					"type": "function"
				},
				{
					"inputs": [],
					"name": "sponsorshipPercentage",
					"outputs": [
						{
							"internalType": "uint256",
							"name": "",
							"type": "uint256"
						}
					],
					"stateMutability": "view",
					"type": "function"
				},
				{
					"inputs": [],
					"name": "tokenAddress",
					"outputs": [
						{
							"internalType": "address",
							"name": "",
							"type": "address"
						}
					],
					"stateMutability": "view",
					"type": "function"
				},
				{
					"inputs": [],
					"name": "withdrawETH",
					"outputs": [],
					"stateMutability": "nonpayable",
					"type": "function"
				},
				{
					"inputs": [
						{
							"internalType": "uint256",
							"name": "_amount",
							"type": "uint256"
						}
					],
					"name": "withdrawTokens",
					"outputs": [],
					"stateMutability": "nonpayable",
					"type": "function"
				},
				{
					"stateMutability": "payable",
					"type": "receive"
				}
			],
			"devdoc": {
				"kind": "dev",
				"methods": {},
				"version": 1
			},
			"evm": {
				"assembly": "    /* \"contracts/SponsorFunding.sol\":334:3251  contract SponsorFunding {... */\n  mstore(0x40, 0x80)\n    /* \"contracts/SponsorFunding.sol\":931:1296  constructor(address _tokenAddress, uint256 _sponsorshipPercentage) {... */\n  callvalue\n  dup1\n  iszero\n  tag_1\n  jumpi\n  0x00\n  dup1\n  revert\ntag_1:\n  pop\n  mload(0x40)\n  sub(codesize, bytecodeSize)\n  dup1\n  bytecodeSize\n  dup4\n  codecopy\n  dup2\n  dup2\n  add\n  0x40\n  mstore\n  dup2\n  add\n  swap1\n  tag_2\n  swap2\n  swap1\n  tag_3\n  jump\t// in\ntag_2:\n    /* \"contracts/SponsorFunding.sol\":1042:1043  0 */\n  0x00\n    /* \"contracts/SponsorFunding.sol\":1017:1044  _tokenAddress != address(0) */\n  0xffffffffffffffffffffffffffffffffffffffff\n  and\n    /* \"contracts/SponsorFunding.sol\":1017:1030  _tokenAddress */\n  dup3\n    /* \"contracts/SponsorFunding.sol\":1017:1044  _tokenAddress != address(0) */\n  0xffffffffffffffffffffffffffffffffffffffff\n  and\n  sub\n    /* \"contracts/SponsorFunding.sol\":1009:1062  require(_tokenAddress != address(0), \"Invalid token\") */\n  tag_6\n  jumpi\n  mload(0x40)\n  0x08c379a000000000000000000000000000000000000000000000000000000000\n  dup2\n  mstore\n  0x04\n  add\n  tag_7\n  swap1\n  tag_8\n  jump\t// in\ntag_7:\n  mload(0x40)\n  dup1\n  swap2\n  sub\n  swap1\n  revert\ntag_6:\n    /* \"contracts/SponsorFunding.sol\":1106:1107  0 */\n  0x00\n    /* \"contracts/SponsorFunding.sol\":1081:1103  _sponsorshipPercentage */\n  dup2\n    /* \"contracts/SponsorFunding.sol\":1081:1107  _sponsorshipPercentage > 0 */\n  gt\n    /* \"contracts/SponsorFunding.sol\":1081:1140  _sponsorshipPercentage > 0 && _sponsorshipPercentage <= 100 */\n  dup1\n  iszero\n  tag_9\n  jumpi\n  pop\n    /* \"contracts/SponsorFunding.sol\":1137:1140  100 */\n  0x64\n    /* \"contracts/SponsorFunding.sol\":1111:1133  _sponsorshipPercentage */\n  dup2\n    /* \"contracts/SponsorFunding.sol\":1111:1140  _sponsorshipPercentage <= 100 */\n  gt\n  iszero\n    /* \"contracts/SponsorFunding.sol\":1081:1140  _sponsorshipPercentage > 0 && _sponsorshipPercentage <= 100 */\ntag_9:\n    /* \"contracts/SponsorFunding.sol\":1073:1163  require(_sponsorshipPercentage > 0 && _sponsorshipPercentage <= 100, \"Invalid percentage\") */\n  tag_10\n  jumpi\n  mload(0x40)\n  0x08c379a000000000000000000000000000000000000000000000000000000000\n  dup2\n  mstore\n  0x04\n  add\n  tag_11\n  swap1\n  tag_12\n  jump\t// in\ntag_11:\n  mload(0x40)\n  dup1\n  swap2\n  sub\n  swap1\n  revert\ntag_10:\n    /* \"contracts/SponsorFunding.sol\":1182:1192  msg.sender */\n  caller\n    /* \"contracts/SponsorFunding.sol\":1174:1179  owner */\n  0x00\n  dup1\n    /* \"contracts/SponsorFunding.sol\":1174:1192  owner = msg.sender */\n  0x0100\n  exp\n  dup2\n  sload\n  dup2\n  0xffffffffffffffffffffffffffffffffffffffff\n  mul\n  not\n  and\n  swap1\n  dup4\n  0xffffffffffffffffffffffffffffffffffffffff\n  and\n  mul\n  or\n  swap1\n  sstore\n  pop\n    /* \"contracts/SponsorFunding.sol\":1218:1231  _tokenAddress */\n  dup2\n    /* \"contracts/SponsorFunding.sol\":1203:1215  tokenAddress */\n  0x01\n  0x00\n    /* \"contracts/SponsorFunding.sol\":1203:1231  tokenAddress = _tokenAddress */\n  0x0100\n  exp\n  dup2\n  sload\n  dup2\n  0xffffffffffffffffffffffffffffffffffffffff\n  mul\n  not\n  and\n  swap1\n  dup4\n  0xffffffffffffffffffffffffffffffffffffffff\n  and\n  mul\n  or\n  swap1\n  sstore\n  pop\n    /* \"contracts/SponsorFunding.sol\":1266:1288  _sponsorshipPercentage */\n  dup1\n    /* \"contracts/SponsorFunding.sol\":1242:1263  sponsorshipPercentage */\n  0x02\n    /* \"contracts/SponsorFunding.sol\":1242:1288  sponsorshipPercentage = _sponsorshipPercentage */\n  dup2\n  swap1\n  sstore\n  pop\n    /* \"contracts/SponsorFunding.sol\":931:1296  constructor(address _tokenAddress, uint256 _sponsorshipPercentage) {... */\n  pop\n  pop\n    /* \"contracts/SponsorFunding.sol\":334:3251  contract SponsorFunding {... */\n  jump(tag_13)\n    /* \"#utility.yul\":88:205   */\ntag_15:\n    /* \"#utility.yul\":197:198   */\n  0x00\n    /* \"#utility.yul\":194:195   */\n  dup1\n    /* \"#utility.yul\":187:199   */\n  revert\n    /* \"#utility.yul\":334:460   */\ntag_17:\n    /* \"#utility.yul\":371:378   */\n  0x00\n    /* \"#utility.yul\":411:453   */\n  0xffffffffffffffffffffffffffffffffffffffff\n    /* \"#utility.yul\":404:409   */\n  dup3\n    /* \"#utility.yul\":400:454   */\n  and\n    /* \"#utility.yul\":389:454   */\n  swap1\n  pop\n    /* \"#utility.yul\":334:460   */\n  swap2\n  swap1\n  pop\n  jump\t// out\n    /* \"#utility.yul\":466:562   */\ntag_18:\n    /* \"#utility.yul\":503:510   */\n  0x00\n    /* \"#utility.yul\":532:556   */\n  tag_35\n    /* \"#utility.yul\":550:555   */\n  dup3\n    /* \"#utility.yul\":532:556   */\n  tag_17\n  jump\t// in\ntag_35:\n    /* \"#utility.yul\":521:556   */\n  swap1\n  pop\n    /* \"#utility.yul\":466:562   */\n  swap2\n  swap1\n  pop\n  jump\t// out\n    /* \"#utility.yul\":568:690   */\ntag_19:\n    /* \"#utility.yul\":641:665   */\n  tag_37\n    /* \"#utility.yul\":659:664   */\n  dup2\n    /* \"#utility.yul\":641:665   */\n  tag_18\n  jump\t// in\ntag_37:\n    /* \"#utility.yul\":634:639   */\n  dup2\n    /* \"#utility.yul\":631:666   */\n  eq\n    /* \"#utility.yul\":621:684   */\n  tag_38\n  jumpi\n    /* \"#utility.yul\":680:681   */\n  0x00\n    /* \"#utility.yul\":677:678   */\n  dup1\n    /* \"#utility.yul\":670:682   */\n  revert\n    /* \"#utility.yul\":621:684   */\ntag_38:\n    /* \"#utility.yul\":568:690   */\n  pop\n  jump\t// out\n    /* \"#utility.yul\":696:839   */\ntag_20:\n    /* \"#utility.yul\":753:758   */\n  0x00\n    /* \"#utility.yul\":784:790   */\n  dup2\n    /* \"#utility.yul\":778:791   */\n  mload\n    /* \"#utility.yul\":769:791   */\n  swap1\n  pop\n    /* \"#utility.yul\":800:833   */\n  tag_40\n    /* \"#utility.yul\":827:832   */\n  dup2\n    /* \"#utility.yul\":800:833   */\n  tag_19\n  jump\t// in\ntag_40:\n    /* \"#utility.yul\":696:839   */\n  swap3\n  swap2\n  pop\n  pop\n  jump\t// out\n    /* \"#utility.yul\":845:922   */\ntag_21:\n    /* \"#utility.yul\":882:889   */\n  0x00\n    /* \"#utility.yul\":911:916   */\n  dup2\n    /* \"#utility.yul\":900:916   */\n  swap1\n  pop\n    /* \"#utility.yul\":845:922   */\n  swap2\n  swap1\n  pop\n  jump\t// out\n    /* \"#utility.yul\":928:1050   */\ntag_22:\n    /* \"#utility.yul\":1001:1025   */\n  tag_43\n    /* \"#utility.yul\":1019:1024   */\n  dup2\n    /* \"#utility.yul\":1001:1025   */\n  tag_21\n  jump\t// in\ntag_43:\n    /* \"#utility.yul\":994:999   */\n  dup2\n    /* \"#utility.yul\":991:1026   */\n  eq\n    /* \"#utility.yul\":981:1044   */\n  tag_44\n  jumpi\n    /* \"#utility.yul\":1040:1041   */\n  0x00\n    /* \"#utility.yul\":1037:1038   */\n  dup1\n    /* \"#utility.yul\":1030:1042   */\n  revert\n    /* \"#utility.yul\":981:1044   */\ntag_44:\n    /* \"#utility.yul\":928:1050   */\n  pop\n  jump\t// out\n    /* \"#utility.yul\":1056:1199   */\ntag_23:\n    /* \"#utility.yul\":1113:1118   */\n  0x00\n    /* \"#utility.yul\":1144:1150   */\n  dup2\n    /* \"#utility.yul\":1138:1151   */\n  mload\n    /* \"#utility.yul\":1129:1151   */\n  swap1\n  pop\n    /* \"#utility.yul\":1160:1193   */\n  tag_46\n    /* \"#utility.yul\":1187:1192   */\n  dup2\n    /* \"#utility.yul\":1160:1193   */\n  tag_22\n  jump\t// in\ntag_46:\n    /* \"#utility.yul\":1056:1199   */\n  swap3\n  swap2\n  pop\n  pop\n  jump\t// out\n    /* \"#utility.yul\":1205:1712   */\ntag_3:\n    /* \"#utility.yul\":1284:1290   */\n  0x00\n    /* \"#utility.yul\":1292:1298   */\n  dup1\n    /* \"#utility.yul\":1341:1343   */\n  0x40\n    /* \"#utility.yul\":1329:1338   */\n  dup4\n    /* \"#utility.yul\":1320:1327   */\n  dup6\n    /* \"#utility.yul\":1316:1339   */\n  sub\n    /* \"#utility.yul\":1312:1344   */\n  slt\n    /* \"#utility.yul\":1309:1428   */\n  iszero\n  tag_48\n  jumpi\n    /* \"#utility.yul\":1347:1426   */\n  tag_49\n  tag_15\n  jump\t// in\ntag_49:\n    /* \"#utility.yul\":1309:1428   */\ntag_48:\n    /* \"#utility.yul\":1467:1468   */\n  0x00\n    /* \"#utility.yul\":1492:1556   */\n  tag_50\n    /* \"#utility.yul\":1548:1555   */\n  dup6\n    /* \"#utility.yul\":1539:1545   */\n  dup3\n    /* \"#utility.yul\":1528:1537   */\n  dup7\n    /* \"#utility.yul\":1524:1546   */\n  add\n    /* \"#utility.yul\":1492:1556   */\n  tag_20\n  jump\t// in\ntag_50:\n    /* \"#utility.yul\":1482:1556   */\n  swap3\n  pop\n    /* \"#utility.yul\":1438:1566   */\n  pop\n    /* \"#utility.yul\":1605:1607   */\n  0x20\n    /* \"#utility.yul\":1631:1695   */\n  tag_51\n    /* \"#utility.yul\":1687:1694   */\n  dup6\n    /* \"#utility.yul\":1678:1684   */\n  dup3\n    /* \"#utility.yul\":1667:1676   */\n  dup7\n    /* \"#utility.yul\":1663:1685   */\n  add\n    /* \"#utility.yul\":1631:1695   */\n  tag_23\n  jump\t// in\ntag_51:\n    /* \"#utility.yul\":1621:1695   */\n  swap2\n  pop\n    /* \"#utility.yul\":1576:1705   */\n  pop\n    /* \"#utility.yul\":1205:1712   */\n  swap3\n  pop\n  swap3\n  swap1\n  pop\n  jump\t// out\n    /* \"#utility.yul\":1718:1887   */\ntag_24:\n    /* \"#utility.yul\":1802:1813   */\n  0x00\n    /* \"#utility.yul\":1836:1842   */\n  dup3\n    /* \"#utility.yul\":1831:1834   */\n  dup3\n    /* \"#utility.yul\":1824:1843   */\n  mstore\n    /* \"#utility.yul\":1876:1880   */\n  0x20\n    /* \"#utility.yul\":1871:1874   */\n  dup3\n    /* \"#utility.yul\":1867:1881   */\n  add\n    /* \"#utility.yul\":1852:1881   */\n  swap1\n  pop\n    /* \"#utility.yul\":1718:1887   */\n  swap3\n  swap2\n  pop\n  pop\n  jump\t// out\n    /* \"#utility.yul\":1893:2056   */\ntag_25:\n    /* \"#utility.yul\":2033:2048   */\n  0x496e76616c696420746f6b656e00000000000000000000000000000000000000\n    /* \"#utility.yul\":2029:2030   */\n  0x00\n    /* \"#utility.yul\":2021:2027   */\n  dup3\n    /* \"#utility.yul\":2017:2031   */\n  add\n    /* \"#utility.yul\":2010:2049   */\n  mstore\n    /* \"#utility.yul\":1893:2056   */\n  pop\n  jump\t// out\n    /* \"#utility.yul\":2062:2428   */\ntag_26:\n    /* \"#utility.yul\":2204:2207   */\n  0x00\n    /* \"#utility.yul\":2225:2292   */\n  tag_55\n    /* \"#utility.yul\":2289:2291   */\n  0x0d\n    /* \"#utility.yul\":2284:2287   */\n  dup4\n    /* \"#utility.yul\":2225:2292   */\n  tag_24\n  jump\t// in\ntag_55:\n    /* \"#utility.yul\":2218:2292   */\n  swap2\n  pop\n    /* \"#utility.yul\":2301:2394   */\n  tag_56\n    /* \"#utility.yul\":2390:2393   */\n  dup3\n    /* \"#utility.yul\":2301:2394   */\n  tag_25\n  jump\t// in\ntag_56:\n    /* \"#utility.yul\":2419:2421   */\n  0x20\n    /* \"#utility.yul\":2414:2417   */\n  dup3\n    /* \"#utility.yul\":2410:2422   */\n  add\n    /* \"#utility.yul\":2403:2422   */\n  swap1\n  pop\n    /* \"#utility.yul\":2062:2428   */\n  swap2\n  swap1\n  pop\n  jump\t// out\n    /* \"#utility.yul\":2434:2853   */\ntag_8:\n    /* \"#utility.yul\":2600:2604   */\n  0x00\n    /* \"#utility.yul\":2638:2640   */\n  0x20\n    /* \"#utility.yul\":2627:2636   */\n  dup3\n    /* \"#utility.yul\":2623:2641   */\n  add\n    /* \"#utility.yul\":2615:2641   */\n  swap1\n  pop\n    /* \"#utility.yul\":2687:2696   */\n  dup2\n    /* \"#utility.yul\":2681:2685   */\n  dup2\n    /* \"#utility.yul\":2677:2697   */\n  sub\n    /* \"#utility.yul\":2673:2674   */\n  0x00\n    /* \"#utility.yul\":2662:2671   */\n  dup4\n    /* \"#utility.yul\":2658:2675   */\n  add\n    /* \"#utility.yul\":2651:2698   */\n  mstore\n    /* \"#utility.yul\":2715:2846   */\n  tag_58\n    /* \"#utility.yul\":2841:2845   */\n  dup2\n    /* \"#utility.yul\":2715:2846   */\n  tag_26\n  jump\t// in\ntag_58:\n    /* \"#utility.yul\":2707:2846   */\n  swap1\n  pop\n    /* \"#utility.yul\":2434:2853   */\n  swap2\n  swap1\n  pop\n  jump\t// out\n    /* \"#utility.yul\":2859:3027   */\ntag_27:\n    /* \"#utility.yul\":2999:3019   */\n  0x496e76616c69642070657263656e746167650000000000000000000000000000\n    /* \"#utility.yul\":2995:2996   */\n  0x00\n    /* \"#utility.yul\":2987:2993   */\n  dup3\n    /* \"#utility.yul\":2983:2997   */\n  add\n    /* \"#utility.yul\":2976:3020   */\n  mstore\n    /* \"#utility.yul\":2859:3027   */\n  pop\n  jump\t// out\n    /* \"#utility.yul\":3033:3399   */\ntag_28:\n    /* \"#utility.yul\":3175:3178   */\n  0x00\n    /* \"#utility.yul\":3196:3263   */\n  tag_61\n    /* \"#utility.yul\":3260:3262   */\n  0x12\n    /* \"#utility.yul\":3255:3258   */\n  dup4\n    /* \"#utility.yul\":3196:3263   */\n  tag_24\n  jump\t// in\ntag_61:\n    /* \"#utility.yul\":3189:3263   */\n  swap2\n  pop\n    /* \"#utility.yul\":3272:3365   */\n  tag_62\n    /* \"#utility.yul\":3361:3364   */\n  dup3\n    /* \"#utility.yul\":3272:3365   */\n  tag_27\n  jump\t// in\ntag_62:\n    /* \"#utility.yul\":3390:3392   */\n  0x20\n    /* \"#utility.yul\":3385:3388   */\n  dup3\n    /* \"#utility.yul\":3381:3393   */\n  add\n    /* \"#utility.yul\":3374:3393   */\n  swap1\n  pop\n    /* \"#utility.yul\":3033:3399   */\n  swap2\n  swap1\n  pop\n  jump\t// out\n    /* \"#utility.yul\":3405:3824   */\ntag_12:\n    /* \"#utility.yul\":3571:3575   */\n  0x00\n    /* \"#utility.yul\":3609:3611   */\n  0x20\n    /* \"#utility.yul\":3598:3607   */\n  dup3\n    /* \"#utility.yul\":3594:3612   */\n  add\n    /* \"#utility.yul\":3586:3612   */\n  swap1\n  pop\n    /* \"#utility.yul\":3658:3667   */\n  dup2\n    /* \"#utility.yul\":3652:3656   */\n  dup2\n    /* \"#utility.yul\":3648:3668   */\n  sub\n    /* \"#utility.yul\":3644:3645   */\n  0x00\n    /* \"#utility.yul\":3633:3642   */\n  dup4\n    /* \"#utility.yul\":3629:3646   */\n  add\n    /* \"#utility.yul\":3622:3669   */\n  mstore\n    /* \"#utility.yul\":3686:3817   */\n  tag_64\n    /* \"#utility.yul\":3812:3816   */\n  dup2\n    /* \"#utility.yul\":3686:3817   */\n  tag_28\n  jump\t// in\ntag_64:\n    /* \"#utility.yul\":3678:3817   */\n  swap1\n  pop\n    /* \"#utility.yul\":3405:3824   */\n  swap2\n  swap1\n  pop\n  jump\t// out\n    /* \"contracts/SponsorFunding.sol\":334:3251  contract SponsorFunding {... */\ntag_13:\n  dataSize(sub_0)\n  dup1\n  dataOffset(sub_0)\n  0x00\n  codecopy\n  0x00\n  return\nstop\n\nsub_0: assembly {\n        /* \"contracts/SponsorFunding.sol\":334:3251  contract SponsorFunding {... */\n      mstore(0x40, 0x80)\n      jumpi(tag_1, lt(calldatasize, 0x04))\n      shr(0xe0, calldataload(0x00))\n      dup1\n      0xbfdc3ec6\n      gt\n      tag_11\n      jumpi\n      dup1\n      0xbfdc3ec6\n      eq\n      tag_7\n      jumpi\n      dup1\n      0xc5189787\n      eq\n      tag_8\n      jumpi\n      dup1\n      0xc5d9b404\n      eq\n      tag_9\n      jumpi\n      dup1\n      0xe086e5ec\n      eq\n      tag_10\n      jumpi\n      jump(tag_2)\n    tag_11:\n      dup1\n      0x12065fe0\n      eq\n      tag_3\n      jumpi\n      dup1\n      0x315a095d\n      eq\n      tag_4\n      jumpi\n      dup1\n      0x8da5cb5b\n      eq\n      tag_5\n      jumpi\n      dup1\n      0x9d76ea58\n      eq\n      tag_6\n      jumpi\n      jump(tag_2)\n    tag_1:\n      jumpi(tag_2, calldatasize)\n      stop\n    tag_2:\n      0x00\n      dup1\n      revert\n        /* \"contracts/SponsorFunding.sol\":2469:2592  function getBalance() public view returns (uint256) {... */\n    tag_3:\n      callvalue\n      dup1\n      iszero\n      tag_14\n      jumpi\n      0x00\n      dup1\n      revert\n    tag_14:\n      pop\n      tag_15\n      tag_16\n      jump\t// in\n    tag_15:\n      mload(0x40)\n      tag_17\n      swap2\n      swap1\n      tag_18\n      jump\t// in\n    tag_17:\n      mload(0x40)\n      dup1\n      swap2\n      sub\n      swap1\n      return\n        /* \"contracts/SponsorFunding.sol\":2604:2881  function withdrawTokens(uint256 _amount) public onlyOwner {... */\n    tag_4:\n      callvalue\n      dup1\n      iszero\n      tag_19\n      jumpi\n      0x00\n      dup1\n      revert\n    tag_19:\n      pop\n      tag_20\n      0x04\n      dup1\n      calldatasize\n      sub\n      dup2\n      add\n      swap1\n      tag_21\n      swap2\n      swap1\n      tag_22\n      jump\t// in\n    tag_21:\n      tag_23\n      jump\t// in\n    tag_20:\n      stop\n        /* \"contracts/SponsorFunding.sol\":365:385  address public owner */\n    tag_5:\n      callvalue\n      dup1\n      iszero\n      tag_24\n      jumpi\n      0x00\n      dup1\n      revert\n    tag_24:\n      pop\n      tag_25\n      tag_26\n      jump\t// in\n    tag_25:\n      mload(0x40)\n      tag_27\n      swap2\n      swap1\n      tag_28\n      jump\t// in\n    tag_27:\n      mload(0x40)\n      dup1\n      swap2\n      sub\n      swap1\n      return\n        /* \"contracts/SponsorFunding.sol\":392:419  address public tokenAddress */\n    tag_6:\n      callvalue\n      dup1\n      iszero\n      tag_29\n      jumpi\n      0x00\n      dup1\n      revert\n    tag_29:\n      pop\n      tag_30\n      tag_31\n      jump\t// in\n    tag_30:\n      mload(0x40)\n      tag_32\n      swap2\n      swap1\n      tag_28\n      jump\t// in\n    tag_32:\n      mload(0x40)\n      dup1\n      swap2\n      sub\n      swap1\n      return\n        /* \"contracts/SponsorFunding.sol\":1308:1666  function buyTokensForSponsorship() public payable onlyOwner returns (uint256) {... */\n    tag_7:\n      tag_33\n      tag_34\n      jump\t// in\n    tag_33:\n      mload(0x40)\n      tag_35\n      swap2\n      swap1\n      tag_18\n      jump\t// in\n    tag_35:\n      mload(0x40)\n      dup1\n      swap2\n      sub\n      swap1\n      return\n        /* \"contracts/SponsorFunding.sol\":426:462  uint256 public sponsorshipPercentage */\n    tag_8:\n      callvalue\n      dup1\n      iszero\n      tag_36\n      jumpi\n      0x00\n      dup1\n      revert\n    tag_36:\n      pop\n      tag_37\n      tag_38\n      jump\t// in\n    tag_37:\n      mload(0x40)\n      tag_39\n      swap2\n      swap1\n      tag_18\n      jump\t// in\n    tag_39:\n      mload(0x40)\n      dup1\n      swap2\n      sub\n      swap1\n      return\n        /* \"contracts/SponsorFunding.sol\":1678:2457  function provideSponsor(address crowdFundingAddress) external {... */\n    tag_9:\n      callvalue\n      dup1\n      iszero\n      tag_40\n      jumpi\n      0x00\n      dup1\n      revert\n    tag_40:\n      pop\n      tag_41\n      0x04\n      dup1\n      calldatasize\n      sub\n      dup2\n      add\n      swap1\n      tag_42\n      swap2\n      swap1\n      tag_43\n      jump\t// in\n    tag_42:\n      tag_44\n      jump\t// in\n    tag_41:\n      stop\n        /* \"contracts/SponsorFunding.sol\":2893:3207  function withdrawETH() public onlyOwner {... */\n    tag_10:\n      callvalue\n      dup1\n      iszero\n      tag_45\n      jumpi\n      0x00\n      dup1\n      revert\n    tag_45:\n      pop\n      tag_46\n      tag_47\n      jump\t// in\n    tag_46:\n      stop\n        /* \"contracts/SponsorFunding.sol\":2469:2592  function getBalance() public view returns (uint256) {... */\n    tag_16:\n        /* \"contracts/SponsorFunding.sol\":2512:2519  uint256 */\n      0x00\n        /* \"contracts/SponsorFunding.sol\":2546:2558  tokenAddress */\n      0x01\n      0x00\n      swap1\n      sload\n      swap1\n      0x0100\n      exp\n      swap1\n      div\n      0xffffffffffffffffffffffffffffffffffffffff\n      and\n        /* \"contracts/SponsorFunding.sol\":2539:2569  IERC20(tokenAddress).balanceOf */\n      0xffffffffffffffffffffffffffffffffffffffff\n      and\n      0x70a08231\n        /* \"contracts/SponsorFunding.sol\":2578:2582  this */\n      address\n        /* \"contracts/SponsorFunding.sol\":2539:2584  IERC20(tokenAddress).balanceOf(address(this)) */\n      mload(0x40)\n      dup3\n      0xffffffff\n      and\n      0xe0\n      shl\n      dup2\n      mstore\n      0x04\n      add\n      tag_49\n      swap2\n      swap1\n      tag_28\n      jump\t// in\n    tag_49:\n      0x20\n      mload(0x40)\n      dup1\n      dup4\n      sub\n      dup2\n      dup7\n      gas\n      staticcall\n      iszero\n      dup1\n      iszero\n      tag_51\n      jumpi\n      returndatasize\n      0x00\n      dup1\n      returndatacopy\n      revert(0x00, returndatasize)\n    tag_51:\n      pop\n      pop\n      pop\n      pop\n      mload(0x40)\n      returndatasize\n      not(0x1f)\n      0x1f\n      dup3\n      add\n      and\n      dup3\n      add\n      dup1\n      0x40\n      mstore\n      pop\n      dup2\n      add\n      swap1\n      tag_52\n      swap2\n      swap1\n      tag_53\n      jump\t// in\n    tag_52:\n        /* \"contracts/SponsorFunding.sol\":2532:2584  return IERC20(tokenAddress).balanceOf(address(this)) */\n      swap1\n      pop\n        /* \"contracts/SponsorFunding.sol\":2469:2592  function getBalance() public view returns (uint256) {... */\n      swap1\n      jump\t// out\n        /* \"contracts/SponsorFunding.sol\":2604:2881  function withdrawTokens(uint256 _amount) public onlyOwner {... */\n    tag_23:\n        /* \"contracts/SponsorFunding.sol\":879:884  owner */\n      0x00\n      dup1\n      sload\n      swap1\n      0x0100\n      exp\n      swap1\n      div\n      0xffffffffffffffffffffffffffffffffffffffff\n      and\n        /* \"contracts/SponsorFunding.sol\":865:884  msg.sender == owner */\n      0xffffffffffffffffffffffffffffffffffffffff\n      and\n        /* \"contracts/SponsorFunding.sol\":865:875  msg.sender */\n      caller\n        /* \"contracts/SponsorFunding.sol\":865:884  msg.sender == owner */\n      0xffffffffffffffffffffffffffffffffffffffff\n      and\n      eq\n        /* \"contracts/SponsorFunding.sol\":857:899  require(msg.sender == owner, \"Only owner\") */\n      tag_55\n      jumpi\n      mload(0x40)\n      0x08c379a000000000000000000000000000000000000000000000000000000000\n      dup2\n      mstore\n      0x04\n      add\n      tag_56\n      swap1\n      tag_57\n      jump\t// in\n    tag_56:\n      mload(0x40)\n      dup1\n      swap2\n      sub\n      swap1\n      revert\n    tag_55:\n        /* \"contracts/SponsorFunding.sol\":2691:2692  0 */\n      0x00\n        /* \"contracts/SponsorFunding.sol\":2681:2688  _amount */\n      dup2\n        /* \"contracts/SponsorFunding.sol\":2681:2692  _amount > 0 */\n      gt\n        /* \"contracts/SponsorFunding.sol\":2673:2711  require(_amount > 0, \"Invalid amount\") */\n      tag_59\n      jumpi\n      mload(0x40)\n      0x08c379a000000000000000000000000000000000000000000000000000000000\n      dup2\n      mstore\n      0x04\n      add\n      tag_60\n      swap1\n      tag_61\n      jump\t// in\n    tag_60:\n      mload(0x40)\n      dup1\n      swap2\n      sub\n      swap1\n      revert\n    tag_59:\n        /* \"contracts/SponsorFunding.sol\":2722:2734  IERC20 token */\n      0x00\n        /* \"contracts/SponsorFunding.sol\":2744:2756  tokenAddress */\n      0x01\n      0x00\n      swap1\n      sload\n      swap1\n      0x0100\n      exp\n      swap1\n      div\n      0xffffffffffffffffffffffffffffffffffffffff\n      and\n        /* \"contracts/SponsorFunding.sol\":2722:2757  IERC20 token = IERC20(tokenAddress) */\n      swap1\n      pop\n        /* \"contracts/SponsorFunding.sol\":2776:2781  token */\n      dup1\n        /* \"contracts/SponsorFunding.sol\":2776:2790  token.transfer */\n      0xffffffffffffffffffffffffffffffffffffffff\n      and\n      0xa9059cbb\n        /* \"contracts/SponsorFunding.sol\":2791:2796  owner */\n      0x00\n      dup1\n      sload\n      swap1\n      0x0100\n      exp\n      swap1\n      div\n      0xffffffffffffffffffffffffffffffffffffffff\n      and\n        /* \"contracts/SponsorFunding.sol\":2798:2805  _amount */\n      dup5\n        /* \"contracts/SponsorFunding.sol\":2776:2806  token.transfer(owner, _amount) */\n      mload(0x40)\n      dup4\n      0xffffffff\n      and\n      0xe0\n      shl\n      dup2\n      mstore\n      0x04\n      add\n      tag_62\n      swap3\n      swap2\n      swap1\n      tag_63\n      jump\t// in\n    tag_62:\n      0x20\n      mload(0x40)\n      dup1\n      dup4\n      sub\n      dup2\n      0x00\n      dup8\n      gas\n      call\n      iszero\n      dup1\n      iszero\n      tag_65\n      jumpi\n      returndatasize\n      0x00\n      dup1\n      returndatacopy\n      revert(0x00, returndatasize)\n    tag_65:\n      pop\n      pop\n      pop\n      pop\n      mload(0x40)\n      returndatasize\n      not(0x1f)\n      0x1f\n      dup3\n      add\n      and\n      dup3\n      add\n      dup1\n      0x40\n      mstore\n      pop\n      dup2\n      add\n      swap1\n      tag_66\n      swap2\n      swap1\n      tag_67\n      jump\t// in\n    tag_66:\n        /* \"contracts/SponsorFunding.sol\":2768:2826  require(token.transfer(owner, _amount), \"Transfer failed\") */\n      tag_68\n      jumpi\n      mload(0x40)\n      0x08c379a000000000000000000000000000000000000000000000000000000000\n      dup2\n      mstore\n      0x04\n      add\n      tag_69\n      swap1\n      tag_70\n      jump\t// in\n    tag_69:\n      mload(0x40)\n      dup1\n      swap2\n      sub\n      swap1\n      revert\n    tag_68:\n        /* \"contracts/SponsorFunding.sol\":2858:2863  owner */\n      0x00\n      dup1\n      sload\n      swap1\n      0x0100\n      exp\n      swap1\n      div\n      0xffffffffffffffffffffffffffffffffffffffff\n      and\n        /* \"contracts/SponsorFunding.sol\":2842:2873  TokensWithdrawn(owner, _amount) */\n      0xffffffffffffffffffffffffffffffffffffffff\n      and\n      0x6352c5382c4a4578e712449ca65e83cdb392d045dfcf1cad9615189db2da244b\n        /* \"contracts/SponsorFunding.sol\":2865:2872  _amount */\n      dup4\n        /* \"contracts/SponsorFunding.sol\":2842:2873  TokensWithdrawn(owner, _amount) */\n      mload(0x40)\n      tag_71\n      swap2\n      swap1\n      tag_18\n      jump\t// in\n    tag_71:\n      mload(0x40)\n      dup1\n      swap2\n      sub\n      swap1\n      log2\n        /* \"contracts/SponsorFunding.sol\":2662:2881  {... */\n      pop\n        /* \"contracts/SponsorFunding.sol\":2604:2881  function withdrawTokens(uint256 _amount) public onlyOwner {... */\n      pop\n      jump\t// out\n        /* \"contracts/SponsorFunding.sol\":365:385  address public owner */\n    tag_26:\n      0x00\n      dup1\n      sload\n      swap1\n      0x0100\n      exp\n      swap1\n      div\n      0xffffffffffffffffffffffffffffffffffffffff\n      and\n      dup2\n      jump\t// out\n        /* \"contracts/SponsorFunding.sol\":392:419  address public tokenAddress */\n    tag_31:\n      0x01\n      0x00\n      swap1\n      sload\n      swap1\n      0x0100\n      exp\n      swap1\n      div\n      0xffffffffffffffffffffffffffffffffffffffff\n      and\n      dup2\n      jump\t// out\n        /* \"contracts/SponsorFunding.sol\":1308:1666  function buyTokensForSponsorship() public payable onlyOwner returns (uint256) {... */\n    tag_34:\n        /* \"contracts/SponsorFunding.sol\":1377:1384  uint256 */\n      0x00\n        /* \"contracts/SponsorFunding.sol\":879:884  owner */\n      dup1\n      0x00\n      swap1\n      sload\n      swap1\n      0x0100\n      exp\n      swap1\n      div\n      0xffffffffffffffffffffffffffffffffffffffff\n      and\n        /* \"contracts/SponsorFunding.sol\":865:884  msg.sender == owner */\n      0xffffffffffffffffffffffffffffffffffffffff\n      and\n        /* \"contracts/SponsorFunding.sol\":865:875  msg.sender */\n      caller\n        /* \"contracts/SponsorFunding.sol\":865:884  msg.sender == owner */\n      0xffffffffffffffffffffffffffffffffffffffff\n      and\n      eq\n        /* \"contracts/SponsorFunding.sol\":857:899  require(msg.sender == owner, \"Only owner\") */\n      tag_73\n      jumpi\n      mload(0x40)\n      0x08c379a000000000000000000000000000000000000000000000000000000000\n      dup2\n      mstore\n      0x04\n      add\n      tag_74\n      swap1\n      tag_57\n      jump\t// in\n    tag_74:\n      mload(0x40)\n      dup1\n      swap2\n      sub\n      swap1\n      revert\n    tag_73:\n        /* \"contracts/SponsorFunding.sol\":1417:1418  0 */\n      0x00\n        /* \"contracts/SponsorFunding.sol\":1405:1414  msg.value */\n      callvalue\n        /* \"contracts/SponsorFunding.sol\":1405:1418  msg.value > 0 */\n      gt\n        /* \"contracts/SponsorFunding.sol\":1397:1431  require(msg.value > 0, \"Send ETH\") */\n      tag_76\n      jumpi\n      mload(0x40)\n      0x08c379a000000000000000000000000000000000000000000000000000000000\n      dup2\n      mstore\n      0x04\n      add\n      tag_77\n      swap1\n      tag_78\n      jump\t// in\n    tag_77:\n      mload(0x40)\n      dup1\n      swap2\n      sub\n      swap1\n      revert\n    tag_76:\n        /* \"contracts/SponsorFunding.sol\":1442:1474  ICrowdFundingToken tokenContract */\n      0x00\n        /* \"contracts/SponsorFunding.sol\":1496:1508  tokenAddress */\n      0x01\n      0x00\n      swap1\n      sload\n      swap1\n      0x0100\n      exp\n      swap1\n      div\n      0xffffffffffffffffffffffffffffffffffffffff\n      and\n        /* \"contracts/SponsorFunding.sol\":1442:1509  ICrowdFundingToken tokenContract = ICrowdFundingToken(tokenAddress) */\n      swap1\n      pop\n        /* \"contracts/SponsorFunding.sol\":1520:1539  uint256 tokenAmount */\n      0x00\n        /* \"contracts/SponsorFunding.sol\":1542:1555  tokenContract */\n      dup2\n        /* \"contracts/SponsorFunding.sol\":1542:1565  tokenContract.buyTokens */\n      0xffffffffffffffffffffffffffffffffffffffff\n      and\n      0xd0febe4c\n        /* \"contracts/SponsorFunding.sol\":1573:1582  msg.value */\n      callvalue\n        /* \"contracts/SponsorFunding.sol\":1542:1585  tokenContract.buyTokens{value: msg.value}() */\n      mload(0x40)\n      dup3\n      0xffffffff\n      and\n      0xe0\n      shl\n      dup2\n      mstore\n      0x04\n      add\n      0x20\n      mload(0x40)\n      dup1\n      dup4\n      sub\n      dup2\n      dup6\n      dup9\n      gas\n      call\n      iszero\n      dup1\n      iszero\n      tag_80\n      jumpi\n      returndatasize\n      0x00\n      dup1\n      returndatacopy\n      revert(0x00, returndatasize)\n    tag_80:\n      pop\n      pop\n      pop\n      pop\n      pop\n      mload(0x40)\n      returndatasize\n      not(0x1f)\n      0x1f\n      dup3\n      add\n      and\n      dup3\n      add\n      dup1\n      0x40\n      mstore\n      pop\n      dup2\n      add\n      swap1\n      tag_81\n      swap2\n      swap1\n      tag_53\n      jump\t// in\n    tag_81:\n        /* \"contracts/SponsorFunding.sol\":1520:1585  uint256 tokenAmount = tokenContract.buyTokens{value: msg.value}() */\n      swap1\n      pop\n        /* \"contracts/SponsorFunding.sol\":1601:1629  TokensPurchased(tokenAmount) */\n      0xaaaa6e3bc80153b51330f05cf900a13fe42bc5d0d74ac0dffc07ab9b8ebb3cf6\n        /* \"contracts/SponsorFunding.sol\":1617:1628  tokenAmount */\n      dup2\n        /* \"contracts/SponsorFunding.sol\":1601:1629  TokensPurchased(tokenAmount) */\n      mload(0x40)\n      tag_82\n      swap2\n      swap1\n      tag_18\n      jump\t// in\n    tag_82:\n      mload(0x40)\n      dup1\n      swap2\n      sub\n      swap1\n      log1\n        /* \"contracts/SponsorFunding.sol\":1647:1658  tokenAmount */\n      dup1\n        /* \"contracts/SponsorFunding.sol\":1640:1658  return tokenAmount */\n      swap3\n      pop\n      pop\n      pop\n        /* \"contracts/SponsorFunding.sol\":1308:1666  function buyTokensForSponsorship() public payable onlyOwner returns (uint256) {... */\n      swap1\n      jump\t// out\n        /* \"contracts/SponsorFunding.sol\":426:462  uint256 public sponsorshipPercentage */\n    tag_38:\n      sload(0x02)\n      dup2\n      jump\t// out\n        /* \"contracts/SponsorFunding.sol\":1678:2457  function provideSponsor(address crowdFundingAddress) external {... */\n    tag_44:\n        /* \"contracts/SponsorFunding.sol\":1790:1791  0 */\n      0x00\n        /* \"contracts/SponsorFunding.sol\":1759:1792  crowdFundingAddress != address(0) */\n      0xffffffffffffffffffffffffffffffffffffffff\n      and\n        /* \"contracts/SponsorFunding.sol\":1759:1778  crowdFundingAddress */\n      dup2\n        /* \"contracts/SponsorFunding.sol\":1759:1792  crowdFundingAddress != address(0) */\n      0xffffffffffffffffffffffffffffffffffffffff\n      and\n      sub\n        /* \"contracts/SponsorFunding.sol\":1751:1812  require(crowdFundingAddress != address(0), \"Invalid address\") */\n      tag_84\n      jumpi\n      mload(0x40)\n      0x08c379a000000000000000000000000000000000000000000000000000000000\n      dup2\n      mstore\n      0x04\n      add\n      tag_85\n      swap1\n      tag_86\n      jump\t// in\n    tag_85:\n      mload(0x40)\n      dup1\n      swap2\n      sub\n      swap1\n      revert\n    tag_84:\n        /* \"contracts/SponsorFunding.sol\":1833:1845  IERC20 token */\n      0x00\n        /* \"contracts/SponsorFunding.sol\":1855:1867  tokenAddress */\n      0x01\n      0x00\n      swap1\n      sload\n      swap1\n      0x0100\n      exp\n      swap1\n      div\n      0xffffffffffffffffffffffffffffffffffffffff\n      and\n        /* \"contracts/SponsorFunding.sol\":1833:1868  IERC20 token = IERC20(tokenAddress) */\n      swap1\n      pop\n        /* \"contracts/SponsorFunding.sol\":1879:1906  uint256 crowdFundingBalance */\n      0x00\n        /* \"contracts/SponsorFunding.sol\":1909:1914  token */\n      dup2\n        /* \"contracts/SponsorFunding.sol\":1909:1924  token.balanceOf */\n      0xffffffffffffffffffffffffffffffffffffffff\n      and\n      0x70a08231\n        /* \"contracts/SponsorFunding.sol\":1925:1944  crowdFundingAddress */\n      dup5\n        /* \"contracts/SponsorFunding.sol\":1909:1945  token.balanceOf(crowdFundingAddress) */\n      mload(0x40)\n      dup3\n      0xffffffff\n      and\n      0xe0\n      shl\n      dup2\n      mstore\n      0x04\n      add\n      tag_87\n      swap2\n      swap1\n      tag_28\n      jump\t// in\n    tag_87:\n      0x20\n      mload(0x40)\n      dup1\n      dup4\n      sub\n      dup2\n      dup7\n      gas\n      staticcall\n      iszero\n      dup1\n      iszero\n      tag_89\n      jumpi\n      returndatasize\n      0x00\n      dup1\n      returndatacopy\n      revert(0x00, returndatasize)\n    tag_89:\n      pop\n      pop\n      pop\n      pop\n      mload(0x40)\n      returndatasize\n      not(0x1f)\n      0x1f\n      dup3\n      add\n      and\n      dup3\n      add\n      dup1\n      0x40\n      mstore\n      pop\n      dup2\n      add\n      swap1\n      tag_90\n      swap2\n      swap1\n      tag_53\n      jump\t// in\n    tag_90:\n        /* \"contracts/SponsorFunding.sol\":1879:1945  uint256 crowdFundingBalance = token.balanceOf(crowdFundingAddress) */\n      swap1\n      pop\n        /* \"contracts/SponsorFunding.sol\":1956:1981  uint256 sponsorshipAmount */\n      0x00\n        /* \"contracts/SponsorFunding.sol\":2032:2035  100 */\n      0x64\n        /* \"contracts/SponsorFunding.sol\":2007:2028  sponsorshipPercentage */\n      sload(0x02)\n        /* \"contracts/SponsorFunding.sol\":1985:2004  crowdFundingBalance */\n      dup4\n        /* \"contracts/SponsorFunding.sol\":1985:2028  crowdFundingBalance * sponsorshipPercentage */\n      tag_91\n      swap2\n      swap1\n      tag_92\n      jump\t// in\n    tag_91:\n        /* \"contracts/SponsorFunding.sol\":1984:2035  (crowdFundingBalance * sponsorshipPercentage) / 100 */\n      tag_93\n      swap2\n      swap1\n      tag_94\n      jump\t// in\n    tag_93:\n        /* \"contracts/SponsorFunding.sol\":1956:2035  uint256 sponsorshipAmount = (crowdFundingBalance * sponsorshipPercentage) / 100 */\n      swap1\n      pop\n        /* \"contracts/SponsorFunding.sol\":2046:2064  uint256 ourBalance */\n      0x00\n        /* \"contracts/SponsorFunding.sol\":2067:2072  token */\n      dup4\n        /* \"contracts/SponsorFunding.sol\":2067:2082  token.balanceOf */\n      0xffffffffffffffffffffffffffffffffffffffff\n      and\n      0x70a08231\n        /* \"contracts/SponsorFunding.sol\":2091:2095  this */\n      address\n        /* \"contracts/SponsorFunding.sol\":2067:2097  token.balanceOf(address(this)) */\n      mload(0x40)\n      dup3\n      0xffffffff\n      and\n      0xe0\n      shl\n      dup2\n      mstore\n      0x04\n      add\n      tag_95\n      swap2\n      swap1\n      tag_28\n      jump\t// in\n    tag_95:\n      0x20\n      mload(0x40)\n      dup1\n      dup4\n      sub\n      dup2\n      dup7\n      gas\n      staticcall\n      iszero\n      dup1\n      iszero\n      tag_97\n      jumpi\n      returndatasize\n      0x00\n      dup1\n      returndatacopy\n      revert(0x00, returndatasize)\n    tag_97:\n      pop\n      pop\n      pop\n      pop\n      mload(0x40)\n      returndatasize\n      not(0x1f)\n      0x1f\n      dup3\n      add\n      and\n      dup3\n      add\n      dup1\n      0x40\n      mstore\n      pop\n      dup2\n      add\n      swap1\n      tag_98\n      swap2\n      swap1\n      tag_53\n      jump\t// in\n    tag_98:\n        /* \"contracts/SponsorFunding.sol\":2046:2097  uint256 ourBalance = token.balanceOf(address(this)) */\n      swap1\n      pop\n        /* \"contracts/SponsorFunding.sol\":2136:2153  sponsorshipAmount */\n      dup2\n        /* \"contracts/SponsorFunding.sol\":2122:2132  ourBalance */\n      dup2\n        /* \"contracts/SponsorFunding.sol\":2122:2153  ourBalance >= sponsorshipAmount */\n      lt\n        /* \"contracts/SponsorFunding.sol\":2118:2450  if (ourBalance >= sponsorshipAmount) {... */\n      tag_99\n      jumpi\n        /* \"contracts/SponsorFunding.sol\":2178:2183  token */\n      dup4\n        /* \"contracts/SponsorFunding.sol\":2178:2192  token.transfer */\n      0xffffffffffffffffffffffffffffffffffffffff\n      and\n      0xa9059cbb\n        /* \"contracts/SponsorFunding.sol\":2193:2212  crowdFundingAddress */\n      dup7\n        /* \"contracts/SponsorFunding.sol\":2214:2231  sponsorshipAmount */\n      dup5\n        /* \"contracts/SponsorFunding.sol\":2178:2232  token.transfer(crowdFundingAddress, sponsorshipAmount) */\n      mload(0x40)\n      dup4\n      0xffffffff\n      and\n      0xe0\n      shl\n      dup2\n      mstore\n      0x04\n      add\n      tag_100\n      swap3\n      swap2\n      swap1\n      tag_63\n      jump\t// in\n    tag_100:\n      0x20\n      mload(0x40)\n      dup1\n      dup4\n      sub\n      dup2\n      0x00\n      dup8\n      gas\n      call\n      iszero\n      dup1\n      iszero\n      tag_102\n      jumpi\n      returndatasize\n      0x00\n      dup1\n      returndatacopy\n      revert(0x00, returndatasize)\n    tag_102:\n      pop\n      pop\n      pop\n      pop\n      mload(0x40)\n      returndatasize\n      not(0x1f)\n      0x1f\n      dup3\n      add\n      and\n      dup3\n      add\n      dup1\n      0x40\n      mstore\n      pop\n      dup2\n      add\n      swap1\n      tag_103\n      swap2\n      swap1\n      tag_67\n      jump\t// in\n    tag_103:\n        /* \"contracts/SponsorFunding.sol\":2170:2252  require(token.transfer(crowdFundingAddress, sponsorshipAmount), \"Transfer failed\") */\n      tag_104\n      jumpi\n      mload(0x40)\n      0x08c379a000000000000000000000000000000000000000000000000000000000\n      dup2\n      mstore\n      0x04\n      add\n      tag_105\n      swap1\n      tag_70\n      jump\t// in\n    tag_105:\n      mload(0x40)\n      dup1\n      swap2\n      sub\n      swap1\n      revert\n    tag_104:\n        /* \"contracts/SponsorFunding.sol\":2292:2311  crowdFundingAddress */\n      dup5\n        /* \"contracts/SponsorFunding.sol\":2272:2331  SponsorshipProvided(crowdFundingAddress, sponsorshipAmount) */\n      0xffffffffffffffffffffffffffffffffffffffff\n      and\n      0x7661ea217478035e90bae67523e9e3cfc45cb3ffb77fe110fcfff561a7bdea69\n        /* \"contracts/SponsorFunding.sol\":2313:2330  sponsorshipAmount */\n      dup4\n        /* \"contracts/SponsorFunding.sol\":2272:2331  SponsorshipProvided(crowdFundingAddress, sponsorshipAmount) */\n      mload(0x40)\n      tag_106\n      swap2\n      swap1\n      tag_18\n      jump\t// in\n    tag_106:\n      mload(0x40)\n      dup1\n      swap2\n      sub\n      swap1\n      log2\n        /* \"contracts/SponsorFunding.sol\":2118:2450  if (ourBalance >= sponsorshipAmount) {... */\n      jump(tag_107)\n    tag_99:\n        /* \"contracts/SponsorFunding.sol\":2387:2406  crowdFundingAddress */\n      dup5\n        /* \"contracts/SponsorFunding.sol\":2369:2438  SponsorshipFailed(crowdFundingAddress, sponsorshipAmount, ourBalance) */\n      0xffffffffffffffffffffffffffffffffffffffff\n      and\n      0x1cda4d9606bff94fbe49ed061650c09fe416854c544c149c86812ca174ecac89\n        /* \"contracts/SponsorFunding.sol\":2408:2425  sponsorshipAmount */\n      dup4\n        /* \"contracts/SponsorFunding.sol\":2427:2437  ourBalance */\n      dup4\n        /* \"contracts/SponsorFunding.sol\":2369:2438  SponsorshipFailed(crowdFundingAddress, sponsorshipAmount, ourBalance) */\n      mload(0x40)\n      tag_108\n      swap3\n      swap2\n      swap1\n      tag_109\n      jump\t// in\n    tag_108:\n      mload(0x40)\n      dup1\n      swap2\n      sub\n      swap1\n      log2\n        /* \"contracts/SponsorFunding.sol\":2118:2450  if (ourBalance >= sponsorshipAmount) {... */\n    tag_107:\n        /* \"contracts/SponsorFunding.sol\":1740:2457  {... */\n      pop\n      pop\n      pop\n      pop\n        /* \"contracts/SponsorFunding.sol\":1678:2457  function provideSponsor(address crowdFundingAddress) external {... */\n      pop\n      jump\t// out\n        /* \"contracts/SponsorFunding.sol\":2893:3207  function withdrawETH() public onlyOwner {... */\n    tag_47:\n        /* \"contracts/SponsorFunding.sol\":879:884  owner */\n      0x00\n      dup1\n      sload\n      swap1\n      0x0100\n      exp\n      swap1\n      div\n      0xffffffffffffffffffffffffffffffffffffffff\n      and\n        /* \"contracts/SponsorFunding.sol\":865:884  msg.sender == owner */\n      0xffffffffffffffffffffffffffffffffffffffff\n      and\n        /* \"contracts/SponsorFunding.sol\":865:875  msg.sender */\n      caller\n        /* \"contracts/SponsorFunding.sol\":865:884  msg.sender == owner */\n      0xffffffffffffffffffffffffffffffffffffffff\n      and\n      eq\n        /* \"contracts/SponsorFunding.sol\":857:899  require(msg.sender == owner, \"Only owner\") */\n      tag_111\n      jumpi\n      mload(0x40)\n      0x08c379a000000000000000000000000000000000000000000000000000000000\n      dup2\n      mstore\n      0x04\n      add\n      tag_112\n      swap1\n      tag_57\n      jump\t// in\n    tag_112:\n      mload(0x40)\n      dup1\n      swap2\n      sub\n      swap1\n      revert\n    tag_111:\n        /* \"contracts/SponsorFunding.sol\":2944:2959  uint256 balance */\n      0x00\n        /* \"contracts/SponsorFunding.sol\":2962:2983  address(this).balance */\n      selfbalance\n        /* \"contracts/SponsorFunding.sol\":2944:2983  uint256 balance = address(this).balance */\n      swap1\n      pop\n        /* \"contracts/SponsorFunding.sol\":3012:3013  0 */\n      0x00\n        /* \"contracts/SponsorFunding.sol\":3002:3009  balance */\n      dup2\n        /* \"contracts/SponsorFunding.sol\":3002:3013  balance > 0 */\n      gt\n        /* \"contracts/SponsorFunding.sol\":2994:3036  require(balance > 0, \"No ETH to withdraw\") */\n      tag_114\n      jumpi\n      mload(0x40)\n      0x08c379a000000000000000000000000000000000000000000000000000000000\n      dup2\n      mstore\n      0x04\n      add\n      tag_115\n      swap1\n      tag_116\n      jump\t// in\n    tag_115:\n      mload(0x40)\n      dup1\n      swap2\n      sub\n      swap1\n      revert\n    tag_114:\n        /* \"contracts/SponsorFunding.sol\":3048:3060  bool success */\n      0x00\n        /* \"contracts/SponsorFunding.sol\":3074:3079  owner */\n      dup1\n      0x00\n      swap1\n      sload\n      swap1\n      0x0100\n      exp\n      swap1\n      div\n      0xffffffffffffffffffffffffffffffffffffffff\n      and\n        /* \"contracts/SponsorFunding.sol\":3066:3085  payable(owner).call */\n      0xffffffffffffffffffffffffffffffffffffffff\n      and\n        /* \"contracts/SponsorFunding.sol\":3093:3100  balance */\n      dup3\n        /* \"contracts/SponsorFunding.sol\":3066:3105  payable(owner).call{value: balance}(\"\") */\n      mload(0x40)\n      tag_117\n      swap1\n      tag_118\n      jump\t// in\n    tag_117:\n      0x00\n      mload(0x40)\n      dup1\n      dup4\n      sub\n      dup2\n      dup6\n      dup8\n      gas\n      call\n      swap3\n      pop\n      pop\n      pop\n      returndatasize\n      dup1\n      0x00\n      dup2\n      eq\n      tag_121\n      jumpi\n      mload(0x40)\n      swap2\n      pop\n      and(add(returndatasize, 0x3f), not(0x1f))\n      dup3\n      add\n      0x40\n      mstore\n      returndatasize\n      dup3\n      mstore\n      returndatasize\n      0x00\n      0x20\n      dup5\n      add\n      returndatacopy\n      jump(tag_120)\n    tag_121:\n      0x60\n      swap2\n      pop\n    tag_120:\n      pop\n        /* \"contracts/SponsorFunding.sol\":3047:3105  (bool success, ) = payable(owner).call{value: balance}(\"\") */\n      pop\n      swap1\n      pop\n        /* \"contracts/SponsorFunding.sol\":3124:3131  success */\n      dup1\n        /* \"contracts/SponsorFunding.sol\":3116:3155  require(success, \"ETH transfer failed\") */\n      tag_122\n      jumpi\n      mload(0x40)\n      0x08c379a000000000000000000000000000000000000000000000000000000000\n      dup2\n      mstore\n      0x04\n      add\n      tag_123\n      swap1\n      tag_124\n      jump\t// in\n    tag_123:\n      mload(0x40)\n      dup1\n      swap2\n      sub\n      swap1\n      revert\n    tag_122:\n        /* \"contracts/SponsorFunding.sol\":3184:3189  owner */\n      0x00\n      dup1\n      sload\n      swap1\n      0x0100\n      exp\n      swap1\n      div\n      0xffffffffffffffffffffffffffffffffffffffff\n      and\n        /* \"contracts/SponsorFunding.sol\":3171:3199  ETHWithdrawn(owner, balance) */\n      0xffffffffffffffffffffffffffffffffffffffff\n      and\n      0x94b2de810873337ed265c5f8cf98c9cffefa06b8607f9a2f1fbaebdfbcfbef1c\n        /* \"contracts/SponsorFunding.sol\":3191:3198  balance */\n      dup4\n        /* \"contracts/SponsorFunding.sol\":3171:3199  ETHWithdrawn(owner, balance) */\n      mload(0x40)\n      tag_125\n      swap2\n      swap1\n      tag_18\n      jump\t// in\n    tag_125:\n      mload(0x40)\n      dup1\n      swap2\n      sub\n      swap1\n      log2\n        /* \"contracts/SponsorFunding.sol\":2933:3207  {... */\n      pop\n      pop\n        /* \"contracts/SponsorFunding.sol\":2893:3207  function withdrawETH() public onlyOwner {... */\n      jump\t// out\n        /* \"#utility.yul\":7:84   */\n    tag_126:\n        /* \"#utility.yul\":44:51   */\n      0x00\n        /* \"#utility.yul\":73:78   */\n      dup2\n        /* \"#utility.yul\":62:78   */\n      swap1\n      pop\n        /* \"#utility.yul\":7:84   */\n      swap2\n      swap1\n      pop\n      jump\t// out\n        /* \"#utility.yul\":90:208   */\n    tag_127:\n        /* \"#utility.yul\":177:201   */\n      tag_165\n        /* \"#utility.yul\":195:200   */\n      dup2\n        /* \"#utility.yul\":177:201   */\n      tag_126\n      jump\t// in\n    tag_165:\n        /* \"#utility.yul\":172:175   */\n      dup3\n        /* \"#utility.yul\":165:202   */\n      mstore\n        /* \"#utility.yul\":90:208   */\n      pop\n      pop\n      jump\t// out\n        /* \"#utility.yul\":214:436   */\n    tag_18:\n        /* \"#utility.yul\":307:311   */\n      0x00\n        /* \"#utility.yul\":345:347   */\n      0x20\n        /* \"#utility.yul\":334:343   */\n      dup3\n        /* \"#utility.yul\":330:348   */\n      add\n        /* \"#utility.yul\":322:348   */\n      swap1\n      pop\n        /* \"#utility.yul\":358:429   */\n      tag_167\n        /* \"#utility.yul\":426:427   */\n      0x00\n        /* \"#utility.yul\":415:424   */\n      dup4\n        /* \"#utility.yul\":411:428   */\n      add\n        /* \"#utility.yul\":402:408   */\n      dup5\n        /* \"#utility.yul\":358:429   */\n      tag_127\n      jump\t// in\n    tag_167:\n        /* \"#utility.yul\":214:436   */\n      swap3\n      swap2\n      pop\n      pop\n      jump\t// out\n        /* \"#utility.yul\":523:640   */\n    tag_129:\n        /* \"#utility.yul\":632:633   */\n      0x00\n        /* \"#utility.yul\":629:630   */\n      dup1\n        /* \"#utility.yul\":622:634   */\n      revert\n        /* \"#utility.yul\":769:891   */\n    tag_131:\n        /* \"#utility.yul\":842:866   */\n      tag_172\n        /* \"#utility.yul\":860:865   */\n      dup2\n        /* \"#utility.yul\":842:866   */\n      tag_126\n      jump\t// in\n    tag_172:\n        /* \"#utility.yul\":835:840   */\n      dup2\n        /* \"#utility.yul\":832:867   */\n      eq\n        /* \"#utility.yul\":822:885   */\n      tag_173\n      jumpi\n        /* \"#utility.yul\":881:882   */\n      0x00\n        /* \"#utility.yul\":878:879   */\n      dup1\n        /* \"#utility.yul\":871:883   */\n      revert\n        /* \"#utility.yul\":822:885   */\n    tag_173:\n        /* \"#utility.yul\":769:891   */\n      pop\n      jump\t// out\n        /* \"#utility.yul\":897:1036   */\n    tag_132:\n        /* \"#utility.yul\":943:948   */\n      0x00\n        /* \"#utility.yul\":981:987   */\n      dup2\n        /* \"#utility.yul\":968:988   */\n      calldataload\n        /* \"#utility.yul\":959:988   */\n      swap1\n      pop\n        /* \"#utility.yul\":997:1030   */\n      tag_175\n        /* \"#utility.yul\":1024:1029   */\n      dup2\n        /* \"#utility.yul\":997:1030   */\n      tag_131\n      jump\t// in\n    tag_175:\n        /* \"#utility.yul\":897:1036   */\n      swap3\n      swap2\n      pop\n      pop\n      jump\t// out\n        /* \"#utility.yul\":1042:1371   */\n    tag_22:\n        /* \"#utility.yul\":1101:1107   */\n      0x00\n        /* \"#utility.yul\":1150:1152   */\n      0x20\n        /* \"#utility.yul\":1138:1147   */\n      dup3\n        /* \"#utility.yul\":1129:1136   */\n      dup5\n        /* \"#utility.yul\":1125:1148   */\n      sub\n        /* \"#utility.yul\":1121:1153   */\n      slt\n        /* \"#utility.yul\":1118:1237   */\n      iszero\n      tag_177\n      jumpi\n        /* \"#utility.yul\":1156:1235   */\n      tag_178\n      tag_129\n      jump\t// in\n    tag_178:\n        /* \"#utility.yul\":1118:1237   */\n    tag_177:\n        /* \"#utility.yul\":1276:1277   */\n      0x00\n        /* \"#utility.yul\":1301:1354   */\n      tag_179\n        /* \"#utility.yul\":1346:1353   */\n      dup5\n        /* \"#utility.yul\":1337:1343   */\n      dup3\n        /* \"#utility.yul\":1326:1335   */\n      dup6\n        /* \"#utility.yul\":1322:1344   */\n      add\n        /* \"#utility.yul\":1301:1354   */\n      tag_132\n      jump\t// in\n    tag_179:\n        /* \"#utility.yul\":1291:1354   */\n      swap2\n      pop\n        /* \"#utility.yul\":1247:1364   */\n      pop\n        /* \"#utility.yul\":1042:1371   */\n      swap3\n      swap2\n      pop\n      pop\n      jump\t// out\n        /* \"#utility.yul\":1377:1503   */\n    tag_133:\n        /* \"#utility.yul\":1414:1421   */\n      0x00\n        /* \"#utility.yul\":1454:1496   */\n      0xffffffffffffffffffffffffffffffffffffffff\n        /* \"#utility.yul\":1447:1452   */\n      dup3\n        /* \"#utility.yul\":1443:1497   */\n      and\n        /* \"#utility.yul\":1432:1497   */\n      swap1\n      pop\n        /* \"#utility.yul\":1377:1503   */\n      swap2\n      swap1\n      pop\n      jump\t// out\n        /* \"#utility.yul\":1509:1605   */\n    tag_134:\n        /* \"#utility.yul\":1546:1553   */\n      0x00\n        /* \"#utility.yul\":1575:1599   */\n      tag_182\n        /* \"#utility.yul\":1593:1598   */\n      dup3\n        /* \"#utility.yul\":1575:1599   */\n      tag_133\n      jump\t// in\n    tag_182:\n        /* \"#utility.yul\":1564:1599   */\n      swap1\n      pop\n        /* \"#utility.yul\":1509:1605   */\n      swap2\n      swap1\n      pop\n      jump\t// out\n        /* \"#utility.yul\":1611:1729   */\n    tag_135:\n        /* \"#utility.yul\":1698:1722   */\n      tag_184\n        /* \"#utility.yul\":1716:1721   */\n      dup2\n        /* \"#utility.yul\":1698:1722   */\n      tag_134\n      jump\t// in\n    tag_184:\n        /* \"#utility.yul\":1693:1696   */\n      dup3\n        /* \"#utility.yul\":1686:1723   */\n      mstore\n        /* \"#utility.yul\":1611:1729   */\n      pop\n      pop\n      jump\t// out\n        /* \"#utility.yul\":1735:1957   */\n    tag_28:\n        /* \"#utility.yul\":1828:1832   */\n      0x00\n        /* \"#utility.yul\":1866:1868   */\n      0x20\n        /* \"#utility.yul\":1855:1864   */\n      dup3\n        /* \"#utility.yul\":1851:1869   */\n      add\n        /* \"#utility.yul\":1843:1869   */\n      swap1\n      pop\n        /* \"#utility.yul\":1879:1950   */\n      tag_186\n        /* \"#utility.yul\":1947:1948   */\n      0x00\n        /* \"#utility.yul\":1936:1945   */\n      dup4\n        /* \"#utility.yul\":1932:1949   */\n      add\n        /* \"#utility.yul\":1923:1929   */\n      dup5\n        /* \"#utility.yul\":1879:1950   */\n      tag_135\n      jump\t// in\n    tag_186:\n        /* \"#utility.yul\":1735:1957   */\n      swap3\n      swap2\n      pop\n      pop\n      jump\t// out\n        /* \"#utility.yul\":1963:2085   */\n    tag_136:\n        /* \"#utility.yul\":2036:2060   */\n      tag_188\n        /* \"#utility.yul\":2054:2059   */\n      dup2\n        /* \"#utility.yul\":2036:2060   */\n      tag_134\n      jump\t// in\n    tag_188:\n        /* \"#utility.yul\":2029:2034   */\n      dup2\n        /* \"#utility.yul\":2026:2061   */\n      eq\n        /* \"#utility.yul\":2016:2079   */\n      tag_189\n      jumpi\n        /* \"#utility.yul\":2075:2076   */\n      0x00\n        /* \"#utility.yul\":2072:2073   */\n      dup1\n        /* \"#utility.yul\":2065:2077   */\n      revert\n        /* \"#utility.yul\":2016:2079   */\n    tag_189:\n        /* \"#utility.yul\":1963:2085   */\n      pop\n      jump\t// out\n        /* \"#utility.yul\":2091:2230   */\n    tag_137:\n        /* \"#utility.yul\":2137:2142   */\n      0x00\n        /* \"#utility.yul\":2175:2181   */\n      dup2\n        /* \"#utility.yul\":2162:2182   */\n      calldataload\n        /* \"#utility.yul\":2153:2182   */\n      swap1\n      pop\n        /* \"#utility.yul\":2191:2224   */\n      tag_191\n        /* \"#utility.yul\":2218:2223   */\n      dup2\n        /* \"#utility.yul\":2191:2224   */\n      tag_136\n      jump\t// in\n    tag_191:\n        /* \"#utility.yul\":2091:2230   */\n      swap3\n      swap2\n      pop\n      pop\n      jump\t// out\n        /* \"#utility.yul\":2236:2565   */\n    tag_43:\n        /* \"#utility.yul\":2295:2301   */\n      0x00\n        /* \"#utility.yul\":2344:2346   */\n      0x20\n        /* \"#utility.yul\":2332:2341   */\n      dup3\n        /* \"#utility.yul\":2323:2330   */\n      dup5\n        /* \"#utility.yul\":2319:2342   */\n      sub\n        /* \"#utility.yul\":2315:2347   */\n      slt\n        /* \"#utility.yul\":2312:2431   */\n      iszero\n      tag_193\n      jumpi\n        /* \"#utility.yul\":2350:2429   */\n      tag_194\n      tag_129\n      jump\t// in\n    tag_194:\n        /* \"#utility.yul\":2312:2431   */\n    tag_193:\n        /* \"#utility.yul\":2470:2471   */\n      0x00\n        /* \"#utility.yul\":2495:2548   */\n      tag_195\n        /* \"#utility.yul\":2540:2547   */\n      dup5\n        /* \"#utility.yul\":2531:2537   */\n      dup3\n        /* \"#utility.yul\":2520:2529   */\n      dup6\n        /* \"#utility.yul\":2516:2538   */\n      add\n        /* \"#utility.yul\":2495:2548   */\n      tag_137\n      jump\t// in\n    tag_195:\n        /* \"#utility.yul\":2485:2548   */\n      swap2\n      pop\n        /* \"#utility.yul\":2441:2558   */\n      pop\n        /* \"#utility.yul\":2236:2565   */\n      swap3\n      swap2\n      pop\n      pop\n      jump\t// out\n        /* \"#utility.yul\":2571:2714   */\n    tag_138:\n        /* \"#utility.yul\":2628:2633   */\n      0x00\n        /* \"#utility.yul\":2659:2665   */\n      dup2\n        /* \"#utility.yul\":2653:2666   */\n      mload\n        /* \"#utility.yul\":2644:2666   */\n      swap1\n      pop\n        /* \"#utility.yul\":2675:2708   */\n      tag_197\n        /* \"#utility.yul\":2702:2707   */\n      dup2\n        /* \"#utility.yul\":2675:2708   */\n      tag_131\n      jump\t// in\n    tag_197:\n        /* \"#utility.yul\":2571:2714   */\n      swap3\n      swap2\n      pop\n      pop\n      jump\t// out\n        /* \"#utility.yul\":2720:3071   */\n    tag_53:\n        /* \"#utility.yul\":2790:2796   */\n      0x00\n        /* \"#utility.yul\":2839:2841   */\n      0x20\n        /* \"#utility.yul\":2827:2836   */\n      dup3\n        /* \"#utility.yul\":2818:2825   */\n      dup5\n        /* \"#utility.yul\":2814:2837   */\n      sub\n        /* \"#utility.yul\":2810:2842   */\n      slt\n        /* \"#utility.yul\":2807:2926   */\n      iszero\n      tag_199\n      jumpi\n        /* \"#utility.yul\":2845:2924   */\n      tag_200\n      tag_129\n      jump\t// in\n    tag_200:\n        /* \"#utility.yul\":2807:2926   */\n    tag_199:\n        /* \"#utility.yul\":2965:2966   */\n      0x00\n        /* \"#utility.yul\":2990:3054   */\n      tag_201\n        /* \"#utility.yul\":3046:3053   */\n      dup5\n        /* \"#utility.yul\":3037:3043   */\n      dup3\n        /* \"#utility.yul\":3026:3035   */\n      dup6\n        /* \"#utility.yul\":3022:3044   */\n      add\n        /* \"#utility.yul\":2990:3054   */\n      tag_138\n      jump\t// in\n    tag_201:\n        /* \"#utility.yul\":2980:3054   */\n      swap2\n      pop\n        /* \"#utility.yul\":2936:3064   */\n      pop\n        /* \"#utility.yul\":2720:3071   */\n      swap3\n      swap2\n      pop\n      pop\n      jump\t// out\n        /* \"#utility.yul\":3077:3246   */\n    tag_139:\n        /* \"#utility.yul\":3161:3172   */\n      0x00\n        /* \"#utility.yul\":3195:3201   */\n      dup3\n        /* \"#utility.yul\":3190:3193   */\n      dup3\n        /* \"#utility.yul\":3183:3202   */\n      mstore\n        /* \"#utility.yul\":3235:3239   */\n      0x20\n        /* \"#utility.yul\":3230:3233   */\n      dup3\n        /* \"#utility.yul\":3226:3240   */\n      add\n        /* \"#utility.yul\":3211:3240   */\n      swap1\n      pop\n        /* \"#utility.yul\":3077:3246   */\n      swap3\n      swap2\n      pop\n      pop\n      jump\t// out\n        /* \"#utility.yul\":3252:3412   */\n    tag_140:\n        /* \"#utility.yul\":3392:3404   */\n      0x4f6e6c79206f776e657200000000000000000000000000000000000000000000\n        /* \"#utility.yul\":3388:3389   */\n      0x00\n        /* \"#utility.yul\":3380:3386   */\n      dup3\n        /* \"#utility.yul\":3376:3390   */\n      add\n        /* \"#utility.yul\":3369:3405   */\n      mstore\n        /* \"#utility.yul\":3252:3412   */\n      pop\n      jump\t// out\n        /* \"#utility.yul\":3418:3784   */\n    tag_141:\n        /* \"#utility.yul\":3560:3563   */\n      0x00\n        /* \"#utility.yul\":3581:3648   */\n      tag_205\n        /* \"#utility.yul\":3645:3647   */\n      0x0a\n        /* \"#utility.yul\":3640:3643   */\n      dup4\n        /* \"#utility.yul\":3581:3648   */\n      tag_139\n      jump\t// in\n    tag_205:\n        /* \"#utility.yul\":3574:3648   */\n      swap2\n      pop\n        /* \"#utility.yul\":3657:3750   */\n      tag_206\n        /* \"#utility.yul\":3746:3749   */\n      dup3\n        /* \"#utility.yul\":3657:3750   */\n      tag_140\n      jump\t// in\n    tag_206:\n        /* \"#utility.yul\":3775:3777   */\n      0x20\n        /* \"#utility.yul\":3770:3773   */\n      dup3\n        /* \"#utility.yul\":3766:3778   */\n      add\n        /* \"#utility.yul\":3759:3778   */\n      swap1\n      pop\n        /* \"#utility.yul\":3418:3784   */\n      swap2\n      swap1\n      pop\n      jump\t// out\n        /* \"#utility.yul\":3790:4209   */\n    tag_57:\n        /* \"#utility.yul\":3956:3960   */\n      0x00\n        /* \"#utility.yul\":3994:3996   */\n      0x20\n        /* \"#utility.yul\":3983:3992   */\n      dup3\n        /* \"#utility.yul\":3979:3997   */\n      add\n        /* \"#utility.yul\":3971:3997   */\n      swap1\n      pop\n        /* \"#utility.yul\":4043:4052   */\n      dup2\n        /* \"#utility.yul\":4037:4041   */\n      dup2\n        /* \"#utility.yul\":4033:4053   */\n      sub\n        /* \"#utility.yul\":4029:4030   */\n      0x00\n        /* \"#utility.yul\":4018:4027   */\n      dup4\n        /* \"#utility.yul\":4014:4031   */\n      add\n        /* \"#utility.yul\":4007:4054   */\n      mstore\n        /* \"#utility.yul\":4071:4202   */\n      tag_208\n        /* \"#utility.yul\":4197:4201   */\n      dup2\n        /* \"#utility.yul\":4071:4202   */\n      tag_141\n      jump\t// in\n    tag_208:\n        /* \"#utility.yul\":4063:4202   */\n      swap1\n      pop\n        /* \"#utility.yul\":3790:4209   */\n      swap2\n      swap1\n      pop\n      jump\t// out\n        /* \"#utility.yul\":4215:4379   */\n    tag_142:\n        /* \"#utility.yul\":4355:4371   */\n      0x496e76616c696420616d6f756e74000000000000000000000000000000000000\n        /* \"#utility.yul\":4351:4352   */\n      0x00\n        /* \"#utility.yul\":4343:4349   */\n      dup3\n        /* \"#utility.yul\":4339:4353   */\n      add\n        /* \"#utility.yul\":4332:4372   */\n      mstore\n        /* \"#utility.yul\":4215:4379   */\n      pop\n      jump\t// out\n        /* \"#utility.yul\":4385:4751   */\n    tag_143:\n        /* \"#utility.yul\":4527:4530   */\n      0x00\n        /* \"#utility.yul\":4548:4615   */\n      tag_211\n        /* \"#utility.yul\":4612:4614   */\n      0x0e\n        /* \"#utility.yul\":4607:4610   */\n      dup4\n        /* \"#utility.yul\":4548:4615   */\n      tag_139\n      jump\t// in\n    tag_211:\n        /* \"#utility.yul\":4541:4615   */\n      swap2\n      pop\n        /* \"#utility.yul\":4624:4717   */\n      tag_212\n        /* \"#utility.yul\":4713:4716   */\n      dup3\n        /* \"#utility.yul\":4624:4717   */\n      tag_142\n      jump\t// in\n    tag_212:\n        /* \"#utility.yul\":4742:4744   */\n      0x20\n        /* \"#utility.yul\":4737:4740   */\n      dup3\n        /* \"#utility.yul\":4733:4745   */\n      add\n        /* \"#utility.yul\":4726:4745   */\n      swap1\n      pop\n        /* \"#utility.yul\":4385:4751   */\n      swap2\n      swap1\n      pop\n      jump\t// out\n        /* \"#utility.yul\":4757:5176   */\n    tag_61:\n        /* \"#utility.yul\":4923:4927   */\n      0x00\n        /* \"#utility.yul\":4961:4963   */\n      0x20\n        /* \"#utility.yul\":4950:4959   */\n      dup3\n        /* \"#utility.yul\":4946:4964   */\n      add\n        /* \"#utility.yul\":4938:4964   */\n      swap1\n      pop\n        /* \"#utility.yul\":5010:5019   */\n      dup2\n        /* \"#utility.yul\":5004:5008   */\n      dup2\n        /* \"#utility.yul\":5000:5020   */\n      sub\n        /* \"#utility.yul\":4996:4997   */\n      0x00\n        /* \"#utility.yul\":4985:4994   */\n      dup4\n        /* \"#utility.yul\":4981:4998   */\n      add\n        /* \"#utility.yul\":4974:5021   */\n      mstore\n        /* \"#utility.yul\":5038:5169   */\n      tag_214\n        /* \"#utility.yul\":5164:5168   */\n      dup2\n        /* \"#utility.yul\":5038:5169   */\n      tag_143\n      jump\t// in\n    tag_214:\n        /* \"#utility.yul\":5030:5169   */\n      swap1\n      pop\n        /* \"#utility.yul\":4757:5176   */\n      swap2\n      swap1\n      pop\n      jump\t// out\n        /* \"#utility.yul\":5182:5514   */\n    tag_63:\n        /* \"#utility.yul\":5303:5307   */\n      0x00\n        /* \"#utility.yul\":5341:5343   */\n      0x40\n        /* \"#utility.yul\":5330:5339   */\n      dup3\n        /* \"#utility.yul\":5326:5344   */\n      add\n        /* \"#utility.yul\":5318:5344   */\n      swap1\n      pop\n        /* \"#utility.yul\":5354:5425   */\n      tag_216\n        /* \"#utility.yul\":5422:5423   */\n      0x00\n        /* \"#utility.yul\":5411:5420   */\n      dup4\n        /* \"#utility.yul\":5407:5424   */\n      add\n        /* \"#utility.yul\":5398:5404   */\n      dup6\n        /* \"#utility.yul\":5354:5425   */\n      tag_135\n      jump\t// in\n    tag_216:\n        /* \"#utility.yul\":5435:5507   */\n      tag_217\n        /* \"#utility.yul\":5503:5505   */\n      0x20\n        /* \"#utility.yul\":5492:5501   */\n      dup4\n        /* \"#utility.yul\":5488:5506   */\n      add\n        /* \"#utility.yul\":5479:5485   */\n      dup5\n        /* \"#utility.yul\":5435:5507   */\n      tag_127\n      jump\t// in\n    tag_217:\n        /* \"#utility.yul\":5182:5514   */\n      swap4\n      swap3\n      pop\n      pop\n      pop\n      jump\t// out\n        /* \"#utility.yul\":5520:5610   */\n    tag_144:\n        /* \"#utility.yul\":5554:5561   */\n      0x00\n        /* \"#utility.yul\":5597:5602   */\n      dup2\n        /* \"#utility.yul\":5590:5603   */\n      iszero\n        /* \"#utility.yul\":5583:5604   */\n      iszero\n        /* \"#utility.yul\":5572:5604   */\n      swap1\n      pop\n        /* \"#utility.yul\":5520:5610   */\n      swap2\n      swap1\n      pop\n      jump\t// out\n        /* \"#utility.yul\":5616:5732   */\n    tag_145:\n        /* \"#utility.yul\":5686:5707   */\n      tag_220\n        /* \"#utility.yul\":5701:5706   */\n      dup2\n        /* \"#utility.yul\":5686:5707   */\n      tag_144\n      jump\t// in\n    tag_220:\n        /* \"#utility.yul\":5679:5684   */\n      dup2\n        /* \"#utility.yul\":5676:5708   */\n      eq\n        /* \"#utility.yul\":5666:5726   */\n      tag_221\n      jumpi\n        /* \"#utility.yul\":5722:5723   */\n      0x00\n        /* \"#utility.yul\":5719:5720   */\n      dup1\n        /* \"#utility.yul\":5712:5724   */\n      revert\n        /* \"#utility.yul\":5666:5726   */\n    tag_221:\n        /* \"#utility.yul\":5616:5732   */\n      pop\n      jump\t// out\n        /* \"#utility.yul\":5738:5875   */\n    tag_146:\n        /* \"#utility.yul\":5792:5797   */\n      0x00\n        /* \"#utility.yul\":5823:5829   */\n      dup2\n        /* \"#utility.yul\":5817:5830   */\n      mload\n        /* \"#utility.yul\":5808:5830   */\n      swap1\n      pop\n        /* \"#utility.yul\":5839:5869   */\n      tag_223\n        /* \"#utility.yul\":5863:5868   */\n      dup2\n        /* \"#utility.yul\":5839:5869   */\n      tag_145\n      jump\t// in\n    tag_223:\n        /* \"#utility.yul\":5738:5875   */\n      swap3\n      swap2\n      pop\n      pop\n      jump\t// out\n        /* \"#utility.yul\":5881:6226   */\n    tag_67:\n        /* \"#utility.yul\":5948:5954   */\n      0x00\n        /* \"#utility.yul\":5997:5999   */\n      0x20\n        /* \"#utility.yul\":5985:5994   */\n      dup3\n        /* \"#utility.yul\":5976:5983   */\n      dup5\n        /* \"#utility.yul\":5972:5995   */\n      sub\n        /* \"#utility.yul\":5968:6000   */\n      slt\n        /* \"#utility.yul\":5965:6084   */\n      iszero\n      tag_225\n      jumpi\n        /* \"#utility.yul\":6003:6082   */\n      tag_226\n      tag_129\n      jump\t// in\n    tag_226:\n        /* \"#utility.yul\":5965:6084   */\n    tag_225:\n        /* \"#utility.yul\":6123:6124   */\n      0x00\n        /* \"#utility.yul\":6148:6209   */\n      tag_227\n        /* \"#utility.yul\":6201:6208   */\n      dup5\n        /* \"#utility.yul\":6192:6198   */\n      dup3\n        /* \"#utility.yul\":6181:6190   */\n      dup6\n        /* \"#utility.yul\":6177:6199   */\n      add\n        /* \"#utility.yul\":6148:6209   */\n      tag_146\n      jump\t// in\n    tag_227:\n        /* \"#utility.yul\":6138:6209   */\n      swap2\n      pop\n        /* \"#utility.yul\":6094:6219   */\n      pop\n        /* \"#utility.yul\":5881:6226   */\n      swap3\n      swap2\n      pop\n      pop\n      jump\t// out\n        /* \"#utility.yul\":6232:6397   */\n    tag_147:\n        /* \"#utility.yul\":6372:6389   */\n      0x5472616e73666572206661696c65640000000000000000000000000000000000\n        /* \"#utility.yul\":6368:6369   */\n      0x00\n        /* \"#utility.yul\":6360:6366   */\n      dup3\n        /* \"#utility.yul\":6356:6370   */\n      add\n        /* \"#utility.yul\":6349:6390   */\n      mstore\n        /* \"#utility.yul\":6232:6397   */\n      pop\n      jump\t// out\n        /* \"#utility.yul\":6403:6769   */\n    tag_148:\n        /* \"#utility.yul\":6545:6548   */\n      0x00\n        /* \"#utility.yul\":6566:6633   */\n      tag_230\n        /* \"#utility.yul\":6630:6632   */\n      0x0f\n        /* \"#utility.yul\":6625:6628   */\n      dup4\n        /* \"#utility.yul\":6566:6633   */\n      tag_139\n      jump\t// in\n    tag_230:\n        /* \"#utility.yul\":6559:6633   */\n      swap2\n      pop\n        /* \"#utility.yul\":6642:6735   */\n      tag_231\n        /* \"#utility.yul\":6731:6734   */\n      dup3\n        /* \"#utility.yul\":6642:6735   */\n      tag_147\n      jump\t// in\n    tag_231:\n        /* \"#utility.yul\":6760:6762   */\n      0x20\n        /* \"#utility.yul\":6755:6758   */\n      dup3\n        /* \"#utility.yul\":6751:6763   */\n      add\n        /* \"#utility.yul\":6744:6763   */\n      swap1\n      pop\n        /* \"#utility.yul\":6403:6769   */\n      swap2\n      swap1\n      pop\n      jump\t// out\n        /* \"#utility.yul\":6775:7194   */\n    tag_70:\n        /* \"#utility.yul\":6941:6945   */\n      0x00\n        /* \"#utility.yul\":6979:6981   */\n      0x20\n        /* \"#utility.yul\":6968:6977   */\n      dup3\n        /* \"#utility.yul\":6964:6982   */\n      add\n        /* \"#utility.yul\":6956:6982   */\n      swap1\n      pop\n        /* \"#utility.yul\":7028:7037   */\n      dup2\n        /* \"#utility.yul\":7022:7026   */\n      dup2\n        /* \"#utility.yul\":7018:7038   */\n      sub\n        /* \"#utility.yul\":7014:7015   */\n      0x00\n        /* \"#utility.yul\":7003:7012   */\n      dup4\n        /* \"#utility.yul\":6999:7016   */\n      add\n        /* \"#utility.yul\":6992:7039   */\n      mstore\n        /* \"#utility.yul\":7056:7187   */\n      tag_233\n        /* \"#utility.yul\":7182:7186   */\n      dup2\n        /* \"#utility.yul\":7056:7187   */\n      tag_148\n      jump\t// in\n    tag_233:\n        /* \"#utility.yul\":7048:7187   */\n      swap1\n      pop\n        /* \"#utility.yul\":6775:7194   */\n      swap2\n      swap1\n      pop\n      jump\t// out\n        /* \"#utility.yul\":7200:7358   */\n    tag_149:\n        /* \"#utility.yul\":7340:7350   */\n      0x53656e6420455448000000000000000000000000000000000000000000000000\n        /* \"#utility.yul\":7336:7337   */\n      0x00\n        /* \"#utility.yul\":7328:7334   */\n      dup3\n        /* \"#utility.yul\":7324:7338   */\n      add\n        /* \"#utility.yul\":7317:7351   */\n      mstore\n        /* \"#utility.yul\":7200:7358   */\n      pop\n      jump\t// out\n        /* \"#utility.yul\":7364:7729   */\n    tag_150:\n        /* \"#utility.yul\":7506:7509   */\n      0x00\n        /* \"#utility.yul\":7527:7593   */\n      tag_236\n        /* \"#utility.yul\":7591:7592   */\n      0x08\n        /* \"#utility.yul\":7586:7589   */\n      dup4\n        /* \"#utility.yul\":7527:7593   */\n      tag_139\n      jump\t// in\n    tag_236:\n        /* \"#utility.yul\":7520:7593   */\n      swap2\n      pop\n        /* \"#utility.yul\":7602:7695   */\n      tag_237\n        /* \"#utility.yul\":7691:7694   */\n      dup3\n        /* \"#utility.yul\":7602:7695   */\n      tag_149\n      jump\t// in\n    tag_237:\n        /* \"#utility.yul\":7720:7722   */\n      0x20\n        /* \"#utility.yul\":7715:7718   */\n      dup3\n        /* \"#utility.yul\":7711:7723   */\n      add\n        /* \"#utility.yul\":7704:7723   */\n      swap1\n      pop\n        /* \"#utility.yul\":7364:7729   */\n      swap2\n      swap1\n      pop\n      jump\t// out\n        /* \"#utility.yul\":7735:8154   */\n    tag_78:\n        /* \"#utility.yul\":7901:7905   */\n      0x00\n        /* \"#utility.yul\":7939:7941   */\n      0x20\n        /* \"#utility.yul\":7928:7937   */\n      dup3\n        /* \"#utility.yul\":7924:7942   */\n      add\n        /* \"#utility.yul\":7916:7942   */\n      swap1\n      pop\n        /* \"#utility.yul\":7988:7997   */\n      dup2\n        /* \"#utility.yul\":7982:7986   */\n      dup2\n        /* \"#utility.yul\":7978:7998   */\n      sub\n        /* \"#utility.yul\":7974:7975   */\n      0x00\n        /* \"#utility.yul\":7963:7972   */\n      dup4\n        /* \"#utility.yul\":7959:7976   */\n      add\n        /* \"#utility.yul\":7952:7999   */\n      mstore\n        /* \"#utility.yul\":8016:8147   */\n      tag_239\n        /* \"#utility.yul\":8142:8146   */\n      dup2\n        /* \"#utility.yul\":8016:8147   */\n      tag_150\n      jump\t// in\n    tag_239:\n        /* \"#utility.yul\":8008:8147   */\n      swap1\n      pop\n        /* \"#utility.yul\":7735:8154   */\n      swap2\n      swap1\n      pop\n      jump\t// out\n        /* \"#utility.yul\":8160:8325   */\n    tag_151:\n        /* \"#utility.yul\":8300:8317   */\n      0x496e76616c696420616464726573730000000000000000000000000000000000\n        /* \"#utility.yul\":8296:8297   */\n      0x00\n        /* \"#utility.yul\":8288:8294   */\n      dup3\n        /* \"#utility.yul\":8284:8298   */\n      add\n        /* \"#utility.yul\":8277:8318   */\n      mstore\n        /* \"#utility.yul\":8160:8325   */\n      pop\n      jump\t// out\n        /* \"#utility.yul\":8331:8697   */\n    tag_152:\n        /* \"#utility.yul\":8473:8476   */\n      0x00\n        /* \"#utility.yul\":8494:8561   */\n      tag_242\n        /* \"#utility.yul\":8558:8560   */\n      0x0f\n        /* \"#utility.yul\":8553:8556   */\n      dup4\n        /* \"#utility.yul\":8494:8561   */\n      tag_139\n      jump\t// in\n    tag_242:\n        /* \"#utility.yul\":8487:8561   */\n      swap2\n      pop\n        /* \"#utility.yul\":8570:8663   */\n      tag_243\n        /* \"#utility.yul\":8659:8662   */\n      dup3\n        /* \"#utility.yul\":8570:8663   */\n      tag_151\n      jump\t// in\n    tag_243:\n        /* \"#utility.yul\":8688:8690   */\n      0x20\n        /* \"#utility.yul\":8683:8686   */\n      dup3\n        /* \"#utility.yul\":8679:8691   */\n      add\n        /* \"#utility.yul\":8672:8691   */\n      swap1\n      pop\n        /* \"#utility.yul\":8331:8697   */\n      swap2\n      swap1\n      pop\n      jump\t// out\n        /* \"#utility.yul\":8703:9122   */\n    tag_86:\n        /* \"#utility.yul\":8869:8873   */\n      0x00\n        /* \"#utility.yul\":8907:8909   */\n      0x20\n        /* \"#utility.yul\":8896:8905   */\n      dup3\n        /* \"#utility.yul\":8892:8910   */\n      add\n        /* \"#utility.yul\":8884:8910   */\n      swap1\n      pop\n        /* \"#utility.yul\":8956:8965   */\n      dup2\n        /* \"#utility.yul\":8950:8954   */\n      dup2\n        /* \"#utility.yul\":8946:8966   */\n      sub\n        /* \"#utility.yul\":8942:8943   */\n      0x00\n        /* \"#utility.yul\":8931:8940   */\n      dup4\n        /* \"#utility.yul\":8927:8944   */\n      add\n        /* \"#utility.yul\":8920:8967   */\n      mstore\n        /* \"#utility.yul\":8984:9115   */\n      tag_245\n        /* \"#utility.yul\":9110:9114   */\n      dup2\n        /* \"#utility.yul\":8984:9115   */\n      tag_152\n      jump\t// in\n    tag_245:\n        /* \"#utility.yul\":8976:9115   */\n      swap1\n      pop\n        /* \"#utility.yul\":8703:9122   */\n      swap2\n      swap1\n      pop\n      jump\t// out\n        /* \"#utility.yul\":9128:9308   */\n    tag_153:\n        /* \"#utility.yul\":9176:9253   */\n      0x4e487b7100000000000000000000000000000000000000000000000000000000\n        /* \"#utility.yul\":9173:9174   */\n      0x00\n        /* \"#utility.yul\":9166:9254   */\n      mstore\n        /* \"#utility.yul\":9273:9277   */\n      0x11\n        /* \"#utility.yul\":9270:9271   */\n      0x04\n        /* \"#utility.yul\":9263:9278   */\n      mstore\n        /* \"#utility.yul\":9297:9301   */\n      0x24\n        /* \"#utility.yul\":9294:9295   */\n      0x00\n        /* \"#utility.yul\":9287:9302   */\n      revert\n        /* \"#utility.yul\":9314:9724   */\n    tag_92:\n        /* \"#utility.yul\":9354:9361   */\n      0x00\n        /* \"#utility.yul\":9377:9397   */\n      tag_248\n        /* \"#utility.yul\":9395:9396   */\n      dup3\n        /* \"#utility.yul\":9377:9397   */\n      tag_126\n      jump\t// in\n    tag_248:\n        /* \"#utility.yul\":9372:9397   */\n      swap2\n      pop\n        /* \"#utility.yul\":9411:9431   */\n      tag_249\n        /* \"#utility.yul\":9429:9430   */\n      dup4\n        /* \"#utility.yul\":9411:9431   */\n      tag_126\n      jump\t// in\n    tag_249:\n        /* \"#utility.yul\":9406:9431   */\n      swap3\n      pop\n        /* \"#utility.yul\":9466:9467   */\n      dup3\n        /* \"#utility.yul\":9463:9464   */\n      dup3\n        /* \"#utility.yul\":9459:9468   */\n      mul\n        /* \"#utility.yul\":9488:9518   */\n      tag_250\n        /* \"#utility.yul\":9506:9517   */\n      dup2\n        /* \"#utility.yul\":9488:9518   */\n      tag_126\n      jump\t// in\n    tag_250:\n        /* \"#utility.yul\":9477:9518   */\n      swap2\n      pop\n        /* \"#utility.yul\":9667:9668   */\n      dup3\n        /* \"#utility.yul\":9658:9665   */\n      dup3\n        /* \"#utility.yul\":9654:9669   */\n      div\n        /* \"#utility.yul\":9651:9652   */\n      dup5\n        /* \"#utility.yul\":9648:9670   */\n      eq\n        /* \"#utility.yul\":9628:9629   */\n      dup4\n        /* \"#utility.yul\":9621:9630   */\n      iszero\n        /* \"#utility.yul\":9601:9684   */\n      or\n        /* \"#utility.yul\":9578:9717   */\n      tag_251\n      jumpi\n        /* \"#utility.yul\":9697:9715   */\n      tag_252\n      tag_153\n      jump\t// in\n    tag_252:\n        /* \"#utility.yul\":9578:9717   */\n    tag_251:\n        /* \"#utility.yul\":9362:9724   */\n      pop\n        /* \"#utility.yul\":9314:9724   */\n      swap3\n      swap2\n      pop\n      pop\n      jump\t// out\n        /* \"#utility.yul\":9730:9910   */\n    tag_154:\n        /* \"#utility.yul\":9778:9855   */\n      0x4e487b7100000000000000000000000000000000000000000000000000000000\n        /* \"#utility.yul\":9775:9776   */\n      0x00\n        /* \"#utility.yul\":9768:9856   */\n      mstore\n        /* \"#utility.yul\":9875:9879   */\n      0x12\n        /* \"#utility.yul\":9872:9873   */\n      0x04\n        /* \"#utility.yul\":9865:9880   */\n      mstore\n        /* \"#utility.yul\":9899:9903   */\n      0x24\n        /* \"#utility.yul\":9896:9897   */\n      0x00\n        /* \"#utility.yul\":9889:9904   */\n      revert\n        /* \"#utility.yul\":9916:10101   */\n    tag_94:\n        /* \"#utility.yul\":9956:9957   */\n      0x00\n        /* \"#utility.yul\":9973:9993   */\n      tag_255\n        /* \"#utility.yul\":9991:9992   */\n      dup3\n        /* \"#utility.yul\":9973:9993   */\n      tag_126\n      jump\t// in\n    tag_255:\n        /* \"#utility.yul\":9968:9993   */\n      swap2\n      pop\n        /* \"#utility.yul\":10007:10027   */\n      tag_256\n        /* \"#utility.yul\":10025:10026   */\n      dup4\n        /* \"#utility.yul\":10007:10027   */\n      tag_126\n      jump\t// in\n    tag_256:\n        /* \"#utility.yul\":10002:10027   */\n      swap3\n      pop\n        /* \"#utility.yul\":10046:10047   */\n      dup3\n        /* \"#utility.yul\":10036:10071   */\n      tag_257\n      jumpi\n        /* \"#utility.yul\":10051:10069   */\n      tag_258\n      tag_154\n      jump\t// in\n    tag_258:\n        /* \"#utility.yul\":10036:10071   */\n    tag_257:\n        /* \"#utility.yul\":10093:10094   */\n      dup3\n        /* \"#utility.yul\":10090:10091   */\n      dup3\n        /* \"#utility.yul\":10086:10095   */\n      div\n        /* \"#utility.yul\":10081:10095   */\n      swap1\n      pop\n        /* \"#utility.yul\":9916:10101   */\n      swap3\n      swap2\n      pop\n      pop\n      jump\t// out\n        /* \"#utility.yul\":10107:10439   */\n    tag_109:\n        /* \"#utility.yul\":10228:10232   */\n      0x00\n        /* \"#utility.yul\":10266:10268   */\n      0x40\n        /* \"#utility.yul\":10255:10264   */\n      dup3\n        /* \"#utility.yul\":10251:10269   */\n      add\n        /* \"#utility.yul\":10243:10269   */\n      swap1\n      pop\n        /* \"#utility.yul\":10279:10350   */\n      tag_260\n        /* \"#utility.yul\":10347:10348   */\n      0x00\n        /* \"#utility.yul\":10336:10345   */\n      dup4\n        /* \"#utility.yul\":10332:10349   */\n      add\n        /* \"#utility.yul\":10323:10329   */\n      dup6\n        /* \"#utility.yul\":10279:10350   */\n      tag_127\n      jump\t// in\n    tag_260:\n        /* \"#utility.yul\":10360:10432   */\n      tag_261\n        /* \"#utility.yul\":10428:10430   */\n      0x20\n        /* \"#utility.yul\":10417:10426   */\n      dup4\n        /* \"#utility.yul\":10413:10431   */\n      add\n        /* \"#utility.yul\":10404:10410   */\n      dup5\n        /* \"#utility.yul\":10360:10432   */\n      tag_127\n      jump\t// in\n    tag_261:\n        /* \"#utility.yul\":10107:10439   */\n      swap4\n      swap3\n      pop\n      pop\n      pop\n      jump\t// out\n        /* \"#utility.yul\":10445:10613   */\n    tag_155:\n        /* \"#utility.yul\":10585:10605   */\n      0x4e6f2045544820746f2077697468647261770000000000000000000000000000\n        /* \"#utility.yul\":10581:10582   */\n      0x00\n        /* \"#utility.yul\":10573:10579   */\n      dup3\n        /* \"#utility.yul\":10569:10583   */\n      add\n        /* \"#utility.yul\":10562:10606   */\n      mstore\n        /* \"#utility.yul\":10445:10613   */\n      pop\n      jump\t// out\n        /* \"#utility.yul\":10619:10985   */\n    tag_156:\n        /* \"#utility.yul\":10761:10764   */\n      0x00\n        /* \"#utility.yul\":10782:10849   */\n      tag_264\n        /* \"#utility.yul\":10846:10848   */\n      0x12\n        /* \"#utility.yul\":10841:10844   */\n      dup4\n        /* \"#utility.yul\":10782:10849   */\n      tag_139\n      jump\t// in\n    tag_264:\n        /* \"#utility.yul\":10775:10849   */\n      swap2\n      pop\n        /* \"#utility.yul\":10858:10951   */\n      tag_265\n        /* \"#utility.yul\":10947:10950   */\n      dup3\n        /* \"#utility.yul\":10858:10951   */\n      tag_155\n      jump\t// in\n    tag_265:\n        /* \"#utility.yul\":10976:10978   */\n      0x20\n        /* \"#utility.yul\":10971:10974   */\n      dup3\n        /* \"#utility.yul\":10967:10979   */\n      add\n        /* \"#utility.yul\":10960:10979   */\n      swap1\n      pop\n        /* \"#utility.yul\":10619:10985   */\n      swap2\n      swap1\n      pop\n      jump\t// out\n        /* \"#utility.yul\":10991:11410   */\n    tag_116:\n        /* \"#utility.yul\":11157:11161   */\n      0x00\n        /* \"#utility.yul\":11195:11197   */\n      0x20\n        /* \"#utility.yul\":11184:11193   */\n      dup3\n        /* \"#utility.yul\":11180:11198   */\n      add\n        /* \"#utility.yul\":11172:11198   */\n      swap1\n      pop\n        /* \"#utility.yul\":11244:11253   */\n      dup2\n        /* \"#utility.yul\":11238:11242   */\n      dup2\n        /* \"#utility.yul\":11234:11254   */\n      sub\n        /* \"#utility.yul\":11230:11231   */\n      0x00\n        /* \"#utility.yul\":11219:11228   */\n      dup4\n        /* \"#utility.yul\":11215:11232   */\n      add\n        /* \"#utility.yul\":11208:11255   */\n      mstore\n        /* \"#utility.yul\":11272:11403   */\n      tag_267\n        /* \"#utility.yul\":11398:11402   */\n      dup2\n        /* \"#utility.yul\":11272:11403   */\n      tag_156\n      jump\t// in\n    tag_267:\n        /* \"#utility.yul\":11264:11403   */\n      swap1\n      pop\n        /* \"#utility.yul\":10991:11410   */\n      swap2\n      swap1\n      pop\n      jump\t// out\n        /* \"#utility.yul\":11416:11563   */\n    tag_157:\n        /* \"#utility.yul\":11517:11528   */\n      0x00\n        /* \"#utility.yul\":11554:11557   */\n      dup2\n        /* \"#utility.yul\":11539:11557   */\n      swap1\n      pop\n        /* \"#utility.yul\":11416:11563   */\n      swap3\n      swap2\n      pop\n      pop\n      jump\t// out\n        /* \"#utility.yul\":11569:11683   */\n    tag_158:\n      pop\n      jump\t// out\n        /* \"#utility.yul\":11689:12087   */\n    tag_159:\n        /* \"#utility.yul\":11848:11851   */\n      0x00\n        /* \"#utility.yul\":11869:11952   */\n      tag_271\n        /* \"#utility.yul\":11950:11951   */\n      0x00\n        /* \"#utility.yul\":11945:11948   */\n      dup4\n        /* \"#utility.yul\":11869:11952   */\n      tag_157\n      jump\t// in\n    tag_271:\n        /* \"#utility.yul\":11862:11952   */\n      swap2\n      pop\n        /* \"#utility.yul\":11961:12054   */\n      tag_272\n        /* \"#utility.yul\":12050:12053   */\n      dup3\n        /* \"#utility.yul\":11961:12054   */\n      tag_158\n      jump\t// in\n    tag_272:\n        /* \"#utility.yul\":12079:12080   */\n      0x00\n        /* \"#utility.yul\":12074:12077   */\n      dup3\n        /* \"#utility.yul\":12070:12081   */\n      add\n        /* \"#utility.yul\":12063:12081   */\n      swap1\n      pop\n        /* \"#utility.yul\":11689:12087   */\n      swap2\n      swap1\n      pop\n      jump\t// out\n        /* \"#utility.yul\":12093:12472   */\n    tag_118:\n        /* \"#utility.yul\":12277:12280   */\n      0x00\n        /* \"#utility.yul\":12299:12446   */\n      tag_274\n        /* \"#utility.yul\":12442:12445   */\n      dup3\n        /* \"#utility.yul\":12299:12446   */\n      tag_159\n      jump\t// in\n    tag_274:\n        /* \"#utility.yul\":12292:12446   */\n      swap2\n      pop\n        /* \"#utility.yul\":12463:12466   */\n      dup2\n        /* \"#utility.yul\":12456:12466   */\n      swap1\n      pop\n        /* \"#utility.yul\":12093:12472   */\n      swap2\n      swap1\n      pop\n      jump\t// out\n        /* \"#utility.yul\":12478:12647   */\n    tag_160:\n        /* \"#utility.yul\":12618:12639   */\n      0x455448207472616e73666572206661696c656400000000000000000000000000\n        /* \"#utility.yul\":12614:12615   */\n      0x00\n        /* \"#utility.yul\":12606:12612   */\n      dup3\n        /* \"#utility.yul\":12602:12616   */\n      add\n        /* \"#utility.yul\":12595:12640   */\n      mstore\n        /* \"#utility.yul\":12478:12647   */\n      pop\n      jump\t// out\n        /* \"#utility.yul\":12653:13019   */\n    tag_161:\n        /* \"#utility.yul\":12795:12798   */\n      0x00\n        /* \"#utility.yul\":12816:12883   */\n      tag_277\n        /* \"#utility.yul\":12880:12882   */\n      0x13\n        /* \"#utility.yul\":12875:12878   */\n      dup4\n        /* \"#utility.yul\":12816:12883   */\n      tag_139\n      jump\t// in\n    tag_277:\n        /* \"#utility.yul\":12809:12883   */\n      swap2\n      pop\n        /* \"#utility.yul\":12892:12985   */\n      tag_278\n        /* \"#utility.yul\":12981:12984   */\n      dup3\n        /* \"#utility.yul\":12892:12985   */\n      tag_160\n      jump\t// in\n    tag_278:\n        /* \"#utility.yul\":13010:13012   */\n      0x20\n        /* \"#utility.yul\":13005:13008   */\n      dup3\n        /* \"#utility.yul\":13001:13013   */\n      add\n        /* \"#utility.yul\":12994:13013   */\n      swap1\n      pop\n        /* \"#utility.yul\":12653:13019   */\n      swap2\n      swap1\n      pop\n      jump\t// out\n        /* \"#utility.yul\":13025:13444   */\n    tag_124:\n        /* \"#utility.yul\":13191:13195   */\n      0x00\n        /* \"#utility.yul\":13229:13231   */\n      0x20\n        /* \"#utility.yul\":13218:13227   */\n      dup3\n        /* \"#utility.yul\":13214:13232   */\n      add\n        /* \"#utility.yul\":13206:13232   */\n      swap1\n      pop\n        /* \"#utility.yul\":13278:13287   */\n      dup2\n        /* \"#utility.yul\":13272:13276   */\n      dup2\n        /* \"#utility.yul\":13268:13288   */\n      sub\n        /* \"#utility.yul\":13264:13265   */\n      0x00\n        /* \"#utility.yul\":13253:13262   */\n      dup4\n        /* \"#utility.yul\":13249:13266   */\n      add\n        /* \"#utility.yul\":13242:13289   */\n      mstore\n        /* \"#utility.yul\":13306:13437   */\n      tag_280\n        /* \"#utility.yul\":13432:13436   */\n      dup2\n        /* \"#utility.yul\":13306:13437   */\n      tag_161\n      jump\t// in\n    tag_280:\n        /* \"#utility.yul\":13298:13437   */\n      swap1\n      pop\n        /* \"#utility.yul\":13025:13444   */\n      swap2\n      swap1\n      pop\n      jump\t// out\n\n    auxdata: 0xa264697066735822122017fb6416c210c946f66b1c06fc6a2264097179653193c3ff6fffd337c609a21b64736f6c634300081e0033\n}\n",
				"bytecode": {
					"linkReferences": {},
					"object": "608060405234801561001057600080fd5b506040516115bf3803806115bf83398181016040528101906100329190610219565b600073ffffffffffffffffffffffffffffffffffffffff168273ffffffffffffffffffffffffffffffffffffffff16036100a1576040517f08c379a0000000000000000000000000000000000000000000000000000000008152600401610098906102b6565b60405180910390fd5b6000811180156100b2575060648111155b6100f1576040517f08c379a00000000000000000000000000000000000000000000000000000000081526004016100e890610322565b60405180910390fd5b336000806101000a81548173ffffffffffffffffffffffffffffffffffffffff021916908373ffffffffffffffffffffffffffffffffffffffff16021790555081600160006101000a81548173ffffffffffffffffffffffffffffffffffffffff021916908373ffffffffffffffffffffffffffffffffffffffff160217905550806002819055505050610342565b600080fd5b600073ffffffffffffffffffffffffffffffffffffffff82169050919050565b60006101b082610185565b9050919050565b6101c0816101a5565b81146101cb57600080fd5b50565b6000815190506101dd816101b7565b92915050565b6000819050919050565b6101f6816101e3565b811461020157600080fd5b50565b600081519050610213816101ed565b92915050565b600080604083850312156102305761022f610180565b5b600061023e858286016101ce565b925050602061024f85828601610204565b9150509250929050565b600082825260208201905092915050565b7f496e76616c696420746f6b656e00000000000000000000000000000000000000600082015250565b60006102a0600d83610259565b91506102ab8261026a565b602082019050919050565b600060208201905081810360008301526102cf81610293565b9050919050565b7f496e76616c69642070657263656e746167650000000000000000000000000000600082015250565b600061030c601283610259565b9150610317826102d6565b602082019050919050565b6000602082019050818103600083015261033b816102ff565b9050919050565b61126e806103516000396000f3fe60806040526004361061007f5760003560e01c8063bfdc3ec61161004e578063bfdc3ec614610135578063c518978714610153578063c5d9b4041461017e578063e086e5ec146101a757610086565b806312065fe01461008b578063315a095d146100b65780638da5cb5b146100df5780639d76ea581461010a57610086565b3661008657005b600080fd5b34801561009757600080fd5b506100a06101be565b6040516100ad9190610bf5565b60405180910390f35b3480156100c257600080fd5b506100dd60048036038101906100d89190610c41565b610261565b005b3480156100eb57600080fd5b506100f46104a8565b6040516101019190610caf565b60405180910390f35b34801561011657600080fd5b5061011f6104cc565b60405161012c9190610caf565b60405180910390f35b61013d6104f2565b60405161014a9190610bf5565b60405180910390f35b34801561015f57600080fd5b506101686106a2565b6040516101759190610bf5565b60405180910390f35b34801561018a57600080fd5b506101a560048036038101906101a09190610cf6565b6106a8565b005b3480156101b357600080fd5b506101bc6109c7565b005b6000600160009054906101000a900473ffffffffffffffffffffffffffffffffffffffff1673ffffffffffffffffffffffffffffffffffffffff166370a08231306040518263ffffffff1660e01b815260040161021b9190610caf565b602060405180830381865afa158015610238573d6000803e3d6000fd5b505050506040513d601f19601f8201168201806040525081019061025c9190610d38565b905090565b60008054906101000a900473ffffffffffffffffffffffffffffffffffffffff1673ffffffffffffffffffffffffffffffffffffffff163373ffffffffffffffffffffffffffffffffffffffff16146102ef576040517f08c379a00000000000000000000000000000000000000000000000000000000081526004016102e690610dc2565b60405180910390fd5b60008111610332576040517f08c379a000000000000000000000000000000000000000000000000000000000815260040161032990610e2e565b60405180910390fd5b6000600160009054906101000a900473ffffffffffffffffffffffffffffffffffffffff1690508073ffffffffffffffffffffffffffffffffffffffff1663a9059cbb60008054906101000a900473ffffffffffffffffffffffffffffffffffffffff16846040518363ffffffff1660e01b81526004016103b4929190610e4e565b6020604051808303816000875af11580156103d3573d6000803e3d6000fd5b505050506040513d601f19601f820116820180604052508101906103f79190610eaf565b610436576040517f08c379a000000000000000000000000000000000000000000000000000000000815260040161042d90610f28565b60405180910390fd5b60008054906101000a900473ffffffffffffffffffffffffffffffffffffffff1673ffffffffffffffffffffffffffffffffffffffff167f6352c5382c4a4578e712449ca65e83cdb392d045dfcf1cad9615189db2da244b8360405161049c9190610bf5565b60405180910390a25050565b60008054906101000a900473ffffffffffffffffffffffffffffffffffffffff1681565b600160009054906101000a900473ffffffffffffffffffffffffffffffffffffffff1681565b60008060009054906101000a900473ffffffffffffffffffffffffffffffffffffffff1673ffffffffffffffffffffffffffffffffffffffff163373ffffffffffffffffffffffffffffffffffffffff1614610583576040517f08c379a000000000000000000000000000000000000000000000000000000000815260040161057a90610dc2565b60405180910390fd5b600034116105c6576040517f08c379a00000000000000000000000000000000000000000000000000000000081526004016105bd90610f94565b60405180910390fd5b6000600160009054906101000a900473ffffffffffffffffffffffffffffffffffffffff16905060008173ffffffffffffffffffffffffffffffffffffffff1663d0febe4c346040518263ffffffff1660e01b815260040160206040518083038185885af115801561063c573d6000803e3d6000fd5b50505050506040513d601f19601f820116820180604052508101906106619190610d38565b90507faaaa6e3bc80153b51330f05cf900a13fe42bc5d0d74ac0dffc07ab9b8ebb3cf6816040516106929190610bf5565b60405180910390a1809250505090565b60025481565b600073ffffffffffffffffffffffffffffffffffffffff168173ffffffffffffffffffffffffffffffffffffffff1603610717576040517f08c379a000000000000000000000000000000000000000000000000000000000815260040161070e90611000565b60405180910390fd5b6000600160009054906101000a900473ffffffffffffffffffffffffffffffffffffffff16905060008173ffffffffffffffffffffffffffffffffffffffff166370a08231846040518263ffffffff1660e01b81526004016107799190610caf565b602060405180830381865afa158015610796573d6000803e3d6000fd5b505050506040513d601f19601f820116820180604052508101906107ba9190610d38565b905060006064600254836107ce919061104f565b6107d891906110c0565b905060008373ffffffffffffffffffffffffffffffffffffffff166370a08231306040518263ffffffff1660e01b81526004016108159190610caf565b602060405180830381865afa158015610832573d6000803e3d6000fd5b505050506040513d601f19601f820116820180604052508101906108569190610d38565b905081811061096f578373ffffffffffffffffffffffffffffffffffffffff1663a9059cbb86846040518363ffffffff1660e01b815260040161089a929190610e4e565b6020604051808303816000875af11580156108b9573d6000803e3d6000fd5b505050506040513d601f19601f820116820180604052508101906108dd9190610eaf565b61091c576040517f08c379a000000000000000000000000000000000000000000000000000000000815260040161091390610f28565b60405180910390fd5b8473ffffffffffffffffffffffffffffffffffffffff167f7661ea217478035e90bae67523e9e3cfc45cb3ffb77fe110fcfff561a7bdea69836040516109629190610bf5565b60405180910390a26109c0565b8473ffffffffffffffffffffffffffffffffffffffff167f1cda4d9606bff94fbe49ed061650c09fe416854c544c149c86812ca174ecac8983836040516109b79291906110f1565b60405180910390a25b5050505050565b60008054906101000a900473ffffffffffffffffffffffffffffffffffffffff1673ffffffffffffffffffffffffffffffffffffffff163373ffffffffffffffffffffffffffffffffffffffff1614610a55576040517f08c379a0000000000000000000000000000000000000000000000000000000008152600401610a4c90610dc2565b60405180910390fd5b600047905060008111610a9d576040517f08c379a0000000000000000000000000000000000000000000000000000000008152600401610a9490611166565b60405180910390fd5b60008060009054906101000a900473ffffffffffffffffffffffffffffffffffffffff1673ffffffffffffffffffffffffffffffffffffffff1682604051610ae4906111b7565b60006040518083038185875af1925050503d8060008114610b21576040519150601f19603f3d011682016040523d82523d6000602084013e610b26565b606091505b5050905080610b6a576040517f08c379a0000000000000000000000000000000000000000000000000000000008152600401610b6190611218565b60405180910390fd5b60008054906101000a900473ffffffffffffffffffffffffffffffffffffffff1673ffffffffffffffffffffffffffffffffffffffff167f94b2de810873337ed265c5f8cf98c9cffefa06b8607f9a2f1fbaebdfbcfbef1c83604051610bd09190610bf5565b60405180910390a25050565b6000819050919050565b610bef81610bdc565b82525050565b6000602082019050610c0a6000830184610be6565b92915050565b600080fd5b610c1e81610bdc565b8114610c2957600080fd5b50565b600081359050610c3b81610c15565b92915050565b600060208284031215610c5757610c56610c10565b5b6000610c6584828501610c2c565b91505092915050565b600073ffffffffffffffffffffffffffffffffffffffff82169050919050565b6000610c9982610c6e565b9050919050565b610ca981610c8e565b82525050565b6000602082019050610cc46000830184610ca0565b92915050565b610cd381610c8e565b8114610cde57600080fd5b50565b600081359050610cf081610cca565b92915050565b600060208284031215610d0c57610d0b610c10565b5b6000610d1a84828501610ce1565b91505092915050565b600081519050610d3281610c15565b92915050565b600060208284031215610d4e57610d4d610c10565b5b6000610d5c84828501610d23565b91505092915050565b600082825260208201905092915050565b7f4f6e6c79206f776e657200000000000000000000000000000000000000000000600082015250565b6000610dac600a83610d65565b9150610db782610d76565b602082019050919050565b60006020820190508181036000830152610ddb81610d9f565b9050919050565b7f496e76616c696420616d6f756e74000000000000000000000000000000000000600082015250565b6000610e18600e83610d65565b9150610e2382610de2565b602082019050919050565b60006020820190508181036000830152610e4781610e0b565b9050919050565b6000604082019050610e636000830185610ca0565b610e706020830184610be6565b9392505050565b60008115159050919050565b610e8c81610e77565b8114610e9757600080fd5b50565b600081519050610ea981610e83565b92915050565b600060208284031215610ec557610ec4610c10565b5b6000610ed384828501610e9a565b91505092915050565b7f5472616e73666572206661696c65640000000000000000000000000000000000600082015250565b6000610f12600f83610d65565b9150610f1d82610edc565b602082019050919050565b60006020820190508181036000830152610f4181610f05565b9050919050565b7f53656e6420455448000000000000000000000000000000000000000000000000600082015250565b6000610f7e600883610d65565b9150610f8982610f48565b602082019050919050565b60006020820190508181036000830152610fad81610f71565b9050919050565b7f496e76616c696420616464726573730000000000000000000000000000000000600082015250565b6000610fea600f83610d65565b9150610ff582610fb4565b602082019050919050565b6000602082019050818103600083015261101981610fdd565b9050919050565b7f4e487b7100000000000000000000000000000000000000000000000000000000600052601160045260246000fd5b600061105a82610bdc565b915061106583610bdc565b925082820261107381610bdc565b9150828204841483151761108a57611089611020565b5b5092915050565b7f4e487b7100000000000000000000000000000000000000000000000000000000600052601260045260246000fd5b60006110cb82610bdc565b91506110d683610bdc565b9250826110e6576110e5611091565b5b828204905092915050565b60006040820190506111066000830185610be6565b6111136020830184610be6565b9392505050565b7f4e6f2045544820746f2077697468647261770000000000000000000000000000600082015250565b6000611150601283610d65565b915061115b8261111a565b602082019050919050565b6000602082019050818103600083015261117f81611143565b9050919050565b600081905092915050565b50565b60006111a1600083611186565b91506111ac82611191565b600082019050919050565b60006111c282611194565b9150819050919050565b7f455448207472616e73666572206661696c656400000000000000000000000000600082015250565b6000611202601383610d65565b915061120d826111cc565b602082019050919050565b60006020820190508181036000830152611231816111f5565b905091905056fea264697066735822122017fb6416c210c946f66b1c06fc6a2264097179653193c3ff6fffd337c609a21b64736f6c634300081e0033",
					"opcodes": "PUSH1 0x80 PUSH1 0x40 MSTORE CALLVALUE DUP1 ISZERO PUSH2 0x10 JUMPI PUSH1 0x0 DUP1 REVERT JUMPDEST POP PUSH1 0x40 MLOAD PUSH2 0x15BF CODESIZE SUB DUP1 PUSH2 0x15BF DUP4 CODECOPY DUP2 DUP2 ADD PUSH1 0x40 MSTORE DUP2 ADD SWAP1 PUSH2 0x32 SWAP2 SWAP1 PUSH2 0x219 JUMP JUMPDEST PUSH1 0x0 PUSH20 0xFFFFFFFFFFFFFFFFFFFFFFFFFFFFFFFFFFFFFFFF AND DUP3 PUSH20 0xFFFFFFFFFFFFFFFFFFFFFFFFFFFFFFFFFFFFFFFF AND SUB PUSH2 0xA1 JUMPI PUSH1 0x40 MLOAD PUSH32 0x8C379A000000000000000000000000000000000000000000000000000000000 DUP2 MSTORE PUSH1 0x4 ADD PUSH2 0x98 SWAP1 PUSH2 0x2B6 JUMP JUMPDEST PUSH1 0x40 MLOAD DUP1 SWAP2 SUB SWAP1 REVERT JUMPDEST PUSH1 0x0 DUP2 GT DUP1 ISZERO PUSH2 0xB2 JUMPI POP PUSH1 0x64 DUP2 GT ISZERO JUMPDEST PUSH2 0xF1 JUMPI PUSH1 0x40 MLOAD PUSH32 0x8C379A000000000000000000000000000000000000000000000000000000000 DUP2 MSTORE PUSH1 0x4 ADD PUSH2 0xE8 SWAP1 PUSH2 0x322 JUMP JUMPDEST PUSH1 0x40 MLOAD DUP1 SWAP2 SUB SWAP1 REVERT JUMPDEST CALLER PUSH1 0x0 DUP1 PUSH2 0x100 EXP DUP2 SLOAD DUP2 PUSH20 0xFFFFFFFFFFFFFFFFFFFFFFFFFFFFFFFFFFFFFFFF MUL NOT AND SWAP1 DUP4 PUSH20 0xFFFFFFFFFFFFFFFFFFFFFFFFFFFFFFFFFFFFFFFF AND MUL OR SWAP1 SSTORE POP DUP2 PUSH1 0x1 PUSH1 0x0 PUSH2 0x100 EXP DUP2 SLOAD DUP2 PUSH20 0xFFFFFFFFFFFFFFFFFFFFFFFFFFFFFFFFFFFFFFFF MUL NOT AND SWAP1 DUP4 PUSH20 0xFFFFFFFFFFFFFFFFFFFFFFFFFFFFFFFFFFFFFFFF AND MUL OR SWAP1 SSTORE POP DUP1 PUSH1 0x2 DUP2 SWAP1 SSTORE POP POP POP PUSH2 0x342 JUMP JUMPDEST PUSH1 0x0 DUP1 REVERT JUMPDEST PUSH1 0x0 PUSH20 0xFFFFFFFFFFFFFFFFFFFFFFFFFFFFFFFFFFFFFFFF DUP3 AND SWAP1 POP SWAP2 SWAP1 POP JUMP JUMPDEST PUSH1 0x0 PUSH2 0x1B0 DUP3 PUSH2 0x185 JUMP JUMPDEST SWAP1 POP SWAP2 SWAP1 POP JUMP JUMPDEST PUSH2 0x1C0 DUP2 PUSH2 0x1A5 JUMP JUMPDEST DUP2 EQ PUSH2 0x1CB JUMPI PUSH1 0x0 DUP1 REVERT JUMPDEST POP JUMP JUMPDEST PUSH1 0x0 DUP2 MLOAD SWAP1 POP PUSH2 0x1DD DUP2 PUSH2 0x1B7 JUMP JUMPDEST SWAP3 SWAP2 POP POP JUMP JUMPDEST PUSH1 0x0 DUP2 SWAP1 POP SWAP2 SWAP1 POP JUMP JUMPDEST PUSH2 0x1F6 DUP2 PUSH2 0x1E3 JUMP JUMPDEST DUP2 EQ PUSH2 0x201 JUMPI PUSH1 0x0 DUP1 REVERT JUMPDEST POP JUMP JUMPDEST PUSH1 0x0 DUP2 MLOAD SWAP1 POP PUSH2 0x213 DUP2 PUSH2 0x1ED JUMP JUMPDEST SWAP3 SWAP2 POP POP JUMP JUMPDEST PUSH1 0x0 DUP1 PUSH1 0x40 DUP4 DUP6 SUB SLT ISZERO PUSH2 0x230 JUMPI PUSH2 0x22F PUSH2 0x180 JUMP JUMPDEST JUMPDEST PUSH1 0x0 PUSH2 0x23E DUP6 DUP3 DUP7 ADD PUSH2 0x1CE JUMP JUMPDEST SWAP3 POP POP PUSH1 0x20 PUSH2 0x24F DUP6 DUP3 DUP7 ADD PUSH2 0x204 JUMP JUMPDEST SWAP2 POP POP SWAP3 POP SWAP3 SWAP1 POP JUMP JUMPDEST PUSH1 0x0 DUP3 DUP3 MSTORE PUSH1 0x20 DUP3 ADD SWAP1 POP SWAP3 SWAP2 POP POP JUMP JUMPDEST PUSH32 0x496E76616C696420746F6B656E00000000000000000000000000000000000000 PUSH1 0x0 DUP3 ADD MSTORE POP JUMP JUMPDEST PUSH1 0x0 PUSH2 0x2A0 PUSH1 0xD DUP4 PUSH2 0x259 JUMP JUMPDEST SWAP2 POP PUSH2 0x2AB DUP3 PUSH2 0x26A JUMP JUMPDEST PUSH1 0x20 DUP3 ADD SWAP1 POP SWAP2 SWAP1 POP JUMP JUMPDEST PUSH1 0x0 PUSH1 0x20 DUP3 ADD SWAP1 POP DUP2 DUP2 SUB PUSH1 0x0 DUP4 ADD MSTORE PUSH2 0x2CF DUP2 PUSH2 0x293 JUMP JUMPDEST SWAP1 POP SWAP2 SWAP1 POP JUMP JUMPDEST PUSH32 0x496E76616C69642070657263656E746167650000000000000000000000000000 PUSH1 0x0 DUP3 ADD MSTORE POP JUMP JUMPDEST PUSH1 0x0 PUSH2 0x30C PUSH1 0x12 DUP4 PUSH2 0x259 JUMP JUMPDEST SWAP2 POP PUSH2 0x317 DUP3 PUSH2 0x2D6 JUMP JUMPDEST PUSH1 0x20 DUP3 ADD SWAP1 POP SWAP2 SWAP1 POP JUMP JUMPDEST PUSH1 0x0 PUSH1 0x20 DUP3 ADD SWAP1 POP DUP2 DUP2 SUB PUSH1 0x0 DUP4 ADD MSTORE PUSH2 0x33B DUP2 PUSH2 0x2FF JUMP JUMPDEST SWAP1 POP SWAP2 SWAP1 POP JUMP JUMPDEST PUSH2 0x126E DUP1 PUSH2 0x351 PUSH1 0x0 CODECOPY PUSH1 0x0 RETURN INVALID PUSH1 0x80 PUSH1 0x40 MSTORE PUSH1 0x4 CALLDATASIZE LT PUSH2 0x7F JUMPI PUSH1 0x0 CALLDATALOAD PUSH1 0xE0 SHR DUP1 PUSH4 0xBFDC3EC6 GT PUSH2 0x4E JUMPI DUP1 PUSH4 0xBFDC3EC6 EQ PUSH2 0x135 JUMPI DUP1 PUSH4 0xC5189787 EQ PUSH2 0x153 JUMPI DUP1 PUSH4 0xC5D9B404 EQ PUSH2 0x17E JUMPI DUP1 PUSH4 0xE086E5EC EQ PUSH2 0x1A7 JUMPI PUSH2 0x86 JUMP JUMPDEST DUP1 PUSH4 0x12065FE0 EQ PUSH2 0x8B JUMPI DUP1 PUSH4 0x315A095D EQ PUSH2 0xB6 JUMPI DUP1 PUSH4 0x8DA5CB5B EQ PUSH2 0xDF JUMPI DUP1 PUSH4 0x9D76EA58 EQ PUSH2 0x10A JUMPI PUSH2 0x86 JUMP JUMPDEST CALLDATASIZE PUSH2 0x86 JUMPI STOP JUMPDEST PUSH1 0x0 DUP1 REVERT JUMPDEST CALLVALUE DUP1 ISZERO PUSH2 0x97 JUMPI PUSH1 0x0 DUP1 REVERT JUMPDEST POP PUSH2 0xA0 PUSH2 0x1BE JUMP JUMPDEST PUSH1 0x40 MLOAD PUSH2 0xAD SWAP2 SWAP1 PUSH2 0xBF5 JUMP JUMPDEST PUSH1 0x40 MLOAD DUP1 SWAP2 SUB SWAP1 RETURN JUMPDEST CALLVALUE DUP1 ISZERO PUSH2 0xC2 JUMPI PUSH1 0x0 DUP1 REVERT JUMPDEST POP PUSH2 0xDD PUSH1 0x4 DUP1 CALLDATASIZE SUB DUP2 ADD SWAP1 PUSH2 0xD8 SWAP2 SWAP1 PUSH2 0xC41 JUMP JUMPDEST PUSH2 0x261 JUMP JUMPDEST STOP JUMPDEST CALLVALUE DUP1 ISZERO PUSH2 0xEB JUMPI PUSH1 0x0 DUP1 REVERT JUMPDEST POP PUSH2 0xF4 PUSH2 0x4A8 JUMP JUMPDEST PUSH1 0x40 MLOAD PUSH2 0x101 SWAP2 SWAP1 PUSH2 0xCAF JUMP JUMPDEST PUSH1 0x40 MLOAD DUP1 SWAP2 SUB SWAP1 RETURN JUMPDEST CALLVALUE DUP1 ISZERO PUSH2 0x116 JUMPI PUSH1 0x0 DUP1 REVERT JUMPDEST POP PUSH2 0x11F PUSH2 0x4CC JUMP JUMPDEST PUSH1 0x40 MLOAD PUSH2 0x12C SWAP2 SWAP1 PUSH2 0xCAF JUMP JUMPDEST PUSH1 0x40 MLOAD DUP1 SWAP2 SUB SWAP1 RETURN JUMPDEST PUSH2 0x13D PUSH2 0x4F2 JUMP JUMPDEST PUSH1 0x40 MLOAD PUSH2 0x14A SWAP2 SWAP1 PUSH2 0xBF5 JUMP JUMPDEST PUSH1 0x40 MLOAD DUP1 SWAP2 SUB SWAP1 RETURN JUMPDEST CALLVALUE DUP1 ISZERO PUSH2 0x15F JUMPI PUSH1 0x0 DUP1 REVERT JUMPDEST POP PUSH2 0x168 PUSH2 0x6A2 JUMP JUMPDEST PUSH1 0x40 MLOAD PUSH2 0x175 SWAP2 SWAP1 PUSH2 0xBF5 JUMP JUMPDEST PUSH1 0x40 MLOAD DUP1 SWAP2 SUB SWAP1 RETURN JUMPDEST CALLVALUE DUP1 ISZERO PUSH2 0x18A JUMPI PUSH1 0x0 DUP1 REVERT JUMPDEST POP PUSH2 0x1A5 PUSH1 0x4 DUP1 CALLDATASIZE SUB DUP2 ADD SWAP1 PUSH2 0x1A0 SWAP2 SWAP1 PUSH2 0xCF6 JUMP JUMPDEST PUSH2 0x6A8 JUMP JUMPDEST STOP JUMPDEST CALLVALUE DUP1 ISZERO PUSH2 0x1B3 JUMPI PUSH1 0x0 DUP1 REVERT JUMPDEST POP PUSH2 0x1BC PUSH2 0x9C7 JUMP JUMPDEST STOP JUMPDEST PUSH1 0x0 PUSH1 0x1 PUSH1 0x0 SWAP1 SLOAD SWAP1 PUSH2 0x100 EXP SWAP1 DIV PUSH20 0xFFFFFFFFFFFFFFFFFFFFFFFFFFFFFFFFFFFFFFFF AND PUSH20 0xFFFFFFFFFFFFFFFFFFFFFFFFFFFFFFFFFFFFFFFF AND PUSH4 0x70A08231 ADDRESS PUSH1 0x40 MLOAD DUP3 PUSH4 0xFFFFFFFF AND PUSH1 0xE0 SHL DUP2 MSTORE PUSH1 0x4 ADD PUSH2 0x21B SWAP2 SWAP1 PUSH2 0xCAF JUMP JUMPDEST PUSH1 0x20 PUSH1 0x40 MLOAD DUP1 DUP4 SUB DUP2 DUP7 GAS STATICCALL ISZERO DUP1 ISZERO PUSH2 0x238 JUMPI RETURNDATASIZE PUSH1 0x0 DUP1 RETURNDATACOPY RETURNDATASIZE PUSH1 0x0 REVERT JUMPDEST POP POP POP POP PUSH1 0x40 MLOAD RETURNDATASIZE PUSH1 0x1F NOT PUSH1 0x1F DUP3 ADD AND DUP3 ADD DUP1 PUSH1 0x40 MSTORE POP DUP2 ADD SWAP1 PUSH2 0x25C SWAP2 SWAP1 PUSH2 0xD38 JUMP JUMPDEST SWAP1 POP SWAP1 JUMP JUMPDEST PUSH1 0x0 DUP1 SLOAD SWAP1 PUSH2 0x100 EXP SWAP1 DIV PUSH20 0xFFFFFFFFFFFFFFFFFFFFFFFFFFFFFFFFFFFFFFFF AND PUSH20 0xFFFFFFFFFFFFFFFFFFFFFFFFFFFFFFFFFFFFFFFF AND CALLER PUSH20 0xFFFFFFFFFFFFFFFFFFFFFFFFFFFFFFFFFFFFFFFF AND EQ PUSH2 0x2EF JUMPI PUSH1 0x40 MLOAD PUSH32 0x8C379A000000000000000000000000000000000000000000000000000000000 DUP2 MSTORE PUSH1 0x4 ADD PUSH2 0x2E6 SWAP1 PUSH2 0xDC2 JUMP JUMPDEST PUSH1 0x40 MLOAD DUP1 SWAP2 SUB SWAP1 REVERT JUMPDEST PUSH1 0x0 DUP2 GT PUSH2 0x332 JUMPI PUSH1 0x40 MLOAD PUSH32 0x8C379A000000000000000000000000000000000000000000000000000000000 DUP2 MSTORE PUSH1 0x4 ADD PUSH2 0x329 SWAP1 PUSH2 0xE2E JUMP JUMPDEST PUSH1 0x40 MLOAD DUP1 SWAP2 SUB SWAP1 REVERT JUMPDEST PUSH1 0x0 PUSH1 0x1 PUSH1 0x0 SWAP1 SLOAD SWAP1 PUSH2 0x100 EXP SWAP1 DIV PUSH20 0xFFFFFFFFFFFFFFFFFFFFFFFFFFFFFFFFFFFFFFFF AND SWAP1 POP DUP1 PUSH20 0xFFFFFFFFFFFFFFFFFFFFFFFFFFFFFFFFFFFFFFFF AND PUSH4 0xA9059CBB PUSH1 0x0 DUP1 SLOAD SWAP1 PUSH2 0x100 EXP SWAP1 DIV PUSH20 0xFFFFFFFFFFFFFFFFFFFFFFFFFFFFFFFFFFFFFFFF AND DUP5 PUSH1 0x40 MLOAD DUP4 PUSH4 0xFFFFFFFF AND PUSH1 0xE0 SHL DUP2 MSTORE PUSH1 0x4 ADD PUSH2 0x3B4 SWAP3 SWAP2 SWAP1 PUSH2 0xE4E JUMP JUMPDEST PUSH1 0x20 PUSH1 0x40 MLOAD DUP1 DUP4 SUB DUP2 PUSH1 0x0 DUP8 GAS CALL ISZERO DUP1 ISZERO PUSH2 0x3D3 JUMPI RETURNDATASIZE PUSH1 0x0 DUP1 RETURNDATACOPY RETURNDATASIZE PUSH1 0x0 REVERT JUMPDEST POP POP POP POP PUSH1 0x40 MLOAD RETURNDATASIZE PUSH1 0x1F NOT PUSH1 0x1F DUP3 ADD AND DUP3 ADD DUP1 PUSH1 0x40 MSTORE POP DUP2 ADD SWAP1 PUSH2 0x3F7 SWAP2 SWAP1 PUSH2 0xEAF JUMP JUMPDEST PUSH2 0x436 JUMPI PUSH1 0x40 MLOAD PUSH32 0x8C379A000000000000000000000000000000000000000000000000000000000 DUP2 MSTORE PUSH1 0x4 ADD PUSH2 0x42D SWAP1 PUSH2 0xF28 JUMP JUMPDEST PUSH1 0x40 MLOAD DUP1 SWAP2 SUB SWAP1 REVERT JUMPDEST PUSH1 0x0 DUP1 SLOAD SWAP1 PUSH2 0x100 EXP SWAP1 DIV PUSH20 0xFFFFFFFFFFFFFFFFFFFFFFFFFFFFFFFFFFFFFFFF AND PUSH20 0xFFFFFFFFFFFFFFFFFFFFFFFFFFFFFFFFFFFFFFFF AND PUSH32 0x6352C5382C4A4578E712449CA65E83CDB392D045DFCF1CAD9615189DB2DA244B DUP4 PUSH1 0x40 MLOAD PUSH2 0x49C SWAP2 SWAP1 PUSH2 0xBF5 JUMP JUMPDEST PUSH1 0x40 MLOAD DUP1 SWAP2 SUB SWAP1 LOG2 POP POP JUMP JUMPDEST PUSH1 0x0 DUP1 SLOAD SWAP1 PUSH2 0x100 EXP SWAP1 DIV PUSH20 0xFFFFFFFFFFFFFFFFFFFFFFFFFFFFFFFFFFFFFFFF AND DUP2 JUMP JUMPDEST PUSH1 0x1 PUSH1 0x0 SWAP1 SLOAD SWAP1 PUSH2 0x100 EXP SWAP1 DIV PUSH20 0xFFFFFFFFFFFFFFFFFFFFFFFFFFFFFFFFFFFFFFFF AND DUP2 JUMP JUMPDEST PUSH1 0x0 DUP1 PUSH1 0x0 SWAP1 SLOAD SWAP1 PUSH2 0x100 EXP SWAP1 DIV PUSH20 0xFFFFFFFFFFFFFFFFFFFFFFFFFFFFFFFFFFFFFFFF AND PUSH20 0xFFFFFFFFFFFFFFFFFFFFFFFFFFFFFFFFFFFFFFFF AND CALLER PUSH20 0xFFFFFFFFFFFFFFFFFFFFFFFFFFFFFFFFFFFFFFFF AND EQ PUSH2 0x583 JUMPI PUSH1 0x40 MLOAD PUSH32 0x8C379A000000000000000000000000000000000000000000000000000000000 DUP2 MSTORE PUSH1 0x4 ADD PUSH2 0x57A SWAP1 PUSH2 0xDC2 JUMP JUMPDEST PUSH1 0x40 MLOAD DUP1 SWAP2 SUB SWAP1 REVERT JUMPDEST PUSH1 0x0 CALLVALUE GT PUSH2 0x5C6 JUMPI PUSH1 0x40 MLOAD PUSH32 0x8C379A000000000000000000000000000000000000000000000000000000000 DUP2 MSTORE PUSH1 0x4 ADD PUSH2 0x5BD SWAP1 PUSH2 0xF94 JUMP JUMPDEST PUSH1 0x40 MLOAD DUP1 SWAP2 SUB SWAP1 REVERT JUMPDEST PUSH1 0x0 PUSH1 0x1 PUSH1 0x0 SWAP1 SLOAD SWAP1 PUSH2 0x100 EXP SWAP1 DIV PUSH20 0xFFFFFFFFFFFFFFFFFFFFFFFFFFFFFFFFFFFFFFFF AND SWAP1 POP PUSH1 0x0 DUP2 PUSH20 0xFFFFFFFFFFFFFFFFFFFFFFFFFFFFFFFFFFFFFFFF AND PUSH4 0xD0FEBE4C CALLVALUE PUSH1 0x40 MLOAD DUP3 PUSH4 0xFFFFFFFF AND PUSH1 0xE0 SHL DUP2 MSTORE PUSH1 0x4 ADD PUSH1 0x20 PUSH1 0x40 MLOAD DUP1 DUP4 SUB DUP2 DUP6 DUP9 GAS CALL ISZERO DUP1 ISZERO PUSH2 0x63C JUMPI RETURNDATASIZE PUSH1 0x0 DUP1 RETURNDATACOPY RETURNDATASIZE PUSH1 0x0 REVERT JUMPDEST POP POP POP POP POP PUSH1 0x40 MLOAD RETURNDATASIZE PUSH1 0x1F NOT PUSH1 0x1F DUP3 ADD AND DUP3 ADD DUP1 PUSH1 0x40 MSTORE POP DUP2 ADD SWAP1 PUSH2 0x661 SWAP2 SWAP1 PUSH2 0xD38 JUMP JUMPDEST SWAP1 POP PUSH32 0xAAAA6E3BC80153B51330F05CF900A13FE42BC5D0D74AC0DFFC07AB9B8EBB3CF6 DUP2 PUSH1 0x40 MLOAD PUSH2 0x692 SWAP2 SWAP1 PUSH2 0xBF5 JUMP JUMPDEST PUSH1 0x40 MLOAD DUP1 SWAP2 SUB SWAP1 LOG1 DUP1 SWAP3 POP POP POP SWAP1 JUMP JUMPDEST PUSH1 0x2 SLOAD DUP2 JUMP JUMPDEST PUSH1 0x0 PUSH20 0xFFFFFFFFFFFFFFFFFFFFFFFFFFFFFFFFFFFFFFFF AND DUP2 PUSH20 0xFFFFFFFFFFFFFFFFFFFFFFFFFFFFFFFFFFFFFFFF AND SUB PUSH2 0x717 JUMPI PUSH1 0x40 MLOAD PUSH32 0x8C379A000000000000000000000000000000000000000000000000000000000 DUP2 MSTORE PUSH1 0x4 ADD PUSH2 0x70E SWAP1 PUSH2 0x1000 JUMP JUMPDEST PUSH1 0x40 MLOAD DUP1 SWAP2 SUB SWAP1 REVERT JUMPDEST PUSH1 0x0 PUSH1 0x1 PUSH1 0x0 SWAP1 SLOAD SWAP1 PUSH2 0x100 EXP SWAP1 DIV PUSH20 0xFFFFFFFFFFFFFFFFFFFFFFFFFFFFFFFFFFFFFFFF AND SWAP1 POP PUSH1 0x0 DUP2 PUSH20 0xFFFFFFFFFFFFFFFFFFFFFFFFFFFFFFFFFFFFFFFF AND PUSH4 0x70A08231 DUP5 PUSH1 0x40 MLOAD DUP3 PUSH4 0xFFFFFFFF AND PUSH1 0xE0 SHL DUP2 MSTORE PUSH1 0x4 ADD PUSH2 0x779 SWAP2 SWAP1 PUSH2 0xCAF JUMP JUMPDEST PUSH1 0x20 PUSH1 0x40 MLOAD DUP1 DUP4 SUB DUP2 DUP7 GAS STATICCALL ISZERO DUP1 ISZERO PUSH2 0x796 JUMPI RETURNDATASIZE PUSH1 0x0 DUP1 RETURNDATACOPY RETURNDATASIZE PUSH1 0x0 REVERT JUMPDEST POP POP POP POP PUSH1 0x40 MLOAD RETURNDATASIZE PUSH1 0x1F NOT PUSH1 0x1F DUP3 ADD AND DUP3 ADD DUP1 PUSH1 0x40 MSTORE POP DUP2 ADD SWAP1 PUSH2 0x7BA SWAP2 SWAP1 PUSH2 0xD38 JUMP JUMPDEST SWAP1 POP PUSH1 0x0 PUSH1 0x64 PUSH1 0x2 SLOAD DUP4 PUSH2 0x7CE SWAP2 SWAP1 PUSH2 0x104F JUMP JUMPDEST PUSH2 0x7D8 SWAP2 SWAP1 PUSH2 0x10C0 JUMP JUMPDEST SWAP1 POP PUSH1 0x0 DUP4 PUSH20 0xFFFFFFFFFFFFFFFFFFFFFFFFFFFFFFFFFFFFFFFF AND PUSH4 0x70A08231 ADDRESS PUSH1 0x40 MLOAD DUP3 PUSH4 0xFFFFFFFF AND PUSH1 0xE0 SHL DUP2 MSTORE PUSH1 0x4 ADD PUSH2 0x815 SWAP2 SWAP1 PUSH2 0xCAF JUMP JUMPDEST PUSH1 0x20 PUSH1 0x40 MLOAD DUP1 DUP4 SUB DUP2 DUP7 GAS STATICCALL ISZERO DUP1 ISZERO PUSH2 0x832 JUMPI RETURNDATASIZE PUSH1 0x0 DUP1 RETURNDATACOPY RETURNDATASIZE PUSH1 0x0 REVERT JUMPDEST POP POP POP POP PUSH1 0x40 MLOAD RETURNDATASIZE PUSH1 0x1F NOT PUSH1 0x1F DUP3 ADD AND DUP3 ADD DUP1 PUSH1 0x40 MSTORE POP DUP2 ADD SWAP1 PUSH2 0x856 SWAP2 SWAP1 PUSH2 0xD38 JUMP JUMPDEST SWAP1 POP DUP2 DUP2 LT PUSH2 0x96F JUMPI DUP4 PUSH20 0xFFFFFFFFFFFFFFFFFFFFFFFFFFFFFFFFFFFFFFFF AND PUSH4 0xA9059CBB DUP7 DUP5 PUSH1 0x40 MLOAD DUP4 PUSH4 0xFFFFFFFF AND PUSH1 0xE0 SHL DUP2 MSTORE PUSH1 0x4 ADD PUSH2 0x89A SWAP3 SWAP2 SWAP1 PUSH2 0xE4E JUMP JUMPDEST PUSH1 0x20 PUSH1 0x40 MLOAD DUP1 DUP4 SUB DUP2 PUSH1 0x0 DUP8 GAS CALL ISZERO DUP1 ISZERO PUSH2 0x8B9 JUMPI RETURNDATASIZE PUSH1 0x0 DUP1 RETURNDATACOPY RETURNDATASIZE PUSH1 0x0 REVERT JUMPDEST POP POP POP POP PUSH1 0x40 MLOAD RETURNDATASIZE PUSH1 0x1F NOT PUSH1 0x1F DUP3 ADD AND DUP3 ADD DUP1 PUSH1 0x40 MSTORE POP DUP2 ADD SWAP1 PUSH2 0x8DD SWAP2 SWAP1 PUSH2 0xEAF JUMP JUMPDEST PUSH2 0x91C JUMPI PUSH1 0x40 MLOAD PUSH32 0x8C379A000000000000000000000000000000000000000000000000000000000 DUP2 MSTORE PUSH1 0x4 ADD PUSH2 0x913 SWAP1 PUSH2 0xF28 JUMP JUMPDEST PUSH1 0x40 MLOAD DUP1 SWAP2 SUB SWAP1 REVERT JUMPDEST DUP5 PUSH20 0xFFFFFFFFFFFFFFFFFFFFFFFFFFFFFFFFFFFFFFFF AND PUSH32 0x7661EA217478035E90BAE67523E9E3CFC45CB3FFB77FE110FCFFF561A7BDEA69 DUP4 PUSH1 0x40 MLOAD PUSH2 0x962 SWAP2 SWAP1 PUSH2 0xBF5 JUMP JUMPDEST PUSH1 0x40 MLOAD DUP1 SWAP2 SUB SWAP1 LOG2 PUSH2 0x9C0 JUMP JUMPDEST DUP5 PUSH20 0xFFFFFFFFFFFFFFFFFFFFFFFFFFFFFFFFFFFFFFFF AND PUSH32 0x1CDA4D9606BFF94FBE49ED061650C09FE416854C544C149C86812CA174ECAC89 DUP4 DUP4 PUSH1 0x40 MLOAD PUSH2 0x9B7 SWAP3 SWAP2 SWAP1 PUSH2 0x10F1 JUMP JUMPDEST PUSH1 0x40 MLOAD DUP1 SWAP2 SUB SWAP1 LOG2 JUMPDEST POP POP POP POP POP JUMP JUMPDEST PUSH1 0x0 DUP1 SLOAD SWAP1 PUSH2 0x100 EXP SWAP1 DIV PUSH20 0xFFFFFFFFFFFFFFFFFFFFFFFFFFFFFFFFFFFFFFFF AND PUSH20 0xFFFFFFFFFFFFFFFFFFFFFFFFFFFFFFFFFFFFFFFF AND CALLER PUSH20 0xFFFFFFFFFFFFFFFFFFFFFFFFFFFFFFFFFFFFFFFF AND EQ PUSH2 0xA55 JUMPI PUSH1 0x40 MLOAD PUSH32 0x8C379A000000000000000000000000000000000000000000000000000000000 DUP2 MSTORE PUSH1 0x4 ADD PUSH2 0xA4C SWAP1 PUSH2 0xDC2 JUMP JUMPDEST PUSH1 0x40 MLOAD DUP1 SWAP2 SUB SWAP1 REVERT JUMPDEST PUSH1 0x0 SELFBALANCE SWAP1 POP PUSH1 0x0 DUP2 GT PUSH2 0xA9D JUMPI PUSH1 0x40 MLOAD PUSH32 0x8C379A000000000000000000000000000000000000000000000000000000000 DUP2 MSTORE PUSH1 0x4 ADD PUSH2 0xA94 SWAP1 PUSH2 0x1166 JUMP JUMPDEST PUSH1 0x40 MLOAD DUP1 SWAP2 SUB SWAP1 REVERT JUMPDEST PUSH1 0x0 DUP1 PUSH1 0x0 SWAP1 SLOAD SWAP1 PUSH2 0x100 EXP SWAP1 DIV PUSH20 0xFFFFFFFFFFFFFFFFFFFFFFFFFFFFFFFFFFFFFFFF AND PUSH20 0xFFFFFFFFFFFFFFFFFFFFFFFFFFFFFFFFFFFFFFFF AND DUP3 PUSH1 0x40 MLOAD PUSH2 0xAE4 SWAP1 PUSH2 0x11B7 JUMP JUMPDEST PUSH1 0x0 PUSH1 0x40 MLOAD DUP1 DUP4 SUB DUP2 DUP6 DUP8 GAS CALL SWAP3 POP POP POP RETURNDATASIZE DUP1 PUSH1 0x0 DUP2 EQ PUSH2 0xB21 JUMPI PUSH1 0x40 MLOAD SWAP2 POP PUSH1 0x1F NOT PUSH1 0x3F RETURNDATASIZE ADD AND DUP3 ADD PUSH1 0x40 MSTORE RETURNDATASIZE DUP3 MSTORE RETURNDATASIZE PUSH1 0x0 PUSH1 0x20 DUP5 ADD RETURNDATACOPY PUSH2 0xB26 JUMP JUMPDEST PUSH1 0x60 SWAP2 POP JUMPDEST POP POP SWAP1 POP DUP1 PUSH2 0xB6A JUMPI PUSH1 0x40 MLOAD PUSH32 0x8C379A000000000000000000000000000000000000000000000000000000000 DUP2 MSTORE PUSH1 0x4 ADD PUSH2 0xB61 SWAP1 PUSH2 0x1218 JUMP JUMPDEST PUSH1 0x40 MLOAD DUP1 SWAP2 SUB SWAP1 REVERT JUMPDEST PUSH1 0x0 DUP1 SLOAD SWAP1 PUSH2 0x100 EXP SWAP1 DIV PUSH20 0xFFFFFFFFFFFFFFFFFFFFFFFFFFFFFFFFFFFFFFFF AND PUSH20 0xFFFFFFFFFFFFFFFFFFFFFFFFFFFFFFFFFFFFFFFF AND PUSH32 0x94B2DE810873337ED265C5F8CF98C9CFFEFA06B8607F9A2F1FBAEBDFBCFBEF1C DUP4 PUSH1 0x40 MLOAD PUSH2 0xBD0 SWAP2 SWAP1 PUSH2 0xBF5 JUMP JUMPDEST PUSH1 0x40 MLOAD DUP1 SWAP2 SUB SWAP1 LOG2 POP POP JUMP JUMPDEST PUSH1 0x0 DUP2 SWAP1 POP SWAP2 SWAP1 POP JUMP JUMPDEST PUSH2 0xBEF DUP2 PUSH2 0xBDC JUMP JUMPDEST DUP3 MSTORE POP POP JUMP JUMPDEST PUSH1 0x0 PUSH1 0x20 DUP3 ADD SWAP1 POP PUSH2 0xC0A PUSH1 0x0 DUP4 ADD DUP5 PUSH2 0xBE6 JUMP JUMPDEST SWAP3 SWAP2 POP POP JUMP JUMPDEST PUSH1 0x0 DUP1 REVERT JUMPDEST PUSH2 0xC1E DUP2 PUSH2 0xBDC JUMP JUMPDEST DUP2 EQ PUSH2 0xC29 JUMPI PUSH1 0x0 DUP1 REVERT JUMPDEST POP JUMP JUMPDEST PUSH1 0x0 DUP2 CALLDATALOAD SWAP1 POP PUSH2 0xC3B DUP2 PUSH2 0xC15 JUMP JUMPDEST SWAP3 SWAP2 POP POP JUMP JUMPDEST PUSH1 0x0 PUSH1 0x20 DUP3 DUP5 SUB SLT ISZERO PUSH2 0xC57 JUMPI PUSH2 0xC56 PUSH2 0xC10 JUMP JUMPDEST JUMPDEST PUSH1 0x0 PUSH2 0xC65 DUP5 DUP3 DUP6 ADD PUSH2 0xC2C JUMP JUMPDEST SWAP2 POP POP SWAP3 SWAP2 POP POP JUMP JUMPDEST PUSH1 0x0 PUSH20 0xFFFFFFFFFFFFFFFFFFFFFFFFFFFFFFFFFFFFFFFF DUP3 AND SWAP1 POP SWAP2 SWAP1 POP JUMP JUMPDEST PUSH1 0x0 PUSH2 0xC99 DUP3 PUSH2 0xC6E JUMP JUMPDEST SWAP1 POP SWAP2 SWAP1 POP JUMP JUMPDEST PUSH2 0xCA9 DUP2 PUSH2 0xC8E JUMP JUMPDEST DUP3 MSTORE POP POP JUMP JUMPDEST PUSH1 0x0 PUSH1 0x20 DUP3 ADD SWAP1 POP PUSH2 0xCC4 PUSH1 0x0 DUP4 ADD DUP5 PUSH2 0xCA0 JUMP JUMPDEST SWAP3 SWAP2 POP POP JUMP JUMPDEST PUSH2 0xCD3 DUP2 PUSH2 0xC8E JUMP JUMPDEST DUP2 EQ PUSH2 0xCDE JUMPI PUSH1 0x0 DUP1 REVERT JUMPDEST POP JUMP JUMPDEST PUSH1 0x0 DUP2 CALLDATALOAD SWAP1 POP PUSH2 0xCF0 DUP2 PUSH2 0xCCA JUMP JUMPDEST SWAP3 SWAP2 POP POP JUMP JUMPDEST PUSH1 0x0 PUSH1 0x20 DUP3 DUP5 SUB SLT ISZERO PUSH2 0xD0C JUMPI PUSH2 0xD0B PUSH2 0xC10 JUMP JUMPDEST JUMPDEST PUSH1 0x0 PUSH2 0xD1A DUP5 DUP3 DUP6 ADD PUSH2 0xCE1 JUMP JUMPDEST SWAP2 POP POP SWAP3 SWAP2 POP POP JUMP JUMPDEST PUSH1 0x0 DUP2 MLOAD SWAP1 POP PUSH2 0xD32 DUP2 PUSH2 0xC15 JUMP JUMPDEST SWAP3 SWAP2 POP POP JUMP JUMPDEST PUSH1 0x0 PUSH1 0x20 DUP3 DUP5 SUB SLT ISZERO PUSH2 0xD4E JUMPI PUSH2 0xD4D PUSH2 0xC10 JUMP JUMPDEST JUMPDEST PUSH1 0x0 PUSH2 0xD5C DUP5 DUP3 DUP6 ADD PUSH2 0xD23 JUMP JUMPDEST SWAP2 POP POP SWAP3 SWAP2 POP POP JUMP JUMPDEST PUSH1 0x0 DUP3 DUP3 MSTORE PUSH1 0x20 DUP3 ADD SWAP1 POP SWAP3 SWAP2 POP POP JUMP JUMPDEST PUSH32 0x4F6E6C79206F776E657200000000000000000000000000000000000000000000 PUSH1 0x0 DUP3 ADD MSTORE POP JUMP JUMPDEST PUSH1 0x0 PUSH2 0xDAC PUSH1 0xA DUP4 PUSH2 0xD65 JUMP JUMPDEST SWAP2 POP PUSH2 0xDB7 DUP3 PUSH2 0xD76 JUMP JUMPDEST PUSH1 0x20 DUP3 ADD SWAP1 POP SWAP2 SWAP1 POP JUMP JUMPDEST PUSH1 0x0 PUSH1 0x20 DUP3 ADD SWAP1 POP DUP2 DUP2 SUB PUSH1 0x0 DUP4 ADD MSTORE PUSH2 0xDDB DUP2 PUSH2 0xD9F JUMP JUMPDEST SWAP1 POP SWAP2 SWAP1 POP JUMP JUMPDEST PUSH32 0x496E76616C696420616D6F756E74000000000000000000000000000000000000 PUSH1 0x0 DUP3 ADD MSTORE POP JUMP JUMPDEST PUSH1 0x0 PUSH2 0xE18 PUSH1 0xE DUP4 PUSH2 0xD65 JUMP JUMPDEST SWAP2 POP PUSH2 0xE23 DUP3 PUSH2 0xDE2 JUMP JUMPDEST PUSH1 0x20 DUP3 ADD SWAP1 POP SWAP2 SWAP1 POP JUMP JUMPDEST PUSH1 0x0 PUSH1 0x20 DUP3 ADD SWAP1 POP DUP2 DUP2 SUB PUSH1 0x0 DUP4 ADD MSTORE PUSH2 0xE47 DUP2 PUSH2 0xE0B JUMP JUMPDEST SWAP1 POP SWAP2 SWAP1 POP JUMP JUMPDEST PUSH1 0x0 PUSH1 0x40 DUP3 ADD SWAP1 POP PUSH2 0xE63 PUSH1 0x0 DUP4 ADD DUP6 PUSH2 0xCA0 JUMP JUMPDEST PUSH2 0xE70 PUSH1 0x20 DUP4 ADD DUP5 PUSH2 0xBE6 JUMP JUMPDEST SWAP4 SWAP3 POP POP POP JUMP JUMPDEST PUSH1 0x0 DUP2 ISZERO ISZERO SWAP1 POP SWAP2 SWAP1 POP JUMP JUMPDEST PUSH2 0xE8C DUP2 PUSH2 0xE77 JUMP JUMPDEST DUP2 EQ PUSH2 0xE97 JUMPI PUSH1 0x0 DUP1 REVERT JUMPDEST POP JUMP JUMPDEST PUSH1 0x0 DUP2 MLOAD SWAP1 POP PUSH2 0xEA9 DUP2 PUSH2 0xE83 JUMP JUMPDEST SWAP3 SWAP2 POP POP JUMP JUMPDEST PUSH1 0x0 PUSH1 0x20 DUP3 DUP5 SUB SLT ISZERO PUSH2 0xEC5 JUMPI PUSH2 0xEC4 PUSH2 0xC10 JUMP JUMPDEST JUMPDEST PUSH1 0x0 PUSH2 0xED3 DUP5 DUP3 DUP6 ADD PUSH2 0xE9A JUMP JUMPDEST SWAP2 POP POP SWAP3 SWAP2 POP POP JUMP JUMPDEST PUSH32 0x5472616E73666572206661696C65640000000000000000000000000000000000 PUSH1 0x0 DUP3 ADD MSTORE POP JUMP JUMPDEST PUSH1 0x0 PUSH2 0xF12 PUSH1 0xF DUP4 PUSH2 0xD65 JUMP JUMPDEST SWAP2 POP PUSH2 0xF1D DUP3 PUSH2 0xEDC JUMP JUMPDEST PUSH1 0x20 DUP3 ADD SWAP1 POP SWAP2 SWAP1 POP JUMP JUMPDEST PUSH1 0x0 PUSH1 0x20 DUP3 ADD SWAP1 POP DUP2 DUP2 SUB PUSH1 0x0 DUP4 ADD MSTORE PUSH2 0xF41 DUP2 PUSH2 0xF05 JUMP JUMPDEST SWAP1 POP SWAP2 SWAP1 POP JUMP JUMPDEST PUSH32 0x53656E6420455448000000000000000000000000000000000000000000000000 PUSH1 0x0 DUP3 ADD MSTORE POP JUMP JUMPDEST PUSH1 0x0 PUSH2 0xF7E PUSH1 0x8 DUP4 PUSH2 0xD65 JUMP JUMPDEST SWAP2 POP PUSH2 0xF89 DUP3 PUSH2 0xF48 JUMP JUMPDEST PUSH1 0x20 DUP3 ADD SWAP1 POP SWAP2 SWAP1 POP JUMP JUMPDEST PUSH1 0x0 PUSH1 0x20 DUP3 ADD SWAP1 POP DUP2 DUP2 SUB PUSH1 0x0 DUP4 ADD MSTORE PUSH2 0xFAD DUP2 PUSH2 0xF71 JUMP JUMPDEST SWAP1 POP SWAP2 SWAP1 POP JUMP JUMPDEST PUSH32 0x496E76616C696420616464726573730000000000000000000000000000000000 PUSH1 0x0 DUP3 ADD MSTORE POP JUMP JUMPDEST PUSH1 0x0 PUSH2 0xFEA PUSH1 0xF DUP4 PUSH2 0xD65 JUMP JUMPDEST SWAP2 POP PUSH2 0xFF5 DUP3 PUSH2 0xFB4 JUMP JUMPDEST PUSH1 0x20 DUP3 ADD SWAP1 POP SWAP2 SWAP1 POP JUMP JUMPDEST PUSH1 0x0 PUSH1 0x20 DUP3 ADD SWAP1 POP DUP2 DUP2 SUB PUSH1 0x0 DUP4 ADD MSTORE PUSH2 0x1019 DUP2 PUSH2 0xFDD JUMP JUMPDEST SWAP1 POP SWAP2 SWAP1 POP JUMP JUMPDEST PUSH32 0x4E487B7100000000000000000000000000000000000000000000000000000000 PUSH1 0x0 MSTORE PUSH1 0x11 PUSH1 0x4 MSTORE PUSH1 0x24 PUSH1 0x0 REVERT JUMPDEST PUSH1 0x0 PUSH2 0x105A DUP3 PUSH2 0xBDC JUMP JUMPDEST SWAP2 POP PUSH2 0x1065 DUP4 PUSH2 0xBDC JUMP JUMPDEST SWAP3 POP DUP3 DUP3 MUL PUSH2 0x1073 DUP2 PUSH2 0xBDC JUMP JUMPDEST SWAP2 POP DUP3 DUP3 DIV DUP5 EQ DUP4 ISZERO OR PUSH2 0x108A JUMPI PUSH2 0x1089 PUSH2 0x1020 JUMP JUMPDEST JUMPDEST POP SWAP3 SWAP2 POP POP JUMP JUMPDEST PUSH32 0x4E487B7100000000000000000000000000000000000000000000000000000000 PUSH1 0x0 MSTORE PUSH1 0x12 PUSH1 0x4 MSTORE PUSH1 0x24 PUSH1 0x0 REVERT JUMPDEST PUSH1 0x0 PUSH2 0x10CB DUP3 PUSH2 0xBDC JUMP JUMPDEST SWAP2 POP PUSH2 0x10D6 DUP4 PUSH2 0xBDC JUMP JUMPDEST SWAP3 POP DUP3 PUSH2 0x10E6 JUMPI PUSH2 0x10E5 PUSH2 0x1091 JUMP JUMPDEST JUMPDEST DUP3 DUP3 DIV SWAP1 POP SWAP3 SWAP2 POP POP JUMP JUMPDEST PUSH1 0x0 PUSH1 0x40 DUP3 ADD SWAP1 POP PUSH2 0x1106 PUSH1 0x0 DUP4 ADD DUP6 PUSH2 0xBE6 JUMP JUMPDEST PUSH2 0x1113 PUSH1 0x20 DUP4 ADD DUP5 PUSH2 0xBE6 JUMP JUMPDEST SWAP4 SWAP3 POP POP POP JUMP JUMPDEST PUSH32 0x4E6F2045544820746F2077697468647261770000000000000000000000000000 PUSH1 0x0 DUP3 ADD MSTORE POP JUMP JUMPDEST PUSH1 0x0 PUSH2 0x1150 PUSH1 0x12 DUP4 PUSH2 0xD65 JUMP JUMPDEST SWAP2 POP PUSH2 0x115B DUP3 PUSH2 0x111A JUMP JUMPDEST PUSH1 0x20 DUP3 ADD SWAP1 POP SWAP2 SWAP1 POP JUMP JUMPDEST PUSH1 0x0 PUSH1 0x20 DUP3 ADD SWAP1 POP DUP2 DUP2 SUB PUSH1 0x0 DUP4 ADD MSTORE PUSH2 0x117F DUP2 PUSH2 0x1143 JUMP JUMPDEST SWAP1 POP SWAP2 SWAP1 POP JUMP JUMPDEST PUSH1 0x0 DUP2 SWAP1 POP SWAP3 SWAP2 POP POP JUMP JUMPDEST POP JUMP JUMPDEST PUSH1 0x0 PUSH2 0x11A1 PUSH1 0x0 DUP4 PUSH2 0x1186 JUMP JUMPDEST SWAP2 POP PUSH2 0x11AC DUP3 PUSH2 0x1191 JUMP JUMPDEST PUSH1 0x0 DUP3 ADD SWAP1 POP SWAP2 SWAP1 POP JUMP JUMPDEST PUSH1 0x0 PUSH2 0x11C2 DUP3 PUSH2 0x1194 JUMP JUMPDEST SWAP2 POP DUP2 SWAP1 POP SWAP2 SWAP1 POP JUMP JUMPDEST PUSH32 0x455448207472616E73666572206661696C656400000000000000000000000000 PUSH1 0x0 DUP3 ADD MSTORE POP JUMP JUMPDEST PUSH1 0x0 PUSH2 0x1202 PUSH1 0x13 DUP4 PUSH2 0xD65 JUMP JUMPDEST SWAP2 POP PUSH2 0x120D DUP3 PUSH2 0x11CC JUMP JUMPDEST PUSH1 0x20 DUP3 ADD SWAP1 POP SWAP2 SWAP1 POP JUMP JUMPDEST PUSH1 0x0 PUSH1 0x20 DUP3 ADD SWAP1 POP DUP2 DUP2 SUB PUSH1 0x0 DUP4 ADD MSTORE PUSH2 0x1231 DUP2 PUSH2 0x11F5 JUMP JUMPDEST SWAP1 POP SWAP2 SWAP1 POP JUMP INVALID LOG2 PUSH5 0x6970667358 0x22 SLT KECCAK256 OR EXTSTATICCALL PUSH5 0x16C210C946 0xF6 PUSH12 0x1C06FC6A2264097179653193 0xC3 SELFDESTRUCT PUSH16 0xFFD337C609A21B64736F6C634300081E STOP CALLER "
				},
				"gasEstimates": {
					"creation": {
						"codeDepositCost": "943600",
						"executionCost": "infinite",
						"totalCost": "infinite"
					},
					"external": {
						"buyTokensForSponsorship()": "infinite",
						"getBalance()": "infinite",
						"owner()": "2556",
						"provideSponsor(address)": "infinite",
						"sponsorshipPercentage()": "2451",
						"tokenAddress()": "2581",
						"withdrawETH()": "infinite",
						"withdrawTokens(uint256)": "infinite"
					}
				},
				"methodIdentifiers": {
					"buyTokensForSponsorship()": "bfdc3ec6",
					"getBalance()": "12065fe0",
					"owner()": "8da5cb5b",
					"provideSponsor(address)": "c5d9b404",
					"sponsorshipPercentage()": "c5189787",
					"tokenAddress()": "9d76ea58",
					"withdrawETH()": "e086e5ec",
					"withdrawTokens(uint256)": "315a095d"
				}
			},
			"storageLayout": {
				"storage": [
					{
						"astId": 26,
						"contract": "contracts/SponsorFunding.sol:SponsorFunding",
						"label": "owner",
						"offset": 0,
						"slot": "0",
						"type": "t_address"
					},
					{
						"astId": 28,
						"contract": "contracts/SponsorFunding.sol:SponsorFunding",
						"label": "tokenAddress",
						"offset": 0,
						"slot": "1",
						"type": "t_address"
					},
					{
						"astId": 30,
						"contract": "contracts/SponsorFunding.sol:SponsorFunding",
						"label": "sponsorshipPercentage",
						"offset": 0,
						"slot": "2",
						"type": "t_uint256"
					}
				],
				"types": {
					"t_address": {
						"encoding": "inplace",
						"label": "address",
						"numberOfBytes": "20"
					},
					"t_uint256": {
						"encoding": "inplace",
						"label": "uint256",
						"numberOfBytes": "32"
					}
				}
			},
			"userdoc": {
				"kind": "user",
				"methods": {},
				"version": 1
			}
		}
	}
}