{
	"contracts/CrowdFunding.sol": {
		"CrowdFunding": {
			"abi": [
				{
					"inputs": [
						{
							"internalType": "address",
							"name": "_tokenAddress",
							"type": "address"
						},
						{
							"internalType": "uint256",
							"name": "_fundingGoal",
							"type": "uint256"
						}
					],
					"stateMutability": "nonpayable",
					"type": "constructor"
				},
				{
					"anonymous": false,
					"inputs": [
						{
							"indexed": true,
							"internalType": "address",
							"name": "contributor",
							"type": "address"
						},
						{
							"indexed": false,
							"internalType": "uint256",
							"name": "amount",
							"type": "uint256"
						}
					],
					"name": "ContributionReceived",
					"type": "event"
				},
				{
					"anonymous": false,
					"inputs": [
						{
							"indexed": false,
							"internalType": "uint256",
							"name": "totalAmount",
							"type": "uint256"
						}
					],
					"name": "GoalReached",
					"type": "event"
				},
				{
					"anonymous": false,
					"inputs": [
						{
							"indexed": false,
							"internalType": "uint256",
							"name": "amount",
							"type": "uint256"
						}
					],
					"name": "SponsorshipReceived",
					"type": "event"
				},
				{
					"anonymous": false,
					"inputs": [
						{
							"indexed": false,
							"internalType": "enum CrowdFunding.State",
							"name": "newState",
							"type": "uint8"
						}
					],
					"name": "StateChanged",
					"type": "event"
				},
				{
					"anonymous": false,
					"inputs": [
						{
							"indexed": true,
							"internalType": "address",
							"name": "contributor",
							"type": "address"
						},
						{
							"indexed": false,
							"internalType": "uint256",
							"name": "amount",
							"type": "uint256"
						}
					],
					"name": "WithdrawalMade",
					"type": "event"
				},
				{
					"inputs": [
						{
							"internalType": "uint256",
							"name": "_amount",
							"type": "uint256"
						}
					],
					"name": "contribute",
					"outputs": [],
					"stateMutability": "nonpayable",
					"type": "function"
				},
				{
					"inputs": [
						{
							"internalType": "address",
							"name": "",
							"type": "address"
						}
					],
					"name": "contributions",
					"outputs": [
						{
							"internalType": "uint256",
							"name": "",
							"type": "uint256"
						}
					],
					"stateMutability": "view",
					"type": "function"
				},
				{
					"inputs": [],
					"name": "currentAmount",
					"outputs": [
						{
							"internalType": "uint256",
							"name": "",
							"type": "uint256"
						}
					],
					"stateMutability": "view",
					"type": "function"
				},
				{
					"inputs": [],
					"name": "currentState",
					"outputs": [
						{
							"internalType": "enum CrowdFunding.State",
							"name": "",
							"type": "uint8"
						}
					],
					"stateMutability": "view",
					"type": "function"
				},
				{
					"inputs": [],
					"name": "distributeAddress",
					"outputs": [
						{
							"internalType": "address",
							"name": "",
							"type": "address"
						}
					],
					"stateMutability": "view",
					"type": "function"
				},
				{
					"inputs": [],
					"name": "finalizeAndTransfer",
					"outputs": [],
					"stateMutability": "nonpayable",
					"type": "function"
				},
				{
					"inputs": [],
					"name": "fundingGoal",
					"outputs": [
						{
							"internalType": "uint256",
							"name": "",
							"type": "uint256"
						}
					],
					"stateMutability": "view",
					"type": "function"
				},
				{
					"inputs": [
						{
							"internalType": "address",
							"name": "_contributor",
							"type": "address"
						}
					],
					"name": "getContribution",
					"outputs": [
						{
							"internalType": "uint256",
							"name": "",
							"type": "uint256"
						}
					],
					"stateMutability": "view",
					"type": "function"
				},
				{
					"inputs": [],
					"name": "getRemainingAmount",
					"outputs": [
						{
							"internalType": "uint256",
							"name": "",
							"type": "uint256"
						}
					],
					"stateMutability": "view",
					"type": "function"
				},
				{
					"inputs": [],
					"name": "getState",
					"outputs": [
						{
							"internalType": "string",
							"name": "",
							"type": "string"
						}
					],
					"stateMutability": "view",
					"type": "function"
				},
				{
					"inputs": [],
					"name": "owner",
					"outputs": [
						{
							"internalType": "address",
							"name": "",
							"type": "address"
						}
					],
					"stateMutability": "view",
					"type": "function"
				},
				{
					"inputs": [],
					"name": "requestSponsorship",
					"outputs": [],
					"stateMutability": "nonpayable",
					"type": "function"
				},
				{
					"inputs": [
						{
							"internalType": "address",
							"name": "_distributeAddress",
							"type": "address"
						}
					],
					"name": "setDistributeAddress",
					"outputs": [],
					"stateMutability": "nonpayable",
					"type": "function"
				},
				{
					"inputs": [
						{
							"internalType": "address",
							"name": "_sponsorAddress",
							"type": "address"
						}
					],
					"name": "setSponsorAddress",
					"outputs": [],
					"stateMutability": "nonpayable",
					"type": "function"
				},
				{
					"inputs": [],
					"name": "sponsorAddress",
					"outputs": [
						{
							"internalType": "address",
							"name": "",
							"type": "address"
						}
					],
					"stateMutability": "view",
					"type": "function"
				},
				{
					"inputs": [],
					"name": "tokenAddress",
					"outputs": [
						{
							"internalType": "address",
							"name": "",
							"type": "address"
						}
					],
					"stateMutability": "view",
					"type": "function"
				},
				{
					"inputs": [
						{
							"internalType": "uint256",
							"name": "_amount",
							"type": "uint256"
						}
					],
					"name": "withdraw",
					"outputs": [],
					"stateMutability": "nonpayable",
					"type": "function"
				}
			],
			"devdoc": {
				"kind": "dev",
				"methods": {},
				"version": 1
			},
			"evm": {
				"assembly": "    /* \"contracts/CrowdFunding.sol\":431:5006  contract CrowdFunding {... */\n  mstore(0x40, 0x80)\n    /* \"contracts/CrowdFunding.sol\":1341:1697  constructor(address _tokenAddress, uint256 _fundingGoal) {... */\n  callvalue\n  dup1\n  iszero\n  tag_1\n  jumpi\n  revert(0x00, 0x00)\ntag_1:\n  pop\n  mload(0x40)\n  sub(codesize, bytecodeSize)\n  dup1\n  bytecodeSize\n  dup4\n  codecopy\n  dup2\n  dup2\n  add\n  0x40\n  mstore\n  dup2\n  add\n  swap1\n  tag_2\n  swap2\n  swap1\n  tag_3\n  jump\t// in\ntag_2:\n    /* \"contracts/CrowdFunding.sol\":1442:1443  0 */\n  0x00\n    /* \"contracts/CrowdFunding.sol\":1417:1444  _tokenAddress != address(0) */\n  0xffffffffffffffffffffffffffffffffffffffff\n  and\n    /* \"contracts/CrowdFunding.sol\":1417:1430  _tokenAddress */\n  dup3\n    /* \"contracts/CrowdFunding.sol\":1417:1444  _tokenAddress != address(0) */\n  0xffffffffffffffffffffffffffffffffffffffff\n  and\n  sub\n    /* \"contracts/CrowdFunding.sol\":1409:1462  require(_tokenAddress != address(0), \"Invalid token\") */\n  tag_6\n  jumpi\n  mload(0x40)\n  0x08c379a000000000000000000000000000000000000000000000000000000000\n  dup2\n  mstore\n  0x04\n  add\n  tag_7\n  swap1\n  tag_8\n  jump\t// in\ntag_7:\n  mload(0x40)\n  dup1\n  swap2\n  sub\n  swap1\n  revert\ntag_6:\n    /* \"contracts/CrowdFunding.sol\":1496:1497  0 */\n  0x00\n    /* \"contracts/CrowdFunding.sol\":1481:1493  _fundingGoal */\n  dup2\n    /* \"contracts/CrowdFunding.sol\":1481:1497  _fundingGoal > 0 */\n  gt\n    /* \"contracts/CrowdFunding.sol\":1473:1514  require(_fundingGoal > 0, \"Invalid goal\") */\n  tag_9\n  jumpi\n  mload(0x40)\n  0x08c379a000000000000000000000000000000000000000000000000000000000\n  dup2\n  mstore\n  0x04\n  add\n  tag_10\n  swap1\n  tag_11\n  jump\t// in\ntag_10:\n  mload(0x40)\n  dup1\n  swap2\n  sub\n  swap1\n  revert\ntag_9:\n    /* \"contracts/CrowdFunding.sol\":1533:1543  msg.sender */\n  caller\n    /* \"contracts/CrowdFunding.sol\":1525:1530  owner */\n  0x00\n  0x00\n    /* \"contracts/CrowdFunding.sol\":1525:1543  owner = msg.sender */\n  0x0100\n  exp\n  dup2\n  sload\n  dup2\n  0xffffffffffffffffffffffffffffffffffffffff\n  mul\n  not\n  and\n  swap1\n  dup4\n  0xffffffffffffffffffffffffffffffffffffffff\n  and\n  mul\n  or\n  swap1\n  sstore\n  pop\n    /* \"contracts/CrowdFunding.sol\":1569:1582  _tokenAddress */\n  dup2\n    /* \"contracts/CrowdFunding.sol\":1554:1566  tokenAddress */\n  0x01\n  0x00\n    /* \"contracts/CrowdFunding.sol\":1554:1582  tokenAddress = _tokenAddress */\n  0x0100\n  exp\n  dup2\n  sload\n  dup2\n  0xffffffffffffffffffffffffffffffffffffffff\n  mul\n  not\n  and\n  swap1\n  dup4\n  0xffffffffffffffffffffffffffffffffffffffff\n  and\n  mul\n  or\n  swap1\n  sstore\n  pop\n    /* \"contracts/CrowdFunding.sol\":1607:1619  _fundingGoal */\n  dup1\n    /* \"contracts/CrowdFunding.sol\":1593:1604  fundingGoal */\n  0x04\n    /* \"contracts/CrowdFunding.sol\":1593:1619  fundingGoal = _fundingGoal */\n  dup2\n  swap1\n  sstore\n  pop\n    /* \"contracts/CrowdFunding.sol\":1646:1647  0 */\n  0x00\n    /* \"contracts/CrowdFunding.sol\":1630:1643  currentAmount */\n  0x05\n    /* \"contracts/CrowdFunding.sol\":1630:1647  currentAmount = 0 */\n  dup2\n  swap1\n  sstore\n  pop\n    /* \"contracts/CrowdFunding.sol\":1673:1689  State.Nefinantat */\n  0x00\n    /* \"contracts/CrowdFunding.sol\":1658:1670  currentState */\n  0x06\n  0x00\n    /* \"contracts/CrowdFunding.sol\":1658:1689  currentState = State.Nefinantat */\n  0x0100\n  exp\n  dup2\n  sload\n  dup2\n  0xff\n  mul\n  not\n  and\n  swap1\n  dup4\n  0x02\n  dup2\n  gt\n  iszero\n  tag_12\n  jumpi\n  tag_13\n  tag_14\n  jump\t// in\ntag_13:\ntag_12:\n  mul\n  or\n  swap1\n  sstore\n  pop\n    /* \"contracts/CrowdFunding.sol\":1341:1697  constructor(address _tokenAddress, uint256 _fundingGoal) {... */\n  pop\n  pop\n    /* \"contracts/CrowdFunding.sol\":431:5006  contract CrowdFunding {... */\n  jump(tag_15)\n    /* \"#utility.yul\":88:205   */\ntag_17:\n    /* \"#utility.yul\":197:198   */\n  0x00\n    /* \"#utility.yul\":194:195   */\n  0x00\n    /* \"#utility.yul\":187:199   */\n  revert\n    /* \"#utility.yul\":334:460   */\ntag_19:\n    /* \"#utility.yul\":371:378   */\n  0x00\n    /* \"#utility.yul\":411:453   */\n  0xffffffffffffffffffffffffffffffffffffffff\n    /* \"#utility.yul\":404:409   */\n  dup3\n    /* \"#utility.yul\":400:454   */\n  and\n    /* \"#utility.yul\":389:454   */\n  swap1\n  pop\n    /* \"#utility.yul\":334:460   */\n  swap2\n  swap1\n  pop\n  jump\t// out\n    /* \"#utility.yul\":466:562   */\ntag_20:\n    /* \"#utility.yul\":503:510   */\n  0x00\n    /* \"#utility.yul\":532:556   */\n  tag_37\n    /* \"#utility.yul\":550:555   */\n  dup3\n    /* \"#utility.yul\":532:556   */\n  tag_19\n  jump\t// in\ntag_37:\n    /* \"#utility.yul\":521:556   */\n  swap1\n  pop\n    /* \"#utility.yul\":466:562   */\n  swap2\n  swap1\n  pop\n  jump\t// out\n    /* \"#utility.yul\":568:690   */\ntag_21:\n    /* \"#utility.yul\":641:665   */\n  tag_39\n    /* \"#utility.yul\":659:664   */\n  dup2\n    /* \"#utility.yul\":641:665   */\n  tag_20\n  jump\t// in\ntag_39:\n    /* \"#utility.yul\":634:639   */\n  dup2\n    /* \"#utility.yul\":631:666   */\n  eq\n    /* \"#utility.yul\":621:684   */\n  tag_40\n  jumpi\n    /* \"#utility.yul\":680:681   */\n  0x00\n    /* \"#utility.yul\":677:678   */\n  0x00\n    /* \"#utility.yul\":670:682   */\n  revert\n    /* \"#utility.yul\":621:684   */\ntag_40:\n    /* \"#utility.yul\":568:690   */\n  pop\n  jump\t// out\n    /* \"#utility.yul\":696:839   */\ntag_22:\n    /* \"#utility.yul\":753:758   */\n  0x00\n    /* \"#utility.yul\":784:790   */\n  dup2\n    /* \"#utility.yul\":778:791   */\n  mload\n    /* \"#utility.yul\":769:791   */\n  swap1\n  pop\n    /* \"#utility.yul\":800:833   */\n  tag_42\n    /* \"#utility.yul\":827:832   */\n  dup2\n    /* \"#utility.yul\":800:833   */\n  tag_21\n  jump\t// in\ntag_42:\n    /* \"#utility.yul\":696:839   */\n  swap3\n  swap2\n  pop\n  pop\n  jump\t// out\n    /* \"#utility.yul\":845:922   */\ntag_23:\n    /* \"#utility.yul\":882:889   */\n  0x00\n    /* \"#utility.yul\":911:916   */\n  dup2\n    /* \"#utility.yul\":900:916   */\n  swap1\n  pop\n    /* \"#utility.yul\":845:922   */\n  swap2\n  swap1\n  pop\n  jump\t// out\n    /* \"#utility.yul\":928:1050   */\ntag_24:\n    /* \"#utility.yul\":1001:1025   */\n  tag_45\n    /* \"#utility.yul\":1019:1024   */\n  dup2\n    /* \"#utility.yul\":1001:1025   */\n  tag_23\n  jump\t// in\ntag_45:\n    /* \"#utility.yul\":994:999   */\n  dup2\n    /* \"#utility.yul\":991:1026   */\n  eq\n    /* \"#utility.yul\":981:1044   */\n  tag_46\n  jumpi\n    /* \"#utility.yul\":1040:1041   */\n  0x00\n    /* \"#utility.yul\":1037:1038   */\n  0x00\n    /* \"#utility.yul\":1030:1042   */\n  revert\n    /* \"#utility.yul\":981:1044   */\ntag_46:\n    /* \"#utility.yul\":928:1050   */\n  pop\n  jump\t// out\n    /* \"#utility.yul\":1056:1199   */\ntag_25:\n    /* \"#utility.yul\":1113:1118   */\n  0x00\n    /* \"#utility.yul\":1144:1150   */\n  dup2\n    /* \"#utility.yul\":1138:1151   */\n  mload\n    /* \"#utility.yul\":1129:1151   */\n  swap1\n  pop\n    /* \"#utility.yul\":1160:1193   */\n  tag_48\n    /* \"#utility.yul\":1187:1192   */\n  dup2\n    /* \"#utility.yul\":1160:1193   */\n  tag_24\n  jump\t// in\ntag_48:\n    /* \"#utility.yul\":1056:1199   */\n  swap3\n  swap2\n  pop\n  pop\n  jump\t// out\n    /* \"#utility.yul\":1205:1712   */\ntag_3:\n    /* \"#utility.yul\":1284:1290   */\n  0x00\n    /* \"#utility.yul\":1292:1298   */\n  0x00\n    /* \"#utility.yul\":1341:1343   */\n  0x40\n    /* \"#utility.yul\":1329:1338   */\n  dup4\n    /* \"#utility.yul\":1320:1327   */\n  dup6\n    /* \"#utility.yul\":1316:1339   */\n  sub\n    /* \"#utility.yul\":1312:1344   */\n  slt\n    /* \"#utility.yul\":1309:1428   */\n  iszero\n  tag_50\n  jumpi\n    /* \"#utility.yul\":1347:1426   */\n  tag_51\n  tag_17\n  jump\t// in\ntag_51:\n    /* \"#utility.yul\":1309:1428   */\ntag_50:\n    /* \"#utility.yul\":1467:1468   */\n  0x00\n    /* \"#utility.yul\":1492:1556   */\n  tag_52\n    /* \"#utility.yul\":1548:1555   */\n  dup6\n    /* \"#utility.yul\":1539:1545   */\n  dup3\n    /* \"#utility.yul\":1528:1537   */\n  dup7\n    /* \"#utility.yul\":1524:1546   */\n  add\n    /* \"#utility.yul\":1492:1556   */\n  tag_22\n  jump\t// in\ntag_52:\n    /* \"#utility.yul\":1482:1556   */\n  swap3\n  pop\n    /* \"#utility.yul\":1438:1566   */\n  pop\n    /* \"#utility.yul\":1605:1607   */\n  0x20\n    /* \"#utility.yul\":1631:1695   */\n  tag_53\n    /* \"#utility.yul\":1687:1694   */\n  dup6\n    /* \"#utility.yul\":1678:1684   */\n  dup3\n    /* \"#utility.yul\":1667:1676   */\n  dup7\n    /* \"#utility.yul\":1663:1685   */\n  add\n    /* \"#utility.yul\":1631:1695   */\n  tag_25\n  jump\t// in\ntag_53:\n    /* \"#utility.yul\":1621:1695   */\n  swap2\n  pop\n    /* \"#utility.yul\":1576:1705   */\n  pop\n    /* \"#utility.yul\":1205:1712   */\n  swap3\n  pop\n  swap3\n  swap1\n  pop\n  jump\t// out\n    /* \"#utility.yul\":1718:1887   */\ntag_26:\n    /* \"#utility.yul\":1802:1813   */\n  0x00\n    /* \"#utility.yul\":1836:1842   */\n  dup3\n    /* \"#utility.yul\":1831:1834   */\n  dup3\n    /* \"#utility.yul\":1824:1843   */\n  mstore\n    /* \"#utility.yul\":1876:1880   */\n  0x20\n    /* \"#utility.yul\":1871:1874   */\n  dup3\n    /* \"#utility.yul\":1867:1881   */\n  add\n    /* \"#utility.yul\":1852:1881   */\n  swap1\n  pop\n    /* \"#utility.yul\":1718:1887   */\n  swap3\n  swap2\n  pop\n  pop\n  jump\t// out\n    /* \"#utility.yul\":1893:2056   */\ntag_27:\n    /* \"#utility.yul\":2033:2048   */\n  0x496e76616c696420746f6b656e00000000000000000000000000000000000000\n    /* \"#utility.yul\":2029:2030   */\n  0x00\n    /* \"#utility.yul\":2021:2027   */\n  dup3\n    /* \"#utility.yul\":2017:2031   */\n  add\n    /* \"#utility.yul\":2010:2049   */\n  mstore\n    /* \"#utility.yul\":1893:2056   */\n  pop\n  jump\t// out\n    /* \"#utility.yul\":2062:2428   */\ntag_28:\n    /* \"#utility.yul\":2204:2207   */\n  0x00\n    /* \"#utility.yul\":2225:2292   */\n  tag_57\n    /* \"#utility.yul\":2289:2291   */\n  0x0d\n    /* \"#utility.yul\":2284:2287   */\n  dup4\n    /* \"#utility.yul\":2225:2292   */\n  tag_26\n  jump\t// in\ntag_57:\n    /* \"#utility.yul\":2218:2292   */\n  swap2\n  pop\n    /* \"#utility.yul\":2301:2394   */\n  tag_58\n    /* \"#utility.yul\":2390:2393   */\n  dup3\n    /* \"#utility.yul\":2301:2394   */\n  tag_27\n  jump\t// in\ntag_58:\n    /* \"#utility.yul\":2419:2421   */\n  0x20\n    /* \"#utility.yul\":2414:2417   */\n  dup3\n    /* \"#utility.yul\":2410:2422   */\n  add\n    /* \"#utility.yul\":2403:2422   */\n  swap1\n  pop\n    /* \"#utility.yul\":2062:2428   */\n  swap2\n  swap1\n  pop\n  jump\t// out\n    /* \"#utility.yul\":2434:2853   */\ntag_8:\n    /* \"#utility.yul\":2600:2604   */\n  0x00\n    /* \"#utility.yul\":2638:2640   */\n  0x20\n    /* \"#utility.yul\":2627:2636   */\n  dup3\n    /* \"#utility.yul\":2623:2641   */\n  add\n    /* \"#utility.yul\":2615:2641   */\n  swap1\n  pop\n    /* \"#utility.yul\":2687:2696   */\n  dup2\n    /* \"#utility.yul\":2681:2685   */\n  dup2\n    /* \"#utility.yul\":2677:2697   */\n  sub\n    /* \"#utility.yul\":2673:2674   */\n  0x00\n    /* \"#utility.yul\":2662:2671   */\n  dup4\n    /* \"#utility.yul\":2658:2675   */\n  add\n    /* \"#utility.yul\":2651:2698   */\n  mstore\n    /* \"#utility.yul\":2715:2846   */\n  tag_60\n    /* \"#utility.yul\":2841:2845   */\n  dup2\n    /* \"#utility.yul\":2715:2846   */\n  tag_28\n  jump\t// in\ntag_60:\n    /* \"#utility.yul\":2707:2846   */\n  swap1\n  pop\n    /* \"#utility.yul\":2434:2853   */\n  swap2\n  swap1\n  pop\n  jump\t// out\n    /* \"#utility.yul\":2859:3021   */\ntag_29:\n    /* \"#utility.yul\":2999:3013   */\n  0x496e76616c696420676f616c0000000000000000000000000000000000000000\n    /* \"#utility.yul\":2995:2996   */\n  0x00\n    /* \"#utility.yul\":2987:2993   */\n  dup3\n    /* \"#utility.yul\":2983:2997   */\n  add\n    /* \"#utility.yul\":2976:3014   */\n  mstore\n    /* \"#utility.yul\":2859:3021   */\n  pop\n  jump\t// out\n    /* \"#utility.yul\":3027:3393   */\ntag_30:\n    /* \"#utility.yul\":3169:3172   */\n  0x00\n    /* \"#utility.yul\":3190:3257   */\n  tag_63\n    /* \"#utility.yul\":3254:3256   */\n  0x0c\n    /* \"#utility.yul\":3249:3252   */\n  dup4\n    /* \"#utility.yul\":3190:3257   */\n  tag_26\n  jump\t// in\ntag_63:\n    /* \"#utility.yul\":3183:3257   */\n  swap2\n  pop\n    /* \"#utility.yul\":3266:3359   */\n  tag_64\n    /* \"#utility.yul\":3355:3358   */\n  dup3\n    /* \"#utility.yul\":3266:3359   */\n  tag_29\n  jump\t// in\ntag_64:\n    /* \"#utility.yul\":3384:3386   */\n  0x20\n    /* \"#utility.yul\":3379:3382   */\n  dup3\n    /* \"#utility.yul\":3375:3387   */\n  add\n    /* \"#utility.yul\":3368:3387   */\n  swap1\n  pop\n    /* \"#utility.yul\":3027:3393   */\n  swap2\n  swap1\n  pop\n  jump\t// out\n    /* \"#utility.yul\":3399:3818   */\ntag_11:\n    /* \"#utility.yul\":3565:3569   */\n  0x00\n    /* \"#utility.yul\":3603:3605   */\n  0x20\n    /* \"#utility.yul\":3592:3601   */\n  dup3\n    /* \"#utility.yul\":3588:3606   */\n  add\n    /* \"#utility.yul\":3580:3606   */\n  swap1\n  pop\n    /* \"#utility.yul\":3652:3661   */\n  dup2\n    /* \"#utility.yul\":3646:3650   */\n  dup2\n    /* \"#utility.yul\":3642:3662   */\n  sub\n    /* \"#utility.yul\":3638:3639   */\n  0x00\n    /* \"#utility.yul\":3627:3636   */\n  dup4\n    /* \"#utility.yul\":3623:3640   */\n  add\n    /* \"#utility.yul\":3616:3663   */\n  mstore\n    /* \"#utility.yul\":3680:3811   */\n  tag_66\n    /* \"#utility.yul\":3806:3810   */\n  dup2\n    /* \"#utility.yul\":3680:3811   */\n  tag_30\n  jump\t// in\ntag_66:\n    /* \"#utility.yul\":3672:3811   */\n  swap1\n  pop\n    /* \"#utility.yul\":3399:3818   */\n  swap2\n  swap1\n  pop\n  jump\t// out\n    /* \"#utility.yul\":3824:4004   */\ntag_14:\n    /* \"#utility.yul\":3872:3949   */\n  0x4e487b7100000000000000000000000000000000000000000000000000000000\n    /* \"#utility.yul\":3869:3870   */\n  0x00\n    /* \"#utility.yul\":3862:3950   */\n  mstore\n    /* \"#utility.yul\":3969:3973   */\n  0x21\n    /* \"#utility.yul\":3966:3967   */\n  0x04\n    /* \"#utility.yul\":3959:3974   */\n  mstore\n    /* \"#utility.yul\":3993:3997   */\n  0x24\n    /* \"#utility.yul\":3990:3991   */\n  0x00\n    /* \"#utility.yul\":3983:3998   */\n  revert\n    /* \"contracts/CrowdFunding.sol\":431:5006  contract CrowdFunding {... */\ntag_15:\n  dataSize(sub_0)\n  dup1\n  dataOffset(sub_0)\n  0x00\n  codecopy\n  0x00\n  return\nstop\n\nsub_0: assembly {\n        /* \"contracts/CrowdFunding.sol\":431:5006  contract CrowdFunding {... */\n      mstore(0x40, 0x80)\n      callvalue\n      dup1\n      iszero\n      tag_1\n      jumpi\n      revert(0x00, 0x00)\n    tag_1:\n      pop\n      jumpi(tag_2, lt(calldatasize, 0x04))\n      shr(0xe0, calldataload(0x00))\n      dup1\n      0x7a3a0e84\n      gt\n      tag_20\n      jumpi\n      dup1\n      0xc1cbbca7\n      gt\n      tag_21\n      jumpi\n      dup1\n      0xc1cbbca7\n      eq\n      tag_15\n      jumpi\n      dup1\n      0xd69f84fd\n      eq\n      tag_16\n      jumpi\n      dup1\n      0xdabaae11\n      eq\n      tag_17\n      jumpi\n      dup1\n      0xdd682c3c\n      eq\n      tag_18\n      jumpi\n      dup1\n      0xf441b1c8\n      eq\n      tag_19\n      jumpi\n      jump(tag_2)\n    tag_21:\n      dup1\n      0x7a3a0e84\n      eq\n      tag_11\n      jumpi\n      dup1\n      0x8da5cb5b\n      eq\n      tag_12\n      jumpi\n      dup1\n      0x9d76ea58\n      eq\n      tag_13\n      jumpi\n      dup1\n      0xb90a52c6\n      eq\n      tag_14\n      jumpi\n      jump(tag_2)\n    tag_20:\n      dup1\n      0x42e94c90\n      gt\n      tag_22\n      jumpi\n      dup1\n      0x42e94c90\n      eq\n      tag_7\n      jumpi\n      dup1\n      0x511569a6\n      eq\n      tag_8\n      jumpi\n      dup1\n      0x5f23c4c6\n      eq\n      tag_9\n      jumpi\n      dup1\n      0x6aeefe10\n      eq\n      tag_10\n      jumpi\n      jump(tag_2)\n    tag_22:\n      dup1\n      0x0c3f6acf\n      eq\n      tag_3\n      jumpi\n      dup1\n      0x1865c57d\n      eq\n      tag_4\n      jumpi\n      dup1\n      0x21eff7fc\n      eq\n      tag_5\n      jumpi\n      dup1\n      0x2e1a7d4d\n      eq\n      tag_6\n      jumpi\n    tag_2:\n      revert(0x00, 0x00)\n        /* \"contracts/CrowdFunding.sol\":724:749  State public currentState */\n    tag_3:\n      tag_23\n      tag_24\n      jump\t// in\n    tag_23:\n      mload(0x40)\n      tag_25\n      swap2\n      swap1\n      tag_26\n      jump\t// in\n    tag_25:\n      mload(0x40)\n      dup1\n      swap2\n      sub\n      swap1\n      return\n        /* \"contracts/CrowdFunding.sol\":4453:4683  function getState() public view returns (string memory) {... */\n    tag_4:\n      tag_27\n      tag_28\n      jump\t// in\n    tag_27:\n      mload(0x40)\n      tag_29\n      swap2\n      swap1\n      tag_30\n      jump\t// in\n    tag_29:\n      mload(0x40)\n      dup1\n      swap2\n      sub\n      swap1\n      return\n        /* \"contracts/CrowdFunding.sol\":4695:4825  function getContribution(address _contributor) public view returns (uint256) {... */\n    tag_5:\n      tag_31\n      0x04\n      dup1\n      calldatasize\n      sub\n      dup2\n      add\n      swap1\n      tag_32\n      swap2\n      swap1\n      tag_33\n      jump\t// in\n    tag_32:\n      tag_34\n      jump\t// in\n    tag_31:\n      mload(0x40)\n      tag_35\n      swap2\n      swap1\n      tag_36\n      jump\t// in\n    tag_35:\n      mload(0x40)\n      dup1\n      swap2\n      sub\n      swap1\n      return\n        /* \"contracts/CrowdFunding.sol\":2854:3346  function withdraw(uint256 _amount) public inState(State.Nefinantat) {... */\n    tag_6:\n      tag_37\n      0x04\n      dup1\n      calldatasize\n      sub\n      dup2\n      add\n      swap1\n      tag_38\n      swap2\n      swap1\n      tag_39\n      jump\t// in\n    tag_38:\n      tag_40\n      jump\t// in\n    tag_37:\n      stop\n        /* \"contracts/CrowdFunding.sol\":762:810  mapping(address => uint256) public contributions */\n    tag_7:\n      tag_41\n      0x04\n      dup1\n      calldatasize\n      sub\n      dup2\n      add\n      swap1\n      tag_42\n      swap2\n      swap1\n      tag_33\n      jump\t// in\n    tag_42:\n      tag_43\n      jump\t// in\n    tag_41:\n      mload(0x40)\n      tag_44\n      swap2\n      swap1\n      tag_36\n      jump\t// in\n    tag_44:\n      mload(0x40)\n      dup1\n      swap2\n      sub\n      swap1\n      return\n        /* \"contracts/CrowdFunding.sol\":557:589  address public distributeAddress */\n    tag_8:\n      tag_45\n      tag_46\n      jump\t// in\n    tag_45:\n      mload(0x40)\n      tag_47\n      swap2\n      swap1\n      tag_48\n      jump\t// in\n    tag_47:\n      mload(0x40)\n      dup1\n      swap2\n      sub\n      swap1\n      return\n        /* \"contracts/CrowdFunding.sol\":4024:4441  function finalizeAndTransfer() public onlyOwner inState(State.Finantat) {... */\n    tag_9:\n      tag_49\n      tag_50\n      jump\t// in\n    tag_49:\n      stop\n        /* \"contracts/CrowdFunding.sol\":521:550  address public sponsorAddress */\n    tag_10:\n      tag_51\n      tag_52\n      jump\t// in\n    tag_51:\n      mload(0x40)\n      tag_53\n      swap2\n      swap1\n      tag_48\n      jump\t// in\n    tag_53:\n      mload(0x40)\n      dup1\n      swap2\n      sub\n      swap1\n      return\n        /* \"contracts/CrowdFunding.sol\":596:622  uint256 public fundingGoal */\n    tag_11:\n      tag_54\n      tag_55\n      jump\t// in\n    tag_54:\n      mload(0x40)\n      tag_56\n      swap2\n      swap1\n      tag_36\n      jump\t// in\n    tag_56:\n      mload(0x40)\n      dup1\n      swap2\n      sub\n      swap1\n      return\n        /* \"contracts/CrowdFunding.sol\":460:480  address public owner */\n    tag_12:\n      tag_57\n      tag_58\n      jump\t// in\n    tag_57:\n      mload(0x40)\n      tag_59\n      swap2\n      swap1\n      tag_48\n      jump\t// in\n    tag_59:\n      mload(0x40)\n      dup1\n      swap2\n      sub\n      swap1\n      return\n        /* \"contracts/CrowdFunding.sol\":487:514  address public tokenAddress */\n    tag_13:\n      tag_60\n      tag_61\n      jump\t// in\n    tag_60:\n      mload(0x40)\n      tag_62\n      swap2\n      swap1\n      tag_48\n      jump\t// in\n    tag_62:\n      mload(0x40)\n      dup1\n      swap2\n      sub\n      swap1\n      return\n        /* \"contracts/CrowdFunding.sol\":1909:2112  function setDistributeAddress(address _distributeAddress) public onlyOwner {... */\n    tag_14:\n      tag_63\n      0x04\n      dup1\n      calldatasize\n      sub\n      dup2\n      add\n      swap1\n      tag_64\n      swap2\n      swap1\n      tag_33\n      jump\t// in\n    tag_64:\n      tag_65\n      jump\t// in\n    tag_63:\n      stop\n        /* \"contracts/CrowdFunding.sol\":2124:2842  function contribute(uint256 _amount) public inState(State.Nefinantat) {... */\n    tag_15:\n      tag_66\n      0x04\n      dup1\n      calldatasize\n      sub\n      dup2\n      add\n      swap1\n      tag_67\n      swap2\n      swap1\n      tag_39\n      jump\t// in\n    tag_67:\n      tag_68\n      jump\t// in\n    tag_66:\n      stop\n        /* \"contracts/CrowdFunding.sol\":3358:4012  function requestSponsorship() public onlyOwner inState(State.Prefinantat) {... */\n    tag_16:\n      tag_69\n      tag_70\n      jump\t// in\n    tag_69:\n      stop\n        /* \"contracts/CrowdFunding.sol\":4837:5003  function getRemainingAmount() public view returns (uint256) {... */\n    tag_17:\n      tag_71\n      tag_72\n      jump\t// in\n    tag_71:\n      mload(0x40)\n      tag_73\n      swap2\n      swap1\n      tag_36\n      jump\t// in\n    tag_73:\n      mload(0x40)\n      dup1\n      swap2\n      sub\n      swap1\n      return\n        /* \"contracts/CrowdFunding.sol\":1709:1897  function setSponsorAddress(address _sponsorAddress) public onlyOwner {... */\n    tag_18:\n      tag_74\n      0x04\n      dup1\n      calldatasize\n      sub\n      dup2\n      add\n      swap1\n      tag_75\n      swap2\n      swap1\n      tag_33\n      jump\t// in\n    tag_75:\n      tag_76\n      jump\t// in\n    tag_74:\n      stop\n        /* \"contracts/CrowdFunding.sol\":629:657  uint256 public currentAmount */\n    tag_19:\n      tag_77\n      tag_78\n      jump\t// in\n    tag_77:\n      mload(0x40)\n      tag_79\n      swap2\n      swap1\n      tag_36\n      jump\t// in\n    tag_79:\n      mload(0x40)\n      dup1\n      swap2\n      sub\n      swap1\n      return\n        /* \"contracts/CrowdFunding.sol\":724:749  State public currentState */\n    tag_24:\n      0x06\n      0x00\n      swap1\n      sload\n      swap1\n      0x0100\n      exp\n      swap1\n      div\n      0xff\n      and\n      dup2\n      jump\t// out\n        /* \"contracts/CrowdFunding.sol\":4453:4683  function getState() public view returns (string memory) {... */\n    tag_28:\n        /* \"contracts/CrowdFunding.sol\":4494:4507  string memory */\n      0x60\n        /* \"contracts/CrowdFunding.sol\":4540:4556  State.Nefinantat */\n      0x00\n        /* \"contracts/CrowdFunding.sol\":4524:4556  currentState == State.Nefinantat */\n      0x02\n      dup2\n      gt\n      iszero\n      tag_81\n      jumpi\n      tag_82\n      tag_83\n      jump\t// in\n    tag_82:\n    tag_81:\n        /* \"contracts/CrowdFunding.sol\":4524:4536  currentState */\n      0x06\n      0x00\n      swap1\n      sload\n      swap1\n      0x0100\n      exp\n      swap1\n      div\n      0xff\n      and\n        /* \"contracts/CrowdFunding.sol\":4524:4556  currentState == State.Nefinantat */\n      0x02\n      dup2\n      gt\n      iszero\n      tag_84\n      jumpi\n      tag_85\n      tag_83\n      jump\t// in\n    tag_85:\n    tag_84:\n      sub\n        /* \"contracts/CrowdFunding.sol\":4520:4577  if (currentState == State.Nefinantat) return \"nefinantat\" */\n      tag_86\n      jumpi\n        /* \"contracts/CrowdFunding.sol\":4558:4577  return \"nefinantat\" */\n      mload(0x40)\n      dup1\n      0x40\n      add\n      0x40\n      mstore\n      dup1\n      0x0a\n      dup2\n      mstore\n      0x20\n      add\n      0x6e6566696e616e74617400000000000000000000000000000000000000000000\n      dup2\n      mstore\n      pop\n      swap1\n      pop\n      jump(tag_80)\n        /* \"contracts/CrowdFunding.sol\":4520:4577  if (currentState == State.Nefinantat) return \"nefinantat\" */\n    tag_86:\n        /* \"contracts/CrowdFunding.sol\":4608:4625  State.Prefinantat */\n      0x01\n        /* \"contracts/CrowdFunding.sol\":4592:4625  currentState == State.Prefinantat */\n      0x02\n      dup2\n      gt\n      iszero\n      tag_87\n      jumpi\n      tag_88\n      tag_83\n      jump\t// in\n    tag_88:\n    tag_87:\n        /* \"contracts/CrowdFunding.sol\":4592:4604  currentState */\n      0x06\n      0x00\n      swap1\n      sload\n      swap1\n      0x0100\n      exp\n      swap1\n      div\n      0xff\n      and\n        /* \"contracts/CrowdFunding.sol\":4592:4625  currentState == State.Prefinantat */\n      0x02\n      dup2\n      gt\n      iszero\n      tag_89\n      jumpi\n      tag_90\n      tag_83\n      jump\t// in\n    tag_90:\n    tag_89:\n      sub\n        /* \"contracts/CrowdFunding.sol\":4588:4647  if (currentState == State.Prefinantat) return \"prefinantat\" */\n      tag_91\n      jumpi\n        /* \"contracts/CrowdFunding.sol\":4627:4647  return \"prefinantat\" */\n      mload(0x40)\n      dup1\n      0x40\n      add\n      0x40\n      mstore\n      dup1\n      0x0b\n      dup2\n      mstore\n      0x20\n      add\n      0x70726566696e616e746174000000000000000000000000000000000000000000\n      dup2\n      mstore\n      pop\n      swap1\n      pop\n      jump(tag_80)\n        /* \"contracts/CrowdFunding.sol\":4588:4647  if (currentState == State.Prefinantat) return \"prefinantat\" */\n    tag_91:\n        /* \"contracts/CrowdFunding.sol\":4658:4675  return \"finantat\" */\n      mload(0x40)\n      dup1\n      0x40\n      add\n      0x40\n      mstore\n      dup1\n      0x08\n      dup2\n      mstore\n      0x20\n      add\n      0x66696e616e746174000000000000000000000000000000000000000000000000\n      dup2\n      mstore\n      pop\n      swap1\n      pop\n        /* \"contracts/CrowdFunding.sol\":4453:4683  function getState() public view returns (string memory) {... */\n    tag_80:\n      swap1\n      jump\t// out\n        /* \"contracts/CrowdFunding.sol\":4695:4825  function getContribution(address _contributor) public view returns (uint256) {... */\n    tag_34:\n        /* \"contracts/CrowdFunding.sol\":4763:4770  uint256 */\n      0x00\n        /* \"contracts/CrowdFunding.sol\":4790:4803  contributions */\n      0x07\n        /* \"contracts/CrowdFunding.sol\":4790:4817  contributions[_contributor] */\n      0x00\n        /* \"contracts/CrowdFunding.sol\":4804:4816  _contributor */\n      dup4\n        /* \"contracts/CrowdFunding.sol\":4790:4817  contributions[_contributor] */\n      0xffffffffffffffffffffffffffffffffffffffff\n      and\n      0xffffffffffffffffffffffffffffffffffffffff\n      and\n      dup2\n      mstore\n      0x20\n      add\n      swap1\n      dup2\n      mstore\n      0x20\n      add\n      0x00\n      keccak256\n      sload\n        /* \"contracts/CrowdFunding.sol\":4783:4817  return contributions[_contributor] */\n      swap1\n      pop\n        /* \"contracts/CrowdFunding.sol\":4695:4825  function getContribution(address _contributor) public view returns (uint256) {... */\n      swap2\n      swap1\n      pop\n      jump\t// out\n        /* \"contracts/CrowdFunding.sol\":2854:3346  function withdraw(uint256 _amount) public inState(State.Nefinantat) {... */\n    tag_40:\n        /* \"contracts/CrowdFunding.sol\":2904:2920  State.Nefinantat */\n      0x00\n        /* \"contracts/CrowdFunding.sol\":1285:1291  _state */\n      dup1\n        /* \"contracts/CrowdFunding.sol\":1269:1291  currentState == _state */\n      0x02\n      dup2\n      gt\n      iszero\n      tag_94\n      jumpi\n      tag_95\n      tag_83\n      jump\t// in\n    tag_95:\n    tag_94:\n        /* \"contracts/CrowdFunding.sol\":1269:1281  currentState */\n      0x06\n      0x00\n      swap1\n      sload\n      swap1\n      0x0100\n      exp\n      swap1\n      div\n      0xff\n      and\n        /* \"contracts/CrowdFunding.sol\":1269:1291  currentState == _state */\n      0x02\n      dup2\n      gt\n      iszero\n      tag_96\n      jumpi\n      tag_97\n      tag_83\n      jump\t// in\n    tag_97:\n    tag_96:\n      eq\n        /* \"contracts/CrowdFunding.sol\":1261:1309  require(currentState == _state, \"Invalid state\") */\n      tag_98\n      jumpi\n      mload(0x40)\n      0x08c379a000000000000000000000000000000000000000000000000000000000\n      dup2\n      mstore\n      0x04\n      add\n      tag_99\n      swap1\n      tag_100\n      jump\t// in\n    tag_99:\n      mload(0x40)\n      dup1\n      swap2\n      sub\n      swap1\n      revert\n    tag_98:\n        /* \"contracts/CrowdFunding.sol\":2951:2952  0 */\n      0x00\n        /* \"contracts/CrowdFunding.sol\":2941:2948  _amount */\n      dup3\n        /* \"contracts/CrowdFunding.sol\":2941:2952  _amount > 0 */\n      gt\n        /* \"contracts/CrowdFunding.sol\":2933:2980  require(_amount > 0, \"Amount must be positive\") */\n      tag_102\n      jumpi\n      mload(0x40)\n      0x08c379a000000000000000000000000000000000000000000000000000000000\n      dup2\n      mstore\n      0x04\n      add\n      tag_103\n      swap1\n      tag_104\n      jump\t// in\n    tag_103:\n      mload(0x40)\n      dup1\n      swap2\n      sub\n      swap1\n      revert\n    tag_102:\n        /* \"contracts/CrowdFunding.sol\":3028:3035  _amount */\n      dup2\n        /* \"contracts/CrowdFunding.sol\":2999:3012  contributions */\n      0x07\n        /* \"contracts/CrowdFunding.sol\":2999:3024  contributions[msg.sender] */\n      0x00\n        /* \"contracts/CrowdFunding.sol\":3013:3023  msg.sender */\n      caller\n        /* \"contracts/CrowdFunding.sol\":2999:3024  contributions[msg.sender] */\n      0xffffffffffffffffffffffffffffffffffffffff\n      and\n      0xffffffffffffffffffffffffffffffffffffffff\n      and\n      dup2\n      mstore\n      0x20\n      add\n      swap1\n      dup2\n      mstore\n      0x20\n      add\n      0x00\n      keccak256\n      sload\n        /* \"contracts/CrowdFunding.sol\":2999:3035  contributions[msg.sender] >= _amount */\n      lt\n      iszero\n        /* \"contracts/CrowdFunding.sol\":2991:3065  require(contributions[msg.sender] >= _amount, \"Insufficient contribution\") */\n      tag_105\n      jumpi\n      mload(0x40)\n      0x08c379a000000000000000000000000000000000000000000000000000000000\n      dup2\n      mstore\n      0x04\n      add\n      tag_106\n      swap1\n      tag_107\n      jump\t// in\n    tag_106:\n      mload(0x40)\n      dup1\n      swap2\n      sub\n      swap1\n      revert\n    tag_105:\n        /* \"contracts/CrowdFunding.sol\":3115:3122  _amount */\n      dup2\n        /* \"contracts/CrowdFunding.sol\":3086:3099  contributions */\n      0x07\n        /* \"contracts/CrowdFunding.sol\":3086:3111  contributions[msg.sender] */\n      0x00\n        /* \"contracts/CrowdFunding.sol\":3100:3110  msg.sender */\n      caller\n        /* \"contracts/CrowdFunding.sol\":3086:3111  contributions[msg.sender] */\n      0xffffffffffffffffffffffffffffffffffffffff\n      and\n      0xffffffffffffffffffffffffffffffffffffffff\n      and\n      dup2\n      mstore\n      0x20\n      add\n      swap1\n      dup2\n      mstore\n      0x20\n      add\n      0x00\n      keccak256\n      0x00\n        /* \"contracts/CrowdFunding.sol\":3086:3122  contributions[msg.sender] -= _amount */\n      dup3\n      dup3\n      sload\n      tag_108\n      swap2\n      swap1\n      tag_109\n      jump\t// in\n    tag_108:\n      swap3\n      pop\n      pop\n      dup2\n      swap1\n      sstore\n      pop\n        /* \"contracts/CrowdFunding.sol\":3150:3157  _amount */\n      dup2\n        /* \"contracts/CrowdFunding.sol\":3133:3146  currentAmount */\n      0x05\n      0x00\n        /* \"contracts/CrowdFunding.sol\":3133:3157  currentAmount -= _amount */\n      dup3\n      dup3\n      sload\n      tag_110\n      swap2\n      swap1\n      tag_109\n      jump\t// in\n    tag_110:\n      swap3\n      pop\n      pop\n      dup2\n      swap1\n      sstore\n      pop\n        /* \"contracts/CrowdFunding.sol\":3178:3190  IERC20 token */\n      0x00\n        /* \"contracts/CrowdFunding.sol\":3200:3212  tokenAddress */\n      0x01\n      0x00\n      swap1\n      sload\n      swap1\n      0x0100\n      exp\n      swap1\n      div\n      0xffffffffffffffffffffffffffffffffffffffff\n      and\n        /* \"contracts/CrowdFunding.sol\":3178:3213  IERC20 token = IERC20(tokenAddress) */\n      swap1\n      pop\n        /* \"contracts/CrowdFunding.sol\":3232:3237  token */\n      dup1\n        /* \"contracts/CrowdFunding.sol\":3232:3246  token.transfer */\n      0xffffffffffffffffffffffffffffffffffffffff\n      and\n      0xa9059cbb\n        /* \"contracts/CrowdFunding.sol\":3247:3257  msg.sender */\n      caller\n        /* \"contracts/CrowdFunding.sol\":3259:3266  _amount */\n      dup6\n        /* \"contracts/CrowdFunding.sol\":3232:3267  token.transfer(msg.sender, _amount) */\n      mload(0x40)\n      dup4\n      0xffffffff\n      and\n      0xe0\n      shl\n      dup2\n      mstore\n      0x04\n      add\n      tag_111\n      swap3\n      swap2\n      swap1\n      tag_112\n      jump\t// in\n    tag_111:\n      0x20\n      mload(0x40)\n      dup1\n      dup4\n      sub\n      dup2\n      0x00\n      dup8\n      gas\n      call\n      iszero\n      dup1\n      iszero\n      tag_114\n      jumpi\n      returndatacopy(0x00, 0x00, returndatasize)\n      revert(0x00, returndatasize)\n    tag_114:\n      pop\n      pop\n      pop\n      pop\n      mload(0x40)\n      returndatasize\n      not(0x1f)\n      0x1f\n      dup3\n      add\n      and\n      dup3\n      add\n      dup1\n      0x40\n      mstore\n      pop\n      dup2\n      add\n      swap1\n      tag_115\n      swap2\n      swap1\n      tag_116\n      jump\t// in\n    tag_115:\n        /* \"contracts/CrowdFunding.sol\":3224:3287  require(token.transfer(msg.sender, _amount), \"Transfer failed\") */\n      tag_117\n      jumpi\n      mload(0x40)\n      0x08c379a000000000000000000000000000000000000000000000000000000000\n      dup2\n      mstore\n      0x04\n      add\n      tag_118\n      swap1\n      tag_119\n      jump\t// in\n    tag_118:\n      mload(0x40)\n      dup1\n      swap2\n      sub\n      swap1\n      revert\n    tag_117:\n        /* \"contracts/CrowdFunding.sol\":3318:3328  msg.sender */\n      caller\n        /* \"contracts/CrowdFunding.sol\":3303:3338  WithdrawalMade(msg.sender, _amount) */\n      0xffffffffffffffffffffffffffffffffffffffff\n      and\n      0xbc158bb64f05d6383aea69bbb0b20c1bbf4b7a18f63359c5649b7c39e29d3884\n        /* \"contracts/CrowdFunding.sol\":3330:3337  _amount */\n      dup5\n        /* \"contracts/CrowdFunding.sol\":3303:3338  WithdrawalMade(msg.sender, _amount) */\n      mload(0x40)\n      tag_120\n      swap2\n      swap1\n      tag_36\n      jump\t// in\n    tag_120:\n      mload(0x40)\n      dup1\n      swap2\n      sub\n      swap1\n      log2\n        /* \"contracts/CrowdFunding.sol\":2922:3346  {... */\n      pop\n        /* \"contracts/CrowdFunding.sol\":2854:3346  function withdraw(uint256 _amount) public inState(State.Nefinantat) {... */\n      pop\n      pop\n      jump\t// out\n        /* \"contracts/CrowdFunding.sol\":762:810  mapping(address => uint256) public contributions */\n    tag_43:\n      mstore(0x20, 0x07)\n      dup1\n      0x00\n      mstore\n      keccak256(0x00, 0x40)\n      0x00\n      swap2\n      pop\n      swap1\n      pop\n      sload\n      dup2\n      jump\t// out\n        /* \"contracts/CrowdFunding.sol\":557:589  address public distributeAddress */\n    tag_46:\n      0x03\n      0x00\n      swap1\n      sload\n      swap1\n      0x0100\n      exp\n      swap1\n      div\n      0xffffffffffffffffffffffffffffffffffffffff\n      and\n      dup2\n      jump\t// out\n        /* \"contracts/CrowdFunding.sol\":4024:4441  function finalizeAndTransfer() public onlyOwner inState(State.Finantat) {... */\n    tag_50:\n        /* \"contracts/CrowdFunding.sol\":1167:1172  owner */\n      0x00\n      0x00\n      swap1\n      sload\n      swap1\n      0x0100\n      exp\n      swap1\n      div\n      0xffffffffffffffffffffffffffffffffffffffff\n      and\n        /* \"contracts/CrowdFunding.sol\":1153:1172  msg.sender == owner */\n      0xffffffffffffffffffffffffffffffffffffffff\n      and\n        /* \"contracts/CrowdFunding.sol\":1153:1163  msg.sender */\n      caller\n        /* \"contracts/CrowdFunding.sol\":1153:1172  msg.sender == owner */\n      0xffffffffffffffffffffffffffffffffffffffff\n      and\n      eq\n        /* \"contracts/CrowdFunding.sol\":1145:1187  require(msg.sender == owner, \"Only owner\") */\n      tag_122\n      jumpi\n      mload(0x40)\n      0x08c379a000000000000000000000000000000000000000000000000000000000\n      dup2\n      mstore\n      0x04\n      add\n      tag_123\n      swap1\n      tag_124\n      jump\t// in\n    tag_123:\n      mload(0x40)\n      dup1\n      swap2\n      sub\n      swap1\n      revert\n    tag_122:\n        /* \"contracts/CrowdFunding.sol\":4080:4094  State.Finantat */\n      0x02\n        /* \"contracts/CrowdFunding.sol\":1285:1291  _state */\n      dup1\n        /* \"contracts/CrowdFunding.sol\":1269:1291  currentState == _state */\n      0x02\n      dup2\n      gt\n      iszero\n      tag_126\n      jumpi\n      tag_127\n      tag_83\n      jump\t// in\n    tag_127:\n    tag_126:\n        /* \"contracts/CrowdFunding.sol\":1269:1281  currentState */\n      0x06\n      0x00\n      swap1\n      sload\n      swap1\n      0x0100\n      exp\n      swap1\n      div\n      0xff\n      and\n        /* \"contracts/CrowdFunding.sol\":1269:1291  currentState == _state */\n      0x02\n      dup2\n      gt\n      iszero\n      tag_128\n      jumpi\n      tag_129\n      tag_83\n      jump\t// in\n    tag_129:\n    tag_128:\n      eq\n        /* \"contracts/CrowdFunding.sol\":1261:1309  require(currentState == _state, \"Invalid state\") */\n      tag_130\n      jumpi\n      mload(0x40)\n      0x08c379a000000000000000000000000000000000000000000000000000000000\n      dup2\n      mstore\n      0x04\n      add\n      tag_131\n      swap1\n      tag_100\n      jump\t// in\n    tag_131:\n      mload(0x40)\n      dup1\n      swap2\n      sub\n      swap1\n      revert\n    tag_130:\n        /* \"contracts/CrowdFunding.sol\":4144:4145  0 */\n      0x00\n        /* \"contracts/CrowdFunding.sol\":4115:4146  distributeAddress != address(0) */\n      0xffffffffffffffffffffffffffffffffffffffff\n      and\n        /* \"contracts/CrowdFunding.sol\":4115:4132  distributeAddress */\n      0x03\n      0x00\n      swap1\n      sload\n      swap1\n      0x0100\n      exp\n      swap1\n      div\n      0xffffffffffffffffffffffffffffffffffffffff\n      and\n        /* \"contracts/CrowdFunding.sol\":4115:4146  distributeAddress != address(0) */\n      0xffffffffffffffffffffffffffffffffffffffff\n      and\n      sub\n        /* \"contracts/CrowdFunding.sol\":4107:4169  require(distributeAddress != address(0), \"Distribute not set\") */\n      tag_133\n      jumpi\n      mload(0x40)\n      0x08c379a000000000000000000000000000000000000000000000000000000000\n      dup2\n      mstore\n      0x04\n      add\n      tag_134\n      swap1\n      tag_135\n      jump\t// in\n    tag_134:\n      mload(0x40)\n      dup1\n      swap2\n      sub\n      swap1\n      revert\n    tag_133:\n        /* \"contracts/CrowdFunding.sol\":4190:4205  uint256 balance */\n      0x00\n        /* \"contracts/CrowdFunding.sol\":4215:4227  tokenAddress */\n      0x01\n      0x00\n      swap1\n      sload\n      swap1\n      0x0100\n      exp\n      swap1\n      div\n      0xffffffffffffffffffffffffffffffffffffffff\n      and\n        /* \"contracts/CrowdFunding.sol\":4208:4238  IERC20(tokenAddress).balanceOf */\n      0xffffffffffffffffffffffffffffffffffffffff\n      and\n      0x70a08231\n        /* \"contracts/CrowdFunding.sol\":4247:4251  this */\n      address\n        /* \"contracts/CrowdFunding.sol\":4208:4253  IERC20(tokenAddress).balanceOf(address(this)) */\n      mload(0x40)\n      dup3\n      0xffffffff\n      and\n      0xe0\n      shl\n      dup2\n      mstore\n      0x04\n      add\n      tag_136\n      swap2\n      swap1\n      tag_48\n      jump\t// in\n    tag_136:\n      0x20\n      mload(0x40)\n      dup1\n      dup4\n      sub\n      dup2\n      dup7\n      gas\n      staticcall\n      iszero\n      dup1\n      iszero\n      tag_138\n      jumpi\n      returndatacopy(0x00, 0x00, returndatasize)\n      revert(0x00, returndatasize)\n    tag_138:\n      pop\n      pop\n      pop\n      pop\n      mload(0x40)\n      returndatasize\n      not(0x1f)\n      0x1f\n      dup3\n      add\n      and\n      dup3\n      add\n      dup1\n      0x40\n      mstore\n      pop\n      dup2\n      add\n      swap1\n      tag_139\n      swap2\n      swap1\n      tag_140\n      jump\t// in\n    tag_139:\n        /* \"contracts/CrowdFunding.sol\":4190:4253  uint256 balance = IERC20(tokenAddress).balanceOf(address(this)) */\n      swap1\n      pop\n        /* \"contracts/CrowdFunding.sol\":4282:4283  0 */\n      0x00\n        /* \"contracts/CrowdFunding.sol\":4272:4279  balance */\n      dup2\n        /* \"contracts/CrowdFunding.sol\":4272:4283  balance > 0 */\n      gt\n        /* \"contracts/CrowdFunding.sol\":4264:4296  require(balance > 0, \"No funds\") */\n      tag_141\n      jumpi\n      mload(0x40)\n      0x08c379a000000000000000000000000000000000000000000000000000000000\n      dup2\n      mstore\n      0x04\n      add\n      tag_142\n      swap1\n      tag_143\n      jump\t// in\n    tag_142:\n      mload(0x40)\n      dup1\n      swap2\n      sub\n      swap1\n      revert\n    tag_141:\n        /* \"contracts/CrowdFunding.sol\":4317:4329  IERC20 token */\n      0x00\n        /* \"contracts/CrowdFunding.sol\":4339:4351  tokenAddress */\n      0x01\n      0x00\n      swap1\n      sload\n      swap1\n      0x0100\n      exp\n      swap1\n      div\n      0xffffffffffffffffffffffffffffffffffffffff\n      and\n        /* \"contracts/CrowdFunding.sol\":4317:4352  IERC20 token = IERC20(tokenAddress) */\n      swap1\n      pop\n        /* \"contracts/CrowdFunding.sol\":4371:4376  token */\n      dup1\n        /* \"contracts/CrowdFunding.sol\":4371:4385  token.transfer */\n      0xffffffffffffffffffffffffffffffffffffffff\n      and\n      0xa9059cbb\n        /* \"contracts/CrowdFunding.sol\":4386:4403  distributeAddress */\n      0x03\n      0x00\n      swap1\n      sload\n      swap1\n      0x0100\n      exp\n      swap1\n      div\n      0xffffffffffffffffffffffffffffffffffffffff\n      and\n        /* \"contracts/CrowdFunding.sol\":4405:4412  balance */\n      dup5\n        /* \"contracts/CrowdFunding.sol\":4371:4413  token.transfer(distributeAddress, balance) */\n      mload(0x40)\n      dup4\n      0xffffffff\n      and\n      0xe0\n      shl\n      dup2\n      mstore\n      0x04\n      add\n      tag_144\n      swap3\n      swap2\n      swap1\n      tag_112\n      jump\t// in\n    tag_144:\n      0x20\n      mload(0x40)\n      dup1\n      dup4\n      sub\n      dup2\n      0x00\n      dup8\n      gas\n      call\n      iszero\n      dup1\n      iszero\n      tag_146\n      jumpi\n      returndatacopy(0x00, 0x00, returndatasize)\n      revert(0x00, returndatasize)\n    tag_146:\n      pop\n      pop\n      pop\n      pop\n      mload(0x40)\n      returndatasize\n      not(0x1f)\n      0x1f\n      dup3\n      add\n      and\n      dup3\n      add\n      dup1\n      0x40\n      mstore\n      pop\n      dup2\n      add\n      swap1\n      tag_147\n      swap2\n      swap1\n      tag_116\n      jump\t// in\n    tag_147:\n        /* \"contracts/CrowdFunding.sol\":4363:4433  require(token.transfer(distributeAddress, balance), \"Transfer failed\") */\n      tag_148\n      jumpi\n      mload(0x40)\n      0x08c379a000000000000000000000000000000000000000000000000000000000\n      dup2\n      mstore\n      0x04\n      add\n      tag_149\n      swap1\n      tag_119\n      jump\t// in\n    tag_149:\n      mload(0x40)\n      dup1\n      swap2\n      sub\n      swap1\n      revert\n    tag_148:\n        /* \"contracts/CrowdFunding.sol\":4096:4441  {... */\n      pop\n      pop\n        /* \"contracts/CrowdFunding.sol\":1198:1199  _ */\n      pop\n        /* \"contracts/CrowdFunding.sol\":4024:4441  function finalizeAndTransfer() public onlyOwner inState(State.Finantat) {... */\n      jump\t// out\n        /* \"contracts/CrowdFunding.sol\":521:550  address public sponsorAddress */\n    tag_52:\n      0x02\n      0x00\n      swap1\n      sload\n      swap1\n      0x0100\n      exp\n      swap1\n      div\n      0xffffffffffffffffffffffffffffffffffffffff\n      and\n      dup2\n      jump\t// out\n        /* \"contracts/CrowdFunding.sol\":596:622  uint256 public fundingGoal */\n    tag_55:\n      sload(0x04)\n      dup2\n      jump\t// out\n        /* \"contracts/CrowdFunding.sol\":460:480  address public owner */\n    tag_58:\n      0x00\n      0x00\n      swap1\n      sload\n      swap1\n      0x0100\n      exp\n      swap1\n      div\n      0xffffffffffffffffffffffffffffffffffffffff\n      and\n      dup2\n      jump\t// out\n        /* \"contracts/CrowdFunding.sol\":487:514  address public tokenAddress */\n    tag_61:\n      0x01\n      0x00\n      swap1\n      sload\n      swap1\n      0x0100\n      exp\n      swap1\n      div\n      0xffffffffffffffffffffffffffffffffffffffff\n      and\n      dup2\n      jump\t// out\n        /* \"contracts/CrowdFunding.sol\":1909:2112  function setDistributeAddress(address _distributeAddress) public onlyOwner {... */\n    tag_65:\n        /* \"contracts/CrowdFunding.sol\":1167:1172  owner */\n      0x00\n      0x00\n      swap1\n      sload\n      swap1\n      0x0100\n      exp\n      swap1\n      div\n      0xffffffffffffffffffffffffffffffffffffffff\n      and\n        /* \"contracts/CrowdFunding.sol\":1153:1172  msg.sender == owner */\n      0xffffffffffffffffffffffffffffffffffffffff\n      and\n        /* \"contracts/CrowdFunding.sol\":1153:1163  msg.sender */\n      caller\n        /* \"contracts/CrowdFunding.sol\":1153:1172  msg.sender == owner */\n      0xffffffffffffffffffffffffffffffffffffffff\n      and\n      eq\n        /* \"contracts/CrowdFunding.sol\":1145:1187  require(msg.sender == owner, \"Only owner\") */\n      tag_151\n      jumpi\n      mload(0x40)\n      0x08c379a000000000000000000000000000000000000000000000000000000000\n      dup2\n      mstore\n      0x04\n      add\n      tag_152\n      swap1\n      tag_124\n      jump\t// in\n    tag_152:\n      mload(0x40)\n      dup1\n      swap2\n      sub\n      swap1\n      revert\n    tag_151:\n        /* \"contracts/CrowdFunding.sol\":2033:2034  0 */\n      0x00\n        /* \"contracts/CrowdFunding.sol\":2003:2035  _distributeAddress != address(0) */\n      0xffffffffffffffffffffffffffffffffffffffff\n      and\n        /* \"contracts/CrowdFunding.sol\":2003:2021  _distributeAddress */\n      dup2\n        /* \"contracts/CrowdFunding.sol\":2003:2035  _distributeAddress != address(0) */\n      0xffffffffffffffffffffffffffffffffffffffff\n      and\n      sub\n        /* \"contracts/CrowdFunding.sol\":1995:2055  require(_distributeAddress != address(0), \"Invalid address\") */\n      tag_154\n      jumpi\n      mload(0x40)\n      0x08c379a000000000000000000000000000000000000000000000000000000000\n      dup2\n      mstore\n      0x04\n      add\n      tag_155\n      swap1\n      tag_156\n      jump\t// in\n    tag_155:\n      mload(0x40)\n      dup1\n      swap2\n      sub\n      swap1\n      revert\n    tag_154:\n        /* \"contracts/CrowdFunding.sol\":2086:2104  _distributeAddress */\n      dup1\n        /* \"contracts/CrowdFunding.sol\":2066:2083  distributeAddress */\n      0x03\n      0x00\n        /* \"contracts/CrowdFunding.sol\":2066:2104  distributeAddress = _distributeAddress */\n      0x0100\n      exp\n      dup2\n      sload\n      dup2\n      0xffffffffffffffffffffffffffffffffffffffff\n      mul\n      not\n      and\n      swap1\n      dup4\n      0xffffffffffffffffffffffffffffffffffffffff\n      and\n      mul\n      or\n      swap1\n      sstore\n      pop\n        /* \"contracts/CrowdFunding.sol\":1909:2112  function setDistributeAddress(address _distributeAddress) public onlyOwner {... */\n      pop\n      jump\t// out\n        /* \"contracts/CrowdFunding.sol\":2124:2842  function contribute(uint256 _amount) public inState(State.Nefinantat) {... */\n    tag_68:\n        /* \"contracts/CrowdFunding.sol\":2176:2192  State.Nefinantat */\n      0x00\n        /* \"contracts/CrowdFunding.sol\":1285:1291  _state */\n      dup1\n        /* \"contracts/CrowdFunding.sol\":1269:1291  currentState == _state */\n      0x02\n      dup2\n      gt\n      iszero\n      tag_158\n      jumpi\n      tag_159\n      tag_83\n      jump\t// in\n    tag_159:\n    tag_158:\n        /* \"contracts/CrowdFunding.sol\":1269:1281  currentState */\n      0x06\n      0x00\n      swap1\n      sload\n      swap1\n      0x0100\n      exp\n      swap1\n      div\n      0xff\n      and\n        /* \"contracts/CrowdFunding.sol\":1269:1291  currentState == _state */\n      0x02\n      dup2\n      gt\n      iszero\n      tag_160\n      jumpi\n      tag_161\n      tag_83\n      jump\t// in\n    tag_161:\n    tag_160:\n      eq\n        /* \"contracts/CrowdFunding.sol\":1261:1309  require(currentState == _state, \"Invalid state\") */\n      tag_162\n      jumpi\n      mload(0x40)\n      0x08c379a000000000000000000000000000000000000000000000000000000000\n      dup2\n      mstore\n      0x04\n      add\n      tag_163\n      swap1\n      tag_100\n      jump\t// in\n    tag_163:\n      mload(0x40)\n      dup1\n      swap2\n      sub\n      swap1\n      revert\n    tag_162:\n        /* \"contracts/CrowdFunding.sol\":2223:2224  0 */\n      0x00\n        /* \"contracts/CrowdFunding.sol\":2213:2220  _amount */\n      dup3\n        /* \"contracts/CrowdFunding.sol\":2213:2224  _amount > 0 */\n      gt\n        /* \"contracts/CrowdFunding.sol\":2205:2252  require(_amount > 0, \"Amount must be positive\") */\n      tag_165\n      jumpi\n      mload(0x40)\n      0x08c379a000000000000000000000000000000000000000000000000000000000\n      dup2\n      mstore\n      0x04\n      add\n      tag_166\n      swap1\n      tag_104\n      jump\t// in\n    tag_166:\n      mload(0x40)\n      dup1\n      swap2\n      sub\n      swap1\n      revert\n    tag_165:\n        /* \"contracts/CrowdFunding.sol\":2298:2309  fundingGoal */\n      sload(0x04)\n        /* \"contracts/CrowdFunding.sol\":2287:2294  _amount */\n      dup3\n        /* \"contracts/CrowdFunding.sol\":2271:2284  currentAmount */\n      sload(0x05)\n        /* \"contracts/CrowdFunding.sol\":2271:2294  currentAmount + _amount */\n      tag_167\n      swap2\n      swap1\n      tag_168\n      jump\t// in\n    tag_167:\n        /* \"contracts/CrowdFunding.sol\":2271:2309  currentAmount + _amount <= fundingGoal */\n      gt\n      iszero\n        /* \"contracts/CrowdFunding.sol\":2263:2326  require(currentAmount + _amount <= fundingGoal, \"Exceeds goal\") */\n      tag_169\n      jumpi\n      mload(0x40)\n      0x08c379a000000000000000000000000000000000000000000000000000000000\n      dup2\n      mstore\n      0x04\n      add\n      tag_170\n      swap1\n      tag_171\n      jump\t// in\n    tag_170:\n      mload(0x40)\n      dup1\n      swap2\n      sub\n      swap1\n      revert\n    tag_169:\n        /* \"contracts/CrowdFunding.sol\":2347:2359  IERC20 token */\n      0x00\n        /* \"contracts/CrowdFunding.sol\":2369:2381  tokenAddress */\n      0x01\n      0x00\n      swap1\n      sload\n      swap1\n      0x0100\n      exp\n      swap1\n      div\n      0xffffffffffffffffffffffffffffffffffffffff\n      and\n        /* \"contracts/CrowdFunding.sol\":2347:2382  IERC20 token = IERC20(tokenAddress) */\n      swap1\n      pop\n        /* \"contracts/CrowdFunding.sol\":2401:2406  token */\n      dup1\n        /* \"contracts/CrowdFunding.sol\":2401:2419  token.transferFrom */\n      0xffffffffffffffffffffffffffffffffffffffff\n      and\n      0x23b872dd\n        /* \"contracts/CrowdFunding.sol\":2420:2430  msg.sender */\n      caller\n        /* \"contracts/CrowdFunding.sol\":2440:2444  this */\n      address\n        /* \"contracts/CrowdFunding.sol\":2447:2454  _amount */\n      dup7\n        /* \"contracts/CrowdFunding.sol\":2401:2455  token.transferFrom(msg.sender, address(this), _amount) */\n      mload(0x40)\n      dup5\n      0xffffffff\n      and\n      0xe0\n      shl\n      dup2\n      mstore\n      0x04\n      add\n      tag_172\n      swap4\n      swap3\n      swap2\n      swap1\n      tag_173\n      jump\t// in\n    tag_172:\n      0x20\n      mload(0x40)\n      dup1\n      dup4\n      sub\n      dup2\n      0x00\n      dup8\n      gas\n      call\n      iszero\n      dup1\n      iszero\n      tag_175\n      jumpi\n      returndatacopy(0x00, 0x00, returndatasize)\n      revert(0x00, returndatasize)\n    tag_175:\n      pop\n      pop\n      pop\n      pop\n      mload(0x40)\n      returndatasize\n      not(0x1f)\n      0x1f\n      dup3\n      add\n      and\n      dup3\n      add\n      dup1\n      0x40\n      mstore\n      pop\n      dup2\n      add\n      swap1\n      tag_176\n      swap2\n      swap1\n      tag_116\n      jump\t// in\n    tag_176:\n        /* \"contracts/CrowdFunding.sol\":2393:2475  require(token.transferFrom(msg.sender, address(this), _amount), \"Transfer failed\") */\n      tag_177\n      jumpi\n      mload(0x40)\n      0x08c379a000000000000000000000000000000000000000000000000000000000\n      dup2\n      mstore\n      0x04\n      add\n      tag_178\n      swap1\n      tag_119\n      jump\t// in\n    tag_178:\n      mload(0x40)\n      dup1\n      swap2\n      sub\n      swap1\n      revert\n    tag_177:\n        /* \"contracts/CrowdFunding.sol\":2525:2532  _amount */\n      dup3\n        /* \"contracts/CrowdFunding.sol\":2496:2509  contributions */\n      0x07\n        /* \"contracts/CrowdFunding.sol\":2496:2521  contributions[msg.sender] */\n      0x00\n        /* \"contracts/CrowdFunding.sol\":2510:2520  msg.sender */\n      caller\n        /* \"contracts/CrowdFunding.sol\":2496:2521  contributions[msg.sender] */\n      0xffffffffffffffffffffffffffffffffffffffff\n      and\n      0xffffffffffffffffffffffffffffffffffffffff\n      and\n      dup2\n      mstore\n      0x20\n      add\n      swap1\n      dup2\n      mstore\n      0x20\n      add\n      0x00\n      keccak256\n      0x00\n        /* \"contracts/CrowdFunding.sol\":2496:2532  contributions[msg.sender] += _amount */\n      dup3\n      dup3\n      sload\n      tag_179\n      swap2\n      swap1\n      tag_168\n      jump\t// in\n    tag_179:\n      swap3\n      pop\n      pop\n      dup2\n      swap1\n      sstore\n      pop\n        /* \"contracts/CrowdFunding.sol\":2560:2567  _amount */\n      dup3\n        /* \"contracts/CrowdFunding.sol\":2543:2556  currentAmount */\n      0x05\n      0x00\n        /* \"contracts/CrowdFunding.sol\":2543:2567  currentAmount += _amount */\n      dup3\n      dup3\n      sload\n      tag_180\n      swap2\n      swap1\n      tag_168\n      jump\t// in\n    tag_180:\n      swap3\n      pop\n      pop\n      dup2\n      swap1\n      sstore\n      pop\n        /* \"contracts/CrowdFunding.sol\":2604:2614  msg.sender */\n      caller\n        /* \"contracts/CrowdFunding.sol\":2583:2624  ContributionReceived(msg.sender, _amount) */\n      0xffffffffffffffffffffffffffffffffffffffff\n      and\n      0x1bb460ccaaf70fbacfec17a376f8acbd278c1405590ffcc8ebe4b88daf4f64ad\n        /* \"contracts/CrowdFunding.sol\":2616:2623  _amount */\n      dup5\n        /* \"contracts/CrowdFunding.sol\":2583:2624  ContributionReceived(msg.sender, _amount) */\n      mload(0x40)\n      tag_181\n      swap2\n      swap1\n      tag_36\n      jump\t// in\n    tag_181:\n      mload(0x40)\n      dup1\n      swap2\n      sub\n      swap1\n      log2\n        /* \"contracts/CrowdFunding.sol\":2666:2677  fundingGoal */\n      sload(0x04)\n        /* \"contracts/CrowdFunding.sol\":2649:2662  currentAmount */\n      sload(0x05)\n        /* \"contracts/CrowdFunding.sol\":2649:2677  currentAmount >= fundingGoal */\n      lt\n        /* \"contracts/CrowdFunding.sol\":2645:2835  if (currentAmount >= fundingGoal) {... */\n      tag_182\n      jumpi\n        /* \"contracts/CrowdFunding.sol\":2709:2726  State.Prefinantat */\n      0x01\n        /* \"contracts/CrowdFunding.sol\":2694:2706  currentState */\n      0x06\n      0x00\n        /* \"contracts/CrowdFunding.sol\":2694:2726  currentState = State.Prefinantat */\n      0x0100\n      exp\n      dup2\n      sload\n      dup2\n      0xff\n      mul\n      not\n      and\n      swap1\n      dup4\n      0x02\n      dup2\n      gt\n      iszero\n      tag_183\n      jumpi\n      tag_184\n      tag_83\n      jump\t// in\n    tag_184:\n    tag_183:\n      mul\n      or\n      swap1\n      sstore\n      pop\n        /* \"contracts/CrowdFunding.sol\":2746:2772  GoalReached(currentAmount) */\n      0xfbfd8ab7c24300fa9888cd721c8565a7da56759384781283684dcf7c7c4a846b\n        /* \"contracts/CrowdFunding.sol\":2758:2771  currentAmount */\n      sload(0x05)\n        /* \"contracts/CrowdFunding.sol\":2746:2772  GoalReached(currentAmount) */\n      mload(0x40)\n      tag_185\n      swap2\n      swap1\n      tag_36\n      jump\t// in\n    tag_185:\n      mload(0x40)\n      dup1\n      swap2\n      sub\n      swap1\n      log1\n        /* \"contracts/CrowdFunding.sol\":2792:2823  StateChanged(State.Prefinantat) */\n      0x551dc40198cc79684bb69e4931dba4ac16e4598792ee1c0a5000aeea366d7bb6\n        /* \"contracts/CrowdFunding.sol\":2805:2822  State.Prefinantat */\n      0x01\n        /* \"contracts/CrowdFunding.sol\":2792:2823  StateChanged(State.Prefinantat) */\n      mload(0x40)\n      tag_186\n      swap2\n      swap1\n      tag_26\n      jump\t// in\n    tag_186:\n      mload(0x40)\n      dup1\n      swap2\n      sub\n      swap1\n      log1\n        /* \"contracts/CrowdFunding.sol\":2645:2835  if (currentAmount >= fundingGoal) {... */\n    tag_182:\n        /* \"contracts/CrowdFunding.sol\":2194:2842  {... */\n      pop\n        /* \"contracts/CrowdFunding.sol\":2124:2842  function contribute(uint256 _amount) public inState(State.Nefinantat) {... */\n      pop\n      pop\n      jump\t// out\n        /* \"contracts/CrowdFunding.sol\":3358:4012  function requestSponsorship() public onlyOwner inState(State.Prefinantat) {... */\n    tag_70:\n        /* \"contracts/CrowdFunding.sol\":1167:1172  owner */\n      0x00\n      0x00\n      swap1\n      sload\n      swap1\n      0x0100\n      exp\n      swap1\n      div\n      0xffffffffffffffffffffffffffffffffffffffff\n      and\n        /* \"contracts/CrowdFunding.sol\":1153:1172  msg.sender == owner */\n      0xffffffffffffffffffffffffffffffffffffffff\n      and\n        /* \"contracts/CrowdFunding.sol\":1153:1163  msg.sender */\n      caller\n        /* \"contracts/CrowdFunding.sol\":1153:1172  msg.sender == owner */\n      0xffffffffffffffffffffffffffffffffffffffff\n      and\n      eq\n        /* \"contracts/CrowdFunding.sol\":1145:1187  require(msg.sender == owner, \"Only owner\") */\n      tag_188\n      jumpi\n      mload(0x40)\n      0x08c379a000000000000000000000000000000000000000000000000000000000\n      dup2\n      mstore\n      0x04\n      add\n      tag_189\n      swap1\n      tag_124\n      jump\t// in\n    tag_189:\n      mload(0x40)\n      dup1\n      swap2\n      sub\n      swap1\n      revert\n    tag_188:\n        /* \"contracts/CrowdFunding.sol\":3413:3430  State.Prefinantat */\n      0x01\n        /* \"contracts/CrowdFunding.sol\":1285:1291  _state */\n      dup1\n        /* \"contracts/CrowdFunding.sol\":1269:1291  currentState == _state */\n      0x02\n      dup2\n      gt\n      iszero\n      tag_191\n      jumpi\n      tag_192\n      tag_83\n      jump\t// in\n    tag_192:\n    tag_191:\n        /* \"contracts/CrowdFunding.sol\":1269:1281  currentState */\n      0x06\n      0x00\n      swap1\n      sload\n      swap1\n      0x0100\n      exp\n      swap1\n      div\n      0xff\n      and\n        /* \"contracts/CrowdFunding.sol\":1269:1291  currentState == _state */\n      0x02\n      dup2\n      gt\n      iszero\n      tag_193\n      jumpi\n      tag_194\n      tag_83\n      jump\t// in\n    tag_194:\n    tag_193:\n      eq\n        /* \"contracts/CrowdFunding.sol\":1261:1309  require(currentState == _state, \"Invalid state\") */\n      tag_195\n      jumpi\n      mload(0x40)\n      0x08c379a000000000000000000000000000000000000000000000000000000000\n      dup2\n      mstore\n      0x04\n      add\n      tag_196\n      swap1\n      tag_100\n      jump\t// in\n    tag_196:\n      mload(0x40)\n      dup1\n      swap2\n      sub\n      swap1\n      revert\n    tag_195:\n        /* \"contracts/CrowdFunding.sol\":3477:3478  0 */\n      0x00\n        /* \"contracts/CrowdFunding.sol\":3451:3479  sponsorAddress != address(0) */\n      0xffffffffffffffffffffffffffffffffffffffff\n      and\n        /* \"contracts/CrowdFunding.sol\":3451:3465  sponsorAddress */\n      0x02\n      0x00\n      swap1\n      sload\n      swap1\n      0x0100\n      exp\n      swap1\n      div\n      0xffffffffffffffffffffffffffffffffffffffff\n      and\n        /* \"contracts/CrowdFunding.sol\":3451:3479  sponsorAddress != address(0) */\n      0xffffffffffffffffffffffffffffffffffffffff\n      and\n      sub\n        /* \"contracts/CrowdFunding.sol\":3443:3499  require(sponsorAddress != address(0), \"Sponsor not set\") */\n      tag_198\n      jumpi\n      mload(0x40)\n      0x08c379a000000000000000000000000000000000000000000000000000000000\n      dup2\n      mstore\n      0x04\n      add\n      tag_199\n      swap1\n      tag_200\n      jump\t// in\n    tag_199:\n      mload(0x40)\n      dup1\n      swap2\n      sub\n      swap1\n      revert\n    tag_198:\n        /* \"contracts/CrowdFunding.sol\":3520:3541  uint256 balanceBefore */\n      0x00\n        /* \"contracts/CrowdFunding.sol\":3551:3563  tokenAddress */\n      0x01\n      0x00\n      swap1\n      sload\n      swap1\n      0x0100\n      exp\n      swap1\n      div\n      0xffffffffffffffffffffffffffffffffffffffff\n      and\n        /* \"contracts/CrowdFunding.sol\":3544:3574  IERC20(tokenAddress).balanceOf */\n      0xffffffffffffffffffffffffffffffffffffffff\n      and\n      0x70a08231\n        /* \"contracts/CrowdFunding.sol\":3583:3587  this */\n      address\n        /* \"contracts/CrowdFunding.sol\":3544:3589  IERC20(tokenAddress).balanceOf(address(this)) */\n      mload(0x40)\n      dup3\n      0xffffffff\n      and\n      0xe0\n      shl\n      dup2\n      mstore\n      0x04\n      add\n      tag_201\n      swap2\n      swap1\n      tag_48\n      jump\t// in\n    tag_201:\n      0x20\n      mload(0x40)\n      dup1\n      dup4\n      sub\n      dup2\n      dup7\n      gas\n      staticcall\n      iszero\n      dup1\n      iszero\n      tag_203\n      jumpi\n      returndatacopy(0x00, 0x00, returndatasize)\n      revert(0x00, returndatasize)\n    tag_203:\n      pop\n      pop\n      pop\n      pop\n      mload(0x40)\n      returndatasize\n      not(0x1f)\n      0x1f\n      dup3\n      add\n      and\n      dup3\n      add\n      dup1\n      0x40\n      mstore\n      pop\n      dup2\n      add\n      swap1\n      tag_204\n      swap2\n      swap1\n      tag_140\n      jump\t// in\n    tag_204:\n        /* \"contracts/CrowdFunding.sol\":3520:3589  uint256 balanceBefore = IERC20(tokenAddress).balanceOf(address(this)) */\n      swap1\n      pop\n        /* \"contracts/CrowdFunding.sol\":3616:3630  sponsorAddress */\n      0x02\n      0x00\n      swap1\n      sload\n      swap1\n      0x0100\n      exp\n      swap1\n      div\n      0xffffffffffffffffffffffffffffffffffffffff\n      and\n        /* \"contracts/CrowdFunding.sol\":3600:3646  ISponsorFunding(sponsorAddress).provideSponsor */\n      0xffffffffffffffffffffffffffffffffffffffff\n      and\n      0xc5d9b404\n        /* \"contracts/CrowdFunding.sol\":3655:3659  this */\n      address\n        /* \"contracts/CrowdFunding.sol\":3600:3661  ISponsorFunding(sponsorAddress).provideSponsor(address(this)) */\n      mload(0x40)\n      dup3\n      0xffffffff\n      and\n      0xe0\n      shl\n      dup2\n      mstore\n      0x04\n      add\n      tag_205\n      swap2\n      swap1\n      tag_48\n      jump\t// in\n    tag_205:\n      0x00\n      mload(0x40)\n      dup1\n      dup4\n      sub\n      dup2\n      0x00\n      dup8\n      dup1\n      extcodesize\n      iszero\n      dup1\n      iszero\n      tag_206\n      jumpi\n      revert(0x00, 0x00)\n    tag_206:\n      pop\n      gas\n      call\n      iszero\n      dup1\n      iszero\n      tag_208\n      jumpi\n      returndatacopy(0x00, 0x00, returndatasize)\n      revert(0x00, returndatasize)\n    tag_208:\n      pop\n      pop\n      pop\n      pop\n        /* \"contracts/CrowdFunding.sol\":3672:3692  uint256 balanceAfter */\n      0x00\n        /* \"contracts/CrowdFunding.sol\":3702:3714  tokenAddress */\n      0x01\n      0x00\n      swap1\n      sload\n      swap1\n      0x0100\n      exp\n      swap1\n      div\n      0xffffffffffffffffffffffffffffffffffffffff\n      and\n        /* \"contracts/CrowdFunding.sol\":3695:3725  IERC20(tokenAddress).balanceOf */\n      0xffffffffffffffffffffffffffffffffffffffff\n      and\n      0x70a08231\n        /* \"contracts/CrowdFunding.sol\":3734:3738  this */\n      address\n        /* \"contracts/CrowdFunding.sol\":3695:3740  IERC20(tokenAddress).balanceOf(address(this)) */\n      mload(0x40)\n      dup3\n      0xffffffff\n      and\n      0xe0\n      shl\n      dup2\n      mstore\n      0x04\n      add\n      tag_209\n      swap2\n      swap1\n      tag_48\n      jump\t// in\n    tag_209:\n      0x20\n      mload(0x40)\n      dup1\n      dup4\n      sub\n      dup2\n      dup7\n      gas\n      staticcall\n      iszero\n      dup1\n      iszero\n      tag_211\n      jumpi\n      returndatacopy(0x00, 0x00, returndatasize)\n      revert(0x00, returndatasize)\n    tag_211:\n      pop\n      pop\n      pop\n      pop\n      mload(0x40)\n      returndatasize\n      not(0x1f)\n      0x1f\n      dup3\n      add\n      and\n      dup3\n      add\n      dup1\n      0x40\n      mstore\n      pop\n      dup2\n      add\n      swap1\n      tag_212\n      swap2\n      swap1\n      tag_140\n      jump\t// in\n    tag_212:\n        /* \"contracts/CrowdFunding.sol\":3672:3740  uint256 balanceAfter = IERC20(tokenAddress).balanceOf(address(this)) */\n      swap1\n      pop\n        /* \"contracts/CrowdFunding.sol\":3761:3786  uint256 sponsorshipAmount */\n      0x00\n        /* \"contracts/CrowdFunding.sol\":3804:3817  balanceBefore */\n      dup3\n        /* \"contracts/CrowdFunding.sol\":3789:3801  balanceAfter */\n      dup3\n        /* \"contracts/CrowdFunding.sol\":3789:3817  balanceAfter - balanceBefore */\n      tag_213\n      swap2\n      swap1\n      tag_109\n      jump\t// in\n    tag_213:\n        /* \"contracts/CrowdFunding.sol\":3761:3817  uint256 sponsorshipAmount = balanceAfter - balanceBefore */\n      swap1\n      pop\n        /* \"contracts/CrowdFunding.sol\":3844:3856  balanceAfter */\n      dup2\n        /* \"contracts/CrowdFunding.sol\":3828:3841  currentAmount */\n      0x05\n        /* \"contracts/CrowdFunding.sol\":3828:3856  currentAmount = balanceAfter */\n      dup2\n      swap1\n      sstore\n      pop\n        /* \"contracts/CrowdFunding.sol\":3882:3896  State.Finantat */\n      0x02\n        /* \"contracts/CrowdFunding.sol\":3867:3879  currentState */\n      0x06\n      0x00\n        /* \"contracts/CrowdFunding.sol\":3867:3896  currentState = State.Finantat */\n      0x0100\n      exp\n      dup2\n      sload\n      dup2\n      0xff\n      mul\n      not\n      and\n      swap1\n      dup4\n      0x02\n      dup2\n      gt\n      iszero\n      tag_214\n      jumpi\n      tag_215\n      tag_83\n      jump\t// in\n    tag_215:\n    tag_214:\n      mul\n      or\n      swap1\n      sstore\n      pop\n        /* \"contracts/CrowdFunding.sol\":3922:3960  SponsorshipReceived(sponsorshipAmount) */\n      0xe39ffe3225753008b3e2be16d5450bd66fae7dd9bf04cccdc2f2218a74f24210\n        /* \"contracts/CrowdFunding.sol\":3942:3959  sponsorshipAmount */\n      dup2\n        /* \"contracts/CrowdFunding.sol\":3922:3960  SponsorshipReceived(sponsorshipAmount) */\n      mload(0x40)\n      tag_216\n      swap2\n      swap1\n      tag_36\n      jump\t// in\n    tag_216:\n      mload(0x40)\n      dup1\n      swap2\n      sub\n      swap1\n      log1\n        /* \"contracts/CrowdFunding.sol\":3976:4004  StateChanged(State.Finantat) */\n      0x551dc40198cc79684bb69e4931dba4ac16e4598792ee1c0a5000aeea366d7bb6\n        /* \"contracts/CrowdFunding.sol\":3989:4003  State.Finantat */\n      0x02\n        /* \"contracts/CrowdFunding.sol\":3976:4004  StateChanged(State.Finantat) */\n      mload(0x40)\n      tag_217\n      swap2\n      swap1\n      tag_26\n      jump\t// in\n    tag_217:\n      mload(0x40)\n      dup1\n      swap2\n      sub\n      swap1\n      log1\n        /* \"contracts/CrowdFunding.sol\":3432:4012  {... */\n      pop\n      pop\n      pop\n        /* \"contracts/CrowdFunding.sol\":1198:1199  _ */\n      pop\n        /* \"contracts/CrowdFunding.sol\":3358:4012  function requestSponsorship() public onlyOwner inState(State.Prefinantat) {... */\n      jump\t// out\n        /* \"contracts/CrowdFunding.sol\":4837:5003  function getRemainingAmount() public view returns (uint256) {... */\n    tag_72:\n        /* \"contracts/CrowdFunding.sol\":4888:4895  uint256 */\n      0x00\n        /* \"contracts/CrowdFunding.sol\":4929:4940  fundingGoal */\n      sload(0x04)\n        /* \"contracts/CrowdFunding.sol\":4912:4925  currentAmount */\n      sload(0x05)\n        /* \"contracts/CrowdFunding.sol\":4912:4940  currentAmount >= fundingGoal */\n      lt\n        /* \"contracts/CrowdFunding.sol\":4908:4950  if (currentAmount >= fundingGoal) return 0 */\n      tag_219\n      jumpi\n        /* \"contracts/CrowdFunding.sol\":4949:4950  0 */\n      0x00\n        /* \"contracts/CrowdFunding.sol\":4942:4950  return 0 */\n      swap1\n      pop\n      jump(tag_218)\n        /* \"contracts/CrowdFunding.sol\":4908:4950  if (currentAmount >= fundingGoal) return 0 */\n    tag_219:\n        /* \"contracts/CrowdFunding.sol\":4982:4995  currentAmount */\n      sload(0x05)\n        /* \"contracts/CrowdFunding.sol\":4968:4979  fundingGoal */\n      sload(0x04)\n        /* \"contracts/CrowdFunding.sol\":4968:4995  fundingGoal - currentAmount */\n      tag_220\n      swap2\n      swap1\n      tag_109\n      jump\t// in\n    tag_220:\n        /* \"contracts/CrowdFunding.sol\":4961:4995  return fundingGoal - currentAmount */\n      swap1\n      pop\n        /* \"contracts/CrowdFunding.sol\":4837:5003  function getRemainingAmount() public view returns (uint256) {... */\n    tag_218:\n      swap1\n      jump\t// out\n        /* \"contracts/CrowdFunding.sol\":1709:1897  function setSponsorAddress(address _sponsorAddress) public onlyOwner {... */\n    tag_76:\n        /* \"contracts/CrowdFunding.sol\":1167:1172  owner */\n      0x00\n      0x00\n      swap1\n      sload\n      swap1\n      0x0100\n      exp\n      swap1\n      div\n      0xffffffffffffffffffffffffffffffffffffffff\n      and\n        /* \"contracts/CrowdFunding.sol\":1153:1172  msg.sender == owner */\n      0xffffffffffffffffffffffffffffffffffffffff\n      and\n        /* \"contracts/CrowdFunding.sol\":1153:1163  msg.sender */\n      caller\n        /* \"contracts/CrowdFunding.sol\":1153:1172  msg.sender == owner */\n      0xffffffffffffffffffffffffffffffffffffffff\n      and\n      eq\n        /* \"contracts/CrowdFunding.sol\":1145:1187  require(msg.sender == owner, \"Only owner\") */\n      tag_222\n      jumpi\n      mload(0x40)\n      0x08c379a000000000000000000000000000000000000000000000000000000000\n      dup2\n      mstore\n      0x04\n      add\n      tag_223\n      swap1\n      tag_124\n      jump\t// in\n    tag_223:\n      mload(0x40)\n      dup1\n      swap2\n      sub\n      swap1\n      revert\n    tag_222:\n        /* \"contracts/CrowdFunding.sol\":1824:1825  0 */\n      0x00\n        /* \"contracts/CrowdFunding.sol\":1797:1826  _sponsorAddress != address(0) */\n      0xffffffffffffffffffffffffffffffffffffffff\n      and\n        /* \"contracts/CrowdFunding.sol\":1797:1812  _sponsorAddress */\n      dup2\n        /* \"contracts/CrowdFunding.sol\":1797:1826  _sponsorAddress != address(0) */\n      0xffffffffffffffffffffffffffffffffffffffff\n      and\n      sub\n        /* \"contracts/CrowdFunding.sol\":1789:1846  require(_sponsorAddress != address(0), \"Invalid address\") */\n      tag_225\n      jumpi\n      mload(0x40)\n      0x08c379a000000000000000000000000000000000000000000000000000000000\n      dup2\n      mstore\n      0x04\n      add\n      tag_226\n      swap1\n      tag_156\n      jump\t// in\n    tag_226:\n      mload(0x40)\n      dup1\n      swap2\n      sub\n      swap1\n      revert\n    tag_225:\n        /* \"contracts/CrowdFunding.sol\":1874:1889  _sponsorAddress */\n      dup1\n        /* \"contracts/CrowdFunding.sol\":1857:1871  sponsorAddress */\n      0x02\n      0x00\n        /* \"contracts/CrowdFunding.sol\":1857:1889  sponsorAddress = _sponsorAddress */\n      0x0100\n      exp\n      dup2\n      sload\n      dup2\n      0xffffffffffffffffffffffffffffffffffffffff\n      mul\n      not\n      and\n      swap1\n      dup4\n      0xffffffffffffffffffffffffffffffffffffffff\n      and\n      mul\n      or\n      swap1\n      sstore\n      pop\n        /* \"contracts/CrowdFunding.sol\":1709:1897  function setSponsorAddress(address _sponsorAddress) public onlyOwner {... */\n      pop\n      jump\t// out\n        /* \"contracts/CrowdFunding.sol\":629:657  uint256 public currentAmount */\n    tag_78:\n      sload(0x05)\n      dup2\n      jump\t// out\n        /* \"#utility.yul\":7:187   */\n    tag_83:\n        /* \"#utility.yul\":55:132   */\n      0x4e487b7100000000000000000000000000000000000000000000000000000000\n        /* \"#utility.yul\":52:53   */\n      0x00\n        /* \"#utility.yul\":45:133   */\n      mstore\n        /* \"#utility.yul\":152:156   */\n      0x21\n        /* \"#utility.yul\":149:150   */\n      0x04\n        /* \"#utility.yul\":142:157   */\n      mstore\n        /* \"#utility.yul\":176:180   */\n      0x24\n        /* \"#utility.yul\":173:174   */\n      0x00\n        /* \"#utility.yul\":166:181   */\n      revert\n        /* \"#utility.yul\":193:306   */\n    tag_227:\n        /* \"#utility.yul\":274:275   */\n      0x03\n        /* \"#utility.yul\":267:272   */\n      dup2\n        /* \"#utility.yul\":264:276   */\n      lt\n        /* \"#utility.yul\":254:300   */\n      tag_276\n      jumpi\n        /* \"#utility.yul\":280:298   */\n      tag_277\n      tag_83\n      jump\t// in\n    tag_277:\n        /* \"#utility.yul\":254:300   */\n    tag_276:\n        /* \"#utility.yul\":193:306   */\n      pop\n      jump\t// out\n        /* \"#utility.yul\":312:439   */\n    tag_228:\n        /* \"#utility.yul\":357:364   */\n      0x00\n        /* \"#utility.yul\":386:391   */\n      dup2\n        /* \"#utility.yul\":375:391   */\n      swap1\n      pop\n        /* \"#utility.yul\":392:433   */\n      tag_279\n        /* \"#utility.yul\":427:432   */\n      dup3\n        /* \"#utility.yul\":392:433   */\n      tag_227\n      jump\t// in\n    tag_279:\n        /* \"#utility.yul\":312:439   */\n      swap2\n      swap1\n      pop\n      jump\t// out\n        /* \"#utility.yul\":445:572   */\n    tag_229:\n        /* \"#utility.yul\":501:510   */\n      0x00\n        /* \"#utility.yul\":534:566   */\n      tag_281\n        /* \"#utility.yul\":560:565   */\n      dup3\n        /* \"#utility.yul\":534:566   */\n      tag_228\n      jump\t// in\n    tag_281:\n        /* \"#utility.yul\":521:566   */\n      swap1\n      pop\n        /* \"#utility.yul\":445:572   */\n      swap2\n      swap1\n      pop\n      jump\t// out\n        /* \"#utility.yul\":578:721   */\n    tag_230:\n        /* \"#utility.yul\":671:714   */\n      tag_283\n        /* \"#utility.yul\":708:713   */\n      dup2\n        /* \"#utility.yul\":671:714   */\n      tag_229\n      jump\t// in\n    tag_283:\n        /* \"#utility.yul\":666:669   */\n      dup3\n        /* \"#utility.yul\":659:715   */\n      mstore\n        /* \"#utility.yul\":578:721   */\n      pop\n      pop\n      jump\t// out\n        /* \"#utility.yul\":727:961   */\n    tag_26:\n        /* \"#utility.yul\":826:830   */\n      0x00\n        /* \"#utility.yul\":864:866   */\n      0x20\n        /* \"#utility.yul\":853:862   */\n      dup3\n        /* \"#utility.yul\":849:867   */\n      add\n        /* \"#utility.yul\":841:867   */\n      swap1\n      pop\n        /* \"#utility.yul\":877:954   */\n      tag_285\n        /* \"#utility.yul\":951:952   */\n      0x00\n        /* \"#utility.yul\":940:949   */\n      dup4\n        /* \"#utility.yul\":936:953   */\n      add\n        /* \"#utility.yul\":927:933   */\n      dup5\n        /* \"#utility.yul\":877:954   */\n      tag_230\n      jump\t// in\n    tag_285:\n        /* \"#utility.yul\":727:961   */\n      swap3\n      swap2\n      pop\n      pop\n      jump\t// out\n        /* \"#utility.yul\":967:1066   */\n    tag_231:\n        /* \"#utility.yul\":1019:1025   */\n      0x00\n        /* \"#utility.yul\":1053:1058   */\n      dup2\n        /* \"#utility.yul\":1047:1059   */\n      mload\n        /* \"#utility.yul\":1037:1059   */\n      swap1\n      pop\n        /* \"#utility.yul\":967:1066   */\n      swap2\n      swap1\n      pop\n      jump\t// out\n        /* \"#utility.yul\":1072:1241   */\n    tag_232:\n        /* \"#utility.yul\":1156:1167   */\n      0x00\n        /* \"#utility.yul\":1190:1196   */\n      dup3\n        /* \"#utility.yul\":1185:1188   */\n      dup3\n        /* \"#utility.yul\":1178:1197   */\n      mstore\n        /* \"#utility.yul\":1230:1234   */\n      0x20\n        /* \"#utility.yul\":1225:1228   */\n      dup3\n        /* \"#utility.yul\":1221:1235   */\n      add\n        /* \"#utility.yul\":1206:1235   */\n      swap1\n      pop\n        /* \"#utility.yul\":1072:1241   */\n      swap3\n      swap2\n      pop\n      pop\n      jump\t// out\n        /* \"#utility.yul\":1247:1386   */\n    tag_233:\n        /* \"#utility.yul\":1336:1342   */\n      dup3\n        /* \"#utility.yul\":1331:1334   */\n      dup2\n        /* \"#utility.yul\":1326:1329   */\n      dup4\n        /* \"#utility.yul\":1320:1343   */\n      mcopy\n        /* \"#utility.yul\":1377:1378   */\n      0x00\n        /* \"#utility.yul\":1368:1374   */\n      dup4\n        /* \"#utility.yul\":1363:1366   */\n      dup4\n        /* \"#utility.yul\":1359:1375   */\n      add\n        /* \"#utility.yul\":1352:1379   */\n      mstore\n        /* \"#utility.yul\":1247:1386   */\n      pop\n      pop\n      pop\n      jump\t// out\n        /* \"#utility.yul\":1392:1494   */\n    tag_234:\n        /* \"#utility.yul\":1433:1439   */\n      0x00\n        /* \"#utility.yul\":1484:1486   */\n      0x1f\n        /* \"#utility.yul\":1480:1487   */\n      not\n        /* \"#utility.yul\":1475:1477   */\n      0x1f\n        /* \"#utility.yul\":1468:1473   */\n      dup4\n        /* \"#utility.yul\":1464:1478   */\n      add\n        /* \"#utility.yul\":1460:1488   */\n      and\n        /* \"#utility.yul\":1450:1488   */\n      swap1\n      pop\n        /* \"#utility.yul\":1392:1494   */\n      swap2\n      swap1\n      pop\n      jump\t// out\n        /* \"#utility.yul\":1500:1877   */\n    tag_235:\n        /* \"#utility.yul\":1588:1591   */\n      0x00\n        /* \"#utility.yul\":1616:1655   */\n      tag_291\n        /* \"#utility.yul\":1649:1654   */\n      dup3\n        /* \"#utility.yul\":1616:1655   */\n      tag_231\n      jump\t// in\n    tag_291:\n        /* \"#utility.yul\":1671:1742   */\n      tag_292\n        /* \"#utility.yul\":1735:1741   */\n      dup2\n        /* \"#utility.yul\":1730:1733   */\n      dup6\n        /* \"#utility.yul\":1671:1742   */\n      tag_232\n      jump\t// in\n    tag_292:\n        /* \"#utility.yul\":1664:1742   */\n      swap4\n      pop\n        /* \"#utility.yul\":1751:1816   */\n      tag_293\n        /* \"#utility.yul\":1809:1815   */\n      dup2\n        /* \"#utility.yul\":1804:1807   */\n      dup6\n        /* \"#utility.yul\":1797:1801   */\n      0x20\n        /* \"#utility.yul\":1790:1795   */\n      dup7\n        /* \"#utility.yul\":1786:1802   */\n      add\n        /* \"#utility.yul\":1751:1816   */\n      tag_233\n      jump\t// in\n    tag_293:\n        /* \"#utility.yul\":1841:1870   */\n      tag_294\n        /* \"#utility.yul\":1863:1869   */\n      dup2\n        /* \"#utility.yul\":1841:1870   */\n      tag_234\n      jump\t// in\n    tag_294:\n        /* \"#utility.yul\":1836:1839   */\n      dup5\n        /* \"#utility.yul\":1832:1871   */\n      add\n        /* \"#utility.yul\":1825:1871   */\n      swap2\n      pop\n        /* \"#utility.yul\":1592:1877   */\n      pop\n        /* \"#utility.yul\":1500:1877   */\n      swap3\n      swap2\n      pop\n      pop\n      jump\t// out\n        /* \"#utility.yul\":1883:2196   */\n    tag_30:\n        /* \"#utility.yul\":1996:2000   */\n      0x00\n        /* \"#utility.yul\":2034:2036   */\n      0x20\n        /* \"#utility.yul\":2023:2032   */\n      dup3\n        /* \"#utility.yul\":2019:2037   */\n      add\n        /* \"#utility.yul\":2011:2037   */\n      swap1\n      pop\n        /* \"#utility.yul\":2083:2092   */\n      dup2\n        /* \"#utility.yul\":2077:2081   */\n      dup2\n        /* \"#utility.yul\":2073:2093   */\n      sub\n        /* \"#utility.yul\":2069:2070   */\n      0x00\n        /* \"#utility.yul\":2058:2067   */\n      dup4\n        /* \"#utility.yul\":2054:2071   */\n      add\n        /* \"#utility.yul\":2047:2094   */\n      mstore\n        /* \"#utility.yul\":2111:2189   */\n      tag_296\n        /* \"#utility.yul\":2184:2188   */\n      dup2\n        /* \"#utility.yul\":2175:2181   */\n      dup5\n        /* \"#utility.yul\":2111:2189   */\n      tag_235\n      jump\t// in\n    tag_296:\n        /* \"#utility.yul\":2103:2189   */\n      swap1\n      pop\n        /* \"#utility.yul\":1883:2196   */\n      swap3\n      swap2\n      pop\n      pop\n      jump\t// out\n        /* \"#utility.yul\":2283:2400   */\n    tag_237:\n        /* \"#utility.yul\":2392:2393   */\n      0x00\n        /* \"#utility.yul\":2389:2390   */\n      0x00\n        /* \"#utility.yul\":2382:2394   */\n      revert\n        /* \"#utility.yul\":2529:2655   */\n    tag_239:\n        /* \"#utility.yul\":2566:2573   */\n      0x00\n        /* \"#utility.yul\":2606:2648   */\n      0xffffffffffffffffffffffffffffffffffffffff\n        /* \"#utility.yul\":2599:2604   */\n      dup3\n        /* \"#utility.yul\":2595:2649   */\n      and\n        /* \"#utility.yul\":2584:2649   */\n      swap1\n      pop\n        /* \"#utility.yul\":2529:2655   */\n      swap2\n      swap1\n      pop\n      jump\t// out\n        /* \"#utility.yul\":2661:2757   */\n    tag_240:\n        /* \"#utility.yul\":2698:2705   */\n      0x00\n        /* \"#utility.yul\":2727:2751   */\n      tag_302\n        /* \"#utility.yul\":2745:2750   */\n      dup3\n        /* \"#utility.yul\":2727:2751   */\n      tag_239\n      jump\t// in\n    tag_302:\n        /* \"#utility.yul\":2716:2751   */\n      swap1\n      pop\n        /* \"#utility.yul\":2661:2757   */\n      swap2\n      swap1\n      pop\n      jump\t// out\n        /* \"#utility.yul\":2763:2885   */\n    tag_241:\n        /* \"#utility.yul\":2836:2860   */\n      tag_304\n        /* \"#utility.yul\":2854:2859   */\n      dup2\n        /* \"#utility.yul\":2836:2860   */\n      tag_240\n      jump\t// in\n    tag_304:\n        /* \"#utility.yul\":2829:2834   */\n      dup2\n        /* \"#utility.yul\":2826:2861   */\n      eq\n        /* \"#utility.yul\":2816:2879   */\n      tag_305\n      jumpi\n        /* \"#utility.yul\":2875:2876   */\n      0x00\n        /* \"#utility.yul\":2872:2873   */\n      0x00\n        /* \"#utility.yul\":2865:2877   */\n      revert\n        /* \"#utility.yul\":2816:2879   */\n    tag_305:\n        /* \"#utility.yul\":2763:2885   */\n      pop\n      jump\t// out\n        /* \"#utility.yul\":2891:3030   */\n    tag_242:\n        /* \"#utility.yul\":2937:2942   */\n      0x00\n        /* \"#utility.yul\":2975:2981   */\n      dup2\n        /* \"#utility.yul\":2962:2982   */\n      calldataload\n        /* \"#utility.yul\":2953:2982   */\n      swap1\n      pop\n        /* \"#utility.yul\":2991:3024   */\n      tag_307\n        /* \"#utility.yul\":3018:3023   */\n      dup2\n        /* \"#utility.yul\":2991:3024   */\n      tag_241\n      jump\t// in\n    tag_307:\n        /* \"#utility.yul\":2891:3030   */\n      swap3\n      swap2\n      pop\n      pop\n      jump\t// out\n        /* \"#utility.yul\":3036:3365   */\n    tag_33:\n        /* \"#utility.yul\":3095:3101   */\n      0x00\n        /* \"#utility.yul\":3144:3146   */\n      0x20\n        /* \"#utility.yul\":3132:3141   */\n      dup3\n        /* \"#utility.yul\":3123:3130   */\n      dup5\n        /* \"#utility.yul\":3119:3142   */\n      sub\n        /* \"#utility.yul\":3115:3147   */\n      slt\n        /* \"#utility.yul\":3112:3231   */\n      iszero\n      tag_309\n      jumpi\n        /* \"#utility.yul\":3150:3229   */\n      tag_310\n      tag_237\n      jump\t// in\n    tag_310:\n        /* \"#utility.yul\":3112:3231   */\n    tag_309:\n        /* \"#utility.yul\":3270:3271   */\n      0x00\n        /* \"#utility.yul\":3295:3348   */\n      tag_311\n        /* \"#utility.yul\":3340:3347   */\n      dup5\n        /* \"#utility.yul\":3331:3337   */\n      dup3\n        /* \"#utility.yul\":3320:3329   */\n      dup6\n        /* \"#utility.yul\":3316:3338   */\n      add\n        /* \"#utility.yul\":3295:3348   */\n      tag_242\n      jump\t// in\n    tag_311:\n        /* \"#utility.yul\":3285:3348   */\n      swap2\n      pop\n        /* \"#utility.yul\":3241:3358   */\n      pop\n        /* \"#utility.yul\":3036:3365   */\n      swap3\n      swap2\n      pop\n      pop\n      jump\t// out\n        /* \"#utility.yul\":3371:3448   */\n    tag_243:\n        /* \"#utility.yul\":3408:3415   */\n      0x00\n        /* \"#utility.yul\":3437:3442   */\n      dup2\n        /* \"#utility.yul\":3426:3442   */\n      swap1\n      pop\n        /* \"#utility.yul\":3371:3448   */\n      swap2\n      swap1\n      pop\n      jump\t// out\n        /* \"#utility.yul\":3454:3572   */\n    tag_244:\n        /* \"#utility.yul\":3541:3565   */\n      tag_314\n        /* \"#utility.yul\":3559:3564   */\n      dup2\n        /* \"#utility.yul\":3541:3565   */\n      tag_243\n      jump\t// in\n    tag_314:\n        /* \"#utility.yul\":3536:3539   */\n      dup3\n        /* \"#utility.yul\":3529:3566   */\n      mstore\n        /* \"#utility.yul\":3454:3572   */\n      pop\n      pop\n      jump\t// out\n        /* \"#utility.yul\":3578:3800   */\n    tag_36:\n        /* \"#utility.yul\":3671:3675   */\n      0x00\n        /* \"#utility.yul\":3709:3711   */\n      0x20\n        /* \"#utility.yul\":3698:3707   */\n      dup3\n        /* \"#utility.yul\":3694:3712   */\n      add\n        /* \"#utility.yul\":3686:3712   */\n      swap1\n      pop\n        /* \"#utility.yul\":3722:3793   */\n      tag_316\n        /* \"#utility.yul\":3790:3791   */\n      0x00\n        /* \"#utility.yul\":3779:3788   */\n      dup4\n        /* \"#utility.yul\":3775:3792   */\n      add\n        /* \"#utility.yul\":3766:3772   */\n      dup5\n        /* \"#utility.yul\":3722:3793   */\n      tag_244\n      jump\t// in\n    tag_316:\n        /* \"#utility.yul\":3578:3800   */\n      swap3\n      swap2\n      pop\n      pop\n      jump\t// out\n        /* \"#utility.yul\":3806:3928   */\n    tag_245:\n        /* \"#utility.yul\":3879:3903   */\n      tag_318\n        /* \"#utility.yul\":3897:3902   */\n      dup2\n        /* \"#utility.yul\":3879:3903   */\n      tag_243\n      jump\t// in\n    tag_318:\n        /* \"#utility.yul\":3872:3877   */\n      dup2\n        /* \"#utility.yul\":3869:3904   */\n      eq\n        /* \"#utility.yul\":3859:3922   */\n      tag_319\n      jumpi\n        /* \"#utility.yul\":3918:3919   */\n      0x00\n        /* \"#utility.yul\":3915:3916   */\n      0x00\n        /* \"#utility.yul\":3908:3920   */\n      revert\n        /* \"#utility.yul\":3859:3922   */\n    tag_319:\n        /* \"#utility.yul\":3806:3928   */\n      pop\n      jump\t// out\n        /* \"#utility.yul\":3934:4073   */\n    tag_246:\n        /* \"#utility.yul\":3980:3985   */\n      0x00\n        /* \"#utility.yul\":4018:4024   */\n      dup2\n        /* \"#utility.yul\":4005:4025   */\n      calldataload\n        /* \"#utility.yul\":3996:4025   */\n      swap1\n      pop\n        /* \"#utility.yul\":4034:4067   */\n      tag_321\n        /* \"#utility.yul\":4061:4066   */\n      dup2\n        /* \"#utility.yul\":4034:4067   */\n      tag_245\n      jump\t// in\n    tag_321:\n        /* \"#utility.yul\":3934:4073   */\n      swap3\n      swap2\n      pop\n      pop\n      jump\t// out\n        /* \"#utility.yul\":4079:4408   */\n    tag_39:\n        /* \"#utility.yul\":4138:4144   */\n      0x00\n        /* \"#utility.yul\":4187:4189   */\n      0x20\n        /* \"#utility.yul\":4175:4184   */\n      dup3\n        /* \"#utility.yul\":4166:4173   */\n      dup5\n        /* \"#utility.yul\":4162:4185   */\n      sub\n        /* \"#utility.yul\":4158:4190   */\n      slt\n        /* \"#utility.yul\":4155:4274   */\n      iszero\n      tag_323\n      jumpi\n        /* \"#utility.yul\":4193:4272   */\n      tag_324\n      tag_237\n      jump\t// in\n    tag_324:\n        /* \"#utility.yul\":4155:4274   */\n    tag_323:\n        /* \"#utility.yul\":4313:4314   */\n      0x00\n        /* \"#utility.yul\":4338:4391   */\n      tag_325\n        /* \"#utility.yul\":4383:4390   */\n      dup5\n        /* \"#utility.yul\":4374:4380   */\n      dup3\n        /* \"#utility.yul\":4363:4372   */\n      dup6\n        /* \"#utility.yul\":4359:4381   */\n      add\n        /* \"#utility.yul\":4338:4391   */\n      tag_246\n      jump\t// in\n    tag_325:\n        /* \"#utility.yul\":4328:4391   */\n      swap2\n      pop\n        /* \"#utility.yul\":4284:4401   */\n      pop\n        /* \"#utility.yul\":4079:4408   */\n      swap3\n      swap2\n      pop\n      pop\n      jump\t// out\n        /* \"#utility.yul\":4414:4532   */\n    tag_247:\n        /* \"#utility.yul\":4501:4525   */\n      tag_327\n        /* \"#utility.yul\":4519:4524   */\n      dup2\n        /* \"#utility.yul\":4501:4525   */\n      tag_240\n      jump\t// in\n    tag_327:\n        /* \"#utility.yul\":4496:4499   */\n      dup3\n        /* \"#utility.yul\":4489:4526   */\n      mstore\n        /* \"#utility.yul\":4414:4532   */\n      pop\n      pop\n      jump\t// out\n        /* \"#utility.yul\":4538:4760   */\n    tag_48:\n        /* \"#utility.yul\":4631:4635   */\n      0x00\n        /* \"#utility.yul\":4669:4671   */\n      0x20\n        /* \"#utility.yul\":4658:4667   */\n      dup3\n        /* \"#utility.yul\":4654:4672   */\n      add\n        /* \"#utility.yul\":4646:4672   */\n      swap1\n      pop\n        /* \"#utility.yul\":4682:4753   */\n      tag_329\n        /* \"#utility.yul\":4750:4751   */\n      0x00\n        /* \"#utility.yul\":4739:4748   */\n      dup4\n        /* \"#utility.yul\":4735:4752   */\n      add\n        /* \"#utility.yul\":4726:4732   */\n      dup5\n        /* \"#utility.yul\":4682:4753   */\n      tag_247\n      jump\t// in\n    tag_329:\n        /* \"#utility.yul\":4538:4760   */\n      swap3\n      swap2\n      pop\n      pop\n      jump\t// out\n        /* \"#utility.yul\":4766:4929   */\n    tag_248:\n        /* \"#utility.yul\":4906:4921   */\n      0x496e76616c696420737461746500000000000000000000000000000000000000\n        /* \"#utility.yul\":4902:4903   */\n      0x00\n        /* \"#utility.yul\":4894:4900   */\n      dup3\n        /* \"#utility.yul\":4890:4904   */\n      add\n        /* \"#utility.yul\":4883:4922   */\n      mstore\n        /* \"#utility.yul\":4766:4929   */\n      pop\n      jump\t// out\n        /* \"#utility.yul\":4935:5301   */\n    tag_249:\n        /* \"#utility.yul\":5077:5080   */\n      0x00\n        /* \"#utility.yul\":5098:5165   */\n      tag_332\n        /* \"#utility.yul\":5162:5164   */\n      0x0d\n        /* \"#utility.yul\":5157:5160   */\n      dup4\n        /* \"#utility.yul\":5098:5165   */\n      tag_232\n      jump\t// in\n    tag_332:\n        /* \"#utility.yul\":5091:5165   */\n      swap2\n      pop\n        /* \"#utility.yul\":5174:5267   */\n      tag_333\n        /* \"#utility.yul\":5263:5266   */\n      dup3\n        /* \"#utility.yul\":5174:5267   */\n      tag_248\n      jump\t// in\n    tag_333:\n        /* \"#utility.yul\":5292:5294   */\n      0x20\n        /* \"#utility.yul\":5287:5290   */\n      dup3\n        /* \"#utility.yul\":5283:5295   */\n      add\n        /* \"#utility.yul\":5276:5295   */\n      swap1\n      pop\n        /* \"#utility.yul\":4935:5301   */\n      swap2\n      swap1\n      pop\n      jump\t// out\n        /* \"#utility.yul\":5307:5726   */\n    tag_100:\n        /* \"#utility.yul\":5473:5477   */\n      0x00\n        /* \"#utility.yul\":5511:5513   */\n      0x20\n        /* \"#utility.yul\":5500:5509   */\n      dup3\n        /* \"#utility.yul\":5496:5514   */\n      add\n        /* \"#utility.yul\":5488:5514   */\n      swap1\n      pop\n        /* \"#utility.yul\":5560:5569   */\n      dup2\n        /* \"#utility.yul\":5554:5558   */\n      dup2\n        /* \"#utility.yul\":5550:5570   */\n      sub\n        /* \"#utility.yul\":5546:5547   */\n      0x00\n        /* \"#utility.yul\":5535:5544   */\n      dup4\n        /* \"#utility.yul\":5531:5548   */\n      add\n        /* \"#utility.yul\":5524:5571   */\n      mstore\n        /* \"#utility.yul\":5588:5719   */\n      tag_335\n        /* \"#utility.yul\":5714:5718   */\n      dup2\n        /* \"#utility.yul\":5588:5719   */\n      tag_249\n      jump\t// in\n    tag_335:\n        /* \"#utility.yul\":5580:5719   */\n      swap1\n      pop\n        /* \"#utility.yul\":5307:5726   */\n      swap2\n      swap1\n      pop\n      jump\t// out\n        /* \"#utility.yul\":5732:5905   */\n    tag_250:\n        /* \"#utility.yul\":5872:5897   */\n      0x416d6f756e74206d75737420626520706f736974697665000000000000000000\n        /* \"#utility.yul\":5868:5869   */\n      0x00\n        /* \"#utility.yul\":5860:5866   */\n      dup3\n        /* \"#utility.yul\":5856:5870   */\n      add\n        /* \"#utility.yul\":5849:5898   */\n      mstore\n        /* \"#utility.yul\":5732:5905   */\n      pop\n      jump\t// out\n        /* \"#utility.yul\":5911:6277   */\n    tag_251:\n        /* \"#utility.yul\":6053:6056   */\n      0x00\n        /* \"#utility.yul\":6074:6141   */\n      tag_338\n        /* \"#utility.yul\":6138:6140   */\n      0x17\n        /* \"#utility.yul\":6133:6136   */\n      dup4\n        /* \"#utility.yul\":6074:6141   */\n      tag_232\n      jump\t// in\n    tag_338:\n        /* \"#utility.yul\":6067:6141   */\n      swap2\n      pop\n        /* \"#utility.yul\":6150:6243   */\n      tag_339\n        /* \"#utility.yul\":6239:6242   */\n      dup3\n        /* \"#utility.yul\":6150:6243   */\n      tag_250\n      jump\t// in\n    tag_339:\n        /* \"#utility.yul\":6268:6270   */\n      0x20\n        /* \"#utility.yul\":6263:6266   */\n      dup3\n        /* \"#utility.yul\":6259:6271   */\n      add\n        /* \"#utility.yul\":6252:6271   */\n      swap1\n      pop\n        /* \"#utility.yul\":5911:6277   */\n      swap2\n      swap1\n      pop\n      jump\t// out\n        /* \"#utility.yul\":6283:6702   */\n    tag_104:\n        /* \"#utility.yul\":6449:6453   */\n      0x00\n        /* \"#utility.yul\":6487:6489   */\n      0x20\n        /* \"#utility.yul\":6476:6485   */\n      dup3\n        /* \"#utility.yul\":6472:6490   */\n      add\n        /* \"#utility.yul\":6464:6490   */\n      swap1\n      pop\n        /* \"#utility.yul\":6536:6545   */\n      dup2\n        /* \"#utility.yul\":6530:6534   */\n      dup2\n        /* \"#utility.yul\":6526:6546   */\n      sub\n        /* \"#utility.yul\":6522:6523   */\n      0x00\n        /* \"#utility.yul\":6511:6520   */\n      dup4\n        /* \"#utility.yul\":6507:6524   */\n      add\n        /* \"#utility.yul\":6500:6547   */\n      mstore\n        /* \"#utility.yul\":6564:6695   */\n      tag_341\n        /* \"#utility.yul\":6690:6694   */\n      dup2\n        /* \"#utility.yul\":6564:6695   */\n      tag_251\n      jump\t// in\n    tag_341:\n        /* \"#utility.yul\":6556:6695   */\n      swap1\n      pop\n        /* \"#utility.yul\":6283:6702   */\n      swap2\n      swap1\n      pop\n      jump\t// out\n        /* \"#utility.yul\":6708:6883   */\n    tag_252:\n        /* \"#utility.yul\":6848:6875   */\n      0x496e73756666696369656e7420636f6e747269627574696f6e00000000000000\n        /* \"#utility.yul\":6844:6845   */\n      0x00\n        /* \"#utility.yul\":6836:6842   */\n      dup3\n        /* \"#utility.yul\":6832:6846   */\n      add\n        /* \"#utility.yul\":6825:6876   */\n      mstore\n        /* \"#utility.yul\":6708:6883   */\n      pop\n      jump\t// out\n        /* \"#utility.yul\":6889:7255   */\n    tag_253:\n        /* \"#utility.yul\":7031:7034   */\n      0x00\n        /* \"#utility.yul\":7052:7119   */\n      tag_344\n        /* \"#utility.yul\":7116:7118   */\n      0x19\n        /* \"#utility.yul\":7111:7114   */\n      dup4\n        /* \"#utility.yul\":7052:7119   */\n      tag_232\n      jump\t// in\n    tag_344:\n        /* \"#utility.yul\":7045:7119   */\n      swap2\n      pop\n        /* \"#utility.yul\":7128:7221   */\n      tag_345\n        /* \"#utility.yul\":7217:7220   */\n      dup3\n        /* \"#utility.yul\":7128:7221   */\n      tag_252\n      jump\t// in\n    tag_345:\n        /* \"#utility.yul\":7246:7248   */\n      0x20\n        /* \"#utility.yul\":7241:7244   */\n      dup3\n        /* \"#utility.yul\":7237:7249   */\n      add\n        /* \"#utility.yul\":7230:7249   */\n      swap1\n      pop\n        /* \"#utility.yul\":6889:7255   */\n      swap2\n      swap1\n      pop\n      jump\t// out\n        /* \"#utility.yul\":7261:7680   */\n    tag_107:\n        /* \"#utility.yul\":7427:7431   */\n      0x00\n        /* \"#utility.yul\":7465:7467   */\n      0x20\n        /* \"#utility.yul\":7454:7463   */\n      dup3\n        /* \"#utility.yul\":7450:7468   */\n      add\n        /* \"#utility.yul\":7442:7468   */\n      swap1\n      pop\n        /* \"#utility.yul\":7514:7523   */\n      dup2\n        /* \"#utility.yul\":7508:7512   */\n      dup2\n        /* \"#utility.yul\":7504:7524   */\n      sub\n        /* \"#utility.yul\":7500:7501   */\n      0x00\n        /* \"#utility.yul\":7489:7498   */\n      dup4\n        /* \"#utility.yul\":7485:7502   */\n      add\n        /* \"#utility.yul\":7478:7525   */\n      mstore\n        /* \"#utility.yul\":7542:7673   */\n      tag_347\n        /* \"#utility.yul\":7668:7672   */\n      dup2\n        /* \"#utility.yul\":7542:7673   */\n      tag_253\n      jump\t// in\n    tag_347:\n        /* \"#utility.yul\":7534:7673   */\n      swap1\n      pop\n        /* \"#utility.yul\":7261:7680   */\n      swap2\n      swap1\n      pop\n      jump\t// out\n        /* \"#utility.yul\":7686:7866   */\n    tag_254:\n        /* \"#utility.yul\":7734:7811   */\n      0x4e487b7100000000000000000000000000000000000000000000000000000000\n        /* \"#utility.yul\":7731:7732   */\n      0x00\n        /* \"#utility.yul\":7724:7812   */\n      mstore\n        /* \"#utility.yul\":7831:7835   */\n      0x11\n        /* \"#utility.yul\":7828:7829   */\n      0x04\n        /* \"#utility.yul\":7821:7836   */\n      mstore\n        /* \"#utility.yul\":7855:7859   */\n      0x24\n        /* \"#utility.yul\":7852:7853   */\n      0x00\n        /* \"#utility.yul\":7845:7860   */\n      revert\n        /* \"#utility.yul\":7872:8066   */\n    tag_109:\n        /* \"#utility.yul\":7912:7916   */\n      0x00\n        /* \"#utility.yul\":7932:7952   */\n      tag_350\n        /* \"#utility.yul\":7950:7951   */\n      dup3\n        /* \"#utility.yul\":7932:7952   */\n      tag_243\n      jump\t// in\n    tag_350:\n        /* \"#utility.yul\":7927:7952   */\n      swap2\n      pop\n        /* \"#utility.yul\":7966:7986   */\n      tag_351\n        /* \"#utility.yul\":7984:7985   */\n      dup4\n        /* \"#utility.yul\":7966:7986   */\n      tag_243\n      jump\t// in\n    tag_351:\n        /* \"#utility.yul\":7961:7986   */\n      swap3\n      pop\n        /* \"#utility.yul\":8010:8011   */\n      dup3\n        /* \"#utility.yul\":8007:8008   */\n      dup3\n        /* \"#utility.yul\":8003:8012   */\n      sub\n        /* \"#utility.yul\":7995:8012   */\n      swap1\n      pop\n        /* \"#utility.yul\":8034:8035   */\n      dup2\n        /* \"#utility.yul\":8028:8032   */\n      dup2\n        /* \"#utility.yul\":8025:8036   */\n      gt\n        /* \"#utility.yul\":8022:8059   */\n      iszero\n      tag_352\n      jumpi\n        /* \"#utility.yul\":8039:8057   */\n      tag_353\n      tag_254\n      jump\t// in\n    tag_353:\n        /* \"#utility.yul\":8022:8059   */\n    tag_352:\n        /* \"#utility.yul\":7872:8066   */\n      swap3\n      swap2\n      pop\n      pop\n      jump\t// out\n        /* \"#utility.yul\":8072:8404   */\n    tag_112:\n        /* \"#utility.yul\":8193:8197   */\n      0x00\n        /* \"#utility.yul\":8231:8233   */\n      0x40\n        /* \"#utility.yul\":8220:8229   */\n      dup3\n        /* \"#utility.yul\":8216:8234   */\n      add\n        /* \"#utility.yul\":8208:8234   */\n      swap1\n      pop\n        /* \"#utility.yul\":8244:8315   */\n      tag_355\n        /* \"#utility.yul\":8312:8313   */\n      0x00\n        /* \"#utility.yul\":8301:8310   */\n      dup4\n        /* \"#utility.yul\":8297:8314   */\n      add\n        /* \"#utility.yul\":8288:8294   */\n      dup6\n        /* \"#utility.yul\":8244:8315   */\n      tag_247\n      jump\t// in\n    tag_355:\n        /* \"#utility.yul\":8325:8397   */\n      tag_356\n        /* \"#utility.yul\":8393:8395   */\n      0x20\n        /* \"#utility.yul\":8382:8391   */\n      dup4\n        /* \"#utility.yul\":8378:8396   */\n      add\n        /* \"#utility.yul\":8369:8375   */\n      dup5\n        /* \"#utility.yul\":8325:8397   */\n      tag_244\n      jump\t// in\n    tag_356:\n        /* \"#utility.yul\":8072:8404   */\n      swap4\n      swap3\n      pop\n      pop\n      pop\n      jump\t// out\n        /* \"#utility.yul\":8410:8500   */\n    tag_255:\n        /* \"#utility.yul\":8444:8451   */\n      0x00\n        /* \"#utility.yul\":8487:8492   */\n      dup2\n        /* \"#utility.yul\":8480:8493   */\n      iszero\n        /* \"#utility.yul\":8473:8494   */\n      iszero\n        /* \"#utility.yul\":8462:8494   */\n      swap1\n      pop\n        /* \"#utility.yul\":8410:8500   */\n      swap2\n      swap1\n      pop\n      jump\t// out\n        /* \"#utility.yul\":8506:8622   */\n    tag_256:\n        /* \"#utility.yul\":8576:8597   */\n      tag_359\n        /* \"#utility.yul\":8591:8596   */\n      dup2\n        /* \"#utility.yul\":8576:8597   */\n      tag_255\n      jump\t// in\n    tag_359:\n        /* \"#utility.yul\":8569:8574   */\n      dup2\n        /* \"#utility.yul\":8566:8598   */\n      eq\n        /* \"#utility.yul\":8556:8616   */\n      tag_360\n      jumpi\n        /* \"#utility.yul\":8612:8613   */\n      0x00\n        /* \"#utility.yul\":8609:8610   */\n      0x00\n        /* \"#utility.yul\":8602:8614   */\n      revert\n        /* \"#utility.yul\":8556:8616   */\n    tag_360:\n        /* \"#utility.yul\":8506:8622   */\n      pop\n      jump\t// out\n        /* \"#utility.yul\":8628:8765   */\n    tag_257:\n        /* \"#utility.yul\":8682:8687   */\n      0x00\n        /* \"#utility.yul\":8713:8719   */\n      dup2\n        /* \"#utility.yul\":8707:8720   */\n      mload\n        /* \"#utility.yul\":8698:8720   */\n      swap1\n      pop\n        /* \"#utility.yul\":8729:8759   */\n      tag_362\n        /* \"#utility.yul\":8753:8758   */\n      dup2\n        /* \"#utility.yul\":8729:8759   */\n      tag_256\n      jump\t// in\n    tag_362:\n        /* \"#utility.yul\":8628:8765   */\n      swap3\n      swap2\n      pop\n      pop\n      jump\t// out\n        /* \"#utility.yul\":8771:9116   */\n    tag_116:\n        /* \"#utility.yul\":8838:8844   */\n      0x00\n        /* \"#utility.yul\":8887:8889   */\n      0x20\n        /* \"#utility.yul\":8875:8884   */\n      dup3\n        /* \"#utility.yul\":8866:8873   */\n      dup5\n        /* \"#utility.yul\":8862:8885   */\n      sub\n        /* \"#utility.yul\":8858:8890   */\n      slt\n        /* \"#utility.yul\":8855:8974   */\n      iszero\n      tag_364\n      jumpi\n        /* \"#utility.yul\":8893:8972   */\n      tag_365\n      tag_237\n      jump\t// in\n    tag_365:\n        /* \"#utility.yul\":8855:8974   */\n    tag_364:\n        /* \"#utility.yul\":9013:9014   */\n      0x00\n        /* \"#utility.yul\":9038:9099   */\n      tag_366\n        /* \"#utility.yul\":9091:9098   */\n      dup5\n        /* \"#utility.yul\":9082:9088   */\n      dup3\n        /* \"#utility.yul\":9071:9080   */\n      dup6\n        /* \"#utility.yul\":9067:9089   */\n      add\n        /* \"#utility.yul\":9038:9099   */\n      tag_257\n      jump\t// in\n    tag_366:\n        /* \"#utility.yul\":9028:9099   */\n      swap2\n      pop\n        /* \"#utility.yul\":8984:9109   */\n      pop\n        /* \"#utility.yul\":8771:9116   */\n      swap3\n      swap2\n      pop\n      pop\n      jump\t// out\n        /* \"#utility.yul\":9122:9287   */\n    tag_258:\n        /* \"#utility.yul\":9262:9279   */\n      0x5472616e73666572206661696c65640000000000000000000000000000000000\n        /* \"#utility.yul\":9258:9259   */\n      0x00\n        /* \"#utility.yul\":9250:9256   */\n      dup3\n        /* \"#utility.yul\":9246:9260   */\n      add\n        /* \"#utility.yul\":9239:9280   */\n      mstore\n        /* \"#utility.yul\":9122:9287   */\n      pop\n      jump\t// out\n        /* \"#utility.yul\":9293:9659   */\n    tag_259:\n        /* \"#utility.yul\":9435:9438   */\n      0x00\n        /* \"#utility.yul\":9456:9523   */\n      tag_369\n        /* \"#utility.yul\":9520:9522   */\n      0x0f\n        /* \"#utility.yul\":9515:9518   */\n      dup4\n        /* \"#utility.yul\":9456:9523   */\n      tag_232\n      jump\t// in\n    tag_369:\n        /* \"#utility.yul\":9449:9523   */\n      swap2\n      pop\n        /* \"#utility.yul\":9532:9625   */\n      tag_370\n        /* \"#utility.yul\":9621:9624   */\n      dup3\n        /* \"#utility.yul\":9532:9625   */\n      tag_258\n      jump\t// in\n    tag_370:\n        /* \"#utility.yul\":9650:9652   */\n      0x20\n        /* \"#utility.yul\":9645:9648   */\n      dup3\n        /* \"#utility.yul\":9641:9653   */\n      add\n        /* \"#utility.yul\":9634:9653   */\n      swap1\n      pop\n        /* \"#utility.yul\":9293:9659   */\n      swap2\n      swap1\n      pop\n      jump\t// out\n        /* \"#utility.yul\":9665:10084   */\n    tag_119:\n        /* \"#utility.yul\":9831:9835   */\n      0x00\n        /* \"#utility.yul\":9869:9871   */\n      0x20\n        /* \"#utility.yul\":9858:9867   */\n      dup3\n        /* \"#utility.yul\":9854:9872   */\n      add\n        /* \"#utility.yul\":9846:9872   */\n      swap1\n      pop\n        /* \"#utility.yul\":9918:9927   */\n      dup2\n        /* \"#utility.yul\":9912:9916   */\n      dup2\n        /* \"#utility.yul\":9908:9928   */\n      sub\n        /* \"#utility.yul\":9904:9905   */\n      0x00\n        /* \"#utility.yul\":9893:9902   */\n      dup4\n        /* \"#utility.yul\":9889:9906   */\n      add\n        /* \"#utility.yul\":9882:9929   */\n      mstore\n        /* \"#utility.yul\":9946:10077   */\n      tag_372\n        /* \"#utility.yul\":10072:10076   */\n      dup2\n        /* \"#utility.yul\":9946:10077   */\n      tag_259\n      jump\t// in\n    tag_372:\n        /* \"#utility.yul\":9938:10077   */\n      swap1\n      pop\n        /* \"#utility.yul\":9665:10084   */\n      swap2\n      swap1\n      pop\n      jump\t// out\n        /* \"#utility.yul\":10090:10250   */\n    tag_260:\n        /* \"#utility.yul\":10230:10242   */\n      0x4f6e6c79206f776e657200000000000000000000000000000000000000000000\n        /* \"#utility.yul\":10226:10227   */\n      0x00\n        /* \"#utility.yul\":10218:10224   */\n      dup3\n        /* \"#utility.yul\":10214:10228   */\n      add\n        /* \"#utility.yul\":10207:10243   */\n      mstore\n        /* \"#utility.yul\":10090:10250   */\n      pop\n      jump\t// out\n        /* \"#utility.yul\":10256:10622   */\n    tag_261:\n        /* \"#utility.yul\":10398:10401   */\n      0x00\n        /* \"#utility.yul\":10419:10486   */\n      tag_375\n        /* \"#utility.yul\":10483:10485   */\n      0x0a\n        /* \"#utility.yul\":10478:10481   */\n      dup4\n        /* \"#utility.yul\":10419:10486   */\n      tag_232\n      jump\t// in\n    tag_375:\n        /* \"#utility.yul\":10412:10486   */\n      swap2\n      pop\n        /* \"#utility.yul\":10495:10588   */\n      tag_376\n        /* \"#utility.yul\":10584:10587   */\n      dup3\n        /* \"#utility.yul\":10495:10588   */\n      tag_260\n      jump\t// in\n    tag_376:\n        /* \"#utility.yul\":10613:10615   */\n      0x20\n        /* \"#utility.yul\":10608:10611   */\n      dup3\n        /* \"#utility.yul\":10604:10616   */\n      add\n        /* \"#utility.yul\":10597:10616   */\n      swap1\n      pop\n        /* \"#utility.yul\":10256:10622   */\n      swap2\n      swap1\n      pop\n      jump\t// out\n        /* \"#utility.yul\":10628:11047   */\n    tag_124:\n        /* \"#utility.yul\":10794:10798   */\n      0x00\n        /* \"#utility.yul\":10832:10834   */\n      0x20\n        /* \"#utility.yul\":10821:10830   */\n      dup3\n        /* \"#utility.yul\":10817:10835   */\n      add\n        /* \"#utility.yul\":10809:10835   */\n      swap1\n      pop\n        /* \"#utility.yul\":10881:10890   */\n      dup2\n        /* \"#utility.yul\":10875:10879   */\n      dup2\n        /* \"#utility.yul\":10871:10891   */\n      sub\n        /* \"#utility.yul\":10867:10868   */\n      0x00\n        /* \"#utility.yul\":10856:10865   */\n      dup4\n        /* \"#utility.yul\":10852:10869   */\n      add\n        /* \"#utility.yul\":10845:10892   */\n      mstore\n        /* \"#utility.yul\":10909:11040   */\n      tag_378\n        /* \"#utility.yul\":11035:11039   */\n      dup2\n        /* \"#utility.yul\":10909:11040   */\n      tag_261\n      jump\t// in\n    tag_378:\n        /* \"#utility.yul\":10901:11040   */\n      swap1\n      pop\n        /* \"#utility.yul\":10628:11047   */\n      swap2\n      swap1\n      pop\n      jump\t// out\n        /* \"#utility.yul\":11053:11221   */\n    tag_262:\n        /* \"#utility.yul\":11193:11213   */\n      0x44697374726962757465206e6f74207365740000000000000000000000000000\n        /* \"#utility.yul\":11189:11190   */\n      0x00\n        /* \"#utility.yul\":11181:11187   */\n      dup3\n        /* \"#utility.yul\":11177:11191   */\n      add\n        /* \"#utility.yul\":11170:11214   */\n      mstore\n        /* \"#utility.yul\":11053:11221   */\n      pop\n      jump\t// out\n        /* \"#utility.yul\":11227:11593   */\n    tag_263:\n        /* \"#utility.yul\":11369:11372   */\n      0x00\n        /* \"#utility.yul\":11390:11457   */\n      tag_381\n        /* \"#utility.yul\":11454:11456   */\n      0x12\n        /* \"#utility.yul\":11449:11452   */\n      dup4\n        /* \"#utility.yul\":11390:11457   */\n      tag_232\n      jump\t// in\n    tag_381:\n        /* \"#utility.yul\":11383:11457   */\n      swap2\n      pop\n        /* \"#utility.yul\":11466:11559   */\n      tag_382\n        /* \"#utility.yul\":11555:11558   */\n      dup3\n        /* \"#utility.yul\":11466:11559   */\n      tag_262\n      jump\t// in\n    tag_382:\n        /* \"#utility.yul\":11584:11586   */\n      0x20\n        /* \"#utility.yul\":11579:11582   */\n      dup3\n        /* \"#utility.yul\":11575:11587   */\n      add\n        /* \"#utility.yul\":11568:11587   */\n      swap1\n      pop\n        /* \"#utility.yul\":11227:11593   */\n      swap2\n      swap1\n      pop\n      jump\t// out\n        /* \"#utility.yul\":11599:12018   */\n    tag_135:\n        /* \"#utility.yul\":11765:11769   */\n      0x00\n        /* \"#utility.yul\":11803:11805   */\n      0x20\n        /* \"#utility.yul\":11792:11801   */\n      dup3\n        /* \"#utility.yul\":11788:11806   */\n      add\n        /* \"#utility.yul\":11780:11806   */\n      swap1\n      pop\n        /* \"#utility.yul\":11852:11861   */\n      dup2\n        /* \"#utility.yul\":11846:11850   */\n      dup2\n        /* \"#utility.yul\":11842:11862   */\n      sub\n        /* \"#utility.yul\":11838:11839   */\n      0x00\n        /* \"#utility.yul\":11827:11836   */\n      dup4\n        /* \"#utility.yul\":11823:11840   */\n      add\n        /* \"#utility.yul\":11816:11863   */\n      mstore\n        /* \"#utility.yul\":11880:12011   */\n      tag_384\n        /* \"#utility.yul\":12006:12010   */\n      dup2\n        /* \"#utility.yul\":11880:12011   */\n      tag_263\n      jump\t// in\n    tag_384:\n        /* \"#utility.yul\":11872:12011   */\n      swap1\n      pop\n        /* \"#utility.yul\":11599:12018   */\n      swap2\n      swap1\n      pop\n      jump\t// out\n        /* \"#utility.yul\":12024:12167   */\n    tag_264:\n        /* \"#utility.yul\":12081:12086   */\n      0x00\n        /* \"#utility.yul\":12112:12118   */\n      dup2\n        /* \"#utility.yul\":12106:12119   */\n      mload\n        /* \"#utility.yul\":12097:12119   */\n      swap1\n      pop\n        /* \"#utility.yul\":12128:12161   */\n      tag_386\n        /* \"#utility.yul\":12155:12160   */\n      dup2\n        /* \"#utility.yul\":12128:12161   */\n      tag_245\n      jump\t// in\n    tag_386:\n        /* \"#utility.yul\":12024:12167   */\n      swap3\n      swap2\n      pop\n      pop\n      jump\t// out\n        /* \"#utility.yul\":12173:12524   */\n    tag_140:\n        /* \"#utility.yul\":12243:12249   */\n      0x00\n        /* \"#utility.yul\":12292:12294   */\n      0x20\n        /* \"#utility.yul\":12280:12289   */\n      dup3\n        /* \"#utility.yul\":12271:12278   */\n      dup5\n        /* \"#utility.yul\":12267:12290   */\n      sub\n        /* \"#utility.yul\":12263:12295   */\n      slt\n        /* \"#utility.yul\":12260:12379   */\n      iszero\n      tag_388\n      jumpi\n        /* \"#utility.yul\":12298:12377   */\n      tag_389\n      tag_237\n      jump\t// in\n    tag_389:\n        /* \"#utility.yul\":12260:12379   */\n    tag_388:\n        /* \"#utility.yul\":12418:12419   */\n      0x00\n        /* \"#utility.yul\":12443:12507   */\n      tag_390\n        /* \"#utility.yul\":12499:12506   */\n      dup5\n        /* \"#utility.yul\":12490:12496   */\n      dup3\n        /* \"#utility.yul\":12479:12488   */\n      dup6\n        /* \"#utility.yul\":12475:12497   */\n      add\n        /* \"#utility.yul\":12443:12507   */\n      tag_264\n      jump\t// in\n    tag_390:\n        /* \"#utility.yul\":12433:12507   */\n      swap2\n      pop\n        /* \"#utility.yul\":12389:12517   */\n      pop\n        /* \"#utility.yul\":12173:12524   */\n      swap3\n      swap2\n      pop\n      pop\n      jump\t// out\n        /* \"#utility.yul\":12530:12688   */\n    tag_265:\n        /* \"#utility.yul\":12670:12680   */\n      0x4e6f2066756e6473000000000000000000000000000000000000000000000000\n        /* \"#utility.yul\":12666:12667   */\n      0x00\n        /* \"#utility.yul\":12658:12664   */\n      dup3\n        /* \"#utility.yul\":12654:12668   */\n      add\n        /* \"#utility.yul\":12647:12681   */\n      mstore\n        /* \"#utility.yul\":12530:12688   */\n      pop\n      jump\t// out\n        /* \"#utility.yul\":12694:13059   */\n    tag_266:\n        /* \"#utility.yul\":12836:12839   */\n      0x00\n        /* \"#utility.yul\":12857:12923   */\n      tag_393\n        /* \"#utility.yul\":12921:12922   */\n      0x08\n        /* \"#utility.yul\":12916:12919   */\n      dup4\n        /* \"#utility.yul\":12857:12923   */\n      tag_232\n      jump\t// in\n    tag_393:\n        /* \"#utility.yul\":12850:12923   */\n      swap2\n      pop\n        /* \"#utility.yul\":12932:13025   */\n      tag_394\n        /* \"#utility.yul\":13021:13024   */\n      dup3\n        /* \"#utility.yul\":12932:13025   */\n      tag_265\n      jump\t// in\n    tag_394:\n        /* \"#utility.yul\":13050:13052   */\n      0x20\n        /* \"#utility.yul\":13045:13048   */\n      dup3\n        /* \"#utility.yul\":13041:13053   */\n      add\n        /* \"#utility.yul\":13034:13053   */\n      swap1\n      pop\n        /* \"#utility.yul\":12694:13059   */\n      swap2\n      swap1\n      pop\n      jump\t// out\n        /* \"#utility.yul\":13065:13484   */\n    tag_143:\n        /* \"#utility.yul\":13231:13235   */\n      0x00\n        /* \"#utility.yul\":13269:13271   */\n      0x20\n        /* \"#utility.yul\":13258:13267   */\n      dup3\n        /* \"#utility.yul\":13254:13272   */\n      add\n        /* \"#utility.yul\":13246:13272   */\n      swap1\n      pop\n        /* \"#utility.yul\":13318:13327   */\n      dup2\n        /* \"#utility.yul\":13312:13316   */\n      dup2\n        /* \"#utility.yul\":13308:13328   */\n      sub\n        /* \"#utility.yul\":13304:13305   */\n      0x00\n        /* \"#utility.yul\":13293:13302   */\n      dup4\n        /* \"#utility.yul\":13289:13306   */\n      add\n        /* \"#utility.yul\":13282:13329   */\n      mstore\n        /* \"#utility.yul\":13346:13477   */\n      tag_396\n        /* \"#utility.yul\":13472:13476   */\n      dup2\n        /* \"#utility.yul\":13346:13477   */\n      tag_266\n      jump\t// in\n    tag_396:\n        /* \"#utility.yul\":13338:13477   */\n      swap1\n      pop\n        /* \"#utility.yul\":13065:13484   */\n      swap2\n      swap1\n      pop\n      jump\t// out\n        /* \"#utility.yul\":13490:13655   */\n    tag_267:\n        /* \"#utility.yul\":13630:13647   */\n      0x496e76616c696420616464726573730000000000000000000000000000000000\n        /* \"#utility.yul\":13626:13627   */\n      0x00\n        /* \"#utility.yul\":13618:13624   */\n      dup3\n        /* \"#utility.yul\":13614:13628   */\n      add\n        /* \"#utility.yul\":13607:13648   */\n      mstore\n        /* \"#utility.yul\":13490:13655   */\n      pop\n      jump\t// out\n        /* \"#utility.yul\":13661:14027   */\n    tag_268:\n        /* \"#utility.yul\":13803:13806   */\n      0x00\n        /* \"#utility.yul\":13824:13891   */\n      tag_399\n        /* \"#utility.yul\":13888:13890   */\n      0x0f\n        /* \"#utility.yul\":13883:13886   */\n      dup4\n        /* \"#utility.yul\":13824:13891   */\n      tag_232\n      jump\t// in\n    tag_399:\n        /* \"#utility.yul\":13817:13891   */\n      swap2\n      pop\n        /* \"#utility.yul\":13900:13993   */\n      tag_400\n        /* \"#utility.yul\":13989:13992   */\n      dup3\n        /* \"#utility.yul\":13900:13993   */\n      tag_267\n      jump\t// in\n    tag_400:\n        /* \"#utility.yul\":14018:14020   */\n      0x20\n        /* \"#utility.yul\":14013:14016   */\n      dup3\n        /* \"#utility.yul\":14009:14021   */\n      add\n        /* \"#utility.yul\":14002:14021   */\n      swap1\n      pop\n        /* \"#utility.yul\":13661:14027   */\n      swap2\n      swap1\n      pop\n      jump\t// out\n        /* \"#utility.yul\":14033:14452   */\n    tag_156:\n        /* \"#utility.yul\":14199:14203   */\n      0x00\n        /* \"#utility.yul\":14237:14239   */\n      0x20\n        /* \"#utility.yul\":14226:14235   */\n      dup3\n        /* \"#utility.yul\":14222:14240   */\n      add\n        /* \"#utility.yul\":14214:14240   */\n      swap1\n      pop\n        /* \"#utility.yul\":14286:14295   */\n      dup2\n        /* \"#utility.yul\":14280:14284   */\n      dup2\n        /* \"#utility.yul\":14276:14296   */\n      sub\n        /* \"#utility.yul\":14272:14273   */\n      0x00\n        /* \"#utility.yul\":14261:14270   */\n      dup4\n        /* \"#utility.yul\":14257:14274   */\n      add\n        /* \"#utility.yul\":14250:14297   */\n      mstore\n        /* \"#utility.yul\":14314:14445   */\n      tag_402\n        /* \"#utility.yul\":14440:14444   */\n      dup2\n        /* \"#utility.yul\":14314:14445   */\n      tag_268\n      jump\t// in\n    tag_402:\n        /* \"#utility.yul\":14306:14445   */\n      swap1\n      pop\n        /* \"#utility.yul\":14033:14452   */\n      swap2\n      swap1\n      pop\n      jump\t// out\n        /* \"#utility.yul\":14458:14649   */\n    tag_168:\n        /* \"#utility.yul\":14498:14501   */\n      0x00\n        /* \"#utility.yul\":14517:14537   */\n      tag_404\n        /* \"#utility.yul\":14535:14536   */\n      dup3\n        /* \"#utility.yul\":14517:14537   */\n      tag_243\n      jump\t// in\n    tag_404:\n        /* \"#utility.yul\":14512:14537   */\n      swap2\n      pop\n        /* \"#utility.yul\":14551:14571   */\n      tag_405\n        /* \"#utility.yul\":14569:14570   */\n      dup4\n        /* \"#utility.yul\":14551:14571   */\n      tag_243\n      jump\t// in\n    tag_405:\n        /* \"#utility.yul\":14546:14571   */\n      swap3\n      pop\n        /* \"#utility.yul\":14594:14595   */\n      dup3\n        /* \"#utility.yul\":14591:14592   */\n      dup3\n        /* \"#utility.yul\":14587:14596   */\n      add\n        /* \"#utility.yul\":14580:14596   */\n      swap1\n      pop\n        /* \"#utility.yul\":14615:14618   */\n      dup1\n        /* \"#utility.yul\":14612:14613   */\n      dup3\n        /* \"#utility.yul\":14609:14619   */\n      gt\n        /* \"#utility.yul\":14606:14642   */\n      iszero\n      tag_406\n      jumpi\n        /* \"#utility.yul\":14622:14640   */\n      tag_407\n      tag_254\n      jump\t// in\n    tag_407:\n        /* \"#utility.yul\":14606:14642   */\n    tag_406:\n        /* \"#utility.yul\":14458:14649   */\n      swap3\n      swap2\n      pop\n      pop\n      jump\t// out\n        /* \"#utility.yul\":14655:14817   */\n    tag_269:\n        /* \"#utility.yul\":14795:14809   */\n      0x4578636565647320676f616c0000000000000000000000000000000000000000\n        /* \"#utility.yul\":14791:14792   */\n      0x00\n        /* \"#utility.yul\":14783:14789   */\n      dup3\n        /* \"#utility.yul\":14779:14793   */\n      add\n        /* \"#utility.yul\":14772:14810   */\n      mstore\n        /* \"#utility.yul\":14655:14817   */\n      pop\n      jump\t// out\n        /* \"#utility.yul\":14823:15189   */\n    tag_270:\n        /* \"#utility.yul\":14965:14968   */\n      0x00\n        /* \"#utility.yul\":14986:15053   */\n      tag_410\n        /* \"#utility.yul\":15050:15052   */\n      0x0c\n        /* \"#utility.yul\":15045:15048   */\n      dup4\n        /* \"#utility.yul\":14986:15053   */\n      tag_232\n      jump\t// in\n    tag_410:\n        /* \"#utility.yul\":14979:15053   */\n      swap2\n      pop\n        /* \"#utility.yul\":15062:15155   */\n      tag_411\n        /* \"#utility.yul\":15151:15154   */\n      dup3\n        /* \"#utility.yul\":15062:15155   */\n      tag_269\n      jump\t// in\n    tag_411:\n        /* \"#utility.yul\":15180:15182   */\n      0x20\n        /* \"#utility.yul\":15175:15178   */\n      dup3\n        /* \"#utility.yul\":15171:15183   */\n      add\n        /* \"#utility.yul\":15164:15183   */\n      swap1\n      pop\n        /* \"#utility.yul\":14823:15189   */\n      swap2\n      swap1\n      pop\n      jump\t// out\n        /* \"#utility.yul\":15195:15614   */\n    tag_171:\n        /* \"#utility.yul\":15361:15365   */\n      0x00\n        /* \"#utility.yul\":15399:15401   */\n      0x20\n        /* \"#utility.yul\":15388:15397   */\n      dup3\n        /* \"#utility.yul\":15384:15402   */\n      add\n        /* \"#utility.yul\":15376:15402   */\n      swap1\n      pop\n        /* \"#utility.yul\":15448:15457   */\n      dup2\n        /* \"#utility.yul\":15442:15446   */\n      dup2\n        /* \"#utility.yul\":15438:15458   */\n      sub\n        /* \"#utility.yul\":15434:15435   */\n      0x00\n        /* \"#utility.yul\":15423:15432   */\n      dup4\n        /* \"#utility.yul\":15419:15436   */\n      add\n        /* \"#utility.yul\":15412:15459   */\n      mstore\n        /* \"#utility.yul\":15476:15607   */\n      tag_413\n        /* \"#utility.yul\":15602:15606   */\n      dup2\n        /* \"#utility.yul\":15476:15607   */\n      tag_270\n      jump\t// in\n    tag_413:\n        /* \"#utility.yul\":15468:15607   */\n      swap1\n      pop\n        /* \"#utility.yul\":15195:15614   */\n      swap2\n      swap1\n      pop\n      jump\t// out\n        /* \"#utility.yul\":15620:16062   */\n    tag_173:\n        /* \"#utility.yul\":15769:15773   */\n      0x00\n        /* \"#utility.yul\":15807:15809   */\n      0x60\n        /* \"#utility.yul\":15796:15805   */\n      dup3\n        /* \"#utility.yul\":15792:15810   */\n      add\n        /* \"#utility.yul\":15784:15810   */\n      swap1\n      pop\n        /* \"#utility.yul\":15820:15891   */\n      tag_415\n        /* \"#utility.yul\":15888:15889   */\n      0x00\n        /* \"#utility.yul\":15877:15886   */\n      dup4\n        /* \"#utility.yul\":15873:15890   */\n      add\n        /* \"#utility.yul\":15864:15870   */\n      dup7\n        /* \"#utility.yul\":15820:15891   */\n      tag_247\n      jump\t// in\n    tag_415:\n        /* \"#utility.yul\":15901:15973   */\n      tag_416\n        /* \"#utility.yul\":15969:15971   */\n      0x20\n        /* \"#utility.yul\":15958:15967   */\n      dup4\n        /* \"#utility.yul\":15954:15972   */\n      add\n        /* \"#utility.yul\":15945:15951   */\n      dup6\n        /* \"#utility.yul\":15901:15973   */\n      tag_247\n      jump\t// in\n    tag_416:\n        /* \"#utility.yul\":15983:16055   */\n      tag_417\n        /* \"#utility.yul\":16051:16053   */\n      0x40\n        /* \"#utility.yul\":16040:16049   */\n      dup4\n        /* \"#utility.yul\":16036:16054   */\n      add\n        /* \"#utility.yul\":16027:16033   */\n      dup5\n        /* \"#utility.yul\":15983:16055   */\n      tag_244\n      jump\t// in\n    tag_417:\n        /* \"#utility.yul\":15620:16062   */\n      swap5\n      swap4\n      pop\n      pop\n      pop\n      pop\n      jump\t// out\n        /* \"#utility.yul\":16068:16233   */\n    tag_271:\n        /* \"#utility.yul\":16208:16225   */\n      0x53706f6e736f72206e6f74207365740000000000000000000000000000000000\n        /* \"#utility.yul\":16204:16205   */\n      0x00\n        /* \"#utility.yul\":16196:16202   */\n      dup3\n        /* \"#utility.yul\":16192:16206   */\n      add\n        /* \"#utility.yul\":16185:16226   */\n      mstore\n        /* \"#utility.yul\":16068:16233   */\n      pop\n      jump\t// out\n        /* \"#utility.yul\":16239:16605   */\n    tag_272:\n        /* \"#utility.yul\":16381:16384   */\n      0x00\n        /* \"#utility.yul\":16402:16469   */\n      tag_420\n        /* \"#utility.yul\":16466:16468   */\n      0x0f\n        /* \"#utility.yul\":16461:16464   */\n      dup4\n        /* \"#utility.yul\":16402:16469   */\n      tag_232\n      jump\t// in\n    tag_420:\n        /* \"#utility.yul\":16395:16469   */\n      swap2\n      pop\n        /* \"#utility.yul\":16478:16571   */\n      tag_421\n        /* \"#utility.yul\":16567:16570   */\n      dup3\n        /* \"#utility.yul\":16478:16571   */\n      tag_271\n      jump\t// in\n    tag_421:\n        /* \"#utility.yul\":16596:16598   */\n      0x20\n        /* \"#utility.yul\":16591:16594   */\n      dup3\n        /* \"#utility.yul\":16587:16599   */\n      add\n        /* \"#utility.yul\":16580:16599   */\n      swap1\n      pop\n        /* \"#utility.yul\":16239:16605   */\n      swap2\n      swap1\n      pop\n      jump\t// out\n        /* \"#utility.yul\":16611:17030   */\n    tag_200:\n        /* \"#utility.yul\":16777:16781   */\n      0x00\n        /* \"#utility.yul\":16815:16817   */\n      0x20\n        /* \"#utility.yul\":16804:16813   */\n      dup3\n        /* \"#utility.yul\":16800:16818   */\n      add\n        /* \"#utility.yul\":16792:16818   */\n      swap1\n      pop\n        /* \"#utility.yul\":16864:16873   */\n      dup2\n        /* \"#utility.yul\":16858:16862   */\n      dup2\n        /* \"#utility.yul\":16854:16874   */\n      sub\n        /* \"#utility.yul\":16850:16851   */\n      0x00\n        /* \"#utility.yul\":16839:16848   */\n      dup4\n        /* \"#utility.yul\":16835:16852   */\n      add\n        /* \"#utility.yul\":16828:16875   */\n      mstore\n        /* \"#utility.yul\":16892:17023   */\n      tag_423\n        /* \"#utility.yul\":17018:17022   */\n      dup2\n        /* \"#utility.yul\":16892:17023   */\n      tag_272\n      jump\t// in\n    tag_423:\n        /* \"#utility.yul\":16884:17023   */\n      swap1\n      pop\n        /* \"#utility.yul\":16611:17030   */\n      swap2\n      swap1\n      pop\n      jump\t// out\n\n    auxdata: 0xa2646970667358221220edaca95dbc2f9482d08282dafd9fc11485e479d82019c175da33b5fd189ac6a664736f6c634300081f0033\n}\n",
				"bytecode": {
					"linkReferences": {},
					"object": "608060405234801561000f575f5ffd5b5060405161212c38038061212c8339818101604052810190610031919061022f565b5f73ffffffffffffffffffffffffffffffffffffffff168273ffffffffffffffffffffffffffffffffffffffff160361009f576040517f08c379a0000000000000000000000000000000000000000000000000000000008152600401610096906102c7565b60405180910390fd5b5f81116100e1576040517f08c379a00000000000000000000000000000000000000000000000000000000081526004016100d89061032f565b60405180910390fd5b335f5f6101000a81548173ffffffffffffffffffffffffffffffffffffffff021916908373ffffffffffffffffffffffffffffffffffffffff1602179055508160015f6101000a81548173ffffffffffffffffffffffffffffffffffffffff021916908373ffffffffffffffffffffffffffffffffffffffff160217905550806004819055505f6005819055505f60065f6101000a81548160ff021916908360028111156101925761019161034d565b5b0217905550505061037a565b5f5ffd5b5f73ffffffffffffffffffffffffffffffffffffffff82169050919050565b5f6101cb826101a2565b9050919050565b6101db816101c1565b81146101e5575f5ffd5b50565b5f815190506101f6816101d2565b92915050565b5f819050919050565b61020e816101fc565b8114610218575f5ffd5b50565b5f8151905061022981610205565b92915050565b5f5f604083850312156102455761024461019e565b5b5f610252858286016101e8565b92505060206102638582860161021b565b9150509250929050565b5f82825260208201905092915050565b7f496e76616c696420746f6b656e000000000000000000000000000000000000005f82015250565b5f6102b1600d8361026d565b91506102bc8261027d565b602082019050919050565b5f6020820190508181035f8301526102de816102a5565b9050919050565b7f496e76616c696420676f616c00000000000000000000000000000000000000005f82015250565b5f610319600c8361026d565b9150610324826102e5565b602082019050919050565b5f6020820190508181035f8301526103468161030d565b9050919050565b7f4e487b71000000000000000000000000000000000000000000000000000000005f52602160045260245ffd5b611da5806103875f395ff3fe608060405234801561000f575f5ffd5b5060043610610109575f3560e01c80637a3a0e84116100a0578063c1cbbca71161006f578063c1cbbca714610281578063d69f84fd1461029d578063dabaae11146102a7578063dd682c3c146102c5578063f441b1c8146102e157610109565b80637a3a0e841461020b5780638da5cb5b146102295780639d76ea5814610247578063b90a52c61461026557610109565b806342e94c90116100dc57806342e94c9014610195578063511569a6146101c55780635f23c4c6146101e35780636aeefe10146101ed57610109565b80630c3f6acf1461010d5780631865c57d1461012b57806321eff7fc146101495780632e1a7d4d14610179575b5f5ffd5b6101156102ff565b60405161012291906115f1565b60405180910390f35b610133610311565b604051610140919061167a565b60405180910390f35b610163600480360381019061015e91906116f8565b61043c565b604051610170919061173b565b60405180910390f35b610193600480360381019061018e919061177e565b610482565b005b6101af60048036038101906101aa91906116f8565b610756565b6040516101bc919061173b565b60405180910390f35b6101cd61076b565b6040516101da91906117b8565b60405180910390f35b6101eb610790565b005b6101f5610b06565b60405161020291906117b8565b60405180910390f35b610213610b2b565b604051610220919061173b565b60405180910390f35b610231610b31565b60405161023e91906117b8565b60405180910390f35b61024f610b55565b60405161025c91906117b8565b60405180910390f35b61027f600480360381019061027a91906116f8565b610b7a565b005b61029b6004803603810190610296919061177e565b610cb9565b005b6102a5611008565b005b6102af61140f565b6040516102bc919061173b565b60405180910390f35b6102df60048036038101906102da91906116f8565b611439565b005b6102e9611578565b6040516102f6919061173b565b60405180910390f35b60065f9054906101000a900460ff1681565b60605f60028111156103265761032561157e565b5b60065f9054906101000a900460ff1660028111156103475761034661157e565b5b03610389576040518060400160405280600a81526020017f6e6566696e616e746174000000000000000000000000000000000000000000008152509050610439565b6001600281111561039d5761039c61157e565b5b60065f9054906101000a900460ff1660028111156103be576103bd61157e565b5b03610400576040518060400160405280600b81526020017f70726566696e616e7461740000000000000000000000000000000000000000008152509050610439565b6040518060400160405280600881526020017f66696e616e74617400000000000000000000000000000000000000000000000081525090505b90565b5f60075f8373ffffffffffffffffffffffffffffffffffffffff1673ffffffffffffffffffffffffffffffffffffffff1681526020019081526020015f20549050919050565b5f8060028111156104965761049561157e565b5b60065f9054906101000a900460ff1660028111156104b7576104b661157e565b5b146104f7576040517f08c379a00000000000000000000000000000000000000000000000000000000081526004016104ee9061181b565b60405180910390fd5b5f8211610539576040517f08c379a000000000000000000000000000000000000000000000000000000000815260040161053090611883565b60405180910390fd5b8160075f3373ffffffffffffffffffffffffffffffffffffffff1673ffffffffffffffffffffffffffffffffffffffff1681526020019081526020015f205410156105b9576040517f08c379a00000000000000000000000000000000000000000000000000000000081526004016105b0906118eb565b60405180910390fd5b8160075f3373ffffffffffffffffffffffffffffffffffffffff1673ffffffffffffffffffffffffffffffffffffffff1681526020019081526020015f205f8282546106059190611936565b925050819055508160055f82825461061d9190611936565b925050819055505f60015f9054906101000a900473ffffffffffffffffffffffffffffffffffffffff1690508073ffffffffffffffffffffffffffffffffffffffff1663a9059cbb33856040518363ffffffff1660e01b8152600401610684929190611969565b6020604051808303815f875af11580156106a0573d5f5f3e3d5ffd5b505050506040513d601f19601f820116820180604052508101906106c491906119c5565b610703576040517f08c379a00000000000000000000000000000000000000000000000000000000081526004016106fa90611a3a565b60405180910390fd5b3373ffffffffffffffffffffffffffffffffffffffff167fbc158bb64f05d6383aea69bbb0b20c1bbf4b7a18f63359c5649b7c39e29d388484604051610749919061173b565b60405180910390a2505050565b6007602052805f5260405f205f915090505481565b60035f9054906101000a900473ffffffffffffffffffffffffffffffffffffffff1681565b5f5f9054906101000a900473ffffffffffffffffffffffffffffffffffffffff1673ffffffffffffffffffffffffffffffffffffffff163373ffffffffffffffffffffffffffffffffffffffff161461081e576040517f08c379a000000000000000000000000000000000000000000000000000000000815260040161081590611aa2565b60405180910390fd5b60028060028111156108335761083261157e565b5b60065f9054906101000a900460ff1660028111156108545761085361157e565b5b14610894576040517f08c379a000000000000000000000000000000000000000000000000000000000815260040161088b9061181b565b60405180910390fd5b5f73ffffffffffffffffffffffffffffffffffffffff1660035f9054906101000a900473ffffffffffffffffffffffffffffffffffffffff1673ffffffffffffffffffffffffffffffffffffffff1603610923576040517f08c379a000000000000000000000000000000000000000000000000000000000815260040161091a90611b0a565b60405180910390fd5b5f60015f9054906101000a900473ffffffffffffffffffffffffffffffffffffffff1673ffffffffffffffffffffffffffffffffffffffff166370a08231306040518263ffffffff1660e01b815260040161097e91906117b8565b602060405180830381865afa158015610999573d5f5f3e3d5ffd5b505050506040513d601f19601f820116820180604052508101906109bd9190611b3c565b90505f8111610a01576040517f08c379a00000000000000000000000000000000000000000000000000000000081526004016109f890611bb1565b60405180910390fd5b5f60015f9054906101000a900473ffffffffffffffffffffffffffffffffffffffff1690508073ffffffffffffffffffffffffffffffffffffffff1663a9059cbb60035f9054906101000a900473ffffffffffffffffffffffffffffffffffffffff16846040518363ffffffff1660e01b8152600401610a82929190611969565b6020604051808303815f875af1158015610a9e573d5f5f3e3d5ffd5b505050506040513d601f19601f82011682018060405250810190610ac291906119c5565b610b01576040517f08c379a0000000000000000000000000000000000000000000000000000000008152600401610af890611a3a565b60405180910390fd5b505050565b60025f9054906101000a900473ffffffffffffffffffffffffffffffffffffffff1681565b60045481565b5f5f9054906101000a900473ffffffffffffffffffffffffffffffffffffffff1681565b60015f9054906101000a900473ffffffffffffffffffffffffffffffffffffffff1681565b5f5f9054906101000a900473ffffffffffffffffffffffffffffffffffffffff1673ffffffffffffffffffffffffffffffffffffffff163373ffffffffffffffffffffffffffffffffffffffff1614610c08576040517f08c379a0000000000000000000000000000000000000000000000000000000008152600401610bff90611aa2565b60405180910390fd5b5f73ffffffffffffffffffffffffffffffffffffffff168173ffffffffffffffffffffffffffffffffffffffff1603610c76576040517f08c379a0000000000000000000000000000000000000000000000000000000008152600401610c6d90611c19565b60405180910390fd5b8060035f6101000a81548173ffffffffffffffffffffffffffffffffffffffff021916908373ffffffffffffffffffffffffffffffffffffffff16021790555050565b5f806002811115610ccd57610ccc61157e565b5b60065f9054906101000a900460ff166002811115610cee57610ced61157e565b5b14610d2e576040517f08c379a0000000000000000000000000000000000000000000000000000000008152600401610d259061181b565b60405180910390fd5b5f8211610d70576040517f08c379a0000000000000000000000000000000000000000000000000000000008152600401610d6790611883565b60405180910390fd5b60045482600554610d819190611c37565b1115610dc2576040517f08c379a0000000000000000000000000000000000000000000000000000000008152600401610db990611cb4565b60405180910390fd5b5f60015f9054906101000a900473ffffffffffffffffffffffffffffffffffffffff1690508073ffffffffffffffffffffffffffffffffffffffff166323b872dd3330866040518463ffffffff1660e01b8152600401610e2493929190611cd2565b6020604051808303815f875af1158015610e40573d5f5f3e3d5ffd5b505050506040513d601f19601f82011682018060405250810190610e6491906119c5565b610ea3576040517f08c379a0000000000000000000000000000000000000000000000000000000008152600401610e9a90611a3a565b60405180910390fd5b8260075f3373ffffffffffffffffffffffffffffffffffffffff1673ffffffffffffffffffffffffffffffffffffffff1681526020019081526020015f205f828254610eef9190611c37565b925050819055508260055f828254610f079190611c37565b925050819055503373ffffffffffffffffffffffffffffffffffffffff167f1bb460ccaaf70fbacfec17a376f8acbd278c1405590ffcc8ebe4b88daf4f64ad84604051610f54919061173b565b60405180910390a26004546005541061100357600160065f6101000a81548160ff02191690836002811115610f8c57610f8b61157e565b5b02179055507ffbfd8ab7c24300fa9888cd721c8565a7da56759384781283684dcf7c7c4a846b600554604051610fc2919061173b565b60405180910390a17f551dc40198cc79684bb69e4931dba4ac16e4598792ee1c0a5000aeea366d7bb66001604051610ffa91906115f1565b60405180910390a15b505050565b5f5f9054906101000a900473ffffffffffffffffffffffffffffffffffffffff1673ffffffffffffffffffffffffffffffffffffffff163373ffffffffffffffffffffffffffffffffffffffff1614611096576040517f08c379a000000000000000000000000000000000000000000000000000000000815260040161108d90611aa2565b60405180910390fd5b60018060028111156110ab576110aa61157e565b5b60065f9054906101000a900460ff1660028111156110cc576110cb61157e565b5b1461110c576040517f08c379a00000000000000000000000000000000000000000000000000000000081526004016111039061181b565b60405180910390fd5b5f73ffffffffffffffffffffffffffffffffffffffff1660025f9054906101000a900473ffffffffffffffffffffffffffffffffffffffff1673ffffffffffffffffffffffffffffffffffffffff160361119b576040517f08c379a000000000000000000000000000000000000000000000000000000000815260040161119290611d51565b60405180910390fd5b5f60015f9054906101000a900473ffffffffffffffffffffffffffffffffffffffff1673ffffffffffffffffffffffffffffffffffffffff166370a08231306040518263ffffffff1660e01b81526004016111f691906117b8565b602060405180830381865afa158015611211573d5f5f3e3d5ffd5b505050506040513d601f19601f820116820180604052508101906112359190611b3c565b905060025f9054906101000a900473ffffffffffffffffffffffffffffffffffffffff1673ffffffffffffffffffffffffffffffffffffffff1663c5d9b404306040518263ffffffff1660e01b815260040161129191906117b8565b5f604051808303815f87803b1580156112a8575f5ffd5b505af11580156112ba573d5f5f3e3d5ffd5b505050505f60015f9054906101000a900473ffffffffffffffffffffffffffffffffffffffff1673ffffffffffffffffffffffffffffffffffffffff166370a08231306040518263ffffffff1660e01b815260040161131991906117b8565b602060405180830381865afa158015611334573d5f5f3e3d5ffd5b505050506040513d601f19601f820116820180604052508101906113589190611b3c565b90505f82826113679190611936565b905081600581905550600260065f6101000a81548160ff021916908360028111156113955761139461157e565b5b02179055507fe39ffe3225753008b3e2be16d5450bd66fae7dd9bf04cccdc2f2218a74f24210816040516113c9919061173b565b60405180910390a17f551dc40198cc79684bb69e4931dba4ac16e4598792ee1c0a5000aeea366d7bb6600260405161140191906115f1565b60405180910390a150505050565b5f60045460055410611423575f9050611436565b6005546004546114339190611936565b90505b90565b5f5f9054906101000a900473ffffffffffffffffffffffffffffffffffffffff1673ffffffffffffffffffffffffffffffffffffffff163373ffffffffffffffffffffffffffffffffffffffff16146114c7576040517f08c379a00000000000000000000000000000000000000000000000000000000081526004016114be90611aa2565b60405180910390fd5b5f73ffffffffffffffffffffffffffffffffffffffff168173ffffffffffffffffffffffffffffffffffffffff1603611535576040517f08c379a000000000000000000000000000000000000000000000000000000000815260040161152c90611c19565b60405180910390fd5b8060025f6101000a81548173ffffffffffffffffffffffffffffffffffffffff021916908373ffffffffffffffffffffffffffffffffffffffff16021790555050565b60055481565b7f4e487b71000000000000000000000000000000000000000000000000000000005f52602160045260245ffd5b600381106115bc576115bb61157e565b5b50565b5f8190506115cc826115ab565b919050565b5f6115db826115bf565b9050919050565b6115eb816115d1565b82525050565b5f6020820190506116045f8301846115e2565b92915050565b5f81519050919050565b5f82825260208201905092915050565b8281835e5f83830152505050565b5f601f19601f8301169050919050565b5f61164c8261160a565b6116568185611614565b9350611666818560208601611624565b61166f81611632565b840191505092915050565b5f6020820190508181035f8301526116928184611642565b905092915050565b5f5ffd5b5f73ffffffffffffffffffffffffffffffffffffffff82169050919050565b5f6116c78261169e565b9050919050565b6116d7816116bd565b81146116e1575f5ffd5b50565b5f813590506116f2816116ce565b92915050565b5f6020828403121561170d5761170c61169a565b5b5f61171a848285016116e4565b91505092915050565b5f819050919050565b61173581611723565b82525050565b5f60208201905061174e5f83018461172c565b92915050565b61175d81611723565b8114611767575f5ffd5b50565b5f8135905061177881611754565b92915050565b5f602082840312156117935761179261169a565b5b5f6117a08482850161176a565b91505092915050565b6117b2816116bd565b82525050565b5f6020820190506117cb5f8301846117a9565b92915050565b7f496e76616c6964207374617465000000000000000000000000000000000000005f82015250565b5f611805600d83611614565b9150611810826117d1565b602082019050919050565b5f6020820190508181035f830152611832816117f9565b9050919050565b7f416d6f756e74206d75737420626520706f7369746976650000000000000000005f82015250565b5f61186d601783611614565b915061187882611839565b602082019050919050565b5f6020820190508181035f83015261189a81611861565b9050919050565b7f496e73756666696369656e7420636f6e747269627574696f6e000000000000005f82015250565b5f6118d5601983611614565b91506118e0826118a1565b602082019050919050565b5f6020820190508181035f830152611902816118c9565b9050919050565b7f4e487b71000000000000000000000000000000000000000000000000000000005f52601160045260245ffd5b5f61194082611723565b915061194b83611723565b925082820390508181111561196357611962611909565b5b92915050565b5f60408201905061197c5f8301856117a9565b611989602083018461172c565b9392505050565b5f8115159050919050565b6119a481611990565b81146119ae575f5ffd5b50565b5f815190506119bf8161199b565b92915050565b5f602082840312156119da576119d961169a565b5b5f6119e7848285016119b1565b91505092915050565b7f5472616e73666572206661696c656400000000000000000000000000000000005f82015250565b5f611a24600f83611614565b9150611a2f826119f0565b602082019050919050565b5f6020820190508181035f830152611a5181611a18565b9050919050565b7f4f6e6c79206f776e6572000000000000000000000000000000000000000000005f82015250565b5f611a8c600a83611614565b9150611a9782611a58565b602082019050919050565b5f6020820190508181035f830152611ab981611a80565b9050919050565b7f44697374726962757465206e6f742073657400000000000000000000000000005f82015250565b5f611af4601283611614565b9150611aff82611ac0565b602082019050919050565b5f6020820190508181035f830152611b2181611ae8565b9050919050565b5f81519050611b3681611754565b92915050565b5f60208284031215611b5157611b5061169a565b5b5f611b5e84828501611b28565b91505092915050565b7f4e6f2066756e64730000000000000000000000000000000000000000000000005f82015250565b5f611b9b600883611614565b9150611ba682611b67565b602082019050919050565b5f6020820190508181035f830152611bc881611b8f565b9050919050565b7f496e76616c6964206164647265737300000000000000000000000000000000005f82015250565b5f611c03600f83611614565b9150611c0e82611bcf565b602082019050919050565b5f6020820190508181035f830152611c3081611bf7565b9050919050565b5f611c4182611723565b9150611c4c83611723565b9250828201905080821115611c6457611c63611909565b5b92915050565b7f4578636565647320676f616c00000000000000000000000000000000000000005f82015250565b5f611c9e600c83611614565b9150611ca982611c6a565b602082019050919050565b5f6020820190508181035f830152611ccb81611c92565b9050919050565b5f606082019050611ce55f8301866117a9565b611cf260208301856117a9565b611cff604083018461172c565b949350505050565b7f53706f6e736f72206e6f742073657400000000000000000000000000000000005f82015250565b5f611d3b600f83611614565b9150611d4682611d07565b602082019050919050565b5f6020820190508181035f830152611d6881611d2f565b905091905056fea2646970667358221220edaca95dbc2f9482d08282dafd9fc11485e479d82019c175da33b5fd189ac6a664736f6c634300081f0033",
					"opcodes": "PUSH1 0x80 PUSH1 0x40 MSTORE CALLVALUE DUP1 ISZERO PUSH2 0xF JUMPI PUSH0 PUSH0 REVERT JUMPDEST POP PUSH1 0x40 MLOAD PUSH2 0x212C CODESIZE SUB DUP1 PUSH2 0x212C DUP4 CODECOPY DUP2 DUP2 ADD PUSH1 0x40 MSTORE DUP2 ADD SWAP1 PUSH2 0x31 SWAP2 SWAP1 PUSH2 0x22F JUMP JUMPDEST PUSH0 PUSH20 0xFFFFFFFFFFFFFFFFFFFFFFFFFFFFFFFFFFFFFFFF AND DUP3 PUSH20 0xFFFFFFFFFFFFFFFFFFFFFFFFFFFFFFFFFFFFFFFF AND SUB PUSH2 0x9F JUMPI PUSH1 0x40 MLOAD PUSH32 0x8C379A000000000000000000000000000000000000000000000000000000000 DUP2 MSTORE PUSH1 0x4 ADD PUSH2 0x96 SWAP1 PUSH2 0x2C7 JUMP JUMPDEST PUSH1 0x40 MLOAD DUP1 SWAP2 SUB SWAP1 REVERT JUMPDEST PUSH0 DUP2 GT PUSH2 0xE1 JUMPI PUSH1 0x40 MLOAD PUSH32 0x8C379A000000000000000000000000000000000000000000000000000000000 DUP2 MSTORE PUSH1 0x4 ADD PUSH2 0xD8 SWAP1 PUSH2 0x32F JUMP JUMPDEST PUSH1 0x40 MLOAD DUP1 SWAP2 SUB SWAP1 REVERT JUMPDEST CALLER PUSH0 PUSH0 PUSH2 0x100 EXP DUP2 SLOAD DUP2 PUSH20 0xFFFFFFFFFFFFFFFFFFFFFFFFFFFFFFFFFFFFFFFF MUL NOT AND SWAP1 DUP4 PUSH20 0xFFFFFFFFFFFFFFFFFFFFFFFFFFFFFFFFFFFFFFFF AND MUL OR SWAP1 SSTORE POP DUP2 PUSH1 0x1 PUSH0 PUSH2 0x100 EXP DUP2 SLOAD DUP2 PUSH20 0xFFFFFFFFFFFFFFFFFFFFFFFFFFFFFFFFFFFFFFFF MUL NOT AND SWAP1 DUP4 PUSH20 0xFFFFFFFFFFFFFFFFFFFFFFFFFFFFFFFFFFFFFFFF AND MUL OR SWAP1 SSTORE POP DUP1 PUSH1 0x4 DUP2 SWAP1 SSTORE POP PUSH0 PUSH1 0x5 DUP2 SWAP1 SSTORE POP PUSH0 PUSH1 0x6 PUSH0 PUSH2 0x100 EXP DUP2 SLOAD DUP2 PUSH1 0xFF MUL NOT AND SWAP1 DUP4 PUSH1 0x2 DUP2 GT ISZERO PUSH2 0x192 JUMPI PUSH2 0x191 PUSH2 0x34D JUMP JUMPDEST JUMPDEST MUL OR SWAP1 SSTORE POP POP POP PUSH2 0x37A JUMP JUMPDEST PUSH0 PUSH0 REVERT JUMPDEST PUSH0 PUSH20 0xFFFFFFFFFFFFFFFFFFFFFFFFFFFFFFFFFFFFFFFF DUP3 AND SWAP1 POP SWAP2 SWAP1 POP JUMP JUMPDEST PUSH0 PUSH2 0x1CB DUP3 PUSH2 0x1A2 JUMP JUMPDEST SWAP1 POP SWAP2 SWAP1 POP JUMP JUMPDEST PUSH2 0x1DB DUP2 PUSH2 0x1C1 JUMP JUMPDEST DUP2 EQ PUSH2 0x1E5 JUMPI PUSH0 PUSH0 REVERT JUMPDEST POP JUMP JUMPDEST PUSH0 DUP2 MLOAD SWAP1 POP PUSH2 0x1F6 DUP2 PUSH2 0x1D2 JUMP JUMPDEST SWAP3 SWAP2 POP POP JUMP JUMPDEST PUSH0 DUP2 SWAP1 POP SWAP2 SWAP1 POP JUMP JUMPDEST PUSH2 0x20E DUP2 PUSH2 0x1FC JUMP JUMPDEST DUP2 EQ PUSH2 0x218 JUMPI PUSH0 PUSH0 REVERT JUMPDEST POP JUMP JUMPDEST PUSH0 DUP2 MLOAD SWAP1 POP PUSH2 0x229 DUP2 PUSH2 0x205 JUMP JUMPDEST SWAP3 SWAP2 POP POP JUMP JUMPDEST PUSH0 PUSH0 PUSH1 0x40 DUP4 DUP6 SUB SLT ISZERO PUSH2 0x245 JUMPI PUSH2 0x244 PUSH2 0x19E JUMP JUMPDEST JUMPDEST PUSH0 PUSH2 0x252 DUP6 DUP3 DUP7 ADD PUSH2 0x1E8 JUMP JUMPDEST SWAP3 POP POP PUSH1 0x20 PUSH2 0x263 DUP6 DUP3 DUP7 ADD PUSH2 0x21B JUMP JUMPDEST SWAP2 POP POP SWAP3 POP SWAP3 SWAP1 POP JUMP JUMPDEST PUSH0 DUP3 DUP3 MSTORE PUSH1 0x20 DUP3 ADD SWAP1 POP SWAP3 SWAP2 POP POP JUMP JUMPDEST PUSH32 0x496E76616C696420746F6B656E00000000000000000000000000000000000000 PUSH0 DUP3 ADD MSTORE POP JUMP JUMPDEST PUSH0 PUSH2 0x2B1 PUSH1 0xD DUP4 PUSH2 0x26D JUMP JUMPDEST SWAP2 POP PUSH2 0x2BC DUP3 PUSH2 0x27D JUMP JUMPDEST PUSH1 0x20 DUP3 ADD SWAP1 POP SWAP2 SWAP1 POP JUMP JUMPDEST PUSH0 PUSH1 0x20 DUP3 ADD SWAP1 POP DUP2 DUP2 SUB PUSH0 DUP4 ADD MSTORE PUSH2 0x2DE DUP2 PUSH2 0x2A5 JUMP JUMPDEST SWAP1 POP SWAP2 SWAP1 POP JUMP JUMPDEST PUSH32 0x496E76616C696420676F616C0000000000000000000000000000000000000000 PUSH0 DUP3 ADD MSTORE POP JUMP JUMPDEST PUSH0 PUSH2 0x319 PUSH1 0xC DUP4 PUSH2 0x26D JUMP JUMPDEST SWAP2 POP PUSH2 0x324 DUP3 PUSH2 0x2E5 JUMP JUMPDEST PUSH1 0x20 DUP3 ADD SWAP1 POP SWAP2 SWAP1 POP JUMP JUMPDEST PUSH0 PUSH1 0x20 DUP3 ADD SWAP1 POP DUP2 DUP2 SUB PUSH0 DUP4 ADD MSTORE PUSH2 0x346 DUP2 PUSH2 0x30D JUMP JUMPDEST SWAP1 POP SWAP2 SWAP1 POP JUMP JUMPDEST PUSH32 0x4E487B7100000000000000000000000000000000000000000000000000000000 PUSH0 MSTORE PUSH1 0x21 PUSH1 0x4 MSTORE PUSH1 0x24 PUSH0 REVERT JUMPDEST PUSH2 0x1DA5 DUP1 PUSH2 0x387 PUSH0 CODECOPY PUSH0 RETURN INVALID PUSH1 0x80 PUSH1 0x40 MSTORE CALLVALUE DUP1 ISZERO PUSH2 0xF JUMPI PUSH0 PUSH0 REVERT JUMPDEST POP PUSH1 0x4 CALLDATASIZE LT PUSH2 0x109 JUMPI PUSH0 CALLDATALOAD PUSH1 0xE0 SHR DUP1 PUSH4 0x7A3A0E84 GT PUSH2 0xA0 JUMPI DUP1 PUSH4 0xC1CBBCA7 GT PUSH2 0x6F JUMPI DUP1 PUSH4 0xC1CBBCA7 EQ PUSH2 0x281 JUMPI DUP1 PUSH4 0xD69F84FD EQ PUSH2 0x29D JUMPI DUP1 PUSH4 0xDABAAE11 EQ PUSH2 0x2A7 JUMPI DUP1 PUSH4 0xDD682C3C EQ PUSH2 0x2C5 JUMPI DUP1 PUSH4 0xF441B1C8 EQ PUSH2 0x2E1 JUMPI PUSH2 0x109 JUMP JUMPDEST DUP1 PUSH4 0x7A3A0E84 EQ PUSH2 0x20B JUMPI DUP1 PUSH4 0x8DA5CB5B EQ PUSH2 0x229 JUMPI DUP1 PUSH4 0x9D76EA58 EQ PUSH2 0x247 JUMPI DUP1 PUSH4 0xB90A52C6 EQ PUSH2 0x265 JUMPI PUSH2 0x109 JUMP JUMPDEST DUP1 PUSH4 0x42E94C90 GT PUSH2 0xDC JUMPI DUP1 PUSH4 0x42E94C90 EQ PUSH2 0x195 JUMPI DUP1 PUSH4 0x511569A6 EQ PUSH2 0x1C5 JUMPI DUP1 PUSH4 0x5F23C4C6 EQ PUSH2 0x1E3 JUMPI DUP1 PUSH4 0x6AEEFE10 EQ PUSH2 0x1ED JUMPI PUSH2 0x109 JUMP JUMPDEST DUP1 PUSH4 0xC3F6ACF EQ PUSH2 0x10D JUMPI DUP1 PUSH4 0x1865C57D EQ PUSH2 0x12B JUMPI DUP1 PUSH4 0x21EFF7FC EQ PUSH2 0x149 JUMPI DUP1 PUSH4 0x2E1A7D4D EQ PUSH2 0x179 JUMPI JUMPDEST PUSH0 PUSH0 REVERT JUMPDEST PUSH2 0x115 PUSH2 0x2FF JUMP JUMPDEST PUSH1 0x40 MLOAD PUSH2 0x122 SWAP2 SWAP1 PUSH2 0x15F1 JUMP JUMPDEST PUSH1 0x40 MLOAD DUP1 SWAP2 SUB SWAP1 RETURN JUMPDEST PUSH2 0x133 PUSH2 0x311 JUMP JUMPDEST PUSH1 0x40 MLOAD PUSH2 0x140 SWAP2 SWAP1 PUSH2 0x167A JUMP JUMPDEST PUSH1 0x40 MLOAD DUP1 SWAP2 SUB SWAP1 RETURN JUMPDEST PUSH2 0x163 PUSH1 0x4 DUP1 CALLDATASIZE SUB DUP2 ADD SWAP1 PUSH2 0x15E SWAP2 SWAP1 PUSH2 0x16F8 JUMP JUMPDEST PUSH2 0x43C JUMP JUMPDEST PUSH1 0x40 MLOAD PUSH2 0x170 SWAP2 SWAP1 PUSH2 0x173B JUMP JUMPDEST PUSH1 0x40 MLOAD DUP1 SWAP2 SUB SWAP1 RETURN JUMPDEST PUSH2 0x193 PUSH1 0x4 DUP1 CALLDATASIZE SUB DUP2 ADD SWAP1 PUSH2 0x18E SWAP2 SWAP1 PUSH2 0x177E JUMP JUMPDEST PUSH2 0x482 JUMP JUMPDEST STOP JUMPDEST PUSH2 0x1AF PUSH1 0x4 DUP1 CALLDATASIZE SUB DUP2 ADD SWAP1 PUSH2 0x1AA SWAP2 SWAP1 PUSH2 0x16F8 JUMP JUMPDEST PUSH2 0x756 JUMP JUMPDEST PUSH1 0x40 MLOAD PUSH2 0x1BC SWAP2 SWAP1 PUSH2 0x173B JUMP JUMPDEST PUSH1 0x40 MLOAD DUP1 SWAP2 SUB SWAP1 RETURN JUMPDEST PUSH2 0x1CD PUSH2 0x76B JUMP JUMPDEST PUSH1 0x40 MLOAD PUSH2 0x1DA SWAP2 SWAP1 PUSH2 0x17B8 JUMP JUMPDEST PUSH1 0x40 MLOAD DUP1 SWAP2 SUB SWAP1 RETURN JUMPDEST PUSH2 0x1EB PUSH2 0x790 JUMP JUMPDEST STOP JUMPDEST PUSH2 0x1F5 PUSH2 0xB06 JUMP JUMPDEST PUSH1 0x40 MLOAD PUSH2 0x202 SWAP2 SWAP1 PUSH2 0x17B8 JUMP JUMPDEST PUSH1 0x40 MLOAD DUP1 SWAP2 SUB SWAP1 RETURN JUMPDEST PUSH2 0x213 PUSH2 0xB2B JUMP JUMPDEST PUSH1 0x40 MLOAD PUSH2 0x220 SWAP2 SWAP1 PUSH2 0x173B JUMP JUMPDEST PUSH1 0x40 MLOAD DUP1 SWAP2 SUB SWAP1 RETURN JUMPDEST PUSH2 0x231 PUSH2 0xB31 JUMP JUMPDEST PUSH1 0x40 MLOAD PUSH2 0x23E SWAP2 SWAP1 PUSH2 0x17B8 JUMP JUMPDEST PUSH1 0x40 MLOAD DUP1 SWAP2 SUB SWAP1 RETURN JUMPDEST PUSH2 0x24F PUSH2 0xB55 JUMP JUMPDEST PUSH1 0x40 MLOAD PUSH2 0x25C SWAP2 SWAP1 PUSH2 0x17B8 JUMP JUMPDEST PUSH1 0x40 MLOAD DUP1 SWAP2 SUB SWAP1 RETURN JUMPDEST PUSH2 0x27F PUSH1 0x4 DUP1 CALLDATASIZE SUB DUP2 ADD SWAP1 PUSH2 0x27A SWAP2 SWAP1 PUSH2 0x16F8 JUMP JUMPDEST PUSH2 0xB7A JUMP JUMPDEST STOP JUMPDEST PUSH2 0x29B PUSH1 0x4 DUP1 CALLDATASIZE SUB DUP2 ADD SWAP1 PUSH2 0x296 SWAP2 SWAP1 PUSH2 0x177E JUMP JUMPDEST PUSH2 0xCB9 JUMP JUMPDEST STOP JUMPDEST PUSH2 0x2A5 PUSH2 0x1008 JUMP JUMPDEST STOP JUMPDEST PUSH2 0x2AF PUSH2 0x140F JUMP JUMPDEST PUSH1 0x40 MLOAD PUSH2 0x2BC SWAP2 SWAP1 PUSH2 0x173B JUMP JUMPDEST PUSH1 0x40 MLOAD DUP1 SWAP2 SUB SWAP1 RETURN JUMPDEST PUSH2 0x2DF PUSH1 0x4 DUP1 CALLDATASIZE SUB DUP2 ADD SWAP1 PUSH2 0x2DA SWAP2 SWAP1 PUSH2 0x16F8 JUMP JUMPDEST PUSH2 0x1439 JUMP JUMPDEST STOP JUMPDEST PUSH2 0x2E9 PUSH2 0x1578 JUMP JUMPDEST PUSH1 0x40 MLOAD PUSH2 0x2F6 SWAP2 SWAP1 PUSH2 0x173B JUMP JUMPDEST PUSH1 0x40 MLOAD DUP1 SWAP2 SUB SWAP1 RETURN JUMPDEST PUSH1 0x6 PUSH0 SWAP1 SLOAD SWAP1 PUSH2 0x100 EXP SWAP1 DIV PUSH1 0xFF AND DUP2 JUMP JUMPDEST PUSH1 0x60 PUSH0 PUSH1 0x2 DUP2 GT ISZERO PUSH2 0x326 JUMPI PUSH2 0x325 PUSH2 0x157E JUMP JUMPDEST JUMPDEST PUSH1 0x6 PUSH0 SWAP1 SLOAD SWAP1 PUSH2 0x100 EXP SWAP1 DIV PUSH1 0xFF AND PUSH1 0x2 DUP2 GT ISZERO PUSH2 0x347 JUMPI PUSH2 0x346 PUSH2 0x157E JUMP JUMPDEST JUMPDEST SUB PUSH2 0x389 JUMPI PUSH1 0x40 MLOAD DUP1 PUSH1 0x40 ADD PUSH1 0x40 MSTORE DUP1 PUSH1 0xA DUP2 MSTORE PUSH1 0x20 ADD PUSH32 0x6E6566696E616E74617400000000000000000000000000000000000000000000 DUP2 MSTORE POP SWAP1 POP PUSH2 0x439 JUMP JUMPDEST PUSH1 0x1 PUSH1 0x2 DUP2 GT ISZERO PUSH2 0x39D JUMPI PUSH2 0x39C PUSH2 0x157E JUMP JUMPDEST JUMPDEST PUSH1 0x6 PUSH0 SWAP1 SLOAD SWAP1 PUSH2 0x100 EXP SWAP1 DIV PUSH1 0xFF AND PUSH1 0x2 DUP2 GT ISZERO PUSH2 0x3BE JUMPI PUSH2 0x3BD PUSH2 0x157E JUMP JUMPDEST JUMPDEST SUB PUSH2 0x400 JUMPI PUSH1 0x40 MLOAD DUP1 PUSH1 0x40 ADD PUSH1 0x40 MSTORE DUP1 PUSH1 0xB DUP2 MSTORE PUSH1 0x20 ADD PUSH32 0x70726566696E616E746174000000000000000000000000000000000000000000 DUP2 MSTORE POP SWAP1 POP PUSH2 0x439 JUMP JUMPDEST PUSH1 0x40 MLOAD DUP1 PUSH1 0x40 ADD PUSH1 0x40 MSTORE DUP1 PUSH1 0x8 DUP2 MSTORE PUSH1 0x20 ADD PUSH32 0x66696E616E746174000000000000000000000000000000000000000000000000 DUP2 MSTORE POP SWAP1 POP JUMPDEST SWAP1 JUMP JUMPDEST PUSH0 PUSH1 0x7 PUSH0 DUP4 PUSH20 0xFFFFFFFFFFFFFFFFFFFFFFFFFFFFFFFFFFFFFFFF AND PUSH20 0xFFFFFFFFFFFFFFFFFFFFFFFFFFFFFFFFFFFFFFFF AND DUP2 MSTORE PUSH1 0x20 ADD SWAP1 DUP2 MSTORE PUSH1 0x20 ADD PUSH0 KECCAK256 SLOAD SWAP1 POP SWAP2 SWAP1 POP JUMP JUMPDEST PUSH0 DUP1 PUSH1 0x2 DUP2 GT ISZERO PUSH2 0x496 JUMPI PUSH2 0x495 PUSH2 0x157E JUMP JUMPDEST JUMPDEST PUSH1 0x6 PUSH0 SWAP1 SLOAD SWAP1 PUSH2 0x100 EXP SWAP1 DIV PUSH1 0xFF AND PUSH1 0x2 DUP2 GT ISZERO PUSH2 0x4B7 JUMPI PUSH2 0x4B6 PUSH2 0x157E JUMP JUMPDEST JUMPDEST EQ PUSH2 0x4F7 JUMPI PUSH1 0x40 MLOAD PUSH32 0x8C379A000000000000000000000000000000000000000000000000000000000 DUP2 MSTORE PUSH1 0x4 ADD PUSH2 0x4EE SWAP1 PUSH2 0x181B JUMP JUMPDEST PUSH1 0x40 MLOAD DUP1 SWAP2 SUB SWAP1 REVERT JUMPDEST PUSH0 DUP3 GT PUSH2 0x539 JUMPI PUSH1 0x40 MLOAD PUSH32 0x8C379A000000000000000000000000000000000000000000000000000000000 DUP2 MSTORE PUSH1 0x4 ADD PUSH2 0x530 SWAP1 PUSH2 0x1883 JUMP JUMPDEST PUSH1 0x40 MLOAD DUP1 SWAP2 SUB SWAP1 REVERT JUMPDEST DUP2 PUSH1 0x7 PUSH0 CALLER PUSH20 0xFFFFFFFFFFFFFFFFFFFFFFFFFFFFFFFFFFFFFFFF AND PUSH20 0xFFFFFFFFFFFFFFFFFFFFFFFFFFFFFFFFFFFFFFFF AND DUP2 MSTORE PUSH1 0x20 ADD SWAP1 DUP2 MSTORE PUSH1 0x20 ADD PUSH0 KECCAK256 SLOAD LT ISZERO PUSH2 0x5B9 JUMPI PUSH1 0x40 MLOAD PUSH32 0x8C379A000000000000000000000000000000000000000000000000000000000 DUP2 MSTORE PUSH1 0x4 ADD PUSH2 0x5B0 SWAP1 PUSH2 0x18EB JUMP JUMPDEST PUSH1 0x40 MLOAD DUP1 SWAP2 SUB SWAP1 REVERT JUMPDEST DUP2 PUSH1 0x7 PUSH0 CALLER PUSH20 0xFFFFFFFFFFFFFFFFFFFFFFFFFFFFFFFFFFFFFFFF AND PUSH20 0xFFFFFFFFFFFFFFFFFFFFFFFFFFFFFFFFFFFFFFFF AND DUP2 MSTORE PUSH1 0x20 ADD SWAP1 DUP2 MSTORE PUSH1 0x20 ADD PUSH0 KECCAK256 PUSH0 DUP3 DUP3 SLOAD PUSH2 0x605 SWAP2 SWAP1 PUSH2 0x1936 JUMP JUMPDEST SWAP3 POP POP DUP2 SWAP1 SSTORE POP DUP2 PUSH1 0x5 PUSH0 DUP3 DUP3 SLOAD PUSH2 0x61D SWAP2 SWAP1 PUSH2 0x1936 JUMP JUMPDEST SWAP3 POP POP DUP2 SWAP1 SSTORE POP PUSH0 PUSH1 0x1 PUSH0 SWAP1 SLOAD SWAP1 PUSH2 0x100 EXP SWAP1 DIV PUSH20 0xFFFFFFFFFFFFFFFFFFFFFFFFFFFFFFFFFFFFFFFF AND SWAP1 POP DUP1 PUSH20 0xFFFFFFFFFFFFFFFFFFFFFFFFFFFFFFFFFFFFFFFF AND PUSH4 0xA9059CBB CALLER DUP6 PUSH1 0x40 MLOAD DUP4 PUSH4 0xFFFFFFFF AND PUSH1 0xE0 SHL DUP2 MSTORE PUSH1 0x4 ADD PUSH2 0x684 SWAP3 SWAP2 SWAP1 PUSH2 0x1969 JUMP JUMPDEST PUSH1 0x20 PUSH1 0x40 MLOAD DUP1 DUP4 SUB DUP2 PUSH0 DUP8 GAS CALL ISZERO DUP1 ISZERO PUSH2 0x6A0 JUMPI RETURNDATASIZE PUSH0 PUSH0 RETURNDATACOPY RETURNDATASIZE PUSH0 REVERT JUMPDEST POP POP POP POP PUSH1 0x40 MLOAD RETURNDATASIZE PUSH1 0x1F NOT PUSH1 0x1F DUP3 ADD AND DUP3 ADD DUP1 PUSH1 0x40 MSTORE POP DUP2 ADD SWAP1 PUSH2 0x6C4 SWAP2 SWAP1 PUSH2 0x19C5 JUMP JUMPDEST PUSH2 0x703 JUMPI PUSH1 0x40 MLOAD PUSH32 0x8C379A000000000000000000000000000000000000000000000000000000000 DUP2 MSTORE PUSH1 0x4 ADD PUSH2 0x6FA SWAP1 PUSH2 0x1A3A JUMP JUMPDEST PUSH1 0x40 MLOAD DUP1 SWAP2 SUB SWAP1 REVERT JUMPDEST CALLER PUSH20 0xFFFFFFFFFFFFFFFFFFFFFFFFFFFFFFFFFFFFFFFF AND PUSH32 0xBC158BB64F05D6383AEA69BBB0B20C1BBF4B7A18F63359C5649B7C39E29D3884 DUP5 PUSH1 0x40 MLOAD PUSH2 0x749 SWAP2 SWAP1 PUSH2 0x173B JUMP JUMPDEST PUSH1 0x40 MLOAD DUP1 SWAP2 SUB SWAP1 LOG2 POP POP POP JUMP JUMPDEST PUSH1 0x7 PUSH1 0x20 MSTORE DUP1 PUSH0 MSTORE PUSH1 0x40 PUSH0 KECCAK256 PUSH0 SWAP2 POP SWAP1 POP SLOAD DUP2 JUMP JUMPDEST PUSH1 0x3 PUSH0 SWAP1 SLOAD SWAP1 PUSH2 0x100 EXP SWAP1 DIV PUSH20 0xFFFFFFFFFFFFFFFFFFFFFFFFFFFFFFFFFFFFFFFF AND DUP2 JUMP JUMPDEST PUSH0 PUSH0 SWAP1 SLOAD SWAP1 PUSH2 0x100 EXP SWAP1 DIV PUSH20 0xFFFFFFFFFFFFFFFFFFFFFFFFFFFFFFFFFFFFFFFF AND PUSH20 0xFFFFFFFFFFFFFFFFFFFFFFFFFFFFFFFFFFFFFFFF AND CALLER PUSH20 0xFFFFFFFFFFFFFFFFFFFFFFFFFFFFFFFFFFFFFFFF AND EQ PUSH2 0x81E JUMPI PUSH1 0x40 MLOAD PUSH32 0x8C379A000000000000000000000000000000000000000000000000000000000 DUP2 MSTORE PUSH1 0x4 ADD PUSH2 0x815 SWAP1 PUSH2 0x1AA2 JUMP JUMPDEST PUSH1 0x40 MLOAD DUP1 SWAP2 SUB SWAP1 REVERT JUMPDEST PUSH1 0x2 DUP1 PUSH1 0x2 DUP2 GT ISZERO PUSH2 0x833 JUMPI PUSH2 0x832 PUSH2 0x157E JUMP JUMPDEST JUMPDEST PUSH1 0x6 PUSH0 SWAP1 SLOAD SWAP1 PUSH2 0x100 EXP SWAP1 DIV PUSH1 0xFF AND PUSH1 0x2 DUP2 GT ISZERO PUSH2 0x854 JUMPI PUSH2 0x853 PUSH2 0x157E JUMP JUMPDEST JUMPDEST EQ PUSH2 0x894 JUMPI PUSH1 0x40 MLOAD PUSH32 0x8C379A000000000000000000000000000000000000000000000000000000000 DUP2 MSTORE PUSH1 0x4 ADD PUSH2 0x88B SWAP1 PUSH2 0x181B JUMP JUMPDEST PUSH1 0x40 MLOAD DUP1 SWAP2 SUB SWAP1 REVERT JUMPDEST PUSH0 PUSH20 0xFFFFFFFFFFFFFFFFFFFFFFFFFFFFFFFFFFFFFFFF AND PUSH1 0x3 PUSH0 SWAP1 SLOAD SWAP1 PUSH2 0x100 EXP SWAP1 DIV PUSH20 0xFFFFFFFFFFFFFFFFFFFFFFFFFFFFFFFFFFFFFFFF AND PUSH20 0xFFFFFFFFFFFFFFFFFFFFFFFFFFFFFFFFFFFFFFFF AND SUB PUSH2 0x923 JUMPI PUSH1 0x40 MLOAD PUSH32 0x8C379A000000000000000000000000000000000000000000000000000000000 DUP2 MSTORE PUSH1 0x4 ADD PUSH2 0x91A SWAP1 PUSH2 0x1B0A JUMP JUMPDEST PUSH1 0x40 MLOAD DUP1 SWAP2 SUB SWAP1 REVERT JUMPDEST PUSH0 PUSH1 0x1 PUSH0 SWAP1 SLOAD SWAP1 PUSH2 0x100 EXP SWAP1 DIV PUSH20 0xFFFFFFFFFFFFFFFFFFFFFFFFFFFFFFFFFFFFFFFF AND PUSH20 0xFFFFFFFFFFFFFFFFFFFFFFFFFFFFFFFFFFFFFFFF AND PUSH4 0x70A08231 ADDRESS PUSH1 0x40 MLOAD DUP3 PUSH4 0xFFFFFFFF AND PUSH1 0xE0 SHL DUP2 MSTORE PUSH1 0x4 ADD PUSH2 0x97E SWAP2 SWAP1 PUSH2 0x17B8 JUMP JUMPDEST PUSH1 0x20 PUSH1 0x40 MLOAD DUP1 DUP4 SUB DUP2 DUP7 GAS STATICCALL ISZERO DUP1 ISZERO PUSH2 0x999 JUMPI RETURNDATASIZE PUSH0 PUSH0 RETURNDATACOPY RETURNDATASIZE PUSH0 REVERT JUMPDEST POP POP POP POP PUSH1 0x40 MLOAD RETURNDATASIZE PUSH1 0x1F NOT PUSH1 0x1F DUP3 ADD AND DUP3 ADD DUP1 PUSH1 0x40 MSTORE POP DUP2 ADD SWAP1 PUSH2 0x9BD SWAP2 SWAP1 PUSH2 0x1B3C JUMP JUMPDEST SWAP1 POP PUSH0 DUP2 GT PUSH2 0xA01 JUMPI PUSH1 0x40 MLOAD PUSH32 0x8C379A000000000000000000000000000000000000000000000000000000000 DUP2 MSTORE PUSH1 0x4 ADD PUSH2 0x9F8 SWAP1 PUSH2 0x1BB1 JUMP JUMPDEST PUSH1 0x40 MLOAD DUP1 SWAP2 SUB SWAP1 REVERT JUMPDEST PUSH0 PUSH1 0x1 PUSH0 SWAP1 SLOAD SWAP1 PUSH2 0x100 EXP SWAP1 DIV PUSH20 0xFFFFFFFFFFFFFFFFFFFFFFFFFFFFFFFFFFFFFFFF AND SWAP1 POP DUP1 PUSH20 0xFFFFFFFFFFFFFFFFFFFFFFFFFFFFFFFFFFFFFFFF AND PUSH4 0xA9059CBB PUSH1 0x3 PUSH0 SWAP1 SLOAD SWAP1 PUSH2 0x100 EXP SWAP1 DIV PUSH20 0xFFFFFFFFFFFFFFFFFFFFFFFFFFFFFFFFFFFFFFFF AND DUP5 PUSH1 0x40 MLOAD DUP4 PUSH4 0xFFFFFFFF AND PUSH1 0xE0 SHL DUP2 MSTORE PUSH1 0x4 ADD PUSH2 0xA82 SWAP3 SWAP2 SWAP1 PUSH2 0x1969 JUMP JUMPDEST PUSH1 0x20 PUSH1 0x40 MLOAD DUP1 DUP4 SUB DUP2 PUSH0 DUP8 GAS CALL ISZERO DUP1 ISZERO PUSH2 0xA9E JUMPI RETURNDATASIZE PUSH0 PUSH0 RETURNDATACOPY RETURNDATASIZE PUSH0 REVERT JUMPDEST POP POP POP POP PUSH1 0x40 MLOAD RETURNDATASIZE PUSH1 0x1F NOT PUSH1 0x1F DUP3 ADD AND DUP3 ADD DUP1 PUSH1 0x40 MSTORE POP DUP2 ADD SWAP1 PUSH2 0xAC2 SWAP2 SWAP1 PUSH2 0x19C5 JUMP JUMPDEST PUSH2 0xB01 JUMPI PUSH1 0x40 MLOAD PUSH32 0x8C379A000000000000000000000000000000000000000000000000000000000 DUP2 MSTORE PUSH1 0x4 ADD PUSH2 0xAF8 SWAP1 PUSH2 0x1A3A JUMP JUMPDEST PUSH1 0x40 MLOAD DUP1 SWAP2 SUB SWAP1 REVERT JUMPDEST POP POP POP JUMP JUMPDEST PUSH1 0x2 PUSH0 SWAP1 SLOAD SWAP1 PUSH2 0x100 EXP SWAP1 DIV PUSH20 0xFFFFFFFFFFFFFFFFFFFFFFFFFFFFFFFFFFFFFFFF AND DUP2 JUMP JUMPDEST PUSH1 0x4 SLOAD DUP2 JUMP JUMPDEST PUSH0 PUSH0 SWAP1 SLOAD SWAP1 PUSH2 0x100 EXP SWAP1 DIV PUSH20 0xFFFFFFFFFFFFFFFFFFFFFFFFFFFFFFFFFFFFFFFF AND DUP2 JUMP JUMPDEST PUSH1 0x1 PUSH0 SWAP1 SLOAD SWAP1 PUSH2 0x100 EXP SWAP1 DIV PUSH20 0xFFFFFFFFFFFFFFFFFFFFFFFFFFFFFFFFFFFFFFFF AND DUP2 JUMP JUMPDEST PUSH0 PUSH0 SWAP1 SLOAD SWAP1 PUSH2 0x100 EXP SWAP1 DIV PUSH20 0xFFFFFFFFFFFFFFFFFFFFFFFFFFFFFFFFFFFFFFFF AND PUSH20 0xFFFFFFFFFFFFFFFFFFFFFFFFFFFFFFFFFFFFFFFF AND CALLER PUSH20 0xFFFFFFFFFFFFFFFFFFFFFFFFFFFFFFFFFFFFFFFF AND EQ PUSH2 0xC08 JUMPI PUSH1 0x40 MLOAD PUSH32 0x8C379A000000000000000000000000000000000000000000000000000000000 DUP2 MSTORE PUSH1 0x4 ADD PUSH2 0xBFF SWAP1 PUSH2 0x1AA2 JUMP JUMPDEST PUSH1 0x40 MLOAD DUP1 SWAP2 SUB SWAP1 REVERT JUMPDEST PUSH0 PUSH20 0xFFFFFFFFFFFFFFFFFFFFFFFFFFFFFFFFFFFFFFFF AND DUP2 PUSH20 0xFFFFFFFFFFFFFFFFFFFFFFFFFFFFFFFFFFFFFFFF AND SUB PUSH2 0xC76 JUMPI PUSH1 0x40 MLOAD PUSH32 0x8C379A000000000000000000000000000000000000000000000000000000000 DUP2 MSTORE PUSH1 0x4 ADD PUSH2 0xC6D SWAP1 PUSH2 0x1C19 JUMP JUMPDEST PUSH1 0x40 MLOAD DUP1 SWAP2 SUB SWAP1 REVERT JUMPDEST DUP1 PUSH1 0x3 PUSH0 PUSH2 0x100 EXP DUP2 SLOAD DUP2 PUSH20 0xFFFFFFFFFFFFFFFFFFFFFFFFFFFFFFFFFFFFFFFF MUL NOT AND SWAP1 DUP4 PUSH20 0xFFFFFFFFFFFFFFFFFFFFFFFFFFFFFFFFFFFFFFFF AND MUL OR SWAP1 SSTORE POP POP JUMP JUMPDEST PUSH0 DUP1 PUSH1 0x2 DUP2 GT ISZERO PUSH2 0xCCD JUMPI PUSH2 0xCCC PUSH2 0x157E JUMP JUMPDEST JUMPDEST PUSH1 0x6 PUSH0 SWAP1 SLOAD SWAP1 PUSH2 0x100 EXP SWAP1 DIV PUSH1 0xFF AND PUSH1 0x2 DUP2 GT ISZERO PUSH2 0xCEE JUMPI PUSH2 0xCED PUSH2 0x157E JUMP JUMPDEST JUMPDEST EQ PUSH2 0xD2E JUMPI PUSH1 0x40 MLOAD PUSH32 0x8C379A000000000000000000000000000000000000000000000000000000000 DUP2 MSTORE PUSH1 0x4 ADD PUSH2 0xD25 SWAP1 PUSH2 0x181B JUMP JUMPDEST PUSH1 0x40 MLOAD DUP1 SWAP2 SUB SWAP1 REVERT JUMPDEST PUSH0 DUP3 GT PUSH2 0xD70 JUMPI PUSH1 0x40 MLOAD PUSH32 0x8C379A000000000000000000000000000000000000000000000000000000000 DUP2 MSTORE PUSH1 0x4 ADD PUSH2 0xD67 SWAP1 PUSH2 0x1883 JUMP JUMPDEST PUSH1 0x40 MLOAD DUP1 SWAP2 SUB SWAP1 REVERT JUMPDEST PUSH1 0x4 SLOAD DUP3 PUSH1 0x5 SLOAD PUSH2 0xD81 SWAP2 SWAP1 PUSH2 0x1C37 JUMP JUMPDEST GT ISZERO PUSH2 0xDC2 JUMPI PUSH1 0x40 MLOAD PUSH32 0x8C379A000000000000000000000000000000000000000000000000000000000 DUP2 MSTORE PUSH1 0x4 ADD PUSH2 0xDB9 SWAP1 PUSH2 0x1CB4 JUMP JUMPDEST PUSH1 0x40 MLOAD DUP1 SWAP2 SUB SWAP1 REVERT JUMPDEST PUSH0 PUSH1 0x1 PUSH0 SWAP1 SLOAD SWAP1 PUSH2 0x100 EXP SWAP1 DIV PUSH20 0xFFFFFFFFFFFFFFFFFFFFFFFFFFFFFFFFFFFFFFFF AND SWAP1 POP DUP1 PUSH20 0xFFFFFFFFFFFFFFFFFFFFFFFFFFFFFFFFFFFFFFFF AND PUSH4 0x23B872DD CALLER ADDRESS DUP7 PUSH1 0x40 MLOAD DUP5 PUSH4 0xFFFFFFFF AND PUSH1 0xE0 SHL DUP2 MSTORE PUSH1 0x4 ADD PUSH2 0xE24 SWAP4 SWAP3 SWAP2 SWAP1 PUSH2 0x1CD2 JUMP JUMPDEST PUSH1 0x20 PUSH1 0x40 MLOAD DUP1 DUP4 SUB DUP2 PUSH0 DUP8 GAS CALL ISZERO DUP1 ISZERO PUSH2 0xE40 JUMPI RETURNDATASIZE PUSH0 PUSH0 RETURNDATACOPY RETURNDATASIZE PUSH0 REVERT JUMPDEST POP POP POP POP PUSH1 0x40 MLOAD RETURNDATASIZE PUSH1 0x1F NOT PUSH1 0x1F DUP3 ADD AND DUP3 ADD DUP1 PUSH1 0x40 MSTORE POP DUP2 ADD SWAP1 PUSH2 0xE64 SWAP2 SWAP1 PUSH2 0x19C5 JUMP JUMPDEST PUSH2 0xEA3 JUMPI PUSH1 0x40 MLOAD PUSH32 0x8C379A000000000000000000000000000000000000000000000000000000000 DUP2 MSTORE PUSH1 0x4 ADD PUSH2 0xE9A SWAP1 PUSH2 0x1A3A JUMP JUMPDEST PUSH1 0x40 MLOAD DUP1 SWAP2 SUB SWAP1 REVERT JUMPDEST DUP3 PUSH1 0x7 PUSH0 CALLER PUSH20 0xFFFFFFFFFFFFFFFFFFFFFFFFFFFFFFFFFFFFFFFF AND PUSH20 0xFFFFFFFFFFFFFFFFFFFFFFFFFFFFFFFFFFFFFFFF AND DUP2 MSTORE PUSH1 0x20 ADD SWAP1 DUP2 MSTORE PUSH1 0x20 ADD PUSH0 KECCAK256 PUSH0 DUP3 DUP3 SLOAD PUSH2 0xEEF SWAP2 SWAP1 PUSH2 0x1C37 JUMP JUMPDEST SWAP3 POP POP DUP2 SWAP1 SSTORE POP DUP3 PUSH1 0x5 PUSH0 DUP3 DUP3 SLOAD PUSH2 0xF07 SWAP2 SWAP1 PUSH2 0x1C37 JUMP JUMPDEST SWAP3 POP POP DUP2 SWAP1 SSTORE POP CALLER PUSH20 0xFFFFFFFFFFFFFFFFFFFFFFFFFFFFFFFFFFFFFFFF AND PUSH32 0x1BB460CCAAF70FBACFEC17A376F8ACBD278C1405590FFCC8EBE4B88DAF4F64AD DUP5 PUSH1 0x40 MLOAD PUSH2 0xF54 SWAP2 SWAP1 PUSH2 0x173B JUMP JUMPDEST PUSH1 0x40 MLOAD DUP1 SWAP2 SUB SWAP1 LOG2 PUSH1 0x4 SLOAD PUSH1 0x5 SLOAD LT PUSH2 0x1003 JUMPI PUSH1 0x1 PUSH1 0x6 PUSH0 PUSH2 0x100 EXP DUP2 SLOAD DUP2 PUSH1 0xFF MUL NOT AND SWAP1 DUP4 PUSH1 0x2 DUP2 GT ISZERO PUSH2 0xF8C JUMPI PUSH2 0xF8B PUSH2 0x157E JUMP JUMPDEST JUMPDEST MUL OR SWAP1 SSTORE POP PUSH32 0xFBFD8AB7C24300FA9888CD721C8565A7DA56759384781283684DCF7C7C4A846B PUSH1 0x5 SLOAD PUSH1 0x40 MLOAD PUSH2 0xFC2 SWAP2 SWAP1 PUSH2 0x173B JUMP JUMPDEST PUSH1 0x40 MLOAD DUP1 SWAP2 SUB SWAP1 LOG1 PUSH32 0x551DC40198CC79684BB69E4931DBA4AC16E4598792EE1C0A5000AEEA366D7BB6 PUSH1 0x1 PUSH1 0x40 MLOAD PUSH2 0xFFA SWAP2 SWAP1 PUSH2 0x15F1 JUMP JUMPDEST PUSH1 0x40 MLOAD DUP1 SWAP2 SUB SWAP1 LOG1 JUMPDEST POP POP POP JUMP JUMPDEST PUSH0 PUSH0 SWAP1 SLOAD SWAP1 PUSH2 0x100 EXP SWAP1 DIV PUSH20 0xFFFFFFFFFFFFFFFFFFFFFFFFFFFFFFFFFFFFFFFF AND PUSH20 0xFFFFFFFFFFFFFFFFFFFFFFFFFFFFFFFFFFFFFFFF AND CALLER PUSH20 0xFFFFFFFFFFFFFFFFFFFFFFFFFFFFFFFFFFFFFFFF AND EQ PUSH2 0x1096 JUMPI PUSH1 0x40 MLOAD PUSH32 0x8C379A000000000000000000000000000000000000000000000000000000000 DUP2 MSTORE PUSH1 0x4 ADD PUSH2 0x108D SWAP1 PUSH2 0x1AA2 JUMP JUMPDEST PUSH1 0x40 MLOAD DUP1 SWAP2 SUB SWAP1 REVERT JUMPDEST PUSH1 0x1 DUP1 PUSH1 0x2 DUP2 GT ISZERO PUSH2 0x10AB JUMPI PUSH2 0x10AA PUSH2 0x157E JUMP JUMPDEST JUMPDEST PUSH1 0x6 PUSH0 SWAP1 SLOAD SWAP1 PUSH2 0x100 EXP SWAP1 DIV PUSH1 0xFF AND PUSH1 0x2 DUP2 GT ISZERO PUSH2 0x10CC JUMPI PUSH2 0x10CB PUSH2 0x157E JUMP JUMPDEST JUMPDEST EQ PUSH2 0x110C JUMPI PUSH1 0x40 MLOAD PUSH32 0x8C379A000000000000000000000000000000000000000000000000000000000 DUP2 MSTORE PUSH1 0x4 ADD PUSH2 0x1103 SWAP1 PUSH2 0x181B JUMP JUMPDEST PUSH1 0x40 MLOAD DUP1 SWAP2 SUB SWAP1 REVERT JUMPDEST PUSH0 PUSH20 0xFFFFFFFFFFFFFFFFFFFFFFFFFFFFFFFFFFFFFFFF AND PUSH1 0x2 PUSH0 SWAP1 SLOAD SWAP1 PUSH2 0x100 EXP SWAP1 DIV PUSH20 0xFFFFFFFFFFFFFFFFFFFFFFFFFFFFFFFFFFFFFFFF AND PUSH20 0xFFFFFFFFFFFFFFFFFFFFFFFFFFFFFFFFFFFFFFFF AND SUB PUSH2 0x119B JUMPI PUSH1 0x40 MLOAD PUSH32 0x8C379A000000000000000000000000000000000000000000000000000000000 DUP2 MSTORE PUSH1 0x4 ADD PUSH2 0x1192 SWAP1 PUSH2 0x1D51 JUMP JUMPDEST PUSH1 0x40 MLOAD DUP1 SWAP2 SUB SWAP1 REVERT JUMPDEST PUSH0 PUSH1 0x1 PUSH0 SWAP1 SLOAD SWAP1 PUSH2 0x100 EXP SWAP1 DIV PUSH20 0xFFFFFFFFFFFFFFFFFFFFFFFFFFFFFFFFFFFFFFFF AND PUSH20 0xFFFFFFFFFFFFFFFFFFFFFFFFFFFFFFFFFFFFFFFF AND PUSH4 0x70A08231 ADDRESS PUSH1 0x40 MLOAD DUP3 PUSH4 0xFFFFFFFF AND PUSH1 0xE0 SHL DUP2 MSTORE PUSH1 0x4 ADD PUSH2 0x11F6 SWAP2 SWAP1 PUSH2 0x17B8 JUMP JUMPDEST PUSH1 0x20 PUSH1 0x40 MLOAD DUP1 DUP4 SUB DUP2 DUP7 GAS STATICCALL ISZERO DUP1 ISZERO PUSH2 0x1211 JUMPI RETURNDATASIZE PUSH0 PUSH0 RETURNDATACOPY RETURNDATASIZE PUSH0 REVERT JUMPDEST POP POP POP POP PUSH1 0x40 MLOAD RETURNDATASIZE PUSH1 0x1F NOT PUSH1 0x1F DUP3 ADD AND DUP3 ADD DUP1 PUSH1 0x40 MSTORE POP DUP2 ADD SWAP1 PUSH2 0x1235 SWAP2 SWAP1 PUSH2 0x1B3C JUMP JUMPDEST SWAP1 POP PUSH1 0x2 PUSH0 SWAP1 SLOAD SWAP1 PUSH2 0x100 EXP SWAP1 DIV PUSH20 0xFFFFFFFFFFFFFFFFFFFFFFFFFFFFFFFFFFFFFFFF AND PUSH20 0xFFFFFFFFFFFFFFFFFFFFFFFFFFFFFFFFFFFFFFFF AND PUSH4 0xC5D9B404 ADDRESS PUSH1 0x40 MLOAD DUP3 PUSH4 0xFFFFFFFF AND PUSH1 0xE0 SHL DUP2 MSTORE PUSH1 0x4 ADD PUSH2 0x1291 SWAP2 SWAP1 PUSH2 0x17B8 JUMP JUMPDEST PUSH0 PUSH1 0x40 MLOAD DUP1 DUP4 SUB DUP2 PUSH0 DUP8 DUP1 EXTCODESIZE ISZERO DUP1 ISZERO PUSH2 0x12A8 JUMPI PUSH0 PUSH0 REVERT JUMPDEST POP GAS CALL ISZERO DUP1 ISZERO PUSH2 0x12BA JUMPI RETURNDATASIZE PUSH0 PUSH0 RETURNDATACOPY RETURNDATASIZE PUSH0 REVERT JUMPDEST POP POP POP POP PUSH0 PUSH1 0x1 PUSH0 SWAP1 SLOAD SWAP1 PUSH2 0x100 EXP SWAP1 DIV PUSH20 0xFFFFFFFFFFFFFFFFFFFFFFFFFFFFFFFFFFFFFFFF AND PUSH20 0xFFFFFFFFFFFFFFFFFFFFFFFFFFFFFFFFFFFFFFFF AND PUSH4 0x70A08231 ADDRESS PUSH1 0x40 MLOAD DUP3 PUSH4 0xFFFFFFFF AND PUSH1 0xE0 SHL DUP2 MSTORE PUSH1 0x4 ADD PUSH2 0x1319 SWAP2 SWAP1 PUSH2 0x17B8 JUMP JUMPDEST PUSH1 0x20 PUSH1 0x40 MLOAD DUP1 DUP4 SUB DUP2 DUP7 GAS STATICCALL ISZERO DUP1 ISZERO PUSH2 0x1334 JUMPI RETURNDATASIZE PUSH0 PUSH0 RETURNDATACOPY RETURNDATASIZE PUSH0 REVERT JUMPDEST POP POP POP POP PUSH1 0x40 MLOAD RETURNDATASIZE PUSH1 0x1F NOT PUSH1 0x1F DUP3 ADD AND DUP3 ADD DUP1 PUSH1 0x40 MSTORE POP DUP2 ADD SWAP1 PUSH2 0x1358 SWAP2 SWAP1 PUSH2 0x1B3C JUMP JUMPDEST SWAP1 POP PUSH0 DUP3 DUP3 PUSH2 0x1367 SWAP2 SWAP1 PUSH2 0x1936 JUMP JUMPDEST SWAP1 POP DUP2 PUSH1 0x5 DUP2 SWAP1 SSTORE POP PUSH1 0x2 PUSH1 0x6 PUSH0 PUSH2 0x100 EXP DUP2 SLOAD DUP2 PUSH1 0xFF MUL NOT AND SWAP1 DUP4 PUSH1 0x2 DUP2 GT ISZERO PUSH2 0x1395 JUMPI PUSH2 0x1394 PUSH2 0x157E JUMP JUMPDEST JUMPDEST MUL OR SWAP1 SSTORE POP PUSH32 0xE39FFE3225753008B3E2BE16D5450BD66FAE7DD9BF04CCCDC2F2218A74F24210 DUP2 PUSH1 0x40 MLOAD PUSH2 0x13C9 SWAP2 SWAP1 PUSH2 0x173B JUMP JUMPDEST PUSH1 0x40 MLOAD DUP1 SWAP2 SUB SWAP1 LOG1 PUSH32 0x551DC40198CC79684BB69E4931DBA4AC16E4598792EE1C0A5000AEEA366D7BB6 PUSH1 0x2 PUSH1 0x40 MLOAD PUSH2 0x1401 SWAP2 SWAP1 PUSH2 0x15F1 JUMP JUMPDEST PUSH1 0x40 MLOAD DUP1 SWAP2 SUB SWAP1 LOG1 POP POP POP POP JUMP JUMPDEST PUSH0 PUSH1 0x4 SLOAD PUSH1 0x5 SLOAD LT PUSH2 0x1423 JUMPI PUSH0 SWAP1 POP PUSH2 0x1436 JUMP JUMPDEST PUSH1 0x5 SLOAD PUSH1 0x4 SLOAD PUSH2 0x1433 SWAP2 SWAP1 PUSH2 0x1936 JUMP JUMPDEST SWAP1 POP JUMPDEST SWAP1 JUMP JUMPDEST PUSH0 PUSH0 SWAP1 SLOAD SWAP1 PUSH2 0x100 EXP SWAP1 DIV PUSH20 0xFFFFFFFFFFFFFFFFFFFFFFFFFFFFFFFFFFFFFFFF AND PUSH20 0xFFFFFFFFFFFFFFFFFFFFFFFFFFFFFFFFFFFFFFFF AND CALLER PUSH20 0xFFFFFFFFFFFFFFFFFFFFFFFFFFFFFFFFFFFFFFFF AND EQ PUSH2 0x14C7 JUMPI PUSH1 0x40 MLOAD PUSH32 0x8C379A000000000000000000000000000000000000000000000000000000000 DUP2 MSTORE PUSH1 0x4 ADD PUSH2 0x14BE SWAP1 PUSH2 0x1AA2 JUMP JUMPDEST PUSH1 0x40 MLOAD DUP1 SWAP2 SUB SWAP1 REVERT JUMPDEST PUSH0 PUSH20 0xFFFFFFFFFFFFFFFFFFFFFFFFFFFFFFFFFFFFFFFF AND DUP2 PUSH20 0xFFFFFFFFFFFFFFFFFFFFFFFFFFFFFFFFFFFFFFFF AND SUB PUSH2 0x1535 JUMPI PUSH1 0x40 MLOAD PUSH32 0x8C379A000000000000000000000000000000000000000000000000000000000 DUP2 MSTORE PUSH1 0x4 ADD PUSH2 0x152C SWAP1 PUSH2 0x1C19 JUMP JUMPDEST PUSH1 0x40 MLOAD DUP1 SWAP2 SUB SWAP1 REVERT JUMPDEST DUP1 PUSH1 0x2 PUSH0 PUSH2 0x100 EXP DUP2 SLOAD DUP2 PUSH20 0xFFFFFFFFFFFFFFFFFFFFFFFFFFFFFFFFFFFFFFFF MUL NOT AND SWAP1 DUP4 PUSH20 0xFFFFFFFFFFFFFFFFFFFFFFFFFFFFFFFFFFFFFFFF AND MUL OR SWAP1 SSTORE POP POP JUMP JUMPDEST PUSH1 0x5 SLOAD DUP2 JUMP JUMPDEST PUSH32 0x4E487B7100000000000000000000000000000000000000000000000000000000 PUSH0 MSTORE PUSH1 0x21 PUSH1 0x4 MSTORE PUSH1 0x24 PUSH0 REVERT JUMPDEST PUSH1 0x3 DUP2 LT PUSH2 0x15BC JUMPI PUSH2 0x15BB PUSH2 0x157E JUMP JUMPDEST JUMPDEST POP JUMP JUMPDEST PUSH0 DUP2 SWAP1 POP PUSH2 0x15CC DUP3 PUSH2 0x15AB JUMP JUMPDEST SWAP2 SWAP1 POP JUMP JUMPDEST PUSH0 PUSH2 0x15DB DUP3 PUSH2 0x15BF JUMP JUMPDEST SWAP1 POP SWAP2 SWAP1 POP JUMP JUMPDEST PUSH2 0x15EB DUP2 PUSH2 0x15D1 JUMP JUMPDEST DUP3 MSTORE POP POP JUMP JUMPDEST PUSH0 PUSH1 0x20 DUP3 ADD SWAP1 POP PUSH2 0x1604 PUSH0 DUP4 ADD DUP5 PUSH2 0x15E2 JUMP JUMPDEST SWAP3 SWAP2 POP POP JUMP JUMPDEST PUSH0 DUP2 MLOAD SWAP1 POP SWAP2 SWAP1 POP JUMP JUMPDEST PUSH0 DUP3 DUP3 MSTORE PUSH1 0x20 DUP3 ADD SWAP1 POP SWAP3 SWAP2 POP POP JUMP JUMPDEST DUP3 DUP2 DUP4 MCOPY PUSH0 DUP4 DUP4 ADD MSTORE POP POP POP JUMP JUMPDEST PUSH0 PUSH1 0x1F NOT PUSH1 0x1F DUP4 ADD AND SWAP1 POP SWAP2 SWAP1 POP JUMP JUMPDEST PUSH0 PUSH2 0x164C DUP3 PUSH2 0x160A JUMP JUMPDEST PUSH2 0x1656 DUP2 DUP6 PUSH2 0x1614 JUMP JUMPDEST SWAP4 POP PUSH2 0x1666 DUP2 DUP6 PUSH1 0x20 DUP7 ADD PUSH2 0x1624 JUMP JUMPDEST PUSH2 0x166F DUP2 PUSH2 0x1632 JUMP JUMPDEST DUP5 ADD SWAP2 POP POP SWAP3 SWAP2 POP POP JUMP JUMPDEST PUSH0 PUSH1 0x20 DUP3 ADD SWAP1 POP DUP2 DUP2 SUB PUSH0 DUP4 ADD MSTORE PUSH2 0x1692 DUP2 DUP5 PUSH2 0x1642 JUMP JUMPDEST SWAP1 POP SWAP3 SWAP2 POP POP JUMP JUMPDEST PUSH0 PUSH0 REVERT JUMPDEST PUSH0 PUSH20 0xFFFFFFFFFFFFFFFFFFFFFFFFFFFFFFFFFFFFFFFF DUP3 AND SWAP1 POP SWAP2 SWAP1 POP JUMP JUMPDEST PUSH0 PUSH2 0x16C7 DUP3 PUSH2 0x169E JUMP JUMPDEST SWAP1 POP SWAP2 SWAP1 POP JUMP JUMPDEST PUSH2 0x16D7 DUP2 PUSH2 0x16BD JUMP JUMPDEST DUP2 EQ PUSH2 0x16E1 JUMPI PUSH0 PUSH0 REVERT JUMPDEST POP JUMP JUMPDEST PUSH0 DUP2 CALLDATALOAD SWAP1 POP PUSH2 0x16F2 DUP2 PUSH2 0x16CE JUMP JUMPDEST SWAP3 SWAP2 POP POP JUMP JUMPDEST PUSH0 PUSH1 0x20 DUP3 DUP5 SUB SLT ISZERO PUSH2 0x170D JUMPI PUSH2 0x170C PUSH2 0x169A JUMP JUMPDEST JUMPDEST PUSH0 PUSH2 0x171A DUP5 DUP3 DUP6 ADD PUSH2 0x16E4 JUMP JUMPDEST SWAP2 POP POP SWAP3 SWAP2 POP POP JUMP JUMPDEST PUSH0 DUP2 SWAP1 POP SWAP2 SWAP1 POP JUMP JUMPDEST PUSH2 0x1735 DUP2 PUSH2 0x1723 JUMP JUMPDEST DUP3 MSTORE POP POP JUMP JUMPDEST PUSH0 PUSH1 0x20 DUP3 ADD SWAP1 POP PUSH2 0x174E PUSH0 DUP4 ADD DUP5 PUSH2 0x172C JUMP JUMPDEST SWAP3 SWAP2 POP POP JUMP JUMPDEST PUSH2 0x175D DUP2 PUSH2 0x1723 JUMP JUMPDEST DUP2 EQ PUSH2 0x1767 JUMPI PUSH0 PUSH0 REVERT JUMPDEST POP JUMP JUMPDEST PUSH0 DUP2 CALLDATALOAD SWAP1 POP PUSH2 0x1778 DUP2 PUSH2 0x1754 JUMP JUMPDEST SWAP3 SWAP2 POP POP JUMP JUMPDEST PUSH0 PUSH1 0x20 DUP3 DUP5 SUB SLT ISZERO PUSH2 0x1793 JUMPI PUSH2 0x1792 PUSH2 0x169A JUMP JUMPDEST JUMPDEST PUSH0 PUSH2 0x17A0 DUP5 DUP3 DUP6 ADD PUSH2 0x176A JUMP JUMPDEST SWAP2 POP POP SWAP3 SWAP2 POP POP JUMP JUMPDEST PUSH2 0x17B2 DUP2 PUSH2 0x16BD JUMP JUMPDEST DUP3 MSTORE POP POP JUMP JUMPDEST PUSH0 PUSH1 0x20 DUP3 ADD SWAP1 POP PUSH2 0x17CB PUSH0 DUP4 ADD DUP5 PUSH2 0x17A9 JUMP JUMPDEST SWAP3 SWAP2 POP POP JUMP JUMPDEST PUSH32 0x496E76616C696420737461746500000000000000000000000000000000000000 PUSH0 DUP3 ADD MSTORE POP JUMP JUMPDEST PUSH0 PUSH2 0x1805 PUSH1 0xD DUP4 PUSH2 0x1614 JUMP JUMPDEST SWAP2 POP PUSH2 0x1810 DUP3 PUSH2 0x17D1 JUMP JUMPDEST PUSH1 0x20 DUP3 ADD SWAP1 POP SWAP2 SWAP1 POP JUMP JUMPDEST PUSH0 PUSH1 0x20 DUP3 ADD SWAP1 POP DUP2 DUP2 SUB PUSH0 DUP4 ADD MSTORE PUSH2 0x1832 DUP2 PUSH2 0x17F9 JUMP JUMPDEST SWAP1 POP SWAP2 SWAP1 POP JUMP JUMPDEST PUSH32 0x416D6F756E74206D75737420626520706F736974697665000000000000000000 PUSH0 DUP3 ADD MSTORE POP JUMP JUMPDEST PUSH0 PUSH2 0x186D PUSH1 0x17 DUP4 PUSH2 0x1614 JUMP JUMPDEST SWAP2 POP PUSH2 0x1878 DUP3 PUSH2 0x1839 JUMP JUMPDEST PUSH1 0x20 DUP3 ADD SWAP1 POP SWAP2 SWAP1 POP JUMP JUMPDEST PUSH0 PUSH1 0x20 DUP3 ADD SWAP1 POP DUP2 DUP2 SUB PUSH0 DUP4 ADD MSTORE PUSH2 0x189A DUP2 PUSH2 0x1861 JUMP JUMPDEST SWAP1 POP SWAP2 SWAP1 POP JUMP JUMPDEST PUSH32 0x496E73756666696369656E7420636F6E747269627574696F6E00000000000000 PUSH0 DUP3 ADD MSTORE POP JUMP JUMPDEST PUSH0 PUSH2 0x18D5 PUSH1 0x19 DUP4 PUSH2 0x1614 JUMP JUMPDEST SWAP2 POP PUSH2 0x18E0 DUP3 PUSH2 0x18A1 JUMP JUMPDEST PUSH1 0x20 DUP3 ADD SWAP1 POP SWAP2 SWAP1 POP JUMP JUMPDEST PUSH0 PUSH1 0x20 DUP3 ADD SWAP1 POP DUP2 DUP2 SUB PUSH0 DUP4 ADD MSTORE PUSH2 0x1902 DUP2 PUSH2 0x18C9 JUMP JUMPDEST SWAP1 POP SWAP2 SWAP1 POP JUMP JUMPDEST PUSH32 0x4E487B7100000000000000000000000000000000000000000000000000000000 PUSH0 MSTORE PUSH1 0x11 PUSH1 0x4 MSTORE PUSH1 0x24 PUSH0 REVERT JUMPDEST PUSH0 PUSH2 0x1940 DUP3 PUSH2 0x1723 JUMP JUMPDEST SWAP2 POP PUSH2 0x194B DUP4 PUSH2 0x1723 JUMP JUMPDEST SWAP3 POP DUP3 DUP3 SUB SWAP1 POP DUP2 DUP2 GT ISZERO PUSH2 0x1963 JUMPI PUSH2 0x1962 PUSH2 0x1909 JUMP JUMPDEST JUMPDEST SWAP3 SWAP2 POP POP JUMP JUMPDEST PUSH0 PUSH1 0x40 DUP3 ADD SWAP1 POP PUSH2 0x197C PUSH0 DUP4 ADD DUP6 PUSH2 0x17A9 JUMP JUMPDEST PUSH2 0x1989 PUSH1 0x20 DUP4 ADD DUP5 PUSH2 0x172C JUMP JUMPDEST SWAP4 SWAP3 POP POP POP JUMP JUMPDEST PUSH0 DUP2 ISZERO ISZERO SWAP1 POP SWAP2 SWAP1 POP JUMP JUMPDEST PUSH2 0x19A4 DUP2 PUSH2 0x1990 JUMP JUMPDEST DUP2 EQ PUSH2 0x19AE JUMPI PUSH0 PUSH0 REVERT JUMPDEST POP JUMP JUMPDEST PUSH0 DUP2 MLOAD SWAP1 POP PUSH2 0x19BF DUP2 PUSH2 0x199B JUMP JUMPDEST SWAP3 SWAP2 POP POP JUMP JUMPDEST PUSH0 PUSH1 0x20 DUP3 DUP5 SUB SLT ISZERO PUSH2 0x19DA JUMPI PUSH2 0x19D9 PUSH2 0x169A JUMP JUMPDEST JUMPDEST PUSH0 PUSH2 0x19E7 DUP5 DUP3 DUP6 ADD PUSH2 0x19B1 JUMP JUMPDEST SWAP2 POP POP SWAP3 SWAP2 POP POP JUMP JUMPDEST PUSH32 0x5472616E73666572206661696C65640000000000000000000000000000000000 PUSH0 DUP3 ADD MSTORE POP JUMP JUMPDEST PUSH0 PUSH2 0x1A24 PUSH1 0xF DUP4 PUSH2 0x1614 JUMP JUMPDEST SWAP2 POP PUSH2 0x1A2F DUP3 PUSH2 0x19F0 JUMP JUMPDEST PUSH1 0x20 DUP3 ADD SWAP1 POP SWAP2 SWAP1 POP JUMP JUMPDEST PUSH0 PUSH1 0x20 DUP3 ADD SWAP1 POP DUP2 DUP2 SUB PUSH0 DUP4 ADD MSTORE PUSH2 0x1A51 DUP2 PUSH2 0x1A18 JUMP JUMPDEST SWAP1 POP SWAP2 SWAP1 POP JUMP JUMPDEST PUSH32 0x4F6E6C79206F776E657200000000000000000000000000000000000000000000 PUSH0 DUP3 ADD MSTORE POP JUMP JUMPDEST PUSH0 PUSH2 0x1A8C PUSH1 0xA DUP4 PUSH2 0x1614 JUMP JUMPDEST SWAP2 POP PUSH2 0x1A97 DUP3 PUSH2 0x1A58 JUMP JUMPDEST PUSH1 0x20 DUP3 ADD SWAP1 POP SWAP2 SWAP1 POP JUMP JUMPDEST PUSH0 PUSH1 0x20 DUP3 ADD SWAP1 POP DUP2 DUP2 SUB PUSH0 DUP4 ADD MSTORE PUSH2 0x1AB9 DUP2 PUSH2 0x1A80 JUMP JUMPDEST SWAP1 POP SWAP2 SWAP1 POP JUMP JUMPDEST PUSH32 0x44697374726962757465206E6F74207365740000000000000000000000000000 PUSH0 DUP3 ADD MSTORE POP JUMP JUMPDEST PUSH0 PUSH2 0x1AF4 PUSH1 0x12 DUP4 PUSH2 0x1614 JUMP JUMPDEST SWAP2 POP PUSH2 0x1AFF DUP3 PUSH2 0x1AC0 JUMP JUMPDEST PUSH1 0x20 DUP3 ADD SWAP1 POP SWAP2 SWAP1 POP JUMP JUMPDEST PUSH0 PUSH1 0x20 DUP3 ADD SWAP1 POP DUP2 DUP2 SUB PUSH0 DUP4 ADD MSTORE PUSH2 0x1B21 DUP2 PUSH2 0x1AE8 JUMP JUMPDEST SWAP1 POP SWAP2 SWAP1 POP JUMP JUMPDEST PUSH0 DUP2 MLOAD SWAP1 POP PUSH2 0x1B36 DUP2 PUSH2 0x1754 JUMP JUMPDEST SWAP3 SWAP2 POP POP JUMP JUMPDEST PUSH0 PUSH1 0x20 DUP3 DUP5 SUB SLT ISZERO PUSH2 0x1B51 JUMPI PUSH2 0x1B50 PUSH2 0x169A JUMP JUMPDEST JUMPDEST PUSH0 PUSH2 0x1B5E DUP5 DUP3 DUP6 ADD PUSH2 0x1B28 JUMP JUMPDEST SWAP2 POP POP SWAP3 SWAP2 POP POP JUMP JUMPDEST PUSH32 0x4E6F2066756E6473000000000000000000000000000000000000000000000000 PUSH0 DUP3 ADD MSTORE POP JUMP JUMPDEST PUSH0 PUSH2 0x1B9B PUSH1 0x8 DUP4 PUSH2 0x1614 JUMP JUMPDEST SWAP2 POP PUSH2 0x1BA6 DUP3 PUSH2 0x1B67 JUMP JUMPDEST PUSH1 0x20 DUP3 ADD SWAP1 POP SWAP2 SWAP1 POP JUMP JUMPDEST PUSH0 PUSH1 0x20 DUP3 ADD SWAP1 POP DUP2 DUP2 SUB PUSH0 DUP4 ADD MSTORE PUSH2 0x1BC8 DUP2 PUSH2 0x1B8F JUMP JUMPDEST SWAP1 POP SWAP2 SWAP1 POP JUMP JUMPDEST PUSH32 0x496E76616C696420616464726573730000000000000000000000000000000000 PUSH0 DUP3 ADD MSTORE POP JUMP JUMPDEST PUSH0 PUSH2 0x1C03 PUSH1 0xF DUP4 PUSH2 0x1614 JUMP JUMPDEST SWAP2 POP PUSH2 0x1C0E DUP3 PUSH2 0x1BCF JUMP JUMPDEST PUSH1 0x20 DUP3 ADD SWAP1 POP SWAP2 SWAP1 POP JUMP JUMPDEST PUSH0 PUSH1 0x20 DUP3 ADD SWAP1 POP DUP2 DUP2 SUB PUSH0 DUP4 ADD MSTORE PUSH2 0x1C30 DUP2 PUSH2 0x1BF7 JUMP JUMPDEST SWAP1 POP SWAP2 SWAP1 POP JUMP JUMPDEST PUSH0 PUSH2 0x1C41 DUP3 PUSH2 0x1723 JUMP JUMPDEST SWAP2 POP PUSH2 0x1C4C DUP4 PUSH2 0x1723 JUMP JUMPDEST SWAP3 POP DUP3 DUP3 ADD SWAP1 POP DUP1 DUP3 GT ISZERO PUSH2 0x1C64 JUMPI PUSH2 0x1C63 PUSH2 0x1909 JUMP JUMPDEST JUMPDEST SWAP3 SWAP2 POP POP JUMP JUMPDEST PUSH32 0x4578636565647320676F616C0000000000000000000000000000000000000000 PUSH0 DUP3 ADD MSTORE POP JUMP JUMPDEST PUSH0 PUSH2 0x1C9E PUSH1 0xC DUP4 PUSH2 0x1614 JUMP JUMPDEST SWAP2 POP PUSH2 0x1CA9 DUP3 PUSH2 0x1C6A JUMP JUMPDEST PUSH1 0x20 DUP3 ADD SWAP1 POP SWAP2 SWAP1 POP JUMP JUMPDEST PUSH0 PUSH1 0x20 DUP3 ADD SWAP1 POP DUP2 DUP2 SUB PUSH0 DUP4 ADD MSTORE PUSH2 0x1CCB DUP2 PUSH2 0x1C92 JUMP JUMPDEST SWAP1 POP SWAP2 SWAP1 POP JUMP JUMPDEST PUSH0 PUSH1 0x60 DUP3 ADD SWAP1 POP PUSH2 0x1CE5 PUSH0 DUP4 ADD DUP7 PUSH2 0x17A9 JUMP JUMPDEST PUSH2 0x1CF2 PUSH1 0x20 DUP4 ADD DUP6 PUSH2 0x17A9 JUMP JUMPDEST PUSH2 0x1CFF PUSH1 0x40 DUP4 ADD DUP5 PUSH2 0x172C JUMP JUMPDEST SWAP5 SWAP4 POP POP POP POP JUMP JUMPDEST PUSH32 0x53706F6E736F72206E6F74207365740000000000000000000000000000000000 PUSH0 DUP3 ADD MSTORE POP JUMP JUMPDEST PUSH0 PUSH2 0x1D3B PUSH1 0xF DUP4 PUSH2 0x1614 JUMP JUMPDEST SWAP2 POP PUSH2 0x1D46 DUP3 PUSH2 0x1D07 JUMP JUMPDEST PUSH1 0x20 DUP3 ADD SWAP1 POP SWAP2 SWAP1 POP JUMP JUMPDEST PUSH0 PUSH1 0x20 DUP3 ADD SWAP1 POP DUP2 DUP2 SUB PUSH0 DUP4 ADD MSTORE PUSH2 0x1D68 DUP2 PUSH2 0x1D2F JUMP JUMPDEST SWAP1 POP SWAP2 SWAP1 POP JUMP INVALID LOG2 PUSH5 0x6970667358 0x22 SLT KECCAK256 0xED 0xAC 0xA9 TSTORE 0xBC 0x2F SWAP5 DUP3 0xD0 DUP3 DUP3 0xDA REVERT SWAP16 0xC1 EQ DUP6 RETF PUSH26 0xD82019C175DA33B5FD189AC6A664736F6C634300081F00330000 "
				},
				"gasEstimates": {
					"creation": {
						"codeDepositCost": "1517800",
						"executionCost": "infinite",
						"totalCost": "infinite"
					},
					"external": {
						"contribute(uint256)": "infinite",
						"contributions(address)": "2825",
						"currentAmount()": "2535",
						"currentState()": "2578",
						"distributeAddress()": "2553",
						"finalizeAndTransfer()": "infinite",
						"fundingGoal()": "2448",
						"getContribution(address)": "2897",
						"getRemainingAmount()": "infinite",
						"getState()": "infinite",
						"owner()": "2552",
						"requestSponsorship()": "infinite",
						"setDistributeAddress(address)": "27006",
						"setSponsorAddress(address)": "27005",
						"sponsorAddress()": "2597",
						"tokenAddress()": "2575",
						"withdraw(uint256)": "infinite"
					}
				},
				"methodIdentifiers": {
					"contribute(uint256)": "c1cbbca7",
					"contributions(address)": "42e94c90",
					"currentAmount()": "f441b1c8",
					"currentState()": "0c3f6acf",
					"distributeAddress()": "511569a6",
					"finalizeAndTransfer()": "5f23c4c6",
					"fundingGoal()": "7a3a0e84",
					"getContribution(address)": "21eff7fc",
					"getRemainingAmount()": "dabaae11",
					"getState()": "1865c57d",
					"owner()": "8da5cb5b",
					"requestSponsorship()": "d69f84fd",
					"setDistributeAddress(address)": "b90a52c6",
					"setSponsorAddress(address)": "dd682c3c",
					"sponsorAddress()": "6aeefe10",
					"tokenAddress()": "9d76ea58",
					"withdraw(uint256)": "2e1a7d4d"
				}
			},
			"storageLayout": {
				"storage": [
					{
						"astId": 37,
						"contract": "contracts/CrowdFunding.sol:CrowdFunding",
						"label": "owner",
						"offset": 0,
						"slot": "0",
						"type": "t_address"
					},
					{
						"astId": 39,
						"contract": "contracts/CrowdFunding.sol:CrowdFunding",
						"label": "tokenAddress",
						"offset": 0,
						"slot": "1",
						"type": "t_address"
					},
					{
						"astId": 41,
						"contract": "contracts/CrowdFunding.sol:CrowdFunding",
						"label": "sponsorAddress",
						"offset": 0,
						"slot": "2",
						"type": "t_address"
					},
					{
						"astId": 43,
						"contract": "contracts/CrowdFunding.sol:CrowdFunding",
						"label": "distributeAddress",
						"offset": 0,
						"slot": "3",
						"type": "t_address"
					},
					{
						"astId": 45,
						"contract": "contracts/CrowdFunding.sol:CrowdFunding",
						"label": "fundingGoal",
						"offset": 0,
						"slot": "4",
						"type": "t_uint256"
					},
					{
						"astId": 47,
						"contract": "contracts/CrowdFunding.sol:CrowdFunding",
						"label": "currentAmount",
						"offset": 0,
						"slot": "5",
						"type": "t_uint256"
					},
					{
						"astId": 54,
						"contract": "contracts/CrowdFunding.sol:CrowdFunding",
						"label": "currentState",
						"offset": 0,
						"slot": "6",
						"type": "t_enum(State)51"
					},
					{
						"astId": 58,
						"contract": "contracts/CrowdFunding.sol:CrowdFunding",
						"label": "contributions",
						"offset": 0,
						"slot": "7",
						"type": "t_mapping(t_address,t_uint256)"
					}
				],
				"types": {
					"t_address": {
						"encoding": "inplace",
						"label": "address",
						"numberOfBytes": "20"
					},
					"t_enum(State)51": {
						"encoding": "inplace",
						"label": "enum CrowdFunding.State",
						"numberOfBytes": "1"
					},
					"t_mapping(t_address,t_uint256)": {
						"encoding": "mapping",
						"key": "t_address",
						"label": "mapping(address => uint256)",
						"numberOfBytes": "32",
						"value": "t_uint256"
					},
					"t_uint256": {
						"encoding": "inplace",
						"label": "uint256",
						"numberOfBytes": "32"
					}
				}
			},
			"userdoc": {
				"kind": "user",
				"methods": {},
				"version": 1
			}
		}
	}
}