{
	"contracts/DistributeFunding.sol": {
		"DistributeFunding": {
			"abi": [
				{
					"inputs": [
						{
							"internalType": "address",
							"name": "_tokenAddress",
							"type": "address"
						}
					],
					"stateMutability": "nonpayable",
					"type": "constructor"
				},
				{
					"anonymous": false,
					"inputs": [
						{
							"indexed": true,
							"internalType": "address",
							"name": "crowdFunding",
							"type": "address"
						}
					],
					"name": "CrowdFundingSet",
					"type": "event"
				},
				{
					"anonymous": false,
					"inputs": [
						{
							"indexed": false,
							"internalType": "uint256",
							"name": "amount",
							"type": "uint256"
						},
						{
							"indexed": true,
							"internalType": "address",
							"name": "from",
							"type": "address"
						}
					],
					"name": "FundsReceived",
					"type": "event"
				},
				{
					"anonymous": false,
					"inputs": [
						{
							"indexed": true,
							"internalType": "address",
							"name": "owner",
							"type": "address"
						},
						{
							"indexed": false,
							"internalType": "uint256",
							"name": "amount",
							"type": "uint256"
						}
					],
					"name": "RemainingWithdrawn",
					"type": "event"
				},
				{
					"anonymous": false,
					"inputs": [
						{
							"indexed": true,
							"internalType": "address",
							"name": "shareholder",
							"type": "address"
						},
						{
							"indexed": false,
							"internalType": "uint256",
							"name": "amount",
							"type": "uint256"
						}
					],
					"name": "ShareWithdrawn",
					"type": "event"
				},
				{
					"anonymous": false,
					"inputs": [
						{
							"indexed": true,
							"internalType": "address",
							"name": "shareholder",
							"type": "address"
						},
						{
							"indexed": false,
							"internalType": "uint256",
							"name": "percentage",
							"type": "uint256"
						}
					],
					"name": "ShareholderAdded",
					"type": "event"
				},
				{
					"anonymous": false,
					"inputs": [
						{
							"indexed": true,
							"internalType": "address",
							"name": "shareholder",
							"type": "address"
						}
					],
					"name": "ShareholderRemoved",
					"type": "event"
				},
				{
					"anonymous": false,
					"inputs": [
						{
							"indexed": true,
							"internalType": "address",
							"name": "shareholder",
							"type": "address"
						},
						{
							"indexed": false,
							"internalType": "uint256",
							"name": "oldPercentage",
							"type": "uint256"
						},
						{
							"indexed": false,
							"internalType": "uint256",
							"name": "newPercentage",
							"type": "uint256"
						}
					],
					"name": "ShareholderUpdated",
					"type": "event"
				},
				{
					"inputs": [
						{
							"internalType": "address",
							"name": "_shareholder",
							"type": "address"
						},
						{
							"internalType": "uint256",
							"name": "_percentage",
							"type": "uint256"
						}
					],
					"name": "addShareholder",
					"outputs": [],
					"stateMutability": "nonpayable",
					"type": "function"
				},
				{
					"inputs": [],
					"name": "crowdFundingAddress",
					"outputs": [
						{
							"internalType": "address",
							"name": "",
							"type": "address"
						}
					],
					"stateMutability": "view",
					"type": "function"
				},
				{
					"inputs": [],
					"name": "fundsReceived",
					"outputs": [
						{
							"internalType": "bool",
							"name": "",
							"type": "bool"
						}
					],
					"stateMutability": "view",
					"type": "function"
				},
				{
					"inputs": [
						{
							"internalType": "address",
							"name": "_addr",
							"type": "address"
						}
					],
					"name": "getShareholder",
					"outputs": [
						{
							"internalType": "uint256",
							"name": "percentage",
							"type": "uint256"
						},
						{
							"internalType": "bool",
							"name": "hasWithdrawn",
							"type": "bool"
						},
						{
							"internalType": "bool",
							"name": "exists",
							"type": "bool"
						}
					],
					"stateMutability": "view",
					"type": "function"
				},
				{
					"inputs": [
						{
							"internalType": "uint256",
							"name": "_index",
							"type": "uint256"
						}
					],
					"name": "getShareholderAtIndex",
					"outputs": [
						{
							"internalType": "address",
							"name": "addr",
							"type": "address"
						},
						{
							"internalType": "uint256",
							"name": "percentage",
							"type": "uint256"
						},
						{
							"internalType": "bool",
							"name": "hasWithdrawn",
							"type": "bool"
						}
					],
					"stateMutability": "view",
					"type": "function"
				},
				{
					"inputs": [],
					"name": "getShareholderCount",
					"outputs": [
						{
							"internalType": "uint256",
							"name": "",
							"type": "uint256"
						}
					],
					"stateMutability": "view",
					"type": "function"
				},
				{
					"inputs": [],
					"name": "getTotalAllocated",
					"outputs": [
						{
							"internalType": "uint256",
							"name": "",
							"type": "uint256"
						}
					],
					"stateMutability": "view",
					"type": "function"
				},
				{
					"inputs": [],
					"name": "owner",
					"outputs": [
						{
							"internalType": "address",
							"name": "",
							"type": "address"
						}
					],
					"stateMutability": "view",
					"type": "function"
				},
				{
					"inputs": [],
					"name": "receiveTokens",
					"outputs": [],
					"stateMutability": "nonpayable",
					"type": "function"
				},
				{
					"inputs": [
						{
							"internalType": "address",
							"name": "_crowdFundingAddress",
							"type": "address"
						}
					],
					"name": "setCrowdFundingAddress",
					"outputs": [],
					"stateMutability": "nonpayable",
					"type": "function"
				},
				{
					"inputs": [
						{
							"internalType": "address",
							"name": "",
							"type": "address"
						}
					],
					"name": "shareholderIndex",
					"outputs": [
						{
							"internalType": "uint256",
							"name": "",
							"type": "uint256"
						}
					],
					"stateMutability": "view",
					"type": "function"
				},
				{
					"inputs": [
						{
							"internalType": "uint256",
							"name": "",
							"type": "uint256"
						}
					],
					"name": "shareholders",
					"outputs": [
						{
							"internalType": "address",
							"name": "addr",
							"type": "address"
						},
						{
							"internalType": "uint256",
							"name": "percentage",
							"type": "uint256"
						},
						{
							"internalType": "bool",
							"name": "hasWithdrawn",
							"type": "bool"
						},
						{
							"internalType": "bool",
							"name": "exists",
							"type": "bool"
						}
					],
					"stateMutability": "view",
					"type": "function"
				},
				{
					"inputs": [],
					"name": "tokenAddress",
					"outputs": [
						{
							"internalType": "address",
							"name": "",
							"type": "address"
						}
					],
					"stateMutability": "view",
					"type": "function"
				},
				{
					"inputs": [],
					"name": "totalAllocatedPercentage",
					"outputs": [
						{
							"internalType": "uint256",
							"name": "",
							"type": "uint256"
						}
					],
					"stateMutability": "view",
					"type": "function"
				},
				{
					"inputs": [],
					"name": "totalReceived",
					"outputs": [
						{
							"internalType": "uint256",
							"name": "",
							"type": "uint256"
						}
					],
					"stateMutability": "view",
					"type": "function"
				},
				{
					"inputs": [],
					"name": "withdrawRemaining",
					"outputs": [],
					"stateMutability": "nonpayable",
					"type": "function"
				},
				{
					"inputs": [],
					"name": "withdrawShare",
					"outputs": [],
					"stateMutability": "nonpayable",
					"type": "function"
				}
			],
			"devdoc": {
				"kind": "dev",
				"methods": {},
				"version": 1
			},
			"evm": {
				"assembly": "    /* \"contracts/DistributeFunding.sol\":235:6474  contract DistributeFunding {... */\n  mstore(0x40, 0x80)\n    /* \"contracts/DistributeFunding.sol\":1490:1764  constructor(address _tokenAddress) {... */\n  callvalue\n  dup1\n  iszero\n  tag_1\n  jumpi\n  revert(0x00, 0x00)\ntag_1:\n  pop\n  mload(0x40)\n  sub(codesize, bytecodeSize)\n  dup1\n  bytecodeSize\n  dup4\n  codecopy\n  dup2\n  dup2\n  add\n  0x40\n  mstore\n  dup2\n  add\n  swap1\n  tag_2\n  swap2\n  swap1\n  tag_3\n  jump\t// in\ntag_2:\n    /* \"contracts/DistributeFunding.sol\":1569:1570  0 */\n  0x00\n    /* \"contracts/DistributeFunding.sol\":1544:1571  _tokenAddress != address(0) */\n  0xffffffffffffffffffffffffffffffffffffffff\n  and\n    /* \"contracts/DistributeFunding.sol\":1544:1557  _tokenAddress */\n  dup2\n    /* \"contracts/DistributeFunding.sol\":1544:1571  _tokenAddress != address(0) */\n  0xffffffffffffffffffffffffffffffffffffffff\n  and\n  sub\n    /* \"contracts/DistributeFunding.sol\":1536:1589  require(_tokenAddress != address(0), \"Invalid token\") */\n  tag_6\n  jumpi\n  mload(0x40)\n  0x08c379a000000000000000000000000000000000000000000000000000000000\n  dup2\n  mstore\n  0x04\n  add\n  tag_7\n  swap1\n  tag_8\n  jump\t// in\ntag_7:\n  mload(0x40)\n  dup1\n  swap2\n  sub\n  swap1\n  revert\ntag_6:\n    /* \"contracts/DistributeFunding.sol\":1608:1618  msg.sender */\n  caller\n    /* \"contracts/DistributeFunding.sol\":1600:1605  owner */\n  0x00\n  0x00\n    /* \"contracts/DistributeFunding.sol\":1600:1618  owner = msg.sender */\n  0x0100\n  exp\n  dup2\n  sload\n  dup2\n  0xffffffffffffffffffffffffffffffffffffffff\n  mul\n  not\n  and\n  swap1\n  dup4\n  0xffffffffffffffffffffffffffffffffffffffff\n  and\n  mul\n  or\n  swap1\n  sstore\n  pop\n    /* \"contracts/DistributeFunding.sol\":1644:1657  _tokenAddress */\n  dup1\n    /* \"contracts/DistributeFunding.sol\":1629:1641  tokenAddress */\n  0x01\n  0x00\n    /* \"contracts/DistributeFunding.sol\":1629:1657  tokenAddress = _tokenAddress */\n  0x0100\n  exp\n  dup2\n  sload\n  dup2\n  0xffffffffffffffffffffffffffffffffffffffff\n  mul\n  not\n  and\n  swap1\n  dup4\n  0xffffffffffffffffffffffffffffffffffffffff\n  and\n  mul\n  or\n  swap1\n  sstore\n  pop\n    /* \"contracts/DistributeFunding.sol\":1684:1685  0 */\n  0x00\n    /* \"contracts/DistributeFunding.sol\":1668:1681  totalReceived */\n  0x03\n    /* \"contracts/DistributeFunding.sol\":1668:1685  totalReceived = 0 */\n  dup2\n  swap1\n  sstore\n  pop\n    /* \"contracts/DistributeFunding.sol\":1712:1717  false */\n  0x00\n    /* \"contracts/DistributeFunding.sol\":1696:1709  fundsReceived */\n  0x04\n  0x00\n    /* \"contracts/DistributeFunding.sol\":1696:1717  fundsReceived = false */\n  0x0100\n  exp\n  dup2\n  sload\n  dup2\n  0xff\n  mul\n  not\n  and\n  swap1\n  dup4\n  iszero\n  iszero\n  mul\n  or\n  swap1\n  sstore\n  pop\n    /* \"contracts/DistributeFunding.sol\":1755:1756  0 */\n  0x00\n    /* \"contracts/DistributeFunding.sol\":1728:1752  totalAllocatedPercentage */\n  0x07\n    /* \"contracts/DistributeFunding.sol\":1728:1756  totalAllocatedPercentage = 0 */\n  dup2\n  swap1\n  sstore\n  pop\n    /* \"contracts/DistributeFunding.sol\":1490:1764  constructor(address _tokenAddress) {... */\n  pop\n    /* \"contracts/DistributeFunding.sol\":235:6474  contract DistributeFunding {... */\n  jump(tag_9)\n    /* \"#utility.yul\":88:205   */\ntag_11:\n    /* \"#utility.yul\":197:198   */\n  0x00\n    /* \"#utility.yul\":194:195   */\n  0x00\n    /* \"#utility.yul\":187:199   */\n  revert\n    /* \"#utility.yul\":334:460   */\ntag_13:\n    /* \"#utility.yul\":371:378   */\n  0x00\n    /* \"#utility.yul\":411:453   */\n  0xffffffffffffffffffffffffffffffffffffffff\n    /* \"#utility.yul\":404:409   */\n  dup3\n    /* \"#utility.yul\":400:454   */\n  and\n    /* \"#utility.yul\":389:454   */\n  swap1\n  pop\n    /* \"#utility.yul\":334:460   */\n  swap2\n  swap1\n  pop\n  jump\t// out\n    /* \"#utility.yul\":466:562   */\ntag_14:\n    /* \"#utility.yul\":503:510   */\n  0x00\n    /* \"#utility.yul\":532:556   */\n  tag_26\n    /* \"#utility.yul\":550:555   */\n  dup3\n    /* \"#utility.yul\":532:556   */\n  tag_13\n  jump\t// in\ntag_26:\n    /* \"#utility.yul\":521:556   */\n  swap1\n  pop\n    /* \"#utility.yul\":466:562   */\n  swap2\n  swap1\n  pop\n  jump\t// out\n    /* \"#utility.yul\":568:690   */\ntag_15:\n    /* \"#utility.yul\":641:665   */\n  tag_28\n    /* \"#utility.yul\":659:664   */\n  dup2\n    /* \"#utility.yul\":641:665   */\n  tag_14\n  jump\t// in\ntag_28:\n    /* \"#utility.yul\":634:639   */\n  dup2\n    /* \"#utility.yul\":631:666   */\n  eq\n    /* \"#utility.yul\":621:684   */\n  tag_29\n  jumpi\n    /* \"#utility.yul\":680:681   */\n  0x00\n    /* \"#utility.yul\":677:678   */\n  0x00\n    /* \"#utility.yul\":670:682   */\n  revert\n    /* \"#utility.yul\":621:684   */\ntag_29:\n    /* \"#utility.yul\":568:690   */\n  pop\n  jump\t// out\n    /* \"#utility.yul\":696:839   */\ntag_16:\n    /* \"#utility.yul\":753:758   */\n  0x00\n    /* \"#utility.yul\":784:790   */\n  dup2\n    /* \"#utility.yul\":778:791   */\n  mload\n    /* \"#utility.yul\":769:791   */\n  swap1\n  pop\n    /* \"#utility.yul\":800:833   */\n  tag_31\n    /* \"#utility.yul\":827:832   */\n  dup2\n    /* \"#utility.yul\":800:833   */\n  tag_15\n  jump\t// in\ntag_31:\n    /* \"#utility.yul\":696:839   */\n  swap3\n  swap2\n  pop\n  pop\n  jump\t// out\n    /* \"#utility.yul\":845:1196   */\ntag_3:\n    /* \"#utility.yul\":915:921   */\n  0x00\n    /* \"#utility.yul\":964:966   */\n  0x20\n    /* \"#utility.yul\":952:961   */\n  dup3\n    /* \"#utility.yul\":943:950   */\n  dup5\n    /* \"#utility.yul\":939:962   */\n  sub\n    /* \"#utility.yul\":935:967   */\n  slt\n    /* \"#utility.yul\":932:1051   */\n  iszero\n  tag_33\n  jumpi\n    /* \"#utility.yul\":970:1049   */\n  tag_34\n  tag_11\n  jump\t// in\ntag_34:\n    /* \"#utility.yul\":932:1051   */\ntag_33:\n    /* \"#utility.yul\":1090:1091   */\n  0x00\n    /* \"#utility.yul\":1115:1179   */\n  tag_35\n    /* \"#utility.yul\":1171:1178   */\n  dup5\n    /* \"#utility.yul\":1162:1168   */\n  dup3\n    /* \"#utility.yul\":1151:1160   */\n  dup6\n    /* \"#utility.yul\":1147:1169   */\n  add\n    /* \"#utility.yul\":1115:1179   */\n  tag_16\n  jump\t// in\ntag_35:\n    /* \"#utility.yul\":1105:1179   */\n  swap2\n  pop\n    /* \"#utility.yul\":1061:1189   */\n  pop\n    /* \"#utility.yul\":845:1196   */\n  swap3\n  swap2\n  pop\n  pop\n  jump\t// out\n    /* \"#utility.yul\":1202:1371   */\ntag_17:\n    /* \"#utility.yul\":1286:1297   */\n  0x00\n    /* \"#utility.yul\":1320:1326   */\n  dup3\n    /* \"#utility.yul\":1315:1318   */\n  dup3\n    /* \"#utility.yul\":1308:1327   */\n  mstore\n    /* \"#utility.yul\":1360:1364   */\n  0x20\n    /* \"#utility.yul\":1355:1358   */\n  dup3\n    /* \"#utility.yul\":1351:1365   */\n  add\n    /* \"#utility.yul\":1336:1365   */\n  swap1\n  pop\n    /* \"#utility.yul\":1202:1371   */\n  swap3\n  swap2\n  pop\n  pop\n  jump\t// out\n    /* \"#utility.yul\":1377:1540   */\ntag_18:\n    /* \"#utility.yul\":1517:1532   */\n  0x496e76616c696420746f6b656e00000000000000000000000000000000000000\n    /* \"#utility.yul\":1513:1514   */\n  0x00\n    /* \"#utility.yul\":1505:1511   */\n  dup3\n    /* \"#utility.yul\":1501:1515   */\n  add\n    /* \"#utility.yul\":1494:1533   */\n  mstore\n    /* \"#utility.yul\":1377:1540   */\n  pop\n  jump\t// out\n    /* \"#utility.yul\":1546:1912   */\ntag_19:\n    /* \"#utility.yul\":1688:1691   */\n  0x00\n    /* \"#utility.yul\":1709:1776   */\n  tag_39\n    /* \"#utility.yul\":1773:1775   */\n  0x0d\n    /* \"#utility.yul\":1768:1771   */\n  dup4\n    /* \"#utility.yul\":1709:1776   */\n  tag_17\n  jump\t// in\ntag_39:\n    /* \"#utility.yul\":1702:1776   */\n  swap2\n  pop\n    /* \"#utility.yul\":1785:1878   */\n  tag_40\n    /* \"#utility.yul\":1874:1877   */\n  dup3\n    /* \"#utility.yul\":1785:1878   */\n  tag_18\n  jump\t// in\ntag_40:\n    /* \"#utility.yul\":1903:1905   */\n  0x20\n    /* \"#utility.yul\":1898:1901   */\n  dup3\n    /* \"#utility.yul\":1894:1906   */\n  add\n    /* \"#utility.yul\":1887:1906   */\n  swap1\n  pop\n    /* \"#utility.yul\":1546:1912   */\n  swap2\n  swap1\n  pop\n  jump\t// out\n    /* \"#utility.yul\":1918:2337   */\ntag_8:\n    /* \"#utility.yul\":2084:2088   */\n  0x00\n    /* \"#utility.yul\":2122:2124   */\n  0x20\n    /* \"#utility.yul\":2111:2120   */\n  dup3\n    /* \"#utility.yul\":2107:2125   */\n  add\n    /* \"#utility.yul\":2099:2125   */\n  swap1\n  pop\n    /* \"#utility.yul\":2171:2180   */\n  dup2\n    /* \"#utility.yul\":2165:2169   */\n  dup2\n    /* \"#utility.yul\":2161:2181   */\n  sub\n    /* \"#utility.yul\":2157:2158   */\n  0x00\n    /* \"#utility.yul\":2146:2155   */\n  dup4\n    /* \"#utility.yul\":2142:2159   */\n  add\n    /* \"#utility.yul\":2135:2182   */\n  mstore\n    /* \"#utility.yul\":2199:2330   */\n  tag_42\n    /* \"#utility.yul\":2325:2329   */\n  dup2\n    /* \"#utility.yul\":2199:2330   */\n  tag_19\n  jump\t// in\ntag_42:\n    /* \"#utility.yul\":2191:2330   */\n  swap1\n  pop\n    /* \"#utility.yul\":1918:2337   */\n  swap2\n  swap1\n  pop\n  jump\t// out\n    /* \"contracts/DistributeFunding.sol\":235:6474  contract DistributeFunding {... */\ntag_9:\n  dataSize(sub_0)\n  dup1\n  dataOffset(sub_0)\n  0x00\n  codecopy\n  0x00\n  return\nstop\n\nsub_0: assembly {\n        /* \"contracts/DistributeFunding.sol\":235:6474  contract DistributeFunding {... */\n      mstore(0x40, 0x80)\n      callvalue\n      dup1\n      iszero\n      tag_1\n      jumpi\n      revert(0x00, 0x00)\n    tag_1:\n      pop\n      jumpi(tag_2, lt(calldatasize, 0x04))\n      shr(0xe0, calldataload(0x00))\n      dup1\n      0x82299a5c\n      gt\n      tag_20\n      jumpi\n      dup1\n      0x9d76ea58\n      gt\n      tag_21\n      jumpi\n      dup1\n      0x9d76ea58\n      eq\n      tag_15\n      jumpi\n      dup1\n      0xa3c2c462\n      eq\n      tag_16\n      jumpi\n      dup1\n      0xab377daa\n      eq\n      tag_17\n      jumpi\n      dup1\n      0xe9925271\n      eq\n      tag_18\n      jumpi\n      dup1\n      0xee38db95\n      eq\n      tag_19\n      jumpi\n      jump(tag_2)\n    tag_21:\n      dup1\n      0x82299a5c\n      eq\n      tag_11\n      jumpi\n      dup1\n      0x8872bbe2\n      eq\n      tag_12\n      jumpi\n      dup1\n      0x8da5cb5b\n      eq\n      tag_13\n      jumpi\n      dup1\n      0x9d573fa2\n      eq\n      tag_14\n      jumpi\n      jump(tag_2)\n    tag_20:\n      dup1\n      0x24349671\n      gt\n      tag_22\n      jumpi\n      dup1\n      0x24349671\n      eq\n      tag_7\n      jumpi\n      dup1\n      0x41bcf6a4\n      eq\n      tag_8\n      jumpi\n      dup1\n      0x680e6c9b\n      eq\n      tag_9\n      jumpi\n      dup1\n      0x75724990\n      eq\n      tag_10\n      jumpi\n      jump(tag_2)\n    tag_22:\n      dup1\n      0x047c312a\n      eq\n      tag_3\n      jumpi\n      dup1\n      0x04972881\n      eq\n      tag_4\n      jumpi\n      dup1\n      0x11318b33\n      eq\n      tag_5\n      jumpi\n      dup1\n      0x227d9f65\n      eq\n      tag_6\n      jumpi\n    tag_2:\n      revert(0x00, 0x00)\n        /* \"contracts/DistributeFunding.sol\":683:722  uint256 public totalAllocatedPercentage */\n    tag_3:\n      tag_23\n      tag_24\n      jump\t// in\n    tag_23:\n      mload(0x40)\n      tag_25\n      swap2\n      swap1\n      tag_26\n      jump\t// in\n    tag_25:\n      mload(0x40)\n      dup1\n      swap2\n      sub\n      swap1\n      return\n        /* \"contracts/DistributeFunding.sol\":5918:6024  function getShareholderCount() public view returns (uint256) {... */\n    tag_4:\n      tag_27\n      tag_28\n      jump\t// in\n    tag_27:\n      mload(0x40)\n      tag_29\n      swap2\n      swap1\n      tag_26\n      jump\t// in\n    tag_29:\n      mload(0x40)\n      dup1\n      swap2\n      sub\n      swap1\n      return\n        /* \"contracts/DistributeFunding.sol\":547:572  bool public fundsReceived */\n    tag_5:\n      tag_30\n      tag_31\n      jump\t// in\n    tag_30:\n      mload(0x40)\n      tag_32\n      swap2\n      swap1\n      tag_33\n      jump\t// in\n    tag_32:\n      mload(0x40)\n      dup1\n      swap2\n      sub\n      swap1\n      return\n        /* \"contracts/DistributeFunding.sol\":5524:5906  function getShareholder(address _addr) public view returns (uint256 percentage, bool hasWithdrawn, bool exists) {... */\n    tag_6:\n      tag_34\n      0x04\n      dup1\n      calldatasize\n      sub\n      dup2\n      add\n      swap1\n      tag_35\n      swap2\n      swap1\n      tag_36\n      jump\t// in\n    tag_35:\n      tag_37\n      jump\t// in\n    tag_34:\n      mload(0x40)\n      tag_38\n      swap4\n      swap3\n      swap2\n      swap1\n      tag_39\n      jump\t// in\n    tag_38:\n      mload(0x40)\n      dup1\n      swap2\n      sub\n      swap1\n      return\n        /* \"contracts/DistributeFunding.sol\":4219:5110  function withdrawShare() public {... */\n    tag_7:\n      tag_40\n      tag_41\n      jump\t// in\n    tag_40:\n      stop\n        /* \"contracts/DistributeFunding.sol\":625:676  mapping(address => uint256) public shareholderIndex */\n    tag_8:\n      tag_42\n      0x04\n      dup1\n      calldatasize\n      sub\n      dup2\n      add\n      swap1\n      tag_43\n      swap2\n      swap1\n      tag_36\n      jump\t// in\n    tag_43:\n      tag_44\n      jump\t// in\n    tag_42:\n      mload(0x40)\n      tag_45\n      swap2\n      swap1\n      tag_26\n      jump\t// in\n    tag_45:\n      mload(0x40)\n      dup1\n      swap2\n      sub\n      swap1\n      return\n        /* \"contracts/DistributeFunding.sol\":3641:4207  function receiveTokens() public beforeFundsReceived {... */\n    tag_9:\n      tag_46\n      tag_47\n      jump\t// in\n    tag_46:\n      stop\n        /* \"contracts/DistributeFunding.sol\":2074:3629  function addShareholder(address _shareholder, uint256 _percentage) public onlyOwner beforeFundsReceived {... */\n    tag_10:\n      tag_48\n      0x04\n      dup1\n      calldatasize\n      sub\n      dup2\n      add\n      swap1\n      tag_49\n      swap2\n      swap1\n      tag_50\n      jump\t// in\n    tag_49:\n      tag_51\n      jump\t// in\n    tag_48:\n      stop\n        /* \"contracts/DistributeFunding.sol\":6036:6145  function getTotalAllocated() public view returns (uint256) {... */\n    tag_11:\n      tag_52\n      tag_53\n      jump\t// in\n    tag_52:\n      mload(0x40)\n      tag_54\n      swap2\n      swap1\n      tag_26\n      jump\t// in\n    tag_54:\n      mload(0x40)\n      dup1\n      swap2\n      sub\n      swap1\n      return\n        /* \"contracts/DistributeFunding.sol\":1776:2062  function setCrowdFundingAddress(address _crowdFundingAddress) public onlyOwner beforeFundsReceived {... */\n    tag_12:\n      tag_55\n      0x04\n      dup1\n      calldatasize\n      sub\n      dup2\n      add\n      swap1\n      tag_56\n      swap2\n      swap1\n      tag_36\n      jump\t// in\n    tag_56:\n      tag_57\n      jump\t// in\n    tag_55:\n      stop\n        /* \"contracts/DistributeFunding.sol\":410:430  address public owner */\n    tag_13:\n      tag_58\n      tag_59\n      jump\t// in\n    tag_58:\n      mload(0x40)\n      tag_60\n      swap2\n      swap1\n      tag_61\n      jump\t// in\n    tag_60:\n      mload(0x40)\n      dup1\n      swap2\n      sub\n      swap1\n      return\n        /* \"contracts/DistributeFunding.sol\":471:505  address public crowdFundingAddress */\n    tag_14:\n      tag_62\n      tag_63\n      jump\t// in\n    tag_62:\n      mload(0x40)\n      tag_64\n      swap2\n      swap1\n      tag_61\n      jump\t// in\n    tag_64:\n      mload(0x40)\n      dup1\n      swap2\n      sub\n      swap1\n      return\n        /* \"contracts/DistributeFunding.sol\":437:464  address public tokenAddress */\n    tag_15:\n      tag_65\n      tag_66\n      jump\t// in\n    tag_65:\n      mload(0x40)\n      tag_67\n      swap2\n      swap1\n      tag_61\n      jump\t// in\n    tag_67:\n      mload(0x40)\n      dup1\n      swap2\n      sub\n      swap1\n      return\n        /* \"contracts/DistributeFunding.sol\":512:540  uint256 public totalReceived */\n    tag_16:\n      tag_68\n      tag_69\n      jump\t// in\n    tag_68:\n      mload(0x40)\n      tag_70\n      swap2\n      swap1\n      tag_26\n      jump\t// in\n    tag_70:\n      mload(0x40)\n      dup1\n      swap2\n      sub\n      swap1\n      return\n        /* \"contracts/DistributeFunding.sol\":585:618  Shareholder[] public shareholders */\n    tag_17:\n      tag_71\n      0x04\n      dup1\n      calldatasize\n      sub\n      dup2\n      add\n      swap1\n      tag_72\n      swap2\n      swap1\n      tag_73\n      jump\t// in\n    tag_72:\n      tag_74\n      jump\t// in\n    tag_71:\n      mload(0x40)\n      tag_75\n      swap5\n      swap4\n      swap3\n      swap2\n      swap1\n      tag_76\n      jump\t// in\n    tag_75:\n      mload(0x40)\n      dup1\n      swap2\n      sub\n      swap1\n      return\n        /* \"contracts/DistributeFunding.sol\":6157:6471  function getShareholderAtIndex(uint256 _index) public view returns (address addr, uint256 percentage, bool hasWithdrawn) {... */\n    tag_18:\n      tag_77\n      0x04\n      dup1\n      calldatasize\n      sub\n      dup2\n      add\n      swap1\n      tag_78\n      swap2\n      swap1\n      tag_73\n      jump\t// in\n    tag_78:\n      tag_79\n      jump\t// in\n    tag_77:\n      mload(0x40)\n      tag_80\n      swap4\n      swap3\n      swap2\n      swap1\n      tag_81\n      jump\t// in\n    tag_80:\n      mload(0x40)\n      dup1\n      swap2\n      sub\n      swap1\n      return\n        /* \"contracts/DistributeFunding.sol\":5122:5512  function withdrawRemaining() public onlyOwner {... */\n    tag_19:\n      tag_82\n      tag_83\n      jump\t// in\n    tag_82:\n      stop\n        /* \"contracts/DistributeFunding.sol\":683:722  uint256 public totalAllocatedPercentage */\n    tag_24:\n      sload(0x07)\n      dup2\n      jump\t// out\n        /* \"contracts/DistributeFunding.sol\":5918:6024  function getShareholderCount() public view returns (uint256) {... */\n    tag_28:\n        /* \"contracts/DistributeFunding.sol\":5970:5977  uint256 */\n      0x00\n        /* \"contracts/DistributeFunding.sol\":5997:6009  shareholders */\n      0x05\n        /* \"contracts/DistributeFunding.sol\":5997:6016  shareholders.length */\n      dup1\n      sload\n      swap1\n      pop\n        /* \"contracts/DistributeFunding.sol\":5990:6016  return shareholders.length */\n      swap1\n      pop\n        /* \"contracts/DistributeFunding.sol\":5918:6024  function getShareholderCount() public view returns (uint256) {... */\n      swap1\n      jump\t// out\n        /* \"contracts/DistributeFunding.sol\":547:572  bool public fundsReceived */\n    tag_31:\n      0x04\n      0x00\n      swap1\n      sload\n      swap1\n      0x0100\n      exp\n      swap1\n      div\n      0xff\n      and\n      dup2\n      jump\t// out\n        /* \"contracts/DistributeFunding.sol\":5524:5906  function getShareholder(address _addr) public view returns (uint256 percentage, bool hasWithdrawn, bool exists) {... */\n    tag_37:\n        /* \"contracts/DistributeFunding.sol\":5584:5602  uint256 percentage */\n      0x00\n        /* \"contracts/DistributeFunding.sol\":5604:5621  bool hasWithdrawn */\n      0x00\n        /* \"contracts/DistributeFunding.sol\":5623:5634  bool exists */\n      0x00\n        /* \"contracts/DistributeFunding.sol\":5652:5661  uint256 i */\n      0x00\n        /* \"contracts/DistributeFunding.sol\":5664:5665  0 */\n      0x00\n        /* \"contracts/DistributeFunding.sol\":5652:5665  uint256 i = 0 */\n      swap1\n      pop\n        /* \"contracts/DistributeFunding.sol\":5647:5864  for (uint256 i = 0; i < shareholders.length; i++) {... */\n    tag_86:\n        /* \"contracts/DistributeFunding.sol\":5671:5683  shareholders */\n      0x05\n        /* \"contracts/DistributeFunding.sol\":5671:5690  shareholders.length */\n      dup1\n      sload\n      swap1\n      pop\n        /* \"contracts/DistributeFunding.sol\":5667:5668  i */\n      dup2\n        /* \"contracts/DistributeFunding.sol\":5667:5690  i < shareholders.length */\n      lt\n        /* \"contracts/DistributeFunding.sol\":5647:5864  for (uint256 i = 0; i < shareholders.length; i++) {... */\n      iszero\n      tag_87\n      jumpi\n        /* \"contracts/DistributeFunding.sol\":5740:5745  _addr */\n      dup5\n        /* \"contracts/DistributeFunding.sol\":5716:5745  shareholders[i].addr == _addr */\n      0xffffffffffffffffffffffffffffffffffffffff\n      and\n        /* \"contracts/DistributeFunding.sol\":5716:5728  shareholders */\n      0x05\n        /* \"contracts/DistributeFunding.sol\":5729:5730  i */\n      dup3\n        /* \"contracts/DistributeFunding.sol\":5716:5731  shareholders[i] */\n      dup2\n      sload\n      dup2\n      lt\n      tag_89\n      jumpi\n      tag_90\n      tag_91\n      jump\t// in\n    tag_90:\n    tag_89:\n      swap1\n      0x00\n      mstore\n      keccak256(0x00, 0x20)\n      swap1\n      0x03\n      mul\n      add\n        /* \"contracts/DistributeFunding.sol\":5716:5736  shareholders[i].addr */\n      0x00\n      add\n      0x00\n      swap1\n      sload\n      swap1\n      0x0100\n      exp\n      swap1\n      div\n      0xffffffffffffffffffffffffffffffffffffffff\n      and\n        /* \"contracts/DistributeFunding.sol\":5716:5745  shareholders[i].addr == _addr */\n      0xffffffffffffffffffffffffffffffffffffffff\n      and\n      sub\n        /* \"contracts/DistributeFunding.sol\":5712:5853  if (shareholders[i].addr == _addr) {... */\n      tag_93\n      jumpi\n        /* \"contracts/DistributeFunding.sol\":5774:5786  shareholders */\n      0x05\n        /* \"contracts/DistributeFunding.sol\":5787:5788  i */\n      dup2\n        /* \"contracts/DistributeFunding.sol\":5774:5789  shareholders[i] */\n      dup2\n      sload\n      dup2\n      lt\n      tag_94\n      jumpi\n      tag_95\n      tag_91\n      jump\t// in\n    tag_95:\n    tag_94:\n      swap1\n      0x00\n      mstore\n      keccak256(0x00, 0x20)\n      swap1\n      0x03\n      mul\n      add\n        /* \"contracts/DistributeFunding.sol\":5774:5800  shareholders[i].percentage */\n      0x01\n      add\n      sload\n        /* \"contracts/DistributeFunding.sol\":5802:5814  shareholders */\n      0x05\n        /* \"contracts/DistributeFunding.sol\":5815:5816  i */\n      dup3\n        /* \"contracts/DistributeFunding.sol\":5802:5817  shareholders[i] */\n      dup2\n      sload\n      dup2\n      lt\n      tag_97\n      jumpi\n      tag_98\n      tag_91\n      jump\t// in\n    tag_98:\n    tag_97:\n      swap1\n      0x00\n      mstore\n      keccak256(0x00, 0x20)\n      swap1\n      0x03\n      mul\n      add\n        /* \"contracts/DistributeFunding.sol\":5802:5830  shareholders[i].hasWithdrawn */\n      0x02\n      add\n      0x00\n      swap1\n      sload\n      swap1\n      0x0100\n      exp\n      swap1\n      div\n      0xff\n      and\n        /* \"contracts/DistributeFunding.sol\":5832:5836  true */\n      0x01\n        /* \"contracts/DistributeFunding.sol\":5766:5837  return (shareholders[i].percentage, shareholders[i].hasWithdrawn, true) */\n      swap4\n      pop\n      swap4\n      pop\n      swap4\n      pop\n      pop\n      jump(tag_85)\n        /* \"contracts/DistributeFunding.sol\":5712:5853  if (shareholders[i].addr == _addr) {... */\n    tag_93:\n        /* \"contracts/DistributeFunding.sol\":5692:5695  i++ */\n      dup1\n      dup1\n      0x01\n      add\n      swap2\n      pop\n      pop\n        /* \"contracts/DistributeFunding.sol\":5647:5864  for (uint256 i = 0; i < shareholders.length; i++) {... */\n      jump(tag_86)\n    tag_87:\n      pop\n        /* \"contracts/DistributeFunding.sol\":5882:5883  0 */\n      0x00\n        /* \"contracts/DistributeFunding.sol\":5885:5890  false */\n      0x00\n        /* \"contracts/DistributeFunding.sol\":5892:5897  false */\n      0x00\n        /* \"contracts/DistributeFunding.sol\":5874:5898  return (0, false, false) */\n      swap3\n      pop\n      swap3\n      pop\n      swap3\n      pop\n        /* \"contracts/DistributeFunding.sol\":5524:5906  function getShareholder(address _addr) public view returns (uint256 percentage, bool hasWithdrawn, bool exists) {... */\n    tag_85:\n      swap2\n      swap4\n      swap1\n      swap3\n      pop\n      jump\t// out\n        /* \"contracts/DistributeFunding.sol\":4219:5110  function withdrawShare() public {... */\n    tag_41:\n        /* \"contracts/DistributeFunding.sol\":4270:4283  fundsReceived */\n      0x04\n      0x00\n      swap1\n      sload\n      swap1\n      0x0100\n      exp\n      swap1\n      div\n      0xff\n      and\n        /* \"contracts/DistributeFunding.sol\":4262:4306  require(fundsReceived, \"Funds not received\") */\n      tag_101\n      jumpi\n      mload(0x40)\n      0x08c379a000000000000000000000000000000000000000000000000000000000\n      dup2\n      mstore\n      0x04\n      add\n      tag_102\n      swap1\n      tag_103\n      jump\t// in\n    tag_102:\n      mload(0x40)\n      dup1\n      swap2\n      sub\n      swap1\n      revert\n    tag_101:\n        /* \"contracts/DistributeFunding.sol\":4327:4337  bool found */\n      0x00\n        /* \"contracts/DistributeFunding.sol\":4340:4345  false */\n      0x00\n        /* \"contracts/DistributeFunding.sol\":4327:4345  bool found = false */\n      swap1\n      pop\n        /* \"contracts/DistributeFunding.sol\":4356:4369  uint256 index */\n      0x00\n        /* \"contracts/DistributeFunding.sol\":4372:4373  0 */\n      0x00\n        /* \"contracts/DistributeFunding.sol\":4356:4373  uint256 index = 0 */\n      swap1\n      pop\n        /* \"contracts/DistributeFunding.sol\":4389:4398  uint256 i */\n      0x00\n        /* \"contracts/DistributeFunding.sol\":4401:4402  0 */\n      0x00\n        /* \"contracts/DistributeFunding.sol\":4389:4402  uint256 i = 0 */\n      swap1\n      pop\n        /* \"contracts/DistributeFunding.sol\":4384:4599  for (uint256 i = 0; i < shareholders.length; i++) {... */\n    tag_104:\n        /* \"contracts/DistributeFunding.sol\":4408:4420  shareholders */\n      0x05\n        /* \"contracts/DistributeFunding.sol\":4408:4427  shareholders.length */\n      dup1\n      sload\n      swap1\n      pop\n        /* \"contracts/DistributeFunding.sol\":4404:4405  i */\n      dup2\n        /* \"contracts/DistributeFunding.sol\":4404:4427  i < shareholders.length */\n      lt\n        /* \"contracts/DistributeFunding.sol\":4384:4599  for (uint256 i = 0; i < shareholders.length; i++) {... */\n      iszero\n      tag_105\n      jumpi\n        /* \"contracts/DistributeFunding.sol\":4477:4487  msg.sender */\n      caller\n        /* \"contracts/DistributeFunding.sol\":4453:4487  shareholders[i].addr == msg.sender */\n      0xffffffffffffffffffffffffffffffffffffffff\n      and\n        /* \"contracts/DistributeFunding.sol\":4453:4465  shareholders */\n      0x05\n        /* \"contracts/DistributeFunding.sol\":4466:4467  i */\n      dup3\n        /* \"contracts/DistributeFunding.sol\":4453:4468  shareholders[i] */\n      dup2\n      sload\n      dup2\n      lt\n      tag_107\n      jumpi\n      tag_108\n      tag_91\n      jump\t// in\n    tag_108:\n    tag_107:\n      swap1\n      0x00\n      mstore\n      keccak256(0x00, 0x20)\n      swap1\n      0x03\n      mul\n      add\n        /* \"contracts/DistributeFunding.sol\":4453:4473  shareholders[i].addr */\n      0x00\n      add\n      0x00\n      swap1\n      sload\n      swap1\n      0x0100\n      exp\n      swap1\n      div\n      0xffffffffffffffffffffffffffffffffffffffff\n      and\n        /* \"contracts/DistributeFunding.sol\":4453:4487  shareholders[i].addr == msg.sender */\n      0xffffffffffffffffffffffffffffffffffffffff\n      and\n      sub\n        /* \"contracts/DistributeFunding.sol\":4449:4588  if (shareholders[i].addr == msg.sender) {... */\n      tag_110\n      jumpi\n        /* \"contracts/DistributeFunding.sol\":4516:4520  true */\n      0x01\n        /* \"contracts/DistributeFunding.sol\":4508:4520  found = true */\n      swap3\n      pop\n        /* \"contracts/DistributeFunding.sol\":4547:4548  i */\n      dup1\n        /* \"contracts/DistributeFunding.sol\":4539:4548  index = i */\n      swap2\n      pop\n        /* \"contracts/DistributeFunding.sol\":4567:4572  break */\n      jump(tag_105)\n        /* \"contracts/DistributeFunding.sol\":4449:4588  if (shareholders[i].addr == msg.sender) {... */\n    tag_110:\n        /* \"contracts/DistributeFunding.sol\":4429:4432  i++ */\n      dup1\n      dup1\n      0x01\n      add\n      swap2\n      pop\n      pop\n        /* \"contracts/DistributeFunding.sol\":4384:4599  for (uint256 i = 0; i < shareholders.length; i++) {... */\n      jump(tag_104)\n    tag_105:\n      pop\n        /* \"contracts/DistributeFunding.sol\":4627:4632  found */\n      dup2\n        /* \"contracts/DistributeFunding.sol\":4619:4654  require(found, \"Not a shareholder\") */\n      tag_111\n      jumpi\n      mload(0x40)\n      0x08c379a000000000000000000000000000000000000000000000000000000000\n      dup2\n      mstore\n      0x04\n      add\n      tag_112\n      swap1\n      tag_113\n      jump\t// in\n    tag_112:\n      mload(0x40)\n      dup1\n      swap2\n      sub\n      swap1\n      revert\n    tag_111:\n        /* \"contracts/DistributeFunding.sol\":4674:4686  shareholders */\n      0x05\n        /* \"contracts/DistributeFunding.sol\":4687:4692  index */\n      dup2\n        /* \"contracts/DistributeFunding.sol\":4674:4693  shareholders[index] */\n      dup2\n      sload\n      dup2\n      lt\n      tag_114\n      jumpi\n      tag_115\n      tag_91\n      jump\t// in\n    tag_115:\n    tag_114:\n      swap1\n      0x00\n      mstore\n      keccak256(0x00, 0x20)\n      swap1\n      0x03\n      mul\n      add\n        /* \"contracts/DistributeFunding.sol\":4674:4706  shareholders[index].hasWithdrawn */\n      0x02\n      add\n      0x00\n      swap1\n      sload\n      swap1\n      0x0100\n      exp\n      swap1\n      div\n      0xff\n      and\n        /* \"contracts/DistributeFunding.sol\":4673:4706  !shareholders[index].hasWithdrawn */\n      iszero\n        /* \"contracts/DistributeFunding.sol\":4665:4728  require(!shareholders[index].hasWithdrawn, \"Already withdrawn\") */\n      tag_117\n      jumpi\n      mload(0x40)\n      0x08c379a000000000000000000000000000000000000000000000000000000000\n      dup2\n      mstore\n      0x04\n      add\n      tag_118\n      swap1\n      tag_119\n      jump\t// in\n    tag_118:\n      mload(0x40)\n      dup1\n      swap2\n      sub\n      swap1\n      revert\n    tag_117:\n        /* \"contracts/DistributeFunding.sol\":4749:4763  uint256 amount */\n      0x00\n        /* \"contracts/DistributeFunding.sol\":4817:4820  100 */\n      0x64\n        /* \"contracts/DistributeFunding.sol\":4783:4795  shareholders */\n      0x05\n        /* \"contracts/DistributeFunding.sol\":4796:4801  index */\n      dup4\n        /* \"contracts/DistributeFunding.sol\":4783:4802  shareholders[index] */\n      dup2\n      sload\n      dup2\n      lt\n      tag_120\n      jumpi\n      tag_121\n      tag_91\n      jump\t// in\n    tag_121:\n    tag_120:\n      swap1\n      0x00\n      mstore\n      keccak256(0x00, 0x20)\n      swap1\n      0x03\n      mul\n      add\n        /* \"contracts/DistributeFunding.sol\":4783:4813  shareholders[index].percentage */\n      0x01\n      add\n      sload\n        /* \"contracts/DistributeFunding.sol\":4767:4780  totalReceived */\n      sload(0x03)\n        /* \"contracts/DistributeFunding.sol\":4767:4813  totalReceived * shareholders[index].percentage */\n      tag_123\n      swap2\n      swap1\n      tag_124\n      jump\t// in\n    tag_123:\n        /* \"contracts/DistributeFunding.sol\":4766:4820  (totalReceived * shareholders[index].percentage) / 100 */\n      tag_125\n      swap2\n      swap1\n      tag_126\n      jump\t// in\n    tag_125:\n        /* \"contracts/DistributeFunding.sol\":4749:4820  uint256 amount = (totalReceived * shareholders[index].percentage) / 100 */\n      swap1\n      pop\n        /* \"contracts/DistributeFunding.sol\":4848:4849  0 */\n      0x00\n        /* \"contracts/DistributeFunding.sol\":4839:4845  amount */\n      dup2\n        /* \"contracts/DistributeFunding.sol\":4839:4849  amount > 0 */\n      gt\n        /* \"contracts/DistributeFunding.sol\":4831:4863  require(amount > 0, \"No tokens\") */\n      tag_127\n      jumpi\n      mload(0x40)\n      0x08c379a000000000000000000000000000000000000000000000000000000000\n      dup2\n      mstore\n      0x04\n      add\n      tag_128\n      swap1\n      tag_129\n      jump\t// in\n    tag_128:\n      mload(0x40)\n      dup1\n      swap2\n      sub\n      swap1\n      revert\n    tag_127:\n        /* \"contracts/DistributeFunding.sol\":4919:4923  true */\n      0x01\n        /* \"contracts/DistributeFunding.sol\":4884:4896  shareholders */\n      0x05\n        /* \"contracts/DistributeFunding.sol\":4897:4902  index */\n      dup4\n        /* \"contracts/DistributeFunding.sol\":4884:4903  shareholders[index] */\n      dup2\n      sload\n      dup2\n      lt\n      tag_130\n      jumpi\n      tag_131\n      tag_91\n      jump\t// in\n    tag_131:\n    tag_130:\n      swap1\n      0x00\n      mstore\n      keccak256(0x00, 0x20)\n      swap1\n      0x03\n      mul\n      add\n        /* \"contracts/DistributeFunding.sol\":4884:4916  shareholders[index].hasWithdrawn */\n      0x02\n      add\n      0x00\n        /* \"contracts/DistributeFunding.sol\":4884:4923  shareholders[index].hasWithdrawn = true */\n      0x0100\n      exp\n      dup2\n      sload\n      dup2\n      0xff\n      mul\n      not\n      and\n      swap1\n      dup4\n      iszero\n      iszero\n      mul\n      or\n      swap1\n      sstore\n      pop\n        /* \"contracts/DistributeFunding.sol\":4944:4956  IERC20 token */\n      0x00\n        /* \"contracts/DistributeFunding.sol\":4966:4978  tokenAddress */\n      0x01\n      0x00\n      swap1\n      sload\n      swap1\n      0x0100\n      exp\n      swap1\n      div\n      0xffffffffffffffffffffffffffffffffffffffff\n      and\n        /* \"contracts/DistributeFunding.sol\":4944:4979  IERC20 token = IERC20(tokenAddress) */\n      swap1\n      pop\n        /* \"contracts/DistributeFunding.sol\":4998:5003  token */\n      dup1\n        /* \"contracts/DistributeFunding.sol\":4998:5012  token.transfer */\n      0xffffffffffffffffffffffffffffffffffffffff\n      and\n      0xa9059cbb\n        /* \"contracts/DistributeFunding.sol\":5013:5023  msg.sender */\n      caller\n        /* \"contracts/DistributeFunding.sol\":5025:5031  amount */\n      dup5\n        /* \"contracts/DistributeFunding.sol\":4998:5032  token.transfer(msg.sender, amount) */\n      mload(0x40)\n      dup4\n      0xffffffff\n      and\n      0xe0\n      shl\n      dup2\n      mstore\n      0x04\n      add\n      tag_133\n      swap3\n      swap2\n      swap1\n      tag_134\n      jump\t// in\n    tag_133:\n      0x20\n      mload(0x40)\n      dup1\n      dup4\n      sub\n      dup2\n      0x00\n      dup8\n      gas\n      call\n      iszero\n      dup1\n      iszero\n      tag_136\n      jumpi\n      returndatacopy(0x00, 0x00, returndatasize)\n      revert(0x00, returndatasize)\n    tag_136:\n      pop\n      pop\n      pop\n      pop\n      mload(0x40)\n      returndatasize\n      not(0x1f)\n      0x1f\n      dup3\n      add\n      and\n      dup3\n      add\n      dup1\n      0x40\n      mstore\n      pop\n      dup2\n      add\n      swap1\n      tag_137\n      swap2\n      swap1\n      tag_138\n      jump\t// in\n    tag_137:\n        /* \"contracts/DistributeFunding.sol\":4990:5052  require(token.transfer(msg.sender, amount), \"Transfer failed\") */\n      tag_139\n      jumpi\n      mload(0x40)\n      0x08c379a000000000000000000000000000000000000000000000000000000000\n      dup2\n      mstore\n      0x04\n      add\n      tag_140\n      swap1\n      tag_141\n      jump\t// in\n    tag_140:\n      mload(0x40)\n      dup1\n      swap2\n      sub\n      swap1\n      revert\n    tag_139:\n        /* \"contracts/DistributeFunding.sol\":5083:5093  msg.sender */\n      caller\n        /* \"contracts/DistributeFunding.sol\":5068:5102  ShareWithdrawn(msg.sender, amount) */\n      0xffffffffffffffffffffffffffffffffffffffff\n      and\n      0x44d1ab781574735bc4050ac804fb34e512600e6cf637a801375f3ffa0b4b706f\n        /* \"contracts/DistributeFunding.sol\":5095:5101  amount */\n      dup4\n        /* \"contracts/DistributeFunding.sol\":5068:5102  ShareWithdrawn(msg.sender, amount) */\n      mload(0x40)\n      tag_142\n      swap2\n      swap1\n      tag_26\n      jump\t// in\n    tag_142:\n      mload(0x40)\n      dup1\n      swap2\n      sub\n      swap1\n      log2\n        /* \"contracts/DistributeFunding.sol\":4251:5110  {... */\n      pop\n      pop\n      pop\n      pop\n        /* \"contracts/DistributeFunding.sol\":4219:5110  function withdrawShare() public {... */\n      jump\t// out\n        /* \"contracts/DistributeFunding.sol\":625:676  mapping(address => uint256) public shareholderIndex */\n    tag_44:\n      mstore(0x20, 0x06)\n      dup1\n      0x00\n      mstore\n      keccak256(0x00, 0x40)\n      0x00\n      swap2\n      pop\n      swap1\n      pop\n      sload\n      dup2\n      jump\t// out\n        /* \"contracts/DistributeFunding.sol\":3641:4207  function receiveTokens() public beforeFundsReceived {... */\n    tag_47:\n        /* \"contracts/DistributeFunding.sol\":1406:1419  fundsReceived */\n      0x04\n      0x00\n      swap1\n      sload\n      swap1\n      0x0100\n      exp\n      swap1\n      div\n      0xff\n      and\n        /* \"contracts/DistributeFunding.sol\":1405:1419  !fundsReceived */\n      iszero\n        /* \"contracts/DistributeFunding.sol\":1397:1458  require(!fundsReceived, \"Cannot modify after funds received\") */\n      tag_144\n      jumpi\n      mload(0x40)\n      0x08c379a000000000000000000000000000000000000000000000000000000000\n      dup2\n      mstore\n      0x04\n      add\n      tag_145\n      swap1\n      tag_146\n      jump\t// in\n    tag_145:\n      mload(0x40)\n      dup1\n      swap2\n      sub\n      swap1\n      revert\n    tag_144:\n        /* \"contracts/DistributeFunding.sol\":3734:3735  0 */\n      0x00\n        /* \"contracts/DistributeFunding.sol\":3712:3724  shareholders */\n      0x05\n        /* \"contracts/DistributeFunding.sol\":3712:3731  shareholders.length */\n      dup1\n      sload\n      swap1\n      pop\n        /* \"contracts/DistributeFunding.sol\":3712:3735  shareholders.length > 0 */\n      gt\n        /* \"contracts/DistributeFunding.sol\":3704:3755  require(shareholders.length > 0, \"No shareholders\") */\n      tag_148\n      jumpi\n      mload(0x40)\n      0x08c379a000000000000000000000000000000000000000000000000000000000\n      dup2\n      mstore\n      0x04\n      add\n      tag_149\n      swap1\n      tag_150\n      jump\t// in\n    tag_149:\n      mload(0x40)\n      dup1\n      swap2\n      sub\n      swap1\n      revert\n    tag_148:\n        /* \"contracts/DistributeFunding.sol\":3805:3806  0 */\n      0x00\n        /* \"contracts/DistributeFunding.sol\":3774:3807  crowdFundingAddress != address(0) */\n      0xffffffffffffffffffffffffffffffffffffffff\n      and\n        /* \"contracts/DistributeFunding.sol\":3774:3793  crowdFundingAddress */\n      0x02\n      0x00\n      swap1\n      sload\n      swap1\n      0x0100\n      exp\n      swap1\n      div\n      0xffffffffffffffffffffffffffffffffffffffff\n      and\n        /* \"contracts/DistributeFunding.sol\":3774:3807  crowdFundingAddress != address(0) */\n      0xffffffffffffffffffffffffffffffffffffffff\n      and\n      sub\n        /* \"contracts/DistributeFunding.sol\":3766:3832  require(crowdFundingAddress != address(0), \"CrowdFunding not set\") */\n      tag_151\n      jumpi\n      mload(0x40)\n      0x08c379a000000000000000000000000000000000000000000000000000000000\n      dup2\n      mstore\n      0x04\n      add\n      tag_152\n      swap1\n      tag_153\n      jump\t// in\n    tag_152:\n      mload(0x40)\n      dup1\n      swap2\n      sub\n      swap1\n      revert\n    tag_151:\n        /* \"contracts/DistributeFunding.sol\":3865:3884  crowdFundingAddress */\n      0x02\n      0x00\n      swap1\n      sload\n      swap1\n      0x0100\n      exp\n      swap1\n      div\n      0xffffffffffffffffffffffffffffffffffffffff\n      and\n        /* \"contracts/DistributeFunding.sol\":3851:3884  msg.sender == crowdFundingAddress */\n      0xffffffffffffffffffffffffffffffffffffffff\n      and\n        /* \"contracts/DistributeFunding.sol\":3851:3861  msg.sender */\n      caller\n        /* \"contracts/DistributeFunding.sol\":3851:3884  msg.sender == crowdFundingAddress */\n      0xffffffffffffffffffffffffffffffffffffffff\n      and\n      eq\n        /* \"contracts/DistributeFunding.sol\":3843:3915  require(msg.sender == crowdFundingAddress, \"Only CrowdFunding contract\") */\n      tag_154\n      jumpi\n      mload(0x40)\n      0x08c379a000000000000000000000000000000000000000000000000000000000\n      dup2\n      mstore\n      0x04\n      add\n      tag_155\n      swap1\n      tag_156\n      jump\t// in\n    tag_155:\n      mload(0x40)\n      dup1\n      swap2\n      sub\n      swap1\n      revert\n    tag_154:\n        /* \"contracts/DistributeFunding.sol\":3936:3948  IERC20 token */\n      0x00\n        /* \"contracts/DistributeFunding.sol\":3958:3970  tokenAddress */\n      0x01\n      0x00\n      swap1\n      sload\n      swap1\n      0x0100\n      exp\n      swap1\n      div\n      0xffffffffffffffffffffffffffffffffffffffff\n      and\n        /* \"contracts/DistributeFunding.sol\":3936:3971  IERC20 token = IERC20(tokenAddress) */\n      swap1\n      pop\n        /* \"contracts/DistributeFunding.sol\":3982:3997  uint256 balance */\n      0x00\n        /* \"contracts/DistributeFunding.sol\":4000:4005  token */\n      dup2\n        /* \"contracts/DistributeFunding.sol\":4000:4015  token.balanceOf */\n      0xffffffffffffffffffffffffffffffffffffffff\n      and\n      0x70a08231\n        /* \"contracts/DistributeFunding.sol\":4024:4028  this */\n      address\n        /* \"contracts/DistributeFunding.sol\":4000:4030  token.balanceOf(address(this)) */\n      mload(0x40)\n      dup3\n      0xffffffff\n      and\n      0xe0\n      shl\n      dup2\n      mstore\n      0x04\n      add\n      tag_157\n      swap2\n      swap1\n      tag_61\n      jump\t// in\n    tag_157:\n      0x20\n      mload(0x40)\n      dup1\n      dup4\n      sub\n      dup2\n      dup7\n      gas\n      staticcall\n      iszero\n      dup1\n      iszero\n      tag_159\n      jumpi\n      returndatacopy(0x00, 0x00, returndatasize)\n      revert(0x00, returndatasize)\n    tag_159:\n      pop\n      pop\n      pop\n      pop\n      mload(0x40)\n      returndatasize\n      not(0x1f)\n      0x1f\n      dup3\n      add\n      and\n      dup3\n      add\n      dup1\n      0x40\n      mstore\n      pop\n      dup2\n      add\n      swap1\n      tag_160\n      swap2\n      swap1\n      tag_161\n      jump\t// in\n    tag_160:\n        /* \"contracts/DistributeFunding.sol\":3982:4030  uint256 balance = token.balanceOf(address(this)) */\n      swap1\n      pop\n        /* \"contracts/DistributeFunding.sol\":4059:4060  0 */\n      0x00\n        /* \"contracts/DistributeFunding.sol\":4049:4056  balance */\n      dup2\n        /* \"contracts/DistributeFunding.sol\":4049:4060  balance > 0 */\n      gt\n        /* \"contracts/DistributeFunding.sol\":4041:4074  require(balance > 0, \"No tokens\") */\n      tag_162\n      jumpi\n      mload(0x40)\n      0x08c379a000000000000000000000000000000000000000000000000000000000\n      dup2\n      mstore\n      0x04\n      add\n      tag_163\n      swap1\n      tag_129\n      jump\t// in\n    tag_163:\n      mload(0x40)\n      dup1\n      swap2\n      sub\n      swap1\n      revert\n    tag_162:\n        /* \"contracts/DistributeFunding.sol\":4111:4118  balance */\n      dup1\n        /* \"contracts/DistributeFunding.sol\":4095:4108  totalReceived */\n      0x03\n        /* \"contracts/DistributeFunding.sol\":4095:4118  totalReceived = balance */\n      dup2\n      swap1\n      sstore\n      pop\n        /* \"contracts/DistributeFunding.sol\":4145:4149  true */\n      0x01\n        /* \"contracts/DistributeFunding.sol\":4129:4142  fundsReceived */\n      0x04\n      0x00\n        /* \"contracts/DistributeFunding.sol\":4129:4149  fundsReceived = true */\n      0x0100\n      exp\n      dup2\n      sload\n      dup2\n      0xff\n      mul\n      not\n      and\n      swap1\n      dup4\n      iszero\n      iszero\n      mul\n      or\n      swap1\n      sstore\n      pop\n        /* \"contracts/DistributeFunding.sol\":4188:4198  msg.sender */\n      caller\n        /* \"contracts/DistributeFunding.sol\":4165:4199  FundsReceived(balance, msg.sender) */\n      0xffffffffffffffffffffffffffffffffffffffff\n      and\n      0xa0b6ed69c727bcce4cfdf30bc2777d7b7007d936b4a4dea135cbf6622fe4a58c\n        /* \"contracts/DistributeFunding.sol\":4179:4186  balance */\n      dup3\n        /* \"contracts/DistributeFunding.sol\":4165:4199  FundsReceived(balance, msg.sender) */\n      mload(0x40)\n      tag_164\n      swap2\n      swap1\n      tag_26\n      jump\t// in\n    tag_164:\n      mload(0x40)\n      dup1\n      swap2\n      sub\n      swap1\n      log2\n        /* \"contracts/DistributeFunding.sol\":3693:4207  {... */\n      pop\n      pop\n        /* \"contracts/DistributeFunding.sol\":3641:4207  function receiveTokens() public beforeFundsReceived {... */\n      jump\t// out\n        /* \"contracts/DistributeFunding.sol\":2074:3629  function addShareholder(address _shareholder, uint256 _percentage) public onlyOwner beforeFundsReceived {... */\n    tag_51:\n        /* \"contracts/DistributeFunding.sol\":1303:1308  owner */\n      0x00\n      0x00\n      swap1\n      sload\n      swap1\n      0x0100\n      exp\n      swap1\n      div\n      0xffffffffffffffffffffffffffffffffffffffff\n      and\n        /* \"contracts/DistributeFunding.sol\":1289:1308  msg.sender == owner */\n      0xffffffffffffffffffffffffffffffffffffffff\n      and\n        /* \"contracts/DistributeFunding.sol\":1289:1299  msg.sender */\n      caller\n        /* \"contracts/DistributeFunding.sol\":1289:1308  msg.sender == owner */\n      0xffffffffffffffffffffffffffffffffffffffff\n      and\n      eq\n        /* \"contracts/DistributeFunding.sol\":1281:1323  require(msg.sender == owner, \"Only owner\") */\n      tag_166\n      jumpi\n      mload(0x40)\n      0x08c379a000000000000000000000000000000000000000000000000000000000\n      dup2\n      mstore\n      0x04\n      add\n      tag_167\n      swap1\n      tag_168\n      jump\t// in\n    tag_167:\n      mload(0x40)\n      dup1\n      swap2\n      sub\n      swap1\n      revert\n    tag_166:\n        /* \"contracts/DistributeFunding.sol\":1406:1419  fundsReceived */\n      0x04\n      0x00\n      swap1\n      sload\n      swap1\n      0x0100\n      exp\n      swap1\n      div\n      0xff\n      and\n        /* \"contracts/DistributeFunding.sol\":1405:1419  !fundsReceived */\n      iszero\n        /* \"contracts/DistributeFunding.sol\":1397:1458  require(!fundsReceived, \"Cannot modify after funds received\") */\n      tag_170\n      jumpi\n      mload(0x40)\n      0x08c379a000000000000000000000000000000000000000000000000000000000\n      dup2\n      mstore\n      0x04\n      add\n      tag_171\n      swap1\n      tag_146\n      jump\t// in\n    tag_171:\n      mload(0x40)\n      dup1\n      swap2\n      sub\n      swap1\n      revert\n    tag_170:\n        /* \"contracts/DistributeFunding.sol\":2221:2222  0 */\n      0x00\n        /* \"contracts/DistributeFunding.sol\":2197:2223  _shareholder != address(0) */\n      0xffffffffffffffffffffffffffffffffffffffff\n      and\n        /* \"contracts/DistributeFunding.sol\":2197:2209  _shareholder */\n      dup3\n        /* \"contracts/DistributeFunding.sol\":2197:2223  _shareholder != address(0) */\n      0xffffffffffffffffffffffffffffffffffffffff\n      and\n      sub\n        /* \"contracts/DistributeFunding.sol\":2189:2243  require(_shareholder != address(0), \"Invalid address\") */\n      tag_173\n      jumpi\n      mload(0x40)\n      0x08c379a000000000000000000000000000000000000000000000000000000000\n      dup2\n      mstore\n      0x04\n      add\n      tag_174\n      swap1\n      tag_175\n      jump\t// in\n    tag_174:\n      mload(0x40)\n      dup1\n      swap2\n      sub\n      swap1\n      revert\n    tag_173:\n        /* \"contracts/DistributeFunding.sol\":2276:2277  0 */\n      0x00\n        /* \"contracts/DistributeFunding.sol\":2262:2273  _percentage */\n      dup2\n        /* \"contracts/DistributeFunding.sol\":2262:2277  _percentage > 0 */\n      gt\n        /* \"contracts/DistributeFunding.sol\":2254:2300  require(_percentage > 0, \"Invalid percentage\") */\n      tag_176\n      jumpi\n      mload(0x40)\n      0x08c379a000000000000000000000000000000000000000000000000000000000\n      dup2\n      mstore\n      0x04\n      add\n      tag_177\n      swap1\n      tag_178\n      jump\t// in\n    tag_177:\n      mload(0x40)\n      dup1\n      swap2\n      sub\n      swap1\n      revert\n    tag_176:\n        /* \"contracts/DistributeFunding.sol\":2321:2332  bool exists */\n      0x00\n        /* \"contracts/DistributeFunding.sol\":2335:2340  false */\n      0x00\n        /* \"contracts/DistributeFunding.sol\":2321:2340  bool exists = false */\n      swap1\n      pop\n        /* \"contracts/DistributeFunding.sol\":2351:2364  uint256 index */\n      0x00\n        /* \"contracts/DistributeFunding.sol\":2367:2368  0 */\n      0x00\n        /* \"contracts/DistributeFunding.sol\":2351:2368  uint256 index = 0 */\n      swap1\n      pop\n        /* \"contracts/DistributeFunding.sol\":2394:2403  uint256 i */\n      0x00\n        /* \"contracts/DistributeFunding.sol\":2406:2407  0 */\n      0x00\n        /* \"contracts/DistributeFunding.sol\":2394:2407  uint256 i = 0 */\n      swap1\n      pop\n        /* \"contracts/DistributeFunding.sol\":2389:2607  for (uint256 i = 0; i < shareholders.length; i++) {... */\n    tag_179:\n        /* \"contracts/DistributeFunding.sol\":2413:2425  shareholders */\n      0x05\n        /* \"contracts/DistributeFunding.sol\":2413:2432  shareholders.length */\n      dup1\n      sload\n      swap1\n      pop\n        /* \"contracts/DistributeFunding.sol\":2409:2410  i */\n      dup2\n        /* \"contracts/DistributeFunding.sol\":2409:2432  i < shareholders.length */\n      lt\n        /* \"contracts/DistributeFunding.sol\":2389:2607  for (uint256 i = 0; i < shareholders.length; i++) {... */\n      iszero\n      tag_180\n      jumpi\n        /* \"contracts/DistributeFunding.sol\":2482:2494  _shareholder */\n      dup5\n        /* \"contracts/DistributeFunding.sol\":2458:2494  shareholders[i].addr == _shareholder */\n      0xffffffffffffffffffffffffffffffffffffffff\n      and\n        /* \"contracts/DistributeFunding.sol\":2458:2470  shareholders */\n      0x05\n        /* \"contracts/DistributeFunding.sol\":2471:2472  i */\n      dup3\n        /* \"contracts/DistributeFunding.sol\":2458:2473  shareholders[i] */\n      dup2\n      sload\n      dup2\n      lt\n      tag_182\n      jumpi\n      tag_183\n      tag_91\n      jump\t// in\n    tag_183:\n    tag_182:\n      swap1\n      0x00\n      mstore\n      keccak256(0x00, 0x20)\n      swap1\n      0x03\n      mul\n      add\n        /* \"contracts/DistributeFunding.sol\":2458:2478  shareholders[i].addr */\n      0x00\n      add\n      0x00\n      swap1\n      sload\n      swap1\n      0x0100\n      exp\n      swap1\n      div\n      0xffffffffffffffffffffffffffffffffffffffff\n      and\n        /* \"contracts/DistributeFunding.sol\":2458:2494  shareholders[i].addr == _shareholder */\n      0xffffffffffffffffffffffffffffffffffffffff\n      and\n      sub\n        /* \"contracts/DistributeFunding.sol\":2454:2596  if (shareholders[i].addr == _shareholder) {... */\n      tag_185\n      jumpi\n        /* \"contracts/DistributeFunding.sol\":2524:2528  true */\n      0x01\n        /* \"contracts/DistributeFunding.sol\":2515:2528  exists = true */\n      swap3\n      pop\n        /* \"contracts/DistributeFunding.sol\":2555:2556  i */\n      dup1\n        /* \"contracts/DistributeFunding.sol\":2547:2556  index = i */\n      swap2\n      pop\n        /* \"contracts/DistributeFunding.sol\":2575:2580  break */\n      jump(tag_180)\n        /* \"contracts/DistributeFunding.sol\":2454:2596  if (shareholders[i].addr == _shareholder) {... */\n    tag_185:\n        /* \"contracts/DistributeFunding.sol\":2434:2437  i++ */\n      dup1\n      dup1\n      0x01\n      add\n      swap2\n      pop\n      pop\n        /* \"contracts/DistributeFunding.sol\":2389:2607  for (uint256 i = 0; i < shareholders.length; i++) {... */\n      jump(tag_179)\n    tag_180:\n      pop\n        /* \"contracts/DistributeFunding.sol\":2631:2637  exists */\n      dup2\n        /* \"contracts/DistributeFunding.sol\":2627:3622  if (exists) {... */\n      iszero\n      tag_186\n      jumpi\n        /* \"contracts/DistributeFunding.sol\":2654:2675  uint256 oldPercentage */\n      0x00\n        /* \"contracts/DistributeFunding.sol\":2678:2690  shareholders */\n      0x05\n        /* \"contracts/DistributeFunding.sol\":2691:2696  index */\n      dup3\n        /* \"contracts/DistributeFunding.sol\":2678:2697  shareholders[index] */\n      dup2\n      sload\n      dup2\n      lt\n      tag_187\n      jumpi\n      tag_188\n      tag_91\n      jump\t// in\n    tag_188:\n    tag_187:\n      swap1\n      0x00\n      mstore\n      keccak256(0x00, 0x20)\n      swap1\n      0x03\n      mul\n      add\n        /* \"contracts/DistributeFunding.sol\":2678:2708  shareholders[index].percentage */\n      0x01\n      add\n      sload\n        /* \"contracts/DistributeFunding.sol\":2654:2708  uint256 oldPercentage = shareholders[index].percentage */\n      swap1\n      pop\n        /* \"contracts/DistributeFunding.sol\":2789:2792  100 */\n      0x64\n        /* \"contracts/DistributeFunding.sol\":2774:2785  _percentage */\n      dup5\n        /* \"contracts/DistributeFunding.sol\":2758:2771  oldPercentage */\n      dup3\n        /* \"contracts/DistributeFunding.sol\":2731:2755  totalAllocatedPercentage */\n      sload(0x07)\n        /* \"contracts/DistributeFunding.sol\":2731:2771  totalAllocatedPercentage - oldPercentage */\n      tag_190\n      swap2\n      swap1\n      tag_191\n      jump\t// in\n    tag_190:\n        /* \"contracts/DistributeFunding.sol\":2731:2785  totalAllocatedPercentage - oldPercentage + _percentage */\n      tag_192\n      swap2\n      swap1\n      tag_193\n      jump\t// in\n    tag_192:\n        /* \"contracts/DistributeFunding.sol\":2731:2792  totalAllocatedPercentage - oldPercentage + _percentage <= 100 */\n      gt\n      iszero\n        /* \"contracts/DistributeFunding.sol\":2723:2809  require(totalAllocatedPercentage - oldPercentage + _percentage <= 100, \"Exceeds 100%\") */\n      tag_194\n      jumpi\n      mload(0x40)\n      0x08c379a000000000000000000000000000000000000000000000000000000000\n      dup2\n      mstore\n      0x04\n      add\n      tag_195\n      swap1\n      tag_196\n      jump\t// in\n    tag_195:\n      mload(0x40)\n      dup1\n      swap2\n      sub\n      swap1\n      revert\n    tag_194:\n        /* \"contracts/DistributeFunding.sol\":2894:2905  _percentage */\n      dup4\n        /* \"contracts/DistributeFunding.sol\":2878:2891  oldPercentage */\n      dup2\n        /* \"contracts/DistributeFunding.sol\":2851:2875  totalAllocatedPercentage */\n      sload(0x07)\n        /* \"contracts/DistributeFunding.sol\":2851:2891  totalAllocatedPercentage - oldPercentage */\n      tag_197\n      swap2\n      swap1\n      tag_191\n      jump\t// in\n    tag_197:\n        /* \"contracts/DistributeFunding.sol\":2851:2905  totalAllocatedPercentage - oldPercentage + _percentage */\n      tag_198\n      swap2\n      swap1\n      tag_193\n      jump\t// in\n    tag_198:\n        /* \"contracts/DistributeFunding.sol\":2824:2848  totalAllocatedPercentage */\n      0x07\n        /* \"contracts/DistributeFunding.sol\":2824:2905  totalAllocatedPercentage = totalAllocatedPercentage - oldPercentage + _percentage */\n      dup2\n      swap1\n      sstore\n      pop\n        /* \"contracts/DistributeFunding.sol\":2953:2964  _percentage */\n      dup4\n        /* \"contracts/DistributeFunding.sol\":2920:2932  shareholders */\n      0x05\n        /* \"contracts/DistributeFunding.sol\":2933:2938  index */\n      dup4\n        /* \"contracts/DistributeFunding.sol\":2920:2939  shareholders[index] */\n      dup2\n      sload\n      dup2\n      lt\n      tag_199\n      jumpi\n      tag_200\n      tag_91\n      jump\t// in\n    tag_200:\n    tag_199:\n      swap1\n      0x00\n      mstore\n      keccak256(0x00, 0x20)\n      swap1\n      0x03\n      mul\n      add\n        /* \"contracts/DistributeFunding.sol\":2920:2950  shareholders[index].percentage */\n      0x01\n      add\n        /* \"contracts/DistributeFunding.sol\":2920:2964  shareholders[index].percentage = _percentage */\n      dup2\n      swap1\n      sstore\n      pop\n        /* \"contracts/DistributeFunding.sol\":3003:3015  _shareholder */\n      dup5\n        /* \"contracts/DistributeFunding.sol\":2984:3044  ShareholderUpdated(_shareholder, oldPercentage, _percentage) */\n      0xffffffffffffffffffffffffffffffffffffffff\n      and\n      0xc7ce19f077ef8efce4ee2b5a828fce80c50fbe4bed9e59245675509d04cbee79\n        /* \"contracts/DistributeFunding.sol\":3017:3030  oldPercentage */\n      dup3\n        /* \"contracts/DistributeFunding.sol\":3032:3043  _percentage */\n      dup7\n        /* \"contracts/DistributeFunding.sol\":2984:3044  ShareholderUpdated(_shareholder, oldPercentage, _percentage) */\n      mload(0x40)\n      tag_202\n      swap3\n      swap2\n      swap1\n      tag_203\n      jump\t// in\n    tag_202:\n      mload(0x40)\n      dup1\n      swap2\n      sub\n      swap1\n      log2\n        /* \"contracts/DistributeFunding.sol\":2639:3056  {... */\n      pop\n        /* \"contracts/DistributeFunding.sol\":2627:3622  if (exists) {... */\n      jump(tag_204)\n    tag_186:\n        /* \"contracts/DistributeFunding.sol\":3127:3130  100 */\n      0x64\n        /* \"contracts/DistributeFunding.sol\":3112:3123  _percentage */\n      dup4\n        /* \"contracts/DistributeFunding.sol\":3085:3109  totalAllocatedPercentage */\n      sload(0x07)\n        /* \"contracts/DistributeFunding.sol\":3085:3123  totalAllocatedPercentage + _percentage */\n      tag_205\n      swap2\n      swap1\n      tag_193\n      jump\t// in\n    tag_205:\n        /* \"contracts/DistributeFunding.sol\":3085:3130  totalAllocatedPercentage + _percentage <= 100 */\n      gt\n      iszero\n        /* \"contracts/DistributeFunding.sol\":3077:3147  require(totalAllocatedPercentage + _percentage <= 100, \"Exceeds 100%\") */\n      tag_206\n      jumpi\n      mload(0x40)\n      0x08c379a000000000000000000000000000000000000000000000000000000000\n      dup2\n      mstore\n      0x04\n      add\n      tag_207\n      swap1\n      tag_196\n      jump\t// in\n    tag_207:\n      mload(0x40)\n      dup1\n      swap2\n      sub\n      swap1\n      revert\n    tag_206:\n        /* \"contracts/DistributeFunding.sol\":3162:3195  Shareholder memory newShareholder */\n      0x00\n        /* \"contracts/DistributeFunding.sol\":3198:3374  Shareholder({... */\n      mload(0x40)\n      dup1\n      0x80\n      add\n      0x40\n      mstore\n      dup1\n        /* \"contracts/DistributeFunding.sol\":3235:3247  _shareholder */\n      dup7\n        /* \"contracts/DistributeFunding.sol\":3198:3374  Shareholder({... */\n      0xffffffffffffffffffffffffffffffffffffffff\n      and\n      dup2\n      mstore\n      0x20\n      add\n        /* \"contracts/DistributeFunding.sol\":3278:3289  _percentage */\n      dup6\n        /* \"contracts/DistributeFunding.sol\":3198:3374  Shareholder({... */\n      dup2\n      mstore\n      0x20\n      add\n        /* \"contracts/DistributeFunding.sol\":3322:3327  false */\n      0x00\n        /* \"contracts/DistributeFunding.sol\":3198:3374  Shareholder({... */\n      iszero\n      iszero\n      dup2\n      mstore\n      0x20\n      add\n        /* \"contracts/DistributeFunding.sol\":3354:3358  true */\n      0x01\n        /* \"contracts/DistributeFunding.sol\":3198:3374  Shareholder({... */\n      iszero\n      iszero\n      dup2\n      mstore\n      pop\n        /* \"contracts/DistributeFunding.sol\":3162:3374  Shareholder memory newShareholder = Shareholder({... */\n      swap1\n      pop\n        /* \"contracts/DistributeFunding.sol\":3389:3401  shareholders */\n      0x05\n        /* \"contracts/DistributeFunding.sol\":3407:3421  newShareholder */\n      dup2\n        /* \"contracts/DistributeFunding.sol\":3389:3422  shareholders.push(newShareholder) */\n      swap1\n      dup1\n      0x01\n      dup2\n      sload\n      add\n      dup1\n      dup3\n      sstore\n      dup1\n      swap2\n      pop\n      pop\n      0x01\n      swap1\n      sub\n      swap1\n      0x00\n      mstore\n      keccak256(0x00, 0x20)\n      swap1\n      0x03\n      mul\n      add\n      0x00\n      swap1\n      swap2\n      swap1\n      swap2\n      swap1\n      swap2\n      pop\n      0x00\n      dup3\n      add\n      mload\n      dup2\n      0x00\n      add\n      exp(0x0100, 0x00)\n      dup2\n      sload\n      dup2\n      0xffffffffffffffffffffffffffffffffffffffff\n      mul\n      not\n      and\n      swap1\n      dup4\n      0xffffffffffffffffffffffffffffffffffffffff\n      and\n      mul\n      or\n      swap1\n      sstore\n      pop\n      0x20\n      dup3\n      add\n      mload\n      dup2\n      0x01\n      add\n      sstore\n      0x40\n      dup3\n      add\n      mload\n      dup2\n      0x02\n      add\n      exp(0x0100, 0x00)\n      dup2\n      sload\n      dup2\n      0xff\n      mul\n      not\n      and\n      swap1\n      dup4\n      iszero\n      iszero\n      mul\n      or\n      swap1\n      sstore\n      pop\n      0x60\n      dup3\n      add\n      mload\n      dup2\n      0x02\n      add\n      exp(0x0100, 0x01)\n      dup2\n      sload\n      dup2\n      0xff\n      mul\n      not\n      and\n      swap1\n      dup4\n      iszero\n      iszero\n      mul\n      or\n      swap1\n      sstore\n      pop\n      pop\n      pop\n        /* \"contracts/DistributeFunding.sol\":3492:3493  1 */\n      0x01\n        /* \"contracts/DistributeFunding.sol\":3470:3482  shareholders */\n      0x05\n        /* \"contracts/DistributeFunding.sol\":3470:3489  shareholders.length */\n      dup1\n      sload\n      swap1\n      pop\n        /* \"contracts/DistributeFunding.sol\":3470:3493  shareholders.length - 1 */\n      tag_209\n      swap2\n      swap1\n      tag_191\n      jump\t// in\n    tag_209:\n        /* \"contracts/DistributeFunding.sol\":3437:3453  shareholderIndex */\n      0x06\n        /* \"contracts/DistributeFunding.sol\":3437:3467  shareholderIndex[_shareholder] */\n      0x00\n        /* \"contracts/DistributeFunding.sol\":3454:3466  _shareholder */\n      dup8\n        /* \"contracts/DistributeFunding.sol\":3437:3467  shareholderIndex[_shareholder] */\n      0xffffffffffffffffffffffffffffffffffffffff\n      and\n      0xffffffffffffffffffffffffffffffffffffffff\n      and\n      dup2\n      mstore\n      0x20\n      add\n      swap1\n      dup2\n      mstore\n      0x20\n      add\n      0x00\n      keccak256\n        /* \"contracts/DistributeFunding.sol\":3437:3493  shareholderIndex[_shareholder] = shareholders.length - 1 */\n      dup2\n      swap1\n      sstore\n      pop\n        /* \"contracts/DistributeFunding.sol\":3536:3547  _percentage */\n      dup4\n        /* \"contracts/DistributeFunding.sol\":3508:3532  totalAllocatedPercentage */\n      0x07\n      0x00\n        /* \"contracts/DistributeFunding.sol\":3508:3547  totalAllocatedPercentage += _percentage */\n      dup3\n      dup3\n      sload\n      tag_210\n      swap2\n      swap1\n      tag_193\n      jump\t// in\n    tag_210:\n      swap3\n      pop\n      pop\n      dup2\n      swap1\n      sstore\n      pop\n        /* \"contracts/DistributeFunding.sol\":3584:3596  _shareholder */\n      dup5\n        /* \"contracts/DistributeFunding.sol\":3567:3610  ShareholderAdded(_shareholder, _percentage) */\n      0xffffffffffffffffffffffffffffffffffffffff\n      and\n      0x3bc19114ca6a687ffd9445c87615db284e96364365d72b010ec53244b45e561b\n        /* \"contracts/DistributeFunding.sol\":3598:3609  _percentage */\n      dup6\n        /* \"contracts/DistributeFunding.sol\":3567:3610  ShareholderAdded(_shareholder, _percentage) */\n      mload(0x40)\n      tag_211\n      swap2\n      swap1\n      tag_26\n      jump\t// in\n    tag_211:\n      mload(0x40)\n      dup1\n      swap2\n      sub\n      swap1\n      log2\n        /* \"contracts/DistributeFunding.sol\":3062:3622  {... */\n      pop\n        /* \"contracts/DistributeFunding.sol\":2627:3622  if (exists) {... */\n    tag_204:\n        /* \"contracts/DistributeFunding.sol\":2178:3629  {... */\n      pop\n      pop\n        /* \"contracts/DistributeFunding.sol\":2074:3629  function addShareholder(address _shareholder, uint256 _percentage) public onlyOwner beforeFundsReceived {... */\n      pop\n      pop\n      jump\t// out\n        /* \"contracts/DistributeFunding.sol\":6036:6145  function getTotalAllocated() public view returns (uint256) {... */\n    tag_53:\n        /* \"contracts/DistributeFunding.sol\":6086:6093  uint256 */\n      0x00\n        /* \"contracts/DistributeFunding.sol\":6113:6137  totalAllocatedPercentage */\n      sload(0x07)\n        /* \"contracts/DistributeFunding.sol\":6106:6137  return totalAllocatedPercentage */\n      swap1\n      pop\n        /* \"contracts/DistributeFunding.sol\":6036:6145  function getTotalAllocated() public view returns (uint256) {... */\n      swap1\n      jump\t// out\n        /* \"contracts/DistributeFunding.sol\":1776:2062  function setCrowdFundingAddress(address _crowdFundingAddress) public onlyOwner beforeFundsReceived {... */\n    tag_57:\n        /* \"contracts/DistributeFunding.sol\":1303:1308  owner */\n      0x00\n      0x00\n      swap1\n      sload\n      swap1\n      0x0100\n      exp\n      swap1\n      div\n      0xffffffffffffffffffffffffffffffffffffffff\n      and\n        /* \"contracts/DistributeFunding.sol\":1289:1308  msg.sender == owner */\n      0xffffffffffffffffffffffffffffffffffffffff\n      and\n        /* \"contracts/DistributeFunding.sol\":1289:1299  msg.sender */\n      caller\n        /* \"contracts/DistributeFunding.sol\":1289:1308  msg.sender == owner */\n      0xffffffffffffffffffffffffffffffffffffffff\n      and\n      eq\n        /* \"contracts/DistributeFunding.sol\":1281:1323  require(msg.sender == owner, \"Only owner\") */\n      tag_214\n      jumpi\n      mload(0x40)\n      0x08c379a000000000000000000000000000000000000000000000000000000000\n      dup2\n      mstore\n      0x04\n      add\n      tag_215\n      swap1\n      tag_168\n      jump\t// in\n    tag_215:\n      mload(0x40)\n      dup1\n      swap2\n      sub\n      swap1\n      revert\n    tag_214:\n        /* \"contracts/DistributeFunding.sol\":1406:1419  fundsReceived */\n      0x04\n      0x00\n      swap1\n      sload\n      swap1\n      0x0100\n      exp\n      swap1\n      div\n      0xff\n      and\n        /* \"contracts/DistributeFunding.sol\":1405:1419  !fundsReceived */\n      iszero\n        /* \"contracts/DistributeFunding.sol\":1397:1458  require(!fundsReceived, \"Cannot modify after funds received\") */\n      tag_217\n      jumpi\n      mload(0x40)\n      0x08c379a000000000000000000000000000000000000000000000000000000000\n      dup2\n      mstore\n      0x04\n      add\n      tag_218\n      swap1\n      tag_146\n      jump\t// in\n    tag_218:\n      mload(0x40)\n      dup1\n      swap2\n      sub\n      swap1\n      revert\n    tag_217:\n        /* \"contracts/DistributeFunding.sol\":1926:1927  0 */\n      0x00\n        /* \"contracts/DistributeFunding.sol\":1894:1928  _crowdFundingAddress != address(0) */\n      0xffffffffffffffffffffffffffffffffffffffff\n      and\n        /* \"contracts/DistributeFunding.sol\":1894:1914  _crowdFundingAddress */\n      dup2\n        /* \"contracts/DistributeFunding.sol\":1894:1928  _crowdFundingAddress != address(0) */\n      0xffffffffffffffffffffffffffffffffffffffff\n      and\n      sub\n        /* \"contracts/DistributeFunding.sol\":1886:1948  require(_crowdFundingAddress != address(0), \"Invalid address\") */\n      tag_220\n      jumpi\n      mload(0x40)\n      0x08c379a000000000000000000000000000000000000000000000000000000000\n      dup2\n      mstore\n      0x04\n      add\n      tag_221\n      swap1\n      tag_175\n      jump\t// in\n    tag_221:\n      mload(0x40)\n      dup1\n      swap2\n      sub\n      swap1\n      revert\n    tag_220:\n        /* \"contracts/DistributeFunding.sol\":1981:2001  _crowdFundingAddress */\n      dup1\n        /* \"contracts/DistributeFunding.sol\":1959:1978  crowdFundingAddress */\n      0x02\n      0x00\n        /* \"contracts/DistributeFunding.sol\":1959:2001  crowdFundingAddress = _crowdFundingAddress */\n      0x0100\n      exp\n      dup2\n      sload\n      dup2\n      0xffffffffffffffffffffffffffffffffffffffff\n      mul\n      not\n      and\n      swap1\n      dup4\n      0xffffffffffffffffffffffffffffffffffffffff\n      and\n      mul\n      or\n      swap1\n      sstore\n      pop\n        /* \"contracts/DistributeFunding.sol\":2033:2053  _crowdFundingAddress */\n      dup1\n        /* \"contracts/DistributeFunding.sol\":2017:2054  CrowdFundingSet(_crowdFundingAddress) */\n      0xffffffffffffffffffffffffffffffffffffffff\n      and\n      0x93e1a26ffb45db2847026d24714c335023c27e761943052f3e687dc407c680b3\n      mload(0x40)\n      mload(0x40)\n      dup1\n      swap2\n      sub\n      swap1\n      log2\n        /* \"contracts/DistributeFunding.sol\":1776:2062  function setCrowdFundingAddress(address _crowdFundingAddress) public onlyOwner beforeFundsReceived {... */\n      pop\n      jump\t// out\n        /* \"contracts/DistributeFunding.sol\":410:430  address public owner */\n    tag_59:\n      0x00\n      0x00\n      swap1\n      sload\n      swap1\n      0x0100\n      exp\n      swap1\n      div\n      0xffffffffffffffffffffffffffffffffffffffff\n      and\n      dup2\n      jump\t// out\n        /* \"contracts/DistributeFunding.sol\":471:505  address public crowdFundingAddress */\n    tag_63:\n      0x02\n      0x00\n      swap1\n      sload\n      swap1\n      0x0100\n      exp\n      swap1\n      div\n      0xffffffffffffffffffffffffffffffffffffffff\n      and\n      dup2\n      jump\t// out\n        /* \"contracts/DistributeFunding.sol\":437:464  address public tokenAddress */\n    tag_66:\n      0x01\n      0x00\n      swap1\n      sload\n      swap1\n      0x0100\n      exp\n      swap1\n      div\n      0xffffffffffffffffffffffffffffffffffffffff\n      and\n      dup2\n      jump\t// out\n        /* \"contracts/DistributeFunding.sol\":512:540  uint256 public totalReceived */\n    tag_69:\n      sload(0x03)\n      dup2\n      jump\t// out\n        /* \"contracts/DistributeFunding.sol\":585:618  Shareholder[] public shareholders */\n    tag_74:\n      0x05\n      dup2\n      dup2\n      sload\n      dup2\n      lt\n      tag_222\n      jumpi\n      0x00\n      dup1\n      revert\n    tag_222:\n      swap1\n      0x00\n      mstore\n      keccak256(0x00, 0x20)\n      swap1\n      0x03\n      mul\n      add\n      0x00\n      swap2\n      pop\n      swap1\n      pop\n      dup1\n      0x00\n      add\n      0x00\n      swap1\n      sload\n      swap1\n      0x0100\n      exp\n      swap1\n      div\n      0xffffffffffffffffffffffffffffffffffffffff\n      and\n      swap1\n      dup1\n      0x01\n      add\n      sload\n      swap1\n      dup1\n      0x02\n      add\n      0x00\n      swap1\n      sload\n      swap1\n      0x0100\n      exp\n      swap1\n      div\n      0xff\n      and\n      swap1\n      dup1\n      0x02\n      add\n      0x01\n      swap1\n      sload\n      swap1\n      0x0100\n      exp\n      swap1\n      div\n      0xff\n      and\n      swap1\n      pop\n      dup5\n      jump\t// out\n        /* \"contracts/DistributeFunding.sol\":6157:6471  function getShareholderAtIndex(uint256 _index) public view returns (address addr, uint256 percentage, bool hasWithdrawn) {... */\n    tag_79:\n        /* \"contracts/DistributeFunding.sol\":6225:6237  address addr */\n      0x00\n        /* \"contracts/DistributeFunding.sol\":6239:6257  uint256 percentage */\n      0x00\n        /* \"contracts/DistributeFunding.sol\":6259:6276  bool hasWithdrawn */\n      0x00\n        /* \"contracts/DistributeFunding.sol\":6306:6318  shareholders */\n      0x05\n        /* \"contracts/DistributeFunding.sol\":6306:6325  shareholders.length */\n      dup1\n      sload\n      swap1\n      pop\n        /* \"contracts/DistributeFunding.sol\":6297:6303  _index */\n      dup5\n        /* \"contracts/DistributeFunding.sol\":6297:6325  _index < shareholders.length */\n      lt\n        /* \"contracts/DistributeFunding.sol\":6289:6349  require(_index < shareholders.length, \"Index out of bounds\") */\n      tag_225\n      jumpi\n      mload(0x40)\n      0x08c379a000000000000000000000000000000000000000000000000000000000\n      dup2\n      mstore\n      0x04\n      add\n      tag_226\n      swap1\n      tag_227\n      jump\t// in\n    tag_226:\n      mload(0x40)\n      dup1\n      swap2\n      sub\n      swap1\n      revert\n    tag_225:\n        /* \"contracts/DistributeFunding.sol\":6360:6381  Shareholder memory sh */\n      0x00\n        /* \"contracts/DistributeFunding.sol\":6384:6396  shareholders */\n      0x05\n        /* \"contracts/DistributeFunding.sol\":6397:6403  _index */\n      dup6\n        /* \"contracts/DistributeFunding.sol\":6384:6404  shareholders[_index] */\n      dup2\n      sload\n      dup2\n      lt\n      tag_228\n      jumpi\n      tag_229\n      tag_91\n      jump\t// in\n    tag_229:\n    tag_228:\n      swap1\n      0x00\n      mstore\n      keccak256(0x00, 0x20)\n      swap1\n      0x03\n      mul\n      add\n        /* \"contracts/DistributeFunding.sol\":6360:6404  Shareholder memory sh = shareholders[_index] */\n      mload(0x40)\n      dup1\n      0x80\n      add\n      0x40\n      mstore\n      swap1\n      dup2\n      0x00\n      dup3\n      add\n      0x00\n      swap1\n      sload\n      swap1\n      0x0100\n      exp\n      swap1\n      div\n      0xffffffffffffffffffffffffffffffffffffffff\n      and\n      0xffffffffffffffffffffffffffffffffffffffff\n      and\n      0xffffffffffffffffffffffffffffffffffffffff\n      and\n      dup2\n      mstore\n      0x20\n      add\n      0x01\n      dup3\n      add\n      sload\n      dup2\n      mstore\n      0x20\n      add\n      0x02\n      dup3\n      add\n      0x00\n      swap1\n      sload\n      swap1\n      0x0100\n      exp\n      swap1\n      div\n      0xff\n      and\n      iszero\n      iszero\n      iszero\n      iszero\n      dup2\n      mstore\n      0x20\n      add\n      0x02\n      dup3\n      add\n      0x01\n      swap1\n      sload\n      swap1\n      0x0100\n      exp\n      swap1\n      div\n      0xff\n      and\n      iszero\n      iszero\n      iszero\n      iszero\n      dup2\n      mstore\n      pop\n      pop\n      swap1\n      pop\n        /* \"contracts/DistributeFunding.sol\":6423:6425  sh */\n      dup1\n        /* \"contracts/DistributeFunding.sol\":6423:6430  sh.addr */\n      0x00\n      add\n      mload\n        /* \"contracts/DistributeFunding.sol\":6432:6434  sh */\n      dup2\n        /* \"contracts/DistributeFunding.sol\":6432:6445  sh.percentage */\n      0x20\n      add\n      mload\n        /* \"contracts/DistributeFunding.sol\":6447:6449  sh */\n      dup3\n        /* \"contracts/DistributeFunding.sol\":6447:6462  sh.hasWithdrawn */\n      0x40\n      add\n      mload\n        /* \"contracts/DistributeFunding.sol\":6415:6463  return (sh.addr, sh.percentage, sh.hasWithdrawn) */\n      swap4\n      pop\n      swap4\n      pop\n      swap4\n      pop\n      pop\n        /* \"contracts/DistributeFunding.sol\":6157:6471  function getShareholderAtIndex(uint256 _index) public view returns (address addr, uint256 percentage, bool hasWithdrawn) {... */\n      swap2\n      swap4\n      swap1\n      swap3\n      pop\n      jump\t// out\n        /* \"contracts/DistributeFunding.sol\":5122:5512  function withdrawRemaining() public onlyOwner {... */\n    tag_83:\n        /* \"contracts/DistributeFunding.sol\":1303:1308  owner */\n      0x00\n      0x00\n      swap1\n      sload\n      swap1\n      0x0100\n      exp\n      swap1\n      div\n      0xffffffffffffffffffffffffffffffffffffffff\n      and\n        /* \"contracts/DistributeFunding.sol\":1289:1308  msg.sender == owner */\n      0xffffffffffffffffffffffffffffffffffffffff\n      and\n        /* \"contracts/DistributeFunding.sol\":1289:1299  msg.sender */\n      caller\n        /* \"contracts/DistributeFunding.sol\":1289:1308  msg.sender == owner */\n      0xffffffffffffffffffffffffffffffffffffffff\n      and\n      eq\n        /* \"contracts/DistributeFunding.sol\":1281:1323  require(msg.sender == owner, \"Only owner\") */\n      tag_232\n      jumpi\n      mload(0x40)\n      0x08c379a000000000000000000000000000000000000000000000000000000000\n      dup2\n      mstore\n      0x04\n      add\n      tag_233\n      swap1\n      tag_168\n      jump\t// in\n    tag_233:\n      mload(0x40)\n      dup1\n      swap2\n      sub\n      swap1\n      revert\n    tag_232:\n        /* \"contracts/DistributeFunding.sol\":5187:5200  fundsReceived */\n      0x04\n      0x00\n      swap1\n      sload\n      swap1\n      0x0100\n      exp\n      swap1\n      div\n      0xff\n      and\n        /* \"contracts/DistributeFunding.sol\":5179:5223  require(fundsReceived, \"Funds not received\") */\n      tag_235\n      jumpi\n      mload(0x40)\n      0x08c379a000000000000000000000000000000000000000000000000000000000\n      dup2\n      mstore\n      0x04\n      add\n      tag_236\n      swap1\n      tag_103\n      jump\t// in\n    tag_236:\n      mload(0x40)\n      dup1\n      swap2\n      sub\n      swap1\n      revert\n    tag_235:\n        /* \"contracts/DistributeFunding.sol\":5244:5256  IERC20 token */\n      0x00\n        /* \"contracts/DistributeFunding.sol\":5266:5278  tokenAddress */\n      0x01\n      0x00\n      swap1\n      sload\n      swap1\n      0x0100\n      exp\n      swap1\n      div\n      0xffffffffffffffffffffffffffffffffffffffff\n      and\n        /* \"contracts/DistributeFunding.sol\":5244:5279  IERC20 token = IERC20(tokenAddress) */\n      swap1\n      pop\n        /* \"contracts/DistributeFunding.sol\":5290:5305  uint256 balance */\n      0x00\n        /* \"contracts/DistributeFunding.sol\":5308:5313  token */\n      dup2\n        /* \"contracts/DistributeFunding.sol\":5308:5323  token.balanceOf */\n      0xffffffffffffffffffffffffffffffffffffffff\n      and\n      0x70a08231\n        /* \"contracts/DistributeFunding.sol\":5332:5336  this */\n      address\n        /* \"contracts/DistributeFunding.sol\":5308:5338  token.balanceOf(address(this)) */\n      mload(0x40)\n      dup3\n      0xffffffff\n      and\n      0xe0\n      shl\n      dup2\n      mstore\n      0x04\n      add\n      tag_237\n      swap2\n      swap1\n      tag_61\n      jump\t// in\n    tag_237:\n      0x20\n      mload(0x40)\n      dup1\n      dup4\n      sub\n      dup2\n      dup7\n      gas\n      staticcall\n      iszero\n      dup1\n      iszero\n      tag_239\n      jumpi\n      returndatacopy(0x00, 0x00, returndatasize)\n      revert(0x00, returndatasize)\n    tag_239:\n      pop\n      pop\n      pop\n      pop\n      mload(0x40)\n      returndatasize\n      not(0x1f)\n      0x1f\n      dup3\n      add\n      and\n      dup3\n      add\n      dup1\n      0x40\n      mstore\n      pop\n      dup2\n      add\n      swap1\n      tag_240\n      swap2\n      swap1\n      tag_161\n      jump\t// in\n    tag_240:\n        /* \"contracts/DistributeFunding.sol\":5290:5338  uint256 balance = token.balanceOf(address(this)) */\n      swap1\n      pop\n        /* \"contracts/DistributeFunding.sol\":5367:5368  0 */\n      0x00\n        /* \"contracts/DistributeFunding.sol\":5357:5364  balance */\n      dup2\n        /* \"contracts/DistributeFunding.sol\":5357:5368  balance > 0 */\n      gt\n        /* \"contracts/DistributeFunding.sol\":5349:5385  require(balance > 0, \"No remaining\") */\n      tag_241\n      jumpi\n      mload(0x40)\n      0x08c379a000000000000000000000000000000000000000000000000000000000\n      dup2\n      mstore\n      0x04\n      add\n      tag_242\n      swap1\n      tag_243\n      jump\t// in\n    tag_242:\n      mload(0x40)\n      dup1\n      swap2\n      sub\n      swap1\n      revert\n    tag_241:\n        /* \"contracts/DistributeFunding.sol\":5404:5409  token */\n      dup2\n        /* \"contracts/DistributeFunding.sol\":5404:5418  token.transfer */\n      0xffffffffffffffffffffffffffffffffffffffff\n      and\n      0xa9059cbb\n        /* \"contracts/DistributeFunding.sol\":5419:5424  owner */\n      0x00\n      0x00\n      swap1\n      sload\n      swap1\n      0x0100\n      exp\n      swap1\n      div\n      0xffffffffffffffffffffffffffffffffffffffff\n      and\n        /* \"contracts/DistributeFunding.sol\":5426:5433  balance */\n      dup4\n        /* \"contracts/DistributeFunding.sol\":5404:5434  token.transfer(owner, balance) */\n      mload(0x40)\n      dup4\n      0xffffffff\n      and\n      0xe0\n      shl\n      dup2\n      mstore\n      0x04\n      add\n      tag_244\n      swap3\n      swap2\n      swap1\n      tag_134\n      jump\t// in\n    tag_244:\n      0x20\n      mload(0x40)\n      dup1\n      dup4\n      sub\n      dup2\n      0x00\n      dup8\n      gas\n      call\n      iszero\n      dup1\n      iszero\n      tag_246\n      jumpi\n      returndatacopy(0x00, 0x00, returndatasize)\n      revert(0x00, returndatasize)\n    tag_246:\n      pop\n      pop\n      pop\n      pop\n      mload(0x40)\n      returndatasize\n      not(0x1f)\n      0x1f\n      dup3\n      add\n      and\n      dup3\n      add\n      dup1\n      0x40\n      mstore\n      pop\n      dup2\n      add\n      swap1\n      tag_247\n      swap2\n      swap1\n      tag_138\n      jump\t// in\n    tag_247:\n        /* \"contracts/DistributeFunding.sol\":5396:5454  require(token.transfer(owner, balance), \"Transfer failed\") */\n      tag_248\n      jumpi\n      mload(0x40)\n      0x08c379a000000000000000000000000000000000000000000000000000000000\n      dup2\n      mstore\n      0x04\n      add\n      tag_249\n      swap1\n      tag_141\n      jump\t// in\n    tag_249:\n      mload(0x40)\n      dup1\n      swap2\n      sub\n      swap1\n      revert\n    tag_248:\n        /* \"contracts/DistributeFunding.sol\":5489:5494  owner */\n      0x00\n      0x00\n      swap1\n      sload\n      swap1\n      0x0100\n      exp\n      swap1\n      div\n      0xffffffffffffffffffffffffffffffffffffffff\n      and\n        /* \"contracts/DistributeFunding.sol\":5470:5504  RemainingWithdrawn(owner, balance) */\n      0xffffffffffffffffffffffffffffffffffffffff\n      and\n      0xb700c819c89549cd901221b05c2d1653b84086815ee1393d7dacb6f4ee312275\n        /* \"contracts/DistributeFunding.sol\":5496:5503  balance */\n      dup3\n        /* \"contracts/DistributeFunding.sol\":5470:5504  RemainingWithdrawn(owner, balance) */\n      mload(0x40)\n      tag_250\n      swap2\n      swap1\n      tag_26\n      jump\t// in\n    tag_250:\n      mload(0x40)\n      dup1\n      swap2\n      sub\n      swap1\n      log2\n        /* \"contracts/DistributeFunding.sol\":5168:5512  {... */\n      pop\n      pop\n        /* \"contracts/DistributeFunding.sol\":5122:5512  function withdrawRemaining() public onlyOwner {... */\n      jump\t// out\n        /* \"#utility.yul\":7:84   */\n    tag_251:\n        /* \"#utility.yul\":44:51   */\n      0x00\n        /* \"#utility.yul\":73:78   */\n      dup2\n        /* \"#utility.yul\":62:78   */\n      swap1\n      pop\n        /* \"#utility.yul\":7:84   */\n      swap2\n      swap1\n      pop\n      jump\t// out\n        /* \"#utility.yul\":90:208   */\n    tag_252:\n        /* \"#utility.yul\":177:201   */\n      tag_304\n        /* \"#utility.yul\":195:200   */\n      dup2\n        /* \"#utility.yul\":177:201   */\n      tag_251\n      jump\t// in\n    tag_304:\n        /* \"#utility.yul\":172:175   */\n      dup3\n        /* \"#utility.yul\":165:202   */\n      mstore\n        /* \"#utility.yul\":90:208   */\n      pop\n      pop\n      jump\t// out\n        /* \"#utility.yul\":214:436   */\n    tag_26:\n        /* \"#utility.yul\":307:311   */\n      0x00\n        /* \"#utility.yul\":345:347   */\n      0x20\n        /* \"#utility.yul\":334:343   */\n      dup3\n        /* \"#utility.yul\":330:348   */\n      add\n        /* \"#utility.yul\":322:348   */\n      swap1\n      pop\n        /* \"#utility.yul\":358:429   */\n      tag_306\n        /* \"#utility.yul\":426:427   */\n      0x00\n        /* \"#utility.yul\":415:424   */\n      dup4\n        /* \"#utility.yul\":411:428   */\n      add\n        /* \"#utility.yul\":402:408   */\n      dup5\n        /* \"#utility.yul\":358:429   */\n      tag_252\n      jump\t// in\n    tag_306:\n        /* \"#utility.yul\":214:436   */\n      swap3\n      swap2\n      pop\n      pop\n      jump\t// out\n        /* \"#utility.yul\":442:532   */\n    tag_253:\n        /* \"#utility.yul\":476:483   */\n      0x00\n        /* \"#utility.yul\":519:524   */\n      dup2\n        /* \"#utility.yul\":512:525   */\n      iszero\n        /* \"#utility.yul\":505:526   */\n      iszero\n        /* \"#utility.yul\":494:526   */\n      swap1\n      pop\n        /* \"#utility.yul\":442:532   */\n      swap2\n      swap1\n      pop\n      jump\t// out\n        /* \"#utility.yul\":538:647   */\n    tag_254:\n        /* \"#utility.yul\":619:640   */\n      tag_309\n        /* \"#utility.yul\":634:639   */\n      dup2\n        /* \"#utility.yul\":619:640   */\n      tag_253\n      jump\t// in\n    tag_309:\n        /* \"#utility.yul\":614:617   */\n      dup3\n        /* \"#utility.yul\":607:641   */\n      mstore\n        /* \"#utility.yul\":538:647   */\n      pop\n      pop\n      jump\t// out\n        /* \"#utility.yul\":653:863   */\n    tag_33:\n        /* \"#utility.yul\":740:744   */\n      0x00\n        /* \"#utility.yul\":778:780   */\n      0x20\n        /* \"#utility.yul\":767:776   */\n      dup3\n        /* \"#utility.yul\":763:781   */\n      add\n        /* \"#utility.yul\":755:781   */\n      swap1\n      pop\n        /* \"#utility.yul\":791:856   */\n      tag_311\n        /* \"#utility.yul\":853:854   */\n      0x00\n        /* \"#utility.yul\":842:851   */\n      dup4\n        /* \"#utility.yul\":838:855   */\n      add\n        /* \"#utility.yul\":829:835   */\n      dup5\n        /* \"#utility.yul\":791:856   */\n      tag_254\n      jump\t// in\n    tag_311:\n        /* \"#utility.yul\":653:863   */\n      swap3\n      swap2\n      pop\n      pop\n      jump\t// out\n        /* \"#utility.yul\":950:1067   */\n    tag_256:\n        /* \"#utility.yul\":1059:1060   */\n      0x00\n        /* \"#utility.yul\":1056:1057   */\n      0x00\n        /* \"#utility.yul\":1049:1061   */\n      revert\n        /* \"#utility.yul\":1196:1322   */\n    tag_258:\n        /* \"#utility.yul\":1233:1240   */\n      0x00\n        /* \"#utility.yul\":1273:1315   */\n      0xffffffffffffffffffffffffffffffffffffffff\n        /* \"#utility.yul\":1266:1271   */\n      dup3\n        /* \"#utility.yul\":1262:1316   */\n      and\n        /* \"#utility.yul\":1251:1316   */\n      swap1\n      pop\n        /* \"#utility.yul\":1196:1322   */\n      swap2\n      swap1\n      pop\n      jump\t// out\n        /* \"#utility.yul\":1328:1424   */\n    tag_259:\n        /* \"#utility.yul\":1365:1372   */\n      0x00\n        /* \"#utility.yul\":1394:1418   */\n      tag_317\n        /* \"#utility.yul\":1412:1417   */\n      dup3\n        /* \"#utility.yul\":1394:1418   */\n      tag_258\n      jump\t// in\n    tag_317:\n        /* \"#utility.yul\":1383:1418   */\n      swap1\n      pop\n        /* \"#utility.yul\":1328:1424   */\n      swap2\n      swap1\n      pop\n      jump\t// out\n        /* \"#utility.yul\":1430:1552   */\n    tag_260:\n        /* \"#utility.yul\":1503:1527   */\n      tag_319\n        /* \"#utility.yul\":1521:1526   */\n      dup2\n        /* \"#utility.yul\":1503:1527   */\n      tag_259\n      jump\t// in\n    tag_319:\n        /* \"#utility.yul\":1496:1501   */\n      dup2\n        /* \"#utility.yul\":1493:1528   */\n      eq\n        /* \"#utility.yul\":1483:1546   */\n      tag_320\n      jumpi\n        /* \"#utility.yul\":1542:1543   */\n      0x00\n        /* \"#utility.yul\":1539:1540   */\n      0x00\n        /* \"#utility.yul\":1532:1544   */\n      revert\n        /* \"#utility.yul\":1483:1546   */\n    tag_320:\n        /* \"#utility.yul\":1430:1552   */\n      pop\n      jump\t// out\n        /* \"#utility.yul\":1558:1697   */\n    tag_261:\n        /* \"#utility.yul\":1604:1609   */\n      0x00\n        /* \"#utility.yul\":1642:1648   */\n      dup2\n        /* \"#utility.yul\":1629:1649   */\n      calldataload\n        /* \"#utility.yul\":1620:1649   */\n      swap1\n      pop\n        /* \"#utility.yul\":1658:1691   */\n      tag_322\n        /* \"#utility.yul\":1685:1690   */\n      dup2\n        /* \"#utility.yul\":1658:1691   */\n      tag_260\n      jump\t// in\n    tag_322:\n        /* \"#utility.yul\":1558:1697   */\n      swap3\n      swap2\n      pop\n      pop\n      jump\t// out\n        /* \"#utility.yul\":1703:2032   */\n    tag_36:\n        /* \"#utility.yul\":1762:1768   */\n      0x00\n        /* \"#utility.yul\":1811:1813   */\n      0x20\n        /* \"#utility.yul\":1799:1808   */\n      dup3\n        /* \"#utility.yul\":1790:1797   */\n      dup5\n        /* \"#utility.yul\":1786:1809   */\n      sub\n        /* \"#utility.yul\":1782:1814   */\n      slt\n        /* \"#utility.yul\":1779:1898   */\n      iszero\n      tag_324\n      jumpi\n        /* \"#utility.yul\":1817:1896   */\n      tag_325\n      tag_256\n      jump\t// in\n    tag_325:\n        /* \"#utility.yul\":1779:1898   */\n    tag_324:\n        /* \"#utility.yul\":1937:1938   */\n      0x00\n        /* \"#utility.yul\":1962:2015   */\n      tag_326\n        /* \"#utility.yul\":2007:2014   */\n      dup5\n        /* \"#utility.yul\":1998:2004   */\n      dup3\n        /* \"#utility.yul\":1987:1996   */\n      dup6\n        /* \"#utility.yul\":1983:2005   */\n      add\n        /* \"#utility.yul\":1962:2015   */\n      tag_261\n      jump\t// in\n    tag_326:\n        /* \"#utility.yul\":1952:2015   */\n      swap2\n      pop\n        /* \"#utility.yul\":1908:2025   */\n      pop\n        /* \"#utility.yul\":1703:2032   */\n      swap3\n      swap2\n      pop\n      pop\n      jump\t// out\n        /* \"#utility.yul\":2038:2456   */\n    tag_39:\n        /* \"#utility.yul\":2175:2179   */\n      0x00\n        /* \"#utility.yul\":2213:2215   */\n      0x60\n        /* \"#utility.yul\":2202:2211   */\n      dup3\n        /* \"#utility.yul\":2198:2216   */\n      add\n        /* \"#utility.yul\":2190:2216   */\n      swap1\n      pop\n        /* \"#utility.yul\":2226:2297   */\n      tag_328\n        /* \"#utility.yul\":2294:2295   */\n      0x00\n        /* \"#utility.yul\":2283:2292   */\n      dup4\n        /* \"#utility.yul\":2279:2296   */\n      add\n        /* \"#utility.yul\":2270:2276   */\n      dup7\n        /* \"#utility.yul\":2226:2297   */\n      tag_252\n      jump\t// in\n    tag_328:\n        /* \"#utility.yul\":2307:2373   */\n      tag_329\n        /* \"#utility.yul\":2369:2371   */\n      0x20\n        /* \"#utility.yul\":2358:2367   */\n      dup4\n        /* \"#utility.yul\":2354:2372   */\n      add\n        /* \"#utility.yul\":2345:2351   */\n      dup6\n        /* \"#utility.yul\":2307:2373   */\n      tag_254\n      jump\t// in\n    tag_329:\n        /* \"#utility.yul\":2383:2449   */\n      tag_330\n        /* \"#utility.yul\":2445:2447   */\n      0x40\n        /* \"#utility.yul\":2434:2443   */\n      dup4\n        /* \"#utility.yul\":2430:2448   */\n      add\n        /* \"#utility.yul\":2421:2427   */\n      dup5\n        /* \"#utility.yul\":2383:2449   */\n      tag_254\n      jump\t// in\n    tag_330:\n        /* \"#utility.yul\":2038:2456   */\n      swap5\n      swap4\n      pop\n      pop\n      pop\n      pop\n      jump\t// out\n        /* \"#utility.yul\":2462:2584   */\n    tag_262:\n        /* \"#utility.yul\":2535:2559   */\n      tag_332\n        /* \"#utility.yul\":2553:2558   */\n      dup2\n        /* \"#utility.yul\":2535:2559   */\n      tag_251\n      jump\t// in\n    tag_332:\n        /* \"#utility.yul\":2528:2533   */\n      dup2\n        /* \"#utility.yul\":2525:2560   */\n      eq\n        /* \"#utility.yul\":2515:2578   */\n      tag_333\n      jumpi\n        /* \"#utility.yul\":2574:2575   */\n      0x00\n        /* \"#utility.yul\":2571:2572   */\n      0x00\n        /* \"#utility.yul\":2564:2576   */\n      revert\n        /* \"#utility.yul\":2515:2578   */\n    tag_333:\n        /* \"#utility.yul\":2462:2584   */\n      pop\n      jump\t// out\n        /* \"#utility.yul\":2590:2729   */\n    tag_263:\n        /* \"#utility.yul\":2636:2641   */\n      0x00\n        /* \"#utility.yul\":2674:2680   */\n      dup2\n        /* \"#utility.yul\":2661:2681   */\n      calldataload\n        /* \"#utility.yul\":2652:2681   */\n      swap1\n      pop\n        /* \"#utility.yul\":2690:2723   */\n      tag_335\n        /* \"#utility.yul\":2717:2722   */\n      dup2\n        /* \"#utility.yul\":2690:2723   */\n      tag_262\n      jump\t// in\n    tag_335:\n        /* \"#utility.yul\":2590:2729   */\n      swap3\n      swap2\n      pop\n      pop\n      jump\t// out\n        /* \"#utility.yul\":2735:3209   */\n    tag_50:\n        /* \"#utility.yul\":2803:2809   */\n      0x00\n        /* \"#utility.yul\":2811:2817   */\n      0x00\n        /* \"#utility.yul\":2860:2862   */\n      0x40\n        /* \"#utility.yul\":2848:2857   */\n      dup4\n        /* \"#utility.yul\":2839:2846   */\n      dup6\n        /* \"#utility.yul\":2835:2858   */\n      sub\n        /* \"#utility.yul\":2831:2863   */\n      slt\n        /* \"#utility.yul\":2828:2947   */\n      iszero\n      tag_337\n      jumpi\n        /* \"#utility.yul\":2866:2945   */\n      tag_338\n      tag_256\n      jump\t// in\n    tag_338:\n        /* \"#utility.yul\":2828:2947   */\n    tag_337:\n        /* \"#utility.yul\":2986:2987   */\n      0x00\n        /* \"#utility.yul\":3011:3064   */\n      tag_339\n        /* \"#utility.yul\":3056:3063   */\n      dup6\n        /* \"#utility.yul\":3047:3053   */\n      dup3\n        /* \"#utility.yul\":3036:3045   */\n      dup7\n        /* \"#utility.yul\":3032:3054   */\n      add\n        /* \"#utility.yul\":3011:3064   */\n      tag_261\n      jump\t// in\n    tag_339:\n        /* \"#utility.yul\":3001:3064   */\n      swap3\n      pop\n        /* \"#utility.yul\":2957:3074   */\n      pop\n        /* \"#utility.yul\":3113:3115   */\n      0x20\n        /* \"#utility.yul\":3139:3192   */\n      tag_340\n        /* \"#utility.yul\":3184:3191   */\n      dup6\n        /* \"#utility.yul\":3175:3181   */\n      dup3\n        /* \"#utility.yul\":3164:3173   */\n      dup7\n        /* \"#utility.yul\":3160:3182   */\n      add\n        /* \"#utility.yul\":3139:3192   */\n      tag_263\n      jump\t// in\n    tag_340:\n        /* \"#utility.yul\":3129:3192   */\n      swap2\n      pop\n        /* \"#utility.yul\":3084:3202   */\n      pop\n        /* \"#utility.yul\":2735:3209   */\n      swap3\n      pop\n      swap3\n      swap1\n      pop\n      jump\t// out\n        /* \"#utility.yul\":3215:3333   */\n    tag_264:\n        /* \"#utility.yul\":3302:3326   */\n      tag_342\n        /* \"#utility.yul\":3320:3325   */\n      dup2\n        /* \"#utility.yul\":3302:3326   */\n      tag_259\n      jump\t// in\n    tag_342:\n        /* \"#utility.yul\":3297:3300   */\n      dup3\n        /* \"#utility.yul\":3290:3327   */\n      mstore\n        /* \"#utility.yul\":3215:3333   */\n      pop\n      pop\n      jump\t// out\n        /* \"#utility.yul\":3339:3561   */\n    tag_61:\n        /* \"#utility.yul\":3432:3436   */\n      0x00\n        /* \"#utility.yul\":3470:3472   */\n      0x20\n        /* \"#utility.yul\":3459:3468   */\n      dup3\n        /* \"#utility.yul\":3455:3473   */\n      add\n        /* \"#utility.yul\":3447:3473   */\n      swap1\n      pop\n        /* \"#utility.yul\":3483:3554   */\n      tag_344\n        /* \"#utility.yul\":3551:3552   */\n      0x00\n        /* \"#utility.yul\":3540:3549   */\n      dup4\n        /* \"#utility.yul\":3536:3553   */\n      add\n        /* \"#utility.yul\":3527:3533   */\n      dup5\n        /* \"#utility.yul\":3483:3554   */\n      tag_264\n      jump\t// in\n    tag_344:\n        /* \"#utility.yul\":3339:3561   */\n      swap3\n      swap2\n      pop\n      pop\n      jump\t// out\n        /* \"#utility.yul\":3567:3896   */\n    tag_73:\n        /* \"#utility.yul\":3626:3632   */\n      0x00\n        /* \"#utility.yul\":3675:3677   */\n      0x20\n        /* \"#utility.yul\":3663:3672   */\n      dup3\n        /* \"#utility.yul\":3654:3661   */\n      dup5\n        /* \"#utility.yul\":3650:3673   */\n      sub\n        /* \"#utility.yul\":3646:3678   */\n      slt\n        /* \"#utility.yul\":3643:3762   */\n      iszero\n      tag_346\n      jumpi\n        /* \"#utility.yul\":3681:3760   */\n      tag_347\n      tag_256\n      jump\t// in\n    tag_347:\n        /* \"#utility.yul\":3643:3762   */\n    tag_346:\n        /* \"#utility.yul\":3801:3802   */\n      0x00\n        /* \"#utility.yul\":3826:3879   */\n      tag_348\n        /* \"#utility.yul\":3871:3878   */\n      dup5\n        /* \"#utility.yul\":3862:3868   */\n      dup3\n        /* \"#utility.yul\":3851:3860   */\n      dup6\n        /* \"#utility.yul\":3847:3869   */\n      add\n        /* \"#utility.yul\":3826:3879   */\n      tag_263\n      jump\t// in\n    tag_348:\n        /* \"#utility.yul\":3816:3879   */\n      swap2\n      pop\n        /* \"#utility.yul\":3772:3889   */\n      pop\n        /* \"#utility.yul\":3567:3896   */\n      swap3\n      swap2\n      pop\n      pop\n      jump\t// out\n        /* \"#utility.yul\":3902:4431   */\n    tag_76:\n        /* \"#utility.yul\":4067:4071   */\n      0x00\n        /* \"#utility.yul\":4105:4108   */\n      0x80\n        /* \"#utility.yul\":4094:4103   */\n      dup3\n        /* \"#utility.yul\":4090:4109   */\n      add\n        /* \"#utility.yul\":4082:4109   */\n      swap1\n      pop\n        /* \"#utility.yul\":4119:4190   */\n      tag_350\n        /* \"#utility.yul\":4187:4188   */\n      0x00\n        /* \"#utility.yul\":4176:4185   */\n      dup4\n        /* \"#utility.yul\":4172:4189   */\n      add\n        /* \"#utility.yul\":4163:4169   */\n      dup8\n        /* \"#utility.yul\":4119:4190   */\n      tag_264\n      jump\t// in\n    tag_350:\n        /* \"#utility.yul\":4200:4272   */\n      tag_351\n        /* \"#utility.yul\":4268:4270   */\n      0x20\n        /* \"#utility.yul\":4257:4266   */\n      dup4\n        /* \"#utility.yul\":4253:4271   */\n      add\n        /* \"#utility.yul\":4244:4250   */\n      dup7\n        /* \"#utility.yul\":4200:4272   */\n      tag_252\n      jump\t// in\n    tag_351:\n        /* \"#utility.yul\":4282:4348   */\n      tag_352\n        /* \"#utility.yul\":4344:4346   */\n      0x40\n        /* \"#utility.yul\":4333:4342   */\n      dup4\n        /* \"#utility.yul\":4329:4347   */\n      add\n        /* \"#utility.yul\":4320:4326   */\n      dup6\n        /* \"#utility.yul\":4282:4348   */\n      tag_254\n      jump\t// in\n    tag_352:\n        /* \"#utility.yul\":4358:4424   */\n      tag_353\n        /* \"#utility.yul\":4420:4422   */\n      0x60\n        /* \"#utility.yul\":4409:4418   */\n      dup4\n        /* \"#utility.yul\":4405:4423   */\n      add\n        /* \"#utility.yul\":4396:4402   */\n      dup5\n        /* \"#utility.yul\":4358:4424   */\n      tag_254\n      jump\t// in\n    tag_353:\n        /* \"#utility.yul\":3902:4431   */\n      swap6\n      swap5\n      pop\n      pop\n      pop\n      pop\n      pop\n      jump\t// out\n        /* \"#utility.yul\":4437:4867   */\n    tag_81:\n        /* \"#utility.yul\":4580:4584   */\n      0x00\n        /* \"#utility.yul\":4618:4620   */\n      0x60\n        /* \"#utility.yul\":4607:4616   */\n      dup3\n        /* \"#utility.yul\":4603:4621   */\n      add\n        /* \"#utility.yul\":4595:4621   */\n      swap1\n      pop\n        /* \"#utility.yul\":4631:4702   */\n      tag_355\n        /* \"#utility.yul\":4699:4700   */\n      0x00\n        /* \"#utility.yul\":4688:4697   */\n      dup4\n        /* \"#utility.yul\":4684:4701   */\n      add\n        /* \"#utility.yul\":4675:4681   */\n      dup7\n        /* \"#utility.yul\":4631:4702   */\n      tag_264\n      jump\t// in\n    tag_355:\n        /* \"#utility.yul\":4712:4784   */\n      tag_356\n        /* \"#utility.yul\":4780:4782   */\n      0x20\n        /* \"#utility.yul\":4769:4778   */\n      dup4\n        /* \"#utility.yul\":4765:4783   */\n      add\n        /* \"#utility.yul\":4756:4762   */\n      dup6\n        /* \"#utility.yul\":4712:4784   */\n      tag_252\n      jump\t// in\n    tag_356:\n        /* \"#utility.yul\":4794:4860   */\n      tag_357\n        /* \"#utility.yul\":4856:4858   */\n      0x40\n        /* \"#utility.yul\":4845:4854   */\n      dup4\n        /* \"#utility.yul\":4841:4859   */\n      add\n        /* \"#utility.yul\":4832:4838   */\n      dup5\n        /* \"#utility.yul\":4794:4860   */\n      tag_254\n      jump\t// in\n    tag_357:\n        /* \"#utility.yul\":4437:4867   */\n      swap5\n      swap4\n      pop\n      pop\n      pop\n      pop\n      jump\t// out\n        /* \"#utility.yul\":4873:5053   */\n    tag_91:\n        /* \"#utility.yul\":4921:4998   */\n      0x4e487b7100000000000000000000000000000000000000000000000000000000\n        /* \"#utility.yul\":4918:4919   */\n      0x00\n        /* \"#utility.yul\":4911:4999   */\n      mstore\n        /* \"#utility.yul\":5018:5022   */\n      0x32\n        /* \"#utility.yul\":5015:5016   */\n      0x04\n        /* \"#utility.yul\":5008:5023   */\n      mstore\n        /* \"#utility.yul\":5042:5046   */\n      0x24\n        /* \"#utility.yul\":5039:5040   */\n      0x00\n        /* \"#utility.yul\":5032:5047   */\n      revert\n        /* \"#utility.yul\":5059:5228   */\n    tag_265:\n        /* \"#utility.yul\":5143:5154   */\n      0x00\n        /* \"#utility.yul\":5177:5183   */\n      dup3\n        /* \"#utility.yul\":5172:5175   */\n      dup3\n        /* \"#utility.yul\":5165:5184   */\n      mstore\n        /* \"#utility.yul\":5217:5221   */\n      0x20\n        /* \"#utility.yul\":5212:5215   */\n      dup3\n        /* \"#utility.yul\":5208:5222   */\n      add\n        /* \"#utility.yul\":5193:5222   */\n      swap1\n      pop\n        /* \"#utility.yul\":5059:5228   */\n      swap3\n      swap2\n      pop\n      pop\n      jump\t// out\n        /* \"#utility.yul\":5234:5402   */\n    tag_266:\n        /* \"#utility.yul\":5374:5394   */\n      0x46756e6473206e6f742072656365697665640000000000000000000000000000\n        /* \"#utility.yul\":5370:5371   */\n      0x00\n        /* \"#utility.yul\":5362:5368   */\n      dup3\n        /* \"#utility.yul\":5358:5372   */\n      add\n        /* \"#utility.yul\":5351:5395   */\n      mstore\n        /* \"#utility.yul\":5234:5402   */\n      pop\n      jump\t// out\n        /* \"#utility.yul\":5408:5774   */\n    tag_267:\n        /* \"#utility.yul\":5550:5553   */\n      0x00\n        /* \"#utility.yul\":5571:5638   */\n      tag_362\n        /* \"#utility.yul\":5635:5637   */\n      0x12\n        /* \"#utility.yul\":5630:5633   */\n      dup4\n        /* \"#utility.yul\":5571:5638   */\n      tag_265\n      jump\t// in\n    tag_362:\n        /* \"#utility.yul\":5564:5638   */\n      swap2\n      pop\n        /* \"#utility.yul\":5647:5740   */\n      tag_363\n        /* \"#utility.yul\":5736:5739   */\n      dup3\n        /* \"#utility.yul\":5647:5740   */\n      tag_266\n      jump\t// in\n    tag_363:\n        /* \"#utility.yul\":5765:5767   */\n      0x20\n        /* \"#utility.yul\":5760:5763   */\n      dup3\n        /* \"#utility.yul\":5756:5768   */\n      add\n        /* \"#utility.yul\":5749:5768   */\n      swap1\n      pop\n        /* \"#utility.yul\":5408:5774   */\n      swap2\n      swap1\n      pop\n      jump\t// out\n        /* \"#utility.yul\":5780:6199   */\n    tag_103:\n        /* \"#utility.yul\":5946:5950   */\n      0x00\n        /* \"#utility.yul\":5984:5986   */\n      0x20\n        /* \"#utility.yul\":5973:5982   */\n      dup3\n        /* \"#utility.yul\":5969:5987   */\n      add\n        /* \"#utility.yul\":5961:5987   */\n      swap1\n      pop\n        /* \"#utility.yul\":6033:6042   */\n      dup2\n        /* \"#utility.yul\":6027:6031   */\n      dup2\n        /* \"#utility.yul\":6023:6043   */\n      sub\n        /* \"#utility.yul\":6019:6020   */\n      0x00\n        /* \"#utility.yul\":6008:6017   */\n      dup4\n        /* \"#utility.yul\":6004:6021   */\n      add\n        /* \"#utility.yul\":5997:6044   */\n      mstore\n        /* \"#utility.yul\":6061:6192   */\n      tag_365\n        /* \"#utility.yul\":6187:6191   */\n      dup2\n        /* \"#utility.yul\":6061:6192   */\n      tag_267\n      jump\t// in\n    tag_365:\n        /* \"#utility.yul\":6053:6192   */\n      swap1\n      pop\n        /* \"#utility.yul\":5780:6199   */\n      swap2\n      swap1\n      pop\n      jump\t// out\n        /* \"#utility.yul\":6205:6372   */\n    tag_268:\n        /* \"#utility.yul\":6345:6364   */\n      0x4e6f742061207368617265686f6c646572000000000000000000000000000000\n        /* \"#utility.yul\":6341:6342   */\n      0x00\n        /* \"#utility.yul\":6333:6339   */\n      dup3\n        /* \"#utility.yul\":6329:6343   */\n      add\n        /* \"#utility.yul\":6322:6365   */\n      mstore\n        /* \"#utility.yul\":6205:6372   */\n      pop\n      jump\t// out\n        /* \"#utility.yul\":6378:6744   */\n    tag_269:\n        /* \"#utility.yul\":6520:6523   */\n      0x00\n        /* \"#utility.yul\":6541:6608   */\n      tag_368\n        /* \"#utility.yul\":6605:6607   */\n      0x11\n        /* \"#utility.yul\":6600:6603   */\n      dup4\n        /* \"#utility.yul\":6541:6608   */\n      tag_265\n      jump\t// in\n    tag_368:\n        /* \"#utility.yul\":6534:6608   */\n      swap2\n      pop\n        /* \"#utility.yul\":6617:6710   */\n      tag_369\n        /* \"#utility.yul\":6706:6709   */\n      dup3\n        /* \"#utility.yul\":6617:6710   */\n      tag_268\n      jump\t// in\n    tag_369:\n        /* \"#utility.yul\":6735:6737   */\n      0x20\n        /* \"#utility.yul\":6730:6733   */\n      dup3\n        /* \"#utility.yul\":6726:6738   */\n      add\n        /* \"#utility.yul\":6719:6738   */\n      swap1\n      pop\n        /* \"#utility.yul\":6378:6744   */\n      swap2\n      swap1\n      pop\n      jump\t// out\n        /* \"#utility.yul\":6750:7169   */\n    tag_113:\n        /* \"#utility.yul\":6916:6920   */\n      0x00\n        /* \"#utility.yul\":6954:6956   */\n      0x20\n        /* \"#utility.yul\":6943:6952   */\n      dup3\n        /* \"#utility.yul\":6939:6957   */\n      add\n        /* \"#utility.yul\":6931:6957   */\n      swap1\n      pop\n        /* \"#utility.yul\":7003:7012   */\n      dup2\n        /* \"#utility.yul\":6997:7001   */\n      dup2\n        /* \"#utility.yul\":6993:7013   */\n      sub\n        /* \"#utility.yul\":6989:6990   */\n      0x00\n        /* \"#utility.yul\":6978:6987   */\n      dup4\n        /* \"#utility.yul\":6974:6991   */\n      add\n        /* \"#utility.yul\":6967:7014   */\n      mstore\n        /* \"#utility.yul\":7031:7162   */\n      tag_371\n        /* \"#utility.yul\":7157:7161   */\n      dup2\n        /* \"#utility.yul\":7031:7162   */\n      tag_269\n      jump\t// in\n    tag_371:\n        /* \"#utility.yul\":7023:7162   */\n      swap1\n      pop\n        /* \"#utility.yul\":6750:7169   */\n      swap2\n      swap1\n      pop\n      jump\t// out\n        /* \"#utility.yul\":7175:7342   */\n    tag_270:\n        /* \"#utility.yul\":7315:7334   */\n      0x416c72656164792077697468647261776e000000000000000000000000000000\n        /* \"#utility.yul\":7311:7312   */\n      0x00\n        /* \"#utility.yul\":7303:7309   */\n      dup3\n        /* \"#utility.yul\":7299:7313   */\n      add\n        /* \"#utility.yul\":7292:7335   */\n      mstore\n        /* \"#utility.yul\":7175:7342   */\n      pop\n      jump\t// out\n        /* \"#utility.yul\":7348:7714   */\n    tag_271:\n        /* \"#utility.yul\":7490:7493   */\n      0x00\n        /* \"#utility.yul\":7511:7578   */\n      tag_374\n        /* \"#utility.yul\":7575:7577   */\n      0x11\n        /* \"#utility.yul\":7570:7573   */\n      dup4\n        /* \"#utility.yul\":7511:7578   */\n      tag_265\n      jump\t// in\n    tag_374:\n        /* \"#utility.yul\":7504:7578   */\n      swap2\n      pop\n        /* \"#utility.yul\":7587:7680   */\n      tag_375\n        /* \"#utility.yul\":7676:7679   */\n      dup3\n        /* \"#utility.yul\":7587:7680   */\n      tag_270\n      jump\t// in\n    tag_375:\n        /* \"#utility.yul\":7705:7707   */\n      0x20\n        /* \"#utility.yul\":7700:7703   */\n      dup3\n        /* \"#utility.yul\":7696:7708   */\n      add\n        /* \"#utility.yul\":7689:7708   */\n      swap1\n      pop\n        /* \"#utility.yul\":7348:7714   */\n      swap2\n      swap1\n      pop\n      jump\t// out\n        /* \"#utility.yul\":7720:8139   */\n    tag_119:\n        /* \"#utility.yul\":7886:7890   */\n      0x00\n        /* \"#utility.yul\":7924:7926   */\n      0x20\n        /* \"#utility.yul\":7913:7922   */\n      dup3\n        /* \"#utility.yul\":7909:7927   */\n      add\n        /* \"#utility.yul\":7901:7927   */\n      swap1\n      pop\n        /* \"#utility.yul\":7973:7982   */\n      dup2\n        /* \"#utility.yul\":7967:7971   */\n      dup2\n        /* \"#utility.yul\":7963:7983   */\n      sub\n        /* \"#utility.yul\":7959:7960   */\n      0x00\n        /* \"#utility.yul\":7948:7957   */\n      dup4\n        /* \"#utility.yul\":7944:7961   */\n      add\n        /* \"#utility.yul\":7937:7984   */\n      mstore\n        /* \"#utility.yul\":8001:8132   */\n      tag_377\n        /* \"#utility.yul\":8127:8131   */\n      dup2\n        /* \"#utility.yul\":8001:8132   */\n      tag_271\n      jump\t// in\n    tag_377:\n        /* \"#utility.yul\":7993:8132   */\n      swap1\n      pop\n        /* \"#utility.yul\":7720:8139   */\n      swap2\n      swap1\n      pop\n      jump\t// out\n        /* \"#utility.yul\":8145:8325   */\n    tag_272:\n        /* \"#utility.yul\":8193:8270   */\n      0x4e487b7100000000000000000000000000000000000000000000000000000000\n        /* \"#utility.yul\":8190:8191   */\n      0x00\n        /* \"#utility.yul\":8183:8271   */\n      mstore\n        /* \"#utility.yul\":8290:8294   */\n      0x11\n        /* \"#utility.yul\":8287:8288   */\n      0x04\n        /* \"#utility.yul\":8280:8295   */\n      mstore\n        /* \"#utility.yul\":8314:8318   */\n      0x24\n        /* \"#utility.yul\":8311:8312   */\n      0x00\n        /* \"#utility.yul\":8304:8319   */\n      revert\n        /* \"#utility.yul\":8331:8741   */\n    tag_124:\n        /* \"#utility.yul\":8371:8378   */\n      0x00\n        /* \"#utility.yul\":8394:8414   */\n      tag_380\n        /* \"#utility.yul\":8412:8413   */\n      dup3\n        /* \"#utility.yul\":8394:8414   */\n      tag_251\n      jump\t// in\n    tag_380:\n        /* \"#utility.yul\":8389:8414   */\n      swap2\n      pop\n        /* \"#utility.yul\":8428:8448   */\n      tag_381\n        /* \"#utility.yul\":8446:8447   */\n      dup4\n        /* \"#utility.yul\":8428:8448   */\n      tag_251\n      jump\t// in\n    tag_381:\n        /* \"#utility.yul\":8423:8448   */\n      swap3\n      pop\n        /* \"#utility.yul\":8483:8484   */\n      dup3\n        /* \"#utility.yul\":8480:8481   */\n      dup3\n        /* \"#utility.yul\":8476:8485   */\n      mul\n        /* \"#utility.yul\":8505:8535   */\n      tag_382\n        /* \"#utility.yul\":8523:8534   */\n      dup2\n        /* \"#utility.yul\":8505:8535   */\n      tag_251\n      jump\t// in\n    tag_382:\n        /* \"#utility.yul\":8494:8535   */\n      swap2\n      pop\n        /* \"#utility.yul\":8684:8685   */\n      dup3\n        /* \"#utility.yul\":8675:8682   */\n      dup3\n        /* \"#utility.yul\":8671:8686   */\n      div\n        /* \"#utility.yul\":8668:8669   */\n      dup5\n        /* \"#utility.yul\":8665:8687   */\n      eq\n        /* \"#utility.yul\":8645:8646   */\n      dup4\n        /* \"#utility.yul\":8638:8647   */\n      iszero\n        /* \"#utility.yul\":8618:8701   */\n      or\n        /* \"#utility.yul\":8595:8734   */\n      tag_383\n      jumpi\n        /* \"#utility.yul\":8714:8732   */\n      tag_384\n      tag_272\n      jump\t// in\n    tag_384:\n        /* \"#utility.yul\":8595:8734   */\n    tag_383:\n        /* \"#utility.yul\":8379:8741   */\n      pop\n        /* \"#utility.yul\":8331:8741   */\n      swap3\n      swap2\n      pop\n      pop\n      jump\t// out\n        /* \"#utility.yul\":8747:8927   */\n    tag_273:\n        /* \"#utility.yul\":8795:8872   */\n      0x4e487b7100000000000000000000000000000000000000000000000000000000\n        /* \"#utility.yul\":8792:8793   */\n      0x00\n        /* \"#utility.yul\":8785:8873   */\n      mstore\n        /* \"#utility.yul\":8892:8896   */\n      0x12\n        /* \"#utility.yul\":8889:8890   */\n      0x04\n        /* \"#utility.yul\":8882:8897   */\n      mstore\n        /* \"#utility.yul\":8916:8920   */\n      0x24\n        /* \"#utility.yul\":8913:8914   */\n      0x00\n        /* \"#utility.yul\":8906:8921   */\n      revert\n        /* \"#utility.yul\":8933:9118   */\n    tag_126:\n        /* \"#utility.yul\":8973:8974   */\n      0x00\n        /* \"#utility.yul\":8990:9010   */\n      tag_387\n        /* \"#utility.yul\":9008:9009   */\n      dup3\n        /* \"#utility.yul\":8990:9010   */\n      tag_251\n      jump\t// in\n    tag_387:\n        /* \"#utility.yul\":8985:9010   */\n      swap2\n      pop\n        /* \"#utility.yul\":9024:9044   */\n      tag_388\n        /* \"#utility.yul\":9042:9043   */\n      dup4\n        /* \"#utility.yul\":9024:9044   */\n      tag_251\n      jump\t// in\n    tag_388:\n        /* \"#utility.yul\":9019:9044   */\n      swap3\n      pop\n        /* \"#utility.yul\":9063:9064   */\n      dup3\n        /* \"#utility.yul\":9053:9088   */\n      tag_389\n      jumpi\n        /* \"#utility.yul\":9068:9086   */\n      tag_390\n      tag_273\n      jump\t// in\n    tag_390:\n        /* \"#utility.yul\":9053:9088   */\n    tag_389:\n        /* \"#utility.yul\":9110:9111   */\n      dup3\n        /* \"#utility.yul\":9107:9108   */\n      dup3\n        /* \"#utility.yul\":9103:9112   */\n      div\n        /* \"#utility.yul\":9098:9112   */\n      swap1\n      pop\n        /* \"#utility.yul\":8933:9118   */\n      swap3\n      swap2\n      pop\n      pop\n      jump\t// out\n        /* \"#utility.yul\":9124:9283   */\n    tag_274:\n        /* \"#utility.yul\":9264:9275   */\n      0x4e6f20746f6b656e730000000000000000000000000000000000000000000000\n        /* \"#utility.yul\":9260:9261   */\n      0x00\n        /* \"#utility.yul\":9252:9258   */\n      dup3\n        /* \"#utility.yul\":9248:9262   */\n      add\n        /* \"#utility.yul\":9241:9276   */\n      mstore\n        /* \"#utility.yul\":9124:9283   */\n      pop\n      jump\t// out\n        /* \"#utility.yul\":9289:9654   */\n    tag_275:\n        /* \"#utility.yul\":9431:9434   */\n      0x00\n        /* \"#utility.yul\":9452:9518   */\n      tag_393\n        /* \"#utility.yul\":9516:9517   */\n      0x09\n        /* \"#utility.yul\":9511:9514   */\n      dup4\n        /* \"#utility.yul\":9452:9518   */\n      tag_265\n      jump\t// in\n    tag_393:\n        /* \"#utility.yul\":9445:9518   */\n      swap2\n      pop\n        /* \"#utility.yul\":9527:9620   */\n      tag_394\n        /* \"#utility.yul\":9616:9619   */\n      dup3\n        /* \"#utility.yul\":9527:9620   */\n      tag_274\n      jump\t// in\n    tag_394:\n        /* \"#utility.yul\":9645:9647   */\n      0x20\n        /* \"#utility.yul\":9640:9643   */\n      dup3\n        /* \"#utility.yul\":9636:9648   */\n      add\n        /* \"#utility.yul\":9629:9648   */\n      swap1\n      pop\n        /* \"#utility.yul\":9289:9654   */\n      swap2\n      swap1\n      pop\n      jump\t// out\n        /* \"#utility.yul\":9660:10079   */\n    tag_129:\n        /* \"#utility.yul\":9826:9830   */\n      0x00\n        /* \"#utility.yul\":9864:9866   */\n      0x20\n        /* \"#utility.yul\":9853:9862   */\n      dup3\n        /* \"#utility.yul\":9849:9867   */\n      add\n        /* \"#utility.yul\":9841:9867   */\n      swap1\n      pop\n        /* \"#utility.yul\":9913:9922   */\n      dup2\n        /* \"#utility.yul\":9907:9911   */\n      dup2\n        /* \"#utility.yul\":9903:9923   */\n      sub\n        /* \"#utility.yul\":9899:9900   */\n      0x00\n        /* \"#utility.yul\":9888:9897   */\n      dup4\n        /* \"#utility.yul\":9884:9901   */\n      add\n        /* \"#utility.yul\":9877:9924   */\n      mstore\n        /* \"#utility.yul\":9941:10072   */\n      tag_396\n        /* \"#utility.yul\":10067:10071   */\n      dup2\n        /* \"#utility.yul\":9941:10072   */\n      tag_275\n      jump\t// in\n    tag_396:\n        /* \"#utility.yul\":9933:10072   */\n      swap1\n      pop\n        /* \"#utility.yul\":9660:10079   */\n      swap2\n      swap1\n      pop\n      jump\t// out\n        /* \"#utility.yul\":10085:10417   */\n    tag_134:\n        /* \"#utility.yul\":10206:10210   */\n      0x00\n        /* \"#utility.yul\":10244:10246   */\n      0x40\n        /* \"#utility.yul\":10233:10242   */\n      dup3\n        /* \"#utility.yul\":10229:10247   */\n      add\n        /* \"#utility.yul\":10221:10247   */\n      swap1\n      pop\n        /* \"#utility.yul\":10257:10328   */\n      tag_398\n        /* \"#utility.yul\":10325:10326   */\n      0x00\n        /* \"#utility.yul\":10314:10323   */\n      dup4\n        /* \"#utility.yul\":10310:10327   */\n      add\n        /* \"#utility.yul\":10301:10307   */\n      dup6\n        /* \"#utility.yul\":10257:10328   */\n      tag_264\n      jump\t// in\n    tag_398:\n        /* \"#utility.yul\":10338:10410   */\n      tag_399\n        /* \"#utility.yul\":10406:10408   */\n      0x20\n        /* \"#utility.yul\":10395:10404   */\n      dup4\n        /* \"#utility.yul\":10391:10409   */\n      add\n        /* \"#utility.yul\":10382:10388   */\n      dup5\n        /* \"#utility.yul\":10338:10410   */\n      tag_252\n      jump\t// in\n    tag_399:\n        /* \"#utility.yul\":10085:10417   */\n      swap4\n      swap3\n      pop\n      pop\n      pop\n      jump\t// out\n        /* \"#utility.yul\":10423:10539   */\n    tag_276:\n        /* \"#utility.yul\":10493:10514   */\n      tag_401\n        /* \"#utility.yul\":10508:10513   */\n      dup2\n        /* \"#utility.yul\":10493:10514   */\n      tag_253\n      jump\t// in\n    tag_401:\n        /* \"#utility.yul\":10486:10491   */\n      dup2\n        /* \"#utility.yul\":10483:10515   */\n      eq\n        /* \"#utility.yul\":10473:10533   */\n      tag_402\n      jumpi\n        /* \"#utility.yul\":10529:10530   */\n      0x00\n        /* \"#utility.yul\":10526:10527   */\n      0x00\n        /* \"#utility.yul\":10519:10531   */\n      revert\n        /* \"#utility.yul\":10473:10533   */\n    tag_402:\n        /* \"#utility.yul\":10423:10539   */\n      pop\n      jump\t// out\n        /* \"#utility.yul\":10545:10682   */\n    tag_277:\n        /* \"#utility.yul\":10599:10604   */\n      0x00\n        /* \"#utility.yul\":10630:10636   */\n      dup2\n        /* \"#utility.yul\":10624:10637   */\n      mload\n        /* \"#utility.yul\":10615:10637   */\n      swap1\n      pop\n        /* \"#utility.yul\":10646:10676   */\n      tag_404\n        /* \"#utility.yul\":10670:10675   */\n      dup2\n        /* \"#utility.yul\":10646:10676   */\n      tag_276\n      jump\t// in\n    tag_404:\n        /* \"#utility.yul\":10545:10682   */\n      swap3\n      swap2\n      pop\n      pop\n      jump\t// out\n        /* \"#utility.yul\":10688:11033   */\n    tag_138:\n        /* \"#utility.yul\":10755:10761   */\n      0x00\n        /* \"#utility.yul\":10804:10806   */\n      0x20\n        /* \"#utility.yul\":10792:10801   */\n      dup3\n        /* \"#utility.yul\":10783:10790   */\n      dup5\n        /* \"#utility.yul\":10779:10802   */\n      sub\n        /* \"#utility.yul\":10775:10807   */\n      slt\n        /* \"#utility.yul\":10772:10891   */\n      iszero\n      tag_406\n      jumpi\n        /* \"#utility.yul\":10810:10889   */\n      tag_407\n      tag_256\n      jump\t// in\n    tag_407:\n        /* \"#utility.yul\":10772:10891   */\n    tag_406:\n        /* \"#utility.yul\":10930:10931   */\n      0x00\n        /* \"#utility.yul\":10955:11016   */\n      tag_408\n        /* \"#utility.yul\":11008:11015   */\n      dup5\n        /* \"#utility.yul\":10999:11005   */\n      dup3\n        /* \"#utility.yul\":10988:10997   */\n      dup6\n        /* \"#utility.yul\":10984:11006   */\n      add\n        /* \"#utility.yul\":10955:11016   */\n      tag_277\n      jump\t// in\n    tag_408:\n        /* \"#utility.yul\":10945:11016   */\n      swap2\n      pop\n        /* \"#utility.yul\":10901:11026   */\n      pop\n        /* \"#utility.yul\":10688:11033   */\n      swap3\n      swap2\n      pop\n      pop\n      jump\t// out\n        /* \"#utility.yul\":11039:11204   */\n    tag_278:\n        /* \"#utility.yul\":11179:11196   */\n      0x5472616e73666572206661696c65640000000000000000000000000000000000\n        /* \"#utility.yul\":11175:11176   */\n      0x00\n        /* \"#utility.yul\":11167:11173   */\n      dup3\n        /* \"#utility.yul\":11163:11177   */\n      add\n        /* \"#utility.yul\":11156:11197   */\n      mstore\n        /* \"#utility.yul\":11039:11204   */\n      pop\n      jump\t// out\n        /* \"#utility.yul\":11210:11576   */\n    tag_279:\n        /* \"#utility.yul\":11352:11355   */\n      0x00\n        /* \"#utility.yul\":11373:11440   */\n      tag_411\n        /* \"#utility.yul\":11437:11439   */\n      0x0f\n        /* \"#utility.yul\":11432:11435   */\n      dup4\n        /* \"#utility.yul\":11373:11440   */\n      tag_265\n      jump\t// in\n    tag_411:\n        /* \"#utility.yul\":11366:11440   */\n      swap2\n      pop\n        /* \"#utility.yul\":11449:11542   */\n      tag_412\n        /* \"#utility.yul\":11538:11541   */\n      dup3\n        /* \"#utility.yul\":11449:11542   */\n      tag_278\n      jump\t// in\n    tag_412:\n        /* \"#utility.yul\":11567:11569   */\n      0x20\n        /* \"#utility.yul\":11562:11565   */\n      dup3\n        /* \"#utility.yul\":11558:11570   */\n      add\n        /* \"#utility.yul\":11551:11570   */\n      swap1\n      pop\n        /* \"#utility.yul\":11210:11576   */\n      swap2\n      swap1\n      pop\n      jump\t// out\n        /* \"#utility.yul\":11582:12001   */\n    tag_141:\n        /* \"#utility.yul\":11748:11752   */\n      0x00\n        /* \"#utility.yul\":11786:11788   */\n      0x20\n        /* \"#utility.yul\":11775:11784   */\n      dup3\n        /* \"#utility.yul\":11771:11789   */\n      add\n        /* \"#utility.yul\":11763:11789   */\n      swap1\n      pop\n        /* \"#utility.yul\":11835:11844   */\n      dup2\n        /* \"#utility.yul\":11829:11833   */\n      dup2\n        /* \"#utility.yul\":11825:11845   */\n      sub\n        /* \"#utility.yul\":11821:11822   */\n      0x00\n        /* \"#utility.yul\":11810:11819   */\n      dup4\n        /* \"#utility.yul\":11806:11823   */\n      add\n        /* \"#utility.yul\":11799:11846   */\n      mstore\n        /* \"#utility.yul\":11863:11994   */\n      tag_414\n        /* \"#utility.yul\":11989:11993   */\n      dup2\n        /* \"#utility.yul\":11863:11994   */\n      tag_279\n      jump\t// in\n    tag_414:\n        /* \"#utility.yul\":11855:11994   */\n      swap1\n      pop\n        /* \"#utility.yul\":11582:12001   */\n      swap2\n      swap1\n      pop\n      jump\t// out\n        /* \"#utility.yul\":12007:12228   */\n    tag_280:\n        /* \"#utility.yul\":12147:12181   */\n      0x43616e6e6f74206d6f646966792061667465722066756e647320726563656976\n        /* \"#utility.yul\":12143:12144   */\n      0x00\n        /* \"#utility.yul\":12135:12141   */\n      dup3\n        /* \"#utility.yul\":12131:12145   */\n      add\n        /* \"#utility.yul\":12124:12182   */\n      mstore\n        /* \"#utility.yul\":12216:12220   */\n      0x6564000000000000000000000000000000000000000000000000000000000000\n        /* \"#utility.yul\":12211:12213   */\n      0x20\n        /* \"#utility.yul\":12203:12209   */\n      dup3\n        /* \"#utility.yul\":12199:12214   */\n      add\n        /* \"#utility.yul\":12192:12221   */\n      mstore\n        /* \"#utility.yul\":12007:12228   */\n      pop\n      jump\t// out\n        /* \"#utility.yul\":12234:12600   */\n    tag_281:\n        /* \"#utility.yul\":12376:12379   */\n      0x00\n        /* \"#utility.yul\":12397:12464   */\n      tag_417\n        /* \"#utility.yul\":12461:12463   */\n      0x22\n        /* \"#utility.yul\":12456:12459   */\n      dup4\n        /* \"#utility.yul\":12397:12464   */\n      tag_265\n      jump\t// in\n    tag_417:\n        /* \"#utility.yul\":12390:12464   */\n      swap2\n      pop\n        /* \"#utility.yul\":12473:12566   */\n      tag_418\n        /* \"#utility.yul\":12562:12565   */\n      dup3\n        /* \"#utility.yul\":12473:12566   */\n      tag_280\n      jump\t// in\n    tag_418:\n        /* \"#utility.yul\":12591:12593   */\n      0x40\n        /* \"#utility.yul\":12586:12589   */\n      dup3\n        /* \"#utility.yul\":12582:12594   */\n      add\n        /* \"#utility.yul\":12575:12594   */\n      swap1\n      pop\n        /* \"#utility.yul\":12234:12600   */\n      swap2\n      swap1\n      pop\n      jump\t// out\n        /* \"#utility.yul\":12606:13025   */\n    tag_146:\n        /* \"#utility.yul\":12772:12776   */\n      0x00\n        /* \"#utility.yul\":12810:12812   */\n      0x20\n        /* \"#utility.yul\":12799:12808   */\n      dup3\n        /* \"#utility.yul\":12795:12813   */\n      add\n        /* \"#utility.yul\":12787:12813   */\n      swap1\n      pop\n        /* \"#utility.yul\":12859:12868   */\n      dup2\n        /* \"#utility.yul\":12853:12857   */\n      dup2\n        /* \"#utility.yul\":12849:12869   */\n      sub\n        /* \"#utility.yul\":12845:12846   */\n      0x00\n        /* \"#utility.yul\":12834:12843   */\n      dup4\n        /* \"#utility.yul\":12830:12847   */\n      add\n        /* \"#utility.yul\":12823:12870   */\n      mstore\n        /* \"#utility.yul\":12887:13018   */\n      tag_420\n        /* \"#utility.yul\":13013:13017   */\n      dup2\n        /* \"#utility.yul\":12887:13018   */\n      tag_281\n      jump\t// in\n    tag_420:\n        /* \"#utility.yul\":12879:13018   */\n      swap1\n      pop\n        /* \"#utility.yul\":12606:13025   */\n      swap2\n      swap1\n      pop\n      jump\t// out\n        /* \"#utility.yul\":13031:13196   */\n    tag_282:\n        /* \"#utility.yul\":13171:13188   */\n      0x4e6f207368617265686f6c646572730000000000000000000000000000000000\n        /* \"#utility.yul\":13167:13168   */\n      0x00\n        /* \"#utility.yul\":13159:13165   */\n      dup3\n        /* \"#utility.yul\":13155:13169   */\n      add\n        /* \"#utility.yul\":13148:13189   */\n      mstore\n        /* \"#utility.yul\":13031:13196   */\n      pop\n      jump\t// out\n        /* \"#utility.yul\":13202:13568   */\n    tag_283:\n        /* \"#utility.yul\":13344:13347   */\n      0x00\n        /* \"#utility.yul\":13365:13432   */\n      tag_423\n        /* \"#utility.yul\":13429:13431   */\n      0x0f\n        /* \"#utility.yul\":13424:13427   */\n      dup4\n        /* \"#utility.yul\":13365:13432   */\n      tag_265\n      jump\t// in\n    tag_423:\n        /* \"#utility.yul\":13358:13432   */\n      swap2\n      pop\n        /* \"#utility.yul\":13441:13534   */\n      tag_424\n        /* \"#utility.yul\":13530:13533   */\n      dup3\n        /* \"#utility.yul\":13441:13534   */\n      tag_282\n      jump\t// in\n    tag_424:\n        /* \"#utility.yul\":13559:13561   */\n      0x20\n        /* \"#utility.yul\":13554:13557   */\n      dup3\n        /* \"#utility.yul\":13550:13562   */\n      add\n        /* \"#utility.yul\":13543:13562   */\n      swap1\n      pop\n        /* \"#utility.yul\":13202:13568   */\n      swap2\n      swap1\n      pop\n      jump\t// out\n        /* \"#utility.yul\":13574:13993   */\n    tag_150:\n        /* \"#utility.yul\":13740:13744   */\n      0x00\n        /* \"#utility.yul\":13778:13780   */\n      0x20\n        /* \"#utility.yul\":13767:13776   */\n      dup3\n        /* \"#utility.yul\":13763:13781   */\n      add\n        /* \"#utility.yul\":13755:13781   */\n      swap1\n      pop\n        /* \"#utility.yul\":13827:13836   */\n      dup2\n        /* \"#utility.yul\":13821:13825   */\n      dup2\n        /* \"#utility.yul\":13817:13837   */\n      sub\n        /* \"#utility.yul\":13813:13814   */\n      0x00\n        /* \"#utility.yul\":13802:13811   */\n      dup4\n        /* \"#utility.yul\":13798:13815   */\n      add\n        /* \"#utility.yul\":13791:13838   */\n      mstore\n        /* \"#utility.yul\":13855:13986   */\n      tag_426\n        /* \"#utility.yul\":13981:13985   */\n      dup2\n        /* \"#utility.yul\":13855:13986   */\n      tag_283\n      jump\t// in\n    tag_426:\n        /* \"#utility.yul\":13847:13986   */\n      swap1\n      pop\n        /* \"#utility.yul\":13574:13993   */\n      swap2\n      swap1\n      pop\n      jump\t// out\n        /* \"#utility.yul\":13999:14169   */\n    tag_284:\n        /* \"#utility.yul\":14139:14161   */\n      0x43726f776446756e64696e67206e6f7420736574000000000000000000000000\n        /* \"#utility.yul\":14135:14136   */\n      0x00\n        /* \"#utility.yul\":14127:14133   */\n      dup3\n        /* \"#utility.yul\":14123:14137   */\n      add\n        /* \"#utility.yul\":14116:14162   */\n      mstore\n        /* \"#utility.yul\":13999:14169   */\n      pop\n      jump\t// out\n        /* \"#utility.yul\":14175:14541   */\n    tag_285:\n        /* \"#utility.yul\":14317:14320   */\n      0x00\n        /* \"#utility.yul\":14338:14405   */\n      tag_429\n        /* \"#utility.yul\":14402:14404   */\n      0x14\n        /* \"#utility.yul\":14397:14400   */\n      dup4\n        /* \"#utility.yul\":14338:14405   */\n      tag_265\n      jump\t// in\n    tag_429:\n        /* \"#utility.yul\":14331:14405   */\n      swap2\n      pop\n        /* \"#utility.yul\":14414:14507   */\n      tag_430\n        /* \"#utility.yul\":14503:14506   */\n      dup3\n        /* \"#utility.yul\":14414:14507   */\n      tag_284\n      jump\t// in\n    tag_430:\n        /* \"#utility.yul\":14532:14534   */\n      0x20\n        /* \"#utility.yul\":14527:14530   */\n      dup3\n        /* \"#utility.yul\":14523:14535   */\n      add\n        /* \"#utility.yul\":14516:14535   */\n      swap1\n      pop\n        /* \"#utility.yul\":14175:14541   */\n      swap2\n      swap1\n      pop\n      jump\t// out\n        /* \"#utility.yul\":14547:14966   */\n    tag_153:\n        /* \"#utility.yul\":14713:14717   */\n      0x00\n        /* \"#utility.yul\":14751:14753   */\n      0x20\n        /* \"#utility.yul\":14740:14749   */\n      dup3\n        /* \"#utility.yul\":14736:14754   */\n      add\n        /* \"#utility.yul\":14728:14754   */\n      swap1\n      pop\n        /* \"#utility.yul\":14800:14809   */\n      dup2\n        /* \"#utility.yul\":14794:14798   */\n      dup2\n        /* \"#utility.yul\":14790:14810   */\n      sub\n        /* \"#utility.yul\":14786:14787   */\n      0x00\n        /* \"#utility.yul\":14775:14784   */\n      dup4\n        /* \"#utility.yul\":14771:14788   */\n      add\n        /* \"#utility.yul\":14764:14811   */\n      mstore\n        /* \"#utility.yul\":14828:14959   */\n      tag_432\n        /* \"#utility.yul\":14954:14958   */\n      dup2\n        /* \"#utility.yul\":14828:14959   */\n      tag_285\n      jump\t// in\n    tag_432:\n        /* \"#utility.yul\":14820:14959   */\n      swap1\n      pop\n        /* \"#utility.yul\":14547:14966   */\n      swap2\n      swap1\n      pop\n      jump\t// out\n        /* \"#utility.yul\":14972:15148   */\n    tag_286:\n        /* \"#utility.yul\":15112:15140   */\n      0x4f6e6c792043726f776446756e64696e6720636f6e7472616374000000000000\n        /* \"#utility.yul\":15108:15109   */\n      0x00\n        /* \"#utility.yul\":15100:15106   */\n      dup3\n        /* \"#utility.yul\":15096:15110   */\n      add\n        /* \"#utility.yul\":15089:15141   */\n      mstore\n        /* \"#utility.yul\":14972:15148   */\n      pop\n      jump\t// out\n        /* \"#utility.yul\":15154:15520   */\n    tag_287:\n        /* \"#utility.yul\":15296:15299   */\n      0x00\n        /* \"#utility.yul\":15317:15384   */\n      tag_435\n        /* \"#utility.yul\":15381:15383   */\n      0x1a\n        /* \"#utility.yul\":15376:15379   */\n      dup4\n        /* \"#utility.yul\":15317:15384   */\n      tag_265\n      jump\t// in\n    tag_435:\n        /* \"#utility.yul\":15310:15384   */\n      swap2\n      pop\n        /* \"#utility.yul\":15393:15486   */\n      tag_436\n        /* \"#utility.yul\":15482:15485   */\n      dup3\n        /* \"#utility.yul\":15393:15486   */\n      tag_286\n      jump\t// in\n    tag_436:\n        /* \"#utility.yul\":15511:15513   */\n      0x20\n        /* \"#utility.yul\":15506:15509   */\n      dup3\n        /* \"#utility.yul\":15502:15514   */\n      add\n        /* \"#utility.yul\":15495:15514   */\n      swap1\n      pop\n        /* \"#utility.yul\":15154:15520   */\n      swap2\n      swap1\n      pop\n      jump\t// out\n        /* \"#utility.yul\":15526:15945   */\n    tag_156:\n        /* \"#utility.yul\":15692:15696   */\n      0x00\n        /* \"#utility.yul\":15730:15732   */\n      0x20\n        /* \"#utility.yul\":15719:15728   */\n      dup3\n        /* \"#utility.yul\":15715:15733   */\n      add\n        /* \"#utility.yul\":15707:15733   */\n      swap1\n      pop\n        /* \"#utility.yul\":15779:15788   */\n      dup2\n        /* \"#utility.yul\":15773:15777   */\n      dup2\n        /* \"#utility.yul\":15769:15789   */\n      sub\n        /* \"#utility.yul\":15765:15766   */\n      0x00\n        /* \"#utility.yul\":15754:15763   */\n      dup4\n        /* \"#utility.yul\":15750:15767   */\n      add\n        /* \"#utility.yul\":15743:15790   */\n      mstore\n        /* \"#utility.yul\":15807:15938   */\n      tag_438\n        /* \"#utility.yul\":15933:15937   */\n      dup2\n        /* \"#utility.yul\":15807:15938   */\n      tag_287\n      jump\t// in\n    tag_438:\n        /* \"#utility.yul\":15799:15938   */\n      swap1\n      pop\n        /* \"#utility.yul\":15526:15945   */\n      swap2\n      swap1\n      pop\n      jump\t// out\n        /* \"#utility.yul\":15951:16094   */\n    tag_288:\n        /* \"#utility.yul\":16008:16013   */\n      0x00\n        /* \"#utility.yul\":16039:16045   */\n      dup2\n        /* \"#utility.yul\":16033:16046   */\n      mload\n        /* \"#utility.yul\":16024:16046   */\n      swap1\n      pop\n        /* \"#utility.yul\":16055:16088   */\n      tag_440\n        /* \"#utility.yul\":16082:16087   */\n      dup2\n        /* \"#utility.yul\":16055:16088   */\n      tag_262\n      jump\t// in\n    tag_440:\n        /* \"#utility.yul\":15951:16094   */\n      swap3\n      swap2\n      pop\n      pop\n      jump\t// out\n        /* \"#utility.yul\":16100:16451   */\n    tag_161:\n        /* \"#utility.yul\":16170:16176   */\n      0x00\n        /* \"#utility.yul\":16219:16221   */\n      0x20\n        /* \"#utility.yul\":16207:16216   */\n      dup3\n        /* \"#utility.yul\":16198:16205   */\n      dup5\n        /* \"#utility.yul\":16194:16217   */\n      sub\n        /* \"#utility.yul\":16190:16222   */\n      slt\n        /* \"#utility.yul\":16187:16306   */\n      iszero\n      tag_442\n      jumpi\n        /* \"#utility.yul\":16225:16304   */\n      tag_443\n      tag_256\n      jump\t// in\n    tag_443:\n        /* \"#utility.yul\":16187:16306   */\n    tag_442:\n        /* \"#utility.yul\":16345:16346   */\n      0x00\n        /* \"#utility.yul\":16370:16434   */\n      tag_444\n        /* \"#utility.yul\":16426:16433   */\n      dup5\n        /* \"#utility.yul\":16417:16423   */\n      dup3\n        /* \"#utility.yul\":16406:16415   */\n      dup6\n        /* \"#utility.yul\":16402:16424   */\n      add\n        /* \"#utility.yul\":16370:16434   */\n      tag_288\n      jump\t// in\n    tag_444:\n        /* \"#utility.yul\":16360:16434   */\n      swap2\n      pop\n        /* \"#utility.yul\":16316:16444   */\n      pop\n        /* \"#utility.yul\":16100:16451   */\n      swap3\n      swap2\n      pop\n      pop\n      jump\t// out\n        /* \"#utility.yul\":16457:16617   */\n    tag_289:\n        /* \"#utility.yul\":16597:16609   */\n      0x4f6e6c79206f776e657200000000000000000000000000000000000000000000\n        /* \"#utility.yul\":16593:16594   */\n      0x00\n        /* \"#utility.yul\":16585:16591   */\n      dup3\n        /* \"#utility.yul\":16581:16595   */\n      add\n        /* \"#utility.yul\":16574:16610   */\n      mstore\n        /* \"#utility.yul\":16457:16617   */\n      pop\n      jump\t// out\n        /* \"#utility.yul\":16623:16989   */\n    tag_290:\n        /* \"#utility.yul\":16765:16768   */\n      0x00\n        /* \"#utility.yul\":16786:16853   */\n      tag_447\n        /* \"#utility.yul\":16850:16852   */\n      0x0a\n        /* \"#utility.yul\":16845:16848   */\n      dup4\n        /* \"#utility.yul\":16786:16853   */\n      tag_265\n      jump\t// in\n    tag_447:\n        /* \"#utility.yul\":16779:16853   */\n      swap2\n      pop\n        /* \"#utility.yul\":16862:16955   */\n      tag_448\n        /* \"#utility.yul\":16951:16954   */\n      dup3\n        /* \"#utility.yul\":16862:16955   */\n      tag_289\n      jump\t// in\n    tag_448:\n        /* \"#utility.yul\":16980:16982   */\n      0x20\n        /* \"#utility.yul\":16975:16978   */\n      dup3\n        /* \"#utility.yul\":16971:16983   */\n      add\n        /* \"#utility.yul\":16964:16983   */\n      swap1\n      pop\n        /* \"#utility.yul\":16623:16989   */\n      swap2\n      swap1\n      pop\n      jump\t// out\n        /* \"#utility.yul\":16995:17414   */\n    tag_168:\n        /* \"#utility.yul\":17161:17165   */\n      0x00\n        /* \"#utility.yul\":17199:17201   */\n      0x20\n        /* \"#utility.yul\":17188:17197   */\n      dup3\n        /* \"#utility.yul\":17184:17202   */\n      add\n        /* \"#utility.yul\":17176:17202   */\n      swap1\n      pop\n        /* \"#utility.yul\":17248:17257   */\n      dup2\n        /* \"#utility.yul\":17242:17246   */\n      dup2\n        /* \"#utility.yul\":17238:17258   */\n      sub\n        /* \"#utility.yul\":17234:17235   */\n      0x00\n        /* \"#utility.yul\":17223:17232   */\n      dup4\n        /* \"#utility.yul\":17219:17236   */\n      add\n        /* \"#utility.yul\":17212:17259   */\n      mstore\n        /* \"#utility.yul\":17276:17407   */\n      tag_450\n        /* \"#utility.yul\":17402:17406   */\n      dup2\n        /* \"#utility.yul\":17276:17407   */\n      tag_290\n      jump\t// in\n    tag_450:\n        /* \"#utility.yul\":17268:17407   */\n      swap1\n      pop\n        /* \"#utility.yul\":16995:17414   */\n      swap2\n      swap1\n      pop\n      jump\t// out\n        /* \"#utility.yul\":17420:17585   */\n    tag_291:\n        /* \"#utility.yul\":17560:17577   */\n      0x496e76616c696420616464726573730000000000000000000000000000000000\n        /* \"#utility.yul\":17556:17557   */\n      0x00\n        /* \"#utility.yul\":17548:17554   */\n      dup3\n        /* \"#utility.yul\":17544:17558   */\n      add\n        /* \"#utility.yul\":17537:17578   */\n      mstore\n        /* \"#utility.yul\":17420:17585   */\n      pop\n      jump\t// out\n        /* \"#utility.yul\":17591:17957   */\n    tag_292:\n        /* \"#utility.yul\":17733:17736   */\n      0x00\n        /* \"#utility.yul\":17754:17821   */\n      tag_453\n        /* \"#utility.yul\":17818:17820   */\n      0x0f\n        /* \"#utility.yul\":17813:17816   */\n      dup4\n        /* \"#utility.yul\":17754:17821   */\n      tag_265\n      jump\t// in\n    tag_453:\n        /* \"#utility.yul\":17747:17821   */\n      swap2\n      pop\n        /* \"#utility.yul\":17830:17923   */\n      tag_454\n        /* \"#utility.yul\":17919:17922   */\n      dup3\n        /* \"#utility.yul\":17830:17923   */\n      tag_291\n      jump\t// in\n    tag_454:\n        /* \"#utility.yul\":17948:17950   */\n      0x20\n        /* \"#utility.yul\":17943:17946   */\n      dup3\n        /* \"#utility.yul\":17939:17951   */\n      add\n        /* \"#utility.yul\":17932:17951   */\n      swap1\n      pop\n        /* \"#utility.yul\":17591:17957   */\n      swap2\n      swap1\n      pop\n      jump\t// out\n        /* \"#utility.yul\":17963:18382   */\n    tag_175:\n        /* \"#utility.yul\":18129:18133   */\n      0x00\n        /* \"#utility.yul\":18167:18169   */\n      0x20\n        /* \"#utility.yul\":18156:18165   */\n      dup3\n        /* \"#utility.yul\":18152:18170   */\n      add\n        /* \"#utility.yul\":18144:18170   */\n      swap1\n      pop\n        /* \"#utility.yul\":18216:18225   */\n      dup2\n        /* \"#utility.yul\":18210:18214   */\n      dup2\n        /* \"#utility.yul\":18206:18226   */\n      sub\n        /* \"#utility.yul\":18202:18203   */\n      0x00\n        /* \"#utility.yul\":18191:18200   */\n      dup4\n        /* \"#utility.yul\":18187:18204   */\n      add\n        /* \"#utility.yul\":18180:18227   */\n      mstore\n        /* \"#utility.yul\":18244:18375   */\n      tag_456\n        /* \"#utility.yul\":18370:18374   */\n      dup2\n        /* \"#utility.yul\":18244:18375   */\n      tag_292\n      jump\t// in\n    tag_456:\n        /* \"#utility.yul\":18236:18375   */\n      swap1\n      pop\n        /* \"#utility.yul\":17963:18382   */\n      swap2\n      swap1\n      pop\n      jump\t// out\n        /* \"#utility.yul\":18388:18556   */\n    tag_293:\n        /* \"#utility.yul\":18528:18548   */\n      0x496e76616c69642070657263656e746167650000000000000000000000000000\n        /* \"#utility.yul\":18524:18525   */\n      0x00\n        /* \"#utility.yul\":18516:18522   */\n      dup3\n        /* \"#utility.yul\":18512:18526   */\n      add\n        /* \"#utility.yul\":18505:18549   */\n      mstore\n        /* \"#utility.yul\":18388:18556   */\n      pop\n      jump\t// out\n        /* \"#utility.yul\":18562:18928   */\n    tag_294:\n        /* \"#utility.yul\":18704:18707   */\n      0x00\n        /* \"#utility.yul\":18725:18792   */\n      tag_459\n        /* \"#utility.yul\":18789:18791   */\n      0x12\n        /* \"#utility.yul\":18784:18787   */\n      dup4\n        /* \"#utility.yul\":18725:18792   */\n      tag_265\n      jump\t// in\n    tag_459:\n        /* \"#utility.yul\":18718:18792   */\n      swap2\n      pop\n        /* \"#utility.yul\":18801:18894   */\n      tag_460\n        /* \"#utility.yul\":18890:18893   */\n      dup3\n        /* \"#utility.yul\":18801:18894   */\n      tag_293\n      jump\t// in\n    tag_460:\n        /* \"#utility.yul\":18919:18921   */\n      0x20\n        /* \"#utility.yul\":18914:18917   */\n      dup3\n        /* \"#utility.yul\":18910:18922   */\n      add\n        /* \"#utility.yul\":18903:18922   */\n      swap1\n      pop\n        /* \"#utility.yul\":18562:18928   */\n      swap2\n      swap1\n      pop\n      jump\t// out\n        /* \"#utility.yul\":18934:19353   */\n    tag_178:\n        /* \"#utility.yul\":19100:19104   */\n      0x00\n        /* \"#utility.yul\":19138:19140   */\n      0x20\n        /* \"#utility.yul\":19127:19136   */\n      dup3\n        /* \"#utility.yul\":19123:19141   */\n      add\n        /* \"#utility.yul\":19115:19141   */\n      swap1\n      pop\n        /* \"#utility.yul\":19187:19196   */\n      dup2\n        /* \"#utility.yul\":19181:19185   */\n      dup2\n        /* \"#utility.yul\":19177:19197   */\n      sub\n        /* \"#utility.yul\":19173:19174   */\n      0x00\n        /* \"#utility.yul\":19162:19171   */\n      dup4\n        /* \"#utility.yul\":19158:19175   */\n      add\n        /* \"#utility.yul\":19151:19198   */\n      mstore\n        /* \"#utility.yul\":19215:19346   */\n      tag_462\n        /* \"#utility.yul\":19341:19345   */\n      dup2\n        /* \"#utility.yul\":19215:19346   */\n      tag_294\n      jump\t// in\n    tag_462:\n        /* \"#utility.yul\":19207:19346   */\n      swap1\n      pop\n        /* \"#utility.yul\":18934:19353   */\n      swap2\n      swap1\n      pop\n      jump\t// out\n        /* \"#utility.yul\":19359:19553   */\n    tag_191:\n        /* \"#utility.yul\":19399:19403   */\n      0x00\n        /* \"#utility.yul\":19419:19439   */\n      tag_464\n        /* \"#utility.yul\":19437:19438   */\n      dup3\n        /* \"#utility.yul\":19419:19439   */\n      tag_251\n      jump\t// in\n    tag_464:\n        /* \"#utility.yul\":19414:19439   */\n      swap2\n      pop\n        /* \"#utility.yul\":19453:19473   */\n      tag_465\n        /* \"#utility.yul\":19471:19472   */\n      dup4\n        /* \"#utility.yul\":19453:19473   */\n      tag_251\n      jump\t// in\n    tag_465:\n        /* \"#utility.yul\":19448:19473   */\n      swap3\n      pop\n        /* \"#utility.yul\":19497:19498   */\n      dup3\n        /* \"#utility.yul\":19494:19495   */\n      dup3\n        /* \"#utility.yul\":19490:19499   */\n      sub\n        /* \"#utility.yul\":19482:19499   */\n      swap1\n      pop\n        /* \"#utility.yul\":19521:19522   */\n      dup2\n        /* \"#utility.yul\":19515:19519   */\n      dup2\n        /* \"#utility.yul\":19512:19523   */\n      gt\n        /* \"#utility.yul\":19509:19546   */\n      iszero\n      tag_466\n      jumpi\n        /* \"#utility.yul\":19526:19544   */\n      tag_467\n      tag_272\n      jump\t// in\n    tag_467:\n        /* \"#utility.yul\":19509:19546   */\n    tag_466:\n        /* \"#utility.yul\":19359:19553   */\n      swap3\n      swap2\n      pop\n      pop\n      jump\t// out\n        /* \"#utility.yul\":19559:19750   */\n    tag_193:\n        /* \"#utility.yul\":19599:19602   */\n      0x00\n        /* \"#utility.yul\":19618:19638   */\n      tag_469\n        /* \"#utility.yul\":19636:19637   */\n      dup3\n        /* \"#utility.yul\":19618:19638   */\n      tag_251\n      jump\t// in\n    tag_469:\n        /* \"#utility.yul\":19613:19638   */\n      swap2\n      pop\n        /* \"#utility.yul\":19652:19672   */\n      tag_470\n        /* \"#utility.yul\":19670:19671   */\n      dup4\n        /* \"#utility.yul\":19652:19672   */\n      tag_251\n      jump\t// in\n    tag_470:\n        /* \"#utility.yul\":19647:19672   */\n      swap3\n      pop\n        /* \"#utility.yul\":19695:19696   */\n      dup3\n        /* \"#utility.yul\":19692:19693   */\n      dup3\n        /* \"#utility.yul\":19688:19697   */\n      add\n        /* \"#utility.yul\":19681:19697   */\n      swap1\n      pop\n        /* \"#utility.yul\":19716:19719   */\n      dup1\n        /* \"#utility.yul\":19713:19714   */\n      dup3\n        /* \"#utility.yul\":19710:19720   */\n      gt\n        /* \"#utility.yul\":19707:19743   */\n      iszero\n      tag_471\n      jumpi\n        /* \"#utility.yul\":19723:19741   */\n      tag_472\n      tag_272\n      jump\t// in\n    tag_472:\n        /* \"#utility.yul\":19707:19743   */\n    tag_471:\n        /* \"#utility.yul\":19559:19750   */\n      swap3\n      swap2\n      pop\n      pop\n      jump\t// out\n        /* \"#utility.yul\":19756:19918   */\n    tag_295:\n        /* \"#utility.yul\":19896:19910   */\n      0x4578636565647320313030250000000000000000000000000000000000000000\n        /* \"#utility.yul\":19892:19893   */\n      0x00\n        /* \"#utility.yul\":19884:19890   */\n      dup3\n        /* \"#utility.yul\":19880:19894   */\n      add\n        /* \"#utility.yul\":19873:19911   */\n      mstore\n        /* \"#utility.yul\":19756:19918   */\n      pop\n      jump\t// out\n        /* \"#utility.yul\":19924:20290   */\n    tag_296:\n        /* \"#utility.yul\":20066:20069   */\n      0x00\n        /* \"#utility.yul\":20087:20154   */\n      tag_475\n        /* \"#utility.yul\":20151:20153   */\n      0x0c\n        /* \"#utility.yul\":20146:20149   */\n      dup4\n        /* \"#utility.yul\":20087:20154   */\n      tag_265\n      jump\t// in\n    tag_475:\n        /* \"#utility.yul\":20080:20154   */\n      swap2\n      pop\n        /* \"#utility.yul\":20163:20256   */\n      tag_476\n        /* \"#utility.yul\":20252:20255   */\n      dup3\n        /* \"#utility.yul\":20163:20256   */\n      tag_295\n      jump\t// in\n    tag_476:\n        /* \"#utility.yul\":20281:20283   */\n      0x20\n        /* \"#utility.yul\":20276:20279   */\n      dup3\n        /* \"#utility.yul\":20272:20284   */\n      add\n        /* \"#utility.yul\":20265:20284   */\n      swap1\n      pop\n        /* \"#utility.yul\":19924:20290   */\n      swap2\n      swap1\n      pop\n      jump\t// out\n        /* \"#utility.yul\":20296:20715   */\n    tag_196:\n        /* \"#utility.yul\":20462:20466   */\n      0x00\n        /* \"#utility.yul\":20500:20502   */\n      0x20\n        /* \"#utility.yul\":20489:20498   */\n      dup3\n        /* \"#utility.yul\":20485:20503   */\n      add\n        /* \"#utility.yul\":20477:20503   */\n      swap1\n      pop\n        /* \"#utility.yul\":20549:20558   */\n      dup2\n        /* \"#utility.yul\":20543:20547   */\n      dup2\n        /* \"#utility.yul\":20539:20559   */\n      sub\n        /* \"#utility.yul\":20535:20536   */\n      0x00\n        /* \"#utility.yul\":20524:20533   */\n      dup4\n        /* \"#utility.yul\":20520:20537   */\n      add\n        /* \"#utility.yul\":20513:20560   */\n      mstore\n        /* \"#utility.yul\":20577:20708   */\n      tag_478\n        /* \"#utility.yul\":20703:20707   */\n      dup2\n        /* \"#utility.yul\":20577:20708   */\n      tag_296\n      jump\t// in\n    tag_478:\n        /* \"#utility.yul\":20569:20708   */\n      swap1\n      pop\n        /* \"#utility.yul\":20296:20715   */\n      swap2\n      swap1\n      pop\n      jump\t// out\n        /* \"#utility.yul\":20721:21053   */\n    tag_203:\n        /* \"#utility.yul\":20842:20846   */\n      0x00\n        /* \"#utility.yul\":20880:20882   */\n      0x40\n        /* \"#utility.yul\":20869:20878   */\n      dup3\n        /* \"#utility.yul\":20865:20883   */\n      add\n        /* \"#utility.yul\":20857:20883   */\n      swap1\n      pop\n        /* \"#utility.yul\":20893:20964   */\n      tag_480\n        /* \"#utility.yul\":20961:20962   */\n      0x00\n        /* \"#utility.yul\":20950:20959   */\n      dup4\n        /* \"#utility.yul\":20946:20963   */\n      add\n        /* \"#utility.yul\":20937:20943   */\n      dup6\n        /* \"#utility.yul\":20893:20964   */\n      tag_252\n      jump\t// in\n    tag_480:\n        /* \"#utility.yul\":20974:21046   */\n      tag_481\n        /* \"#utility.yul\":21042:21044   */\n      0x20\n        /* \"#utility.yul\":21031:21040   */\n      dup4\n        /* \"#utility.yul\":21027:21045   */\n      add\n        /* \"#utility.yul\":21018:21024   */\n      dup5\n        /* \"#utility.yul\":20974:21046   */\n      tag_252\n      jump\t// in\n    tag_481:\n        /* \"#utility.yul\":20721:21053   */\n      swap4\n      swap3\n      pop\n      pop\n      pop\n      jump\t// out\n        /* \"#utility.yul\":21059:21228   */\n    tag_297:\n        /* \"#utility.yul\":21199:21220   */\n      0x496e646578206f7574206f6620626f756e647300000000000000000000000000\n        /* \"#utility.yul\":21195:21196   */\n      0x00\n        /* \"#utility.yul\":21187:21193   */\n      dup3\n        /* \"#utility.yul\":21183:21197   */\n      add\n        /* \"#utility.yul\":21176:21221   */\n      mstore\n        /* \"#utility.yul\":21059:21228   */\n      pop\n      jump\t// out\n        /* \"#utility.yul\":21234:21600   */\n    tag_298:\n        /* \"#utility.yul\":21376:21379   */\n      0x00\n        /* \"#utility.yul\":21397:21464   */\n      tag_484\n        /* \"#utility.yul\":21461:21463   */\n      0x13\n        /* \"#utility.yul\":21456:21459   */\n      dup4\n        /* \"#utility.yul\":21397:21464   */\n      tag_265\n      jump\t// in\n    tag_484:\n        /* \"#utility.yul\":21390:21464   */\n      swap2\n      pop\n        /* \"#utility.yul\":21473:21566   */\n      tag_485\n        /* \"#utility.yul\":21562:21565   */\n      dup3\n        /* \"#utility.yul\":21473:21566   */\n      tag_297\n      jump\t// in\n    tag_485:\n        /* \"#utility.yul\":21591:21593   */\n      0x20\n        /* \"#utility.yul\":21586:21589   */\n      dup3\n        /* \"#utility.yul\":21582:21594   */\n      add\n        /* \"#utility.yul\":21575:21594   */\n      swap1\n      pop\n        /* \"#utility.yul\":21234:21600   */\n      swap2\n      swap1\n      pop\n      jump\t// out\n        /* \"#utility.yul\":21606:22025   */\n    tag_227:\n        /* \"#utility.yul\":21772:21776   */\n      0x00\n        /* \"#utility.yul\":21810:21812   */\n      0x20\n        /* \"#utility.yul\":21799:21808   */\n      dup3\n        /* \"#utility.yul\":21795:21813   */\n      add\n        /* \"#utility.yul\":21787:21813   */\n      swap1\n      pop\n        /* \"#utility.yul\":21859:21868   */\n      dup2\n        /* \"#utility.yul\":21853:21857   */\n      dup2\n        /* \"#utility.yul\":21849:21869   */\n      sub\n        /* \"#utility.yul\":21845:21846   */\n      0x00\n        /* \"#utility.yul\":21834:21843   */\n      dup4\n        /* \"#utility.yul\":21830:21847   */\n      add\n        /* \"#utility.yul\":21823:21870   */\n      mstore\n        /* \"#utility.yul\":21887:22018   */\n      tag_487\n        /* \"#utility.yul\":22013:22017   */\n      dup2\n        /* \"#utility.yul\":21887:22018   */\n      tag_298\n      jump\t// in\n    tag_487:\n        /* \"#utility.yul\":21879:22018   */\n      swap1\n      pop\n        /* \"#utility.yul\":21606:22025   */\n      swap2\n      swap1\n      pop\n      jump\t// out\n        /* \"#utility.yul\":22031:22193   */\n    tag_299:\n        /* \"#utility.yul\":22171:22185   */\n      0x4e6f2072656d61696e696e670000000000000000000000000000000000000000\n        /* \"#utility.yul\":22167:22168   */\n      0x00\n        /* \"#utility.yul\":22159:22165   */\n      dup3\n        /* \"#utility.yul\":22155:22169   */\n      add\n        /* \"#utility.yul\":22148:22186   */\n      mstore\n        /* \"#utility.yul\":22031:22193   */\n      pop\n      jump\t// out\n        /* \"#utility.yul\":22199:22565   */\n    tag_300:\n        /* \"#utility.yul\":22341:22344   */\n      0x00\n        /* \"#utility.yul\":22362:22429   */\n      tag_490\n        /* \"#utility.yul\":22426:22428   */\n      0x0c\n        /* \"#utility.yul\":22421:22424   */\n      dup4\n        /* \"#utility.yul\":22362:22429   */\n      tag_265\n      jump\t// in\n    tag_490:\n        /* \"#utility.yul\":22355:22429   */\n      swap2\n      pop\n        /* \"#utility.yul\":22438:22531   */\n      tag_491\n        /* \"#utility.yul\":22527:22530   */\n      dup3\n        /* \"#utility.yul\":22438:22531   */\n      tag_299\n      jump\t// in\n    tag_491:\n        /* \"#utility.yul\":22556:22558   */\n      0x20\n        /* \"#utility.yul\":22551:22554   */\n      dup3\n        /* \"#utility.yul\":22547:22559   */\n      add\n        /* \"#utility.yul\":22540:22559   */\n      swap1\n      pop\n        /* \"#utility.yul\":22199:22565   */\n      swap2\n      swap1\n      pop\n      jump\t// out\n        /* \"#utility.yul\":22571:22990   */\n    tag_243:\n        /* \"#utility.yul\":22737:22741   */\n      0x00\n        /* \"#utility.yul\":22775:22777   */\n      0x20\n        /* \"#utility.yul\":22764:22773   */\n      dup3\n        /* \"#utility.yul\":22760:22778   */\n      add\n        /* \"#utility.yul\":22752:22778   */\n      swap1\n      pop\n        /* \"#utility.yul\":22824:22833   */\n      dup2\n        /* \"#utility.yul\":22818:22822   */\n      dup2\n        /* \"#utility.yul\":22814:22834   */\n      sub\n        /* \"#utility.yul\":22810:22811   */\n      0x00\n        /* \"#utility.yul\":22799:22808   */\n      dup4\n        /* \"#utility.yul\":22795:22812   */\n      add\n        /* \"#utility.yul\":22788:22835   */\n      mstore\n        /* \"#utility.yul\":22852:22983   */\n      tag_493\n        /* \"#utility.yul\":22978:22982   */\n      dup2\n        /* \"#utility.yul\":22852:22983   */\n      tag_300\n      jump\t// in\n    tag_493:\n        /* \"#utility.yul\":22844:22983   */\n      swap1\n      pop\n        /* \"#utility.yul\":22571:22990   */\n      swap2\n      swap1\n      pop\n      jump\t// out\n\n    auxdata: 0xa264697066735822122028286b84e2763a09b0c33dd4f77f36e629d11eae359385f0e12f87edd014de1a64736f6c634300081f0033\n}\n",
				"bytecode": {
					"linkReferences": {},
					"object": "608060405234801561000f575f5ffd5b506040516124c43803806124c4833981810160405281019061003191906101a9565b5f73ffffffffffffffffffffffffffffffffffffffff168173ffffffffffffffffffffffffffffffffffffffff160361009f576040517f08c379a00000000000000000000000000000000000000000000000000000000081526004016100969061022e565b60405180910390fd5b335f5f6101000a81548173ffffffffffffffffffffffffffffffffffffffff021916908373ffffffffffffffffffffffffffffffffffffffff1602179055508060015f6101000a81548173ffffffffffffffffffffffffffffffffffffffff021916908373ffffffffffffffffffffffffffffffffffffffff1602179055505f6003819055505f60045f6101000a81548160ff0219169083151502179055505f6007819055505061024c565b5f5ffd5b5f73ffffffffffffffffffffffffffffffffffffffff82169050919050565b5f6101788261014f565b9050919050565b6101888161016e565b8114610192575f5ffd5b50565b5f815190506101a38161017f565b92915050565b5f602082840312156101be576101bd61014b565b5b5f6101cb84828501610195565b91505092915050565b5f82825260208201905092915050565b7f496e76616c696420746f6b656e000000000000000000000000000000000000005f82015250565b5f610218600d836101d4565b9150610223826101e4565b602082019050919050565b5f6020820190508181035f8301526102458161020c565b9050919050565b61226b806102595f395ff3fe608060405234801561000f575f5ffd5b5060043610610109575f3560e01c806382299a5c116100a05780639d76ea581161006f5780639d76ea581461026f578063a3c2c4621461028d578063ab377daa146102ab578063e9925271146102de578063ee38db951461031057610109565b806382299a5c146101f95780638872bbe2146102175780638da5cb5b146102335780639d573fa21461025157610109565b806324349671116100dc578063243496711461019957806341bcf6a4146101a3578063680e6c9b146101d357806375724990146101dd57610109565b8063047c312a1461010d578063049728811461012b57806311318b3314610149578063227d9f6514610167575b5f5ffd5b61011561031a565b604051610122919061176a565b60405180910390f35b610133610320565b604051610140919061176a565b60405180910390f35b61015161032c565b60405161015e919061179d565b60405180910390f35b610181600480360381019061017c9190611814565b61033e565b6040516101909392919061183f565b60405180910390f35b6101a1610448565b005b6101bd60048036038101906101b89190611814565b6107de565b6040516101ca919061176a565b60405180910390f35b6101db6107f3565b005b6101f760048036038101906101f2919061189e565b610afc565b005b610201611060565b60405161020e919061176a565b60405180910390f35b610231600480360381019061022c9190611814565b611069565b005b61023b61123a565b60405161024891906118eb565b60405180910390f35b61025961125e565b60405161026691906118eb565b60405180910390f35b610277611283565b60405161028491906118eb565b60405180910390f35b6102956112a8565b6040516102a2919061176a565b60405180910390f35b6102c560048036038101906102c09190611904565b6112ae565b6040516102d5949392919061192f565b60405180910390f35b6102f860048036038101906102f39190611904565b611321565b60405161030793929190611972565b60405180910390f35b610318611448565b005b60075481565b5f600580549050905090565b60045f9054906101000a900460ff1681565b5f5f5f5f5f90505b600580549050811015610436578473ffffffffffffffffffffffffffffffffffffffff166005828154811061037e5761037d6119a7565b5b905f5260205f2090600302015f015f9054906101000a900473ffffffffffffffffffffffffffffffffffffffff1673ffffffffffffffffffffffffffffffffffffffff160361042957600581815481106103db576103da6119a7565b5b905f5260205f20906003020160010154600582815481106103ff576103fe6119a7565b5b905f5260205f2090600302016002015f9054906101000a900460ff16600193509350935050610441565b8080600101915050610346565b505f5f5f9250925092505b9193909250565b60045f9054906101000a900460ff16610496576040517f08c379a000000000000000000000000000000000000000000000000000000000815260040161048d90611a2e565b60405180910390fd5b5f5f90505f5f90505f5f90505b60058054905081101561053d573373ffffffffffffffffffffffffffffffffffffffff16600582815481106104db576104da6119a7565b5b905f5260205f2090600302015f015f9054906101000a900473ffffffffffffffffffffffffffffffffffffffff1673ffffffffffffffffffffffffffffffffffffffff1603610530576001925080915061053d565b80806001019150506104a3565b508161057e576040517f08c379a000000000000000000000000000000000000000000000000000000000815260040161057590611a96565b60405180910390fd5b60058181548110610592576105916119a7565b5b905f5260205f2090600302016002015f9054906101000a900460ff16156105ee576040517f08c379a00000000000000000000000000000000000000000000000000000000081526004016105e590611afe565b60405180910390fd5b5f606460058381548110610605576106046119a7565b5b905f5260205f209060030201600101546003546106229190611b49565b61062c9190611bb7565b90505f8111610670576040517f08c379a000000000000000000000000000000000000000000000000000000000815260040161066790611c31565b60405180910390fd5b600160058381548110610686576106856119a7565b5b905f5260205f2090600302016002015f6101000a81548160ff0219169083151502179055505f60015f9054906101000a900473ffffffffffffffffffffffffffffffffffffffff1690508073ffffffffffffffffffffffffffffffffffffffff1663a9059cbb33846040518363ffffffff1660e01b815260040161070b929190611c4f565b6020604051808303815f875af1158015610727573d5f5f3e3d5ffd5b505050506040513d601f19601f8201168201806040525081019061074b9190611ca0565b61078a576040517f08c379a000000000000000000000000000000000000000000000000000000000815260040161078190611d15565b60405180910390fd5b3373ffffffffffffffffffffffffffffffffffffffff167f44d1ab781574735bc4050ac804fb34e512600e6cf637a801375f3ffa0b4b706f836040516107d0919061176a565b60405180910390a250505050565b6006602052805f5260405f205f915090505481565b60045f9054906101000a900460ff1615610842576040517f08c379a000000000000000000000000000000000000000000000000000000000815260040161083990611da3565b60405180910390fd5b5f60058054905011610889576040517f08c379a000000000000000000000000000000000000000000000000000000000815260040161088090611e0b565b60405180910390fd5b5f73ffffffffffffffffffffffffffffffffffffffff1660025f9054906101000a900473ffffffffffffffffffffffffffffffffffffffff1673ffffffffffffffffffffffffffffffffffffffff1603610918576040517f08c379a000000000000000000000000000000000000000000000000000000000815260040161090f90611e73565b60405180910390fd5b60025f9054906101000a900473ffffffffffffffffffffffffffffffffffffffff1673ffffffffffffffffffffffffffffffffffffffff163373ffffffffffffffffffffffffffffffffffffffff16146109a7576040517f08c379a000000000000000000000000000000000000000000000000000000000815260040161099e90611edb565b60405180910390fd5b5f60015f9054906101000a900473ffffffffffffffffffffffffffffffffffffffff1690505f8173ffffffffffffffffffffffffffffffffffffffff166370a08231306040518263ffffffff1660e01b8152600401610a0691906118eb565b602060405180830381865afa158015610a21573d5f5f3e3d5ffd5b505050506040513d601f19601f82011682018060405250810190610a459190611f0d565b90505f8111610a89576040517f08c379a0000000000000000000000000000000000000000000000000000000008152600401610a8090611c31565b60405180910390fd5b80600381905550600160045f6101000a81548160ff0219169083151502179055503373ffffffffffffffffffffffffffffffffffffffff167fa0b6ed69c727bcce4cfdf30bc2777d7b7007d936b4a4dea135cbf6622fe4a58c82604051610af0919061176a565b60405180910390a25050565b5f5f9054906101000a900473ffffffffffffffffffffffffffffffffffffffff1673ffffffffffffffffffffffffffffffffffffffff163373ffffffffffffffffffffffffffffffffffffffff1614610b8a576040517f08c379a0000000000000000000000000000000000000000000000000000000008152600401610b8190611f82565b60405180910390fd5b60045f9054906101000a900460ff1615610bd9576040517f08c379a0000000000000000000000000000000000000000000000000000000008152600401610bd090611da3565b60405180910390fd5b5f73ffffffffffffffffffffffffffffffffffffffff168273ffffffffffffffffffffffffffffffffffffffff1603610c47576040517f08c379a0000000000000000000000000000000000000000000000000000000008152600401610c3e90611fea565b60405180910390fd5b5f8111610c89576040517f08c379a0000000000000000000000000000000000000000000000000000000008152600401610c8090612052565b60405180910390fd5b5f5f90505f5f90505f5f90505b600580549050811015610d30578473ffffffffffffffffffffffffffffffffffffffff1660058281548110610cce57610ccd6119a7565b5b905f5260205f2090600302015f015f9054906101000a900473ffffffffffffffffffffffffffffffffffffffff1673ffffffffffffffffffffffffffffffffffffffff1603610d235760019250809150610d30565b8080600101915050610c96565b508115610e57575f60058281548110610d4c57610d4b6119a7565b5b905f5260205f20906003020160010154905060648482600754610d6f9190612070565b610d7991906120a3565b1115610dba576040517f08c379a0000000000000000000000000000000000000000000000000000000008152600401610db190612120565b60405180910390fd5b8381600754610dc99190612070565b610dd391906120a3565b6007819055508360058381548110610dee57610ded6119a7565b5b905f5260205f209060030201600101819055508473ffffffffffffffffffffffffffffffffffffffff167fc7ce19f077ef8efce4ee2b5a828fce80c50fbe4bed9e59245675509d04cbee798286604051610e4992919061213e565b60405180910390a25061105a565b606483600754610e6791906120a3565b1115610ea8576040517f08c379a0000000000000000000000000000000000000000000000000000000008152600401610e9f90612120565b60405180910390fd5b5f60405180608001604052808673ffffffffffffffffffffffffffffffffffffffff1681526020018581526020015f15158152602001600115158152509050600581908060018154018082558091505060019003905f5260205f2090600302015f909190919091505f820151815f015f6101000a81548173ffffffffffffffffffffffffffffffffffffffff021916908373ffffffffffffffffffffffffffffffffffffffff160217905550602082015181600101556040820151816002015f6101000a81548160ff02191690831515021790555060608201518160020160016101000a81548160ff02191690831515021790555050506001600580549050610fb19190612070565b60065f8773ffffffffffffffffffffffffffffffffffffffff1673ffffffffffffffffffffffffffffffffffffffff1681526020019081526020015f20819055508360075f82825461100391906120a3565b925050819055508473ffffffffffffffffffffffffffffffffffffffff167f3bc19114ca6a687ffd9445c87615db284e96364365d72b010ec53244b45e561b85604051611050919061176a565b60405180910390a2505b50505050565b5f600754905090565b5f5f9054906101000a900473ffffffffffffffffffffffffffffffffffffffff1673ffffffffffffffffffffffffffffffffffffffff163373ffffffffffffffffffffffffffffffffffffffff16146110f7576040517f08c379a00000000000000000000000000000000000000000000000000000000081526004016110ee90611f82565b60405180910390fd5b60045f9054906101000a900460ff1615611146576040517f08c379a000000000000000000000000000000000000000000000000000000000815260040161113d90611da3565b60405180910390fd5b5f73ffffffffffffffffffffffffffffffffffffffff168173ffffffffffffffffffffffffffffffffffffffff16036111b4576040517f08c379a00000000000000000000000000000000000000000000000000000000081526004016111ab90611fea565b60405180910390fd5b8060025f6101000a81548173ffffffffffffffffffffffffffffffffffffffff021916908373ffffffffffffffffffffffffffffffffffffffff1602179055508073ffffffffffffffffffffffffffffffffffffffff167f93e1a26ffb45db2847026d24714c335023c27e761943052f3e687dc407c680b360405160405180910390a250565b5f5f9054906101000a900473ffffffffffffffffffffffffffffffffffffffff1681565b60025f9054906101000a900473ffffffffffffffffffffffffffffffffffffffff1681565b60015f9054906101000a900473ffffffffffffffffffffffffffffffffffffffff1681565b60035481565b600581815481106112bd575f80fd5b905f5260205f2090600302015f91509050805f015f9054906101000a900473ffffffffffffffffffffffffffffffffffffffff1690806001015490806002015f9054906101000a900460ff16908060020160019054906101000a900460ff16905084565b5f5f5f600580549050841061136b576040517f08c379a0000000000000000000000000000000000000000000000000000000008152600401611362906121af565b60405180910390fd5b5f600585815481106113805761137f6119a7565b5b905f5260205f2090600302016040518060800160405290815f82015f9054906101000a900473ffffffffffffffffffffffffffffffffffffffff1673ffffffffffffffffffffffffffffffffffffffff1673ffffffffffffffffffffffffffffffffffffffff16815260200160018201548152602001600282015f9054906101000a900460ff161515151581526020016002820160019054906101000a900460ff1615151515815250509050805f015181602001518260400151935093509350509193909250565b5f5f9054906101000a900473ffffffffffffffffffffffffffffffffffffffff1673ffffffffffffffffffffffffffffffffffffffff163373ffffffffffffffffffffffffffffffffffffffff16146114d6576040517f08c379a00000000000000000000000000000000000000000000000000000000081526004016114cd90611f82565b60405180910390fd5b60045f9054906101000a900460ff16611524576040517f08c379a000000000000000000000000000000000000000000000000000000000815260040161151b90611a2e565b60405180910390fd5b5f60015f9054906101000a900473ffffffffffffffffffffffffffffffffffffffff1690505f8173ffffffffffffffffffffffffffffffffffffffff166370a08231306040518263ffffffff1660e01b815260040161158391906118eb565b602060405180830381865afa15801561159e573d5f5f3e3d5ffd5b505050506040513d601f19601f820116820180604052508101906115c29190611f0d565b90505f8111611606576040517f08c379a00000000000000000000000000000000000000000000000000000000081526004016115fd90612217565b60405180910390fd5b8173ffffffffffffffffffffffffffffffffffffffff1663a9059cbb5f5f9054906101000a900473ffffffffffffffffffffffffffffffffffffffff16836040518363ffffffff1660e01b8152600401611661929190611c4f565b6020604051808303815f875af115801561167d573d5f5f3e3d5ffd5b505050506040513d601f19601f820116820180604052508101906116a19190611ca0565b6116e0576040517f08c379a00000000000000000000000000000000000000000000000000000000081526004016116d790611d15565b60405180910390fd5b5f5f9054906101000a900473ffffffffffffffffffffffffffffffffffffffff1673ffffffffffffffffffffffffffffffffffffffff167fb700c819c89549cd901221b05c2d1653b84086815ee1393d7dacb6f4ee31227582604051611746919061176a565b60405180910390a25050565b5f819050919050565b61176481611752565b82525050565b5f60208201905061177d5f83018461175b565b92915050565b5f8115159050919050565b61179781611783565b82525050565b5f6020820190506117b05f83018461178e565b92915050565b5f5ffd5b5f73ffffffffffffffffffffffffffffffffffffffff82169050919050565b5f6117e3826117ba565b9050919050565b6117f3816117d9565b81146117fd575f5ffd5b50565b5f8135905061180e816117ea565b92915050565b5f60208284031215611829576118286117b6565b5b5f61183684828501611800565b91505092915050565b5f6060820190506118525f83018661175b565b61185f602083018561178e565b61186c604083018461178e565b949350505050565b61187d81611752565b8114611887575f5ffd5b50565b5f8135905061189881611874565b92915050565b5f5f604083850312156118b4576118b36117b6565b5b5f6118c185828601611800565b92505060206118d28582860161188a565b9150509250929050565b6118e5816117d9565b82525050565b5f6020820190506118fe5f8301846118dc565b92915050565b5f60208284031215611919576119186117b6565b5b5f6119268482850161188a565b91505092915050565b5f6080820190506119425f8301876118dc565b61194f602083018661175b565b61195c604083018561178e565b611969606083018461178e565b95945050505050565b5f6060820190506119855f8301866118dc565b611992602083018561175b565b61199f604083018461178e565b949350505050565b7f4e487b71000000000000000000000000000000000000000000000000000000005f52603260045260245ffd5b5f82825260208201905092915050565b7f46756e6473206e6f7420726563656976656400000000000000000000000000005f82015250565b5f611a186012836119d4565b9150611a23826119e4565b602082019050919050565b5f6020820190508181035f830152611a4581611a0c565b9050919050565b7f4e6f742061207368617265686f6c6465720000000000000000000000000000005f82015250565b5f611a806011836119d4565b9150611a8b82611a4c565b602082019050919050565b5f6020820190508181035f830152611aad81611a74565b9050919050565b7f416c72656164792077697468647261776e0000000000000000000000000000005f82015250565b5f611ae86011836119d4565b9150611af382611ab4565b602082019050919050565b5f6020820190508181035f830152611b1581611adc565b9050919050565b7f4e487b71000000000000000000000000000000000000000000000000000000005f52601160045260245ffd5b5f611b5382611752565b9150611b5e83611752565b9250828202611b6c81611752565b91508282048414831517611b8357611b82611b1c565b5b5092915050565b7f4e487b71000000000000000000000000000000000000000000000000000000005f52601260045260245ffd5b5f611bc182611752565b9150611bcc83611752565b925082611bdc57611bdb611b8a565b5b828204905092915050565b7f4e6f20746f6b656e7300000000000000000000000000000000000000000000005f82015250565b5f611c1b6009836119d4565b9150611c2682611be7565b602082019050919050565b5f6020820190508181035f830152611c4881611c0f565b9050919050565b5f604082019050611c625f8301856118dc565b611c6f602083018461175b565b9392505050565b611c7f81611783565b8114611c89575f5ffd5b50565b5f81519050611c9a81611c76565b92915050565b5f60208284031215611cb557611cb46117b6565b5b5f611cc284828501611c8c565b91505092915050565b7f5472616e73666572206661696c656400000000000000000000000000000000005f82015250565b5f611cff600f836119d4565b9150611d0a82611ccb565b602082019050919050565b5f6020820190508181035f830152611d2c81611cf3565b9050919050565b7f43616e6e6f74206d6f646966792061667465722066756e6473207265636569765f8201527f6564000000000000000000000000000000000000000000000000000000000000602082015250565b5f611d8d6022836119d4565b9150611d9882611d33565b604082019050919050565b5f6020820190508181035f830152611dba81611d81565b9050919050565b7f4e6f207368617265686f6c6465727300000000000000000000000000000000005f82015250565b5f611df5600f836119d4565b9150611e0082611dc1565b602082019050919050565b5f6020820190508181035f830152611e2281611de9565b9050919050565b7f43726f776446756e64696e67206e6f74207365740000000000000000000000005f82015250565b5f611e5d6014836119d4565b9150611e6882611e29565b602082019050919050565b5f6020820190508181035f830152611e8a81611e51565b9050919050565b7f4f6e6c792043726f776446756e64696e6720636f6e74726163740000000000005f82015250565b5f611ec5601a836119d4565b9150611ed082611e91565b602082019050919050565b5f6020820190508181035f830152611ef281611eb9565b9050919050565b5f81519050611f0781611874565b92915050565b5f60208284031215611f2257611f216117b6565b5b5f611f2f84828501611ef9565b91505092915050565b7f4f6e6c79206f776e6572000000000000000000000000000000000000000000005f82015250565b5f611f6c600a836119d4565b9150611f7782611f38565b602082019050919050565b5f6020820190508181035f830152611f9981611f60565b9050919050565b7f496e76616c6964206164647265737300000000000000000000000000000000005f82015250565b5f611fd4600f836119d4565b9150611fdf82611fa0565b602082019050919050565b5f6020820190508181035f83015261200181611fc8565b9050919050565b7f496e76616c69642070657263656e7461676500000000000000000000000000005f82015250565b5f61203c6012836119d4565b915061204782612008565b602082019050919050565b5f6020820190508181035f83015261206981612030565b9050919050565b5f61207a82611752565b915061208583611752565b925082820390508181111561209d5761209c611b1c565b5b92915050565b5f6120ad82611752565b91506120b883611752565b92508282019050808211156120d0576120cf611b1c565b5b92915050565b7f45786365656473203130302500000000000000000000000000000000000000005f82015250565b5f61210a600c836119d4565b9150612115826120d6565b602082019050919050565b5f6020820190508181035f830152612137816120fe565b9050919050565b5f6040820190506121515f83018561175b565b61215e602083018461175b565b9392505050565b7f496e646578206f7574206f6620626f756e6473000000000000000000000000005f82015250565b5f6121996013836119d4565b91506121a482612165565b602082019050919050565b5f6020820190508181035f8301526121c68161218d565b9050919050565b7f4e6f2072656d61696e696e6700000000000000000000000000000000000000005f82015250565b5f612201600c836119d4565b915061220c826121cd565b602082019050919050565b5f6020820190508181035f83015261222e816121f5565b905091905056fea264697066735822122028286b84e2763a09b0c33dd4f77f36e629d11eae359385f0e12f87edd014de1a64736f6c634300081f0033",
					"opcodes": "PUSH1 0x80 PUSH1 0x40 MSTORE CALLVALUE DUP1 ISZERO PUSH2 0xF JUMPI PUSH0 PUSH0 REVERT JUMPDEST POP PUSH1 0x40 MLOAD PUSH2 0x24C4 CODESIZE SUB DUP1 PUSH2 0x24C4 DUP4 CODECOPY DUP2 DUP2 ADD PUSH1 0x40 MSTORE DUP2 ADD SWAP1 PUSH2 0x31 SWAP2 SWAP1 PUSH2 0x1A9 JUMP JUMPDEST PUSH0 PUSH20 0xFFFFFFFFFFFFFFFFFFFFFFFFFFFFFFFFFFFFFFFF AND DUP2 PUSH20 0xFFFFFFFFFFFFFFFFFFFFFFFFFFFFFFFFFFFFFFFF AND SUB PUSH2 0x9F JUMPI PUSH1 0x40 MLOAD PUSH32 0x8C379A000000000000000000000000000000000000000000000000000000000 DUP2 MSTORE PUSH1 0x4 ADD PUSH2 0x96 SWAP1 PUSH2 0x22E JUMP JUMPDEST PUSH1 0x40 MLOAD DUP1 SWAP2 SUB SWAP1 REVERT JUMPDEST CALLER PUSH0 PUSH0 PUSH2 0x100 EXP DUP2 SLOAD DUP2 PUSH20 0xFFFFFFFFFFFFFFFFFFFFFFFFFFFFFFFFFFFFFFFF MUL NOT AND SWAP1 DUP4 PUSH20 0xFFFFFFFFFFFFFFFFFFFFFFFFFFFFFFFFFFFFFFFF AND MUL OR SWAP1 SSTORE POP DUP1 PUSH1 0x1 PUSH0 PUSH2 0x100 EXP DUP2 SLOAD DUP2 PUSH20 0xFFFFFFFFFFFFFFFFFFFFFFFFFFFFFFFFFFFFFFFF MUL NOT AND SWAP1 DUP4 PUSH20 0xFFFFFFFFFFFFFFFFFFFFFFFFFFFFFFFFFFFFFFFF AND MUL OR SWAP1 SSTORE POP PUSH0 PUSH1 0x3 DUP2 SWAP1 SSTORE POP PUSH0 PUSH1 0x4 PUSH0 PUSH2 0x100 EXP DUP2 SLOAD DUP2 PUSH1 0xFF MUL NOT AND SWAP1 DUP4 ISZERO ISZERO MUL OR SWAP1 SSTORE POP PUSH0 PUSH1 0x7 DUP2 SWAP1 SSTORE POP POP PUSH2 0x24C JUMP JUMPDEST PUSH0 PUSH0 REVERT JUMPDEST PUSH0 PUSH20 0xFFFFFFFFFFFFFFFFFFFFFFFFFFFFFFFFFFFFFFFF DUP3 AND SWAP1 POP SWAP2 SWAP1 POP JUMP JUMPDEST PUSH0 PUSH2 0x178 DUP3 PUSH2 0x14F JUMP JUMPDEST SWAP1 POP SWAP2 SWAP1 POP JUMP JUMPDEST PUSH2 0x188 DUP2 PUSH2 0x16E JUMP JUMPDEST DUP2 EQ PUSH2 0x192 JUMPI PUSH0 PUSH0 REVERT JUMPDEST POP JUMP JUMPDEST PUSH0 DUP2 MLOAD SWAP1 POP PUSH2 0x1A3 DUP2 PUSH2 0x17F JUMP JUMPDEST SWAP3 SWAP2 POP POP JUMP JUMPDEST PUSH0 PUSH1 0x20 DUP3 DUP5 SUB SLT ISZERO PUSH2 0x1BE JUMPI PUSH2 0x1BD PUSH2 0x14B JUMP JUMPDEST JUMPDEST PUSH0 PUSH2 0x1CB DUP5 DUP3 DUP6 ADD PUSH2 0x195 JUMP JUMPDEST SWAP2 POP POP SWAP3 SWAP2 POP POP JUMP JUMPDEST PUSH0 DUP3 DUP3 MSTORE PUSH1 0x20 DUP3 ADD SWAP1 POP SWAP3 SWAP2 POP POP JUMP JUMPDEST PUSH32 0x496E76616C696420746F6B656E00000000000000000000000000000000000000 PUSH0 DUP3 ADD MSTORE POP JUMP JUMPDEST PUSH0 PUSH2 0x218 PUSH1 0xD DUP4 PUSH2 0x1D4 JUMP JUMPDEST SWAP2 POP PUSH2 0x223 DUP3 PUSH2 0x1E4 JUMP JUMPDEST PUSH1 0x20 DUP3 ADD SWAP1 POP SWAP2 SWAP1 POP JUMP JUMPDEST PUSH0 PUSH1 0x20 DUP3 ADD SWAP1 POP DUP2 DUP2 SUB PUSH0 DUP4 ADD MSTORE PUSH2 0x245 DUP2 PUSH2 0x20C JUMP JUMPDEST SWAP1 POP SWAP2 SWAP1 POP JUMP JUMPDEST PUSH2 0x226B DUP1 PUSH2 0x259 PUSH0 CODECOPY PUSH0 RETURN INVALID PUSH1 0x80 PUSH1 0x40 MSTORE CALLVALUE DUP1 ISZERO PUSH2 0xF JUMPI PUSH0 PUSH0 REVERT JUMPDEST POP PUSH1 0x4 CALLDATASIZE LT PUSH2 0x109 JUMPI PUSH0 CALLDATALOAD PUSH1 0xE0 SHR DUP1 PUSH4 0x82299A5C GT PUSH2 0xA0 JUMPI DUP1 PUSH4 0x9D76EA58 GT PUSH2 0x6F JUMPI DUP1 PUSH4 0x9D76EA58 EQ PUSH2 0x26F JUMPI DUP1 PUSH4 0xA3C2C462 EQ PUSH2 0x28D JUMPI DUP1 PUSH4 0xAB377DAA EQ PUSH2 0x2AB JUMPI DUP1 PUSH4 0xE9925271 EQ PUSH2 0x2DE JUMPI DUP1 PUSH4 0xEE38DB95 EQ PUSH2 0x310 JUMPI PUSH2 0x109 JUMP JUMPDEST DUP1 PUSH4 0x82299A5C EQ PUSH2 0x1F9 JUMPI DUP1 PUSH4 0x8872BBE2 EQ PUSH2 0x217 JUMPI DUP1 PUSH4 0x8DA5CB5B EQ PUSH2 0x233 JUMPI DUP1 PUSH4 0x9D573FA2 EQ PUSH2 0x251 JUMPI PUSH2 0x109 JUMP JUMPDEST DUP1 PUSH4 0x24349671 GT PUSH2 0xDC JUMPI DUP1 PUSH4 0x24349671 EQ PUSH2 0x199 JUMPI DUP1 PUSH4 0x41BCF6A4 EQ PUSH2 0x1A3 JUMPI DUP1 PUSH4 0x680E6C9B EQ PUSH2 0x1D3 JUMPI DUP1 PUSH4 0x75724990 EQ PUSH2 0x1DD JUMPI PUSH2 0x109 JUMP JUMPDEST DUP1 PUSH4 0x47C312A EQ PUSH2 0x10D JUMPI DUP1 PUSH4 0x4972881 EQ PUSH2 0x12B JUMPI DUP1 PUSH4 0x11318B33 EQ PUSH2 0x149 JUMPI DUP1 PUSH4 0x227D9F65 EQ PUSH2 0x167 JUMPI JUMPDEST PUSH0 PUSH0 REVERT JUMPDEST PUSH2 0x115 PUSH2 0x31A JUMP JUMPDEST PUSH1 0x40 MLOAD PUSH2 0x122 SWAP2 SWAP1 PUSH2 0x176A JUMP JUMPDEST PUSH1 0x40 MLOAD DUP1 SWAP2 SUB SWAP1 RETURN JUMPDEST PUSH2 0x133 PUSH2 0x320 JUMP JUMPDEST PUSH1 0x40 MLOAD PUSH2 0x140 SWAP2 SWAP1 PUSH2 0x176A JUMP JUMPDEST PUSH1 0x40 MLOAD DUP1 SWAP2 SUB SWAP1 RETURN JUMPDEST PUSH2 0x151 PUSH2 0x32C JUMP JUMPDEST PUSH1 0x40 MLOAD PUSH2 0x15E SWAP2 SWAP1 PUSH2 0x179D JUMP JUMPDEST PUSH1 0x40 MLOAD DUP1 SWAP2 SUB SWAP1 RETURN JUMPDEST PUSH2 0x181 PUSH1 0x4 DUP1 CALLDATASIZE SUB DUP2 ADD SWAP1 PUSH2 0x17C SWAP2 SWAP1 PUSH2 0x1814 JUMP JUMPDEST PUSH2 0x33E JUMP JUMPDEST PUSH1 0x40 MLOAD PUSH2 0x190 SWAP4 SWAP3 SWAP2 SWAP1 PUSH2 0x183F JUMP JUMPDEST PUSH1 0x40 MLOAD DUP1 SWAP2 SUB SWAP1 RETURN JUMPDEST PUSH2 0x1A1 PUSH2 0x448 JUMP JUMPDEST STOP JUMPDEST PUSH2 0x1BD PUSH1 0x4 DUP1 CALLDATASIZE SUB DUP2 ADD SWAP1 PUSH2 0x1B8 SWAP2 SWAP1 PUSH2 0x1814 JUMP JUMPDEST PUSH2 0x7DE JUMP JUMPDEST PUSH1 0x40 MLOAD PUSH2 0x1CA SWAP2 SWAP1 PUSH2 0x176A JUMP JUMPDEST PUSH1 0x40 MLOAD DUP1 SWAP2 SUB SWAP1 RETURN JUMPDEST PUSH2 0x1DB PUSH2 0x7F3 JUMP JUMPDEST STOP JUMPDEST PUSH2 0x1F7 PUSH1 0x4 DUP1 CALLDATASIZE SUB DUP2 ADD SWAP1 PUSH2 0x1F2 SWAP2 SWAP1 PUSH2 0x189E JUMP JUMPDEST PUSH2 0xAFC JUMP JUMPDEST STOP JUMPDEST PUSH2 0x201 PUSH2 0x1060 JUMP JUMPDEST PUSH1 0x40 MLOAD PUSH2 0x20E SWAP2 SWAP1 PUSH2 0x176A JUMP JUMPDEST PUSH1 0x40 MLOAD DUP1 SWAP2 SUB SWAP1 RETURN JUMPDEST PUSH2 0x231 PUSH1 0x4 DUP1 CALLDATASIZE SUB DUP2 ADD SWAP1 PUSH2 0x22C SWAP2 SWAP1 PUSH2 0x1814 JUMP JUMPDEST PUSH2 0x1069 JUMP JUMPDEST STOP JUMPDEST PUSH2 0x23B PUSH2 0x123A JUMP JUMPDEST PUSH1 0x40 MLOAD PUSH2 0x248 SWAP2 SWAP1 PUSH2 0x18EB JUMP JUMPDEST PUSH1 0x40 MLOAD DUP1 SWAP2 SUB SWAP1 RETURN JUMPDEST PUSH2 0x259 PUSH2 0x125E JUMP JUMPDEST PUSH1 0x40 MLOAD PUSH2 0x266 SWAP2 SWAP1 PUSH2 0x18EB JUMP JUMPDEST PUSH1 0x40 MLOAD DUP1 SWAP2 SUB SWAP1 RETURN JUMPDEST PUSH2 0x277 PUSH2 0x1283 JUMP JUMPDEST PUSH1 0x40 MLOAD PUSH2 0x284 SWAP2 SWAP1 PUSH2 0x18EB JUMP JUMPDEST PUSH1 0x40 MLOAD DUP1 SWAP2 SUB SWAP1 RETURN JUMPDEST PUSH2 0x295 PUSH2 0x12A8 JUMP JUMPDEST PUSH1 0x40 MLOAD PUSH2 0x2A2 SWAP2 SWAP1 PUSH2 0x176A JUMP JUMPDEST PUSH1 0x40 MLOAD DUP1 SWAP2 SUB SWAP1 RETURN JUMPDEST PUSH2 0x2C5 PUSH1 0x4 DUP1 CALLDATASIZE SUB DUP2 ADD SWAP1 PUSH2 0x2C0 SWAP2 SWAP1 PUSH2 0x1904 JUMP JUMPDEST PUSH2 0x12AE JUMP JUMPDEST PUSH1 0x40 MLOAD PUSH2 0x2D5 SWAP5 SWAP4 SWAP3 SWAP2 SWAP1 PUSH2 0x192F JUMP JUMPDEST PUSH1 0x40 MLOAD DUP1 SWAP2 SUB SWAP1 RETURN JUMPDEST PUSH2 0x2F8 PUSH1 0x4 DUP1 CALLDATASIZE SUB DUP2 ADD SWAP1 PUSH2 0x2F3 SWAP2 SWAP1 PUSH2 0x1904 JUMP JUMPDEST PUSH2 0x1321 JUMP JUMPDEST PUSH1 0x40 MLOAD PUSH2 0x307 SWAP4 SWAP3 SWAP2 SWAP1 PUSH2 0x1972 JUMP JUMPDEST PUSH1 0x40 MLOAD DUP1 SWAP2 SUB SWAP1 RETURN JUMPDEST PUSH2 0x318 PUSH2 0x1448 JUMP JUMPDEST STOP JUMPDEST PUSH1 0x7 SLOAD DUP2 JUMP JUMPDEST PUSH0 PUSH1 0x5 DUP1 SLOAD SWAP1 POP SWAP1 POP SWAP1 JUMP JUMPDEST PUSH1 0x4 PUSH0 SWAP1 SLOAD SWAP1 PUSH2 0x100 EXP SWAP1 DIV PUSH1 0xFF AND DUP2 JUMP JUMPDEST PUSH0 PUSH0 PUSH0 PUSH0 PUSH0 SWAP1 POP JUMPDEST PUSH1 0x5 DUP1 SLOAD SWAP1 POP DUP2 LT ISZERO PUSH2 0x436 JUMPI DUP5 PUSH20 0xFFFFFFFFFFFFFFFFFFFFFFFFFFFFFFFFFFFFFFFF AND PUSH1 0x5 DUP3 DUP2 SLOAD DUP2 LT PUSH2 0x37E JUMPI PUSH2 0x37D PUSH2 0x19A7 JUMP JUMPDEST JUMPDEST SWAP1 PUSH0 MSTORE PUSH1 0x20 PUSH0 KECCAK256 SWAP1 PUSH1 0x3 MUL ADD PUSH0 ADD PUSH0 SWAP1 SLOAD SWAP1 PUSH2 0x100 EXP SWAP1 DIV PUSH20 0xFFFFFFFFFFFFFFFFFFFFFFFFFFFFFFFFFFFFFFFF AND PUSH20 0xFFFFFFFFFFFFFFFFFFFFFFFFFFFFFFFFFFFFFFFF AND SUB PUSH2 0x429 JUMPI PUSH1 0x5 DUP2 DUP2 SLOAD DUP2 LT PUSH2 0x3DB JUMPI PUSH2 0x3DA PUSH2 0x19A7 JUMP JUMPDEST JUMPDEST SWAP1 PUSH0 MSTORE PUSH1 0x20 PUSH0 KECCAK256 SWAP1 PUSH1 0x3 MUL ADD PUSH1 0x1 ADD SLOAD PUSH1 0x5 DUP3 DUP2 SLOAD DUP2 LT PUSH2 0x3FF JUMPI PUSH2 0x3FE PUSH2 0x19A7 JUMP JUMPDEST JUMPDEST SWAP1 PUSH0 MSTORE PUSH1 0x20 PUSH0 KECCAK256 SWAP1 PUSH1 0x3 MUL ADD PUSH1 0x2 ADD PUSH0 SWAP1 SLOAD SWAP1 PUSH2 0x100 EXP SWAP1 DIV PUSH1 0xFF AND PUSH1 0x1 SWAP4 POP SWAP4 POP SWAP4 POP POP PUSH2 0x441 JUMP JUMPDEST DUP1 DUP1 PUSH1 0x1 ADD SWAP2 POP POP PUSH2 0x346 JUMP JUMPDEST POP PUSH0 PUSH0 PUSH0 SWAP3 POP SWAP3 POP SWAP3 POP JUMPDEST SWAP2 SWAP4 SWAP1 SWAP3 POP JUMP JUMPDEST PUSH1 0x4 PUSH0 SWAP1 SLOAD SWAP1 PUSH2 0x100 EXP SWAP1 DIV PUSH1 0xFF AND PUSH2 0x496 JUMPI PUSH1 0x40 MLOAD PUSH32 0x8C379A000000000000000000000000000000000000000000000000000000000 DUP2 MSTORE PUSH1 0x4 ADD PUSH2 0x48D SWAP1 PUSH2 0x1A2E JUMP JUMPDEST PUSH1 0x40 MLOAD DUP1 SWAP2 SUB SWAP1 REVERT JUMPDEST PUSH0 PUSH0 SWAP1 POP PUSH0 PUSH0 SWAP1 POP PUSH0 PUSH0 SWAP1 POP JUMPDEST PUSH1 0x5 DUP1 SLOAD SWAP1 POP DUP2 LT ISZERO PUSH2 0x53D JUMPI CALLER PUSH20 0xFFFFFFFFFFFFFFFFFFFFFFFFFFFFFFFFFFFFFFFF AND PUSH1 0x5 DUP3 DUP2 SLOAD DUP2 LT PUSH2 0x4DB JUMPI PUSH2 0x4DA PUSH2 0x19A7 JUMP JUMPDEST JUMPDEST SWAP1 PUSH0 MSTORE PUSH1 0x20 PUSH0 KECCAK256 SWAP1 PUSH1 0x3 MUL ADD PUSH0 ADD PUSH0 SWAP1 SLOAD SWAP1 PUSH2 0x100 EXP SWAP1 DIV PUSH20 0xFFFFFFFFFFFFFFFFFFFFFFFFFFFFFFFFFFFFFFFF AND PUSH20 0xFFFFFFFFFFFFFFFFFFFFFFFFFFFFFFFFFFFFFFFF AND SUB PUSH2 0x530 JUMPI PUSH1 0x1 SWAP3 POP DUP1 SWAP2 POP PUSH2 0x53D JUMP JUMPDEST DUP1 DUP1 PUSH1 0x1 ADD SWAP2 POP POP PUSH2 0x4A3 JUMP JUMPDEST POP DUP2 PUSH2 0x57E JUMPI PUSH1 0x40 MLOAD PUSH32 0x8C379A000000000000000000000000000000000000000000000000000000000 DUP2 MSTORE PUSH1 0x4 ADD PUSH2 0x575 SWAP1 PUSH2 0x1A96 JUMP JUMPDEST PUSH1 0x40 MLOAD DUP1 SWAP2 SUB SWAP1 REVERT JUMPDEST PUSH1 0x5 DUP2 DUP2 SLOAD DUP2 LT PUSH2 0x592 JUMPI PUSH2 0x591 PUSH2 0x19A7 JUMP JUMPDEST JUMPDEST SWAP1 PUSH0 MSTORE PUSH1 0x20 PUSH0 KECCAK256 SWAP1 PUSH1 0x3 MUL ADD PUSH1 0x2 ADD PUSH0 SWAP1 SLOAD SWAP1 PUSH2 0x100 EXP SWAP1 DIV PUSH1 0xFF AND ISZERO PUSH2 0x5EE JUMPI PUSH1 0x40 MLOAD PUSH32 0x8C379A000000000000000000000000000000000000000000000000000000000 DUP2 MSTORE PUSH1 0x4 ADD PUSH2 0x5E5 SWAP1 PUSH2 0x1AFE JUMP JUMPDEST PUSH1 0x40 MLOAD DUP1 SWAP2 SUB SWAP1 REVERT JUMPDEST PUSH0 PUSH1 0x64 PUSH1 0x5 DUP4 DUP2 SLOAD DUP2 LT PUSH2 0x605 JUMPI PUSH2 0x604 PUSH2 0x19A7 JUMP JUMPDEST JUMPDEST SWAP1 PUSH0 MSTORE PUSH1 0x20 PUSH0 KECCAK256 SWAP1 PUSH1 0x3 MUL ADD PUSH1 0x1 ADD SLOAD PUSH1 0x3 SLOAD PUSH2 0x622 SWAP2 SWAP1 PUSH2 0x1B49 JUMP JUMPDEST PUSH2 0x62C SWAP2 SWAP1 PUSH2 0x1BB7 JUMP JUMPDEST SWAP1 POP PUSH0 DUP2 GT PUSH2 0x670 JUMPI PUSH1 0x40 MLOAD PUSH32 0x8C379A000000000000000000000000000000000000000000000000000000000 DUP2 MSTORE PUSH1 0x4 ADD PUSH2 0x667 SWAP1 PUSH2 0x1C31 JUMP JUMPDEST PUSH1 0x40 MLOAD DUP1 SWAP2 SUB SWAP1 REVERT JUMPDEST PUSH1 0x1 PUSH1 0x5 DUP4 DUP2 SLOAD DUP2 LT PUSH2 0x686 JUMPI PUSH2 0x685 PUSH2 0x19A7 JUMP JUMPDEST JUMPDEST SWAP1 PUSH0 MSTORE PUSH1 0x20 PUSH0 KECCAK256 SWAP1 PUSH1 0x3 MUL ADD PUSH1 0x2 ADD PUSH0 PUSH2 0x100 EXP DUP2 SLOAD DUP2 PUSH1 0xFF MUL NOT AND SWAP1 DUP4 ISZERO ISZERO MUL OR SWAP1 SSTORE POP PUSH0 PUSH1 0x1 PUSH0 SWAP1 SLOAD SWAP1 PUSH2 0x100 EXP SWAP1 DIV PUSH20 0xFFFFFFFFFFFFFFFFFFFFFFFFFFFFFFFFFFFFFFFF AND SWAP1 POP DUP1 PUSH20 0xFFFFFFFFFFFFFFFFFFFFFFFFFFFFFFFFFFFFFFFF AND PUSH4 0xA9059CBB CALLER DUP5 PUSH1 0x40 MLOAD DUP4 PUSH4 0xFFFFFFFF AND PUSH1 0xE0 SHL DUP2 MSTORE PUSH1 0x4 ADD PUSH2 0x70B SWAP3 SWAP2 SWAP1 PUSH2 0x1C4F JUMP JUMPDEST PUSH1 0x20 PUSH1 0x40 MLOAD DUP1 DUP4 SUB DUP2 PUSH0 DUP8 GAS CALL ISZERO DUP1 ISZERO PUSH2 0x727 JUMPI RETURNDATASIZE PUSH0 PUSH0 RETURNDATACOPY RETURNDATASIZE PUSH0 REVERT JUMPDEST POP POP POP POP PUSH1 0x40 MLOAD RETURNDATASIZE PUSH1 0x1F NOT PUSH1 0x1F DUP3 ADD AND DUP3 ADD DUP1 PUSH1 0x40 MSTORE POP DUP2 ADD SWAP1 PUSH2 0x74B SWAP2 SWAP1 PUSH2 0x1CA0 JUMP JUMPDEST PUSH2 0x78A JUMPI PUSH1 0x40 MLOAD PUSH32 0x8C379A000000000000000000000000000000000000000000000000000000000 DUP2 MSTORE PUSH1 0x4 ADD PUSH2 0x781 SWAP1 PUSH2 0x1D15 JUMP JUMPDEST PUSH1 0x40 MLOAD DUP1 SWAP2 SUB SWAP1 REVERT JUMPDEST CALLER PUSH20 0xFFFFFFFFFFFFFFFFFFFFFFFFFFFFFFFFFFFFFFFF AND PUSH32 0x44D1AB781574735BC4050AC804FB34E512600E6CF637A801375F3FFA0B4B706F DUP4 PUSH1 0x40 MLOAD PUSH2 0x7D0 SWAP2 SWAP1 PUSH2 0x176A JUMP JUMPDEST PUSH1 0x40 MLOAD DUP1 SWAP2 SUB SWAP1 LOG2 POP POP POP POP JUMP JUMPDEST PUSH1 0x6 PUSH1 0x20 MSTORE DUP1 PUSH0 MSTORE PUSH1 0x40 PUSH0 KECCAK256 PUSH0 SWAP2 POP SWAP1 POP SLOAD DUP2 JUMP JUMPDEST PUSH1 0x4 PUSH0 SWAP1 SLOAD SWAP1 PUSH2 0x100 EXP SWAP1 DIV PUSH1 0xFF AND ISZERO PUSH2 0x842 JUMPI PUSH1 0x40 MLOAD PUSH32 0x8C379A000000000000000000000000000000000000000000000000000000000 DUP2 MSTORE PUSH1 0x4 ADD PUSH2 0x839 SWAP1 PUSH2 0x1DA3 JUMP JUMPDEST PUSH1 0x40 MLOAD DUP1 SWAP2 SUB SWAP1 REVERT JUMPDEST PUSH0 PUSH1 0x5 DUP1 SLOAD SWAP1 POP GT PUSH2 0x889 JUMPI PUSH1 0x40 MLOAD PUSH32 0x8C379A000000000000000000000000000000000000000000000000000000000 DUP2 MSTORE PUSH1 0x4 ADD PUSH2 0x880 SWAP1 PUSH2 0x1E0B JUMP JUMPDEST PUSH1 0x40 MLOAD DUP1 SWAP2 SUB SWAP1 REVERT JUMPDEST PUSH0 PUSH20 0xFFFFFFFFFFFFFFFFFFFFFFFFFFFFFFFFFFFFFFFF AND PUSH1 0x2 PUSH0 SWAP1 SLOAD SWAP1 PUSH2 0x100 EXP SWAP1 DIV PUSH20 0xFFFFFFFFFFFFFFFFFFFFFFFFFFFFFFFFFFFFFFFF AND PUSH20 0xFFFFFFFFFFFFFFFFFFFFFFFFFFFFFFFFFFFFFFFF AND SUB PUSH2 0x918 JUMPI PUSH1 0x40 MLOAD PUSH32 0x8C379A000000000000000000000000000000000000000000000000000000000 DUP2 MSTORE PUSH1 0x4 ADD PUSH2 0x90F SWAP1 PUSH2 0x1E73 JUMP JUMPDEST PUSH1 0x40 MLOAD DUP1 SWAP2 SUB SWAP1 REVERT JUMPDEST PUSH1 0x2 PUSH0 SWAP1 SLOAD SWAP1 PUSH2 0x100 EXP SWAP1 DIV PUSH20 0xFFFFFFFFFFFFFFFFFFFFFFFFFFFFFFFFFFFFFFFF AND PUSH20 0xFFFFFFFFFFFFFFFFFFFFFFFFFFFFFFFFFFFFFFFF AND CALLER PUSH20 0xFFFFFFFFFFFFFFFFFFFFFFFFFFFFFFFFFFFFFFFF AND EQ PUSH2 0x9A7 JUMPI PUSH1 0x40 MLOAD PUSH32 0x8C379A000000000000000000000000000000000000000000000000000000000 DUP2 MSTORE PUSH1 0x4 ADD PUSH2 0x99E SWAP1 PUSH2 0x1EDB JUMP JUMPDEST PUSH1 0x40 MLOAD DUP1 SWAP2 SUB SWAP1 REVERT JUMPDEST PUSH0 PUSH1 0x1 PUSH0 SWAP1 SLOAD SWAP1 PUSH2 0x100 EXP SWAP1 DIV PUSH20 0xFFFFFFFFFFFFFFFFFFFFFFFFFFFFFFFFFFFFFFFF AND SWAP1 POP PUSH0 DUP2 PUSH20 0xFFFFFFFFFFFFFFFFFFFFFFFFFFFFFFFFFFFFFFFF AND PUSH4 0x70A08231 ADDRESS PUSH1 0x40 MLOAD DUP3 PUSH4 0xFFFFFFFF AND PUSH1 0xE0 SHL DUP2 MSTORE PUSH1 0x4 ADD PUSH2 0xA06 SWAP2 SWAP1 PUSH2 0x18EB JUMP JUMPDEST PUSH1 0x20 PUSH1 0x40 MLOAD DUP1 DUP4 SUB DUP2 DUP7 GAS STATICCALL ISZERO DUP1 ISZERO PUSH2 0xA21 JUMPI RETURNDATASIZE PUSH0 PUSH0 RETURNDATACOPY RETURNDATASIZE PUSH0 REVERT JUMPDEST POP POP POP POP PUSH1 0x40 MLOAD RETURNDATASIZE PUSH1 0x1F NOT PUSH1 0x1F DUP3 ADD AND DUP3 ADD DUP1 PUSH1 0x40 MSTORE POP DUP2 ADD SWAP1 PUSH2 0xA45 SWAP2 SWAP1 PUSH2 0x1F0D JUMP JUMPDEST SWAP1 POP PUSH0 DUP2 GT PUSH2 0xA89 JUMPI PUSH1 0x40 MLOAD PUSH32 0x8C379A000000000000000000000000000000000000000000000000000000000 DUP2 MSTORE PUSH1 0x4 ADD PUSH2 0xA80 SWAP1 PUSH2 0x1C31 JUMP JUMPDEST PUSH1 0x40 MLOAD DUP1 SWAP2 SUB SWAP1 REVERT JUMPDEST DUP1 PUSH1 0x3 DUP2 SWAP1 SSTORE POP PUSH1 0x1 PUSH1 0x4 PUSH0 PUSH2 0x100 EXP DUP2 SLOAD DUP2 PUSH1 0xFF MUL NOT AND SWAP1 DUP4 ISZERO ISZERO MUL OR SWAP1 SSTORE POP CALLER PUSH20 0xFFFFFFFFFFFFFFFFFFFFFFFFFFFFFFFFFFFFFFFF AND PUSH32 0xA0B6ED69C727BCCE4CFDF30BC2777D7B7007D936B4A4DEA135CBF6622FE4A58C DUP3 PUSH1 0x40 MLOAD PUSH2 0xAF0 SWAP2 SWAP1 PUSH2 0x176A JUMP JUMPDEST PUSH1 0x40 MLOAD DUP1 SWAP2 SUB SWAP1 LOG2 POP POP JUMP JUMPDEST PUSH0 PUSH0 SWAP1 SLOAD SWAP1 PUSH2 0x100 EXP SWAP1 DIV PUSH20 0xFFFFFFFFFFFFFFFFFFFFFFFFFFFFFFFFFFFFFFFF AND PUSH20 0xFFFFFFFFFFFFFFFFFFFFFFFFFFFFFFFFFFFFFFFF AND CALLER PUSH20 0xFFFFFFFFFFFFFFFFFFFFFFFFFFFFFFFFFFFFFFFF AND EQ PUSH2 0xB8A JUMPI PUSH1 0x40 MLOAD PUSH32 0x8C379A000000000000000000000000000000000000000000000000000000000 DUP2 MSTORE PUSH1 0x4 ADD PUSH2 0xB81 SWAP1 PUSH2 0x1F82 JUMP JUMPDEST PUSH1 0x40 MLOAD DUP1 SWAP2 SUB SWAP1 REVERT JUMPDEST PUSH1 0x4 PUSH0 SWAP1 SLOAD SWAP1 PUSH2 0x100 EXP SWAP1 DIV PUSH1 0xFF AND ISZERO PUSH2 0xBD9 JUMPI PUSH1 0x40 MLOAD PUSH32 0x8C379A000000000000000000000000000000000000000000000000000000000 DUP2 MSTORE PUSH1 0x4 ADD PUSH2 0xBD0 SWAP1 PUSH2 0x1DA3 JUMP JUMPDEST PUSH1 0x40 MLOAD DUP1 SWAP2 SUB SWAP1 REVERT JUMPDEST PUSH0 PUSH20 0xFFFFFFFFFFFFFFFFFFFFFFFFFFFFFFFFFFFFFFFF AND DUP3 PUSH20 0xFFFFFFFFFFFFFFFFFFFFFFFFFFFFFFFFFFFFFFFF AND SUB PUSH2 0xC47 JUMPI PUSH1 0x40 MLOAD PUSH32 0x8C379A000000000000000000000000000000000000000000000000000000000 DUP2 MSTORE PUSH1 0x4 ADD PUSH2 0xC3E SWAP1 PUSH2 0x1FEA JUMP JUMPDEST PUSH1 0x40 MLOAD DUP1 SWAP2 SUB SWAP1 REVERT JUMPDEST PUSH0 DUP2 GT PUSH2 0xC89 JUMPI PUSH1 0x40 MLOAD PUSH32 0x8C379A000000000000000000000000000000000000000000000000000000000 DUP2 MSTORE PUSH1 0x4 ADD PUSH2 0xC80 SWAP1 PUSH2 0x2052 JUMP JUMPDEST PUSH1 0x40 MLOAD DUP1 SWAP2 SUB SWAP1 REVERT JUMPDEST PUSH0 PUSH0 SWAP1 POP PUSH0 PUSH0 SWAP1 POP PUSH0 PUSH0 SWAP1 POP JUMPDEST PUSH1 0x5 DUP1 SLOAD SWAP1 POP DUP2 LT ISZERO PUSH2 0xD30 JUMPI DUP5 PUSH20 0xFFFFFFFFFFFFFFFFFFFFFFFFFFFFFFFFFFFFFFFF AND PUSH1 0x5 DUP3 DUP2 SLOAD DUP2 LT PUSH2 0xCCE JUMPI PUSH2 0xCCD PUSH2 0x19A7 JUMP JUMPDEST JUMPDEST SWAP1 PUSH0 MSTORE PUSH1 0x20 PUSH0 KECCAK256 SWAP1 PUSH1 0x3 MUL ADD PUSH0 ADD PUSH0 SWAP1 SLOAD SWAP1 PUSH2 0x100 EXP SWAP1 DIV PUSH20 0xFFFFFFFFFFFFFFFFFFFFFFFFFFFFFFFFFFFFFFFF AND PUSH20 0xFFFFFFFFFFFFFFFFFFFFFFFFFFFFFFFFFFFFFFFF AND SUB PUSH2 0xD23 JUMPI PUSH1 0x1 SWAP3 POP DUP1 SWAP2 POP PUSH2 0xD30 JUMP JUMPDEST DUP1 DUP1 PUSH1 0x1 ADD SWAP2 POP POP PUSH2 0xC96 JUMP JUMPDEST POP DUP2 ISZERO PUSH2 0xE57 JUMPI PUSH0 PUSH1 0x5 DUP3 DUP2 SLOAD DUP2 LT PUSH2 0xD4C JUMPI PUSH2 0xD4B PUSH2 0x19A7 JUMP JUMPDEST JUMPDEST SWAP1 PUSH0 MSTORE PUSH1 0x20 PUSH0 KECCAK256 SWAP1 PUSH1 0x3 MUL ADD PUSH1 0x1 ADD SLOAD SWAP1 POP PUSH1 0x64 DUP5 DUP3 PUSH1 0x7 SLOAD PUSH2 0xD6F SWAP2 SWAP1 PUSH2 0x2070 JUMP JUMPDEST PUSH2 0xD79 SWAP2 SWAP1 PUSH2 0x20A3 JUMP JUMPDEST GT ISZERO PUSH2 0xDBA JUMPI PUSH1 0x40 MLOAD PUSH32 0x8C379A000000000000000000000000000000000000000000000000000000000 DUP2 MSTORE PUSH1 0x4 ADD PUSH2 0xDB1 SWAP1 PUSH2 0x2120 JUMP JUMPDEST PUSH1 0x40 MLOAD DUP1 SWAP2 SUB SWAP1 REVERT JUMPDEST DUP4 DUP2 PUSH1 0x7 SLOAD PUSH2 0xDC9 SWAP2 SWAP1 PUSH2 0x2070 JUMP JUMPDEST PUSH2 0xDD3 SWAP2 SWAP1 PUSH2 0x20A3 JUMP JUMPDEST PUSH1 0x7 DUP2 SWAP1 SSTORE POP DUP4 PUSH1 0x5 DUP4 DUP2 SLOAD DUP2 LT PUSH2 0xDEE JUMPI PUSH2 0xDED PUSH2 0x19A7 JUMP JUMPDEST JUMPDEST SWAP1 PUSH0 MSTORE PUSH1 0x20 PUSH0 KECCAK256 SWAP1 PUSH1 0x3 MUL ADD PUSH1 0x1 ADD DUP2 SWAP1 SSTORE POP DUP5 PUSH20 0xFFFFFFFFFFFFFFFFFFFFFFFFFFFFFFFFFFFFFFFF AND PUSH32 0xC7CE19F077EF8EFCE4EE2B5A828FCE80C50FBE4BED9E59245675509D04CBEE79 DUP3 DUP7 PUSH1 0x40 MLOAD PUSH2 0xE49 SWAP3 SWAP2 SWAP1 PUSH2 0x213E JUMP JUMPDEST PUSH1 0x40 MLOAD DUP1 SWAP2 SUB SWAP1 LOG2 POP PUSH2 0x105A JUMP JUMPDEST PUSH1 0x64 DUP4 PUSH1 0x7 SLOAD PUSH2 0xE67 SWAP2 SWAP1 PUSH2 0x20A3 JUMP JUMPDEST GT ISZERO PUSH2 0xEA8 JUMPI PUSH1 0x40 MLOAD PUSH32 0x8C379A000000000000000000000000000000000000000000000000000000000 DUP2 MSTORE PUSH1 0x4 ADD PUSH2 0xE9F SWAP1 PUSH2 0x2120 JUMP JUMPDEST PUSH1 0x40 MLOAD DUP1 SWAP2 SUB SWAP1 REVERT JUMPDEST PUSH0 PUSH1 0x40 MLOAD DUP1 PUSH1 0x80 ADD PUSH1 0x40 MSTORE DUP1 DUP7 PUSH20 0xFFFFFFFFFFFFFFFFFFFFFFFFFFFFFFFFFFFFFFFF AND DUP2 MSTORE PUSH1 0x20 ADD DUP6 DUP2 MSTORE PUSH1 0x20 ADD PUSH0 ISZERO ISZERO DUP2 MSTORE PUSH1 0x20 ADD PUSH1 0x1 ISZERO ISZERO DUP2 MSTORE POP SWAP1 POP PUSH1 0x5 DUP2 SWAP1 DUP1 PUSH1 0x1 DUP2 SLOAD ADD DUP1 DUP3 SSTORE DUP1 SWAP2 POP POP PUSH1 0x1 SWAP1 SUB SWAP1 PUSH0 MSTORE PUSH1 0x20 PUSH0 KECCAK256 SWAP1 PUSH1 0x3 MUL ADD PUSH0 SWAP1 SWAP2 SWAP1 SWAP2 SWAP1 SWAP2 POP PUSH0 DUP3 ADD MLOAD DUP2 PUSH0 ADD PUSH0 PUSH2 0x100 EXP DUP2 SLOAD DUP2 PUSH20 0xFFFFFFFFFFFFFFFFFFFFFFFFFFFFFFFFFFFFFFFF MUL NOT AND SWAP1 DUP4 PUSH20 0xFFFFFFFFFFFFFFFFFFFFFFFFFFFFFFFFFFFFFFFF AND MUL OR SWAP1 SSTORE POP PUSH1 0x20 DUP3 ADD MLOAD DUP2 PUSH1 0x1 ADD SSTORE PUSH1 0x40 DUP3 ADD MLOAD DUP2 PUSH1 0x2 ADD PUSH0 PUSH2 0x100 EXP DUP2 SLOAD DUP2 PUSH1 0xFF MUL NOT AND SWAP1 DUP4 ISZERO ISZERO MUL OR SWAP1 SSTORE POP PUSH1 0x60 DUP3 ADD MLOAD DUP2 PUSH1 0x2 ADD PUSH1 0x1 PUSH2 0x100 EXP DUP2 SLOAD DUP2 PUSH1 0xFF MUL NOT AND SWAP1 DUP4 ISZERO ISZERO MUL OR SWAP1 SSTORE POP POP POP PUSH1 0x1 PUSH1 0x5 DUP1 SLOAD SWAP1 POP PUSH2 0xFB1 SWAP2 SWAP1 PUSH2 0x2070 JUMP JUMPDEST PUSH1 0x6 PUSH0 DUP8 PUSH20 0xFFFFFFFFFFFFFFFFFFFFFFFFFFFFFFFFFFFFFFFF AND PUSH20 0xFFFFFFFFFFFFFFFFFFFFFFFFFFFFFFFFFFFFFFFF AND DUP2 MSTORE PUSH1 0x20 ADD SWAP1 DUP2 MSTORE PUSH1 0x20 ADD PUSH0 KECCAK256 DUP2 SWAP1 SSTORE POP DUP4 PUSH1 0x7 PUSH0 DUP3 DUP3 SLOAD PUSH2 0x1003 SWAP2 SWAP1 PUSH2 0x20A3 JUMP JUMPDEST SWAP3 POP POP DUP2 SWAP1 SSTORE POP DUP5 PUSH20 0xFFFFFFFFFFFFFFFFFFFFFFFFFFFFFFFFFFFFFFFF AND PUSH32 0x3BC19114CA6A687FFD9445C87615DB284E96364365D72B010EC53244B45E561B DUP6 PUSH1 0x40 MLOAD PUSH2 0x1050 SWAP2 SWAP1 PUSH2 0x176A JUMP JUMPDEST PUSH1 0x40 MLOAD DUP1 SWAP2 SUB SWAP1 LOG2 POP JUMPDEST POP POP POP POP JUMP JUMPDEST PUSH0 PUSH1 0x7 SLOAD SWAP1 POP SWAP1 JUMP JUMPDEST PUSH0 PUSH0 SWAP1 SLOAD SWAP1 PUSH2 0x100 EXP SWAP1 DIV PUSH20 0xFFFFFFFFFFFFFFFFFFFFFFFFFFFFFFFFFFFFFFFF AND PUSH20 0xFFFFFFFFFFFFFFFFFFFFFFFFFFFFFFFFFFFFFFFF AND CALLER PUSH20 0xFFFFFFFFFFFFFFFFFFFFFFFFFFFFFFFFFFFFFFFF AND EQ PUSH2 0x10F7 JUMPI PUSH1 0x40 MLOAD PUSH32 0x8C379A000000000000000000000000000000000000000000000000000000000 DUP2 MSTORE PUSH1 0x4 ADD PUSH2 0x10EE SWAP1 PUSH2 0x1F82 JUMP JUMPDEST PUSH1 0x40 MLOAD DUP1 SWAP2 SUB SWAP1 REVERT JUMPDEST PUSH1 0x4 PUSH0 SWAP1 SLOAD SWAP1 PUSH2 0x100 EXP SWAP1 DIV PUSH1 0xFF AND ISZERO PUSH2 0x1146 JUMPI PUSH1 0x40 MLOAD PUSH32 0x8C379A000000000000000000000000000000000000000000000000000000000 DUP2 MSTORE PUSH1 0x4 ADD PUSH2 0x113D SWAP1 PUSH2 0x1DA3 JUMP JUMPDEST PUSH1 0x40 MLOAD DUP1 SWAP2 SUB SWAP1 REVERT JUMPDEST PUSH0 PUSH20 0xFFFFFFFFFFFFFFFFFFFFFFFFFFFFFFFFFFFFFFFF AND DUP2 PUSH20 0xFFFFFFFFFFFFFFFFFFFFFFFFFFFFFFFFFFFFFFFF AND SUB PUSH2 0x11B4 JUMPI PUSH1 0x40 MLOAD PUSH32 0x8C379A000000000000000000000000000000000000000000000000000000000 DUP2 MSTORE PUSH1 0x4 ADD PUSH2 0x11AB SWAP1 PUSH2 0x1FEA JUMP JUMPDEST PUSH1 0x40 MLOAD DUP1 SWAP2 SUB SWAP1 REVERT JUMPDEST DUP1 PUSH1 0x2 PUSH0 PUSH2 0x100 EXP DUP2 SLOAD DUP2 PUSH20 0xFFFFFFFFFFFFFFFFFFFFFFFFFFFFFFFFFFFFFFFF MUL NOT AND SWAP1 DUP4 PUSH20 0xFFFFFFFFFFFFFFFFFFFFFFFFFFFFFFFFFFFFFFFF AND MUL OR SWAP1 SSTORE POP DUP1 PUSH20 0xFFFFFFFFFFFFFFFFFFFFFFFFFFFFFFFFFFFFFFFF AND PUSH32 0x93E1A26FFB45DB2847026D24714C335023C27E761943052F3E687DC407C680B3 PUSH1 0x40 MLOAD PUSH1 0x40 MLOAD DUP1 SWAP2 SUB SWAP1 LOG2 POP JUMP JUMPDEST PUSH0 PUSH0 SWAP1 SLOAD SWAP1 PUSH2 0x100 EXP SWAP1 DIV PUSH20 0xFFFFFFFFFFFFFFFFFFFFFFFFFFFFFFFFFFFFFFFF AND DUP2 JUMP JUMPDEST PUSH1 0x2 PUSH0 SWAP1 SLOAD SWAP1 PUSH2 0x100 EXP SWAP1 DIV PUSH20 0xFFFFFFFFFFFFFFFFFFFFFFFFFFFFFFFFFFFFFFFF AND DUP2 JUMP JUMPDEST PUSH1 0x1 PUSH0 SWAP1 SLOAD SWAP1 PUSH2 0x100 EXP SWAP1 DIV PUSH20 0xFFFFFFFFFFFFFFFFFFFFFFFFFFFFFFFFFFFFFFFF AND DUP2 JUMP JUMPDEST PUSH1 0x3 SLOAD DUP2 JUMP JUMPDEST PUSH1 0x5 DUP2 DUP2 SLOAD DUP2 LT PUSH2 0x12BD JUMPI PUSH0 DUP1 REVERT JUMPDEST SWAP1 PUSH0 MSTORE PUSH1 0x20 PUSH0 KECCAK256 SWAP1 PUSH1 0x3 MUL ADD PUSH0 SWAP2 POP SWAP1 POP DUP1 PUSH0 ADD PUSH0 SWAP1 SLOAD SWAP1 PUSH2 0x100 EXP SWAP1 DIV PUSH20 0xFFFFFFFFFFFFFFFFFFFFFFFFFFFFFFFFFFFFFFFF AND SWAP1 DUP1 PUSH1 0x1 ADD SLOAD SWAP1 DUP1 PUSH1 0x2 ADD PUSH0 SWAP1 SLOAD SWAP1 PUSH2 0x100 EXP SWAP1 DIV PUSH1 0xFF AND SWAP1 DUP1 PUSH1 0x2 ADD PUSH1 0x1 SWAP1 SLOAD SWAP1 PUSH2 0x100 EXP SWAP1 DIV PUSH1 0xFF AND SWAP1 POP DUP5 JUMP JUMPDEST PUSH0 PUSH0 PUSH0 PUSH1 0x5 DUP1 SLOAD SWAP1 POP DUP5 LT PUSH2 0x136B JUMPI PUSH1 0x40 MLOAD PUSH32 0x8C379A000000000000000000000000000000000000000000000000000000000 DUP2 MSTORE PUSH1 0x4 ADD PUSH2 0x1362 SWAP1 PUSH2 0x21AF JUMP JUMPDEST PUSH1 0x40 MLOAD DUP1 SWAP2 SUB SWAP1 REVERT JUMPDEST PUSH0 PUSH1 0x5 DUP6 DUP2 SLOAD DUP2 LT PUSH2 0x1380 JUMPI PUSH2 0x137F PUSH2 0x19A7 JUMP JUMPDEST JUMPDEST SWAP1 PUSH0 MSTORE PUSH1 0x20 PUSH0 KECCAK256 SWAP1 PUSH1 0x3 MUL ADD PUSH1 0x40 MLOAD DUP1 PUSH1 0x80 ADD PUSH1 0x40 MSTORE SWAP1 DUP2 PUSH0 DUP3 ADD PUSH0 SWAP1 SLOAD SWAP1 PUSH2 0x100 EXP SWAP1 DIV PUSH20 0xFFFFFFFFFFFFFFFFFFFFFFFFFFFFFFFFFFFFFFFF AND PUSH20 0xFFFFFFFFFFFFFFFFFFFFFFFFFFFFFFFFFFFFFFFF AND PUSH20 0xFFFFFFFFFFFFFFFFFFFFFFFFFFFFFFFFFFFFFFFF AND DUP2 MSTORE PUSH1 0x20 ADD PUSH1 0x1 DUP3 ADD SLOAD DUP2 MSTORE PUSH1 0x20 ADD PUSH1 0x2 DUP3 ADD PUSH0 SWAP1 SLOAD SWAP1 PUSH2 0x100 EXP SWAP1 DIV PUSH1 0xFF AND ISZERO ISZERO ISZERO ISZERO DUP2 MSTORE PUSH1 0x20 ADD PUSH1 0x2 DUP3 ADD PUSH1 0x1 SWAP1 SLOAD SWAP1 PUSH2 0x100 EXP SWAP1 DIV PUSH1 0xFF AND ISZERO ISZERO ISZERO ISZERO DUP2 MSTORE POP POP SWAP1 POP DUP1 PUSH0 ADD MLOAD DUP2 PUSH1 0x20 ADD MLOAD DUP3 PUSH1 0x40 ADD MLOAD SWAP4 POP SWAP4 POP SWAP4 POP POP SWAP2 SWAP4 SWAP1 SWAP3 POP JUMP JUMPDEST PUSH0 PUSH0 SWAP1 SLOAD SWAP1 PUSH2 0x100 EXP SWAP1 DIV PUSH20 0xFFFFFFFFFFFFFFFFFFFFFFFFFFFFFFFFFFFFFFFF AND PUSH20 0xFFFFFFFFFFFFFFFFFFFFFFFFFFFFFFFFFFFFFFFF AND CALLER PUSH20 0xFFFFFFFFFFFFFFFFFFFFFFFFFFFFFFFFFFFFFFFF AND EQ PUSH2 0x14D6 JUMPI PUSH1 0x40 MLOAD PUSH32 0x8C379A000000000000000000000000000000000000000000000000000000000 DUP2 MSTORE PUSH1 0x4 ADD PUSH2 0x14CD SWAP1 PUSH2 0x1F82 JUMP JUMPDEST PUSH1 0x40 MLOAD DUP1 SWAP2 SUB SWAP1 REVERT JUMPDEST PUSH1 0x4 PUSH0 SWAP1 SLOAD SWAP1 PUSH2 0x100 EXP SWAP1 DIV PUSH1 0xFF AND PUSH2 0x1524 JUMPI PUSH1 0x40 MLOAD PUSH32 0x8C379A000000000000000000000000000000000000000000000000000000000 DUP2 MSTORE PUSH1 0x4 ADD PUSH2 0x151B SWAP1 PUSH2 0x1A2E JUMP JUMPDEST PUSH1 0x40 MLOAD DUP1 SWAP2 SUB SWAP1 REVERT JUMPDEST PUSH0 PUSH1 0x1 PUSH0 SWAP1 SLOAD SWAP1 PUSH2 0x100 EXP SWAP1 DIV PUSH20 0xFFFFFFFFFFFFFFFFFFFFFFFFFFFFFFFFFFFFFFFF AND SWAP1 POP PUSH0 DUP2 PUSH20 0xFFFFFFFFFFFFFFFFFFFFFFFFFFFFFFFFFFFFFFFF AND PUSH4 0x70A08231 ADDRESS PUSH1 0x40 MLOAD DUP3 PUSH4 0xFFFFFFFF AND PUSH1 0xE0 SHL DUP2 MSTORE PUSH1 0x4 ADD PUSH2 0x1583 SWAP2 SWAP1 PUSH2 0x18EB JUMP JUMPDEST PUSH1 0x20 PUSH1 0x40 MLOAD DUP1 DUP4 SUB DUP2 DUP7 GAS STATICCALL ISZERO DUP1 ISZERO PUSH2 0x159E JUMPI RETURNDATASIZE PUSH0 PUSH0 RETURNDATACOPY RETURNDATASIZE PUSH0 REVERT JUMPDEST POP POP POP POP PUSH1 0x40 MLOAD RETURNDATASIZE PUSH1 0x1F NOT PUSH1 0x1F DUP3 ADD AND DUP3 ADD DUP1 PUSH1 0x40 MSTORE POP DUP2 ADD SWAP1 PUSH2 0x15C2 SWAP2 SWAP1 PUSH2 0x1F0D JUMP JUMPDEST SWAP1 POP PUSH0 DUP2 GT PUSH2 0x1606 JUMPI PUSH1 0x40 MLOAD PUSH32 0x8C379A000000000000000000000000000000000000000000000000000000000 DUP2 MSTORE PUSH1 0x4 ADD PUSH2 0x15FD SWAP1 PUSH2 0x2217 JUMP JUMPDEST PUSH1 0x40 MLOAD DUP1 SWAP2 SUB SWAP1 REVERT JUMPDEST DUP2 PUSH20 0xFFFFFFFFFFFFFFFFFFFFFFFFFFFFFFFFFFFFFFFF AND PUSH4 0xA9059CBB PUSH0 PUSH0 SWAP1 SLOAD SWAP1 PUSH2 0x100 EXP SWAP1 DIV PUSH20 0xFFFFFFFFFFFFFFFFFFFFFFFFFFFFFFFFFFFFFFFF AND DUP4 PUSH1 0x40 MLOAD DUP4 PUSH4 0xFFFFFFFF AND PUSH1 0xE0 SHL DUP2 MSTORE PUSH1 0x4 ADD PUSH2 0x1661 SWAP3 SWAP2 SWAP1 PUSH2 0x1C4F JUMP JUMPDEST PUSH1 0x20 PUSH1 0x40 MLOAD DUP1 DUP4 SUB DUP2 PUSH0 DUP8 GAS CALL ISZERO DUP1 ISZERO PUSH2 0x167D JUMPI RETURNDATASIZE PUSH0 PUSH0 RETURNDATACOPY RETURNDATASIZE PUSH0 REVERT JUMPDEST POP POP POP POP PUSH1 0x40 MLOAD RETURNDATASIZE PUSH1 0x1F NOT PUSH1 0x1F DUP3 ADD AND DUP3 ADD DUP1 PUSH1 0x40 MSTORE POP DUP2 ADD SWAP1 PUSH2 0x16A1 SWAP2 SWAP1 PUSH2 0x1CA0 JUMP JUMPDEST PUSH2 0x16E0 JUMPI PUSH1 0x40 MLOAD PUSH32 0x8C379A000000000000000000000000000000000000000000000000000000000 DUP2 MSTORE PUSH1 0x4 ADD PUSH2 0x16D7 SWAP1 PUSH2 0x1D15 JUMP JUMPDEST PUSH1 0x40 MLOAD DUP1 SWAP2 SUB SWAP1 REVERT JUMPDEST PUSH0 PUSH0 SWAP1 SLOAD SWAP1 PUSH2 0x100 EXP SWAP1 DIV PUSH20 0xFFFFFFFFFFFFFFFFFFFFFFFFFFFFFFFFFFFFFFFF AND PUSH20 0xFFFFFFFFFFFFFFFFFFFFFFFFFFFFFFFFFFFFFFFF AND PUSH32 0xB700C819C89549CD901221B05C2D1653B84086815EE1393D7DACB6F4EE312275 DUP3 PUSH1 0x40 MLOAD PUSH2 0x1746 SWAP2 SWAP1 PUSH2 0x176A JUMP JUMPDEST PUSH1 0x40 MLOAD DUP1 SWAP2 SUB SWAP1 LOG2 POP POP JUMP JUMPDEST PUSH0 DUP2 SWAP1 POP SWAP2 SWAP1 POP JUMP JUMPDEST PUSH2 0x1764 DUP2 PUSH2 0x1752 JUMP JUMPDEST DUP3 MSTORE POP POP JUMP JUMPDEST PUSH0 PUSH1 0x20 DUP3 ADD SWAP1 POP PUSH2 0x177D PUSH0 DUP4 ADD DUP5 PUSH2 0x175B JUMP JUMPDEST SWAP3 SWAP2 POP POP JUMP JUMPDEST PUSH0 DUP2 ISZERO ISZERO SWAP1 POP SWAP2 SWAP1 POP JUMP JUMPDEST PUSH2 0x1797 DUP2 PUSH2 0x1783 JUMP JUMPDEST DUP3 MSTORE POP POP JUMP JUMPDEST PUSH0 PUSH1 0x20 DUP3 ADD SWAP1 POP PUSH2 0x17B0 PUSH0 DUP4 ADD DUP5 PUSH2 0x178E JUMP JUMPDEST SWAP3 SWAP2 POP POP JUMP JUMPDEST PUSH0 PUSH0 REVERT JUMPDEST PUSH0 PUSH20 0xFFFFFFFFFFFFFFFFFFFFFFFFFFFFFFFFFFFFFFFF DUP3 AND SWAP1 POP SWAP2 SWAP1 POP JUMP JUMPDEST PUSH0 PUSH2 0x17E3 DUP3 PUSH2 0x17BA JUMP JUMPDEST SWAP1 POP SWAP2 SWAP1 POP JUMP JUMPDEST PUSH2 0x17F3 DUP2 PUSH2 0x17D9 JUMP JUMPDEST DUP2 EQ PUSH2 0x17FD JUMPI PUSH0 PUSH0 REVERT JUMPDEST POP JUMP JUMPDEST PUSH0 DUP2 CALLDATALOAD SWAP1 POP PUSH2 0x180E DUP2 PUSH2 0x17EA JUMP JUMPDEST SWAP3 SWAP2 POP POP JUMP JUMPDEST PUSH0 PUSH1 0x20 DUP3 DUP5 SUB SLT ISZERO PUSH2 0x1829 JUMPI PUSH2 0x1828 PUSH2 0x17B6 JUMP JUMPDEST JUMPDEST PUSH0 PUSH2 0x1836 DUP5 DUP3 DUP6 ADD PUSH2 0x1800 JUMP JUMPDEST SWAP2 POP POP SWAP3 SWAP2 POP POP JUMP JUMPDEST PUSH0 PUSH1 0x60 DUP3 ADD SWAP1 POP PUSH2 0x1852 PUSH0 DUP4 ADD DUP7 PUSH2 0x175B JUMP JUMPDEST PUSH2 0x185F PUSH1 0x20 DUP4 ADD DUP6 PUSH2 0x178E JUMP JUMPDEST PUSH2 0x186C PUSH1 0x40 DUP4 ADD DUP5 PUSH2 0x178E JUMP JUMPDEST SWAP5 SWAP4 POP POP POP POP JUMP JUMPDEST PUSH2 0x187D DUP2 PUSH2 0x1752 JUMP JUMPDEST DUP2 EQ PUSH2 0x1887 JUMPI PUSH0 PUSH0 REVERT JUMPDEST POP JUMP JUMPDEST PUSH0 DUP2 CALLDATALOAD SWAP1 POP PUSH2 0x1898 DUP2 PUSH2 0x1874 JUMP JUMPDEST SWAP3 SWAP2 POP POP JUMP JUMPDEST PUSH0 PUSH0 PUSH1 0x40 DUP4 DUP6 SUB SLT ISZERO PUSH2 0x18B4 JUMPI PUSH2 0x18B3 PUSH2 0x17B6 JUMP JUMPDEST JUMPDEST PUSH0 PUSH2 0x18C1 DUP6 DUP3 DUP7 ADD PUSH2 0x1800 JUMP JUMPDEST SWAP3 POP POP PUSH1 0x20 PUSH2 0x18D2 DUP6 DUP3 DUP7 ADD PUSH2 0x188A JUMP JUMPDEST SWAP2 POP POP SWAP3 POP SWAP3 SWAP1 POP JUMP JUMPDEST PUSH2 0x18E5 DUP2 PUSH2 0x17D9 JUMP JUMPDEST DUP3 MSTORE POP POP JUMP JUMPDEST PUSH0 PUSH1 0x20 DUP3 ADD SWAP1 POP PUSH2 0x18FE PUSH0 DUP4 ADD DUP5 PUSH2 0x18DC JUMP JUMPDEST SWAP3 SWAP2 POP POP JUMP JUMPDEST PUSH0 PUSH1 0x20 DUP3 DUP5 SUB SLT ISZERO PUSH2 0x1919 JUMPI PUSH2 0x1918 PUSH2 0x17B6 JUMP JUMPDEST JUMPDEST PUSH0 PUSH2 0x1926 DUP5 DUP3 DUP6 ADD PUSH2 0x188A JUMP JUMPDEST SWAP2 POP POP SWAP3 SWAP2 POP POP JUMP JUMPDEST PUSH0 PUSH1 0x80 DUP3 ADD SWAP1 POP PUSH2 0x1942 PUSH0 DUP4 ADD DUP8 PUSH2 0x18DC JUMP JUMPDEST PUSH2 0x194F PUSH1 0x20 DUP4 ADD DUP7 PUSH2 0x175B JUMP JUMPDEST PUSH2 0x195C PUSH1 0x40 DUP4 ADD DUP6 PUSH2 0x178E JUMP JUMPDEST PUSH2 0x1969 PUSH1 0x60 DUP4 ADD DUP5 PUSH2 0x178E JUMP JUMPDEST SWAP6 SWAP5 POP POP POP POP POP JUMP JUMPDEST PUSH0 PUSH1 0x60 DUP3 ADD SWAP1 POP PUSH2 0x1985 PUSH0 DUP4 ADD DUP7 PUSH2 0x18DC JUMP JUMPDEST PUSH2 0x1992 PUSH1 0x20 DUP4 ADD DUP6 PUSH2 0x175B JUMP JUMPDEST PUSH2 0x199F PUSH1 0x40 DUP4 ADD DUP5 PUSH2 0x178E JUMP JUMPDEST SWAP5 SWAP4 POP POP POP POP JUMP JUMPDEST PUSH32 0x4E487B7100000000000000000000000000000000000000000000000000000000 PUSH0 MSTORE PUSH1 0x32 PUSH1 0x4 MSTORE PUSH1 0x24 PUSH0 REVERT JUMPDEST PUSH0 DUP3 DUP3 MSTORE PUSH1 0x20 DUP3 ADD SWAP1 POP SWAP3 SWAP2 POP POP JUMP JUMPDEST PUSH32 0x46756E6473206E6F742072656365697665640000000000000000000000000000 PUSH0 DUP3 ADD MSTORE POP JUMP JUMPDEST PUSH0 PUSH2 0x1A18 PUSH1 0x12 DUP4 PUSH2 0x19D4 JUMP JUMPDEST SWAP2 POP PUSH2 0x1A23 DUP3 PUSH2 0x19E4 JUMP JUMPDEST PUSH1 0x20 DUP3 ADD SWAP1 POP SWAP2 SWAP1 POP JUMP JUMPDEST PUSH0 PUSH1 0x20 DUP3 ADD SWAP1 POP DUP2 DUP2 SUB PUSH0 DUP4 ADD MSTORE PUSH2 0x1A45 DUP2 PUSH2 0x1A0C JUMP JUMPDEST SWAP1 POP SWAP2 SWAP1 POP JUMP JUMPDEST PUSH32 0x4E6F742061207368617265686F6C646572000000000000000000000000000000 PUSH0 DUP3 ADD MSTORE POP JUMP JUMPDEST PUSH0 PUSH2 0x1A80 PUSH1 0x11 DUP4 PUSH2 0x19D4 JUMP JUMPDEST SWAP2 POP PUSH2 0x1A8B DUP3 PUSH2 0x1A4C JUMP JUMPDEST PUSH1 0x20 DUP3 ADD SWAP1 POP SWAP2 SWAP1 POP JUMP JUMPDEST PUSH0 PUSH1 0x20 DUP3 ADD SWAP1 POP DUP2 DUP2 SUB PUSH0 DUP4 ADD MSTORE PUSH2 0x1AAD DUP2 PUSH2 0x1A74 JUMP JUMPDEST SWAP1 POP SWAP2 SWAP1 POP JUMP JUMPDEST PUSH32 0x416C72656164792077697468647261776E000000000000000000000000000000 PUSH0 DUP3 ADD MSTORE POP JUMP JUMPDEST PUSH0 PUSH2 0x1AE8 PUSH1 0x11 DUP4 PUSH2 0x19D4 JUMP JUMPDEST SWAP2 POP PUSH2 0x1AF3 DUP3 PUSH2 0x1AB4 JUMP JUMPDEST PUSH1 0x20 DUP3 ADD SWAP1 POP SWAP2 SWAP1 POP JUMP JUMPDEST PUSH0 PUSH1 0x20 DUP3 ADD SWAP1 POP DUP2 DUP2 SUB PUSH0 DUP4 ADD MSTORE PUSH2 0x1B15 DUP2 PUSH2 0x1ADC JUMP JUMPDEST SWAP1 POP SWAP2 SWAP1 POP JUMP JUMPDEST PUSH32 0x4E487B7100000000000000000000000000000000000000000000000000000000 PUSH0 MSTORE PUSH1 0x11 PUSH1 0x4 MSTORE PUSH1 0x24 PUSH0 REVERT JUMPDEST PUSH0 PUSH2 0x1B53 DUP3 PUSH2 0x1752 JUMP JUMPDEST SWAP2 POP PUSH2 0x1B5E DUP4 PUSH2 0x1752 JUMP JUMPDEST SWAP3 POP DUP3 DUP3 MUL PUSH2 0x1B6C DUP2 PUSH2 0x1752 JUMP JUMPDEST SWAP2 POP DUP3 DUP3 DIV DUP5 EQ DUP4 ISZERO OR PUSH2 0x1B83 JUMPI PUSH2 0x1B82 PUSH2 0x1B1C JUMP JUMPDEST JUMPDEST POP SWAP3 SWAP2 POP POP JUMP JUMPDEST PUSH32 0x4E487B7100000000000000000000000000000000000000000000000000000000 PUSH0 MSTORE PUSH1 0x12 PUSH1 0x4 MSTORE PUSH1 0x24 PUSH0 REVERT JUMPDEST PUSH0 PUSH2 0x1BC1 DUP3 PUSH2 0x1752 JUMP JUMPDEST SWAP2 POP PUSH2 0x1BCC DUP4 PUSH2 0x1752 JUMP JUMPDEST SWAP3 POP DUP3 PUSH2 0x1BDC JUMPI PUSH2 0x1BDB PUSH2 0x1B8A JUMP JUMPDEST JUMPDEST DUP3 DUP3 DIV SWAP1 POP SWAP3 SWAP2 POP POP JUMP JUMPDEST PUSH32 0x4E6F20746F6B656E730000000000000000000000000000000000000000000000 PUSH0 DUP3 ADD MSTORE POP JUMP JUMPDEST PUSH0 PUSH2 0x1C1B PUSH1 0x9 DUP4 PUSH2 0x19D4 JUMP JUMPDEST SWAP2 POP PUSH2 0x1C26 DUP3 PUSH2 0x1BE7 JUMP JUMPDEST PUSH1 0x20 DUP3 ADD SWAP1 POP SWAP2 SWAP1 POP JUMP JUMPDEST PUSH0 PUSH1 0x20 DUP3 ADD SWAP1 POP DUP2 DUP2 SUB PUSH0 DUP4 ADD MSTORE PUSH2 0x1C48 DUP2 PUSH2 0x1C0F JUMP JUMPDEST SWAP1 POP SWAP2 SWAP1 POP JUMP JUMPDEST PUSH0 PUSH1 0x40 DUP3 ADD SWAP1 POP PUSH2 0x1C62 PUSH0 DUP4 ADD DUP6 PUSH2 0x18DC JUMP JUMPDEST PUSH2 0x1C6F PUSH1 0x20 DUP4 ADD DUP5 PUSH2 0x175B JUMP JUMPDEST SWAP4 SWAP3 POP POP POP JUMP JUMPDEST PUSH2 0x1C7F DUP2 PUSH2 0x1783 JUMP JUMPDEST DUP2 EQ PUSH2 0x1C89 JUMPI PUSH0 PUSH0 REVERT JUMPDEST POP JUMP JUMPDEST PUSH0 DUP2 MLOAD SWAP1 POP PUSH2 0x1C9A DUP2 PUSH2 0x1C76 JUMP JUMPDEST SWAP3 SWAP2 POP POP JUMP JUMPDEST PUSH0 PUSH1 0x20 DUP3 DUP5 SUB SLT ISZERO PUSH2 0x1CB5 JUMPI PUSH2 0x1CB4 PUSH2 0x17B6 JUMP JUMPDEST JUMPDEST PUSH0 PUSH2 0x1CC2 DUP5 DUP3 DUP6 ADD PUSH2 0x1C8C JUMP JUMPDEST SWAP2 POP POP SWAP3 SWAP2 POP POP JUMP JUMPDEST PUSH32 0x5472616E73666572206661696C65640000000000000000000000000000000000 PUSH0 DUP3 ADD MSTORE POP JUMP JUMPDEST PUSH0 PUSH2 0x1CFF PUSH1 0xF DUP4 PUSH2 0x19D4 JUMP JUMPDEST SWAP2 POP PUSH2 0x1D0A DUP3 PUSH2 0x1CCB JUMP JUMPDEST PUSH1 0x20 DUP3 ADD SWAP1 POP SWAP2 SWAP1 POP JUMP JUMPDEST PUSH0 PUSH1 0x20 DUP3 ADD SWAP1 POP DUP2 DUP2 SUB PUSH0 DUP4 ADD MSTORE PUSH2 0x1D2C DUP2 PUSH2 0x1CF3 JUMP JUMPDEST SWAP1 POP SWAP2 SWAP1 POP JUMP JUMPDEST PUSH32 0x43616E6E6F74206D6F646966792061667465722066756E647320726563656976 PUSH0 DUP3 ADD MSTORE PUSH32 0x6564000000000000000000000000000000000000000000000000000000000000 PUSH1 0x20 DUP3 ADD MSTORE POP JUMP JUMPDEST PUSH0 PUSH2 0x1D8D PUSH1 0x22 DUP4 PUSH2 0x19D4 JUMP JUMPDEST SWAP2 POP PUSH2 0x1D98 DUP3 PUSH2 0x1D33 JUMP JUMPDEST PUSH1 0x40 DUP3 ADD SWAP1 POP SWAP2 SWAP1 POP JUMP JUMPDEST PUSH0 PUSH1 0x20 DUP3 ADD SWAP1 POP DUP2 DUP2 SUB PUSH0 DUP4 ADD MSTORE PUSH2 0x1DBA DUP2 PUSH2 0x1D81 JUMP JUMPDEST SWAP1 POP SWAP2 SWAP1 POP JUMP JUMPDEST PUSH32 0x4E6F207368617265686F6C646572730000000000000000000000000000000000 PUSH0 DUP3 ADD MSTORE POP JUMP JUMPDEST PUSH0 PUSH2 0x1DF5 PUSH1 0xF DUP4 PUSH2 0x19D4 JUMP JUMPDEST SWAP2 POP PUSH2 0x1E00 DUP3 PUSH2 0x1DC1 JUMP JUMPDEST PUSH1 0x20 DUP3 ADD SWAP1 POP SWAP2 SWAP1 POP JUMP JUMPDEST PUSH0 PUSH1 0x20 DUP3 ADD SWAP1 POP DUP2 DUP2 SUB PUSH0 DUP4 ADD MSTORE PUSH2 0x1E22 DUP2 PUSH2 0x1DE9 JUMP JUMPDEST SWAP1 POP SWAP2 SWAP1 POP JUMP JUMPDEST PUSH32 0x43726F776446756E64696E67206E6F7420736574000000000000000000000000 PUSH0 DUP3 ADD MSTORE POP JUMP JUMPDEST PUSH0 PUSH2 0x1E5D PUSH1 0x14 DUP4 PUSH2 0x19D4 JUMP JUMPDEST SWAP2 POP PUSH2 0x1E68 DUP3 PUSH2 0x1E29 JUMP JUMPDEST PUSH1 0x20 DUP3 ADD SWAP1 POP SWAP2 SWAP1 POP JUMP JUMPDEST PUSH0 PUSH1 0x20 DUP3 ADD SWAP1 POP DUP2 DUP2 SUB PUSH0 DUP4 ADD MSTORE PUSH2 0x1E8A DUP2 PUSH2 0x1E51 JUMP JUMPDEST SWAP1 POP SWAP2 SWAP1 POP JUMP JUMPDEST PUSH32 0x4F6E6C792043726F776446756E64696E6720636F6E7472616374000000000000 PUSH0 DUP3 ADD MSTORE POP JUMP JUMPDEST PUSH0 PUSH2 0x1EC5 PUSH1 0x1A DUP4 PUSH2 0x19D4 JUMP JUMPDEST SWAP2 POP PUSH2 0x1ED0 DUP3 PUSH2 0x1E91 JUMP JUMPDEST PUSH1 0x20 DUP3 ADD SWAP1 POP SWAP2 SWAP1 POP JUMP JUMPDEST PUSH0 PUSH1 0x20 DUP3 ADD SWAP1 POP DUP2 DUP2 SUB PUSH0 DUP4 ADD MSTORE PUSH2 0x1EF2 DUP2 PUSH2 0x1EB9 JUMP JUMPDEST SWAP1 POP SWAP2 SWAP1 POP JUMP JUMPDEST PUSH0 DUP2 MLOAD SWAP1 POP PUSH2 0x1F07 DUP2 PUSH2 0x1874 JUMP JUMPDEST SWAP3 SWAP2 POP POP JUMP JUMPDEST PUSH0 PUSH1 0x20 DUP3 DUP5 SUB SLT ISZERO PUSH2 0x1F22 JUMPI PUSH2 0x1F21 PUSH2 0x17B6 JUMP JUMPDEST JUMPDEST PUSH0 PUSH2 0x1F2F DUP5 DUP3 DUP6 ADD PUSH2 0x1EF9 JUMP JUMPDEST SWAP2 POP POP SWAP3 SWAP2 POP POP JUMP JUMPDEST PUSH32 0x4F6E6C79206F776E657200000000000000000000000000000000000000000000 PUSH0 DUP3 ADD MSTORE POP JUMP JUMPDEST PUSH0 PUSH2 0x1F6C PUSH1 0xA DUP4 PUSH2 0x19D4 JUMP JUMPDEST SWAP2 POP PUSH2 0x1F77 DUP3 PUSH2 0x1F38 JUMP JUMPDEST PUSH1 0x20 DUP3 ADD SWAP1 POP SWAP2 SWAP1 POP JUMP JUMPDEST PUSH0 PUSH1 0x20 DUP3 ADD SWAP1 POP DUP2 DUP2 SUB PUSH0 DUP4 ADD MSTORE PUSH2 0x1F99 DUP2 PUSH2 0x1F60 JUMP JUMPDEST SWAP1 POP SWAP2 SWAP1 POP JUMP JUMPDEST PUSH32 0x496E76616C696420616464726573730000000000000000000000000000000000 PUSH0 DUP3 ADD MSTORE POP JUMP JUMPDEST PUSH0 PUSH2 0x1FD4 PUSH1 0xF DUP4 PUSH2 0x19D4 JUMP JUMPDEST SWAP2 POP PUSH2 0x1FDF DUP3 PUSH2 0x1FA0 JUMP JUMPDEST PUSH1 0x20 DUP3 ADD SWAP1 POP SWAP2 SWAP1 POP JUMP JUMPDEST PUSH0 PUSH1 0x20 DUP3 ADD SWAP1 POP DUP2 DUP2 SUB PUSH0 DUP4 ADD MSTORE PUSH2 0x2001 DUP2 PUSH2 0x1FC8 JUMP JUMPDEST SWAP1 POP SWAP2 SWAP1 POP JUMP JUMPDEST PUSH32 0x496E76616C69642070657263656E746167650000000000000000000000000000 PUSH0 DUP3 ADD MSTORE POP JUMP JUMPDEST PUSH0 PUSH2 0x203C PUSH1 0x12 DUP4 PUSH2 0x19D4 JUMP JUMPDEST SWAP2 POP PUSH2 0x2047 DUP3 PUSH2 0x2008 JUMP JUMPDEST PUSH1 0x20 DUP3 ADD SWAP1 POP SWAP2 SWAP1 POP JUMP JUMPDEST PUSH0 PUSH1 0x20 DUP3 ADD SWAP1 POP DUP2 DUP2 SUB PUSH0 DUP4 ADD MSTORE PUSH2 0x2069 DUP2 PUSH2 0x2030 JUMP JUMPDEST SWAP1 POP SWAP2 SWAP1 POP JUMP JUMPDEST PUSH0 PUSH2 0x207A DUP3 PUSH2 0x1752 JUMP JUMPDEST SWAP2 POP PUSH2 0x2085 DUP4 PUSH2 0x1752 JUMP JUMPDEST SWAP3 POP DUP3 DUP3 SUB SWAP1 POP DUP2 DUP2 GT ISZERO PUSH2 0x209D JUMPI PUSH2 0x209C PUSH2 0x1B1C JUMP JUMPDEST JUMPDEST SWAP3 SWAP2 POP POP JUMP JUMPDEST PUSH0 PUSH2 0x20AD DUP3 PUSH2 0x1752 JUMP JUMPDEST SWAP2 POP PUSH2 0x20B8 DUP4 PUSH2 0x1752 JUMP JUMPDEST SWAP3 POP DUP3 DUP3 ADD SWAP1 POP DUP1 DUP3 GT ISZERO PUSH2 0x20D0 JUMPI PUSH2 0x20CF PUSH2 0x1B1C JUMP JUMPDEST JUMPDEST SWAP3 SWAP2 POP POP JUMP JUMPDEST PUSH32 0x4578636565647320313030250000000000000000000000000000000000000000 PUSH0 DUP3 ADD MSTORE POP JUMP JUMPDEST PUSH0 PUSH2 0x210A PUSH1 0xC DUP4 PUSH2 0x19D4 JUMP JUMPDEST SWAP2 POP PUSH2 0x2115 DUP3 PUSH2 0x20D6 JUMP JUMPDEST PUSH1 0x20 DUP3 ADD SWAP1 POP SWAP2 SWAP1 POP JUMP JUMPDEST PUSH0 PUSH1 0x20 DUP3 ADD SWAP1 POP DUP2 DUP2 SUB PUSH0 DUP4 ADD MSTORE PUSH2 0x2137 DUP2 PUSH2 0x20FE JUMP JUMPDEST SWAP1 POP SWAP2 SWAP1 POP JUMP JUMPDEST PUSH0 PUSH1 0x40 DUP3 ADD SWAP1 POP PUSH2 0x2151 PUSH0 DUP4 ADD DUP6 PUSH2 0x175B JUMP JUMPDEST PUSH2 0x215E PUSH1 0x20 DUP4 ADD DUP5 PUSH2 0x175B JUMP JUMPDEST SWAP4 SWAP3 POP POP POP JUMP JUMPDEST PUSH32 0x496E646578206F7574206F6620626F756E647300000000000000000000000000 PUSH0 DUP3 ADD MSTORE POP JUMP JUMPDEST PUSH0 PUSH2 0x2199 PUSH1 0x13 DUP4 PUSH2 0x19D4 JUMP JUMPDEST SWAP2 POP PUSH2 0x21A4 DUP3 PUSH2 0x2165 JUMP JUMPDEST PUSH1 0x20 DUP3 ADD SWAP1 POP SWAP2 SWAP1 POP JUMP JUMPDEST PUSH0 PUSH1 0x20 DUP3 ADD SWAP1 POP DUP2 DUP2 SUB PUSH0 DUP4 ADD MSTORE PUSH2 0x21C6 DUP2 PUSH2 0x218D JUMP JUMPDEST SWAP1 POP SWAP2 SWAP1 POP JUMP JUMPDEST PUSH32 0x4E6F2072656D61696E696E670000000000000000000000000000000000000000 PUSH0 DUP3 ADD MSTORE POP JUMP JUMPDEST PUSH0 PUSH2 0x2201 PUSH1 0xC DUP4 PUSH2 0x19D4 JUMP JUMPDEST SWAP2 POP PUSH2 0x220C DUP3 PUSH2 0x21CD JUMP JUMPDEST PUSH1 0x20 DUP3 ADD SWAP1 POP SWAP2 SWAP1 POP JUMP JUMPDEST PUSH0 PUSH1 0x20 DUP3 ADD SWAP1 POP DUP2 DUP2 SUB PUSH0 DUP4 ADD MSTORE PUSH2 0x222E DUP2 PUSH2 0x21F5 JUMP JUMPDEST SWAP1 POP SWAP2 SWAP1 POP JUMP INVALID LOG2 PUSH5 0x6970667358 0x22 SLT KECCAK256 0x28 0x28 PUSH12 0x84E2763A09B0C33DD4F77F36 DUPN 0x29 DATALOADN 0x1EAE CALLDATALOAD SWAP4 DUP6 CREATE RJUMPI 0x2F87 0xED 0xD0 EQ 0xDE BYTE PUSH5 0x736F6C6343 STOP ADDMOD 0x1F STOP CALLER "
				},
				"gasEstimates": {
					"creation": {
						"codeDepositCost": "1762200",
						"executionCost": "infinite",
						"totalCost": "infinite"
					},
					"external": {
						"addShareholder(address,uint256)": "infinite",
						"crowdFundingAddress()": "2597",
						"fundsReceived()": "2534",
						"getShareholder(address)": "infinite",
						"getShareholderAtIndex(uint256)": "infinite",
						"getShareholderCount()": "2486",
						"getTotalAllocated()": "2455",
						"owner()": "2574",
						"receiveTokens()": "infinite",
						"setCrowdFundingAddress(address)": "30278",
						"shareholderIndex(address)": "2847",
						"shareholders(uint256)": "infinite",
						"tokenAddress()": "2530",
						"totalAllocatedPercentage()": "2449",
						"totalReceived()": "2469",
						"withdrawRemaining()": "infinite",
						"withdrawShare()": "infinite"
					}
				},
				"methodIdentifiers": {
					"addShareholder(address,uint256)": "75724990",
					"crowdFundingAddress()": "9d573fa2",
					"fundsReceived()": "11318b33",
					"getShareholder(address)": "227d9f65",
					"getShareholderAtIndex(uint256)": "e9925271",
					"getShareholderCount()": "04972881",
					"getTotalAllocated()": "82299a5c",
					"owner()": "8da5cb5b",
					"receiveTokens()": "680e6c9b",
					"setCrowdFundingAddress(address)": "8872bbe2",
					"shareholderIndex(address)": "41bcf6a4",
					"shareholders(uint256)": "ab377daa",
					"tokenAddress()": "9d76ea58",
					"totalAllocatedPercentage()": "047c312a",
					"totalReceived()": "a3c2c462",
					"withdrawRemaining()": "ee38db95",
					"withdrawShare()": "24349671"
				}
			},
			"storageLayout": {
				"storage": [
					{
						"astId": 29,
						"contract": "contracts/DistributeFunding.sol:DistributeFunding",
						"label": "owner",
						"offset": 0,
						"slot": "0",
						"type": "t_address"
					},
					{
						"astId": 31,
						"contract": "contracts/DistributeFunding.sol:DistributeFunding",
						"label": "tokenAddress",
						"offset": 0,
						"slot": "1",
						"type": "t_address"
					},
					{
						"astId": 33,
						"contract": "contracts/DistributeFunding.sol:DistributeFunding",
						"label": "crowdFundingAddress",
						"offset": 0,
						"slot": "2",
						"type": "t_address"
					},
					{
						"astId": 35,
						"contract": "contracts/DistributeFunding.sol:DistributeFunding",
						"label": "totalReceived",
						"offset": 0,
						"slot": "3",
						"type": "t_uint256"
					},
					{
						"astId": 37,
						"contract": "contracts/DistributeFunding.sol:DistributeFunding",
						"label": "fundsReceived",
						"offset": 0,
						"slot": "4",
						"type": "t_bool"
					},
					{
						"astId": 41,
						"contract": "contracts/DistributeFunding.sol:DistributeFunding",
						"label": "shareholders",
						"offset": 0,
						"slot": "5",
						"type": "t_array(t_struct(Shareholder)27_storage)dyn_storage"
					},
					{
						"astId": 45,
						"contract": "contracts/DistributeFunding.sol:DistributeFunding",
						"label": "shareholderIndex",
						"offset": 0,
						"slot": "6",
						"type": "t_mapping(t_address,t_uint256)"
					},
					{
						"astId": 47,
						"contract": "contracts/DistributeFunding.sol:DistributeFunding",
						"label": "totalAllocatedPercentage",
						"offset": 0,
						"slot": "7",
						"type": "t_uint256"
					}
				],
				"types": {
					"t_address": {
						"encoding": "inplace",
						"label": "address",
						"numberOfBytes": "20"
					},
					"t_array(t_struct(Shareholder)27_storage)dyn_storage": {
						"base": "t_struct(Shareholder)27_storage",
						"encoding": "dynamic_array",
						"label": "struct DistributeFunding.Shareholder[]",
						"numberOfBytes": "32"
					},
					"t_bool": {
						"encoding": "inplace",
						"label": "bool",
						"numberOfBytes": "1"
					},
					"t_mapping(t_address,t_uint256)": {
						"encoding": "mapping",
						"key": "t_address",
						"label": "mapping(address => uint256)",
						"numberOfBytes": "32",
						"value": "t_uint256"
					},
					"t_struct(Shareholder)27_storage": {
						"encoding": "inplace",
						"label": "struct DistributeFunding.Shareholder",
						"members": [
							{
								"astId": 20,
								"contract": "contracts/DistributeFunding.sol:DistributeFunding",
								"label": "addr",
								"offset": 0,
								"slot": "0",
								"type": "t_address"
							},
							{
								"astId": 22,
								"contract": "contracts/DistributeFunding.sol:DistributeFunding",
								"label": "percentage",
								"offset": 0,
								"slot": "1",
								"type": "t_uint256"
							},
							{
								"astId": 24,
								"contract": "contracts/DistributeFunding.sol:DistributeFunding",
								"label": "hasWithdrawn",
								"offset": 0,
								"slot": "2",
								"type": "t_bool"
							},
							{
								"astId": 26,
								"contract": "contracts/DistributeFunding.sol:DistributeFunding",
								"label": "exists",
								"offset": 1,
								"slot": "2",
								"type": "t_bool"
							}
						],
						"numberOfBytes": "96"
					},
					"t_uint256": {
						"encoding": "inplace",
						"label": "uint256",
						"numberOfBytes": "32"
					}
				}
			},
			"userdoc": {
				"kind": "user",
				"methods": {},
				"version": 1
			}
		}
	}
}