{
	"contracts/SponsorFunding.sol": {
		"SponsorFunding": {
			"abi": [
				{
					"inputs": [
						{
							"internalType": "address",
							"name": "_tokenAddress",
							"type": "address"
						},
						{
							"internalType": "uint256",
							"name": "_sponsorshipPercentage",
							"type": "uint256"
						}
					],
					"stateMutability": "nonpayable",
					"type": "constructor"
				},
				{
					"anonymous": false,
					"inputs": [
						{
							"indexed": true,
							"internalType": "address",
							"name": "crowdFunding",
							"type": "address"
						}
					],
					"name": "CrowdFundingAuthorized",
					"type": "event"
				},
				{
					"anonymous": false,
					"inputs": [
						{
							"indexed": true,
							"internalType": "address",
							"name": "crowdFunding",
							"type": "address"
						}
					],
					"name": "CrowdFundingDeauthorized",
					"type": "event"
				},
				{
					"anonymous": false,
					"inputs": [
						{
							"indexed": true,
							"internalType": "address",
							"name": "to",
							"type": "address"
						},
						{
							"indexed": false,
							"internalType": "uint256",
							"name": "amount",
							"type": "uint256"
						}
					],
					"name": "ETHWithdrawn",
					"type": "event"
				},
				{
					"anonymous": false,
					"inputs": [
						{
							"indexed": true,
							"internalType": "address",
							"name": "crowdFunding",
							"type": "address"
						},
						{
							"indexed": false,
							"internalType": "uint256",
							"name": "required",
							"type": "uint256"
						},
						{
							"indexed": false,
							"internalType": "uint256",
							"name": "available",
							"type": "uint256"
						}
					],
					"name": "SponsorshipFailed",
					"type": "event"
				},
				{
					"anonymous": false,
					"inputs": [
						{
							"indexed": true,
							"internalType": "address",
							"name": "crowdFunding",
							"type": "address"
						},
						{
							"indexed": false,
							"internalType": "uint256",
							"name": "amount",
							"type": "uint256"
						}
					],
					"name": "SponsorshipProvided",
					"type": "event"
				},
				{
					"anonymous": false,
					"inputs": [
						{
							"indexed": false,
							"internalType": "uint256",
							"name": "amount",
							"type": "uint256"
						}
					],
					"name": "TokensPurchased",
					"type": "event"
				},
				{
					"anonymous": false,
					"inputs": [
						{
							"indexed": true,
							"internalType": "address",
							"name": "to",
							"type": "address"
						},
						{
							"indexed": false,
							"internalType": "uint256",
							"name": "amount",
							"type": "uint256"
						}
					],
					"name": "TokensWithdrawn",
					"type": "event"
				},
				{
					"inputs": [
						{
							"internalType": "address",
							"name": "_crowdFunding",
							"type": "address"
						}
					],
					"name": "authorizeCrowdFunding",
					"outputs": [],
					"stateMutability": "nonpayable",
					"type": "function"
				},
				{
					"inputs": [
						{
							"internalType": "address",
							"name": "",
							"type": "address"
						}
					],
					"name": "authorizedCrowdFundings",
					"outputs": [
						{
							"internalType": "bool",
							"name": "",
							"type": "bool"
						}
					],
					"stateMutability": "view",
					"type": "function"
				},
				{
					"inputs": [],
					"name": "buyTokensForSponsorship",
					"outputs": [
						{
							"internalType": "uint256",
							"name": "",
							"type": "uint256"
						}
					],
					"stateMutability": "payable",
					"type": "function"
				},
				{
					"inputs": [
						{
							"internalType": "address",
							"name": "_crowdFunding",
							"type": "address"
						}
					],
					"name": "deauthorizeCrowdFunding",
					"outputs": [],
					"stateMutability": "nonpayable",
					"type": "function"
				},
				{
					"inputs": [],
					"name": "getBalance",
					"outputs": [
						{
							"internalType": "uint256",
							"name": "",
							"type": "uint256"
						}
					],
					"stateMutability": "view",
					"type": "function"
				},
				{
					"inputs": [],
					"name": "owner",
					"outputs": [
						{
							"internalType": "address",
							"name": "",
							"type": "address"
						}
					],
					"stateMutability": "view",
					"type": "function"
				},
				{
					"inputs": [
						{
							"internalType": "address",
							"name": "crowdFundingAddress",
							"type": "address"
						}
					],
					"name": "provideSponsor",
					"outputs": [],
					"stateMutability": "nonpayable",
					"type": "function"
				},
				{
					"inputs": [],
					"name": "sponsorshipPercentage",
					"outputs": [
						{
							"internalType": "uint256",
							"name": "",
							"type": "uint256"
						}
					],
					"stateMutability": "view",
					"type": "function"
				},
				{
					"inputs": [],
					"name": "tokenAddress",
					"outputs": [
						{
							"internalType": "address",
							"name": "",
							"type": "address"
						}
					],
					"stateMutability": "view",
					"type": "function"
				},
				{
					"inputs": [],
					"name": "withdrawETH",
					"outputs": [],
					"stateMutability": "nonpayable",
					"type": "function"
				},
				{
					"inputs": [
						{
							"internalType": "uint256",
							"name": "_amount",
							"type": "uint256"
						}
					],
					"name": "withdrawTokens",
					"outputs": [],
					"stateMutability": "nonpayable",
					"type": "function"
				},
				{
					"stateMutability": "payable",
					"type": "receive"
				}
			],
			"devdoc": {
				"kind": "dev",
				"methods": {},
				"version": 1
			},
			"evm": {
				"assembly": "    /* \"contracts/SponsorFunding.sol\":334:4370  contract SponsorFunding {... */\n  mstore(0x40, 0x80)\n    /* \"contracts/SponsorFunding.sol\":1262:1627  constructor(address _tokenAddress, uint256 _sponsorshipPercentage) {... */\n  callvalue\n  dup1\n  iszero\n  tag_1\n  jumpi\n  revert(0x00, 0x00)\ntag_1:\n  pop\n  mload(0x40)\n  sub(codesize, bytecodeSize)\n  dup1\n  bytecodeSize\n  dup4\n  codecopy\n  dup2\n  dup2\n  add\n  0x40\n  mstore\n  dup2\n  add\n  swap1\n  tag_2\n  swap2\n  swap1\n  tag_3\n  jump\t// in\ntag_2:\n    /* \"contracts/SponsorFunding.sol\":1373:1374  0 */\n  0x00\n    /* \"contracts/SponsorFunding.sol\":1348:1375  _tokenAddress != address(0) */\n  0xffffffffffffffffffffffffffffffffffffffff\n  and\n    /* \"contracts/SponsorFunding.sol\":1348:1361  _tokenAddress */\n  dup3\n    /* \"contracts/SponsorFunding.sol\":1348:1375  _tokenAddress != address(0) */\n  0xffffffffffffffffffffffffffffffffffffffff\n  and\n  sub\n    /* \"contracts/SponsorFunding.sol\":1340:1393  require(_tokenAddress != address(0), \"Invalid token\") */\n  tag_6\n  jumpi\n  mload(0x40)\n  0x08c379a000000000000000000000000000000000000000000000000000000000\n  dup2\n  mstore\n  0x04\n  add\n  tag_7\n  swap1\n  tag_8\n  jump\t// in\ntag_7:\n  mload(0x40)\n  dup1\n  swap2\n  sub\n  swap1\n  revert\ntag_6:\n    /* \"contracts/SponsorFunding.sol\":1437:1438  0 */\n  0x00\n    /* \"contracts/SponsorFunding.sol\":1412:1434  _sponsorshipPercentage */\n  dup2\n    /* \"contracts/SponsorFunding.sol\":1412:1438  _sponsorshipPercentage > 0 */\n  gt\n    /* \"contracts/SponsorFunding.sol\":1412:1471  _sponsorshipPercentage > 0 && _sponsorshipPercentage <= 100 */\n  dup1\n  iszero\n  tag_9\n  jumpi\n  pop\n    /* \"contracts/SponsorFunding.sol\":1468:1471  100 */\n  0x64\n    /* \"contracts/SponsorFunding.sol\":1442:1464  _sponsorshipPercentage */\n  dup2\n    /* \"contracts/SponsorFunding.sol\":1442:1471  _sponsorshipPercentage <= 100 */\n  gt\n  iszero\n    /* \"contracts/SponsorFunding.sol\":1412:1471  _sponsorshipPercentage > 0 && _sponsorshipPercentage <= 100 */\ntag_9:\n    /* \"contracts/SponsorFunding.sol\":1404:1494  require(_sponsorshipPercentage > 0 && _sponsorshipPercentage <= 100, \"Invalid percentage\") */\n  tag_10\n  jumpi\n  mload(0x40)\n  0x08c379a000000000000000000000000000000000000000000000000000000000\n  dup2\n  mstore\n  0x04\n  add\n  tag_11\n  swap1\n  tag_12\n  jump\t// in\ntag_11:\n  mload(0x40)\n  dup1\n  swap2\n  sub\n  swap1\n  revert\ntag_10:\n    /* \"contracts/SponsorFunding.sol\":1513:1523  msg.sender */\n  caller\n    /* \"contracts/SponsorFunding.sol\":1505:1510  owner */\n  0x00\n  0x00\n    /* \"contracts/SponsorFunding.sol\":1505:1523  owner = msg.sender */\n  0x0100\n  exp\n  dup2\n  sload\n  dup2\n  0xffffffffffffffffffffffffffffffffffffffff\n  mul\n  not\n  and\n  swap1\n  dup4\n  0xffffffffffffffffffffffffffffffffffffffff\n  and\n  mul\n  or\n  swap1\n  sstore\n  pop\n    /* \"contracts/SponsorFunding.sol\":1549:1562  _tokenAddress */\n  dup2\n    /* \"contracts/SponsorFunding.sol\":1534:1546  tokenAddress */\n  0x01\n  0x00\n    /* \"contracts/SponsorFunding.sol\":1534:1562  tokenAddress = _tokenAddress */\n  0x0100\n  exp\n  dup2\n  sload\n  dup2\n  0xffffffffffffffffffffffffffffffffffffffff\n  mul\n  not\n  and\n  swap1\n  dup4\n  0xffffffffffffffffffffffffffffffffffffffff\n  and\n  mul\n  or\n  swap1\n  sstore\n  pop\n    /* \"contracts/SponsorFunding.sol\":1597:1619  _sponsorshipPercentage */\n  dup1\n    /* \"contracts/SponsorFunding.sol\":1573:1594  sponsorshipPercentage */\n  0x02\n    /* \"contracts/SponsorFunding.sol\":1573:1619  sponsorshipPercentage = _sponsorshipPercentage */\n  dup2\n  swap1\n  sstore\n  pop\n    /* \"contracts/SponsorFunding.sol\":1262:1627  constructor(address _tokenAddress, uint256 _sponsorshipPercentage) {... */\n  pop\n  pop\n    /* \"contracts/SponsorFunding.sol\":334:4370  contract SponsorFunding {... */\n  jump(tag_13)\n    /* \"#utility.yul\":88:205   */\ntag_15:\n    /* \"#utility.yul\":197:198   */\n  0x00\n    /* \"#utility.yul\":194:195   */\n  0x00\n    /* \"#utility.yul\":187:199   */\n  revert\n    /* \"#utility.yul\":334:460   */\ntag_17:\n    /* \"#utility.yul\":371:378   */\n  0x00\n    /* \"#utility.yul\":411:453   */\n  0xffffffffffffffffffffffffffffffffffffffff\n    /* \"#utility.yul\":404:409   */\n  dup3\n    /* \"#utility.yul\":400:454   */\n  and\n    /* \"#utility.yul\":389:454   */\n  swap1\n  pop\n    /* \"#utility.yul\":334:460   */\n  swap2\n  swap1\n  pop\n  jump\t// out\n    /* \"#utility.yul\":466:562   */\ntag_18:\n    /* \"#utility.yul\":503:510   */\n  0x00\n    /* \"#utility.yul\":532:556   */\n  tag_35\n    /* \"#utility.yul\":550:555   */\n  dup3\n    /* \"#utility.yul\":532:556   */\n  tag_17\n  jump\t// in\ntag_35:\n    /* \"#utility.yul\":521:556   */\n  swap1\n  pop\n    /* \"#utility.yul\":466:562   */\n  swap2\n  swap1\n  pop\n  jump\t// out\n    /* \"#utility.yul\":568:690   */\ntag_19:\n    /* \"#utility.yul\":641:665   */\n  tag_37\n    /* \"#utility.yul\":659:664   */\n  dup2\n    /* \"#utility.yul\":641:665   */\n  tag_18\n  jump\t// in\ntag_37:\n    /* \"#utility.yul\":634:639   */\n  dup2\n    /* \"#utility.yul\":631:666   */\n  eq\n    /* \"#utility.yul\":621:684   */\n  tag_38\n  jumpi\n    /* \"#utility.yul\":680:681   */\n  0x00\n    /* \"#utility.yul\":677:678   */\n  0x00\n    /* \"#utility.yul\":670:682   */\n  revert\n    /* \"#utility.yul\":621:684   */\ntag_38:\n    /* \"#utility.yul\":568:690   */\n  pop\n  jump\t// out\n    /* \"#utility.yul\":696:839   */\ntag_20:\n    /* \"#utility.yul\":753:758   */\n  0x00\n    /* \"#utility.yul\":784:790   */\n  dup2\n    /* \"#utility.yul\":778:791   */\n  mload\n    /* \"#utility.yul\":769:791   */\n  swap1\n  pop\n    /* \"#utility.yul\":800:833   */\n  tag_40\n    /* \"#utility.yul\":827:832   */\n  dup2\n    /* \"#utility.yul\":800:833   */\n  tag_19\n  jump\t// in\ntag_40:\n    /* \"#utility.yul\":696:839   */\n  swap3\n  swap2\n  pop\n  pop\n  jump\t// out\n    /* \"#utility.yul\":845:922   */\ntag_21:\n    /* \"#utility.yul\":882:889   */\n  0x00\n    /* \"#utility.yul\":911:916   */\n  dup2\n    /* \"#utility.yul\":900:916   */\n  swap1\n  pop\n    /* \"#utility.yul\":845:922   */\n  swap2\n  swap1\n  pop\n  jump\t// out\n    /* \"#utility.yul\":928:1050   */\ntag_22:\n    /* \"#utility.yul\":1001:1025   */\n  tag_43\n    /* \"#utility.yul\":1019:1024   */\n  dup2\n    /* \"#utility.yul\":1001:1025   */\n  tag_21\n  jump\t// in\ntag_43:\n    /* \"#utility.yul\":994:999   */\n  dup2\n    /* \"#utility.yul\":991:1026   */\n  eq\n    /* \"#utility.yul\":981:1044   */\n  tag_44\n  jumpi\n    /* \"#utility.yul\":1040:1041   */\n  0x00\n    /* \"#utility.yul\":1037:1038   */\n  0x00\n    /* \"#utility.yul\":1030:1042   */\n  revert\n    /* \"#utility.yul\":981:1044   */\ntag_44:\n    /* \"#utility.yul\":928:1050   */\n  pop\n  jump\t// out\n    /* \"#utility.yul\":1056:1199   */\ntag_23:\n    /* \"#utility.yul\":1113:1118   */\n  0x00\n    /* \"#utility.yul\":1144:1150   */\n  dup2\n    /* \"#utility.yul\":1138:1151   */\n  mload\n    /* \"#utility.yul\":1129:1151   */\n  swap1\n  pop\n    /* \"#utility.yul\":1160:1193   */\n  tag_46\n    /* \"#utility.yul\":1187:1192   */\n  dup2\n    /* \"#utility.yul\":1160:1193   */\n  tag_22\n  jump\t// in\ntag_46:\n    /* \"#utility.yul\":1056:1199   */\n  swap3\n  swap2\n  pop\n  pop\n  jump\t// out\n    /* \"#utility.yul\":1205:1712   */\ntag_3:\n    /* \"#utility.yul\":1284:1290   */\n  0x00\n    /* \"#utility.yul\":1292:1298   */\n  0x00\n    /* \"#utility.yul\":1341:1343   */\n  0x40\n    /* \"#utility.yul\":1329:1338   */\n  dup4\n    /* \"#utility.yul\":1320:1327   */\n  dup6\n    /* \"#utility.yul\":1316:1339   */\n  sub\n    /* \"#utility.yul\":1312:1344   */\n  slt\n    /* \"#utility.yul\":1309:1428   */\n  iszero\n  tag_48\n  jumpi\n    /* \"#utility.yul\":1347:1426   */\n  tag_49\n  tag_15\n  jump\t// in\ntag_49:\n    /* \"#utility.yul\":1309:1428   */\ntag_48:\n    /* \"#utility.yul\":1467:1468   */\n  0x00\n    /* \"#utility.yul\":1492:1556   */\n  tag_50\n    /* \"#utility.yul\":1548:1555   */\n  dup6\n    /* \"#utility.yul\":1539:1545   */\n  dup3\n    /* \"#utility.yul\":1528:1537   */\n  dup7\n    /* \"#utility.yul\":1524:1546   */\n  add\n    /* \"#utility.yul\":1492:1556   */\n  tag_20\n  jump\t// in\ntag_50:\n    /* \"#utility.yul\":1482:1556   */\n  swap3\n  pop\n    /* \"#utility.yul\":1438:1566   */\n  pop\n    /* \"#utility.yul\":1605:1607   */\n  0x20\n    /* \"#utility.yul\":1631:1695   */\n  tag_51\n    /* \"#utility.yul\":1687:1694   */\n  dup6\n    /* \"#utility.yul\":1678:1684   */\n  dup3\n    /* \"#utility.yul\":1667:1676   */\n  dup7\n    /* \"#utility.yul\":1663:1685   */\n  add\n    /* \"#utility.yul\":1631:1695   */\n  tag_23\n  jump\t// in\ntag_51:\n    /* \"#utility.yul\":1621:1695   */\n  swap2\n  pop\n    /* \"#utility.yul\":1576:1705   */\n  pop\n    /* \"#utility.yul\":1205:1712   */\n  swap3\n  pop\n  swap3\n  swap1\n  pop\n  jump\t// out\n    /* \"#utility.yul\":1718:1887   */\ntag_24:\n    /* \"#utility.yul\":1802:1813   */\n  0x00\n    /* \"#utility.yul\":1836:1842   */\n  dup3\n    /* \"#utility.yul\":1831:1834   */\n  dup3\n    /* \"#utility.yul\":1824:1843   */\n  mstore\n    /* \"#utility.yul\":1876:1880   */\n  0x20\n    /* \"#utility.yul\":1871:1874   */\n  dup3\n    /* \"#utility.yul\":1867:1881   */\n  add\n    /* \"#utility.yul\":1852:1881   */\n  swap1\n  pop\n    /* \"#utility.yul\":1718:1887   */\n  swap3\n  swap2\n  pop\n  pop\n  jump\t// out\n    /* \"#utility.yul\":1893:2056   */\ntag_25:\n    /* \"#utility.yul\":2033:2048   */\n  0x496e76616c696420746f6b656e00000000000000000000000000000000000000\n    /* \"#utility.yul\":2029:2030   */\n  0x00\n    /* \"#utility.yul\":2021:2027   */\n  dup3\n    /* \"#utility.yul\":2017:2031   */\n  add\n    /* \"#utility.yul\":2010:2049   */\n  mstore\n    /* \"#utility.yul\":1893:2056   */\n  pop\n  jump\t// out\n    /* \"#utility.yul\":2062:2428   */\ntag_26:\n    /* \"#utility.yul\":2204:2207   */\n  0x00\n    /* \"#utility.yul\":2225:2292   */\n  tag_55\n    /* \"#utility.yul\":2289:2291   */\n  0x0d\n    /* \"#utility.yul\":2284:2287   */\n  dup4\n    /* \"#utility.yul\":2225:2292   */\n  tag_24\n  jump\t// in\ntag_55:\n    /* \"#utility.yul\":2218:2292   */\n  swap2\n  pop\n    /* \"#utility.yul\":2301:2394   */\n  tag_56\n    /* \"#utility.yul\":2390:2393   */\n  dup3\n    /* \"#utility.yul\":2301:2394   */\n  tag_25\n  jump\t// in\ntag_56:\n    /* \"#utility.yul\":2419:2421   */\n  0x20\n    /* \"#utility.yul\":2414:2417   */\n  dup3\n    /* \"#utility.yul\":2410:2422   */\n  add\n    /* \"#utility.yul\":2403:2422   */\n  swap1\n  pop\n    /* \"#utility.yul\":2062:2428   */\n  swap2\n  swap1\n  pop\n  jump\t// out\n    /* \"#utility.yul\":2434:2853   */\ntag_8:\n    /* \"#utility.yul\":2600:2604   */\n  0x00\n    /* \"#utility.yul\":2638:2640   */\n  0x20\n    /* \"#utility.yul\":2627:2636   */\n  dup3\n    /* \"#utility.yul\":2623:2641   */\n  add\n    /* \"#utility.yul\":2615:2641   */\n  swap1\n  pop\n    /* \"#utility.yul\":2687:2696   */\n  dup2\n    /* \"#utility.yul\":2681:2685   */\n  dup2\n    /* \"#utility.yul\":2677:2697   */\n  sub\n    /* \"#utility.yul\":2673:2674   */\n  0x00\n    /* \"#utility.yul\":2662:2671   */\n  dup4\n    /* \"#utility.yul\":2658:2675   */\n  add\n    /* \"#utility.yul\":2651:2698   */\n  mstore\n    /* \"#utility.yul\":2715:2846   */\n  tag_58\n    /* \"#utility.yul\":2841:2845   */\n  dup2\n    /* \"#utility.yul\":2715:2846   */\n  tag_26\n  jump\t// in\ntag_58:\n    /* \"#utility.yul\":2707:2846   */\n  swap1\n  pop\n    /* \"#utility.yul\":2434:2853   */\n  swap2\n  swap1\n  pop\n  jump\t// out\n    /* \"#utility.yul\":2859:3027   */\ntag_27:\n    /* \"#utility.yul\":2999:3019   */\n  0x496e76616c69642070657263656e746167650000000000000000000000000000\n    /* \"#utility.yul\":2995:2996   */\n  0x00\n    /* \"#utility.yul\":2987:2993   */\n  dup3\n    /* \"#utility.yul\":2983:2997   */\n  add\n    /* \"#utility.yul\":2976:3020   */\n  mstore\n    /* \"#utility.yul\":2859:3027   */\n  pop\n  jump\t// out\n    /* \"#utility.yul\":3033:3399   */\ntag_28:\n    /* \"#utility.yul\":3175:3178   */\n  0x00\n    /* \"#utility.yul\":3196:3263   */\n  tag_61\n    /* \"#utility.yul\":3260:3262   */\n  0x12\n    /* \"#utility.yul\":3255:3258   */\n  dup4\n    /* \"#utility.yul\":3196:3263   */\n  tag_24\n  jump\t// in\ntag_61:\n    /* \"#utility.yul\":3189:3263   */\n  swap2\n  pop\n    /* \"#utility.yul\":3272:3365   */\n  tag_62\n    /* \"#utility.yul\":3361:3364   */\n  dup3\n    /* \"#utility.yul\":3272:3365   */\n  tag_27\n  jump\t// in\ntag_62:\n    /* \"#utility.yul\":3390:3392   */\n  0x20\n    /* \"#utility.yul\":3385:3388   */\n  dup3\n    /* \"#utility.yul\":3381:3393   */\n  add\n    /* \"#utility.yul\":3374:3393   */\n  swap1\n  pop\n    /* \"#utility.yul\":3033:3399   */\n  swap2\n  swap1\n  pop\n  jump\t// out\n    /* \"#utility.yul\":3405:3824   */\ntag_12:\n    /* \"#utility.yul\":3571:3575   */\n  0x00\n    /* \"#utility.yul\":3609:3611   */\n  0x20\n    /* \"#utility.yul\":3598:3607   */\n  dup3\n    /* \"#utility.yul\":3594:3612   */\n  add\n    /* \"#utility.yul\":3586:3612   */\n  swap1\n  pop\n    /* \"#utility.yul\":3658:3667   */\n  dup2\n    /* \"#utility.yul\":3652:3656   */\n  dup2\n    /* \"#utility.yul\":3648:3668   */\n  sub\n    /* \"#utility.yul\":3644:3645   */\n  0x00\n    /* \"#utility.yul\":3633:3642   */\n  dup4\n    /* \"#utility.yul\":3629:3646   */\n  add\n    /* \"#utility.yul\":3622:3669   */\n  mstore\n    /* \"#utility.yul\":3686:3817   */\n  tag_64\n    /* \"#utility.yul\":3812:3816   */\n  dup2\n    /* \"#utility.yul\":3686:3817   */\n  tag_28\n  jump\t// in\ntag_64:\n    /* \"#utility.yul\":3678:3817   */\n  swap1\n  pop\n    /* \"#utility.yul\":3405:3824   */\n  swap2\n  swap1\n  pop\n  jump\t// out\n    /* \"contracts/SponsorFunding.sol\":334:4370  contract SponsorFunding {... */\ntag_13:\n  dataSize(sub_0)\n  dup1\n  dataOffset(sub_0)\n  0x00\n  codecopy\n  0x00\n  return\nstop\n\nsub_0: assembly {\n        /* \"contracts/SponsorFunding.sol\":334:4370  contract SponsorFunding {... */\n      mstore(0x40, 0x80)\n      jumpi(tag_1, lt(calldatasize, 0x04))\n      shr(0xe0, calldataload(0x00))\n      dup1\n      0x9d76ea58\n      gt\n      tag_14\n      jumpi\n      dup1\n      0x9d76ea58\n      eq\n      tag_8\n      jumpi\n      dup1\n      0xbfdc3ec6\n      eq\n      tag_9\n      jumpi\n      dup1\n      0xc5189787\n      eq\n      tag_10\n      jumpi\n      dup1\n      0xc5d9b404\n      eq\n      tag_11\n      jumpi\n      dup1\n      0xe086e5ec\n      eq\n      tag_12\n      jumpi\n      dup1\n      0xee868825\n      eq\n      tag_13\n      jumpi\n      jump(tag_2)\n    tag_14:\n      dup1\n      0x0b54fa79\n      eq\n      tag_3\n      jumpi\n      dup1\n      0x12065fe0\n      eq\n      tag_4\n      jumpi\n      dup1\n      0x16504b93\n      eq\n      tag_5\n      jumpi\n      dup1\n      0x315a095d\n      eq\n      tag_6\n      jumpi\n      dup1\n      0x8da5cb5b\n      eq\n      tag_7\n      jumpi\n      jump(tag_2)\n    tag_1:\n      jumpi(tag_2, calldatasize)\n      stop\n    tag_2:\n      revert(0x00, 0x00)\n        /* \"contracts/SponsorFunding.sol\":1986:2255  function deauthorizeCrowdFunding(address _crowdFunding) public onlyOwner {... */\n    tag_3:\n      callvalue\n      dup1\n      iszero\n      tag_17\n      jumpi\n      revert(0x00, 0x00)\n    tag_17:\n      pop\n      tag_18\n      0x04\n      dup1\n      calldatasize\n      sub\n      dup2\n      add\n      swap1\n      tag_19\n      swap2\n      swap1\n      tag_20\n      jump\t// in\n    tag_19:\n      tag_21\n      jump\t// in\n    tag_18:\n      stop\n        /* \"contracts/SponsorFunding.sol\":3467:3590  function getBalance() public view returns (uint256) {... */\n    tag_4:\n      callvalue\n      dup1\n      iszero\n      tag_22\n      jumpi\n      revert(0x00, 0x00)\n    tag_22:\n      pop\n      tag_23\n      tag_24\n      jump\t// in\n    tag_23:\n      mload(0x40)\n      tag_25\n      swap2\n      swap1\n      tag_26\n      jump\t// in\n    tag_25:\n      mload(0x40)\n      dup1\n      swap2\n      sub\n      swap1\n      return\n        /* \"contracts/SponsorFunding.sol\":1639:1974  function authorizeCrowdFunding(address _crowdFunding) public onlyOwner {... */\n    tag_5:\n      callvalue\n      dup1\n      iszero\n      tag_27\n      jumpi\n      revert(0x00, 0x00)\n    tag_27:\n      pop\n      tag_28\n      0x04\n      dup1\n      calldatasize\n      sub\n      dup2\n      add\n      swap1\n      tag_29\n      swap2\n      swap1\n      tag_20\n      jump\t// in\n    tag_29:\n      tag_30\n      jump\t// in\n    tag_28:\n      stop\n        /* \"contracts/SponsorFunding.sol\":3602:4000  function withdrawTokens(uint256 _amount) public onlyOwner {... */\n    tag_6:\n      callvalue\n      dup1\n      iszero\n      tag_31\n      jumpi\n      revert(0x00, 0x00)\n    tag_31:\n      pop\n      tag_32\n      0x04\n      dup1\n      calldatasize\n      sub\n      dup2\n      add\n      swap1\n      tag_33\n      swap2\n      swap1\n      tag_34\n      jump\t// in\n    tag_33:\n      tag_35\n      jump\t// in\n    tag_32:\n      stop\n        /* \"contracts/SponsorFunding.sol\":365:385  address public owner */\n    tag_7:\n      callvalue\n      dup1\n      iszero\n      tag_36\n      jumpi\n      revert(0x00, 0x00)\n    tag_36:\n      pop\n      tag_37\n      tag_38\n      jump\t// in\n    tag_37:\n      mload(0x40)\n      tag_39\n      swap2\n      swap1\n      tag_40\n      jump\t// in\n    tag_39:\n      mload(0x40)\n      dup1\n      swap2\n      sub\n      swap1\n      return\n        /* \"contracts/SponsorFunding.sol\":392:419  address public tokenAddress */\n    tag_8:\n      callvalue\n      dup1\n      iszero\n      tag_41\n      jumpi\n      revert(0x00, 0x00)\n    tag_41:\n      pop\n      tag_42\n      tag_43\n      jump\t// in\n    tag_42:\n      mload(0x40)\n      tag_44\n      swap2\n      swap1\n      tag_40\n      jump\t// in\n    tag_44:\n      mload(0x40)\n      dup1\n      swap2\n      sub\n      swap1\n      return\n        /* \"contracts/SponsorFunding.sol\":2267:2625  function buyTokensForSponsorship() public payable onlyOwner returns (uint256) {... */\n    tag_9:\n      tag_45\n      tag_46\n      jump\t// in\n    tag_45:\n      mload(0x40)\n      tag_47\n      swap2\n      swap1\n      tag_26\n      jump\t// in\n    tag_47:\n      mload(0x40)\n      dup1\n      swap2\n      sub\n      swap1\n      return\n        /* \"contracts/SponsorFunding.sol\":426:462  uint256 public sponsorshipPercentage */\n    tag_10:\n      callvalue\n      dup1\n      iszero\n      tag_48\n      jumpi\n      revert(0x00, 0x00)\n    tag_48:\n      pop\n      tag_49\n      tag_50\n      jump\t// in\n    tag_49:\n      mload(0x40)\n      tag_51\n      swap2\n      swap1\n      tag_26\n      jump\t// in\n    tag_51:\n      mload(0x40)\n      dup1\n      swap2\n      sub\n      swap1\n      return\n        /* \"contracts/SponsorFunding.sol\":2637:3455  function provideSponsor(address crowdFundingAddress) external onlyAuthorized {... */\n    tag_11:\n      callvalue\n      dup1\n      iszero\n      tag_52\n      jumpi\n      revert(0x00, 0x00)\n    tag_52:\n      pop\n      tag_53\n      0x04\n      dup1\n      calldatasize\n      sub\n      dup2\n      add\n      swap1\n      tag_54\n      swap2\n      swap1\n      tag_20\n      jump\t// in\n    tag_54:\n      tag_55\n      jump\t// in\n    tag_53:\n      stop\n        /* \"contracts/SponsorFunding.sol\":4012:4326  function withdrawETH() public onlyOwner {... */\n    tag_12:\n      callvalue\n      dup1\n      iszero\n      tag_56\n      jumpi\n      revert(0x00, 0x00)\n    tag_56:\n      pop\n      tag_57\n      tag_58\n      jump\t// in\n    tag_57:\n      stop\n        /* \"contracts/SponsorFunding.sol\":475:530  mapping(address => bool) public authorizedCrowdFundings */\n    tag_13:\n      callvalue\n      dup1\n      iszero\n      tag_59\n      jumpi\n      revert(0x00, 0x00)\n    tag_59:\n      pop\n      tag_60\n      0x04\n      dup1\n      calldatasize\n      sub\n      dup2\n      add\n      swap1\n      tag_61\n      swap2\n      swap1\n      tag_20\n      jump\t// in\n    tag_61:\n      tag_62\n      jump\t// in\n    tag_60:\n      mload(0x40)\n      tag_63\n      swap2\n      swap1\n      tag_64\n      jump\t// in\n    tag_63:\n      mload(0x40)\n      dup1\n      swap2\n      sub\n      swap1\n      return\n        /* \"contracts/SponsorFunding.sol\":1986:2255  function deauthorizeCrowdFunding(address _crowdFunding) public onlyOwner {... */\n    tag_21:\n        /* \"contracts/SponsorFunding.sol\":1079:1084  owner */\n      0x00\n      0x00\n      swap1\n      sload\n      swap1\n      0x0100\n      exp\n      swap1\n      div\n      0xffffffffffffffffffffffffffffffffffffffff\n      and\n        /* \"contracts/SponsorFunding.sol\":1065:1084  msg.sender == owner */\n      0xffffffffffffffffffffffffffffffffffffffff\n      and\n        /* \"contracts/SponsorFunding.sol\":1065:1075  msg.sender */\n      caller\n        /* \"contracts/SponsorFunding.sol\":1065:1084  msg.sender == owner */\n      0xffffffffffffffffffffffffffffffffffffffff\n      and\n      eq\n        /* \"contracts/SponsorFunding.sol\":1057:1099  require(msg.sender == owner, \"Only owner\") */\n      tag_66\n      jumpi\n      mload(0x40)\n      0x08c379a000000000000000000000000000000000000000000000000000000000\n      dup2\n      mstore\n      0x04\n      add\n      tag_67\n      swap1\n      tag_68\n      jump\t// in\n    tag_67:\n      mload(0x40)\n      dup1\n      swap2\n      sub\n      swap1\n      revert\n    tag_66:\n        /* \"contracts/SponsorFunding.sol\":2078:2101  authorizedCrowdFundings */\n      0x03\n        /* \"contracts/SponsorFunding.sol\":2078:2116  authorizedCrowdFundings[_crowdFunding] */\n      0x00\n        /* \"contracts/SponsorFunding.sol\":2102:2115  _crowdFunding */\n      dup3\n        /* \"contracts/SponsorFunding.sol\":2078:2116  authorizedCrowdFundings[_crowdFunding] */\n      0xffffffffffffffffffffffffffffffffffffffff\n      and\n      0xffffffffffffffffffffffffffffffffffffffff\n      and\n      dup2\n      mstore\n      0x20\n      add\n      swap1\n      dup2\n      mstore\n      0x20\n      add\n      0x00\n      keccak256\n      0x00\n      swap1\n      sload\n      swap1\n      0x0100\n      exp\n      swap1\n      div\n      0xff\n      and\n        /* \"contracts/SponsorFunding.sol\":2070:2135  require(authorizedCrowdFundings[_crowdFunding], \"Not authorized\") */\n      tag_70\n      jumpi\n      mload(0x40)\n      0x08c379a000000000000000000000000000000000000000000000000000000000\n      dup2\n      mstore\n      0x04\n      add\n      tag_71\n      swap1\n      tag_72\n      jump\t// in\n    tag_71:\n      mload(0x40)\n      dup1\n      swap2\n      sub\n      swap1\n      revert\n    tag_70:\n        /* \"contracts/SponsorFunding.sol\":2187:2192  false */\n      0x00\n        /* \"contracts/SponsorFunding.sol\":2146:2169  authorizedCrowdFundings */\n      0x03\n        /* \"contracts/SponsorFunding.sol\":2146:2184  authorizedCrowdFundings[_crowdFunding] */\n      0x00\n        /* \"contracts/SponsorFunding.sol\":2170:2183  _crowdFunding */\n      dup4\n        /* \"contracts/SponsorFunding.sol\":2146:2184  authorizedCrowdFundings[_crowdFunding] */\n      0xffffffffffffffffffffffffffffffffffffffff\n      and\n      0xffffffffffffffffffffffffffffffffffffffff\n      and\n      dup2\n      mstore\n      0x20\n      add\n      swap1\n      dup2\n      mstore\n      0x20\n      add\n      0x00\n      keccak256\n      0x00\n        /* \"contracts/SponsorFunding.sol\":2146:2192  authorizedCrowdFundings[_crowdFunding] = false */\n      0x0100\n      exp\n      dup2\n      sload\n      dup2\n      0xff\n      mul\n      not\n      and\n      swap1\n      dup4\n      iszero\n      iszero\n      mul\n      or\n      swap1\n      sstore\n      pop\n        /* \"contracts/SponsorFunding.sol\":2233:2246  _crowdFunding */\n      dup1\n        /* \"contracts/SponsorFunding.sol\":2208:2247  CrowdFundingDeauthorized(_crowdFunding) */\n      0xffffffffffffffffffffffffffffffffffffffff\n      and\n      0x2be66b7f49755e7b76cbcf2b0226ca0fd6b9287026872d18bdf8d9fe77bd84e1\n      mload(0x40)\n      mload(0x40)\n      dup1\n      swap2\n      sub\n      swap1\n      log2\n        /* \"contracts/SponsorFunding.sol\":1986:2255  function deauthorizeCrowdFunding(address _crowdFunding) public onlyOwner {... */\n      pop\n      jump\t// out\n        /* \"contracts/SponsorFunding.sol\":3467:3590  function getBalance() public view returns (uint256) {... */\n    tag_24:\n        /* \"contracts/SponsorFunding.sol\":3510:3517  uint256 */\n      0x00\n        /* \"contracts/SponsorFunding.sol\":3544:3556  tokenAddress */\n      0x01\n      0x00\n      swap1\n      sload\n      swap1\n      0x0100\n      exp\n      swap1\n      div\n      0xffffffffffffffffffffffffffffffffffffffff\n      and\n        /* \"contracts/SponsorFunding.sol\":3537:3567  IERC20(tokenAddress).balanceOf */\n      0xffffffffffffffffffffffffffffffffffffffff\n      and\n      0x70a08231\n        /* \"contracts/SponsorFunding.sol\":3576:3580  this */\n      address\n        /* \"contracts/SponsorFunding.sol\":3537:3582  IERC20(tokenAddress).balanceOf(address(this)) */\n      mload(0x40)\n      dup3\n      0xffffffff\n      and\n      0xe0\n      shl\n      dup2\n      mstore\n      0x04\n      add\n      tag_74\n      swap2\n      swap1\n      tag_40\n      jump\t// in\n    tag_74:\n      0x20\n      mload(0x40)\n      dup1\n      dup4\n      sub\n      dup2\n      dup7\n      gas\n      staticcall\n      iszero\n      dup1\n      iszero\n      tag_76\n      jumpi\n      returndatacopy(0x00, 0x00, returndatasize)\n      revert(0x00, returndatasize)\n    tag_76:\n      pop\n      pop\n      pop\n      pop\n      mload(0x40)\n      returndatasize\n      not(0x1f)\n      0x1f\n      dup3\n      add\n      and\n      dup3\n      add\n      dup1\n      0x40\n      mstore\n      pop\n      dup2\n      add\n      swap1\n      tag_77\n      swap2\n      swap1\n      tag_78\n      jump\t// in\n    tag_77:\n        /* \"contracts/SponsorFunding.sol\":3530:3582  return IERC20(tokenAddress).balanceOf(address(this)) */\n      swap1\n      pop\n        /* \"contracts/SponsorFunding.sol\":3467:3590  function getBalance() public view returns (uint256) {... */\n      swap1\n      jump\t// out\n        /* \"contracts/SponsorFunding.sol\":1639:1974  function authorizeCrowdFunding(address _crowdFunding) public onlyOwner {... */\n    tag_30:\n        /* \"contracts/SponsorFunding.sol\":1079:1084  owner */\n      0x00\n      0x00\n      swap1\n      sload\n      swap1\n      0x0100\n      exp\n      swap1\n      div\n      0xffffffffffffffffffffffffffffffffffffffff\n      and\n        /* \"contracts/SponsorFunding.sol\":1065:1084  msg.sender == owner */\n      0xffffffffffffffffffffffffffffffffffffffff\n      and\n        /* \"contracts/SponsorFunding.sol\":1065:1075  msg.sender */\n      caller\n        /* \"contracts/SponsorFunding.sol\":1065:1084  msg.sender == owner */\n      0xffffffffffffffffffffffffffffffffffffffff\n      and\n      eq\n        /* \"contracts/SponsorFunding.sol\":1057:1099  require(msg.sender == owner, \"Only owner\") */\n      tag_80\n      jumpi\n      mload(0x40)\n      0x08c379a000000000000000000000000000000000000000000000000000000000\n      dup2\n      mstore\n      0x04\n      add\n      tag_81\n      swap1\n      tag_68\n      jump\t// in\n    tag_81:\n      mload(0x40)\n      dup1\n      swap2\n      sub\n      swap1\n      revert\n    tag_80:\n        /* \"contracts/SponsorFunding.sol\":1754:1755  0 */\n      0x00\n        /* \"contracts/SponsorFunding.sol\":1729:1756  _crowdFunding != address(0) */\n      0xffffffffffffffffffffffffffffffffffffffff\n      and\n        /* \"contracts/SponsorFunding.sol\":1729:1742  _crowdFunding */\n      dup2\n        /* \"contracts/SponsorFunding.sol\":1729:1756  _crowdFunding != address(0) */\n      0xffffffffffffffffffffffffffffffffffffffff\n      and\n      sub\n        /* \"contracts/SponsorFunding.sol\":1721:1776  require(_crowdFunding != address(0), \"Invalid address\") */\n      tag_83\n      jumpi\n      mload(0x40)\n      0x08c379a000000000000000000000000000000000000000000000000000000000\n      dup2\n      mstore\n      0x04\n      add\n      tag_84\n      swap1\n      tag_85\n      jump\t// in\n    tag_84:\n      mload(0x40)\n      dup1\n      swap2\n      sub\n      swap1\n      revert\n    tag_83:\n        /* \"contracts/SponsorFunding.sol\":1796:1819  authorizedCrowdFundings */\n      0x03\n        /* \"contracts/SponsorFunding.sol\":1796:1834  authorizedCrowdFundings[_crowdFunding] */\n      0x00\n        /* \"contracts/SponsorFunding.sol\":1820:1833  _crowdFunding */\n      dup3\n        /* \"contracts/SponsorFunding.sol\":1796:1834  authorizedCrowdFundings[_crowdFunding] */\n      0xffffffffffffffffffffffffffffffffffffffff\n      and\n      0xffffffffffffffffffffffffffffffffffffffff\n      and\n      dup2\n      mstore\n      0x20\n      add\n      swap1\n      dup2\n      mstore\n      0x20\n      add\n      0x00\n      keccak256\n      0x00\n      swap1\n      sload\n      swap1\n      0x0100\n      exp\n      swap1\n      div\n      0xff\n      and\n        /* \"contracts/SponsorFunding.sol\":1795:1834  !authorizedCrowdFundings[_crowdFunding] */\n      iszero\n        /* \"contracts/SponsorFunding.sol\":1787:1857  require(!authorizedCrowdFundings[_crowdFunding], \"Already authorized\") */\n      tag_86\n      jumpi\n      mload(0x40)\n      0x08c379a000000000000000000000000000000000000000000000000000000000\n      dup2\n      mstore\n      0x04\n      add\n      tag_87\n      swap1\n      tag_88\n      jump\t// in\n    tag_87:\n      mload(0x40)\n      dup1\n      swap2\n      sub\n      swap1\n      revert\n    tag_86:\n        /* \"contracts/SponsorFunding.sol\":1909:1913  true */\n      0x01\n        /* \"contracts/SponsorFunding.sol\":1868:1891  authorizedCrowdFundings */\n      0x03\n        /* \"contracts/SponsorFunding.sol\":1868:1906  authorizedCrowdFundings[_crowdFunding] */\n      0x00\n        /* \"contracts/SponsorFunding.sol\":1892:1905  _crowdFunding */\n      dup4\n        /* \"contracts/SponsorFunding.sol\":1868:1906  authorizedCrowdFundings[_crowdFunding] */\n      0xffffffffffffffffffffffffffffffffffffffff\n      and\n      0xffffffffffffffffffffffffffffffffffffffff\n      and\n      dup2\n      mstore\n      0x20\n      add\n      swap1\n      dup2\n      mstore\n      0x20\n      add\n      0x00\n      keccak256\n      0x00\n        /* \"contracts/SponsorFunding.sol\":1868:1913  authorizedCrowdFundings[_crowdFunding] = true */\n      0x0100\n      exp\n      dup2\n      sload\n      dup2\n      0xff\n      mul\n      not\n      and\n      swap1\n      dup4\n      iszero\n      iszero\n      mul\n      or\n      swap1\n      sstore\n      pop\n        /* \"contracts/SponsorFunding.sol\":1952:1965  _crowdFunding */\n      dup1\n        /* \"contracts/SponsorFunding.sol\":1929:1966  CrowdFundingAuthorized(_crowdFunding) */\n      0xffffffffffffffffffffffffffffffffffffffff\n      and\n      0x52c01045ff4e409c91a6e61a686c9be8d574c9c6acb9dba3b21b364e081a3752\n      mload(0x40)\n      mload(0x40)\n      dup1\n      swap2\n      sub\n      swap1\n      log2\n        /* \"contracts/SponsorFunding.sol\":1639:1974  function authorizeCrowdFunding(address _crowdFunding) public onlyOwner {... */\n      pop\n      jump\t// out\n        /* \"contracts/SponsorFunding.sol\":3602:4000  function withdrawTokens(uint256 _amount) public onlyOwner {... */\n    tag_35:\n        /* \"contracts/SponsorFunding.sol\":1079:1084  owner */\n      0x00\n      0x00\n      swap1\n      sload\n      swap1\n      0x0100\n      exp\n      swap1\n      div\n      0xffffffffffffffffffffffffffffffffffffffff\n      and\n        /* \"contracts/SponsorFunding.sol\":1065:1084  msg.sender == owner */\n      0xffffffffffffffffffffffffffffffffffffffff\n      and\n        /* \"contracts/SponsorFunding.sol\":1065:1075  msg.sender */\n      caller\n        /* \"contracts/SponsorFunding.sol\":1065:1084  msg.sender == owner */\n      0xffffffffffffffffffffffffffffffffffffffff\n      and\n      eq\n        /* \"contracts/SponsorFunding.sol\":1057:1099  require(msg.sender == owner, \"Only owner\") */\n      tag_90\n      jumpi\n      mload(0x40)\n      0x08c379a000000000000000000000000000000000000000000000000000000000\n      dup2\n      mstore\n      0x04\n      add\n      tag_91\n      swap1\n      tag_68\n      jump\t// in\n    tag_91:\n      mload(0x40)\n      dup1\n      swap2\n      sub\n      swap1\n      revert\n    tag_90:\n        /* \"contracts/SponsorFunding.sol\":3689:3690  0 */\n      0x00\n        /* \"contracts/SponsorFunding.sol\":3679:3686  _amount */\n      dup2\n        /* \"contracts/SponsorFunding.sol\":3679:3690  _amount > 0 */\n      gt\n        /* \"contracts/SponsorFunding.sol\":3671:3709  require(_amount > 0, \"Invalid amount\") */\n      tag_93\n      jumpi\n      mload(0x40)\n      0x08c379a000000000000000000000000000000000000000000000000000000000\n      dup2\n      mstore\n      0x04\n      add\n      tag_94\n      swap1\n      tag_95\n      jump\t// in\n    tag_94:\n      mload(0x40)\n      dup1\n      swap2\n      sub\n      swap1\n      revert\n    tag_93:\n        /* \"contracts/SponsorFunding.sol\":3720:3732  IERC20 token */\n      0x00\n        /* \"contracts/SponsorFunding.sol\":3742:3754  tokenAddress */\n      0x01\n      0x00\n      swap1\n      sload\n      swap1\n      0x0100\n      exp\n      swap1\n      div\n      0xffffffffffffffffffffffffffffffffffffffff\n      and\n        /* \"contracts/SponsorFunding.sol\":3720:3755  IERC20 token = IERC20(tokenAddress) */\n      swap1\n      pop\n        /* \"contracts/SponsorFunding.sol\":3766:3781  uint256 balance */\n      0x00\n        /* \"contracts/SponsorFunding.sol\":3784:3789  token */\n      dup2\n        /* \"contracts/SponsorFunding.sol\":3784:3799  token.balanceOf */\n      0xffffffffffffffffffffffffffffffffffffffff\n      and\n      0x70a08231\n        /* \"contracts/SponsorFunding.sol\":3808:3812  this */\n      address\n        /* \"contracts/SponsorFunding.sol\":3784:3814  token.balanceOf(address(this)) */\n      mload(0x40)\n      dup3\n      0xffffffff\n      and\n      0xe0\n      shl\n      dup2\n      mstore\n      0x04\n      add\n      tag_96\n      swap2\n      swap1\n      tag_40\n      jump\t// in\n    tag_96:\n      0x20\n      mload(0x40)\n      dup1\n      dup4\n      sub\n      dup2\n      dup7\n      gas\n      staticcall\n      iszero\n      dup1\n      iszero\n      tag_98\n      jumpi\n      returndatacopy(0x00, 0x00, returndatasize)\n      revert(0x00, returndatasize)\n    tag_98:\n      pop\n      pop\n      pop\n      pop\n      mload(0x40)\n      returndatasize\n      not(0x1f)\n      0x1f\n      dup3\n      add\n      and\n      dup3\n      add\n      dup1\n      0x40\n      mstore\n      pop\n      dup2\n      add\n      swap1\n      tag_99\n      swap2\n      swap1\n      tag_78\n      jump\t// in\n    tag_99:\n        /* \"contracts/SponsorFunding.sol\":3766:3814  uint256 balance = token.balanceOf(address(this)) */\n      swap1\n      pop\n        /* \"contracts/SponsorFunding.sol\":3844:3851  _amount */\n      dup3\n        /* \"contracts/SponsorFunding.sol\":3833:3840  balance */\n      dup2\n        /* \"contracts/SponsorFunding.sol\":3833:3851  balance >= _amount */\n      lt\n      iszero\n        /* \"contracts/SponsorFunding.sol\":3825:3876  require(balance >= _amount, \"Insufficient balance\") */\n      tag_100\n      jumpi\n      mload(0x40)\n      0x08c379a000000000000000000000000000000000000000000000000000000000\n      dup2\n      mstore\n      0x04\n      add\n      tag_101\n      swap1\n      tag_102\n      jump\t// in\n    tag_101:\n      mload(0x40)\n      dup1\n      swap2\n      sub\n      swap1\n      revert\n    tag_100:\n        /* \"contracts/SponsorFunding.sol\":3895:3900  token */\n      dup2\n        /* \"contracts/SponsorFunding.sol\":3895:3909  token.transfer */\n      0xffffffffffffffffffffffffffffffffffffffff\n      and\n      0xa9059cbb\n        /* \"contracts/SponsorFunding.sol\":3910:3915  owner */\n      0x00\n      0x00\n      swap1\n      sload\n      swap1\n      0x0100\n      exp\n      swap1\n      div\n      0xffffffffffffffffffffffffffffffffffffffff\n      and\n        /* \"contracts/SponsorFunding.sol\":3917:3924  _amount */\n      dup6\n        /* \"contracts/SponsorFunding.sol\":3895:3925  token.transfer(owner, _amount) */\n      mload(0x40)\n      dup4\n      0xffffffff\n      and\n      0xe0\n      shl\n      dup2\n      mstore\n      0x04\n      add\n      tag_103\n      swap3\n      swap2\n      swap1\n      tag_104\n      jump\t// in\n    tag_103:\n      0x20\n      mload(0x40)\n      dup1\n      dup4\n      sub\n      dup2\n      0x00\n      dup8\n      gas\n      call\n      iszero\n      dup1\n      iszero\n      tag_106\n      jumpi\n      returndatacopy(0x00, 0x00, returndatasize)\n      revert(0x00, returndatasize)\n    tag_106:\n      pop\n      pop\n      pop\n      pop\n      mload(0x40)\n      returndatasize\n      not(0x1f)\n      0x1f\n      dup3\n      add\n      and\n      dup3\n      add\n      dup1\n      0x40\n      mstore\n      pop\n      dup2\n      add\n      swap1\n      tag_107\n      swap2\n      swap1\n      tag_108\n      jump\t// in\n    tag_107:\n        /* \"contracts/SponsorFunding.sol\":3887:3945  require(token.transfer(owner, _amount), \"Transfer failed\") */\n      tag_109\n      jumpi\n      mload(0x40)\n      0x08c379a000000000000000000000000000000000000000000000000000000000\n      dup2\n      mstore\n      0x04\n      add\n      tag_110\n      swap1\n      tag_111\n      jump\t// in\n    tag_110:\n      mload(0x40)\n      dup1\n      swap2\n      sub\n      swap1\n      revert\n    tag_109:\n        /* \"contracts/SponsorFunding.sol\":3977:3982  owner */\n      0x00\n      0x00\n      swap1\n      sload\n      swap1\n      0x0100\n      exp\n      swap1\n      div\n      0xffffffffffffffffffffffffffffffffffffffff\n      and\n        /* \"contracts/SponsorFunding.sol\":3961:3992  TokensWithdrawn(owner, _amount) */\n      0xffffffffffffffffffffffffffffffffffffffff\n      and\n      0x6352c5382c4a4578e712449ca65e83cdb392d045dfcf1cad9615189db2da244b\n        /* \"contracts/SponsorFunding.sol\":3984:3991  _amount */\n      dup5\n        /* \"contracts/SponsorFunding.sol\":3961:3992  TokensWithdrawn(owner, _amount) */\n      mload(0x40)\n      tag_112\n      swap2\n      swap1\n      tag_26\n      jump\t// in\n    tag_112:\n      mload(0x40)\n      dup1\n      swap2\n      sub\n      swap1\n      log2\n        /* \"contracts/SponsorFunding.sol\":3660:4000  {... */\n      pop\n      pop\n        /* \"contracts/SponsorFunding.sol\":3602:4000  function withdrawTokens(uint256 _amount) public onlyOwner {... */\n      pop\n      jump\t// out\n        /* \"contracts/SponsorFunding.sol\":365:385  address public owner */\n    tag_38:\n      0x00\n      0x00\n      swap1\n      sload\n      swap1\n      0x0100\n      exp\n      swap1\n      div\n      0xffffffffffffffffffffffffffffffffffffffff\n      and\n      dup2\n      jump\t// out\n        /* \"contracts/SponsorFunding.sol\":392:419  address public tokenAddress */\n    tag_43:\n      0x01\n      0x00\n      swap1\n      sload\n      swap1\n      0x0100\n      exp\n      swap1\n      div\n      0xffffffffffffffffffffffffffffffffffffffff\n      and\n      dup2\n      jump\t// out\n        /* \"contracts/SponsorFunding.sol\":2267:2625  function buyTokensForSponsorship() public payable onlyOwner returns (uint256) {... */\n    tag_46:\n        /* \"contracts/SponsorFunding.sol\":2336:2343  uint256 */\n      0x00\n        /* \"contracts/SponsorFunding.sol\":1079:1084  owner */\n      0x00\n      0x00\n      swap1\n      sload\n      swap1\n      0x0100\n      exp\n      swap1\n      div\n      0xffffffffffffffffffffffffffffffffffffffff\n      and\n        /* \"contracts/SponsorFunding.sol\":1065:1084  msg.sender == owner */\n      0xffffffffffffffffffffffffffffffffffffffff\n      and\n        /* \"contracts/SponsorFunding.sol\":1065:1075  msg.sender */\n      caller\n        /* \"contracts/SponsorFunding.sol\":1065:1084  msg.sender == owner */\n      0xffffffffffffffffffffffffffffffffffffffff\n      and\n      eq\n        /* \"contracts/SponsorFunding.sol\":1057:1099  require(msg.sender == owner, \"Only owner\") */\n      tag_114\n      jumpi\n      mload(0x40)\n      0x08c379a000000000000000000000000000000000000000000000000000000000\n      dup2\n      mstore\n      0x04\n      add\n      tag_115\n      swap1\n      tag_68\n      jump\t// in\n    tag_115:\n      mload(0x40)\n      dup1\n      swap2\n      sub\n      swap1\n      revert\n    tag_114:\n        /* \"contracts/SponsorFunding.sol\":2376:2377  0 */\n      0x00\n        /* \"contracts/SponsorFunding.sol\":2364:2373  msg.value */\n      callvalue\n        /* \"contracts/SponsorFunding.sol\":2364:2377  msg.value > 0 */\n      gt\n        /* \"contracts/SponsorFunding.sol\":2356:2390  require(msg.value > 0, \"Send ETH\") */\n      tag_117\n      jumpi\n      mload(0x40)\n      0x08c379a000000000000000000000000000000000000000000000000000000000\n      dup2\n      mstore\n      0x04\n      add\n      tag_118\n      swap1\n      tag_119\n      jump\t// in\n    tag_118:\n      mload(0x40)\n      dup1\n      swap2\n      sub\n      swap1\n      revert\n    tag_117:\n        /* \"contracts/SponsorFunding.sol\":2401:2433  ICrowdFundingToken tokenContract */\n      0x00\n        /* \"contracts/SponsorFunding.sol\":2455:2467  tokenAddress */\n      0x01\n      0x00\n      swap1\n      sload\n      swap1\n      0x0100\n      exp\n      swap1\n      div\n      0xffffffffffffffffffffffffffffffffffffffff\n      and\n        /* \"contracts/SponsorFunding.sol\":2401:2468  ICrowdFundingToken tokenContract = ICrowdFundingToken(tokenAddress) */\n      swap1\n      pop\n        /* \"contracts/SponsorFunding.sol\":2479:2498  uint256 tokenAmount */\n      0x00\n        /* \"contracts/SponsorFunding.sol\":2501:2514  tokenContract */\n      dup2\n        /* \"contracts/SponsorFunding.sol\":2501:2524  tokenContract.buyTokens */\n      0xffffffffffffffffffffffffffffffffffffffff\n      and\n      0xd0febe4c\n        /* \"contracts/SponsorFunding.sol\":2532:2541  msg.value */\n      callvalue\n        /* \"contracts/SponsorFunding.sol\":2501:2544  tokenContract.buyTokens{value: msg.value}() */\n      mload(0x40)\n      dup3\n      0xffffffff\n      and\n      0xe0\n      shl\n      dup2\n      mstore\n      0x04\n      add\n      0x20\n      mload(0x40)\n      dup1\n      dup4\n      sub\n      dup2\n      dup6\n      dup9\n      gas\n      call\n      iszero\n      dup1\n      iszero\n      tag_121\n      jumpi\n      returndatacopy(0x00, 0x00, returndatasize)\n      revert(0x00, returndatasize)\n    tag_121:\n      pop\n      pop\n      pop\n      pop\n      pop\n      mload(0x40)\n      returndatasize\n      not(0x1f)\n      0x1f\n      dup3\n      add\n      and\n      dup3\n      add\n      dup1\n      0x40\n      mstore\n      pop\n      dup2\n      add\n      swap1\n      tag_122\n      swap2\n      swap1\n      tag_78\n      jump\t// in\n    tag_122:\n        /* \"contracts/SponsorFunding.sol\":2479:2544  uint256 tokenAmount = tokenContract.buyTokens{value: msg.value}() */\n      swap1\n      pop\n        /* \"contracts/SponsorFunding.sol\":2560:2588  TokensPurchased(tokenAmount) */\n      0xaaaa6e3bc80153b51330f05cf900a13fe42bc5d0d74ac0dffc07ab9b8ebb3cf6\n        /* \"contracts/SponsorFunding.sol\":2576:2587  tokenAmount */\n      dup2\n        /* \"contracts/SponsorFunding.sol\":2560:2588  TokensPurchased(tokenAmount) */\n      mload(0x40)\n      tag_123\n      swap2\n      swap1\n      tag_26\n      jump\t// in\n    tag_123:\n      mload(0x40)\n      dup1\n      swap2\n      sub\n      swap1\n      log1\n        /* \"contracts/SponsorFunding.sol\":2606:2617  tokenAmount */\n      dup1\n        /* \"contracts/SponsorFunding.sol\":2599:2617  return tokenAmount */\n      swap3\n      pop\n      pop\n      pop\n        /* \"contracts/SponsorFunding.sol\":2267:2625  function buyTokensForSponsorship() public payable onlyOwner returns (uint256) {... */\n      swap1\n      jump\t// out\n        /* \"contracts/SponsorFunding.sol\":426:462  uint256 public sponsorshipPercentage */\n    tag_50:\n      sload(0x02)\n      dup2\n      jump\t// out\n        /* \"contracts/SponsorFunding.sol\":2637:3455  function provideSponsor(address crowdFundingAddress) external onlyAuthorized {... */\n    tag_55:\n        /* \"contracts/SponsorFunding.sol\":1176:1199  authorizedCrowdFundings */\n      0x03\n        /* \"contracts/SponsorFunding.sol\":1176:1211  authorizedCrowdFundings[msg.sender] */\n      0x00\n        /* \"contracts/SponsorFunding.sol\":1200:1210  msg.sender */\n      caller\n        /* \"contracts/SponsorFunding.sol\":1176:1211  authorizedCrowdFundings[msg.sender] */\n      0xffffffffffffffffffffffffffffffffffffffff\n      and\n      0xffffffffffffffffffffffffffffffffffffffff\n      and\n      dup2\n      mstore\n      0x20\n      add\n      swap1\n      dup2\n      mstore\n      0x20\n      add\n      0x00\n      keccak256\n      0x00\n      swap1\n      sload\n      swap1\n      0x0100\n      exp\n      swap1\n      div\n      0xff\n      and\n        /* \"contracts/SponsorFunding.sol\":1168:1230  require(authorizedCrowdFundings[msg.sender], \"Not authorized\") */\n      tag_125\n      jumpi\n      mload(0x40)\n      0x08c379a000000000000000000000000000000000000000000000000000000000\n      dup2\n      mstore\n      0x04\n      add\n      tag_126\n      swap1\n      tag_72\n      jump\t// in\n    tag_126:\n      mload(0x40)\n      dup1\n      swap2\n      sub\n      swap1\n      revert\n    tag_125:\n        /* \"contracts/SponsorFunding.sol\":2756:2766  msg.sender */\n      caller\n        /* \"contracts/SponsorFunding.sol\":2733:2766  crowdFundingAddress == msg.sender */\n      0xffffffffffffffffffffffffffffffffffffffff\n      and\n        /* \"contracts/SponsorFunding.sol\":2733:2752  crowdFundingAddress */\n      dup2\n        /* \"contracts/SponsorFunding.sol\":2733:2766  crowdFundingAddress == msg.sender */\n      0xffffffffffffffffffffffffffffffffffffffff\n      and\n      eq\n        /* \"contracts/SponsorFunding.sol\":2725:2785  require(crowdFundingAddress == msg.sender, \"Invalid caller\") */\n      tag_128\n      jumpi\n      mload(0x40)\n      0x08c379a000000000000000000000000000000000000000000000000000000000\n      dup2\n      mstore\n      0x04\n      add\n      tag_129\n      swap1\n      tag_130\n      jump\t// in\n    tag_129:\n      mload(0x40)\n      dup1\n      swap2\n      sub\n      swap1\n      revert\n    tag_128:\n        /* \"contracts/SponsorFunding.sol\":2806:2818  IERC20 token */\n      0x00\n        /* \"contracts/SponsorFunding.sol\":2828:2840  tokenAddress */\n      0x01\n      0x00\n      swap1\n      sload\n      swap1\n      0x0100\n      exp\n      swap1\n      div\n      0xffffffffffffffffffffffffffffffffffffffff\n      and\n        /* \"contracts/SponsorFunding.sol\":2806:2841  IERC20 token = IERC20(tokenAddress) */\n      swap1\n      pop\n        /* \"contracts/SponsorFunding.sol\":2852:2879  uint256 crowdFundingBalance */\n      0x00\n        /* \"contracts/SponsorFunding.sol\":2882:2887  token */\n      dup2\n        /* \"contracts/SponsorFunding.sol\":2882:2897  token.balanceOf */\n      0xffffffffffffffffffffffffffffffffffffffff\n      and\n      0x70a08231\n        /* \"contracts/SponsorFunding.sol\":2898:2917  crowdFundingAddress */\n      dup5\n        /* \"contracts/SponsorFunding.sol\":2882:2918  token.balanceOf(crowdFundingAddress) */\n      mload(0x40)\n      dup3\n      0xffffffff\n      and\n      0xe0\n      shl\n      dup2\n      mstore\n      0x04\n      add\n      tag_131\n      swap2\n      swap1\n      tag_40\n      jump\t// in\n    tag_131:\n      0x20\n      mload(0x40)\n      dup1\n      dup4\n      sub\n      dup2\n      dup7\n      gas\n      staticcall\n      iszero\n      dup1\n      iszero\n      tag_133\n      jumpi\n      returndatacopy(0x00, 0x00, returndatasize)\n      revert(0x00, returndatasize)\n    tag_133:\n      pop\n      pop\n      pop\n      pop\n      mload(0x40)\n      returndatasize\n      not(0x1f)\n      0x1f\n      dup3\n      add\n      and\n      dup3\n      add\n      dup1\n      0x40\n      mstore\n      pop\n      dup2\n      add\n      swap1\n      tag_134\n      swap2\n      swap1\n      tag_78\n      jump\t// in\n    tag_134:\n        /* \"contracts/SponsorFunding.sol\":2852:2918  uint256 crowdFundingBalance = token.balanceOf(crowdFundingAddress) */\n      swap1\n      pop\n        /* \"contracts/SponsorFunding.sol\":2929:2954  uint256 sponsorshipAmount */\n      0x00\n        /* \"contracts/SponsorFunding.sol\":3005:3008  100 */\n      0x64\n        /* \"contracts/SponsorFunding.sol\":2980:3001  sponsorshipPercentage */\n      sload(0x02)\n        /* \"contracts/SponsorFunding.sol\":2958:2977  crowdFundingBalance */\n      dup4\n        /* \"contracts/SponsorFunding.sol\":2958:3001  crowdFundingBalance * sponsorshipPercentage */\n      tag_135\n      swap2\n      swap1\n      tag_136\n      jump\t// in\n    tag_135:\n        /* \"contracts/SponsorFunding.sol\":2957:3008  (crowdFundingBalance * sponsorshipPercentage) / 100 */\n      tag_137\n      swap2\n      swap1\n      tag_138\n      jump\t// in\n    tag_137:\n        /* \"contracts/SponsorFunding.sol\":2929:3008  uint256 sponsorshipAmount = (crowdFundingBalance * sponsorshipPercentage) / 100 */\n      swap1\n      pop\n        /* \"contracts/SponsorFunding.sol\":3019:3037  uint256 ourBalance */\n      0x00\n        /* \"contracts/SponsorFunding.sol\":3040:3045  token */\n      dup4\n        /* \"contracts/SponsorFunding.sol\":3040:3055  token.balanceOf */\n      0xffffffffffffffffffffffffffffffffffffffff\n      and\n      0x70a08231\n        /* \"contracts/SponsorFunding.sol\":3064:3068  this */\n      address\n        /* \"contracts/SponsorFunding.sol\":3040:3070  token.balanceOf(address(this)) */\n      mload(0x40)\n      dup3\n      0xffffffff\n      and\n      0xe0\n      shl\n      dup2\n      mstore\n      0x04\n      add\n      tag_139\n      swap2\n      swap1\n      tag_40\n      jump\t// in\n    tag_139:\n      0x20\n      mload(0x40)\n      dup1\n      dup4\n      sub\n      dup2\n      dup7\n      gas\n      staticcall\n      iszero\n      dup1\n      iszero\n      tag_141\n      jumpi\n      returndatacopy(0x00, 0x00, returndatasize)\n      revert(0x00, returndatasize)\n    tag_141:\n      pop\n      pop\n      pop\n      pop\n      mload(0x40)\n      returndatasize\n      not(0x1f)\n      0x1f\n      dup3\n      add\n      and\n      dup3\n      add\n      dup1\n      0x40\n      mstore\n      pop\n      dup2\n      add\n      swap1\n      tag_142\n      swap2\n      swap1\n      tag_78\n      jump\t// in\n    tag_142:\n        /* \"contracts/SponsorFunding.sol\":3019:3070  uint256 ourBalance = token.balanceOf(address(this)) */\n      swap1\n      pop\n        /* \"contracts/SponsorFunding.sol\":3109:3126  sponsorshipAmount */\n      dup2\n        /* \"contracts/SponsorFunding.sol\":3095:3105  ourBalance */\n      dup2\n        /* \"contracts/SponsorFunding.sol\":3095:3126  ourBalance >= sponsorshipAmount */\n      lt\n      iszero\n        /* \"contracts/SponsorFunding.sol\":3095:3151  ourBalance >= sponsorshipAmount && sponsorshipAmount > 0 */\n      dup1\n      iszero\n      tag_143\n      jumpi\n      pop\n        /* \"contracts/SponsorFunding.sol\":3150:3151  0 */\n      0x00\n        /* \"contracts/SponsorFunding.sol\":3130:3147  sponsorshipAmount */\n      dup3\n        /* \"contracts/SponsorFunding.sol\":3130:3151  sponsorshipAmount > 0 */\n      gt\n        /* \"contracts/SponsorFunding.sol\":3095:3151  ourBalance >= sponsorshipAmount && sponsorshipAmount > 0 */\n    tag_143:\n        /* \"contracts/SponsorFunding.sol\":3091:3448  if (ourBalance >= sponsorshipAmount && sponsorshipAmount > 0) {... */\n      iszero\n      tag_144\n      jumpi\n        /* \"contracts/SponsorFunding.sol\":3176:3181  token */\n      dup4\n        /* \"contracts/SponsorFunding.sol\":3176:3190  token.transfer */\n      0xffffffffffffffffffffffffffffffffffffffff\n      and\n      0xa9059cbb\n        /* \"contracts/SponsorFunding.sol\":3191:3210  crowdFundingAddress */\n      dup7\n        /* \"contracts/SponsorFunding.sol\":3212:3229  sponsorshipAmount */\n      dup5\n        /* \"contracts/SponsorFunding.sol\":3176:3230  token.transfer(crowdFundingAddress, sponsorshipAmount) */\n      mload(0x40)\n      dup4\n      0xffffffff\n      and\n      0xe0\n      shl\n      dup2\n      mstore\n      0x04\n      add\n      tag_145\n      swap3\n      swap2\n      swap1\n      tag_104\n      jump\t// in\n    tag_145:\n      0x20\n      mload(0x40)\n      dup1\n      dup4\n      sub\n      dup2\n      0x00\n      dup8\n      gas\n      call\n      iszero\n      dup1\n      iszero\n      tag_147\n      jumpi\n      returndatacopy(0x00, 0x00, returndatasize)\n      revert(0x00, returndatasize)\n    tag_147:\n      pop\n      pop\n      pop\n      pop\n      mload(0x40)\n      returndatasize\n      not(0x1f)\n      0x1f\n      dup3\n      add\n      and\n      dup3\n      add\n      dup1\n      0x40\n      mstore\n      pop\n      dup2\n      add\n      swap1\n      tag_148\n      swap2\n      swap1\n      tag_108\n      jump\t// in\n    tag_148:\n        /* \"contracts/SponsorFunding.sol\":3168:3250  require(token.transfer(crowdFundingAddress, sponsorshipAmount), \"Transfer failed\") */\n      tag_149\n      jumpi\n      mload(0x40)\n      0x08c379a000000000000000000000000000000000000000000000000000000000\n      dup2\n      mstore\n      0x04\n      add\n      tag_150\n      swap1\n      tag_111\n      jump\t// in\n    tag_150:\n      mload(0x40)\n      dup1\n      swap2\n      sub\n      swap1\n      revert\n    tag_149:\n        /* \"contracts/SponsorFunding.sol\":3290:3309  crowdFundingAddress */\n      dup5\n        /* \"contracts/SponsorFunding.sol\":3270:3329  SponsorshipProvided(crowdFundingAddress, sponsorshipAmount) */\n      0xffffffffffffffffffffffffffffffffffffffff\n      and\n      0x7661ea217478035e90bae67523e9e3cfc45cb3ffb77fe110fcfff561a7bdea69\n        /* \"contracts/SponsorFunding.sol\":3311:3328  sponsorshipAmount */\n      dup4\n        /* \"contracts/SponsorFunding.sol\":3270:3329  SponsorshipProvided(crowdFundingAddress, sponsorshipAmount) */\n      mload(0x40)\n      tag_151\n      swap2\n      swap1\n      tag_26\n      jump\t// in\n    tag_151:\n      mload(0x40)\n      dup1\n      swap2\n      sub\n      swap1\n      log2\n        /* \"contracts/SponsorFunding.sol\":3091:3448  if (ourBalance >= sponsorshipAmount && sponsorshipAmount > 0) {... */\n      jump(tag_152)\n    tag_144:\n        /* \"contracts/SponsorFunding.sol\":3385:3404  crowdFundingAddress */\n      dup5\n        /* \"contracts/SponsorFunding.sol\":3367:3436  SponsorshipFailed(crowdFundingAddress, sponsorshipAmount, ourBalance) */\n      0xffffffffffffffffffffffffffffffffffffffff\n      and\n      0x1cda4d9606bff94fbe49ed061650c09fe416854c544c149c86812ca174ecac89\n        /* \"contracts/SponsorFunding.sol\":3406:3423  sponsorshipAmount */\n      dup4\n        /* \"contracts/SponsorFunding.sol\":3425:3435  ourBalance */\n      dup4\n        /* \"contracts/SponsorFunding.sol\":3367:3436  SponsorshipFailed(crowdFundingAddress, sponsorshipAmount, ourBalance) */\n      mload(0x40)\n      tag_153\n      swap3\n      swap2\n      swap1\n      tag_154\n      jump\t// in\n    tag_153:\n      mload(0x40)\n      dup1\n      swap2\n      sub\n      swap1\n      log2\n        /* \"contracts/SponsorFunding.sol\":3091:3448  if (ourBalance >= sponsorshipAmount && sponsorshipAmount > 0) {... */\n    tag_152:\n        /* \"contracts/SponsorFunding.sol\":2714:3455  {... */\n      pop\n      pop\n      pop\n      pop\n        /* \"contracts/SponsorFunding.sol\":2637:3455  function provideSponsor(address crowdFundingAddress) external onlyAuthorized {... */\n      pop\n      jump\t// out\n        /* \"contracts/SponsorFunding.sol\":4012:4326  function withdrawETH() public onlyOwner {... */\n    tag_58:\n        /* \"contracts/SponsorFunding.sol\":1079:1084  owner */\n      0x00\n      0x00\n      swap1\n      sload\n      swap1\n      0x0100\n      exp\n      swap1\n      div\n      0xffffffffffffffffffffffffffffffffffffffff\n      and\n        /* \"contracts/SponsorFunding.sol\":1065:1084  msg.sender == owner */\n      0xffffffffffffffffffffffffffffffffffffffff\n      and\n        /* \"contracts/SponsorFunding.sol\":1065:1075  msg.sender */\n      caller\n        /* \"contracts/SponsorFunding.sol\":1065:1084  msg.sender == owner */\n      0xffffffffffffffffffffffffffffffffffffffff\n      and\n      eq\n        /* \"contracts/SponsorFunding.sol\":1057:1099  require(msg.sender == owner, \"Only owner\") */\n      tag_156\n      jumpi\n      mload(0x40)\n      0x08c379a000000000000000000000000000000000000000000000000000000000\n      dup2\n      mstore\n      0x04\n      add\n      tag_157\n      swap1\n      tag_68\n      jump\t// in\n    tag_157:\n      mload(0x40)\n      dup1\n      swap2\n      sub\n      swap1\n      revert\n    tag_156:\n        /* \"contracts/SponsorFunding.sol\":4063:4078  uint256 balance */\n      0x00\n        /* \"contracts/SponsorFunding.sol\":4081:4102  address(this).balance */\n      selfbalance\n        /* \"contracts/SponsorFunding.sol\":4063:4102  uint256 balance = address(this).balance */\n      swap1\n      pop\n        /* \"contracts/SponsorFunding.sol\":4131:4132  0 */\n      0x00\n        /* \"contracts/SponsorFunding.sol\":4121:4128  balance */\n      dup2\n        /* \"contracts/SponsorFunding.sol\":4121:4132  balance > 0 */\n      gt\n        /* \"contracts/SponsorFunding.sol\":4113:4155  require(balance > 0, \"No ETH to withdraw\") */\n      tag_159\n      jumpi\n      mload(0x40)\n      0x08c379a000000000000000000000000000000000000000000000000000000000\n      dup2\n      mstore\n      0x04\n      add\n      tag_160\n      swap1\n      tag_161\n      jump\t// in\n    tag_160:\n      mload(0x40)\n      dup1\n      swap2\n      sub\n      swap1\n      revert\n    tag_159:\n        /* \"contracts/SponsorFunding.sol\":4167:4179  bool success */\n      0x00\n        /* \"contracts/SponsorFunding.sol\":4193:4198  owner */\n      0x00\n      0x00\n      swap1\n      sload\n      swap1\n      0x0100\n      exp\n      swap1\n      div\n      0xffffffffffffffffffffffffffffffffffffffff\n      and\n        /* \"contracts/SponsorFunding.sol\":4185:4204  payable(owner).call */\n      0xffffffffffffffffffffffffffffffffffffffff\n      and\n        /* \"contracts/SponsorFunding.sol\":4212:4219  balance */\n      dup3\n        /* \"contracts/SponsorFunding.sol\":4185:4224  payable(owner).call{value: balance}(\"\") */\n      mload(0x40)\n      tag_162\n      swap1\n      tag_163\n      jump\t// in\n    tag_162:\n      0x00\n      mload(0x40)\n      dup1\n      dup4\n      sub\n      dup2\n      dup6\n      dup8\n      gas\n      call\n      swap3\n      pop\n      pop\n      pop\n      returndatasize\n      dup1\n      0x00\n      dup2\n      eq\n      tag_166\n      jumpi\n      mload(0x40)\n      swap2\n      pop\n      and(add(returndatasize, 0x3f), not(0x1f))\n      dup3\n      add\n      0x40\n      mstore\n      returndatasize\n      dup3\n      mstore\n      returndatasize\n      0x00\n      0x20\n      dup5\n      add\n      returndatacopy\n      jump(tag_165)\n    tag_166:\n      0x60\n      swap2\n      pop\n    tag_165:\n      pop\n        /* \"contracts/SponsorFunding.sol\":4166:4224  (bool success, ) = payable(owner).call{value: balance}(\"\") */\n      pop\n      swap1\n      pop\n        /* \"contracts/SponsorFunding.sol\":4243:4250  success */\n      dup1\n        /* \"contracts/SponsorFunding.sol\":4235:4274  require(success, \"ETH transfer failed\") */\n      tag_167\n      jumpi\n      mload(0x40)\n      0x08c379a000000000000000000000000000000000000000000000000000000000\n      dup2\n      mstore\n      0x04\n      add\n      tag_168\n      swap1\n      tag_169\n      jump\t// in\n    tag_168:\n      mload(0x40)\n      dup1\n      swap2\n      sub\n      swap1\n      revert\n    tag_167:\n        /* \"contracts/SponsorFunding.sol\":4303:4308  owner */\n      0x00\n      0x00\n      swap1\n      sload\n      swap1\n      0x0100\n      exp\n      swap1\n      div\n      0xffffffffffffffffffffffffffffffffffffffff\n      and\n        /* \"contracts/SponsorFunding.sol\":4290:4318  ETHWithdrawn(owner, balance) */\n      0xffffffffffffffffffffffffffffffffffffffff\n      and\n      0x94b2de810873337ed265c5f8cf98c9cffefa06b8607f9a2f1fbaebdfbcfbef1c\n        /* \"contracts/SponsorFunding.sol\":4310:4317  balance */\n      dup4\n        /* \"contracts/SponsorFunding.sol\":4290:4318  ETHWithdrawn(owner, balance) */\n      mload(0x40)\n      tag_170\n      swap2\n      swap1\n      tag_26\n      jump\t// in\n    tag_170:\n      mload(0x40)\n      dup1\n      swap2\n      sub\n      swap1\n      log2\n        /* \"contracts/SponsorFunding.sol\":4052:4326  {... */\n      pop\n      pop\n        /* \"contracts/SponsorFunding.sol\":4012:4326  function withdrawETH() public onlyOwner {... */\n      jump\t// out\n        /* \"contracts/SponsorFunding.sol\":475:530  mapping(address => bool) public authorizedCrowdFundings */\n    tag_62:\n      mstore(0x20, 0x03)\n      dup1\n      0x00\n      mstore\n      keccak256(0x00, 0x40)\n      0x00\n      swap2\n      pop\n      sload\n      swap1\n      0x0100\n      exp\n      swap1\n      div\n      0xff\n      and\n      dup2\n      jump\t// out\n        /* \"#utility.yul\":88:205   */\n    tag_172:\n        /* \"#utility.yul\":197:198   */\n      0x00\n        /* \"#utility.yul\":194:195   */\n      0x00\n        /* \"#utility.yul\":187:199   */\n      revert\n        /* \"#utility.yul\":334:460   */\n    tag_174:\n        /* \"#utility.yul\":371:378   */\n      0x00\n        /* \"#utility.yul\":411:453   */\n      0xffffffffffffffffffffffffffffffffffffffff\n        /* \"#utility.yul\":404:409   */\n      dup3\n        /* \"#utility.yul\":400:454   */\n      and\n        /* \"#utility.yul\":389:454   */\n      swap1\n      pop\n        /* \"#utility.yul\":334:460   */\n      swap2\n      swap1\n      pop\n      jump\t// out\n        /* \"#utility.yul\":466:562   */\n    tag_175:\n        /* \"#utility.yul\":503:510   */\n      0x00\n        /* \"#utility.yul\":532:556   */\n      tag_222\n        /* \"#utility.yul\":550:555   */\n      dup3\n        /* \"#utility.yul\":532:556   */\n      tag_174\n      jump\t// in\n    tag_222:\n        /* \"#utility.yul\":521:556   */\n      swap1\n      pop\n        /* \"#utility.yul\":466:562   */\n      swap2\n      swap1\n      pop\n      jump\t// out\n        /* \"#utility.yul\":568:690   */\n    tag_176:\n        /* \"#utility.yul\":641:665   */\n      tag_224\n        /* \"#utility.yul\":659:664   */\n      dup2\n        /* \"#utility.yul\":641:665   */\n      tag_175\n      jump\t// in\n    tag_224:\n        /* \"#utility.yul\":634:639   */\n      dup2\n        /* \"#utility.yul\":631:666   */\n      eq\n        /* \"#utility.yul\":621:684   */\n      tag_225\n      jumpi\n        /* \"#utility.yul\":680:681   */\n      0x00\n        /* \"#utility.yul\":677:678   */\n      0x00\n        /* \"#utility.yul\":670:682   */\n      revert\n        /* \"#utility.yul\":621:684   */\n    tag_225:\n        /* \"#utility.yul\":568:690   */\n      pop\n      jump\t// out\n        /* \"#utility.yul\":696:835   */\n    tag_177:\n        /* \"#utility.yul\":742:747   */\n      0x00\n        /* \"#utility.yul\":780:786   */\n      dup2\n        /* \"#utility.yul\":767:787   */\n      calldataload\n        /* \"#utility.yul\":758:787   */\n      swap1\n      pop\n        /* \"#utility.yul\":796:829   */\n      tag_227\n        /* \"#utility.yul\":823:828   */\n      dup2\n        /* \"#utility.yul\":796:829   */\n      tag_176\n      jump\t// in\n    tag_227:\n        /* \"#utility.yul\":696:835   */\n      swap3\n      swap2\n      pop\n      pop\n      jump\t// out\n        /* \"#utility.yul\":841:1170   */\n    tag_20:\n        /* \"#utility.yul\":900:906   */\n      0x00\n        /* \"#utility.yul\":949:951   */\n      0x20\n        /* \"#utility.yul\":937:946   */\n      dup3\n        /* \"#utility.yul\":928:935   */\n      dup5\n        /* \"#utility.yul\":924:947   */\n      sub\n        /* \"#utility.yul\":920:952   */\n      slt\n        /* \"#utility.yul\":917:1036   */\n      iszero\n      tag_229\n      jumpi\n        /* \"#utility.yul\":955:1034   */\n      tag_230\n      tag_172\n      jump\t// in\n    tag_230:\n        /* \"#utility.yul\":917:1036   */\n    tag_229:\n        /* \"#utility.yul\":1075:1076   */\n      0x00\n        /* \"#utility.yul\":1100:1153   */\n      tag_231\n        /* \"#utility.yul\":1145:1152   */\n      dup5\n        /* \"#utility.yul\":1136:1142   */\n      dup3\n        /* \"#utility.yul\":1125:1134   */\n      dup6\n        /* \"#utility.yul\":1121:1143   */\n      add\n        /* \"#utility.yul\":1100:1153   */\n      tag_177\n      jump\t// in\n    tag_231:\n        /* \"#utility.yul\":1090:1153   */\n      swap2\n      pop\n        /* \"#utility.yul\":1046:1163   */\n      pop\n        /* \"#utility.yul\":841:1170   */\n      swap3\n      swap2\n      pop\n      pop\n      jump\t// out\n        /* \"#utility.yul\":1176:1253   */\n    tag_178:\n        /* \"#utility.yul\":1213:1220   */\n      0x00\n        /* \"#utility.yul\":1242:1247   */\n      dup2\n        /* \"#utility.yul\":1231:1247   */\n      swap1\n      pop\n        /* \"#utility.yul\":1176:1253   */\n      swap2\n      swap1\n      pop\n      jump\t// out\n        /* \"#utility.yul\":1259:1377   */\n    tag_179:\n        /* \"#utility.yul\":1346:1370   */\n      tag_234\n        /* \"#utility.yul\":1364:1369   */\n      dup2\n        /* \"#utility.yul\":1346:1370   */\n      tag_178\n      jump\t// in\n    tag_234:\n        /* \"#utility.yul\":1341:1344   */\n      dup3\n        /* \"#utility.yul\":1334:1371   */\n      mstore\n        /* \"#utility.yul\":1259:1377   */\n      pop\n      pop\n      jump\t// out\n        /* \"#utility.yul\":1383:1605   */\n    tag_26:\n        /* \"#utility.yul\":1476:1480   */\n      0x00\n        /* \"#utility.yul\":1514:1516   */\n      0x20\n        /* \"#utility.yul\":1503:1512   */\n      dup3\n        /* \"#utility.yul\":1499:1517   */\n      add\n        /* \"#utility.yul\":1491:1517   */\n      swap1\n      pop\n        /* \"#utility.yul\":1527:1598   */\n      tag_236\n        /* \"#utility.yul\":1595:1596   */\n      0x00\n        /* \"#utility.yul\":1584:1593   */\n      dup4\n        /* \"#utility.yul\":1580:1597   */\n      add\n        /* \"#utility.yul\":1571:1577   */\n      dup5\n        /* \"#utility.yul\":1527:1598   */\n      tag_179\n      jump\t// in\n    tag_236:\n        /* \"#utility.yul\":1383:1605   */\n      swap3\n      swap2\n      pop\n      pop\n      jump\t// out\n        /* \"#utility.yul\":1611:1733   */\n    tag_180:\n        /* \"#utility.yul\":1684:1708   */\n      tag_238\n        /* \"#utility.yul\":1702:1707   */\n      dup2\n        /* \"#utility.yul\":1684:1708   */\n      tag_178\n      jump\t// in\n    tag_238:\n        /* \"#utility.yul\":1677:1682   */\n      dup2\n        /* \"#utility.yul\":1674:1709   */\n      eq\n        /* \"#utility.yul\":1664:1727   */\n      tag_239\n      jumpi\n        /* \"#utility.yul\":1723:1724   */\n      0x00\n        /* \"#utility.yul\":1720:1721   */\n      0x00\n        /* \"#utility.yul\":1713:1725   */\n      revert\n        /* \"#utility.yul\":1664:1727   */\n    tag_239:\n        /* \"#utility.yul\":1611:1733   */\n      pop\n      jump\t// out\n        /* \"#utility.yul\":1739:1878   */\n    tag_181:\n        /* \"#utility.yul\":1785:1790   */\n      0x00\n        /* \"#utility.yul\":1823:1829   */\n      dup2\n        /* \"#utility.yul\":1810:1830   */\n      calldataload\n        /* \"#utility.yul\":1801:1830   */\n      swap1\n      pop\n        /* \"#utility.yul\":1839:1872   */\n      tag_241\n        /* \"#utility.yul\":1866:1871   */\n      dup2\n        /* \"#utility.yul\":1839:1872   */\n      tag_180\n      jump\t// in\n    tag_241:\n        /* \"#utility.yul\":1739:1878   */\n      swap3\n      swap2\n      pop\n      pop\n      jump\t// out\n        /* \"#utility.yul\":1884:2213   */\n    tag_34:\n        /* \"#utility.yul\":1943:1949   */\n      0x00\n        /* \"#utility.yul\":1992:1994   */\n      0x20\n        /* \"#utility.yul\":1980:1989   */\n      dup3\n        /* \"#utility.yul\":1971:1978   */\n      dup5\n        /* \"#utility.yul\":1967:1990   */\n      sub\n        /* \"#utility.yul\":1963:1995   */\n      slt\n        /* \"#utility.yul\":1960:2079   */\n      iszero\n      tag_243\n      jumpi\n        /* \"#utility.yul\":1998:2077   */\n      tag_244\n      tag_172\n      jump\t// in\n    tag_244:\n        /* \"#utility.yul\":1960:2079   */\n    tag_243:\n        /* \"#utility.yul\":2118:2119   */\n      0x00\n        /* \"#utility.yul\":2143:2196   */\n      tag_245\n        /* \"#utility.yul\":2188:2195   */\n      dup5\n        /* \"#utility.yul\":2179:2185   */\n      dup3\n        /* \"#utility.yul\":2168:2177   */\n      dup6\n        /* \"#utility.yul\":2164:2186   */\n      add\n        /* \"#utility.yul\":2143:2196   */\n      tag_181\n      jump\t// in\n    tag_245:\n        /* \"#utility.yul\":2133:2196   */\n      swap2\n      pop\n        /* \"#utility.yul\":2089:2206   */\n      pop\n        /* \"#utility.yul\":1884:2213   */\n      swap3\n      swap2\n      pop\n      pop\n      jump\t// out\n        /* \"#utility.yul\":2219:2337   */\n    tag_182:\n        /* \"#utility.yul\":2306:2330   */\n      tag_247\n        /* \"#utility.yul\":2324:2329   */\n      dup2\n        /* \"#utility.yul\":2306:2330   */\n      tag_175\n      jump\t// in\n    tag_247:\n        /* \"#utility.yul\":2301:2304   */\n      dup3\n        /* \"#utility.yul\":2294:2331   */\n      mstore\n        /* \"#utility.yul\":2219:2337   */\n      pop\n      pop\n      jump\t// out\n        /* \"#utility.yul\":2343:2565   */\n    tag_40:\n        /* \"#utility.yul\":2436:2440   */\n      0x00\n        /* \"#utility.yul\":2474:2476   */\n      0x20\n        /* \"#utility.yul\":2463:2472   */\n      dup3\n        /* \"#utility.yul\":2459:2477   */\n      add\n        /* \"#utility.yul\":2451:2477   */\n      swap1\n      pop\n        /* \"#utility.yul\":2487:2558   */\n      tag_249\n        /* \"#utility.yul\":2555:2556   */\n      0x00\n        /* \"#utility.yul\":2544:2553   */\n      dup4\n        /* \"#utility.yul\":2540:2557   */\n      add\n        /* \"#utility.yul\":2531:2537   */\n      dup5\n        /* \"#utility.yul\":2487:2558   */\n      tag_182\n      jump\t// in\n    tag_249:\n        /* \"#utility.yul\":2343:2565   */\n      swap3\n      swap2\n      pop\n      pop\n      jump\t// out\n        /* \"#utility.yul\":2571:2661   */\n    tag_183:\n        /* \"#utility.yul\":2605:2612   */\n      0x00\n        /* \"#utility.yul\":2648:2653   */\n      dup2\n        /* \"#utility.yul\":2641:2654   */\n      iszero\n        /* \"#utility.yul\":2634:2655   */\n      iszero\n        /* \"#utility.yul\":2623:2655   */\n      swap1\n      pop\n        /* \"#utility.yul\":2571:2661   */\n      swap2\n      swap1\n      pop\n      jump\t// out\n        /* \"#utility.yul\":2667:2776   */\n    tag_184:\n        /* \"#utility.yul\":2748:2769   */\n      tag_252\n        /* \"#utility.yul\":2763:2768   */\n      dup2\n        /* \"#utility.yul\":2748:2769   */\n      tag_183\n      jump\t// in\n    tag_252:\n        /* \"#utility.yul\":2743:2746   */\n      dup3\n        /* \"#utility.yul\":2736:2770   */\n      mstore\n        /* \"#utility.yul\":2667:2776   */\n      pop\n      pop\n      jump\t// out\n        /* \"#utility.yul\":2782:2992   */\n    tag_64:\n        /* \"#utility.yul\":2869:2873   */\n      0x00\n        /* \"#utility.yul\":2907:2909   */\n      0x20\n        /* \"#utility.yul\":2896:2905   */\n      dup3\n        /* \"#utility.yul\":2892:2910   */\n      add\n        /* \"#utility.yul\":2884:2910   */\n      swap1\n      pop\n        /* \"#utility.yul\":2920:2985   */\n      tag_254\n        /* \"#utility.yul\":2982:2983   */\n      0x00\n        /* \"#utility.yul\":2971:2980   */\n      dup4\n        /* \"#utility.yul\":2967:2984   */\n      add\n        /* \"#utility.yul\":2958:2964   */\n      dup5\n        /* \"#utility.yul\":2920:2985   */\n      tag_184\n      jump\t// in\n    tag_254:\n        /* \"#utility.yul\":2782:2992   */\n      swap3\n      swap2\n      pop\n      pop\n      jump\t// out\n        /* \"#utility.yul\":2998:3167   */\n    tag_185:\n        /* \"#utility.yul\":3082:3093   */\n      0x00\n        /* \"#utility.yul\":3116:3122   */\n      dup3\n        /* \"#utility.yul\":3111:3114   */\n      dup3\n        /* \"#utility.yul\":3104:3123   */\n      mstore\n        /* \"#utility.yul\":3156:3160   */\n      0x20\n        /* \"#utility.yul\":3151:3154   */\n      dup3\n        /* \"#utility.yul\":3147:3161   */\n      add\n        /* \"#utility.yul\":3132:3161   */\n      swap1\n      pop\n        /* \"#utility.yul\":2998:3167   */\n      swap3\n      swap2\n      pop\n      pop\n      jump\t// out\n        /* \"#utility.yul\":3173:3333   */\n    tag_186:\n        /* \"#utility.yul\":3313:3325   */\n      0x4f6e6c79206f776e657200000000000000000000000000000000000000000000\n        /* \"#utility.yul\":3309:3310   */\n      0x00\n        /* \"#utility.yul\":3301:3307   */\n      dup3\n        /* \"#utility.yul\":3297:3311   */\n      add\n        /* \"#utility.yul\":3290:3326   */\n      mstore\n        /* \"#utility.yul\":3173:3333   */\n      pop\n      jump\t// out\n        /* \"#utility.yul\":3339:3705   */\n    tag_187:\n        /* \"#utility.yul\":3481:3484   */\n      0x00\n        /* \"#utility.yul\":3502:3569   */\n      tag_258\n        /* \"#utility.yul\":3566:3568   */\n      0x0a\n        /* \"#utility.yul\":3561:3564   */\n      dup4\n        /* \"#utility.yul\":3502:3569   */\n      tag_185\n      jump\t// in\n    tag_258:\n        /* \"#utility.yul\":3495:3569   */\n      swap2\n      pop\n        /* \"#utility.yul\":3578:3671   */\n      tag_259\n        /* \"#utility.yul\":3667:3670   */\n      dup3\n        /* \"#utility.yul\":3578:3671   */\n      tag_186\n      jump\t// in\n    tag_259:\n        /* \"#utility.yul\":3696:3698   */\n      0x20\n        /* \"#utility.yul\":3691:3694   */\n      dup3\n        /* \"#utility.yul\":3687:3699   */\n      add\n        /* \"#utility.yul\":3680:3699   */\n      swap1\n      pop\n        /* \"#utility.yul\":3339:3705   */\n      swap2\n      swap1\n      pop\n      jump\t// out\n        /* \"#utility.yul\":3711:4130   */\n    tag_68:\n        /* \"#utility.yul\":3877:3881   */\n      0x00\n        /* \"#utility.yul\":3915:3917   */\n      0x20\n        /* \"#utility.yul\":3904:3913   */\n      dup3\n        /* \"#utility.yul\":3900:3918   */\n      add\n        /* \"#utility.yul\":3892:3918   */\n      swap1\n      pop\n        /* \"#utility.yul\":3964:3973   */\n      dup2\n        /* \"#utility.yul\":3958:3962   */\n      dup2\n        /* \"#utility.yul\":3954:3974   */\n      sub\n        /* \"#utility.yul\":3950:3951   */\n      0x00\n        /* \"#utility.yul\":3939:3948   */\n      dup4\n        /* \"#utility.yul\":3935:3952   */\n      add\n        /* \"#utility.yul\":3928:3975   */\n      mstore\n        /* \"#utility.yul\":3992:4123   */\n      tag_261\n        /* \"#utility.yul\":4118:4122   */\n      dup2\n        /* \"#utility.yul\":3992:4123   */\n      tag_187\n      jump\t// in\n    tag_261:\n        /* \"#utility.yul\":3984:4123   */\n      swap1\n      pop\n        /* \"#utility.yul\":3711:4130   */\n      swap2\n      swap1\n      pop\n      jump\t// out\n        /* \"#utility.yul\":4136:4300   */\n    tag_188:\n        /* \"#utility.yul\":4276:4292   */\n      0x4e6f7420617574686f72697a6564000000000000000000000000000000000000\n        /* \"#utility.yul\":4272:4273   */\n      0x00\n        /* \"#utility.yul\":4264:4270   */\n      dup3\n        /* \"#utility.yul\":4260:4274   */\n      add\n        /* \"#utility.yul\":4253:4293   */\n      mstore\n        /* \"#utility.yul\":4136:4300   */\n      pop\n      jump\t// out\n        /* \"#utility.yul\":4306:4672   */\n    tag_189:\n        /* \"#utility.yul\":4448:4451   */\n      0x00\n        /* \"#utility.yul\":4469:4536   */\n      tag_264\n        /* \"#utility.yul\":4533:4535   */\n      0x0e\n        /* \"#utility.yul\":4528:4531   */\n      dup4\n        /* \"#utility.yul\":4469:4536   */\n      tag_185\n      jump\t// in\n    tag_264:\n        /* \"#utility.yul\":4462:4536   */\n      swap2\n      pop\n        /* \"#utility.yul\":4545:4638   */\n      tag_265\n        /* \"#utility.yul\":4634:4637   */\n      dup3\n        /* \"#utility.yul\":4545:4638   */\n      tag_188\n      jump\t// in\n    tag_265:\n        /* \"#utility.yul\":4663:4665   */\n      0x20\n        /* \"#utility.yul\":4658:4661   */\n      dup3\n        /* \"#utility.yul\":4654:4666   */\n      add\n        /* \"#utility.yul\":4647:4666   */\n      swap1\n      pop\n        /* \"#utility.yul\":4306:4672   */\n      swap2\n      swap1\n      pop\n      jump\t// out\n        /* \"#utility.yul\":4678:5097   */\n    tag_72:\n        /* \"#utility.yul\":4844:4848   */\n      0x00\n        /* \"#utility.yul\":4882:4884   */\n      0x20\n        /* \"#utility.yul\":4871:4880   */\n      dup3\n        /* \"#utility.yul\":4867:4885   */\n      add\n        /* \"#utility.yul\":4859:4885   */\n      swap1\n      pop\n        /* \"#utility.yul\":4931:4940   */\n      dup2\n        /* \"#utility.yul\":4925:4929   */\n      dup2\n        /* \"#utility.yul\":4921:4941   */\n      sub\n        /* \"#utility.yul\":4917:4918   */\n      0x00\n        /* \"#utility.yul\":4906:4915   */\n      dup4\n        /* \"#utility.yul\":4902:4919   */\n      add\n        /* \"#utility.yul\":4895:4942   */\n      mstore\n        /* \"#utility.yul\":4959:5090   */\n      tag_267\n        /* \"#utility.yul\":5085:5089   */\n      dup2\n        /* \"#utility.yul\":4959:5090   */\n      tag_189\n      jump\t// in\n    tag_267:\n        /* \"#utility.yul\":4951:5090   */\n      swap1\n      pop\n        /* \"#utility.yul\":4678:5097   */\n      swap2\n      swap1\n      pop\n      jump\t// out\n        /* \"#utility.yul\":5103:5246   */\n    tag_190:\n        /* \"#utility.yul\":5160:5165   */\n      0x00\n        /* \"#utility.yul\":5191:5197   */\n      dup2\n        /* \"#utility.yul\":5185:5198   */\n      mload\n        /* \"#utility.yul\":5176:5198   */\n      swap1\n      pop\n        /* \"#utility.yul\":5207:5240   */\n      tag_269\n        /* \"#utility.yul\":5234:5239   */\n      dup2\n        /* \"#utility.yul\":5207:5240   */\n      tag_180\n      jump\t// in\n    tag_269:\n        /* \"#utility.yul\":5103:5246   */\n      swap3\n      swap2\n      pop\n      pop\n      jump\t// out\n        /* \"#utility.yul\":5252:5603   */\n    tag_78:\n        /* \"#utility.yul\":5322:5328   */\n      0x00\n        /* \"#utility.yul\":5371:5373   */\n      0x20\n        /* \"#utility.yul\":5359:5368   */\n      dup3\n        /* \"#utility.yul\":5350:5357   */\n      dup5\n        /* \"#utility.yul\":5346:5369   */\n      sub\n        /* \"#utility.yul\":5342:5374   */\n      slt\n        /* \"#utility.yul\":5339:5458   */\n      iszero\n      tag_271\n      jumpi\n        /* \"#utility.yul\":5377:5456   */\n      tag_272\n      tag_172\n      jump\t// in\n    tag_272:\n        /* \"#utility.yul\":5339:5458   */\n    tag_271:\n        /* \"#utility.yul\":5497:5498   */\n      0x00\n        /* \"#utility.yul\":5522:5586   */\n      tag_273\n        /* \"#utility.yul\":5578:5585   */\n      dup5\n        /* \"#utility.yul\":5569:5575   */\n      dup3\n        /* \"#utility.yul\":5558:5567   */\n      dup6\n        /* \"#utility.yul\":5554:5576   */\n      add\n        /* \"#utility.yul\":5522:5586   */\n      tag_190\n      jump\t// in\n    tag_273:\n        /* \"#utility.yul\":5512:5586   */\n      swap2\n      pop\n        /* \"#utility.yul\":5468:5596   */\n      pop\n        /* \"#utility.yul\":5252:5603   */\n      swap3\n      swap2\n      pop\n      pop\n      jump\t// out\n        /* \"#utility.yul\":5609:5774   */\n    tag_191:\n        /* \"#utility.yul\":5749:5766   */\n      0x496e76616c696420616464726573730000000000000000000000000000000000\n        /* \"#utility.yul\":5745:5746   */\n      0x00\n        /* \"#utility.yul\":5737:5743   */\n      dup3\n        /* \"#utility.yul\":5733:5747   */\n      add\n        /* \"#utility.yul\":5726:5767   */\n      mstore\n        /* \"#utility.yul\":5609:5774   */\n      pop\n      jump\t// out\n        /* \"#utility.yul\":5780:6146   */\n    tag_192:\n        /* \"#utility.yul\":5922:5925   */\n      0x00\n        /* \"#utility.yul\":5943:6010   */\n      tag_276\n        /* \"#utility.yul\":6007:6009   */\n      0x0f\n        /* \"#utility.yul\":6002:6005   */\n      dup4\n        /* \"#utility.yul\":5943:6010   */\n      tag_185\n      jump\t// in\n    tag_276:\n        /* \"#utility.yul\":5936:6010   */\n      swap2\n      pop\n        /* \"#utility.yul\":6019:6112   */\n      tag_277\n        /* \"#utility.yul\":6108:6111   */\n      dup3\n        /* \"#utility.yul\":6019:6112   */\n      tag_191\n      jump\t// in\n    tag_277:\n        /* \"#utility.yul\":6137:6139   */\n      0x20\n        /* \"#utility.yul\":6132:6135   */\n      dup3\n        /* \"#utility.yul\":6128:6140   */\n      add\n        /* \"#utility.yul\":6121:6140   */\n      swap1\n      pop\n        /* \"#utility.yul\":5780:6146   */\n      swap2\n      swap1\n      pop\n      jump\t// out\n        /* \"#utility.yul\":6152:6571   */\n    tag_85:\n        /* \"#utility.yul\":6318:6322   */\n      0x00\n        /* \"#utility.yul\":6356:6358   */\n      0x20\n        /* \"#utility.yul\":6345:6354   */\n      dup3\n        /* \"#utility.yul\":6341:6359   */\n      add\n        /* \"#utility.yul\":6333:6359   */\n      swap1\n      pop\n        /* \"#utility.yul\":6405:6414   */\n      dup2\n        /* \"#utility.yul\":6399:6403   */\n      dup2\n        /* \"#utility.yul\":6395:6415   */\n      sub\n        /* \"#utility.yul\":6391:6392   */\n      0x00\n        /* \"#utility.yul\":6380:6389   */\n      dup4\n        /* \"#utility.yul\":6376:6393   */\n      add\n        /* \"#utility.yul\":6369:6416   */\n      mstore\n        /* \"#utility.yul\":6433:6564   */\n      tag_279\n        /* \"#utility.yul\":6559:6563   */\n      dup2\n        /* \"#utility.yul\":6433:6564   */\n      tag_192\n      jump\t// in\n    tag_279:\n        /* \"#utility.yul\":6425:6564   */\n      swap1\n      pop\n        /* \"#utility.yul\":6152:6571   */\n      swap2\n      swap1\n      pop\n      jump\t// out\n        /* \"#utility.yul\":6577:6745   */\n    tag_193:\n        /* \"#utility.yul\":6717:6737   */\n      0x416c726561647920617574686f72697a65640000000000000000000000000000\n        /* \"#utility.yul\":6713:6714   */\n      0x00\n        /* \"#utility.yul\":6705:6711   */\n      dup3\n        /* \"#utility.yul\":6701:6715   */\n      add\n        /* \"#utility.yul\":6694:6738   */\n      mstore\n        /* \"#utility.yul\":6577:6745   */\n      pop\n      jump\t// out\n        /* \"#utility.yul\":6751:7117   */\n    tag_194:\n        /* \"#utility.yul\":6893:6896   */\n      0x00\n        /* \"#utility.yul\":6914:6981   */\n      tag_282\n        /* \"#utility.yul\":6978:6980   */\n      0x12\n        /* \"#utility.yul\":6973:6976   */\n      dup4\n        /* \"#utility.yul\":6914:6981   */\n      tag_185\n      jump\t// in\n    tag_282:\n        /* \"#utility.yul\":6907:6981   */\n      swap2\n      pop\n        /* \"#utility.yul\":6990:7083   */\n      tag_283\n        /* \"#utility.yul\":7079:7082   */\n      dup3\n        /* \"#utility.yul\":6990:7083   */\n      tag_193\n      jump\t// in\n    tag_283:\n        /* \"#utility.yul\":7108:7110   */\n      0x20\n        /* \"#utility.yul\":7103:7106   */\n      dup3\n        /* \"#utility.yul\":7099:7111   */\n      add\n        /* \"#utility.yul\":7092:7111   */\n      swap1\n      pop\n        /* \"#utility.yul\":6751:7117   */\n      swap2\n      swap1\n      pop\n      jump\t// out\n        /* \"#utility.yul\":7123:7542   */\n    tag_88:\n        /* \"#utility.yul\":7289:7293   */\n      0x00\n        /* \"#utility.yul\":7327:7329   */\n      0x20\n        /* \"#utility.yul\":7316:7325   */\n      dup3\n        /* \"#utility.yul\":7312:7330   */\n      add\n        /* \"#utility.yul\":7304:7330   */\n      swap1\n      pop\n        /* \"#utility.yul\":7376:7385   */\n      dup2\n        /* \"#utility.yul\":7370:7374   */\n      dup2\n        /* \"#utility.yul\":7366:7386   */\n      sub\n        /* \"#utility.yul\":7362:7363   */\n      0x00\n        /* \"#utility.yul\":7351:7360   */\n      dup4\n        /* \"#utility.yul\":7347:7364   */\n      add\n        /* \"#utility.yul\":7340:7387   */\n      mstore\n        /* \"#utility.yul\":7404:7535   */\n      tag_285\n        /* \"#utility.yul\":7530:7534   */\n      dup2\n        /* \"#utility.yul\":7404:7535   */\n      tag_194\n      jump\t// in\n    tag_285:\n        /* \"#utility.yul\":7396:7535   */\n      swap1\n      pop\n        /* \"#utility.yul\":7123:7542   */\n      swap2\n      swap1\n      pop\n      jump\t// out\n        /* \"#utility.yul\":7548:7712   */\n    tag_195:\n        /* \"#utility.yul\":7688:7704   */\n      0x496e76616c696420616d6f756e74000000000000000000000000000000000000\n        /* \"#utility.yul\":7684:7685   */\n      0x00\n        /* \"#utility.yul\":7676:7682   */\n      dup3\n        /* \"#utility.yul\":7672:7686   */\n      add\n        /* \"#utility.yul\":7665:7705   */\n      mstore\n        /* \"#utility.yul\":7548:7712   */\n      pop\n      jump\t// out\n        /* \"#utility.yul\":7718:8084   */\n    tag_196:\n        /* \"#utility.yul\":7860:7863   */\n      0x00\n        /* \"#utility.yul\":7881:7948   */\n      tag_288\n        /* \"#utility.yul\":7945:7947   */\n      0x0e\n        /* \"#utility.yul\":7940:7943   */\n      dup4\n        /* \"#utility.yul\":7881:7948   */\n      tag_185\n      jump\t// in\n    tag_288:\n        /* \"#utility.yul\":7874:7948   */\n      swap2\n      pop\n        /* \"#utility.yul\":7957:8050   */\n      tag_289\n        /* \"#utility.yul\":8046:8049   */\n      dup3\n        /* \"#utility.yul\":7957:8050   */\n      tag_195\n      jump\t// in\n    tag_289:\n        /* \"#utility.yul\":8075:8077   */\n      0x20\n        /* \"#utility.yul\":8070:8073   */\n      dup3\n        /* \"#utility.yul\":8066:8078   */\n      add\n        /* \"#utility.yul\":8059:8078   */\n      swap1\n      pop\n        /* \"#utility.yul\":7718:8084   */\n      swap2\n      swap1\n      pop\n      jump\t// out\n        /* \"#utility.yul\":8090:8509   */\n    tag_95:\n        /* \"#utility.yul\":8256:8260   */\n      0x00\n        /* \"#utility.yul\":8294:8296   */\n      0x20\n        /* \"#utility.yul\":8283:8292   */\n      dup3\n        /* \"#utility.yul\":8279:8297   */\n      add\n        /* \"#utility.yul\":8271:8297   */\n      swap1\n      pop\n        /* \"#utility.yul\":8343:8352   */\n      dup2\n        /* \"#utility.yul\":8337:8341   */\n      dup2\n        /* \"#utility.yul\":8333:8353   */\n      sub\n        /* \"#utility.yul\":8329:8330   */\n      0x00\n        /* \"#utility.yul\":8318:8327   */\n      dup4\n        /* \"#utility.yul\":8314:8331   */\n      add\n        /* \"#utility.yul\":8307:8354   */\n      mstore\n        /* \"#utility.yul\":8371:8502   */\n      tag_291\n        /* \"#utility.yul\":8497:8501   */\n      dup2\n        /* \"#utility.yul\":8371:8502   */\n      tag_196\n      jump\t// in\n    tag_291:\n        /* \"#utility.yul\":8363:8502   */\n      swap1\n      pop\n        /* \"#utility.yul\":8090:8509   */\n      swap2\n      swap1\n      pop\n      jump\t// out\n        /* \"#utility.yul\":8515:8685   */\n    tag_197:\n        /* \"#utility.yul\":8655:8677   */\n      0x496e73756666696369656e742062616c616e6365000000000000000000000000\n        /* \"#utility.yul\":8651:8652   */\n      0x00\n        /* \"#utility.yul\":8643:8649   */\n      dup3\n        /* \"#utility.yul\":8639:8653   */\n      add\n        /* \"#utility.yul\":8632:8678   */\n      mstore\n        /* \"#utility.yul\":8515:8685   */\n      pop\n      jump\t// out\n        /* \"#utility.yul\":8691:9057   */\n    tag_198:\n        /* \"#utility.yul\":8833:8836   */\n      0x00\n        /* \"#utility.yul\":8854:8921   */\n      tag_294\n        /* \"#utility.yul\":8918:8920   */\n      0x14\n        /* \"#utility.yul\":8913:8916   */\n      dup4\n        /* \"#utility.yul\":8854:8921   */\n      tag_185\n      jump\t// in\n    tag_294:\n        /* \"#utility.yul\":8847:8921   */\n      swap2\n      pop\n        /* \"#utility.yul\":8930:9023   */\n      tag_295\n        /* \"#utility.yul\":9019:9022   */\n      dup3\n        /* \"#utility.yul\":8930:9023   */\n      tag_197\n      jump\t// in\n    tag_295:\n        /* \"#utility.yul\":9048:9050   */\n      0x20\n        /* \"#utility.yul\":9043:9046   */\n      dup3\n        /* \"#utility.yul\":9039:9051   */\n      add\n        /* \"#utility.yul\":9032:9051   */\n      swap1\n      pop\n        /* \"#utility.yul\":8691:9057   */\n      swap2\n      swap1\n      pop\n      jump\t// out\n        /* \"#utility.yul\":9063:9482   */\n    tag_102:\n        /* \"#utility.yul\":9229:9233   */\n      0x00\n        /* \"#utility.yul\":9267:9269   */\n      0x20\n        /* \"#utility.yul\":9256:9265   */\n      dup3\n        /* \"#utility.yul\":9252:9270   */\n      add\n        /* \"#utility.yul\":9244:9270   */\n      swap1\n      pop\n        /* \"#utility.yul\":9316:9325   */\n      dup2\n        /* \"#utility.yul\":9310:9314   */\n      dup2\n        /* \"#utility.yul\":9306:9326   */\n      sub\n        /* \"#utility.yul\":9302:9303   */\n      0x00\n        /* \"#utility.yul\":9291:9300   */\n      dup4\n        /* \"#utility.yul\":9287:9304   */\n      add\n        /* \"#utility.yul\":9280:9327   */\n      mstore\n        /* \"#utility.yul\":9344:9475   */\n      tag_297\n        /* \"#utility.yul\":9470:9474   */\n      dup2\n        /* \"#utility.yul\":9344:9475   */\n      tag_198\n      jump\t// in\n    tag_297:\n        /* \"#utility.yul\":9336:9475   */\n      swap1\n      pop\n        /* \"#utility.yul\":9063:9482   */\n      swap2\n      swap1\n      pop\n      jump\t// out\n        /* \"#utility.yul\":9488:9820   */\n    tag_104:\n        /* \"#utility.yul\":9609:9613   */\n      0x00\n        /* \"#utility.yul\":9647:9649   */\n      0x40\n        /* \"#utility.yul\":9636:9645   */\n      dup3\n        /* \"#utility.yul\":9632:9650   */\n      add\n        /* \"#utility.yul\":9624:9650   */\n      swap1\n      pop\n        /* \"#utility.yul\":9660:9731   */\n      tag_299\n        /* \"#utility.yul\":9728:9729   */\n      0x00\n        /* \"#utility.yul\":9717:9726   */\n      dup4\n        /* \"#utility.yul\":9713:9730   */\n      add\n        /* \"#utility.yul\":9704:9710   */\n      dup6\n        /* \"#utility.yul\":9660:9731   */\n      tag_182\n      jump\t// in\n    tag_299:\n        /* \"#utility.yul\":9741:9813   */\n      tag_300\n        /* \"#utility.yul\":9809:9811   */\n      0x20\n        /* \"#utility.yul\":9798:9807   */\n      dup4\n        /* \"#utility.yul\":9794:9812   */\n      add\n        /* \"#utility.yul\":9785:9791   */\n      dup5\n        /* \"#utility.yul\":9741:9813   */\n      tag_179\n      jump\t// in\n    tag_300:\n        /* \"#utility.yul\":9488:9820   */\n      swap4\n      swap3\n      pop\n      pop\n      pop\n      jump\t// out\n        /* \"#utility.yul\":9826:9942   */\n    tag_199:\n        /* \"#utility.yul\":9896:9917   */\n      tag_302\n        /* \"#utility.yul\":9911:9916   */\n      dup2\n        /* \"#utility.yul\":9896:9917   */\n      tag_183\n      jump\t// in\n    tag_302:\n        /* \"#utility.yul\":9889:9894   */\n      dup2\n        /* \"#utility.yul\":9886:9918   */\n      eq\n        /* \"#utility.yul\":9876:9936   */\n      tag_303\n      jumpi\n        /* \"#utility.yul\":9932:9933   */\n      0x00\n        /* \"#utility.yul\":9929:9930   */\n      0x00\n        /* \"#utility.yul\":9922:9934   */\n      revert\n        /* \"#utility.yul\":9876:9936   */\n    tag_303:\n        /* \"#utility.yul\":9826:9942   */\n      pop\n      jump\t// out\n        /* \"#utility.yul\":9948:10085   */\n    tag_200:\n        /* \"#utility.yul\":10002:10007   */\n      0x00\n        /* \"#utility.yul\":10033:10039   */\n      dup2\n        /* \"#utility.yul\":10027:10040   */\n      mload\n        /* \"#utility.yul\":10018:10040   */\n      swap1\n      pop\n        /* \"#utility.yul\":10049:10079   */\n      tag_305\n        /* \"#utility.yul\":10073:10078   */\n      dup2\n        /* \"#utility.yul\":10049:10079   */\n      tag_199\n      jump\t// in\n    tag_305:\n        /* \"#utility.yul\":9948:10085   */\n      swap3\n      swap2\n      pop\n      pop\n      jump\t// out\n        /* \"#utility.yul\":10091:10436   */\n    tag_108:\n        /* \"#utility.yul\":10158:10164   */\n      0x00\n        /* \"#utility.yul\":10207:10209   */\n      0x20\n        /* \"#utility.yul\":10195:10204   */\n      dup3\n        /* \"#utility.yul\":10186:10193   */\n      dup5\n        /* \"#utility.yul\":10182:10205   */\n      sub\n        /* \"#utility.yul\":10178:10210   */\n      slt\n        /* \"#utility.yul\":10175:10294   */\n      iszero\n      tag_307\n      jumpi\n        /* \"#utility.yul\":10213:10292   */\n      tag_308\n      tag_172\n      jump\t// in\n    tag_308:\n        /* \"#utility.yul\":10175:10294   */\n    tag_307:\n        /* \"#utility.yul\":10333:10334   */\n      0x00\n        /* \"#utility.yul\":10358:10419   */\n      tag_309\n        /* \"#utility.yul\":10411:10418   */\n      dup5\n        /* \"#utility.yul\":10402:10408   */\n      dup3\n        /* \"#utility.yul\":10391:10400   */\n      dup6\n        /* \"#utility.yul\":10387:10409   */\n      add\n        /* \"#utility.yul\":10358:10419   */\n      tag_200\n      jump\t// in\n    tag_309:\n        /* \"#utility.yul\":10348:10419   */\n      swap2\n      pop\n        /* \"#utility.yul\":10304:10429   */\n      pop\n        /* \"#utility.yul\":10091:10436   */\n      swap3\n      swap2\n      pop\n      pop\n      jump\t// out\n        /* \"#utility.yul\":10442:10607   */\n    tag_201:\n        /* \"#utility.yul\":10582:10599   */\n      0x5472616e73666572206661696c65640000000000000000000000000000000000\n        /* \"#utility.yul\":10578:10579   */\n      0x00\n        /* \"#utility.yul\":10570:10576   */\n      dup3\n        /* \"#utility.yul\":10566:10580   */\n      add\n        /* \"#utility.yul\":10559:10600   */\n      mstore\n        /* \"#utility.yul\":10442:10607   */\n      pop\n      jump\t// out\n        /* \"#utility.yul\":10613:10979   */\n    tag_202:\n        /* \"#utility.yul\":10755:10758   */\n      0x00\n        /* \"#utility.yul\":10776:10843   */\n      tag_312\n        /* \"#utility.yul\":10840:10842   */\n      0x0f\n        /* \"#utility.yul\":10835:10838   */\n      dup4\n        /* \"#utility.yul\":10776:10843   */\n      tag_185\n      jump\t// in\n    tag_312:\n        /* \"#utility.yul\":10769:10843   */\n      swap2\n      pop\n        /* \"#utility.yul\":10852:10945   */\n      tag_313\n        /* \"#utility.yul\":10941:10944   */\n      dup3\n        /* \"#utility.yul\":10852:10945   */\n      tag_201\n      jump\t// in\n    tag_313:\n        /* \"#utility.yul\":10970:10972   */\n      0x20\n        /* \"#utility.yul\":10965:10968   */\n      dup3\n        /* \"#utility.yul\":10961:10973   */\n      add\n        /* \"#utility.yul\":10954:10973   */\n      swap1\n      pop\n        /* \"#utility.yul\":10613:10979   */\n      swap2\n      swap1\n      pop\n      jump\t// out\n        /* \"#utility.yul\":10985:11404   */\n    tag_111:\n        /* \"#utility.yul\":11151:11155   */\n      0x00\n        /* \"#utility.yul\":11189:11191   */\n      0x20\n        /* \"#utility.yul\":11178:11187   */\n      dup3\n        /* \"#utility.yul\":11174:11192   */\n      add\n        /* \"#utility.yul\":11166:11192   */\n      swap1\n      pop\n        /* \"#utility.yul\":11238:11247   */\n      dup2\n        /* \"#utility.yul\":11232:11236   */\n      dup2\n        /* \"#utility.yul\":11228:11248   */\n      sub\n        /* \"#utility.yul\":11224:11225   */\n      0x00\n        /* \"#utility.yul\":11213:11222   */\n      dup4\n        /* \"#utility.yul\":11209:11226   */\n      add\n        /* \"#utility.yul\":11202:11249   */\n      mstore\n        /* \"#utility.yul\":11266:11397   */\n      tag_315\n        /* \"#utility.yul\":11392:11396   */\n      dup2\n        /* \"#utility.yul\":11266:11397   */\n      tag_202\n      jump\t// in\n    tag_315:\n        /* \"#utility.yul\":11258:11397   */\n      swap1\n      pop\n        /* \"#utility.yul\":10985:11404   */\n      swap2\n      swap1\n      pop\n      jump\t// out\n        /* \"#utility.yul\":11410:11568   */\n    tag_203:\n        /* \"#utility.yul\":11550:11560   */\n      0x53656e6420455448000000000000000000000000000000000000000000000000\n        /* \"#utility.yul\":11546:11547   */\n      0x00\n        /* \"#utility.yul\":11538:11544   */\n      dup3\n        /* \"#utility.yul\":11534:11548   */\n      add\n        /* \"#utility.yul\":11527:11561   */\n      mstore\n        /* \"#utility.yul\":11410:11568   */\n      pop\n      jump\t// out\n        /* \"#utility.yul\":11574:11939   */\n    tag_204:\n        /* \"#utility.yul\":11716:11719   */\n      0x00\n        /* \"#utility.yul\":11737:11803   */\n      tag_318\n        /* \"#utility.yul\":11801:11802   */\n      0x08\n        /* \"#utility.yul\":11796:11799   */\n      dup4\n        /* \"#utility.yul\":11737:11803   */\n      tag_185\n      jump\t// in\n    tag_318:\n        /* \"#utility.yul\":11730:11803   */\n      swap2\n      pop\n        /* \"#utility.yul\":11812:11905   */\n      tag_319\n        /* \"#utility.yul\":11901:11904   */\n      dup3\n        /* \"#utility.yul\":11812:11905   */\n      tag_203\n      jump\t// in\n    tag_319:\n        /* \"#utility.yul\":11930:11932   */\n      0x20\n        /* \"#utility.yul\":11925:11928   */\n      dup3\n        /* \"#utility.yul\":11921:11933   */\n      add\n        /* \"#utility.yul\":11914:11933   */\n      swap1\n      pop\n        /* \"#utility.yul\":11574:11939   */\n      swap2\n      swap1\n      pop\n      jump\t// out\n        /* \"#utility.yul\":11945:12364   */\n    tag_119:\n        /* \"#utility.yul\":12111:12115   */\n      0x00\n        /* \"#utility.yul\":12149:12151   */\n      0x20\n        /* \"#utility.yul\":12138:12147   */\n      dup3\n        /* \"#utility.yul\":12134:12152   */\n      add\n        /* \"#utility.yul\":12126:12152   */\n      swap1\n      pop\n        /* \"#utility.yul\":12198:12207   */\n      dup2\n        /* \"#utility.yul\":12192:12196   */\n      dup2\n        /* \"#utility.yul\":12188:12208   */\n      sub\n        /* \"#utility.yul\":12184:12185   */\n      0x00\n        /* \"#utility.yul\":12173:12182   */\n      dup4\n        /* \"#utility.yul\":12169:12186   */\n      add\n        /* \"#utility.yul\":12162:12209   */\n      mstore\n        /* \"#utility.yul\":12226:12357   */\n      tag_321\n        /* \"#utility.yul\":12352:12356   */\n      dup2\n        /* \"#utility.yul\":12226:12357   */\n      tag_204\n      jump\t// in\n    tag_321:\n        /* \"#utility.yul\":12218:12357   */\n      swap1\n      pop\n        /* \"#utility.yul\":11945:12364   */\n      swap2\n      swap1\n      pop\n      jump\t// out\n        /* \"#utility.yul\":12370:12534   */\n    tag_205:\n        /* \"#utility.yul\":12510:12526   */\n      0x496e76616c69642063616c6c6572000000000000000000000000000000000000\n        /* \"#utility.yul\":12506:12507   */\n      0x00\n        /* \"#utility.yul\":12498:12504   */\n      dup3\n        /* \"#utility.yul\":12494:12508   */\n      add\n        /* \"#utility.yul\":12487:12527   */\n      mstore\n        /* \"#utility.yul\":12370:12534   */\n      pop\n      jump\t// out\n        /* \"#utility.yul\":12540:12906   */\n    tag_206:\n        /* \"#utility.yul\":12682:12685   */\n      0x00\n        /* \"#utility.yul\":12703:12770   */\n      tag_324\n        /* \"#utility.yul\":12767:12769   */\n      0x0e\n        /* \"#utility.yul\":12762:12765   */\n      dup4\n        /* \"#utility.yul\":12703:12770   */\n      tag_185\n      jump\t// in\n    tag_324:\n        /* \"#utility.yul\":12696:12770   */\n      swap2\n      pop\n        /* \"#utility.yul\":12779:12872   */\n      tag_325\n        /* \"#utility.yul\":12868:12871   */\n      dup3\n        /* \"#utility.yul\":12779:12872   */\n      tag_205\n      jump\t// in\n    tag_325:\n        /* \"#utility.yul\":12897:12899   */\n      0x20\n        /* \"#utility.yul\":12892:12895   */\n      dup3\n        /* \"#utility.yul\":12888:12900   */\n      add\n        /* \"#utility.yul\":12881:12900   */\n      swap1\n      pop\n        /* \"#utility.yul\":12540:12906   */\n      swap2\n      swap1\n      pop\n      jump\t// out\n        /* \"#utility.yul\":12912:13331   */\n    tag_130:\n        /* \"#utility.yul\":13078:13082   */\n      0x00\n        /* \"#utility.yul\":13116:13118   */\n      0x20\n        /* \"#utility.yul\":13105:13114   */\n      dup3\n        /* \"#utility.yul\":13101:13119   */\n      add\n        /* \"#utility.yul\":13093:13119   */\n      swap1\n      pop\n        /* \"#utility.yul\":13165:13174   */\n      dup2\n        /* \"#utility.yul\":13159:13163   */\n      dup2\n        /* \"#utility.yul\":13155:13175   */\n      sub\n        /* \"#utility.yul\":13151:13152   */\n      0x00\n        /* \"#utility.yul\":13140:13149   */\n      dup4\n        /* \"#utility.yul\":13136:13153   */\n      add\n        /* \"#utility.yul\":13129:13176   */\n      mstore\n        /* \"#utility.yul\":13193:13324   */\n      tag_327\n        /* \"#utility.yul\":13319:13323   */\n      dup2\n        /* \"#utility.yul\":13193:13324   */\n      tag_206\n      jump\t// in\n    tag_327:\n        /* \"#utility.yul\":13185:13324   */\n      swap1\n      pop\n        /* \"#utility.yul\":12912:13331   */\n      swap2\n      swap1\n      pop\n      jump\t// out\n        /* \"#utility.yul\":13337:13517   */\n    tag_207:\n        /* \"#utility.yul\":13385:13462   */\n      0x4e487b7100000000000000000000000000000000000000000000000000000000\n        /* \"#utility.yul\":13382:13383   */\n      0x00\n        /* \"#utility.yul\":13375:13463   */\n      mstore\n        /* \"#utility.yul\":13482:13486   */\n      0x11\n        /* \"#utility.yul\":13479:13480   */\n      0x04\n        /* \"#utility.yul\":13472:13487   */\n      mstore\n        /* \"#utility.yul\":13506:13510   */\n      0x24\n        /* \"#utility.yul\":13503:13504   */\n      0x00\n        /* \"#utility.yul\":13496:13511   */\n      revert\n        /* \"#utility.yul\":13523:13933   */\n    tag_136:\n        /* \"#utility.yul\":13563:13570   */\n      0x00\n        /* \"#utility.yul\":13586:13606   */\n      tag_330\n        /* \"#utility.yul\":13604:13605   */\n      dup3\n        /* \"#utility.yul\":13586:13606   */\n      tag_178\n      jump\t// in\n    tag_330:\n        /* \"#utility.yul\":13581:13606   */\n      swap2\n      pop\n        /* \"#utility.yul\":13620:13640   */\n      tag_331\n        /* \"#utility.yul\":13638:13639   */\n      dup4\n        /* \"#utility.yul\":13620:13640   */\n      tag_178\n      jump\t// in\n    tag_331:\n        /* \"#utility.yul\":13615:13640   */\n      swap3\n      pop\n        /* \"#utility.yul\":13675:13676   */\n      dup3\n        /* \"#utility.yul\":13672:13673   */\n      dup3\n        /* \"#utility.yul\":13668:13677   */\n      mul\n        /* \"#utility.yul\":13697:13727   */\n      tag_332\n        /* \"#utility.yul\":13715:13726   */\n      dup2\n        /* \"#utility.yul\":13697:13727   */\n      tag_178\n      jump\t// in\n    tag_332:\n        /* \"#utility.yul\":13686:13727   */\n      swap2\n      pop\n        /* \"#utility.yul\":13876:13877   */\n      dup3\n        /* \"#utility.yul\":13867:13874   */\n      dup3\n        /* \"#utility.yul\":13863:13878   */\n      div\n        /* \"#utility.yul\":13860:13861   */\n      dup5\n        /* \"#utility.yul\":13857:13879   */\n      eq\n        /* \"#utility.yul\":13837:13838   */\n      dup4\n        /* \"#utility.yul\":13830:13839   */\n      iszero\n        /* \"#utility.yul\":13810:13893   */\n      or\n        /* \"#utility.yul\":13787:13926   */\n      tag_333\n      jumpi\n        /* \"#utility.yul\":13906:13924   */\n      tag_334\n      tag_207\n      jump\t// in\n    tag_334:\n        /* \"#utility.yul\":13787:13926   */\n    tag_333:\n        /* \"#utility.yul\":13571:13933   */\n      pop\n        /* \"#utility.yul\":13523:13933   */\n      swap3\n      swap2\n      pop\n      pop\n      jump\t// out\n        /* \"#utility.yul\":13939:14119   */\n    tag_208:\n        /* \"#utility.yul\":13987:14064   */\n      0x4e487b7100000000000000000000000000000000000000000000000000000000\n        /* \"#utility.yul\":13984:13985   */\n      0x00\n        /* \"#utility.yul\":13977:14065   */\n      mstore\n        /* \"#utility.yul\":14084:14088   */\n      0x12\n        /* \"#utility.yul\":14081:14082   */\n      0x04\n        /* \"#utility.yul\":14074:14089   */\n      mstore\n        /* \"#utility.yul\":14108:14112   */\n      0x24\n        /* \"#utility.yul\":14105:14106   */\n      0x00\n        /* \"#utility.yul\":14098:14113   */\n      revert\n        /* \"#utility.yul\":14125:14310   */\n    tag_138:\n        /* \"#utility.yul\":14165:14166   */\n      0x00\n        /* \"#utility.yul\":14182:14202   */\n      tag_337\n        /* \"#utility.yul\":14200:14201   */\n      dup3\n        /* \"#utility.yul\":14182:14202   */\n      tag_178\n      jump\t// in\n    tag_337:\n        /* \"#utility.yul\":14177:14202   */\n      swap2\n      pop\n        /* \"#utility.yul\":14216:14236   */\n      tag_338\n        /* \"#utility.yul\":14234:14235   */\n      dup4\n        /* \"#utility.yul\":14216:14236   */\n      tag_178\n      jump\t// in\n    tag_338:\n        /* \"#utility.yul\":14211:14236   */\n      swap3\n      pop\n        /* \"#utility.yul\":14255:14256   */\n      dup3\n        /* \"#utility.yul\":14245:14280   */\n      tag_339\n      jumpi\n        /* \"#utility.yul\":14260:14278   */\n      tag_340\n      tag_208\n      jump\t// in\n    tag_340:\n        /* \"#utility.yul\":14245:14280   */\n    tag_339:\n        /* \"#utility.yul\":14302:14303   */\n      dup3\n        /* \"#utility.yul\":14299:14300   */\n      dup3\n        /* \"#utility.yul\":14295:14304   */\n      div\n        /* \"#utility.yul\":14290:14304   */\n      swap1\n      pop\n        /* \"#utility.yul\":14125:14310   */\n      swap3\n      swap2\n      pop\n      pop\n      jump\t// out\n        /* \"#utility.yul\":14316:14648   */\n    tag_154:\n        /* \"#utility.yul\":14437:14441   */\n      0x00\n        /* \"#utility.yul\":14475:14477   */\n      0x40\n        /* \"#utility.yul\":14464:14473   */\n      dup3\n        /* \"#utility.yul\":14460:14478   */\n      add\n        /* \"#utility.yul\":14452:14478   */\n      swap1\n      pop\n        /* \"#utility.yul\":14488:14559   */\n      tag_342\n        /* \"#utility.yul\":14556:14557   */\n      0x00\n        /* \"#utility.yul\":14545:14554   */\n      dup4\n        /* \"#utility.yul\":14541:14558   */\n      add\n        /* \"#utility.yul\":14532:14538   */\n      dup6\n        /* \"#utility.yul\":14488:14559   */\n      tag_179\n      jump\t// in\n    tag_342:\n        /* \"#utility.yul\":14569:14641   */\n      tag_343\n        /* \"#utility.yul\":14637:14639   */\n      0x20\n        /* \"#utility.yul\":14626:14635   */\n      dup4\n        /* \"#utility.yul\":14622:14640   */\n      add\n        /* \"#utility.yul\":14613:14619   */\n      dup5\n        /* \"#utility.yul\":14569:14641   */\n      tag_179\n      jump\t// in\n    tag_343:\n        /* \"#utility.yul\":14316:14648   */\n      swap4\n      swap3\n      pop\n      pop\n      pop\n      jump\t// out\n        /* \"#utility.yul\":14654:14822   */\n    tag_209:\n        /* \"#utility.yul\":14794:14814   */\n      0x4e6f2045544820746f2077697468647261770000000000000000000000000000\n        /* \"#utility.yul\":14790:14791   */\n      0x00\n        /* \"#utility.yul\":14782:14788   */\n      dup3\n        /* \"#utility.yul\":14778:14792   */\n      add\n        /* \"#utility.yul\":14771:14815   */\n      mstore\n        /* \"#utility.yul\":14654:14822   */\n      pop\n      jump\t// out\n        /* \"#utility.yul\":14828:15194   */\n    tag_210:\n        /* \"#utility.yul\":14970:14973   */\n      0x00\n        /* \"#utility.yul\":14991:15058   */\n      tag_346\n        /* \"#utility.yul\":15055:15057   */\n      0x12\n        /* \"#utility.yul\":15050:15053   */\n      dup4\n        /* \"#utility.yul\":14991:15058   */\n      tag_185\n      jump\t// in\n    tag_346:\n        /* \"#utility.yul\":14984:15058   */\n      swap2\n      pop\n        /* \"#utility.yul\":15067:15160   */\n      tag_347\n        /* \"#utility.yul\":15156:15159   */\n      dup3\n        /* \"#utility.yul\":15067:15160   */\n      tag_209\n      jump\t// in\n    tag_347:\n        /* \"#utility.yul\":15185:15187   */\n      0x20\n        /* \"#utility.yul\":15180:15183   */\n      dup3\n        /* \"#utility.yul\":15176:15188   */\n      add\n        /* \"#utility.yul\":15169:15188   */\n      swap1\n      pop\n        /* \"#utility.yul\":14828:15194   */\n      swap2\n      swap1\n      pop\n      jump\t// out\n        /* \"#utility.yul\":15200:15619   */\n    tag_161:\n        /* \"#utility.yul\":15366:15370   */\n      0x00\n        /* \"#utility.yul\":15404:15406   */\n      0x20\n        /* \"#utility.yul\":15393:15402   */\n      dup3\n        /* \"#utility.yul\":15389:15407   */\n      add\n        /* \"#utility.yul\":15381:15407   */\n      swap1\n      pop\n        /* \"#utility.yul\":15453:15462   */\n      dup2\n        /* \"#utility.yul\":15447:15451   */\n      dup2\n        /* \"#utility.yul\":15443:15463   */\n      sub\n        /* \"#utility.yul\":15439:15440   */\n      0x00\n        /* \"#utility.yul\":15428:15437   */\n      dup4\n        /* \"#utility.yul\":15424:15441   */\n      add\n        /* \"#utility.yul\":15417:15464   */\n      mstore\n        /* \"#utility.yul\":15481:15612   */\n      tag_349\n        /* \"#utility.yul\":15607:15611   */\n      dup2\n        /* \"#utility.yul\":15481:15612   */\n      tag_210\n      jump\t// in\n    tag_349:\n        /* \"#utility.yul\":15473:15612   */\n      swap1\n      pop\n        /* \"#utility.yul\":15200:15619   */\n      swap2\n      swap1\n      pop\n      jump\t// out\n        /* \"#utility.yul\":15625:15772   */\n    tag_211:\n        /* \"#utility.yul\":15726:15737   */\n      0x00\n        /* \"#utility.yul\":15763:15766   */\n      dup2\n        /* \"#utility.yul\":15748:15766   */\n      swap1\n      pop\n        /* \"#utility.yul\":15625:15772   */\n      swap3\n      swap2\n      pop\n      pop\n      jump\t// out\n        /* \"#utility.yul\":15778:15892   */\n    tag_212:\n      pop\n      jump\t// out\n        /* \"#utility.yul\":15898:16296   */\n    tag_213:\n        /* \"#utility.yul\":16057:16060   */\n      0x00\n        /* \"#utility.yul\":16078:16161   */\n      tag_353\n        /* \"#utility.yul\":16159:16160   */\n      0x00\n        /* \"#utility.yul\":16154:16157   */\n      dup4\n        /* \"#utility.yul\":16078:16161   */\n      tag_211\n      jump\t// in\n    tag_353:\n        /* \"#utility.yul\":16071:16161   */\n      swap2\n      pop\n        /* \"#utility.yul\":16170:16263   */\n      tag_354\n        /* \"#utility.yul\":16259:16262   */\n      dup3\n        /* \"#utility.yul\":16170:16263   */\n      tag_212\n      jump\t// in\n    tag_354:\n        /* \"#utility.yul\":16288:16289   */\n      0x00\n        /* \"#utility.yul\":16283:16286   */\n      dup3\n        /* \"#utility.yul\":16279:16290   */\n      add\n        /* \"#utility.yul\":16272:16290   */\n      swap1\n      pop\n        /* \"#utility.yul\":15898:16296   */\n      swap2\n      swap1\n      pop\n      jump\t// out\n        /* \"#utility.yul\":16302:16681   */\n    tag_163:\n        /* \"#utility.yul\":16486:16489   */\n      0x00\n        /* \"#utility.yul\":16508:16655   */\n      tag_356\n        /* \"#utility.yul\":16651:16654   */\n      dup3\n        /* \"#utility.yul\":16508:16655   */\n      tag_213\n      jump\t// in\n    tag_356:\n        /* \"#utility.yul\":16501:16655   */\n      swap2\n      pop\n        /* \"#utility.yul\":16672:16675   */\n      dup2\n        /* \"#utility.yul\":16665:16675   */\n      swap1\n      pop\n        /* \"#utility.yul\":16302:16681   */\n      swap2\n      swap1\n      pop\n      jump\t// out\n        /* \"#utility.yul\":16687:16856   */\n    tag_214:\n        /* \"#utility.yul\":16827:16848   */\n      0x455448207472616e73666572206661696c656400000000000000000000000000\n        /* \"#utility.yul\":16823:16824   */\n      0x00\n        /* \"#utility.yul\":16815:16821   */\n      dup3\n        /* \"#utility.yul\":16811:16825   */\n      add\n        /* \"#utility.yul\":16804:16849   */\n      mstore\n        /* \"#utility.yul\":16687:16856   */\n      pop\n      jump\t// out\n        /* \"#utility.yul\":16862:17228   */\n    tag_215:\n        /* \"#utility.yul\":17004:17007   */\n      0x00\n        /* \"#utility.yul\":17025:17092   */\n      tag_359\n        /* \"#utility.yul\":17089:17091   */\n      0x13\n        /* \"#utility.yul\":17084:17087   */\n      dup4\n        /* \"#utility.yul\":17025:17092   */\n      tag_185\n      jump\t// in\n    tag_359:\n        /* \"#utility.yul\":17018:17092   */\n      swap2\n      pop\n        /* \"#utility.yul\":17101:17194   */\n      tag_360\n        /* \"#utility.yul\":17190:17193   */\n      dup3\n        /* \"#utility.yul\":17101:17194   */\n      tag_214\n      jump\t// in\n    tag_360:\n        /* \"#utility.yul\":17219:17221   */\n      0x20\n        /* \"#utility.yul\":17214:17217   */\n      dup3\n        /* \"#utility.yul\":17210:17222   */\n      add\n        /* \"#utility.yul\":17203:17222   */\n      swap1\n      pop\n        /* \"#utility.yul\":16862:17228   */\n      swap2\n      swap1\n      pop\n      jump\t// out\n        /* \"#utility.yul\":17234:17653   */\n    tag_169:\n        /* \"#utility.yul\":17400:17404   */\n      0x00\n        /* \"#utility.yul\":17438:17440   */\n      0x20\n        /* \"#utility.yul\":17427:17436   */\n      dup3\n        /* \"#utility.yul\":17423:17441   */\n      add\n        /* \"#utility.yul\":17415:17441   */\n      swap1\n      pop\n        /* \"#utility.yul\":17487:17496   */\n      dup2\n        /* \"#utility.yul\":17481:17485   */\n      dup2\n        /* \"#utility.yul\":17477:17497   */\n      sub\n        /* \"#utility.yul\":17473:17474   */\n      0x00\n        /* \"#utility.yul\":17462:17471   */\n      dup4\n        /* \"#utility.yul\":17458:17475   */\n      add\n        /* \"#utility.yul\":17451:17498   */\n      mstore\n        /* \"#utility.yul\":17515:17646   */\n      tag_362\n        /* \"#utility.yul\":17641:17645   */\n      dup2\n        /* \"#utility.yul\":17515:17646   */\n      tag_215\n      jump\t// in\n    tag_362:\n        /* \"#utility.yul\":17507:17646   */\n      swap1\n      pop\n        /* \"#utility.yul\":17234:17653   */\n      swap2\n      swap1\n      pop\n      jump\t// out\n\n    auxdata: 0xa26469706673582212203acda8cec4c08a4805594796a80a9b70066874119622ce867d555a077d17f62264736f6c634300081f0033\n}\n",
				"bytecode": {
					"linkReferences": {},
					"object": "608060405234801561000f575f5ffd5b50604051611cea380380611cea8339818101604052810190610031919061020c565b5f73ffffffffffffffffffffffffffffffffffffffff168273ffffffffffffffffffffffffffffffffffffffff160361009f576040517f08c379a0000000000000000000000000000000000000000000000000000000008152600401610096906102a4565b60405180910390fd5b5f811180156100af575060648111155b6100ee576040517f08c379a00000000000000000000000000000000000000000000000000000000081526004016100e59061030c565b60405180910390fd5b335f5f6101000a81548173ffffffffffffffffffffffffffffffffffffffff021916908373ffffffffffffffffffffffffffffffffffffffff1602179055508160015f6101000a81548173ffffffffffffffffffffffffffffffffffffffff021916908373ffffffffffffffffffffffffffffffffffffffff16021790555080600281905550505061032a565b5f5ffd5b5f73ffffffffffffffffffffffffffffffffffffffff82169050919050565b5f6101a88261017f565b9050919050565b6101b88161019e565b81146101c2575f5ffd5b50565b5f815190506101d3816101af565b92915050565b5f819050919050565b6101eb816101d9565b81146101f5575f5ffd5b50565b5f81519050610206816101e2565b92915050565b5f5f604083850312156102225761022161017b565b5b5f61022f858286016101c5565b9250506020610240858286016101f8565b9150509250929050565b5f82825260208201905092915050565b7f496e76616c696420746f6b656e000000000000000000000000000000000000005f82015250565b5f61028e600d8361024a565b91506102998261025a565b602082019050919050565b5f6020820190508181035f8301526102bb81610282565b9050919050565b7f496e76616c69642070657263656e7461676500000000000000000000000000005f82015250565b5f6102f660128361024a565b9150610301826102c2565b602082019050919050565b5f6020820190508181035f830152610323816102ea565b9050919050565b6119b3806103375f395ff3fe60806040526004361061009f575f3560e01c80639d76ea58116100635780639d76ea5814610176578063bfdc3ec6146101a0578063c5189787146101be578063c5d9b404146101e8578063e086e5ec14610210578063ee86882514610226576100a6565b80630b54fa79146100aa57806312065fe0146100d257806316504b93146100fc578063315a095d146101245780638da5cb5b1461014c576100a6565b366100a657005b5f5ffd5b3480156100b5575f5ffd5b506100d060048036038101906100cb91906111fb565b610262565b005b3480156100dd575f5ffd5b506100e6610413565b6040516100f3919061123e565b60405180910390f35b348015610107575f5ffd5b50610122600480360381019061011d91906111fb565b6104b2565b005b34801561012f575f5ffd5b5061014a60048036038101906101459190611281565b6106d3565b005b348015610157575f5ffd5b506101606109d3565b60405161016d91906112bb565b60405180910390f35b348015610181575f5ffd5b5061018a6109f7565b60405161019791906112bb565b60405180910390f35b6101a8610a1c565b6040516101b5919061123e565b60405180910390f35b3480156101c9575f5ffd5b506101d2610bc4565b6040516101df919061123e565b60405180910390f35b3480156101f3575f5ffd5b5061020e600480360381019061020991906111fb565b610bca565b005b34801561021b575f5ffd5b50610224610f72565b005b348015610231575f5ffd5b5061024c600480360381019061024791906111fb565b611180565b60405161025991906112ee565b60405180910390f35b5f5f9054906101000a900473ffffffffffffffffffffffffffffffffffffffff1673ffffffffffffffffffffffffffffffffffffffff163373ffffffffffffffffffffffffffffffffffffffff16146102f0576040517f08c379a00000000000000000000000000000000000000000000000000000000081526004016102e790611361565b60405180910390fd5b60035f8273ffffffffffffffffffffffffffffffffffffffff1673ffffffffffffffffffffffffffffffffffffffff1681526020019081526020015f205f9054906101000a900460ff16610379576040517f08c379a0000000000000000000000000000000000000000000000000000000008152600401610370906113c9565b60405180910390fd5b5f60035f8373ffffffffffffffffffffffffffffffffffffffff1673ffffffffffffffffffffffffffffffffffffffff1681526020019081526020015f205f6101000a81548160ff0219169083151502179055508073ffffffffffffffffffffffffffffffffffffffff167f2be66b7f49755e7b76cbcf2b0226ca0fd6b9287026872d18bdf8d9fe77bd84e160405160405180910390a250565b5f60015f9054906101000a900473ffffffffffffffffffffffffffffffffffffffff1673ffffffffffffffffffffffffffffffffffffffff166370a08231306040518263ffffffff1660e01b815260040161046e91906112bb565b602060405180830381865afa158015610489573d5f5f3e3d5ffd5b505050506040513d601f19601f820116820180604052508101906104ad91906113fb565b905090565b5f5f9054906101000a900473ffffffffffffffffffffffffffffffffffffffff1673ffffffffffffffffffffffffffffffffffffffff163373ffffffffffffffffffffffffffffffffffffffff1614610540576040517f08c379a000000000000000000000000000000000000000000000000000000000815260040161053790611361565b60405180910390fd5b5f73ffffffffffffffffffffffffffffffffffffffff168173ffffffffffffffffffffffffffffffffffffffff16036105ae576040517f08c379a00000000000000000000000000000000000000000000000000000000081526004016105a590611470565b60405180910390fd5b60035f8273ffffffffffffffffffffffffffffffffffffffff1673ffffffffffffffffffffffffffffffffffffffff1681526020019081526020015f205f9054906101000a900460ff1615610638576040517f08c379a000000000000000000000000000000000000000000000000000000000815260040161062f906114d8565b60405180910390fd5b600160035f8373ffffffffffffffffffffffffffffffffffffffff1673ffffffffffffffffffffffffffffffffffffffff1681526020019081526020015f205f6101000a81548160ff0219169083151502179055508073ffffffffffffffffffffffffffffffffffffffff167f52c01045ff4e409c91a6e61a686c9be8d574c9c6acb9dba3b21b364e081a375260405160405180910390a250565b5f5f9054906101000a900473ffffffffffffffffffffffffffffffffffffffff1673ffffffffffffffffffffffffffffffffffffffff163373ffffffffffffffffffffffffffffffffffffffff1614610761576040517f08c379a000000000000000000000000000000000000000000000000000000000815260040161075890611361565b60405180910390fd5b5f81116107a3576040517f08c379a000000000000000000000000000000000000000000000000000000000815260040161079a90611540565b60405180910390fd5b5f60015f9054906101000a900473ffffffffffffffffffffffffffffffffffffffff1690505f8173ffffffffffffffffffffffffffffffffffffffff166370a08231306040518263ffffffff1660e01b815260040161080291906112bb565b602060405180830381865afa15801561081d573d5f5f3e3d5ffd5b505050506040513d601f19601f8201168201806040525081019061084191906113fb565b905082811015610886576040517f08c379a000000000000000000000000000000000000000000000000000000000815260040161087d906115a8565b60405180910390fd5b8173ffffffffffffffffffffffffffffffffffffffff1663a9059cbb5f5f9054906101000a900473ffffffffffffffffffffffffffffffffffffffff16856040518363ffffffff1660e01b81526004016108e19291906115c6565b6020604051808303815f875af11580156108fd573d5f5f3e3d5ffd5b505050506040513d601f19601f820116820180604052508101906109219190611617565b610960576040517f08c379a00000000000000000000000000000000000000000000000000000000081526004016109579061168c565b60405180910390fd5b5f5f9054906101000a900473ffffffffffffffffffffffffffffffffffffffff1673ffffffffffffffffffffffffffffffffffffffff167f6352c5382c4a4578e712449ca65e83cdb392d045dfcf1cad9615189db2da244b846040516109c6919061123e565b60405180910390a2505050565b5f5f9054906101000a900473ffffffffffffffffffffffffffffffffffffffff1681565b60015f9054906101000a900473ffffffffffffffffffffffffffffffffffffffff1681565b5f5f5f9054906101000a900473ffffffffffffffffffffffffffffffffffffffff1673ffffffffffffffffffffffffffffffffffffffff163373ffffffffffffffffffffffffffffffffffffffff1614610aab576040517f08c379a0000000000000000000000000000000000000000000000000000000008152600401610aa290611361565b60405180910390fd5b5f3411610aed576040517f08c379a0000000000000000000000000000000000000000000000000000000008152600401610ae4906116f4565b60405180910390fd5b5f60015f9054906101000a900473ffffffffffffffffffffffffffffffffffffffff1690505f8173ffffffffffffffffffffffffffffffffffffffff1663d0febe4c346040518263ffffffff1660e01b815260040160206040518083038185885af1158015610b5e573d5f5f3e3d5ffd5b50505050506040513d601f19601f82011682018060405250810190610b8391906113fb565b90507faaaa6e3bc80153b51330f05cf900a13fe42bc5d0d74ac0dffc07ab9b8ebb3cf681604051610bb4919061123e565b60405180910390a1809250505090565b60025481565b60035f3373ffffffffffffffffffffffffffffffffffffffff1673ffffffffffffffffffffffffffffffffffffffff1681526020019081526020015f205f9054906101000a900460ff16610c53576040517f08c379a0000000000000000000000000000000000000000000000000000000008152600401610c4a906113c9565b60405180910390fd5b3373ffffffffffffffffffffffffffffffffffffffff168173ffffffffffffffffffffffffffffffffffffffff1614610cc1576040517f08c379a0000000000000000000000000000000000000000000000000000000008152600401610cb89061175c565b60405180910390fd5b5f60015f9054906101000a900473ffffffffffffffffffffffffffffffffffffffff1690505f8173ffffffffffffffffffffffffffffffffffffffff166370a08231846040518263ffffffff1660e01b8152600401610d2091906112bb565b602060405180830381865afa158015610d3b573d5f5f3e3d5ffd5b505050506040513d601f19601f82011682018060405250810190610d5f91906113fb565b90505f606460025483610d7291906117a7565b610d7c9190611815565b90505f8373ffffffffffffffffffffffffffffffffffffffff166370a08231306040518263ffffffff1660e01b8152600401610db891906112bb565b602060405180830381865afa158015610dd3573d5f5f3e3d5ffd5b505050506040513d601f19601f82011682018060405250810190610df791906113fb565b9050818110158015610e0857505f82115b15610f1a578373ffffffffffffffffffffffffffffffffffffffff1663a9059cbb86846040518363ffffffff1660e01b8152600401610e489291906115c6565b6020604051808303815f875af1158015610e64573d5f5f3e3d5ffd5b505050506040513d601f19601f82011682018060405250810190610e889190611617565b610ec7576040517f08c379a0000000000000000000000000000000000000000000000000000000008152600401610ebe9061168c565b60405180910390fd5b8473ffffffffffffffffffffffffffffffffffffffff167f7661ea217478035e90bae67523e9e3cfc45cb3ffb77fe110fcfff561a7bdea6983604051610f0d919061123e565b60405180910390a2610f6b565b8473ffffffffffffffffffffffffffffffffffffffff167f1cda4d9606bff94fbe49ed061650c09fe416854c544c149c86812ca174ecac898383604051610f62929190611845565b60405180910390a25b5050505050565b5f5f9054906101000a900473ffffffffffffffffffffffffffffffffffffffff1673ffffffffffffffffffffffffffffffffffffffff163373ffffffffffffffffffffffffffffffffffffffff1614611000576040517f08c379a0000000000000000000000000000000000000000000000000000000008152600401610ff790611361565b60405180910390fd5b5f4790505f8111611046576040517f08c379a000000000000000000000000000000000000000000000000000000000815260040161103d906118b6565b60405180910390fd5b5f5f5f9054906101000a900473ffffffffffffffffffffffffffffffffffffffff1673ffffffffffffffffffffffffffffffffffffffff168260405161108b90611901565b5f6040518083038185875af1925050503d805f81146110c5576040519150601f19603f3d011682016040523d82523d5f602084013e6110ca565b606091505b505090508061110e576040517f08c379a00000000000000000000000000000000000000000000000000000000081526004016111059061195f565b60405180910390fd5b5f5f9054906101000a900473ffffffffffffffffffffffffffffffffffffffff1673ffffffffffffffffffffffffffffffffffffffff167f94b2de810873337ed265c5f8cf98c9cffefa06b8607f9a2f1fbaebdfbcfbef1c83604051611174919061123e565b60405180910390a25050565b6003602052805f5260405f205f915054906101000a900460ff1681565b5f5ffd5b5f73ffffffffffffffffffffffffffffffffffffffff82169050919050565b5f6111ca826111a1565b9050919050565b6111da816111c0565b81146111e4575f5ffd5b50565b5f813590506111f5816111d1565b92915050565b5f602082840312156112105761120f61119d565b5b5f61121d848285016111e7565b91505092915050565b5f819050919050565b61123881611226565b82525050565b5f6020820190506112515f83018461122f565b92915050565b61126081611226565b811461126a575f5ffd5b50565b5f8135905061127b81611257565b92915050565b5f602082840312156112965761129561119d565b5b5f6112a38482850161126d565b91505092915050565b6112b5816111c0565b82525050565b5f6020820190506112ce5f8301846112ac565b92915050565b5f8115159050919050565b6112e8816112d4565b82525050565b5f6020820190506113015f8301846112df565b92915050565b5f82825260208201905092915050565b7f4f6e6c79206f776e6572000000000000000000000000000000000000000000005f82015250565b5f61134b600a83611307565b915061135682611317565b602082019050919050565b5f6020820190508181035f8301526113788161133f565b9050919050565b7f4e6f7420617574686f72697a65640000000000000000000000000000000000005f82015250565b5f6113b3600e83611307565b91506113be8261137f565b602082019050919050565b5f6020820190508181035f8301526113e0816113a7565b9050919050565b5f815190506113f581611257565b92915050565b5f602082840312156114105761140f61119d565b5b5f61141d848285016113e7565b91505092915050565b7f496e76616c6964206164647265737300000000000000000000000000000000005f82015250565b5f61145a600f83611307565b915061146582611426565b602082019050919050565b5f6020820190508181035f8301526114878161144e565b9050919050565b7f416c726561647920617574686f72697a656400000000000000000000000000005f82015250565b5f6114c2601283611307565b91506114cd8261148e565b602082019050919050565b5f6020820190508181035f8301526114ef816114b6565b9050919050565b7f496e76616c696420616d6f756e740000000000000000000000000000000000005f82015250565b5f61152a600e83611307565b9150611535826114f6565b602082019050919050565b5f6020820190508181035f8301526115578161151e565b9050919050565b7f496e73756666696369656e742062616c616e63650000000000000000000000005f82015250565b5f611592601483611307565b915061159d8261155e565b602082019050919050565b5f6020820190508181035f8301526115bf81611586565b9050919050565b5f6040820190506115d95f8301856112ac565b6115e6602083018461122f565b9392505050565b6115f6816112d4565b8114611600575f5ffd5b50565b5f81519050611611816115ed565b92915050565b5f6020828403121561162c5761162b61119d565b5b5f61163984828501611603565b91505092915050565b7f5472616e73666572206661696c656400000000000000000000000000000000005f82015250565b5f611676600f83611307565b915061168182611642565b602082019050919050565b5f6020820190508181035f8301526116a38161166a565b9050919050565b7f53656e64204554480000000000000000000000000000000000000000000000005f82015250565b5f6116de600883611307565b91506116e9826116aa565b602082019050919050565b5f6020820190508181035f83015261170b816116d2565b9050919050565b7f496e76616c69642063616c6c65720000000000000000000000000000000000005f82015250565b5f611746600e83611307565b915061175182611712565b602082019050919050565b5f6020820190508181035f8301526117738161173a565b9050919050565b7f4e487b71000000000000000000000000000000000000000000000000000000005f52601160045260245ffd5b5f6117b182611226565b91506117bc83611226565b92508282026117ca81611226565b915082820484148315176117e1576117e061177a565b5b5092915050565b7f4e487b71000000000000000000000000000000000000000000000000000000005f52601260045260245ffd5b5f61181f82611226565b915061182a83611226565b92508261183a576118396117e8565b5b828204905092915050565b5f6040820190506118585f83018561122f565b611865602083018461122f565b9392505050565b7f4e6f2045544820746f20776974686472617700000000000000000000000000005f82015250565b5f6118a0601283611307565b91506118ab8261186c565b602082019050919050565b5f6020820190508181035f8301526118cd81611894565b9050919050565b5f81905092915050565b50565b5f6118ec5f836118d4565b91506118f7826118de565b5f82019050919050565b5f61190b826118e1565b9150819050919050565b7f455448207472616e73666572206661696c6564000000000000000000000000005f82015250565b5f611949601383611307565b915061195482611915565b602082019050919050565b5f6020820190508181035f8301526119768161193d565b905091905056fea26469706673582212203acda8cec4c08a4805594796a80a9b70066874119622ce867d555a077d17f62264736f6c634300081f0033",
					"opcodes": "PUSH1 0x80 PUSH1 0x40 MSTORE CALLVALUE DUP1 ISZERO PUSH2 0xF JUMPI PUSH0 PUSH0 REVERT JUMPDEST POP PUSH1 0x40 MLOAD PUSH2 0x1CEA CODESIZE SUB DUP1 PUSH2 0x1CEA DUP4 CODECOPY DUP2 DUP2 ADD PUSH1 0x40 MSTORE DUP2 ADD SWAP1 PUSH2 0x31 SWAP2 SWAP1 PUSH2 0x20C JUMP JUMPDEST PUSH0 PUSH20 0xFFFFFFFFFFFFFFFFFFFFFFFFFFFFFFFFFFFFFFFF AND DUP3 PUSH20 0xFFFFFFFFFFFFFFFFFFFFFFFFFFFFFFFFFFFFFFFF AND SUB PUSH2 0x9F JUMPI PUSH1 0x40 MLOAD PUSH32 0x8C379A000000000000000000000000000000000000000000000000000000000 DUP2 MSTORE PUSH1 0x4 ADD PUSH2 0x96 SWAP1 PUSH2 0x2A4 JUMP JUMPDEST PUSH1 0x40 MLOAD DUP1 SWAP2 SUB SWAP1 REVERT JUMPDEST PUSH0 DUP2 GT DUP1 ISZERO PUSH2 0xAF JUMPI POP PUSH1 0x64 DUP2 GT ISZERO JUMPDEST PUSH2 0xEE JUMPI PUSH1 0x40 MLOAD PUSH32 0x8C379A000000000000000000000000000000000000000000000000000000000 DUP2 MSTORE PUSH1 0x4 ADD PUSH2 0xE5 SWAP1 PUSH2 0x30C JUMP JUMPDEST PUSH1 0x40 MLOAD DUP1 SWAP2 SUB SWAP1 REVERT JUMPDEST CALLER PUSH0 PUSH0 PUSH2 0x100 EXP DUP2 SLOAD DUP2 PUSH20 0xFFFFFFFFFFFFFFFFFFFFFFFFFFFFFFFFFFFFFFFF MUL NOT AND SWAP1 DUP4 PUSH20 0xFFFFFFFFFFFFFFFFFFFFFFFFFFFFFFFFFFFFFFFF AND MUL OR SWAP1 SSTORE POP DUP2 PUSH1 0x1 PUSH0 PUSH2 0x100 EXP DUP2 SLOAD DUP2 PUSH20 0xFFFFFFFFFFFFFFFFFFFFFFFFFFFFFFFFFFFFFFFF MUL NOT AND SWAP1 DUP4 PUSH20 0xFFFFFFFFFFFFFFFFFFFFFFFFFFFFFFFFFFFFFFFF AND MUL OR SWAP1 SSTORE POP DUP1 PUSH1 0x2 DUP2 SWAP1 SSTORE POP POP POP PUSH2 0x32A JUMP JUMPDEST PUSH0 PUSH0 REVERT JUMPDEST PUSH0 PUSH20 0xFFFFFFFFFFFFFFFFFFFFFFFFFFFFFFFFFFFFFFFF DUP3 AND SWAP1 POP SWAP2 SWAP1 POP JUMP JUMPDEST PUSH0 PUSH2 0x1A8 DUP3 PUSH2 0x17F JUMP JUMPDEST SWAP1 POP SWAP2 SWAP1 POP JUMP JUMPDEST PUSH2 0x1B8 DUP2 PUSH2 0x19E JUMP JUMPDEST DUP2 EQ PUSH2 0x1C2 JUMPI PUSH0 PUSH0 REVERT JUMPDEST POP JUMP JUMPDEST PUSH0 DUP2 MLOAD SWAP1 POP PUSH2 0x1D3 DUP2 PUSH2 0x1AF JUMP JUMPDEST SWAP3 SWAP2 POP POP JUMP JUMPDEST PUSH0 DUP2 SWAP1 POP SWAP2 SWAP1 POP JUMP JUMPDEST PUSH2 0x1EB DUP2 PUSH2 0x1D9 JUMP JUMPDEST DUP2 EQ PUSH2 0x1F5 JUMPI PUSH0 PUSH0 REVERT JUMPDEST POP JUMP JUMPDEST PUSH0 DUP2 MLOAD SWAP1 POP PUSH2 0x206 DUP2 PUSH2 0x1E2 JUMP JUMPDEST SWAP3 SWAP2 POP POP JUMP JUMPDEST PUSH0 PUSH0 PUSH1 0x40 DUP4 DUP6 SUB SLT ISZERO PUSH2 0x222 JUMPI PUSH2 0x221 PUSH2 0x17B JUMP JUMPDEST JUMPDEST PUSH0 PUSH2 0x22F DUP6 DUP3 DUP7 ADD PUSH2 0x1C5 JUMP JUMPDEST SWAP3 POP POP PUSH1 0x20 PUSH2 0x240 DUP6 DUP3 DUP7 ADD PUSH2 0x1F8 JUMP JUMPDEST SWAP2 POP POP SWAP3 POP SWAP3 SWAP1 POP JUMP JUMPDEST PUSH0 DUP3 DUP3 MSTORE PUSH1 0x20 DUP3 ADD SWAP1 POP SWAP3 SWAP2 POP POP JUMP JUMPDEST PUSH32 0x496E76616C696420746F6B656E00000000000000000000000000000000000000 PUSH0 DUP3 ADD MSTORE POP JUMP JUMPDEST PUSH0 PUSH2 0x28E PUSH1 0xD DUP4 PUSH2 0x24A JUMP JUMPDEST SWAP2 POP PUSH2 0x299 DUP3 PUSH2 0x25A JUMP JUMPDEST PUSH1 0x20 DUP3 ADD SWAP1 POP SWAP2 SWAP1 POP JUMP JUMPDEST PUSH0 PUSH1 0x20 DUP3 ADD SWAP1 POP DUP2 DUP2 SUB PUSH0 DUP4 ADD MSTORE PUSH2 0x2BB DUP2 PUSH2 0x282 JUMP JUMPDEST SWAP1 POP SWAP2 SWAP1 POP JUMP JUMPDEST PUSH32 0x496E76616C69642070657263656E746167650000000000000000000000000000 PUSH0 DUP3 ADD MSTORE POP JUMP JUMPDEST PUSH0 PUSH2 0x2F6 PUSH1 0x12 DUP4 PUSH2 0x24A JUMP JUMPDEST SWAP2 POP PUSH2 0x301 DUP3 PUSH2 0x2C2 JUMP JUMPDEST PUSH1 0x20 DUP3 ADD SWAP1 POP SWAP2 SWAP1 POP JUMP JUMPDEST PUSH0 PUSH1 0x20 DUP3 ADD SWAP1 POP DUP2 DUP2 SUB PUSH0 DUP4 ADD MSTORE PUSH2 0x323 DUP2 PUSH2 0x2EA JUMP JUMPDEST SWAP1 POP SWAP2 SWAP1 POP JUMP JUMPDEST PUSH2 0x19B3 DUP1 PUSH2 0x337 PUSH0 CODECOPY PUSH0 RETURN INVALID PUSH1 0x80 PUSH1 0x40 MSTORE PUSH1 0x4 CALLDATASIZE LT PUSH2 0x9F JUMPI PUSH0 CALLDATALOAD PUSH1 0xE0 SHR DUP1 PUSH4 0x9D76EA58 GT PUSH2 0x63 JUMPI DUP1 PUSH4 0x9D76EA58 EQ PUSH2 0x176 JUMPI DUP1 PUSH4 0xBFDC3EC6 EQ PUSH2 0x1A0 JUMPI DUP1 PUSH4 0xC5189787 EQ PUSH2 0x1BE JUMPI DUP1 PUSH4 0xC5D9B404 EQ PUSH2 0x1E8 JUMPI DUP1 PUSH4 0xE086E5EC EQ PUSH2 0x210 JUMPI DUP1 PUSH4 0xEE868825 EQ PUSH2 0x226 JUMPI PUSH2 0xA6 JUMP JUMPDEST DUP1 PUSH4 0xB54FA79 EQ PUSH2 0xAA JUMPI DUP1 PUSH4 0x12065FE0 EQ PUSH2 0xD2 JUMPI DUP1 PUSH4 0x16504B93 EQ PUSH2 0xFC JUMPI DUP1 PUSH4 0x315A095D EQ PUSH2 0x124 JUMPI DUP1 PUSH4 0x8DA5CB5B EQ PUSH2 0x14C JUMPI PUSH2 0xA6 JUMP JUMPDEST CALLDATASIZE PUSH2 0xA6 JUMPI STOP JUMPDEST PUSH0 PUSH0 REVERT JUMPDEST CALLVALUE DUP1 ISZERO PUSH2 0xB5 JUMPI PUSH0 PUSH0 REVERT JUMPDEST POP PUSH2 0xD0 PUSH1 0x4 DUP1 CALLDATASIZE SUB DUP2 ADD SWAP1 PUSH2 0xCB SWAP2 SWAP1 PUSH2 0x11FB JUMP JUMPDEST PUSH2 0x262 JUMP JUMPDEST STOP JUMPDEST CALLVALUE DUP1 ISZERO PUSH2 0xDD JUMPI PUSH0 PUSH0 REVERT JUMPDEST POP PUSH2 0xE6 PUSH2 0x413 JUMP JUMPDEST PUSH1 0x40 MLOAD PUSH2 0xF3 SWAP2 SWAP1 PUSH2 0x123E JUMP JUMPDEST PUSH1 0x40 MLOAD DUP1 SWAP2 SUB SWAP1 RETURN JUMPDEST CALLVALUE DUP1 ISZERO PUSH2 0x107 JUMPI PUSH0 PUSH0 REVERT JUMPDEST POP PUSH2 0x122 PUSH1 0x4 DUP1 CALLDATASIZE SUB DUP2 ADD SWAP1 PUSH2 0x11D SWAP2 SWAP1 PUSH2 0x11FB JUMP JUMPDEST PUSH2 0x4B2 JUMP JUMPDEST STOP JUMPDEST CALLVALUE DUP1 ISZERO PUSH2 0x12F JUMPI PUSH0 PUSH0 REVERT JUMPDEST POP PUSH2 0x14A PUSH1 0x4 DUP1 CALLDATASIZE SUB DUP2 ADD SWAP1 PUSH2 0x145 SWAP2 SWAP1 PUSH2 0x1281 JUMP JUMPDEST PUSH2 0x6D3 JUMP JUMPDEST STOP JUMPDEST CALLVALUE DUP1 ISZERO PUSH2 0x157 JUMPI PUSH0 PUSH0 REVERT JUMPDEST POP PUSH2 0x160 PUSH2 0x9D3 JUMP JUMPDEST PUSH1 0x40 MLOAD PUSH2 0x16D SWAP2 SWAP1 PUSH2 0x12BB JUMP JUMPDEST PUSH1 0x40 MLOAD DUP1 SWAP2 SUB SWAP1 RETURN JUMPDEST CALLVALUE DUP1 ISZERO PUSH2 0x181 JUMPI PUSH0 PUSH0 REVERT JUMPDEST POP PUSH2 0x18A PUSH2 0x9F7 JUMP JUMPDEST PUSH1 0x40 MLOAD PUSH2 0x197 SWAP2 SWAP1 PUSH2 0x12BB JUMP JUMPDEST PUSH1 0x40 MLOAD DUP1 SWAP2 SUB SWAP1 RETURN JUMPDEST PUSH2 0x1A8 PUSH2 0xA1C JUMP JUMPDEST PUSH1 0x40 MLOAD PUSH2 0x1B5 SWAP2 SWAP1 PUSH2 0x123E JUMP JUMPDEST PUSH1 0x40 MLOAD DUP1 SWAP2 SUB SWAP1 RETURN JUMPDEST CALLVALUE DUP1 ISZERO PUSH2 0x1C9 JUMPI PUSH0 PUSH0 REVERT JUMPDEST POP PUSH2 0x1D2 PUSH2 0xBC4 JUMP JUMPDEST PUSH1 0x40 MLOAD PUSH2 0x1DF SWAP2 SWAP1 PUSH2 0x123E JUMP JUMPDEST PUSH1 0x40 MLOAD DUP1 SWAP2 SUB SWAP1 RETURN JUMPDEST CALLVALUE DUP1 ISZERO PUSH2 0x1F3 JUMPI PUSH0 PUSH0 REVERT JUMPDEST POP PUSH2 0x20E PUSH1 0x4 DUP1 CALLDATASIZE SUB DUP2 ADD SWAP1 PUSH2 0x209 SWAP2 SWAP1 PUSH2 0x11FB JUMP JUMPDEST PUSH2 0xBCA JUMP JUMPDEST STOP JUMPDEST CALLVALUE DUP1 ISZERO PUSH2 0x21B JUMPI PUSH0 PUSH0 REVERT JUMPDEST POP PUSH2 0x224 PUSH2 0xF72 JUMP JUMPDEST STOP JUMPDEST CALLVALUE DUP1 ISZERO PUSH2 0x231 JUMPI PUSH0 PUSH0 REVERT JUMPDEST POP PUSH2 0x24C PUSH1 0x4 DUP1 CALLDATASIZE SUB DUP2 ADD SWAP1 PUSH2 0x247 SWAP2 SWAP1 PUSH2 0x11FB JUMP JUMPDEST PUSH2 0x1180 JUMP JUMPDEST PUSH1 0x40 MLOAD PUSH2 0x259 SWAP2 SWAP1 PUSH2 0x12EE JUMP JUMPDEST PUSH1 0x40 MLOAD DUP1 SWAP2 SUB SWAP1 RETURN JUMPDEST PUSH0 PUSH0 SWAP1 SLOAD SWAP1 PUSH2 0x100 EXP SWAP1 DIV PUSH20 0xFFFFFFFFFFFFFFFFFFFFFFFFFFFFFFFFFFFFFFFF AND PUSH20 0xFFFFFFFFFFFFFFFFFFFFFFFFFFFFFFFFFFFFFFFF AND CALLER PUSH20 0xFFFFFFFFFFFFFFFFFFFFFFFFFFFFFFFFFFFFFFFF AND EQ PUSH2 0x2F0 JUMPI PUSH1 0x40 MLOAD PUSH32 0x8C379A000000000000000000000000000000000000000000000000000000000 DUP2 MSTORE PUSH1 0x4 ADD PUSH2 0x2E7 SWAP1 PUSH2 0x1361 JUMP JUMPDEST PUSH1 0x40 MLOAD DUP1 SWAP2 SUB SWAP1 REVERT JUMPDEST PUSH1 0x3 PUSH0 DUP3 PUSH20 0xFFFFFFFFFFFFFFFFFFFFFFFFFFFFFFFFFFFFFFFF AND PUSH20 0xFFFFFFFFFFFFFFFFFFFFFFFFFFFFFFFFFFFFFFFF AND DUP2 MSTORE PUSH1 0x20 ADD SWAP1 DUP2 MSTORE PUSH1 0x20 ADD PUSH0 KECCAK256 PUSH0 SWAP1 SLOAD SWAP1 PUSH2 0x100 EXP SWAP1 DIV PUSH1 0xFF AND PUSH2 0x379 JUMPI PUSH1 0x40 MLOAD PUSH32 0x8C379A000000000000000000000000000000000000000000000000000000000 DUP2 MSTORE PUSH1 0x4 ADD PUSH2 0x370 SWAP1 PUSH2 0x13C9 JUMP JUMPDEST PUSH1 0x40 MLOAD DUP1 SWAP2 SUB SWAP1 REVERT JUMPDEST PUSH0 PUSH1 0x3 PUSH0 DUP4 PUSH20 0xFFFFFFFFFFFFFFFFFFFFFFFFFFFFFFFFFFFFFFFF AND PUSH20 0xFFFFFFFFFFFFFFFFFFFFFFFFFFFFFFFFFFFFFFFF AND DUP2 MSTORE PUSH1 0x20 ADD SWAP1 DUP2 MSTORE PUSH1 0x20 ADD PUSH0 KECCAK256 PUSH0 PUSH2 0x100 EXP DUP2 SLOAD DUP2 PUSH1 0xFF MUL NOT AND SWAP1 DUP4 ISZERO ISZERO MUL OR SWAP1 SSTORE POP DUP1 PUSH20 0xFFFFFFFFFFFFFFFFFFFFFFFFFFFFFFFFFFFFFFFF AND PUSH32 0x2BE66B7F49755E7B76CBCF2B0226CA0FD6B9287026872D18BDF8D9FE77BD84E1 PUSH1 0x40 MLOAD PUSH1 0x40 MLOAD DUP1 SWAP2 SUB SWAP1 LOG2 POP JUMP JUMPDEST PUSH0 PUSH1 0x1 PUSH0 SWAP1 SLOAD SWAP1 PUSH2 0x100 EXP SWAP1 DIV PUSH20 0xFFFFFFFFFFFFFFFFFFFFFFFFFFFFFFFFFFFFFFFF AND PUSH20 0xFFFFFFFFFFFFFFFFFFFFFFFFFFFFFFFFFFFFFFFF AND PUSH4 0x70A08231 ADDRESS PUSH1 0x40 MLOAD DUP3 PUSH4 0xFFFFFFFF AND PUSH1 0xE0 SHL DUP2 MSTORE PUSH1 0x4 ADD PUSH2 0x46E SWAP2 SWAP1 PUSH2 0x12BB JUMP JUMPDEST PUSH1 0x20 PUSH1 0x40 MLOAD DUP1 DUP4 SUB DUP2 DUP7 GAS STATICCALL ISZERO DUP1 ISZERO PUSH2 0x489 JUMPI RETURNDATASIZE PUSH0 PUSH0 RETURNDATACOPY RETURNDATASIZE PUSH0 REVERT JUMPDEST POP POP POP POP PUSH1 0x40 MLOAD RETURNDATASIZE PUSH1 0x1F NOT PUSH1 0x1F DUP3 ADD AND DUP3 ADD DUP1 PUSH1 0x40 MSTORE POP DUP2 ADD SWAP1 PUSH2 0x4AD SWAP2 SWAP1 PUSH2 0x13FB JUMP JUMPDEST SWAP1 POP SWAP1 JUMP JUMPDEST PUSH0 PUSH0 SWAP1 SLOAD SWAP1 PUSH2 0x100 EXP SWAP1 DIV PUSH20 0xFFFFFFFFFFFFFFFFFFFFFFFFFFFFFFFFFFFFFFFF AND PUSH20 0xFFFFFFFFFFFFFFFFFFFFFFFFFFFFFFFFFFFFFFFF AND CALLER PUSH20 0xFFFFFFFFFFFFFFFFFFFFFFFFFFFFFFFFFFFFFFFF AND EQ PUSH2 0x540 JUMPI PUSH1 0x40 MLOAD PUSH32 0x8C379A000000000000000000000000000000000000000000000000000000000 DUP2 MSTORE PUSH1 0x4 ADD PUSH2 0x537 SWAP1 PUSH2 0x1361 JUMP JUMPDEST PUSH1 0x40 MLOAD DUP1 SWAP2 SUB SWAP1 REVERT JUMPDEST PUSH0 PUSH20 0xFFFFFFFFFFFFFFFFFFFFFFFFFFFFFFFFFFFFFFFF AND DUP2 PUSH20 0xFFFFFFFFFFFFFFFFFFFFFFFFFFFFFFFFFFFFFFFF AND SUB PUSH2 0x5AE JUMPI PUSH1 0x40 MLOAD PUSH32 0x8C379A000000000000000000000000000000000000000000000000000000000 DUP2 MSTORE PUSH1 0x4 ADD PUSH2 0x5A5 SWAP1 PUSH2 0x1470 JUMP JUMPDEST PUSH1 0x40 MLOAD DUP1 SWAP2 SUB SWAP1 REVERT JUMPDEST PUSH1 0x3 PUSH0 DUP3 PUSH20 0xFFFFFFFFFFFFFFFFFFFFFFFFFFFFFFFFFFFFFFFF AND PUSH20 0xFFFFFFFFFFFFFFFFFFFFFFFFFFFFFFFFFFFFFFFF AND DUP2 MSTORE PUSH1 0x20 ADD SWAP1 DUP2 MSTORE PUSH1 0x20 ADD PUSH0 KECCAK256 PUSH0 SWAP1 SLOAD SWAP1 PUSH2 0x100 EXP SWAP1 DIV PUSH1 0xFF AND ISZERO PUSH2 0x638 JUMPI PUSH1 0x40 MLOAD PUSH32 0x8C379A000000000000000000000000000000000000000000000000000000000 DUP2 MSTORE PUSH1 0x4 ADD PUSH2 0x62F SWAP1 PUSH2 0x14D8 JUMP JUMPDEST PUSH1 0x40 MLOAD DUP1 SWAP2 SUB SWAP1 REVERT JUMPDEST PUSH1 0x1 PUSH1 0x3 PUSH0 DUP4 PUSH20 0xFFFFFFFFFFFFFFFFFFFFFFFFFFFFFFFFFFFFFFFF AND PUSH20 0xFFFFFFFFFFFFFFFFFFFFFFFFFFFFFFFFFFFFFFFF AND DUP2 MSTORE PUSH1 0x20 ADD SWAP1 DUP2 MSTORE PUSH1 0x20 ADD PUSH0 KECCAK256 PUSH0 PUSH2 0x100 EXP DUP2 SLOAD DUP2 PUSH1 0xFF MUL NOT AND SWAP1 DUP4 ISZERO ISZERO MUL OR SWAP1 SSTORE POP DUP1 PUSH20 0xFFFFFFFFFFFFFFFFFFFFFFFFFFFFFFFFFFFFFFFF AND PUSH32 0x52C01045FF4E409C91A6E61A686C9BE8D574C9C6ACB9DBA3B21B364E081A3752 PUSH1 0x40 MLOAD PUSH1 0x40 MLOAD DUP1 SWAP2 SUB SWAP1 LOG2 POP JUMP JUMPDEST PUSH0 PUSH0 SWAP1 SLOAD SWAP1 PUSH2 0x100 EXP SWAP1 DIV PUSH20 0xFFFFFFFFFFFFFFFFFFFFFFFFFFFFFFFFFFFFFFFF AND PUSH20 0xFFFFFFFFFFFFFFFFFFFFFFFFFFFFFFFFFFFFFFFF AND CALLER PUSH20 0xFFFFFFFFFFFFFFFFFFFFFFFFFFFFFFFFFFFFFFFF AND EQ PUSH2 0x761 JUMPI PUSH1 0x40 MLOAD PUSH32 0x8C379A000000000000000000000000000000000000000000000000000000000 DUP2 MSTORE PUSH1 0x4 ADD PUSH2 0x758 SWAP1 PUSH2 0x1361 JUMP JUMPDEST PUSH1 0x40 MLOAD DUP1 SWAP2 SUB SWAP1 REVERT JUMPDEST PUSH0 DUP2 GT PUSH2 0x7A3 JUMPI PUSH1 0x40 MLOAD PUSH32 0x8C379A000000000000000000000000000000000000000000000000000000000 DUP2 MSTORE PUSH1 0x4 ADD PUSH2 0x79A SWAP1 PUSH2 0x1540 JUMP JUMPDEST PUSH1 0x40 MLOAD DUP1 SWAP2 SUB SWAP1 REVERT JUMPDEST PUSH0 PUSH1 0x1 PUSH0 SWAP1 SLOAD SWAP1 PUSH2 0x100 EXP SWAP1 DIV PUSH20 0xFFFFFFFFFFFFFFFFFFFFFFFFFFFFFFFFFFFFFFFF AND SWAP1 POP PUSH0 DUP2 PUSH20 0xFFFFFFFFFFFFFFFFFFFFFFFFFFFFFFFFFFFFFFFF AND PUSH4 0x70A08231 ADDRESS PUSH1 0x40 MLOAD DUP3 PUSH4 0xFFFFFFFF AND PUSH1 0xE0 SHL DUP2 MSTORE PUSH1 0x4 ADD PUSH2 0x802 SWAP2 SWAP1 PUSH2 0x12BB JUMP JUMPDEST PUSH1 0x20 PUSH1 0x40 MLOAD DUP1 DUP4 SUB DUP2 DUP7 GAS STATICCALL ISZERO DUP1 ISZERO PUSH2 0x81D JUMPI RETURNDATASIZE PUSH0 PUSH0 RETURNDATACOPY RETURNDATASIZE PUSH0 REVERT JUMPDEST POP POP POP POP PUSH1 0x40 MLOAD RETURNDATASIZE PUSH1 0x1F NOT PUSH1 0x1F DUP3 ADD AND DUP3 ADD DUP1 PUSH1 0x40 MSTORE POP DUP2 ADD SWAP1 PUSH2 0x841 SWAP2 SWAP1 PUSH2 0x13FB JUMP JUMPDEST SWAP1 POP DUP3 DUP2 LT ISZERO PUSH2 0x886 JUMPI PUSH1 0x40 MLOAD PUSH32 0x8C379A000000000000000000000000000000000000000000000000000000000 DUP2 MSTORE PUSH1 0x4 ADD PUSH2 0x87D SWAP1 PUSH2 0x15A8 JUMP JUMPDEST PUSH1 0x40 MLOAD DUP1 SWAP2 SUB SWAP1 REVERT JUMPDEST DUP2 PUSH20 0xFFFFFFFFFFFFFFFFFFFFFFFFFFFFFFFFFFFFFFFF AND PUSH4 0xA9059CBB PUSH0 PUSH0 SWAP1 SLOAD SWAP1 PUSH2 0x100 EXP SWAP1 DIV PUSH20 0xFFFFFFFFFFFFFFFFFFFFFFFFFFFFFFFFFFFFFFFF AND DUP6 PUSH1 0x40 MLOAD DUP4 PUSH4 0xFFFFFFFF AND PUSH1 0xE0 SHL DUP2 MSTORE PUSH1 0x4 ADD PUSH2 0x8E1 SWAP3 SWAP2 SWAP1 PUSH2 0x15C6 JUMP JUMPDEST PUSH1 0x20 PUSH1 0x40 MLOAD DUP1 DUP4 SUB DUP2 PUSH0 DUP8 GAS CALL ISZERO DUP1 ISZERO PUSH2 0x8FD JUMPI RETURNDATASIZE PUSH0 PUSH0 RETURNDATACOPY RETURNDATASIZE PUSH0 REVERT JUMPDEST POP POP POP POP PUSH1 0x40 MLOAD RETURNDATASIZE PUSH1 0x1F NOT PUSH1 0x1F DUP3 ADD AND DUP3 ADD DUP1 PUSH1 0x40 MSTORE POP DUP2 ADD SWAP1 PUSH2 0x921 SWAP2 SWAP1 PUSH2 0x1617 JUMP JUMPDEST PUSH2 0x960 JUMPI PUSH1 0x40 MLOAD PUSH32 0x8C379A000000000000000000000000000000000000000000000000000000000 DUP2 MSTORE PUSH1 0x4 ADD PUSH2 0x957 SWAP1 PUSH2 0x168C JUMP JUMPDEST PUSH1 0x40 MLOAD DUP1 SWAP2 SUB SWAP1 REVERT JUMPDEST PUSH0 PUSH0 SWAP1 SLOAD SWAP1 PUSH2 0x100 EXP SWAP1 DIV PUSH20 0xFFFFFFFFFFFFFFFFFFFFFFFFFFFFFFFFFFFFFFFF AND PUSH20 0xFFFFFFFFFFFFFFFFFFFFFFFFFFFFFFFFFFFFFFFF AND PUSH32 0x6352C5382C4A4578E712449CA65E83CDB392D045DFCF1CAD9615189DB2DA244B DUP5 PUSH1 0x40 MLOAD PUSH2 0x9C6 SWAP2 SWAP1 PUSH2 0x123E JUMP JUMPDEST PUSH1 0x40 MLOAD DUP1 SWAP2 SUB SWAP1 LOG2 POP POP POP JUMP JUMPDEST PUSH0 PUSH0 SWAP1 SLOAD SWAP1 PUSH2 0x100 EXP SWAP1 DIV PUSH20 0xFFFFFFFFFFFFFFFFFFFFFFFFFFFFFFFFFFFFFFFF AND DUP2 JUMP JUMPDEST PUSH1 0x1 PUSH0 SWAP1 SLOAD SWAP1 PUSH2 0x100 EXP SWAP1 DIV PUSH20 0xFFFFFFFFFFFFFFFFFFFFFFFFFFFFFFFFFFFFFFFF AND DUP2 JUMP JUMPDEST PUSH0 PUSH0 PUSH0 SWAP1 SLOAD SWAP1 PUSH2 0x100 EXP SWAP1 DIV PUSH20 0xFFFFFFFFFFFFFFFFFFFFFFFFFFFFFFFFFFFFFFFF AND PUSH20 0xFFFFFFFFFFFFFFFFFFFFFFFFFFFFFFFFFFFFFFFF AND CALLER PUSH20 0xFFFFFFFFFFFFFFFFFFFFFFFFFFFFFFFFFFFFFFFF AND EQ PUSH2 0xAAB JUMPI PUSH1 0x40 MLOAD PUSH32 0x8C379A000000000000000000000000000000000000000000000000000000000 DUP2 MSTORE PUSH1 0x4 ADD PUSH2 0xAA2 SWAP1 PUSH2 0x1361 JUMP JUMPDEST PUSH1 0x40 MLOAD DUP1 SWAP2 SUB SWAP1 REVERT JUMPDEST PUSH0 CALLVALUE GT PUSH2 0xAED JUMPI PUSH1 0x40 MLOAD PUSH32 0x8C379A000000000000000000000000000000000000000000000000000000000 DUP2 MSTORE PUSH1 0x4 ADD PUSH2 0xAE4 SWAP1 PUSH2 0x16F4 JUMP JUMPDEST PUSH1 0x40 MLOAD DUP1 SWAP2 SUB SWAP1 REVERT JUMPDEST PUSH0 PUSH1 0x1 PUSH0 SWAP1 SLOAD SWAP1 PUSH2 0x100 EXP SWAP1 DIV PUSH20 0xFFFFFFFFFFFFFFFFFFFFFFFFFFFFFFFFFFFFFFFF AND SWAP1 POP PUSH0 DUP2 PUSH20 0xFFFFFFFFFFFFFFFFFFFFFFFFFFFFFFFFFFFFFFFF AND PUSH4 0xD0FEBE4C CALLVALUE PUSH1 0x40 MLOAD DUP3 PUSH4 0xFFFFFFFF AND PUSH1 0xE0 SHL DUP2 MSTORE PUSH1 0x4 ADD PUSH1 0x20 PUSH1 0x40 MLOAD DUP1 DUP4 SUB DUP2 DUP6 DUP9 GAS CALL ISZERO DUP1 ISZERO PUSH2 0xB5E JUMPI RETURNDATASIZE PUSH0 PUSH0 RETURNDATACOPY RETURNDATASIZE PUSH0 REVERT JUMPDEST POP POP POP POP POP PUSH1 0x40 MLOAD RETURNDATASIZE PUSH1 0x1F NOT PUSH1 0x1F DUP3 ADD AND DUP3 ADD DUP1 PUSH1 0x40 MSTORE POP DUP2 ADD SWAP1 PUSH2 0xB83 SWAP2 SWAP1 PUSH2 0x13FB JUMP JUMPDEST SWAP1 POP PUSH32 0xAAAA6E3BC80153B51330F05CF900A13FE42BC5D0D74AC0DFFC07AB9B8EBB3CF6 DUP2 PUSH1 0x40 MLOAD PUSH2 0xBB4 SWAP2 SWAP1 PUSH2 0x123E JUMP JUMPDEST PUSH1 0x40 MLOAD DUP1 SWAP2 SUB SWAP1 LOG1 DUP1 SWAP3 POP POP POP SWAP1 JUMP JUMPDEST PUSH1 0x2 SLOAD DUP2 JUMP JUMPDEST PUSH1 0x3 PUSH0 CALLER PUSH20 0xFFFFFFFFFFFFFFFFFFFFFFFFFFFFFFFFFFFFFFFF AND PUSH20 0xFFFFFFFFFFFFFFFFFFFFFFFFFFFFFFFFFFFFFFFF AND DUP2 MSTORE PUSH1 0x20 ADD SWAP1 DUP2 MSTORE PUSH1 0x20 ADD PUSH0 KECCAK256 PUSH0 SWAP1 SLOAD SWAP1 PUSH2 0x100 EXP SWAP1 DIV PUSH1 0xFF AND PUSH2 0xC53 JUMPI PUSH1 0x40 MLOAD PUSH32 0x8C379A000000000000000000000000000000000000000000000000000000000 DUP2 MSTORE PUSH1 0x4 ADD PUSH2 0xC4A SWAP1 PUSH2 0x13C9 JUMP JUMPDEST PUSH1 0x40 MLOAD DUP1 SWAP2 SUB SWAP1 REVERT JUMPDEST CALLER PUSH20 0xFFFFFFFFFFFFFFFFFFFFFFFFFFFFFFFFFFFFFFFF AND DUP2 PUSH20 0xFFFFFFFFFFFFFFFFFFFFFFFFFFFFFFFFFFFFFFFF AND EQ PUSH2 0xCC1 JUMPI PUSH1 0x40 MLOAD PUSH32 0x8C379A000000000000000000000000000000000000000000000000000000000 DUP2 MSTORE PUSH1 0x4 ADD PUSH2 0xCB8 SWAP1 PUSH2 0x175C JUMP JUMPDEST PUSH1 0x40 MLOAD DUP1 SWAP2 SUB SWAP1 REVERT JUMPDEST PUSH0 PUSH1 0x1 PUSH0 SWAP1 SLOAD SWAP1 PUSH2 0x100 EXP SWAP1 DIV PUSH20 0xFFFFFFFFFFFFFFFFFFFFFFFFFFFFFFFFFFFFFFFF AND SWAP1 POP PUSH0 DUP2 PUSH20 0xFFFFFFFFFFFFFFFFFFFFFFFFFFFFFFFFFFFFFFFF AND PUSH4 0x70A08231 DUP5 PUSH1 0x40 MLOAD DUP3 PUSH4 0xFFFFFFFF AND PUSH1 0xE0 SHL DUP2 MSTORE PUSH1 0x4 ADD PUSH2 0xD20 SWAP2 SWAP1 PUSH2 0x12BB JUMP JUMPDEST PUSH1 0x20 PUSH1 0x40 MLOAD DUP1 DUP4 SUB DUP2 DUP7 GAS STATICCALL ISZERO DUP1 ISZERO PUSH2 0xD3B JUMPI RETURNDATASIZE PUSH0 PUSH0 RETURNDATACOPY RETURNDATASIZE PUSH0 REVERT JUMPDEST POP POP POP POP PUSH1 0x40 MLOAD RETURNDATASIZE PUSH1 0x1F NOT PUSH1 0x1F DUP3 ADD AND DUP3 ADD DUP1 PUSH1 0x40 MSTORE POP DUP2 ADD SWAP1 PUSH2 0xD5F SWAP2 SWAP1 PUSH2 0x13FB JUMP JUMPDEST SWAP1 POP PUSH0 PUSH1 0x64 PUSH1 0x2 SLOAD DUP4 PUSH2 0xD72 SWAP2 SWAP1 PUSH2 0x17A7 JUMP JUMPDEST PUSH2 0xD7C SWAP2 SWAP1 PUSH2 0x1815 JUMP JUMPDEST SWAP1 POP PUSH0 DUP4 PUSH20 0xFFFFFFFFFFFFFFFFFFFFFFFFFFFFFFFFFFFFFFFF AND PUSH4 0x70A08231 ADDRESS PUSH1 0x40 MLOAD DUP3 PUSH4 0xFFFFFFFF AND PUSH1 0xE0 SHL DUP2 MSTORE PUSH1 0x4 ADD PUSH2 0xDB8 SWAP2 SWAP1 PUSH2 0x12BB JUMP JUMPDEST PUSH1 0x20 PUSH1 0x40 MLOAD DUP1 DUP4 SUB DUP2 DUP7 GAS STATICCALL ISZERO DUP1 ISZERO PUSH2 0xDD3 JUMPI RETURNDATASIZE PUSH0 PUSH0 RETURNDATACOPY RETURNDATASIZE PUSH0 REVERT JUMPDEST POP POP POP POP PUSH1 0x40 MLOAD RETURNDATASIZE PUSH1 0x1F NOT PUSH1 0x1F DUP3 ADD AND DUP3 ADD DUP1 PUSH1 0x40 MSTORE POP DUP2 ADD SWAP1 PUSH2 0xDF7 SWAP2 SWAP1 PUSH2 0x13FB JUMP JUMPDEST SWAP1 POP DUP2 DUP2 LT ISZERO DUP1 ISZERO PUSH2 0xE08 JUMPI POP PUSH0 DUP3 GT JUMPDEST ISZERO PUSH2 0xF1A JUMPI DUP4 PUSH20 0xFFFFFFFFFFFFFFFFFFFFFFFFFFFFFFFFFFFFFFFF AND PUSH4 0xA9059CBB DUP7 DUP5 PUSH1 0x40 MLOAD DUP4 PUSH4 0xFFFFFFFF AND PUSH1 0xE0 SHL DUP2 MSTORE PUSH1 0x4 ADD PUSH2 0xE48 SWAP3 SWAP2 SWAP1 PUSH2 0x15C6 JUMP JUMPDEST PUSH1 0x20 PUSH1 0x40 MLOAD DUP1 DUP4 SUB DUP2 PUSH0 DUP8 GAS CALL ISZERO DUP1 ISZERO PUSH2 0xE64 JUMPI RETURNDATASIZE PUSH0 PUSH0 RETURNDATACOPY RETURNDATASIZE PUSH0 REVERT JUMPDEST POP POP POP POP PUSH1 0x40 MLOAD RETURNDATASIZE PUSH1 0x1F NOT PUSH1 0x1F DUP3 ADD AND DUP3 ADD DUP1 PUSH1 0x40 MSTORE POP DUP2 ADD SWAP1 PUSH2 0xE88 SWAP2 SWAP1 PUSH2 0x1617 JUMP JUMPDEST PUSH2 0xEC7 JUMPI PUSH1 0x40 MLOAD PUSH32 0x8C379A000000000000000000000000000000000000000000000000000000000 DUP2 MSTORE PUSH1 0x4 ADD PUSH2 0xEBE SWAP1 PUSH2 0x168C JUMP JUMPDEST PUSH1 0x40 MLOAD DUP1 SWAP2 SUB SWAP1 REVERT JUMPDEST DUP5 PUSH20 0xFFFFFFFFFFFFFFFFFFFFFFFFFFFFFFFFFFFFFFFF AND PUSH32 0x7661EA217478035E90BAE67523E9E3CFC45CB3FFB77FE110FCFFF561A7BDEA69 DUP4 PUSH1 0x40 MLOAD PUSH2 0xF0D SWAP2 SWAP1 PUSH2 0x123E JUMP JUMPDEST PUSH1 0x40 MLOAD DUP1 SWAP2 SUB SWAP1 LOG2 PUSH2 0xF6B JUMP JUMPDEST DUP5 PUSH20 0xFFFFFFFFFFFFFFFFFFFFFFFFFFFFFFFFFFFFFFFF AND PUSH32 0x1CDA4D9606BFF94FBE49ED061650C09FE416854C544C149C86812CA174ECAC89 DUP4 DUP4 PUSH1 0x40 MLOAD PUSH2 0xF62 SWAP3 SWAP2 SWAP1 PUSH2 0x1845 JUMP JUMPDEST PUSH1 0x40 MLOAD DUP1 SWAP2 SUB SWAP1 LOG2 JUMPDEST POP POP POP POP POP JUMP JUMPDEST PUSH0 PUSH0 SWAP1 SLOAD SWAP1 PUSH2 0x100 EXP SWAP1 DIV PUSH20 0xFFFFFFFFFFFFFFFFFFFFFFFFFFFFFFFFFFFFFFFF AND PUSH20 0xFFFFFFFFFFFFFFFFFFFFFFFFFFFFFFFFFFFFFFFF AND CALLER PUSH20 0xFFFFFFFFFFFFFFFFFFFFFFFFFFFFFFFFFFFFFFFF AND EQ PUSH2 0x1000 JUMPI PUSH1 0x40 MLOAD PUSH32 0x8C379A000000000000000000000000000000000000000000000000000000000 DUP2 MSTORE PUSH1 0x4 ADD PUSH2 0xFF7 SWAP1 PUSH2 0x1361 JUMP JUMPDEST PUSH1 0x40 MLOAD DUP1 SWAP2 SUB SWAP1 REVERT JUMPDEST PUSH0 SELFBALANCE SWAP1 POP PUSH0 DUP2 GT PUSH2 0x1046 JUMPI PUSH1 0x40 MLOAD PUSH32 0x8C379A000000000000000000000000000000000000000000000000000000000 DUP2 MSTORE PUSH1 0x4 ADD PUSH2 0x103D SWAP1 PUSH2 0x18B6 JUMP JUMPDEST PUSH1 0x40 MLOAD DUP1 SWAP2 SUB SWAP1 REVERT JUMPDEST PUSH0 PUSH0 PUSH0 SWAP1 SLOAD SWAP1 PUSH2 0x100 EXP SWAP1 DIV PUSH20 0xFFFFFFFFFFFFFFFFFFFFFFFFFFFFFFFFFFFFFFFF AND PUSH20 0xFFFFFFFFFFFFFFFFFFFFFFFFFFFFFFFFFFFFFFFF AND DUP3 PUSH1 0x40 MLOAD PUSH2 0x108B SWAP1 PUSH2 0x1901 JUMP JUMPDEST PUSH0 PUSH1 0x40 MLOAD DUP1 DUP4 SUB DUP2 DUP6 DUP8 GAS CALL SWAP3 POP POP POP RETURNDATASIZE DUP1 PUSH0 DUP2 EQ PUSH2 0x10C5 JUMPI PUSH1 0x40 MLOAD SWAP2 POP PUSH1 0x1F NOT PUSH1 0x3F RETURNDATASIZE ADD AND DUP3 ADD PUSH1 0x40 MSTORE RETURNDATASIZE DUP3 MSTORE RETURNDATASIZE PUSH0 PUSH1 0x20 DUP5 ADD RETURNDATACOPY PUSH2 0x10CA JUMP JUMPDEST PUSH1 0x60 SWAP2 POP JUMPDEST POP POP SWAP1 POP DUP1 PUSH2 0x110E JUMPI PUSH1 0x40 MLOAD PUSH32 0x8C379A000000000000000000000000000000000000000000000000000000000 DUP2 MSTORE PUSH1 0x4 ADD PUSH2 0x1105 SWAP1 PUSH2 0x195F JUMP JUMPDEST PUSH1 0x40 MLOAD DUP1 SWAP2 SUB SWAP1 REVERT JUMPDEST PUSH0 PUSH0 SWAP1 SLOAD SWAP1 PUSH2 0x100 EXP SWAP1 DIV PUSH20 0xFFFFFFFFFFFFFFFFFFFFFFFFFFFFFFFFFFFFFFFF AND PUSH20 0xFFFFFFFFFFFFFFFFFFFFFFFFFFFFFFFFFFFFFFFF AND PUSH32 0x94B2DE810873337ED265C5F8CF98C9CFFEFA06B8607F9A2F1FBAEBDFBCFBEF1C DUP4 PUSH1 0x40 MLOAD PUSH2 0x1174 SWAP2 SWAP1 PUSH2 0x123E JUMP JUMPDEST PUSH1 0x40 MLOAD DUP1 SWAP2 SUB SWAP1 LOG2 POP POP JUMP JUMPDEST PUSH1 0x3 PUSH1 0x20 MSTORE DUP1 PUSH0 MSTORE PUSH1 0x40 PUSH0 KECCAK256 PUSH0 SWAP2 POP SLOAD SWAP1 PUSH2 0x100 EXP SWAP1 DIV PUSH1 0xFF AND DUP2 JUMP JUMPDEST PUSH0 PUSH0 REVERT JUMPDEST PUSH0 PUSH20 0xFFFFFFFFFFFFFFFFFFFFFFFFFFFFFFFFFFFFFFFF DUP3 AND SWAP1 POP SWAP2 SWAP1 POP JUMP JUMPDEST PUSH0 PUSH2 0x11CA DUP3 PUSH2 0x11A1 JUMP JUMPDEST SWAP1 POP SWAP2 SWAP1 POP JUMP JUMPDEST PUSH2 0x11DA DUP2 PUSH2 0x11C0 JUMP JUMPDEST DUP2 EQ PUSH2 0x11E4 JUMPI PUSH0 PUSH0 REVERT JUMPDEST POP JUMP JUMPDEST PUSH0 DUP2 CALLDATALOAD SWAP1 POP PUSH2 0x11F5 DUP2 PUSH2 0x11D1 JUMP JUMPDEST SWAP3 SWAP2 POP POP JUMP JUMPDEST PUSH0 PUSH1 0x20 DUP3 DUP5 SUB SLT ISZERO PUSH2 0x1210 JUMPI PUSH2 0x120F PUSH2 0x119D JUMP JUMPDEST JUMPDEST PUSH0 PUSH2 0x121D DUP5 DUP3 DUP6 ADD PUSH2 0x11E7 JUMP JUMPDEST SWAP2 POP POP SWAP3 SWAP2 POP POP JUMP JUMPDEST PUSH0 DUP2 SWAP1 POP SWAP2 SWAP1 POP JUMP JUMPDEST PUSH2 0x1238 DUP2 PUSH2 0x1226 JUMP JUMPDEST DUP3 MSTORE POP POP JUMP JUMPDEST PUSH0 PUSH1 0x20 DUP3 ADD SWAP1 POP PUSH2 0x1251 PUSH0 DUP4 ADD DUP5 PUSH2 0x122F JUMP JUMPDEST SWAP3 SWAP2 POP POP JUMP JUMPDEST PUSH2 0x1260 DUP2 PUSH2 0x1226 JUMP JUMPDEST DUP2 EQ PUSH2 0x126A JUMPI PUSH0 PUSH0 REVERT JUMPDEST POP JUMP JUMPDEST PUSH0 DUP2 CALLDATALOAD SWAP1 POP PUSH2 0x127B DUP2 PUSH2 0x1257 JUMP JUMPDEST SWAP3 SWAP2 POP POP JUMP JUMPDEST PUSH0 PUSH1 0x20 DUP3 DUP5 SUB SLT ISZERO PUSH2 0x1296 JUMPI PUSH2 0x1295 PUSH2 0x119D JUMP JUMPDEST JUMPDEST PUSH0 PUSH2 0x12A3 DUP5 DUP3 DUP6 ADD PUSH2 0x126D JUMP JUMPDEST SWAP2 POP POP SWAP3 SWAP2 POP POP JUMP JUMPDEST PUSH2 0x12B5 DUP2 PUSH2 0x11C0 JUMP JUMPDEST DUP3 MSTORE POP POP JUMP JUMPDEST PUSH0 PUSH1 0x20 DUP3 ADD SWAP1 POP PUSH2 0x12CE PUSH0 DUP4 ADD DUP5 PUSH2 0x12AC JUMP JUMPDEST SWAP3 SWAP2 POP POP JUMP JUMPDEST PUSH0 DUP2 ISZERO ISZERO SWAP1 POP SWAP2 SWAP1 POP JUMP JUMPDEST PUSH2 0x12E8 DUP2 PUSH2 0x12D4 JUMP JUMPDEST DUP3 MSTORE POP POP JUMP JUMPDEST PUSH0 PUSH1 0x20 DUP3 ADD SWAP1 POP PUSH2 0x1301 PUSH0 DUP4 ADD DUP5 PUSH2 0x12DF JUMP JUMPDEST SWAP3 SWAP2 POP POP JUMP JUMPDEST PUSH0 DUP3 DUP3 MSTORE PUSH1 0x20 DUP3 ADD SWAP1 POP SWAP3 SWAP2 POP POP JUMP JUMPDEST PUSH32 0x4F6E6C79206F776E657200000000000000000000000000000000000000000000 PUSH0 DUP3 ADD MSTORE POP JUMP JUMPDEST PUSH0 PUSH2 0x134B PUSH1 0xA DUP4 PUSH2 0x1307 JUMP JUMPDEST SWAP2 POP PUSH2 0x1356 DUP3 PUSH2 0x1317 JUMP JUMPDEST PUSH1 0x20 DUP3 ADD SWAP1 POP SWAP2 SWAP1 POP JUMP JUMPDEST PUSH0 PUSH1 0x20 DUP3 ADD SWAP1 POP DUP2 DUP2 SUB PUSH0 DUP4 ADD MSTORE PUSH2 0x1378 DUP2 PUSH2 0x133F JUMP JUMPDEST SWAP1 POP SWAP2 SWAP1 POP JUMP JUMPDEST PUSH32 0x4E6F7420617574686F72697A6564000000000000000000000000000000000000 PUSH0 DUP3 ADD MSTORE POP JUMP JUMPDEST PUSH0 PUSH2 0x13B3 PUSH1 0xE DUP4 PUSH2 0x1307 JUMP JUMPDEST SWAP2 POP PUSH2 0x13BE DUP3 PUSH2 0x137F JUMP JUMPDEST PUSH1 0x20 DUP3 ADD SWAP1 POP SWAP2 SWAP1 POP JUMP JUMPDEST PUSH0 PUSH1 0x20 DUP3 ADD SWAP1 POP DUP2 DUP2 SUB PUSH0 DUP4 ADD MSTORE PUSH2 0x13E0 DUP2 PUSH2 0x13A7 JUMP JUMPDEST SWAP1 POP SWAP2 SWAP1 POP JUMP JUMPDEST PUSH0 DUP2 MLOAD SWAP1 POP PUSH2 0x13F5 DUP2 PUSH2 0x1257 JUMP JUMPDEST SWAP3 SWAP2 POP POP JUMP JUMPDEST PUSH0 PUSH1 0x20 DUP3 DUP5 SUB SLT ISZERO PUSH2 0x1410 JUMPI PUSH2 0x140F PUSH2 0x119D JUMP JUMPDEST JUMPDEST PUSH0 PUSH2 0x141D DUP5 DUP3 DUP6 ADD PUSH2 0x13E7 JUMP JUMPDEST SWAP2 POP POP SWAP3 SWAP2 POP POP JUMP JUMPDEST PUSH32 0x496E76616C696420616464726573730000000000000000000000000000000000 PUSH0 DUP3 ADD MSTORE POP JUMP JUMPDEST PUSH0 PUSH2 0x145A PUSH1 0xF DUP4 PUSH2 0x1307 JUMP JUMPDEST SWAP2 POP PUSH2 0x1465 DUP3 PUSH2 0x1426 JUMP JUMPDEST PUSH1 0x20 DUP3 ADD SWAP1 POP SWAP2 SWAP1 POP JUMP JUMPDEST PUSH0 PUSH1 0x20 DUP3 ADD SWAP1 POP DUP2 DUP2 SUB PUSH0 DUP4 ADD MSTORE PUSH2 0x1487 DUP2 PUSH2 0x144E JUMP JUMPDEST SWAP1 POP SWAP2 SWAP1 POP JUMP JUMPDEST PUSH32 0x416C726561647920617574686F72697A65640000000000000000000000000000 PUSH0 DUP3 ADD MSTORE POP JUMP JUMPDEST PUSH0 PUSH2 0x14C2 PUSH1 0x12 DUP4 PUSH2 0x1307 JUMP JUMPDEST SWAP2 POP PUSH2 0x14CD DUP3 PUSH2 0x148E JUMP JUMPDEST PUSH1 0x20 DUP3 ADD SWAP1 POP SWAP2 SWAP1 POP JUMP JUMPDEST PUSH0 PUSH1 0x20 DUP3 ADD SWAP1 POP DUP2 DUP2 SUB PUSH0 DUP4 ADD MSTORE PUSH2 0x14EF DUP2 PUSH2 0x14B6 JUMP JUMPDEST SWAP1 POP SWAP2 SWAP1 POP JUMP JUMPDEST PUSH32 0x496E76616C696420616D6F756E74000000000000000000000000000000000000 PUSH0 DUP3 ADD MSTORE POP JUMP JUMPDEST PUSH0 PUSH2 0x152A PUSH1 0xE DUP4 PUSH2 0x1307 JUMP JUMPDEST SWAP2 POP PUSH2 0x1535 DUP3 PUSH2 0x14F6 JUMP JUMPDEST PUSH1 0x20 DUP3 ADD SWAP1 POP SWAP2 SWAP1 POP JUMP JUMPDEST PUSH0 PUSH1 0x20 DUP3 ADD SWAP1 POP DUP2 DUP2 SUB PUSH0 DUP4 ADD MSTORE PUSH2 0x1557 DUP2 PUSH2 0x151E JUMP JUMPDEST SWAP1 POP SWAP2 SWAP1 POP JUMP JUMPDEST PUSH32 0x496E73756666696369656E742062616C616E6365000000000000000000000000 PUSH0 DUP3 ADD MSTORE POP JUMP JUMPDEST PUSH0 PUSH2 0x1592 PUSH1 0x14 DUP4 PUSH2 0x1307 JUMP JUMPDEST SWAP2 POP PUSH2 0x159D DUP3 PUSH2 0x155E JUMP JUMPDEST PUSH1 0x20 DUP3 ADD SWAP1 POP SWAP2 SWAP1 POP JUMP JUMPDEST PUSH0 PUSH1 0x20 DUP3 ADD SWAP1 POP DUP2 DUP2 SUB PUSH0 DUP4 ADD MSTORE PUSH2 0x15BF DUP2 PUSH2 0x1586 JUMP JUMPDEST SWAP1 POP SWAP2 SWAP1 POP JUMP JUMPDEST PUSH0 PUSH1 0x40 DUP3 ADD SWAP1 POP PUSH2 0x15D9 PUSH0 DUP4 ADD DUP6 PUSH2 0x12AC JUMP JUMPDEST PUSH2 0x15E6 PUSH1 0x20 DUP4 ADD DUP5 PUSH2 0x122F JUMP JUMPDEST SWAP4 SWAP3 POP POP POP JUMP JUMPDEST PUSH2 0x15F6 DUP2 PUSH2 0x12D4 JUMP JUMPDEST DUP2 EQ PUSH2 0x1600 JUMPI PUSH0 PUSH0 REVERT JUMPDEST POP JUMP JUMPDEST PUSH0 DUP2 MLOAD SWAP1 POP PUSH2 0x1611 DUP2 PUSH2 0x15ED JUMP JUMPDEST SWAP3 SWAP2 POP POP JUMP JUMPDEST PUSH0 PUSH1 0x20 DUP3 DUP5 SUB SLT ISZERO PUSH2 0x162C JUMPI PUSH2 0x162B PUSH2 0x119D JUMP JUMPDEST JUMPDEST PUSH0 PUSH2 0x1639 DUP5 DUP3 DUP6 ADD PUSH2 0x1603 JUMP JUMPDEST SWAP2 POP POP SWAP3 SWAP2 POP POP JUMP JUMPDEST PUSH32 0x5472616E73666572206661696C65640000000000000000000000000000000000 PUSH0 DUP3 ADD MSTORE POP JUMP JUMPDEST PUSH0 PUSH2 0x1676 PUSH1 0xF DUP4 PUSH2 0x1307 JUMP JUMPDEST SWAP2 POP PUSH2 0x1681 DUP3 PUSH2 0x1642 JUMP JUMPDEST PUSH1 0x20 DUP3 ADD SWAP1 POP SWAP2 SWAP1 POP JUMP JUMPDEST PUSH0 PUSH1 0x20 DUP3 ADD SWAP1 POP DUP2 DUP2 SUB PUSH0 DUP4 ADD MSTORE PUSH2 0x16A3 DUP2 PUSH2 0x166A JUMP JUMPDEST SWAP1 POP SWAP2 SWAP1 POP JUMP JUMPDEST PUSH32 0x53656E6420455448000000000000000000000000000000000000000000000000 PUSH0 DUP3 ADD MSTORE POP JUMP JUMPDEST PUSH0 PUSH2 0x16DE PUSH1 0x8 DUP4 PUSH2 0x1307 JUMP JUMPDEST SWAP2 POP PUSH2 0x16E9 DUP3 PUSH2 0x16AA JUMP JUMPDEST PUSH1 0x20 DUP3 ADD SWAP1 POP SWAP2 SWAP1 POP JUMP JUMPDEST PUSH0 PUSH1 0x20 DUP3 ADD SWAP1 POP DUP2 DUP2 SUB PUSH0 DUP4 ADD MSTORE PUSH2 0x170B DUP2 PUSH2 0x16D2 JUMP JUMPDEST SWAP1 POP SWAP2 SWAP1 POP JUMP JUMPDEST PUSH32 0x496E76616C69642063616C6C6572000000000000000000000000000000000000 PUSH0 DUP3 ADD MSTORE POP JUMP JUMPDEST PUSH0 PUSH2 0x1746 PUSH1 0xE DUP4 PUSH2 0x1307 JUMP JUMPDEST SWAP2 POP PUSH2 0x1751 DUP3 PUSH2 0x1712 JUMP JUMPDEST PUSH1 0x20 DUP3 ADD SWAP1 POP SWAP2 SWAP1 POP JUMP JUMPDEST PUSH0 PUSH1 0x20 DUP3 ADD SWAP1 POP DUP2 DUP2 SUB PUSH0 DUP4 ADD MSTORE PUSH2 0x1773 DUP2 PUSH2 0x173A JUMP JUMPDEST SWAP1 POP SWAP2 SWAP1 POP JUMP JUMPDEST PUSH32 0x4E487B7100000000000000000000000000000000000000000000000000000000 PUSH0 MSTORE PUSH1 0x11 PUSH1 0x4 MSTORE PUSH1 0x24 PUSH0 REVERT JUMPDEST PUSH0 PUSH2 0x17B1 DUP3 PUSH2 0x1226 JUMP JUMPDEST SWAP2 POP PUSH2 0x17BC DUP4 PUSH2 0x1226 JUMP JUMPDEST SWAP3 POP DUP3 DUP3 MUL PUSH2 0x17CA DUP2 PUSH2 0x1226 JUMP JUMPDEST SWAP2 POP DUP3 DUP3 DIV DUP5 EQ DUP4 ISZERO OR PUSH2 0x17E1 JUMPI PUSH2 0x17E0 PUSH2 0x177A JUMP JUMPDEST JUMPDEST POP SWAP3 SWAP2 POP POP JUMP JUMPDEST PUSH32 0x4E487B7100000000000000000000000000000000000000000000000000000000 PUSH0 MSTORE PUSH1 0x12 PUSH1 0x4 MSTORE PUSH1 0x24 PUSH0 REVERT JUMPDEST PUSH0 PUSH2 0x181F DUP3 PUSH2 0x1226 JUMP JUMPDEST SWAP2 POP PUSH2 0x182A DUP4 PUSH2 0x1226 JUMP JUMPDEST SWAP3 POP DUP3 PUSH2 0x183A JUMPI PUSH2 0x1839 PUSH2 0x17E8 JUMP JUMPDEST JUMPDEST DUP3 DUP3 DIV SWAP1 POP SWAP3 SWAP2 POP POP JUMP JUMPDEST PUSH0 PUSH1 0x40 DUP3 ADD SWAP1 POP PUSH2 0x1858 PUSH0 DUP4 ADD DUP6 PUSH2 0x122F JUMP JUMPDEST PUSH2 0x1865 PUSH1 0x20 DUP4 ADD DUP5 PUSH2 0x122F JUMP JUMPDEST SWAP4 SWAP3 POP POP POP JUMP JUMPDEST PUSH32 0x4E6F2045544820746F2077697468647261770000000000000000000000000000 PUSH0 DUP3 ADD MSTORE POP JUMP JUMPDEST PUSH0 PUSH2 0x18A0 PUSH1 0x12 DUP4 PUSH2 0x1307 JUMP JUMPDEST SWAP2 POP PUSH2 0x18AB DUP3 PUSH2 0x186C JUMP JUMPDEST PUSH1 0x20 DUP3 ADD SWAP1 POP SWAP2 SWAP1 POP JUMP JUMPDEST PUSH0 PUSH1 0x20 DUP3 ADD SWAP1 POP DUP2 DUP2 SUB PUSH0 DUP4 ADD MSTORE PUSH2 0x18CD DUP2 PUSH2 0x1894 JUMP JUMPDEST SWAP1 POP SWAP2 SWAP1 POP JUMP JUMPDEST PUSH0 DUP2 SWAP1 POP SWAP3 SWAP2 POP POP JUMP JUMPDEST POP JUMP JUMPDEST PUSH0 PUSH2 0x18EC PUSH0 DUP4 PUSH2 0x18D4 JUMP JUMPDEST SWAP2 POP PUSH2 0x18F7 DUP3 PUSH2 0x18DE JUMP JUMPDEST PUSH0 DUP3 ADD SWAP1 POP SWAP2 SWAP1 POP JUMP JUMPDEST PUSH0 PUSH2 0x190B DUP3 PUSH2 0x18E1 JUMP JUMPDEST SWAP2 POP DUP2 SWAP1 POP SWAP2 SWAP1 POP JUMP JUMPDEST PUSH32 0x455448207472616E73666572206661696C656400000000000000000000000000 PUSH0 DUP3 ADD MSTORE POP JUMP JUMPDEST PUSH0 PUSH2 0x1949 PUSH1 0x13 DUP4 PUSH2 0x1307 JUMP JUMPDEST SWAP2 POP PUSH2 0x1954 DUP3 PUSH2 0x1915 JUMP JUMPDEST PUSH1 0x20 DUP3 ADD SWAP1 POP SWAP2 SWAP1 POP JUMP JUMPDEST PUSH0 PUSH1 0x20 DUP3 ADD SWAP1 POP DUP2 DUP2 SUB PUSH0 DUP4 ADD MSTORE PUSH2 0x1976 DUP2 PUSH2 0x193D JUMP JUMPDEST SWAP1 POP SWAP2 SWAP1 POP JUMP INVALID LOG2 PUSH5 0x6970667358 0x22 SLT KECCAK256 GASPRICE 0xCD 0xA8 0xCE 0xC4 0xC0 DUP11 BASEFEE SDIV MSIZE SELFBALANCE SWAP7 0xA8 EXP SWAP12 PUSH17 0x66874119622CE867D555A077D17F62264 PUSH20 0x6F6C634300081F00330000000000000000000000 "
				},
				"gasEstimates": {
					"creation": {
						"codeDepositCost": "1315800",
						"executionCost": "infinite",
						"totalCost": "infinite"
					},
					"external": {
						"authorizeCrowdFunding(address)": "30454",
						"authorizedCrowdFundings(address)": "2943",
						"buyTokensForSponsorship()": "infinite",
						"deauthorizeCrowdFunding(address)": "30372",
						"getBalance()": "infinite",
						"owner()": "2596",
						"provideSponsor(address)": "infinite",
						"sponsorshipPercentage()": "2469",
						"tokenAddress()": "2508",
						"withdrawETH()": "infinite",
						"withdrawTokens(uint256)": "infinite"
					}
				},
				"methodIdentifiers": {
					"authorizeCrowdFunding(address)": "16504b93",
					"authorizedCrowdFundings(address)": "ee868825",
					"buyTokensForSponsorship()": "bfdc3ec6",
					"deauthorizeCrowdFunding(address)": "0b54fa79",
					"getBalance()": "12065fe0",
					"owner()": "8da5cb5b",
					"provideSponsor(address)": "c5d9b404",
					"sponsorshipPercentage()": "c5189787",
					"tokenAddress()": "9d76ea58",
					"withdrawETH()": "e086e5ec",
					"withdrawTokens(uint256)": "315a095d"
				}
			},
			"storageLayout": {
				"storage": [
					{
						"astId": 26,
						"contract": "contracts/SponsorFunding.sol:SponsorFunding",
						"label": "owner",
						"offset": 0,
						"slot": "0",
						"type": "t_address"
					},
					{
						"astId": 28,
						"contract": "contracts/SponsorFunding.sol:SponsorFunding",
						"label": "tokenAddress",
						"offset": 0,
						"slot": "1",
						"type": "t_address"
					},
					{
						"astId": 30,
						"contract": "contracts/SponsorFunding.sol:SponsorFunding",
						"label": "sponsorshipPercentage",
						"offset": 0,
						"slot": "2",
						"type": "t_uint256"
					},
					{
						"astId": 34,
						"contract": "contracts/SponsorFunding.sol:SponsorFunding",
						"label": "authorizedCrowdFundings",
						"offset": 0,
						"slot": "3",
						"type": "t_mapping(t_address,t_bool)"
					}
				],
				"types": {
					"t_address": {
						"encoding": "inplace",
						"label": "address",
						"numberOfBytes": "20"
					},
					"t_bool": {
						"encoding": "inplace",
						"label": "bool",
						"numberOfBytes": "1"
					},
					"t_mapping(t_address,t_bool)": {
						"encoding": "mapping",
						"key": "t_address",
						"label": "mapping(address => bool)",
						"numberOfBytes": "32",
						"value": "t_bool"
					},
					"t_uint256": {
						"encoding": "inplace",
						"label": "uint256",
						"numberOfBytes": "32"
					}
				}
			},
			"userdoc": {
				"kind": "user",
				"methods": {},
				"version": 1
			}
		}
	}
}