{
	"contracts/DistributeFunding.sol": {
		"DistributeFunding": {
			"abi": [
				{
					"inputs": [
						{
							"internalType": "address",
							"name": "_tokenAddress",
							"type": "address"
						}
					],
					"stateMutability": "nonpayable",
					"type": "constructor"
				},
				{
					"anonymous": false,
					"inputs": [
						{
							"indexed": false,
							"internalType": "uint256",
							"name": "amount",
							"type": "uint256"
						}
					],
					"name": "FundsReceived",
					"type": "event"
				},
				{
					"anonymous": false,
					"inputs": [
						{
							"indexed": true,
							"internalType": "address",
							"name": "owner",
							"type": "address"
						},
						{
							"indexed": false,
							"internalType": "uint256",
							"name": "amount",
							"type": "uint256"
						}
					],
					"name": "RemainingWithdrawn",
					"type": "event"
				},
				{
					"anonymous": false,
					"inputs": [
						{
							"indexed": true,
							"internalType": "address",
							"name": "shareholder",
							"type": "address"
						},
						{
							"indexed": false,
							"internalType": "uint256",
							"name": "amount",
							"type": "uint256"
						}
					],
					"name": "ShareWithdrawn",
					"type": "event"
				},
				{
					"anonymous": false,
					"inputs": [
						{
							"indexed": true,
							"internalType": "address",
							"name": "shareholder",
							"type": "address"
						},
						{
							"indexed": false,
							"internalType": "uint256",
							"name": "percentage",
							"type": "uint256"
						}
					],
					"name": "ShareholderAdded",
					"type": "event"
				},
				{
					"anonymous": false,
					"inputs": [
						{
							"indexed": true,
							"internalType": "address",
							"name": "shareholder",
							"type": "address"
						},
						{
							"indexed": false,
							"internalType": "uint256",
							"name": "oldPercentage",
							"type": "uint256"
						},
						{
							"indexed": false,
							"internalType": "uint256",
							"name": "newPercentage",
							"type": "uint256"
						}
					],
					"name": "ShareholderUpdated",
					"type": "event"
				},
				{
					"inputs": [
						{
							"internalType": "address",
							"name": "_shareholder",
							"type": "address"
						},
						{
							"internalType": "uint256",
							"name": "_percentage",
							"type": "uint256"
						}
					],
					"name": "addShareholder",
					"outputs": [],
					"stateMutability": "nonpayable",
					"type": "function"
				},
				{
					"inputs": [],
					"name": "fundsReceived",
					"outputs": [
						{
							"internalType": "bool",
							"name": "",
							"type": "bool"
						}
					],
					"stateMutability": "view",
					"type": "function"
				},
				{
					"inputs": [
						{
							"internalType": "address",
							"name": "_addr",
							"type": "address"
						}
					],
					"name": "getShareholder",
					"outputs": [
						{
							"internalType": "uint256",
							"name": "percentage",
							"type": "uint256"
						},
						{
							"internalType": "bool",
							"name": "hasWithdrawn",
							"type": "bool"
						},
						{
							"internalType": "bool",
							"name": "exists",
							"type": "bool"
						}
					],
					"stateMutability": "view",
					"type": "function"
				},
				{
					"inputs": [],
					"name": "getShareholderCount",
					"outputs": [
						{
							"internalType": "uint256",
							"name": "",
							"type": "uint256"
						}
					],
					"stateMutability": "view",
					"type": "function"
				},
				{
					"inputs": [],
					"name": "getTotalAllocated",
					"outputs": [
						{
							"internalType": "uint256",
							"name": "",
							"type": "uint256"
						}
					],
					"stateMutability": "view",
					"type": "function"
				},
				{
					"inputs": [],
					"name": "owner",
					"outputs": [
						{
							"internalType": "address",
							"name": "",
							"type": "address"
						}
					],
					"stateMutability": "view",
					"type": "function"
				},
				{
					"inputs": [],
					"name": "receiveTokens",
					"outputs": [],
					"stateMutability": "nonpayable",
					"type": "function"
				},
				{
					"inputs": [
						{
							"internalType": "address",
							"name": "",
							"type": "address"
						}
					],
					"name": "shareholderIndex",
					"outputs": [
						{
							"internalType": "uint256",
							"name": "",
							"type": "uint256"
						}
					],
					"stateMutability": "view",
					"type": "function"
				},
				{
					"inputs": [
						{
							"internalType": "uint256",
							"name": "",
							"type": "uint256"
						}
					],
					"name": "shareholders",
					"outputs": [
						{
							"internalType": "address",
							"name": "addr",
							"type": "address"
						},
						{
							"internalType": "uint256",
							"name": "percentage",
							"type": "uint256"
						},
						{
							"internalType": "bool",
							"name": "hasWithdrawn",
							"type": "bool"
						},
						{
							"internalType": "bool",
							"name": "exists",
							"type": "bool"
						}
					],
					"stateMutability": "view",
					"type": "function"
				},
				{
					"inputs": [],
					"name": "tokenAddress",
					"outputs": [
						{
							"internalType": "address",
							"name": "",
							"type": "address"
						}
					],
					"stateMutability": "view",
					"type": "function"
				},
				{
					"inputs": [],
					"name": "totalAllocatedPercentage",
					"outputs": [
						{
							"internalType": "uint256",
							"name": "",
							"type": "uint256"
						}
					],
					"stateMutability": "view",
					"type": "function"
				},
				{
					"inputs": [],
					"name": "totalReceived",
					"outputs": [
						{
							"internalType": "uint256",
							"name": "",
							"type": "uint256"
						}
					],
					"stateMutability": "view",
					"type": "function"
				},
				{
					"inputs": [],
					"name": "withdrawRemaining",
					"outputs": [],
					"stateMutability": "nonpayable",
					"type": "function"
				},
				{
					"inputs": [],
					"name": "withdrawShare",
					"outputs": [],
					"stateMutability": "nonpayable",
					"type": "function"
				}
			],
			"devdoc": {
				"kind": "dev",
				"methods": {},
				"version": 1
			},
			"evm": {
				"assembly": "    /* \"contracts/DistributeFunding.sol\":235:5426  contract DistributeFunding {... */\n  mstore(0x40, 0x80)\n    /* \"contracts/DistributeFunding.sol\":1309:1583  constructor(address _tokenAddress) {... */\n  callvalue\n  dup1\n  iszero\n  tag_1\n  jumpi\n  0x00\n  dup1\n  revert\ntag_1:\n  pop\n  mload(0x40)\n  sub(codesize, bytecodeSize)\n  dup1\n  bytecodeSize\n  dup4\n  codecopy\n  dup2\n  dup2\n  add\n  0x40\n  mstore\n  dup2\n  add\n  swap1\n  tag_2\n  swap2\n  swap1\n  tag_3\n  jump\t// in\ntag_2:\n    /* \"contracts/DistributeFunding.sol\":1388:1389  0 */\n  0x00\n    /* \"contracts/DistributeFunding.sol\":1363:1390  _tokenAddress != address(0) */\n  0xffffffffffffffffffffffffffffffffffffffff\n  and\n    /* \"contracts/DistributeFunding.sol\":1363:1376  _tokenAddress */\n  dup2\n    /* \"contracts/DistributeFunding.sol\":1363:1390  _tokenAddress != address(0) */\n  0xffffffffffffffffffffffffffffffffffffffff\n  and\n  sub\n    /* \"contracts/DistributeFunding.sol\":1355:1408  require(_tokenAddress != address(0), \"Invalid token\") */\n  tag_6\n  jumpi\n  mload(0x40)\n  0x08c379a000000000000000000000000000000000000000000000000000000000\n  dup2\n  mstore\n  0x04\n  add\n  tag_7\n  swap1\n  tag_8\n  jump\t// in\ntag_7:\n  mload(0x40)\n  dup1\n  swap2\n  sub\n  swap1\n  revert\ntag_6:\n    /* \"contracts/DistributeFunding.sol\":1427:1437  msg.sender */\n  caller\n    /* \"contracts/DistributeFunding.sol\":1419:1424  owner */\n  0x00\n  dup1\n    /* \"contracts/DistributeFunding.sol\":1419:1437  owner = msg.sender */\n  0x0100\n  exp\n  dup2\n  sload\n  dup2\n  0xffffffffffffffffffffffffffffffffffffffff\n  mul\n  not\n  and\n  swap1\n  dup4\n  0xffffffffffffffffffffffffffffffffffffffff\n  and\n  mul\n  or\n  swap1\n  sstore\n  pop\n    /* \"contracts/DistributeFunding.sol\":1463:1476  _tokenAddress */\n  dup1\n    /* \"contracts/DistributeFunding.sol\":1448:1460  tokenAddress */\n  0x01\n  0x00\n    /* \"contracts/DistributeFunding.sol\":1448:1476  tokenAddress = _tokenAddress */\n  0x0100\n  exp\n  dup2\n  sload\n  dup2\n  0xffffffffffffffffffffffffffffffffffffffff\n  mul\n  not\n  and\n  swap1\n  dup4\n  0xffffffffffffffffffffffffffffffffffffffff\n  and\n  mul\n  or\n  swap1\n  sstore\n  pop\n    /* \"contracts/DistributeFunding.sol\":1503:1504  0 */\n  0x00\n    /* \"contracts/DistributeFunding.sol\":1487:1500  totalReceived */\n  0x02\n    /* \"contracts/DistributeFunding.sol\":1487:1504  totalReceived = 0 */\n  dup2\n  swap1\n  sstore\n  pop\n    /* \"contracts/DistributeFunding.sol\":1531:1536  false */\n  0x00\n    /* \"contracts/DistributeFunding.sol\":1515:1528  fundsReceived */\n  0x03\n  0x00\n    /* \"contracts/DistributeFunding.sol\":1515:1536  fundsReceived = false */\n  0x0100\n  exp\n  dup2\n  sload\n  dup2\n  0xff\n  mul\n  not\n  and\n  swap1\n  dup4\n  iszero\n  iszero\n  mul\n  or\n  swap1\n  sstore\n  pop\n    /* \"contracts/DistributeFunding.sol\":1574:1575  0 */\n  0x00\n    /* \"contracts/DistributeFunding.sol\":1547:1571  totalAllocatedPercentage */\n  0x06\n    /* \"contracts/DistributeFunding.sol\":1547:1575  totalAllocatedPercentage = 0 */\n  dup2\n  swap1\n  sstore\n  pop\n    /* \"contracts/DistributeFunding.sol\":1309:1583  constructor(address _tokenAddress) {... */\n  pop\n    /* \"contracts/DistributeFunding.sol\":235:5426  contract DistributeFunding {... */\n  jump(tag_9)\n    /* \"#utility.yul\":88:205   */\ntag_11:\n    /* \"#utility.yul\":197:198   */\n  0x00\n    /* \"#utility.yul\":194:195   */\n  dup1\n    /* \"#utility.yul\":187:199   */\n  revert\n    /* \"#utility.yul\":334:460   */\ntag_13:\n    /* \"#utility.yul\":371:378   */\n  0x00\n    /* \"#utility.yul\":411:453   */\n  0xffffffffffffffffffffffffffffffffffffffff\n    /* \"#utility.yul\":404:409   */\n  dup3\n    /* \"#utility.yul\":400:454   */\n  and\n    /* \"#utility.yul\":389:454   */\n  swap1\n  pop\n    /* \"#utility.yul\":334:460   */\n  swap2\n  swap1\n  pop\n  jump\t// out\n    /* \"#utility.yul\":466:562   */\ntag_14:\n    /* \"#utility.yul\":503:510   */\n  0x00\n    /* \"#utility.yul\":532:556   */\n  tag_26\n    /* \"#utility.yul\":550:555   */\n  dup3\n    /* \"#utility.yul\":532:556   */\n  tag_13\n  jump\t// in\ntag_26:\n    /* \"#utility.yul\":521:556   */\n  swap1\n  pop\n    /* \"#utility.yul\":466:562   */\n  swap2\n  swap1\n  pop\n  jump\t// out\n    /* \"#utility.yul\":568:690   */\ntag_15:\n    /* \"#utility.yul\":641:665   */\n  tag_28\n    /* \"#utility.yul\":659:664   */\n  dup2\n    /* \"#utility.yul\":641:665   */\n  tag_14\n  jump\t// in\ntag_28:\n    /* \"#utility.yul\":634:639   */\n  dup2\n    /* \"#utility.yul\":631:666   */\n  eq\n    /* \"#utility.yul\":621:684   */\n  tag_29\n  jumpi\n    /* \"#utility.yul\":680:681   */\n  0x00\n    /* \"#utility.yul\":677:678   */\n  dup1\n    /* \"#utility.yul\":670:682   */\n  revert\n    /* \"#utility.yul\":621:684   */\ntag_29:\n    /* \"#utility.yul\":568:690   */\n  pop\n  jump\t// out\n    /* \"#utility.yul\":696:839   */\ntag_16:\n    /* \"#utility.yul\":753:758   */\n  0x00\n    /* \"#utility.yul\":784:790   */\n  dup2\n    /* \"#utility.yul\":778:791   */\n  mload\n    /* \"#utility.yul\":769:791   */\n  swap1\n  pop\n    /* \"#utility.yul\":800:833   */\n  tag_31\n    /* \"#utility.yul\":827:832   */\n  dup2\n    /* \"#utility.yul\":800:833   */\n  tag_15\n  jump\t// in\ntag_31:\n    /* \"#utility.yul\":696:839   */\n  swap3\n  swap2\n  pop\n  pop\n  jump\t// out\n    /* \"#utility.yul\":845:1196   */\ntag_3:\n    /* \"#utility.yul\":915:921   */\n  0x00\n    /* \"#utility.yul\":964:966   */\n  0x20\n    /* \"#utility.yul\":952:961   */\n  dup3\n    /* \"#utility.yul\":943:950   */\n  dup5\n    /* \"#utility.yul\":939:962   */\n  sub\n    /* \"#utility.yul\":935:967   */\n  slt\n    /* \"#utility.yul\":932:1051   */\n  iszero\n  tag_33\n  jumpi\n    /* \"#utility.yul\":970:1049   */\n  tag_34\n  tag_11\n  jump\t// in\ntag_34:\n    /* \"#utility.yul\":932:1051   */\ntag_33:\n    /* \"#utility.yul\":1090:1091   */\n  0x00\n    /* \"#utility.yul\":1115:1179   */\n  tag_35\n    /* \"#utility.yul\":1171:1178   */\n  dup5\n    /* \"#utility.yul\":1162:1168   */\n  dup3\n    /* \"#utility.yul\":1151:1160   */\n  dup6\n    /* \"#utility.yul\":1147:1169   */\n  add\n    /* \"#utility.yul\":1115:1179   */\n  tag_16\n  jump\t// in\ntag_35:\n    /* \"#utility.yul\":1105:1179   */\n  swap2\n  pop\n    /* \"#utility.yul\":1061:1189   */\n  pop\n    /* \"#utility.yul\":845:1196   */\n  swap3\n  swap2\n  pop\n  pop\n  jump\t// out\n    /* \"#utility.yul\":1202:1371   */\ntag_17:\n    /* \"#utility.yul\":1286:1297   */\n  0x00\n    /* \"#utility.yul\":1320:1326   */\n  dup3\n    /* \"#utility.yul\":1315:1318   */\n  dup3\n    /* \"#utility.yul\":1308:1327   */\n  mstore\n    /* \"#utility.yul\":1360:1364   */\n  0x20\n    /* \"#utility.yul\":1355:1358   */\n  dup3\n    /* \"#utility.yul\":1351:1365   */\n  add\n    /* \"#utility.yul\":1336:1365   */\n  swap1\n  pop\n    /* \"#utility.yul\":1202:1371   */\n  swap3\n  swap2\n  pop\n  pop\n  jump\t// out\n    /* \"#utility.yul\":1377:1540   */\ntag_18:\n    /* \"#utility.yul\":1517:1532   */\n  0x496e76616c696420746f6b656e00000000000000000000000000000000000000\n    /* \"#utility.yul\":1513:1514   */\n  0x00\n    /* \"#utility.yul\":1505:1511   */\n  dup3\n    /* \"#utility.yul\":1501:1515   */\n  add\n    /* \"#utility.yul\":1494:1533   */\n  mstore\n    /* \"#utility.yul\":1377:1540   */\n  pop\n  jump\t// out\n    /* \"#utility.yul\":1546:1912   */\ntag_19:\n    /* \"#utility.yul\":1688:1691   */\n  0x00\n    /* \"#utility.yul\":1709:1776   */\n  tag_39\n    /* \"#utility.yul\":1773:1775   */\n  0x0d\n    /* \"#utility.yul\":1768:1771   */\n  dup4\n    /* \"#utility.yul\":1709:1776   */\n  tag_17\n  jump\t// in\ntag_39:\n    /* \"#utility.yul\":1702:1776   */\n  swap2\n  pop\n    /* \"#utility.yul\":1785:1878   */\n  tag_40\n    /* \"#utility.yul\":1874:1877   */\n  dup3\n    /* \"#utility.yul\":1785:1878   */\n  tag_18\n  jump\t// in\ntag_40:\n    /* \"#utility.yul\":1903:1905   */\n  0x20\n    /* \"#utility.yul\":1898:1901   */\n  dup3\n    /* \"#utility.yul\":1894:1906   */\n  add\n    /* \"#utility.yul\":1887:1906   */\n  swap1\n  pop\n    /* \"#utility.yul\":1546:1912   */\n  swap2\n  swap1\n  pop\n  jump\t// out\n    /* \"#utility.yul\":1918:2337   */\ntag_8:\n    /* \"#utility.yul\":2084:2088   */\n  0x00\n    /* \"#utility.yul\":2122:2124   */\n  0x20\n    /* \"#utility.yul\":2111:2120   */\n  dup3\n    /* \"#utility.yul\":2107:2125   */\n  add\n    /* \"#utility.yul\":2099:2125   */\n  swap1\n  pop\n    /* \"#utility.yul\":2171:2180   */\n  dup2\n    /* \"#utility.yul\":2165:2169   */\n  dup2\n    /* \"#utility.yul\":2161:2181   */\n  sub\n    /* \"#utility.yul\":2157:2158   */\n  0x00\n    /* \"#utility.yul\":2146:2155   */\n  dup4\n    /* \"#utility.yul\":2142:2159   */\n  add\n    /* \"#utility.yul\":2135:2182   */\n  mstore\n    /* \"#utility.yul\":2199:2330   */\n  tag_42\n    /* \"#utility.yul\":2325:2329   */\n  dup2\n    /* \"#utility.yul\":2199:2330   */\n  tag_19\n  jump\t// in\ntag_42:\n    /* \"#utility.yul\":2191:2330   */\n  swap1\n  pop\n    /* \"#utility.yul\":1918:2337   */\n  swap2\n  swap1\n  pop\n  jump\t// out\n    /* \"contracts/DistributeFunding.sol\":235:5426  contract DistributeFunding {... */\ntag_9:\n  dataSize(sub_0)\n  dup1\n  dataOffset(sub_0)\n  0x00\n  codecopy\n  0x00\n  return\nstop\n\nsub_0: assembly {\n        /* \"contracts/DistributeFunding.sol\":235:5426  contract DistributeFunding {... */\n      mstore(0x40, 0x80)\n      callvalue\n      dup1\n      iszero\n      tag_1\n      jumpi\n      0x00\n      dup1\n      revert\n    tag_1:\n      pop\n      jumpi(tag_2, lt(calldatasize, 0x04))\n      shr(0xe0, calldataload(0x00))\n      dup1\n      0x75724990\n      gt\n      tag_17\n      jumpi\n      dup1\n      0x9d76ea58\n      gt\n      tag_18\n      jumpi\n      dup1\n      0x9d76ea58\n      eq\n      tag_13\n      jumpi\n      dup1\n      0xa3c2c462\n      eq\n      tag_14\n      jumpi\n      dup1\n      0xab377daa\n      eq\n      tag_15\n      jumpi\n      dup1\n      0xee38db95\n      eq\n      tag_16\n      jumpi\n      jump(tag_2)\n    tag_18:\n      dup1\n      0x75724990\n      eq\n      tag_10\n      jumpi\n      dup1\n      0x82299a5c\n      eq\n      tag_11\n      jumpi\n      dup1\n      0x8da5cb5b\n      eq\n      tag_12\n      jumpi\n      jump(tag_2)\n    tag_17:\n      dup1\n      0x227d9f65\n      gt\n      tag_19\n      jumpi\n      dup1\n      0x227d9f65\n      eq\n      tag_6\n      jumpi\n      dup1\n      0x24349671\n      eq\n      tag_7\n      jumpi\n      dup1\n      0x41bcf6a4\n      eq\n      tag_8\n      jumpi\n      dup1\n      0x680e6c9b\n      eq\n      tag_9\n      jumpi\n      jump(tag_2)\n    tag_19:\n      dup1\n      0x047c312a\n      eq\n      tag_3\n      jumpi\n      dup1\n      0x04972881\n      eq\n      tag_4\n      jumpi\n      dup1\n      0x11318b33\n      eq\n      tag_5\n      jumpi\n    tag_2:\n      0x00\n      dup1\n      revert\n        /* \"contracts/DistributeFunding.sol\":642:681  uint256 public totalAllocatedPercentage */\n    tag_3:\n      tag_20\n      tag_21\n      jump\t// in\n    tag_20:\n      mload(0x40)\n      tag_22\n      swap2\n      swap1\n      tag_23\n      jump\t// in\n    tag_22:\n      mload(0x40)\n      dup1\n      swap2\n      sub\n      swap1\n      return\n        /* \"contracts/DistributeFunding.sol\":5196:5302  function getShareholderCount() public view returns (uint256) {... */\n    tag_4:\n      tag_24\n      tag_25\n      jump\t// in\n    tag_24:\n      mload(0x40)\n      tag_26\n      swap2\n      swap1\n      tag_23\n      jump\t// in\n    tag_26:\n      mload(0x40)\n      dup1\n      swap2\n      sub\n      swap1\n      return\n        /* \"contracts/DistributeFunding.sol\":506:531  bool public fundsReceived */\n    tag_5:\n      tag_27\n      tag_28\n      jump\t// in\n    tag_27:\n      mload(0x40)\n      tag_29\n      swap2\n      swap1\n      tag_30\n      jump\t// in\n    tag_29:\n      mload(0x40)\n      dup1\n      swap2\n      sub\n      swap1\n      return\n        /* \"contracts/DistributeFunding.sol\":4802:5184  function getShareholder(address _addr) public view returns (uint256 percentage, bool hasWithdrawn, bool exists) {... */\n    tag_6:\n      tag_31\n      0x04\n      dup1\n      calldatasize\n      sub\n      dup2\n      add\n      swap1\n      tag_32\n      swap2\n      swap1\n      tag_33\n      jump\t// in\n    tag_32:\n      tag_34\n      jump\t// in\n    tag_31:\n      mload(0x40)\n      tag_35\n      swap4\n      swap3\n      swap2\n      swap1\n      tag_36\n      jump\t// in\n    tag_35:\n      mload(0x40)\n      dup1\n      swap2\n      sub\n      swap1\n      return\n        /* \"contracts/DistributeFunding.sol\":3497:4388  function withdrawShare() public {... */\n    tag_7:\n      tag_37\n      tag_38\n      jump\t// in\n    tag_37:\n      stop\n        /* \"contracts/DistributeFunding.sol\":584:635  mapping(address => uint256) public shareholderIndex */\n    tag_8:\n      tag_39\n      0x04\n      dup1\n      calldatasize\n      sub\n      dup2\n      add\n      swap1\n      tag_40\n      swap2\n      swap1\n      tag_33\n      jump\t// in\n    tag_40:\n      tag_41\n      jump\t// in\n    tag_39:\n      mload(0x40)\n      tag_42\n      swap2\n      swap1\n      tag_23\n      jump\t// in\n    tag_42:\n      mload(0x40)\n      dup1\n      swap2\n      sub\n      swap1\n      return\n        /* \"contracts/DistributeFunding.sol\":3057:3485  function receiveTokens() public {... */\n    tag_9:\n      tag_43\n      tag_44\n      jump\t// in\n    tag_43:\n      stop\n        /* \"contracts/DistributeFunding.sol\":1595:3045  function addShareholder(address _shareholder, uint256 _percentage) public onlyOwner beforeFundsReceived {... */\n    tag_10:\n      tag_45\n      0x04\n      dup1\n      calldatasize\n      sub\n      dup2\n      add\n      swap1\n      tag_46\n      swap2\n      swap1\n      tag_47\n      jump\t// in\n    tag_46:\n      tag_48\n      jump\t// in\n    tag_45:\n      stop\n        /* \"contracts/DistributeFunding.sol\":5314:5423  function getTotalAllocated() public view returns (uint256) {... */\n    tag_11:\n      tag_49\n      tag_50\n      jump\t// in\n    tag_49:\n      mload(0x40)\n      tag_51\n      swap2\n      swap1\n      tag_23\n      jump\t// in\n    tag_51:\n      mload(0x40)\n      dup1\n      swap2\n      sub\n      swap1\n      return\n        /* \"contracts/DistributeFunding.sol\":410:430  address public owner */\n    tag_12:\n      tag_52\n      tag_53\n      jump\t// in\n    tag_52:\n      mload(0x40)\n      tag_54\n      swap2\n      swap1\n      tag_55\n      jump\t// in\n    tag_54:\n      mload(0x40)\n      dup1\n      swap2\n      sub\n      swap1\n      return\n        /* \"contracts/DistributeFunding.sol\":437:464  address public tokenAddress */\n    tag_13:\n      tag_56\n      tag_57\n      jump\t// in\n    tag_56:\n      mload(0x40)\n      tag_58\n      swap2\n      swap1\n      tag_55\n      jump\t// in\n    tag_58:\n      mload(0x40)\n      dup1\n      swap2\n      sub\n      swap1\n      return\n        /* \"contracts/DistributeFunding.sol\":471:499  uint256 public totalReceived */\n    tag_14:\n      tag_59\n      tag_60\n      jump\t// in\n    tag_59:\n      mload(0x40)\n      tag_61\n      swap2\n      swap1\n      tag_23\n      jump\t// in\n    tag_61:\n      mload(0x40)\n      dup1\n      swap2\n      sub\n      swap1\n      return\n        /* \"contracts/DistributeFunding.sol\":544:577  Shareholder[] public shareholders */\n    tag_15:\n      tag_62\n      0x04\n      dup1\n      calldatasize\n      sub\n      dup2\n      add\n      swap1\n      tag_63\n      swap2\n      swap1\n      tag_64\n      jump\t// in\n    tag_63:\n      tag_65\n      jump\t// in\n    tag_62:\n      mload(0x40)\n      tag_66\n      swap5\n      swap4\n      swap3\n      swap2\n      swap1\n      tag_67\n      jump\t// in\n    tag_66:\n      mload(0x40)\n      dup1\n      swap2\n      sub\n      swap1\n      return\n        /* \"contracts/DistributeFunding.sol\":4400:4790  function withdrawRemaining() public onlyOwner {... */\n    tag_16:\n      tag_68\n      tag_69\n      jump\t// in\n    tag_68:\n      stop\n        /* \"contracts/DistributeFunding.sol\":642:681  uint256 public totalAllocatedPercentage */\n    tag_21:\n      sload(0x06)\n      dup2\n      jump\t// out\n        /* \"contracts/DistributeFunding.sol\":5196:5302  function getShareholderCount() public view returns (uint256) {... */\n    tag_25:\n        /* \"contracts/DistributeFunding.sol\":5248:5255  uint256 */\n      0x00\n        /* \"contracts/DistributeFunding.sol\":5275:5287  shareholders */\n      0x04\n        /* \"contracts/DistributeFunding.sol\":5275:5294  shareholders.length */\n      dup1\n      sload\n      swap1\n      pop\n        /* \"contracts/DistributeFunding.sol\":5268:5294  return shareholders.length */\n      swap1\n      pop\n        /* \"contracts/DistributeFunding.sol\":5196:5302  function getShareholderCount() public view returns (uint256) {... */\n      swap1\n      jump\t// out\n        /* \"contracts/DistributeFunding.sol\":506:531  bool public fundsReceived */\n    tag_28:\n      0x03\n      0x00\n      swap1\n      sload\n      swap1\n      0x0100\n      exp\n      swap1\n      div\n      0xff\n      and\n      dup2\n      jump\t// out\n        /* \"contracts/DistributeFunding.sol\":4802:5184  function getShareholder(address _addr) public view returns (uint256 percentage, bool hasWithdrawn, bool exists) {... */\n    tag_34:\n        /* \"contracts/DistributeFunding.sol\":4862:4880  uint256 percentage */\n      0x00\n        /* \"contracts/DistributeFunding.sol\":4882:4899  bool hasWithdrawn */\n      dup1\n        /* \"contracts/DistributeFunding.sol\":4901:4912  bool exists */\n      0x00\n        /* \"contracts/DistributeFunding.sol\":4930:4939  uint256 i */\n      dup1\n        /* \"contracts/DistributeFunding.sol\":4942:4943  0 */\n      0x00\n        /* \"contracts/DistributeFunding.sol\":4930:4943  uint256 i = 0 */\n      swap1\n      pop\n        /* \"contracts/DistributeFunding.sol\":4925:5142  for (uint256 i = 0; i < shareholders.length; i++) {... */\n    tag_72:\n        /* \"contracts/DistributeFunding.sol\":4949:4961  shareholders */\n      0x04\n        /* \"contracts/DistributeFunding.sol\":4949:4968  shareholders.length */\n      dup1\n      sload\n      swap1\n      pop\n        /* \"contracts/DistributeFunding.sol\":4945:4946  i */\n      dup2\n        /* \"contracts/DistributeFunding.sol\":4945:4968  i < shareholders.length */\n      lt\n        /* \"contracts/DistributeFunding.sol\":4925:5142  for (uint256 i = 0; i < shareholders.length; i++) {... */\n      iszero\n      tag_73\n      jumpi\n        /* \"contracts/DistributeFunding.sol\":5018:5023  _addr */\n      dup5\n        /* \"contracts/DistributeFunding.sol\":4994:5023  shareholders[i].addr == _addr */\n      0xffffffffffffffffffffffffffffffffffffffff\n      and\n        /* \"contracts/DistributeFunding.sol\":4994:5006  shareholders */\n      0x04\n        /* \"contracts/DistributeFunding.sol\":5007:5008  i */\n      dup3\n        /* \"contracts/DistributeFunding.sol\":4994:5009  shareholders[i] */\n      dup2\n      sload\n      dup2\n      lt\n      tag_75\n      jumpi\n      tag_76\n      tag_77\n      jump\t// in\n    tag_76:\n    tag_75:\n      swap1\n      0x00\n      mstore\n      keccak256(0x00, 0x20)\n      swap1\n      0x03\n      mul\n      add\n        /* \"contracts/DistributeFunding.sol\":4994:5014  shareholders[i].addr */\n      0x00\n      add\n      0x00\n      swap1\n      sload\n      swap1\n      0x0100\n      exp\n      swap1\n      div\n      0xffffffffffffffffffffffffffffffffffffffff\n      and\n        /* \"contracts/DistributeFunding.sol\":4994:5023  shareholders[i].addr == _addr */\n      0xffffffffffffffffffffffffffffffffffffffff\n      and\n      sub\n        /* \"contracts/DistributeFunding.sol\":4990:5131  if (shareholders[i].addr == _addr) {... */\n      tag_79\n      jumpi\n        /* \"contracts/DistributeFunding.sol\":5052:5064  shareholders */\n      0x04\n        /* \"contracts/DistributeFunding.sol\":5065:5066  i */\n      dup2\n        /* \"contracts/DistributeFunding.sol\":5052:5067  shareholders[i] */\n      dup2\n      sload\n      dup2\n      lt\n      tag_80\n      jumpi\n      tag_81\n      tag_77\n      jump\t// in\n    tag_81:\n    tag_80:\n      swap1\n      0x00\n      mstore\n      keccak256(0x00, 0x20)\n      swap1\n      0x03\n      mul\n      add\n        /* \"contracts/DistributeFunding.sol\":5052:5078  shareholders[i].percentage */\n      0x01\n      add\n      sload\n        /* \"contracts/DistributeFunding.sol\":5080:5092  shareholders */\n      0x04\n        /* \"contracts/DistributeFunding.sol\":5093:5094  i */\n      dup3\n        /* \"contracts/DistributeFunding.sol\":5080:5095  shareholders[i] */\n      dup2\n      sload\n      dup2\n      lt\n      tag_83\n      jumpi\n      tag_84\n      tag_77\n      jump\t// in\n    tag_84:\n    tag_83:\n      swap1\n      0x00\n      mstore\n      keccak256(0x00, 0x20)\n      swap1\n      0x03\n      mul\n      add\n        /* \"contracts/DistributeFunding.sol\":5080:5108  shareholders[i].hasWithdrawn */\n      0x02\n      add\n      0x00\n      swap1\n      sload\n      swap1\n      0x0100\n      exp\n      swap1\n      div\n      0xff\n      and\n        /* \"contracts/DistributeFunding.sol\":5110:5114  true */\n      0x01\n        /* \"contracts/DistributeFunding.sol\":5044:5115  return (shareholders[i].percentage, shareholders[i].hasWithdrawn, true) */\n      swap4\n      pop\n      swap4\n      pop\n      swap4\n      pop\n      pop\n      jump(tag_71)\n        /* \"contracts/DistributeFunding.sol\":4990:5131  if (shareholders[i].addr == _addr) {... */\n    tag_79:\n        /* \"contracts/DistributeFunding.sol\":4970:4973  i++ */\n      dup1\n      dup1\n      0x01\n      add\n      swap2\n      pop\n      pop\n        /* \"contracts/DistributeFunding.sol\":4925:5142  for (uint256 i = 0; i < shareholders.length; i++) {... */\n      jump(tag_72)\n    tag_73:\n      pop\n        /* \"contracts/DistributeFunding.sol\":5160:5161  0 */\n      0x00\n        /* \"contracts/DistributeFunding.sol\":5163:5168  false */\n      dup1\n        /* \"contracts/DistributeFunding.sol\":5170:5175  false */\n      0x00\n        /* \"contracts/DistributeFunding.sol\":5152:5176  return (0, false, false) */\n      swap3\n      pop\n      swap3\n      pop\n      swap3\n      pop\n        /* \"contracts/DistributeFunding.sol\":4802:5184  function getShareholder(address _addr) public view returns (uint256 percentage, bool hasWithdrawn, bool exists) {... */\n    tag_71:\n      swap2\n      swap4\n      swap1\n      swap3\n      pop\n      jump\t// out\n        /* \"contracts/DistributeFunding.sol\":3497:4388  function withdrawShare() public {... */\n    tag_38:\n        /* \"contracts/DistributeFunding.sol\":3548:3561  fundsReceived */\n      0x03\n      0x00\n      swap1\n      sload\n      swap1\n      0x0100\n      exp\n      swap1\n      div\n      0xff\n      and\n        /* \"contracts/DistributeFunding.sol\":3540:3584  require(fundsReceived, \"Funds not received\") */\n      tag_87\n      jumpi\n      mload(0x40)\n      0x08c379a000000000000000000000000000000000000000000000000000000000\n      dup2\n      mstore\n      0x04\n      add\n      tag_88\n      swap1\n      tag_89\n      jump\t// in\n    tag_88:\n      mload(0x40)\n      dup1\n      swap2\n      sub\n      swap1\n      revert\n    tag_87:\n        /* \"contracts/DistributeFunding.sol\":3605:3615  bool found */\n      0x00\n        /* \"contracts/DistributeFunding.sol\":3634:3647  uint256 index */\n      dup1\n        /* \"contracts/DistributeFunding.sol\":3667:3676  uint256 i */\n      0x00\n        /* \"contracts/DistributeFunding.sol\":3662:3877  for (uint256 i = 0; i < shareholders.length; i++) {... */\n    tag_90:\n        /* \"contracts/DistributeFunding.sol\":3686:3698  shareholders */\n      0x04\n        /* \"contracts/DistributeFunding.sol\":3686:3705  shareholders.length */\n      dup1\n      sload\n      swap1\n      pop\n        /* \"contracts/DistributeFunding.sol\":3682:3683  i */\n      dup2\n        /* \"contracts/DistributeFunding.sol\":3682:3705  i < shareholders.length */\n      lt\n        /* \"contracts/DistributeFunding.sol\":3662:3877  for (uint256 i = 0; i < shareholders.length; i++) {... */\n      iszero\n      tag_91\n      jumpi\n        /* \"contracts/DistributeFunding.sol\":3755:3765  msg.sender */\n      caller\n        /* \"contracts/DistributeFunding.sol\":3731:3765  shareholders[i].addr == msg.sender */\n      0xffffffffffffffffffffffffffffffffffffffff\n      and\n        /* \"contracts/DistributeFunding.sol\":3731:3743  shareholders */\n      0x04\n        /* \"contracts/DistributeFunding.sol\":3744:3745  i */\n      dup3\n        /* \"contracts/DistributeFunding.sol\":3731:3746  shareholders[i] */\n      dup2\n      sload\n      dup2\n      lt\n      tag_93\n      jumpi\n      tag_94\n      tag_77\n      jump\t// in\n    tag_94:\n    tag_93:\n      swap1\n      0x00\n      mstore\n      keccak256(0x00, 0x20)\n      swap1\n      0x03\n      mul\n      add\n        /* \"contracts/DistributeFunding.sol\":3731:3751  shareholders[i].addr */\n      0x00\n      add\n      0x00\n      swap1\n      sload\n      swap1\n      0x0100\n      exp\n      swap1\n      div\n      0xffffffffffffffffffffffffffffffffffffffff\n      and\n        /* \"contracts/DistributeFunding.sol\":3731:3765  shareholders[i].addr == msg.sender */\n      0xffffffffffffffffffffffffffffffffffffffff\n      and\n      sub\n        /* \"contracts/DistributeFunding.sol\":3727:3866  if (shareholders[i].addr == msg.sender) {... */\n      tag_96\n      jumpi\n        /* \"contracts/DistributeFunding.sol\":3794:3798  true */\n      0x01\n        /* \"contracts/DistributeFunding.sol\":3786:3798  found = true */\n      swap3\n      pop\n        /* \"contracts/DistributeFunding.sol\":3825:3826  i */\n      dup1\n        /* \"contracts/DistributeFunding.sol\":3817:3826  index = i */\n      swap2\n      pop\n        /* \"contracts/DistributeFunding.sol\":3845:3850  break */\n      jump(tag_91)\n        /* \"contracts/DistributeFunding.sol\":3727:3866  if (shareholders[i].addr == msg.sender) {... */\n    tag_96:\n        /* \"contracts/DistributeFunding.sol\":3707:3710  i++ */\n      dup1\n      dup1\n      0x01\n      add\n      swap2\n      pop\n      pop\n        /* \"contracts/DistributeFunding.sol\":3662:3877  for (uint256 i = 0; i < shareholders.length; i++) {... */\n      jump(tag_90)\n    tag_91:\n      pop\n        /* \"contracts/DistributeFunding.sol\":3905:3910  found */\n      dup2\n        /* \"contracts/DistributeFunding.sol\":3897:3932  require(found, \"Not a shareholder\") */\n      tag_97\n      jumpi\n      mload(0x40)\n      0x08c379a000000000000000000000000000000000000000000000000000000000\n      dup2\n      mstore\n      0x04\n      add\n      tag_98\n      swap1\n      tag_99\n      jump\t// in\n    tag_98:\n      mload(0x40)\n      dup1\n      swap2\n      sub\n      swap1\n      revert\n    tag_97:\n        /* \"contracts/DistributeFunding.sol\":3952:3964  shareholders */\n      0x04\n        /* \"contracts/DistributeFunding.sol\":3965:3970  index */\n      dup2\n        /* \"contracts/DistributeFunding.sol\":3952:3971  shareholders[index] */\n      dup2\n      sload\n      dup2\n      lt\n      tag_100\n      jumpi\n      tag_101\n      tag_77\n      jump\t// in\n    tag_101:\n    tag_100:\n      swap1\n      0x00\n      mstore\n      keccak256(0x00, 0x20)\n      swap1\n      0x03\n      mul\n      add\n        /* \"contracts/DistributeFunding.sol\":3952:3984  shareholders[index].hasWithdrawn */\n      0x02\n      add\n      0x00\n      swap1\n      sload\n      swap1\n      0x0100\n      exp\n      swap1\n      div\n      0xff\n      and\n        /* \"contracts/DistributeFunding.sol\":3951:3984  !shareholders[index].hasWithdrawn */\n      iszero\n        /* \"contracts/DistributeFunding.sol\":3943:4006  require(!shareholders[index].hasWithdrawn, \"Already withdrawn\") */\n      tag_103\n      jumpi\n      mload(0x40)\n      0x08c379a000000000000000000000000000000000000000000000000000000000\n      dup2\n      mstore\n      0x04\n      add\n      tag_104\n      swap1\n      tag_105\n      jump\t// in\n    tag_104:\n      mload(0x40)\n      dup1\n      swap2\n      sub\n      swap1\n      revert\n    tag_103:\n        /* \"contracts/DistributeFunding.sol\":4027:4041  uint256 amount */\n      0x00\n        /* \"contracts/DistributeFunding.sol\":4095:4098  100 */\n      0x64\n        /* \"contracts/DistributeFunding.sol\":4061:4073  shareholders */\n      0x04\n        /* \"contracts/DistributeFunding.sol\":4074:4079  index */\n      dup4\n        /* \"contracts/DistributeFunding.sol\":4061:4080  shareholders[index] */\n      dup2\n      sload\n      dup2\n      lt\n      tag_106\n      jumpi\n      tag_107\n      tag_77\n      jump\t// in\n    tag_107:\n    tag_106:\n      swap1\n      0x00\n      mstore\n      keccak256(0x00, 0x20)\n      swap1\n      0x03\n      mul\n      add\n        /* \"contracts/DistributeFunding.sol\":4061:4091  shareholders[index].percentage */\n      0x01\n      add\n      sload\n        /* \"contracts/DistributeFunding.sol\":4045:4058  totalReceived */\n      sload(0x02)\n        /* \"contracts/DistributeFunding.sol\":4045:4091  totalReceived * shareholders[index].percentage */\n      tag_109\n      swap2\n      swap1\n      tag_110\n      jump\t// in\n    tag_109:\n        /* \"contracts/DistributeFunding.sol\":4044:4098  (totalReceived * shareholders[index].percentage) / 100 */\n      tag_111\n      swap2\n      swap1\n      tag_112\n      jump\t// in\n    tag_111:\n        /* \"contracts/DistributeFunding.sol\":4027:4098  uint256 amount = (totalReceived * shareholders[index].percentage) / 100 */\n      swap1\n      pop\n        /* \"contracts/DistributeFunding.sol\":4126:4127  0 */\n      0x00\n        /* \"contracts/DistributeFunding.sol\":4117:4123  amount */\n      dup2\n        /* \"contracts/DistributeFunding.sol\":4117:4127  amount > 0 */\n      gt\n        /* \"contracts/DistributeFunding.sol\":4109:4141  require(amount > 0, \"No tokens\") */\n      tag_113\n      jumpi\n      mload(0x40)\n      0x08c379a000000000000000000000000000000000000000000000000000000000\n      dup2\n      mstore\n      0x04\n      add\n      tag_114\n      swap1\n      tag_115\n      jump\t// in\n    tag_114:\n      mload(0x40)\n      dup1\n      swap2\n      sub\n      swap1\n      revert\n    tag_113:\n        /* \"contracts/DistributeFunding.sol\":4197:4201  true */\n      0x01\n        /* \"contracts/DistributeFunding.sol\":4162:4174  shareholders */\n      0x04\n        /* \"contracts/DistributeFunding.sol\":4175:4180  index */\n      dup4\n        /* \"contracts/DistributeFunding.sol\":4162:4181  shareholders[index] */\n      dup2\n      sload\n      dup2\n      lt\n      tag_116\n      jumpi\n      tag_117\n      tag_77\n      jump\t// in\n    tag_117:\n    tag_116:\n      swap1\n      0x00\n      mstore\n      keccak256(0x00, 0x20)\n      swap1\n      0x03\n      mul\n      add\n        /* \"contracts/DistributeFunding.sol\":4162:4194  shareholders[index].hasWithdrawn */\n      0x02\n      add\n      0x00\n        /* \"contracts/DistributeFunding.sol\":4162:4201  shareholders[index].hasWithdrawn = true */\n      0x0100\n      exp\n      dup2\n      sload\n      dup2\n      0xff\n      mul\n      not\n      and\n      swap1\n      dup4\n      iszero\n      iszero\n      mul\n      or\n      swap1\n      sstore\n      pop\n        /* \"contracts/DistributeFunding.sol\":4222:4234  IERC20 token */\n      0x00\n        /* \"contracts/DistributeFunding.sol\":4244:4256  tokenAddress */\n      0x01\n      0x00\n      swap1\n      sload\n      swap1\n      0x0100\n      exp\n      swap1\n      div\n      0xffffffffffffffffffffffffffffffffffffffff\n      and\n        /* \"contracts/DistributeFunding.sol\":4222:4257  IERC20 token = IERC20(tokenAddress) */\n      swap1\n      pop\n        /* \"contracts/DistributeFunding.sol\":4276:4281  token */\n      dup1\n        /* \"contracts/DistributeFunding.sol\":4276:4290  token.transfer */\n      0xffffffffffffffffffffffffffffffffffffffff\n      and\n      0xa9059cbb\n        /* \"contracts/DistributeFunding.sol\":4291:4301  msg.sender */\n      caller\n        /* \"contracts/DistributeFunding.sol\":4303:4309  amount */\n      dup5\n        /* \"contracts/DistributeFunding.sol\":4276:4310  token.transfer(msg.sender, amount) */\n      mload(0x40)\n      dup4\n      0xffffffff\n      and\n      0xe0\n      shl\n      dup2\n      mstore\n      0x04\n      add\n      tag_119\n      swap3\n      swap2\n      swap1\n      tag_120\n      jump\t// in\n    tag_119:\n      0x20\n      mload(0x40)\n      dup1\n      dup4\n      sub\n      dup2\n      0x00\n      dup8\n      gas\n      call\n      iszero\n      dup1\n      iszero\n      tag_122\n      jumpi\n      returndatasize\n      0x00\n      dup1\n      returndatacopy\n      revert(0x00, returndatasize)\n    tag_122:\n      pop\n      pop\n      pop\n      pop\n      mload(0x40)\n      returndatasize\n      not(0x1f)\n      0x1f\n      dup3\n      add\n      and\n      dup3\n      add\n      dup1\n      0x40\n      mstore\n      pop\n      dup2\n      add\n      swap1\n      tag_123\n      swap2\n      swap1\n      tag_124\n      jump\t// in\n    tag_123:\n        /* \"contracts/DistributeFunding.sol\":4268:4330  require(token.transfer(msg.sender, amount), \"Transfer failed\") */\n      tag_125\n      jumpi\n      mload(0x40)\n      0x08c379a000000000000000000000000000000000000000000000000000000000\n      dup2\n      mstore\n      0x04\n      add\n      tag_126\n      swap1\n      tag_127\n      jump\t// in\n    tag_126:\n      mload(0x40)\n      dup1\n      swap2\n      sub\n      swap1\n      revert\n    tag_125:\n        /* \"contracts/DistributeFunding.sol\":4361:4371  msg.sender */\n      caller\n        /* \"contracts/DistributeFunding.sol\":4346:4380  ShareWithdrawn(msg.sender, amount) */\n      0xffffffffffffffffffffffffffffffffffffffff\n      and\n      0x44d1ab781574735bc4050ac804fb34e512600e6cf637a801375f3ffa0b4b706f\n        /* \"contracts/DistributeFunding.sol\":4373:4379  amount */\n      dup4\n        /* \"contracts/DistributeFunding.sol\":4346:4380  ShareWithdrawn(msg.sender, amount) */\n      mload(0x40)\n      tag_128\n      swap2\n      swap1\n      tag_23\n      jump\t// in\n    tag_128:\n      mload(0x40)\n      dup1\n      swap2\n      sub\n      swap1\n      log2\n        /* \"contracts/DistributeFunding.sol\":3529:4388  {... */\n      pop\n      pop\n      pop\n      pop\n        /* \"contracts/DistributeFunding.sol\":3497:4388  function withdrawShare() public {... */\n      jump\t// out\n        /* \"contracts/DistributeFunding.sol\":584:635  mapping(address => uint256) public shareholderIndex */\n    tag_41:\n      mstore(0x20, 0x05)\n      dup1\n      0x00\n      mstore\n      keccak256(0x00, 0x40)\n      0x00\n      swap2\n      pop\n      swap1\n      pop\n      sload\n      dup2\n      jump\t// out\n        /* \"contracts/DistributeFunding.sol\":3057:3485  function receiveTokens() public {... */\n    tag_44:\n        /* \"contracts/DistributeFunding.sol\":3109:3122  fundsReceived */\n      0x03\n      0x00\n      swap1\n      sload\n      swap1\n      0x0100\n      exp\n      swap1\n      div\n      0xff\n      and\n        /* \"contracts/DistributeFunding.sol\":3108:3122  !fundsReceived */\n      iszero\n        /* \"contracts/DistributeFunding.sol\":3100:3143  require(!fundsReceived, \"Already received\") */\n      tag_130\n      jumpi\n      mload(0x40)\n      0x08c379a000000000000000000000000000000000000000000000000000000000\n      dup2\n      mstore\n      0x04\n      add\n      tag_131\n      swap1\n      tag_132\n      jump\t// in\n    tag_131:\n      mload(0x40)\n      dup1\n      swap2\n      sub\n      swap1\n      revert\n    tag_130:\n        /* \"contracts/DistributeFunding.sol\":3184:3185  0 */\n      0x00\n        /* \"contracts/DistributeFunding.sol\":3162:3174  shareholders */\n      0x04\n        /* \"contracts/DistributeFunding.sol\":3162:3181  shareholders.length */\n      dup1\n      sload\n      swap1\n      pop\n        /* \"contracts/DistributeFunding.sol\":3162:3185  shareholders.length > 0 */\n      gt\n        /* \"contracts/DistributeFunding.sol\":3154:3205  require(shareholders.length > 0, \"No shareholders\") */\n      tag_133\n      jumpi\n      mload(0x40)\n      0x08c379a000000000000000000000000000000000000000000000000000000000\n      dup2\n      mstore\n      0x04\n      add\n      tag_134\n      swap1\n      tag_135\n      jump\t// in\n    tag_134:\n      mload(0x40)\n      dup1\n      swap2\n      sub\n      swap1\n      revert\n    tag_133:\n        /* \"contracts/DistributeFunding.sol\":3226:3238  IERC20 token */\n      0x00\n        /* \"contracts/DistributeFunding.sol\":3248:3260  tokenAddress */\n      0x01\n      0x00\n      swap1\n      sload\n      swap1\n      0x0100\n      exp\n      swap1\n      div\n      0xffffffffffffffffffffffffffffffffffffffff\n      and\n        /* \"contracts/DistributeFunding.sol\":3226:3261  IERC20 token = IERC20(tokenAddress) */\n      swap1\n      pop\n        /* \"contracts/DistributeFunding.sol\":3272:3287  uint256 balance */\n      0x00\n        /* \"contracts/DistributeFunding.sol\":3290:3295  token */\n      dup2\n        /* \"contracts/DistributeFunding.sol\":3290:3305  token.balanceOf */\n      0xffffffffffffffffffffffffffffffffffffffff\n      and\n      0x70a08231\n        /* \"contracts/DistributeFunding.sol\":3314:3318  this */\n      address\n        /* \"contracts/DistributeFunding.sol\":3290:3320  token.balanceOf(address(this)) */\n      mload(0x40)\n      dup3\n      0xffffffff\n      and\n      0xe0\n      shl\n      dup2\n      mstore\n      0x04\n      add\n      tag_136\n      swap2\n      swap1\n      tag_55\n      jump\t// in\n    tag_136:\n      0x20\n      mload(0x40)\n      dup1\n      dup4\n      sub\n      dup2\n      dup7\n      gas\n      staticcall\n      iszero\n      dup1\n      iszero\n      tag_138\n      jumpi\n      returndatasize\n      0x00\n      dup1\n      returndatacopy\n      revert(0x00, returndatasize)\n    tag_138:\n      pop\n      pop\n      pop\n      pop\n      mload(0x40)\n      returndatasize\n      not(0x1f)\n      0x1f\n      dup3\n      add\n      and\n      dup3\n      add\n      dup1\n      0x40\n      mstore\n      pop\n      dup2\n      add\n      swap1\n      tag_139\n      swap2\n      swap1\n      tag_140\n      jump\t// in\n    tag_139:\n        /* \"contracts/DistributeFunding.sol\":3272:3320  uint256 balance = token.balanceOf(address(this)) */\n      swap1\n      pop\n        /* \"contracts/DistributeFunding.sol\":3349:3350  0 */\n      0x00\n        /* \"contracts/DistributeFunding.sol\":3339:3346  balance */\n      dup2\n        /* \"contracts/DistributeFunding.sol\":3339:3350  balance > 0 */\n      gt\n        /* \"contracts/DistributeFunding.sol\":3331:3364  require(balance > 0, \"No tokens\") */\n      tag_141\n      jumpi\n      mload(0x40)\n      0x08c379a000000000000000000000000000000000000000000000000000000000\n      dup2\n      mstore\n      0x04\n      add\n      tag_142\n      swap1\n      tag_115\n      jump\t// in\n    tag_142:\n      mload(0x40)\n      dup1\n      swap2\n      sub\n      swap1\n      revert\n    tag_141:\n        /* \"contracts/DistributeFunding.sol\":3401:3408  balance */\n      dup1\n        /* \"contracts/DistributeFunding.sol\":3385:3398  totalReceived */\n      0x02\n        /* \"contracts/DistributeFunding.sol\":3385:3408  totalReceived = balance */\n      dup2\n      swap1\n      sstore\n      pop\n        /* \"contracts/DistributeFunding.sol\":3435:3439  true */\n      0x01\n        /* \"contracts/DistributeFunding.sol\":3419:3432  fundsReceived */\n      0x03\n      0x00\n        /* \"contracts/DistributeFunding.sol\":3419:3439  fundsReceived = true */\n      0x0100\n      exp\n      dup2\n      sload\n      dup2\n      0xff\n      mul\n      not\n      and\n      swap1\n      dup4\n      iszero\n      iszero\n      mul\n      or\n      swap1\n      sstore\n      pop\n        /* \"contracts/DistributeFunding.sol\":3455:3477  FundsReceived(balance) */\n      0xbcdc7071c1beb6dcf2744621e0b29a2f2432ee20812d9ca5e3d5e8f9308d93a3\n        /* \"contracts/DistributeFunding.sol\":3469:3476  balance */\n      dup2\n        /* \"contracts/DistributeFunding.sol\":3455:3477  FundsReceived(balance) */\n      mload(0x40)\n      tag_143\n      swap2\n      swap1\n      tag_23\n      jump\t// in\n    tag_143:\n      mload(0x40)\n      dup1\n      swap2\n      sub\n      swap1\n      log1\n        /* \"contracts/DistributeFunding.sol\":3089:3485  {... */\n      pop\n      pop\n        /* \"contracts/DistributeFunding.sol\":3057:3485  function receiveTokens() public {... */\n      jump\t// out\n        /* \"contracts/DistributeFunding.sol\":1595:3045  function addShareholder(address _shareholder, uint256 _percentage) public onlyOwner beforeFundsReceived {... */\n    tag_48:\n        /* \"contracts/DistributeFunding.sol\":1122:1127  owner */\n      0x00\n      dup1\n      sload\n      swap1\n      0x0100\n      exp\n      swap1\n      div\n      0xffffffffffffffffffffffffffffffffffffffff\n      and\n        /* \"contracts/DistributeFunding.sol\":1108:1127  msg.sender == owner */\n      0xffffffffffffffffffffffffffffffffffffffff\n      and\n        /* \"contracts/DistributeFunding.sol\":1108:1118  msg.sender */\n      caller\n        /* \"contracts/DistributeFunding.sol\":1108:1127  msg.sender == owner */\n      0xffffffffffffffffffffffffffffffffffffffff\n      and\n      eq\n        /* \"contracts/DistributeFunding.sol\":1100:1142  require(msg.sender == owner, \"Only owner\") */\n      tag_145\n      jumpi\n      mload(0x40)\n      0x08c379a000000000000000000000000000000000000000000000000000000000\n      dup2\n      mstore\n      0x04\n      add\n      tag_146\n      swap1\n      tag_147\n      jump\t// in\n    tag_146:\n      mload(0x40)\n      dup1\n      swap2\n      sub\n      swap1\n      revert\n    tag_145:\n        /* \"contracts/DistributeFunding.sol\":1225:1238  fundsReceived */\n      0x03\n      0x00\n      swap1\n      sload\n      swap1\n      0x0100\n      exp\n      swap1\n      div\n      0xff\n      and\n        /* \"contracts/DistributeFunding.sol\":1224:1238  !fundsReceived */\n      iszero\n        /* \"contracts/DistributeFunding.sol\":1216:1277  require(!fundsReceived, \"Cannot modify after funds received\") */\n      tag_149\n      jumpi\n      mload(0x40)\n      0x08c379a000000000000000000000000000000000000000000000000000000000\n      dup2\n      mstore\n      0x04\n      add\n      tag_150\n      swap1\n      tag_151\n      jump\t// in\n    tag_150:\n      mload(0x40)\n      dup1\n      swap2\n      sub\n      swap1\n      revert\n    tag_149:\n        /* \"contracts/DistributeFunding.sol\":1742:1743  0 */\n      0x00\n        /* \"contracts/DistributeFunding.sol\":1718:1744  _shareholder != address(0) */\n      0xffffffffffffffffffffffffffffffffffffffff\n      and\n        /* \"contracts/DistributeFunding.sol\":1718:1730  _shareholder */\n      dup3\n        /* \"contracts/DistributeFunding.sol\":1718:1744  _shareholder != address(0) */\n      0xffffffffffffffffffffffffffffffffffffffff\n      and\n      sub\n        /* \"contracts/DistributeFunding.sol\":1710:1764  require(_shareholder != address(0), \"Invalid address\") */\n      tag_153\n      jumpi\n      mload(0x40)\n      0x08c379a000000000000000000000000000000000000000000000000000000000\n      dup2\n      mstore\n      0x04\n      add\n      tag_154\n      swap1\n      tag_155\n      jump\t// in\n    tag_154:\n      mload(0x40)\n      dup1\n      swap2\n      sub\n      swap1\n      revert\n    tag_153:\n        /* \"contracts/DistributeFunding.sol\":1797:1798  0 */\n      0x00\n        /* \"contracts/DistributeFunding.sol\":1783:1794  _percentage */\n      dup2\n        /* \"contracts/DistributeFunding.sol\":1783:1798  _percentage > 0 */\n      gt\n        /* \"contracts/DistributeFunding.sol\":1775:1821  require(_percentage > 0, \"Invalid percentage\") */\n      tag_156\n      jumpi\n      mload(0x40)\n      0x08c379a000000000000000000000000000000000000000000000000000000000\n      dup2\n      mstore\n      0x04\n      add\n      tag_157\n      swap1\n      tag_158\n      jump\t// in\n    tag_157:\n      mload(0x40)\n      dup1\n      swap2\n      sub\n      swap1\n      revert\n    tag_156:\n        /* \"contracts/DistributeFunding.sol\":1882:1885  100 */\n      0x64\n        /* \"contracts/DistributeFunding.sol\":1867:1878  _percentage */\n      dup2\n        /* \"contracts/DistributeFunding.sol\":1840:1864  totalAllocatedPercentage */\n      sload(0x06)\n        /* \"contracts/DistributeFunding.sol\":1840:1878  totalAllocatedPercentage + _percentage */\n      tag_159\n      swap2\n      swap1\n      tag_160\n      jump\t// in\n    tag_159:\n        /* \"contracts/DistributeFunding.sol\":1840:1885  totalAllocatedPercentage + _percentage <= 100 */\n      gt\n      iszero\n        /* \"contracts/DistributeFunding.sol\":1832:1902  require(totalAllocatedPercentage + _percentage <= 100, \"Exceeds 100%\") */\n      tag_161\n      jumpi\n      mload(0x40)\n      0x08c379a000000000000000000000000000000000000000000000000000000000\n      dup2\n      mstore\n      0x04\n      add\n      tag_162\n      swap1\n      tag_163\n      jump\t// in\n    tag_162:\n      mload(0x40)\n      dup1\n      swap2\n      sub\n      swap1\n      revert\n    tag_161:\n        /* \"contracts/DistributeFunding.sol\":1923:1934  bool exists */\n      0x00\n        /* \"contracts/DistributeFunding.sol\":1953:1966  uint256 index */\n      dup1\n        /* \"contracts/DistributeFunding.sol\":1996:2005  uint256 i */\n      0x00\n        /* \"contracts/DistributeFunding.sol\":1991:2209  for (uint256 i = 0; i < shareholders.length; i++) {... */\n    tag_164:\n        /* \"contracts/DistributeFunding.sol\":2015:2027  shareholders */\n      0x04\n        /* \"contracts/DistributeFunding.sol\":2015:2034  shareholders.length */\n      dup1\n      sload\n      swap1\n      pop\n        /* \"contracts/DistributeFunding.sol\":2011:2012  i */\n      dup2\n        /* \"contracts/DistributeFunding.sol\":2011:2034  i < shareholders.length */\n      lt\n        /* \"contracts/DistributeFunding.sol\":1991:2209  for (uint256 i = 0; i < shareholders.length; i++) {... */\n      iszero\n      tag_165\n      jumpi\n        /* \"contracts/DistributeFunding.sol\":2084:2096  _shareholder */\n      dup5\n        /* \"contracts/DistributeFunding.sol\":2060:2096  shareholders[i].addr == _shareholder */\n      0xffffffffffffffffffffffffffffffffffffffff\n      and\n        /* \"contracts/DistributeFunding.sol\":2060:2072  shareholders */\n      0x04\n        /* \"contracts/DistributeFunding.sol\":2073:2074  i */\n      dup3\n        /* \"contracts/DistributeFunding.sol\":2060:2075  shareholders[i] */\n      dup2\n      sload\n      dup2\n      lt\n      tag_167\n      jumpi\n      tag_168\n      tag_77\n      jump\t// in\n    tag_168:\n    tag_167:\n      swap1\n      0x00\n      mstore\n      keccak256(0x00, 0x20)\n      swap1\n      0x03\n      mul\n      add\n        /* \"contracts/DistributeFunding.sol\":2060:2080  shareholders[i].addr */\n      0x00\n      add\n      0x00\n      swap1\n      sload\n      swap1\n      0x0100\n      exp\n      swap1\n      div\n      0xffffffffffffffffffffffffffffffffffffffff\n      and\n        /* \"contracts/DistributeFunding.sol\":2060:2096  shareholders[i].addr == _shareholder */\n      0xffffffffffffffffffffffffffffffffffffffff\n      and\n      sub\n        /* \"contracts/DistributeFunding.sol\":2056:2198  if (shareholders[i].addr == _shareholder) {... */\n      tag_170\n      jumpi\n        /* \"contracts/DistributeFunding.sol\":2126:2130  true */\n      0x01\n        /* \"contracts/DistributeFunding.sol\":2117:2130  exists = true */\n      swap3\n      pop\n        /* \"contracts/DistributeFunding.sol\":2157:2158  i */\n      dup1\n        /* \"contracts/DistributeFunding.sol\":2149:2158  index = i */\n      swap2\n      pop\n        /* \"contracts/DistributeFunding.sol\":2177:2182  break */\n      jump(tag_165)\n        /* \"contracts/DistributeFunding.sol\":2056:2198  if (shareholders[i].addr == _shareholder) {... */\n    tag_170:\n        /* \"contracts/DistributeFunding.sol\":2036:2039  i++ */\n      dup1\n      dup1\n      0x01\n      add\n      swap2\n      pop\n      pop\n        /* \"contracts/DistributeFunding.sol\":1991:2209  for (uint256 i = 0; i < shareholders.length; i++) {... */\n      jump(tag_164)\n    tag_165:\n      pop\n        /* \"contracts/DistributeFunding.sol\":2233:2239  exists */\n      dup2\n        /* \"contracts/DistributeFunding.sol\":2229:3038  if (exists) {... */\n      iszero\n      tag_171\n      jumpi\n        /* \"contracts/DistributeFunding.sol\":2256:2277  uint256 oldPercentage */\n      0x00\n        /* \"contracts/DistributeFunding.sol\":2280:2292  shareholders */\n      0x04\n        /* \"contracts/DistributeFunding.sol\":2293:2298  index */\n      dup3\n        /* \"contracts/DistributeFunding.sol\":2280:2299  shareholders[index] */\n      dup2\n      sload\n      dup2\n      lt\n      tag_172\n      jumpi\n      tag_173\n      tag_77\n      jump\t// in\n    tag_173:\n    tag_172:\n      swap1\n      0x00\n      mstore\n      keccak256(0x00, 0x20)\n      swap1\n      0x03\n      mul\n      add\n        /* \"contracts/DistributeFunding.sol\":2280:2310  shareholders[index].percentage */\n      0x01\n      add\n      sload\n        /* \"contracts/DistributeFunding.sol\":2256:2310  uint256 oldPercentage = shareholders[index].percentage */\n      swap1\n      pop\n        /* \"contracts/DistributeFunding.sol\":2395:2406  _percentage */\n      dup4\n        /* \"contracts/DistributeFunding.sol\":2379:2392  oldPercentage */\n      dup2\n        /* \"contracts/DistributeFunding.sol\":2352:2376  totalAllocatedPercentage */\n      sload(0x06)\n        /* \"contracts/DistributeFunding.sol\":2352:2392  totalAllocatedPercentage - oldPercentage */\n      tag_175\n      swap2\n      swap1\n      tag_176\n      jump\t// in\n    tag_175:\n        /* \"contracts/DistributeFunding.sol\":2352:2406  totalAllocatedPercentage - oldPercentage + _percentage */\n      tag_177\n      swap2\n      swap1\n      tag_160\n      jump\t// in\n    tag_177:\n        /* \"contracts/DistributeFunding.sol\":2325:2349  totalAllocatedPercentage */\n      0x06\n        /* \"contracts/DistributeFunding.sol\":2325:2406  totalAllocatedPercentage = totalAllocatedPercentage - oldPercentage + _percentage */\n      dup2\n      swap1\n      sstore\n      pop\n        /* \"contracts/DistributeFunding.sol\":2454:2465  _percentage */\n      dup4\n        /* \"contracts/DistributeFunding.sol\":2421:2433  shareholders */\n      0x04\n        /* \"contracts/DistributeFunding.sol\":2434:2439  index */\n      dup4\n        /* \"contracts/DistributeFunding.sol\":2421:2440  shareholders[index] */\n      dup2\n      sload\n      dup2\n      lt\n      tag_178\n      jumpi\n      tag_179\n      tag_77\n      jump\t// in\n    tag_179:\n    tag_178:\n      swap1\n      0x00\n      mstore\n      keccak256(0x00, 0x20)\n      swap1\n      0x03\n      mul\n      add\n        /* \"contracts/DistributeFunding.sol\":2421:2451  shareholders[index].percentage */\n      0x01\n      add\n        /* \"contracts/DistributeFunding.sol\":2421:2465  shareholders[index].percentage = _percentage */\n      dup2\n      swap1\n      sstore\n      pop\n        /* \"contracts/DistributeFunding.sol\":2504:2516  _shareholder */\n      dup5\n        /* \"contracts/DistributeFunding.sol\":2485:2545  ShareholderUpdated(_shareholder, oldPercentage, _percentage) */\n      0xffffffffffffffffffffffffffffffffffffffff\n      and\n      0xc7ce19f077ef8efce4ee2b5a828fce80c50fbe4bed9e59245675509d04cbee79\n        /* \"contracts/DistributeFunding.sol\":2518:2531  oldPercentage */\n      dup3\n        /* \"contracts/DistributeFunding.sol\":2533:2544  _percentage */\n      dup7\n        /* \"contracts/DistributeFunding.sol\":2485:2545  ShareholderUpdated(_shareholder, oldPercentage, _percentage) */\n      mload(0x40)\n      tag_181\n      swap3\n      swap2\n      swap1\n      tag_182\n      jump\t// in\n    tag_181:\n      mload(0x40)\n      dup1\n      swap2\n      sub\n      swap1\n      log2\n        /* \"contracts/DistributeFunding.sol\":2241:2557  {... */\n      pop\n        /* \"contracts/DistributeFunding.sol\":2229:3038  if (exists) {... */\n      jump(tag_183)\n    tag_171:\n        /* \"contracts/DistributeFunding.sol\":2578:2611  Shareholder memory newShareholder */\n      0x00\n        /* \"contracts/DistributeFunding.sol\":2614:2790  Shareholder({... */\n      mload(0x40)\n      dup1\n      0x80\n      add\n      0x40\n      mstore\n      dup1\n        /* \"contracts/DistributeFunding.sol\":2651:2663  _shareholder */\n      dup7\n        /* \"contracts/DistributeFunding.sol\":2614:2790  Shareholder({... */\n      0xffffffffffffffffffffffffffffffffffffffff\n      and\n      dup2\n      mstore\n      0x20\n      add\n        /* \"contracts/DistributeFunding.sol\":2694:2705  _percentage */\n      dup6\n        /* \"contracts/DistributeFunding.sol\":2614:2790  Shareholder({... */\n      dup2\n      mstore\n      0x20\n      add\n        /* \"contracts/DistributeFunding.sol\":2738:2743  false */\n      0x00\n        /* \"contracts/DistributeFunding.sol\":2614:2790  Shareholder({... */\n      iszero\n      iszero\n      dup2\n      mstore\n      0x20\n      add\n        /* \"contracts/DistributeFunding.sol\":2770:2774  true */\n      0x01\n        /* \"contracts/DistributeFunding.sol\":2614:2790  Shareholder({... */\n      iszero\n      iszero\n      dup2\n      mstore\n      pop\n        /* \"contracts/DistributeFunding.sol\":2578:2790  Shareholder memory newShareholder = Shareholder({... */\n      swap1\n      pop\n        /* \"contracts/DistributeFunding.sol\":2805:2817  shareholders */\n      0x04\n        /* \"contracts/DistributeFunding.sol\":2823:2837  newShareholder */\n      dup2\n        /* \"contracts/DistributeFunding.sol\":2805:2838  shareholders.push(newShareholder) */\n      swap1\n      dup1\n      0x01\n      dup2\n      sload\n      add\n      dup1\n      dup3\n      sstore\n      dup1\n      swap2\n      pop\n      pop\n      0x01\n      swap1\n      sub\n      swap1\n      0x00\n      mstore\n      keccak256(0x00, 0x20)\n      swap1\n      0x03\n      mul\n      add\n      0x00\n      swap1\n      swap2\n      swap1\n      swap2\n      swap1\n      swap2\n      pop\n      0x00\n      dup3\n      add\n      mload\n      dup2\n      0x00\n      add\n      exp(0x0100, 0x00)\n      dup2\n      sload\n      dup2\n      0xffffffffffffffffffffffffffffffffffffffff\n      mul\n      not\n      and\n      swap1\n      dup4\n      0xffffffffffffffffffffffffffffffffffffffff\n      and\n      mul\n      or\n      swap1\n      sstore\n      pop\n      0x20\n      dup3\n      add\n      mload\n      dup2\n      0x01\n      add\n      sstore\n      0x40\n      dup3\n      add\n      mload\n      dup2\n      0x02\n      add\n      exp(0x0100, 0x00)\n      dup2\n      sload\n      dup2\n      0xff\n      mul\n      not\n      and\n      swap1\n      dup4\n      iszero\n      iszero\n      mul\n      or\n      swap1\n      sstore\n      pop\n      0x60\n      dup3\n      add\n      mload\n      dup2\n      0x02\n      add\n      exp(0x0100, 0x01)\n      dup2\n      sload\n      dup2\n      0xff\n      mul\n      not\n      and\n      swap1\n      dup4\n      iszero\n      iszero\n      mul\n      or\n      swap1\n      sstore\n      pop\n      pop\n      pop\n        /* \"contracts/DistributeFunding.sol\":2908:2909  1 */\n      0x01\n        /* \"contracts/DistributeFunding.sol\":2886:2898  shareholders */\n      0x04\n        /* \"contracts/DistributeFunding.sol\":2886:2905  shareholders.length */\n      dup1\n      sload\n      swap1\n      pop\n        /* \"contracts/DistributeFunding.sol\":2886:2909  shareholders.length - 1 */\n      tag_185\n      swap2\n      swap1\n      tag_176\n      jump\t// in\n    tag_185:\n        /* \"contracts/DistributeFunding.sol\":2853:2869  shareholderIndex */\n      0x05\n        /* \"contracts/DistributeFunding.sol\":2853:2883  shareholderIndex[_shareholder] */\n      0x00\n        /* \"contracts/DistributeFunding.sol\":2870:2882  _shareholder */\n      dup8\n        /* \"contracts/DistributeFunding.sol\":2853:2883  shareholderIndex[_shareholder] */\n      0xffffffffffffffffffffffffffffffffffffffff\n      and\n      0xffffffffffffffffffffffffffffffffffffffff\n      and\n      dup2\n      mstore\n      0x20\n      add\n      swap1\n      dup2\n      mstore\n      0x20\n      add\n      0x00\n      keccak256\n        /* \"contracts/DistributeFunding.sol\":2853:2909  shareholderIndex[_shareholder] = shareholders.length - 1 */\n      dup2\n      swap1\n      sstore\n      pop\n        /* \"contracts/DistributeFunding.sol\":2952:2963  _percentage */\n      dup4\n        /* \"contracts/DistributeFunding.sol\":2924:2948  totalAllocatedPercentage */\n      0x06\n      0x00\n        /* \"contracts/DistributeFunding.sol\":2924:2963  totalAllocatedPercentage += _percentage */\n      dup3\n      dup3\n      sload\n      tag_186\n      swap2\n      swap1\n      tag_160\n      jump\t// in\n    tag_186:\n      swap3\n      pop\n      pop\n      dup2\n      swap1\n      sstore\n      pop\n        /* \"contracts/DistributeFunding.sol\":3000:3012  _shareholder */\n      dup5\n        /* \"contracts/DistributeFunding.sol\":2983:3026  ShareholderAdded(_shareholder, _percentage) */\n      0xffffffffffffffffffffffffffffffffffffffff\n      and\n      0x3bc19114ca6a687ffd9445c87615db284e96364365d72b010ec53244b45e561b\n        /* \"contracts/DistributeFunding.sol\":3014:3025  _percentage */\n      dup6\n        /* \"contracts/DistributeFunding.sol\":2983:3026  ShareholderAdded(_shareholder, _percentage) */\n      mload(0x40)\n      tag_187\n      swap2\n      swap1\n      tag_23\n      jump\t// in\n    tag_187:\n      mload(0x40)\n      dup1\n      swap2\n      sub\n      swap1\n      log2\n        /* \"contracts/DistributeFunding.sol\":2563:3038  {... */\n      pop\n        /* \"contracts/DistributeFunding.sol\":2229:3038  if (exists) {... */\n    tag_183:\n        /* \"contracts/DistributeFunding.sol\":1699:3045  {... */\n      pop\n      pop\n        /* \"contracts/DistributeFunding.sol\":1595:3045  function addShareholder(address _shareholder, uint256 _percentage) public onlyOwner beforeFundsReceived {... */\n      pop\n      pop\n      jump\t// out\n        /* \"contracts/DistributeFunding.sol\":5314:5423  function getTotalAllocated() public view returns (uint256) {... */\n    tag_50:\n        /* \"contracts/DistributeFunding.sol\":5364:5371  uint256 */\n      0x00\n        /* \"contracts/DistributeFunding.sol\":5391:5415  totalAllocatedPercentage */\n      sload(0x06)\n        /* \"contracts/DistributeFunding.sol\":5384:5415  return totalAllocatedPercentage */\n      swap1\n      pop\n        /* \"contracts/DistributeFunding.sol\":5314:5423  function getTotalAllocated() public view returns (uint256) {... */\n      swap1\n      jump\t// out\n        /* \"contracts/DistributeFunding.sol\":410:430  address public owner */\n    tag_53:\n      0x00\n      dup1\n      sload\n      swap1\n      0x0100\n      exp\n      swap1\n      div\n      0xffffffffffffffffffffffffffffffffffffffff\n      and\n      dup2\n      jump\t// out\n        /* \"contracts/DistributeFunding.sol\":437:464  address public tokenAddress */\n    tag_57:\n      0x01\n      0x00\n      swap1\n      sload\n      swap1\n      0x0100\n      exp\n      swap1\n      div\n      0xffffffffffffffffffffffffffffffffffffffff\n      and\n      dup2\n      jump\t// out\n        /* \"contracts/DistributeFunding.sol\":471:499  uint256 public totalReceived */\n    tag_60:\n      sload(0x02)\n      dup2\n      jump\t// out\n        /* \"contracts/DistributeFunding.sol\":544:577  Shareholder[] public shareholders */\n    tag_65:\n      0x04\n      dup2\n      dup2\n      sload\n      dup2\n      lt\n      tag_189\n      jumpi\n      0x00\n      dup1\n      revert\n    tag_189:\n      swap1\n      0x00\n      mstore\n      keccak256(0x00, 0x20)\n      swap1\n      0x03\n      mul\n      add\n      0x00\n      swap2\n      pop\n      swap1\n      pop\n      dup1\n      0x00\n      add\n      0x00\n      swap1\n      sload\n      swap1\n      0x0100\n      exp\n      swap1\n      div\n      0xffffffffffffffffffffffffffffffffffffffff\n      and\n      swap1\n      dup1\n      0x01\n      add\n      sload\n      swap1\n      dup1\n      0x02\n      add\n      0x00\n      swap1\n      sload\n      swap1\n      0x0100\n      exp\n      swap1\n      div\n      0xff\n      and\n      swap1\n      dup1\n      0x02\n      add\n      0x01\n      swap1\n      sload\n      swap1\n      0x0100\n      exp\n      swap1\n      div\n      0xff\n      and\n      swap1\n      pop\n      dup5\n      jump\t// out\n        /* \"contracts/DistributeFunding.sol\":4400:4790  function withdrawRemaining() public onlyOwner {... */\n    tag_69:\n        /* \"contracts/DistributeFunding.sol\":1122:1127  owner */\n      0x00\n      dup1\n      sload\n      swap1\n      0x0100\n      exp\n      swap1\n      div\n      0xffffffffffffffffffffffffffffffffffffffff\n      and\n        /* \"contracts/DistributeFunding.sol\":1108:1127  msg.sender == owner */\n      0xffffffffffffffffffffffffffffffffffffffff\n      and\n        /* \"contracts/DistributeFunding.sol\":1108:1118  msg.sender */\n      caller\n        /* \"contracts/DistributeFunding.sol\":1108:1127  msg.sender == owner */\n      0xffffffffffffffffffffffffffffffffffffffff\n      and\n      eq\n        /* \"contracts/DistributeFunding.sol\":1100:1142  require(msg.sender == owner, \"Only owner\") */\n      tag_192\n      jumpi\n      mload(0x40)\n      0x08c379a000000000000000000000000000000000000000000000000000000000\n      dup2\n      mstore\n      0x04\n      add\n      tag_193\n      swap1\n      tag_147\n      jump\t// in\n    tag_193:\n      mload(0x40)\n      dup1\n      swap2\n      sub\n      swap1\n      revert\n    tag_192:\n        /* \"contracts/DistributeFunding.sol\":4465:4478  fundsReceived */\n      0x03\n      0x00\n      swap1\n      sload\n      swap1\n      0x0100\n      exp\n      swap1\n      div\n      0xff\n      and\n        /* \"contracts/DistributeFunding.sol\":4457:4501  require(fundsReceived, \"Funds not received\") */\n      tag_195\n      jumpi\n      mload(0x40)\n      0x08c379a000000000000000000000000000000000000000000000000000000000\n      dup2\n      mstore\n      0x04\n      add\n      tag_196\n      swap1\n      tag_89\n      jump\t// in\n    tag_196:\n      mload(0x40)\n      dup1\n      swap2\n      sub\n      swap1\n      revert\n    tag_195:\n        /* \"contracts/DistributeFunding.sol\":4522:4534  IERC20 token */\n      0x00\n        /* \"contracts/DistributeFunding.sol\":4544:4556  tokenAddress */\n      0x01\n      0x00\n      swap1\n      sload\n      swap1\n      0x0100\n      exp\n      swap1\n      div\n      0xffffffffffffffffffffffffffffffffffffffff\n      and\n        /* \"contracts/DistributeFunding.sol\":4522:4557  IERC20 token = IERC20(tokenAddress) */\n      swap1\n      pop\n        /* \"contracts/DistributeFunding.sol\":4568:4583  uint256 balance */\n      0x00\n        /* \"contracts/DistributeFunding.sol\":4586:4591  token */\n      dup2\n        /* \"contracts/DistributeFunding.sol\":4586:4601  token.balanceOf */\n      0xffffffffffffffffffffffffffffffffffffffff\n      and\n      0x70a08231\n        /* \"contracts/DistributeFunding.sol\":4610:4614  this */\n      address\n        /* \"contracts/DistributeFunding.sol\":4586:4616  token.balanceOf(address(this)) */\n      mload(0x40)\n      dup3\n      0xffffffff\n      and\n      0xe0\n      shl\n      dup2\n      mstore\n      0x04\n      add\n      tag_197\n      swap2\n      swap1\n      tag_55\n      jump\t// in\n    tag_197:\n      0x20\n      mload(0x40)\n      dup1\n      dup4\n      sub\n      dup2\n      dup7\n      gas\n      staticcall\n      iszero\n      dup1\n      iszero\n      tag_199\n      jumpi\n      returndatasize\n      0x00\n      dup1\n      returndatacopy\n      revert(0x00, returndatasize)\n    tag_199:\n      pop\n      pop\n      pop\n      pop\n      mload(0x40)\n      returndatasize\n      not(0x1f)\n      0x1f\n      dup3\n      add\n      and\n      dup3\n      add\n      dup1\n      0x40\n      mstore\n      pop\n      dup2\n      add\n      swap1\n      tag_200\n      swap2\n      swap1\n      tag_140\n      jump\t// in\n    tag_200:\n        /* \"contracts/DistributeFunding.sol\":4568:4616  uint256 balance = token.balanceOf(address(this)) */\n      swap1\n      pop\n        /* \"contracts/DistributeFunding.sol\":4645:4646  0 */\n      0x00\n        /* \"contracts/DistributeFunding.sol\":4635:4642  balance */\n      dup2\n        /* \"contracts/DistributeFunding.sol\":4635:4646  balance > 0 */\n      gt\n        /* \"contracts/DistributeFunding.sol\":4627:4663  require(balance > 0, \"No remaining\") */\n      tag_201\n      jumpi\n      mload(0x40)\n      0x08c379a000000000000000000000000000000000000000000000000000000000\n      dup2\n      mstore\n      0x04\n      add\n      tag_202\n      swap1\n      tag_203\n      jump\t// in\n    tag_202:\n      mload(0x40)\n      dup1\n      swap2\n      sub\n      swap1\n      revert\n    tag_201:\n        /* \"contracts/DistributeFunding.sol\":4682:4687  token */\n      dup2\n        /* \"contracts/DistributeFunding.sol\":4682:4696  token.transfer */\n      0xffffffffffffffffffffffffffffffffffffffff\n      and\n      0xa9059cbb\n        /* \"contracts/DistributeFunding.sol\":4697:4702  owner */\n      0x00\n      dup1\n      sload\n      swap1\n      0x0100\n      exp\n      swap1\n      div\n      0xffffffffffffffffffffffffffffffffffffffff\n      and\n        /* \"contracts/DistributeFunding.sol\":4704:4711  balance */\n      dup4\n        /* \"contracts/DistributeFunding.sol\":4682:4712  token.transfer(owner, balance) */\n      mload(0x40)\n      dup4\n      0xffffffff\n      and\n      0xe0\n      shl\n      dup2\n      mstore\n      0x04\n      add\n      tag_204\n      swap3\n      swap2\n      swap1\n      tag_120\n      jump\t// in\n    tag_204:\n      0x20\n      mload(0x40)\n      dup1\n      dup4\n      sub\n      dup2\n      0x00\n      dup8\n      gas\n      call\n      iszero\n      dup1\n      iszero\n      tag_206\n      jumpi\n      returndatasize\n      0x00\n      dup1\n      returndatacopy\n      revert(0x00, returndatasize)\n    tag_206:\n      pop\n      pop\n      pop\n      pop\n      mload(0x40)\n      returndatasize\n      not(0x1f)\n      0x1f\n      dup3\n      add\n      and\n      dup3\n      add\n      dup1\n      0x40\n      mstore\n      pop\n      dup2\n      add\n      swap1\n      tag_207\n      swap2\n      swap1\n      tag_124\n      jump\t// in\n    tag_207:\n        /* \"contracts/DistributeFunding.sol\":4674:4732  require(token.transfer(owner, balance), \"Transfer failed\") */\n      tag_208\n      jumpi\n      mload(0x40)\n      0x08c379a000000000000000000000000000000000000000000000000000000000\n      dup2\n      mstore\n      0x04\n      add\n      tag_209\n      swap1\n      tag_127\n      jump\t// in\n    tag_209:\n      mload(0x40)\n      dup1\n      swap2\n      sub\n      swap1\n      revert\n    tag_208:\n        /* \"contracts/DistributeFunding.sol\":4767:4772  owner */\n      0x00\n      dup1\n      sload\n      swap1\n      0x0100\n      exp\n      swap1\n      div\n      0xffffffffffffffffffffffffffffffffffffffff\n      and\n        /* \"contracts/DistributeFunding.sol\":4748:4782  RemainingWithdrawn(owner, balance) */\n      0xffffffffffffffffffffffffffffffffffffffff\n      and\n      0xb700c819c89549cd901221b05c2d1653b84086815ee1393d7dacb6f4ee312275\n        /* \"contracts/DistributeFunding.sol\":4774:4781  balance */\n      dup3\n        /* \"contracts/DistributeFunding.sol\":4748:4782  RemainingWithdrawn(owner, balance) */\n      mload(0x40)\n      tag_210\n      swap2\n      swap1\n      tag_23\n      jump\t// in\n    tag_210:\n      mload(0x40)\n      dup1\n      swap2\n      sub\n      swap1\n      log2\n        /* \"contracts/DistributeFunding.sol\":4446:4790  {... */\n      pop\n      pop\n        /* \"contracts/DistributeFunding.sol\":4400:4790  function withdrawRemaining() public onlyOwner {... */\n      jump\t// out\n        /* \"#utility.yul\":7:84   */\n    tag_211:\n        /* \"#utility.yul\":44:51   */\n      0x00\n        /* \"#utility.yul\":73:78   */\n      dup2\n        /* \"#utility.yul\":62:78   */\n      swap1\n      pop\n        /* \"#utility.yul\":7:84   */\n      swap2\n      swap1\n      pop\n      jump\t// out\n        /* \"#utility.yul\":90:208   */\n    tag_212:\n        /* \"#utility.yul\":177:201   */\n      tag_260\n        /* \"#utility.yul\":195:200   */\n      dup2\n        /* \"#utility.yul\":177:201   */\n      tag_211\n      jump\t// in\n    tag_260:\n        /* \"#utility.yul\":172:175   */\n      dup3\n        /* \"#utility.yul\":165:202   */\n      mstore\n        /* \"#utility.yul\":90:208   */\n      pop\n      pop\n      jump\t// out\n        /* \"#utility.yul\":214:436   */\n    tag_23:\n        /* \"#utility.yul\":307:311   */\n      0x00\n        /* \"#utility.yul\":345:347   */\n      0x20\n        /* \"#utility.yul\":334:343   */\n      dup3\n        /* \"#utility.yul\":330:348   */\n      add\n        /* \"#utility.yul\":322:348   */\n      swap1\n      pop\n        /* \"#utility.yul\":358:429   */\n      tag_262\n        /* \"#utility.yul\":426:427   */\n      0x00\n        /* \"#utility.yul\":415:424   */\n      dup4\n        /* \"#utility.yul\":411:428   */\n      add\n        /* \"#utility.yul\":402:408   */\n      dup5\n        /* \"#utility.yul\":358:429   */\n      tag_212\n      jump\t// in\n    tag_262:\n        /* \"#utility.yul\":214:436   */\n      swap3\n      swap2\n      pop\n      pop\n      jump\t// out\n        /* \"#utility.yul\":442:532   */\n    tag_213:\n        /* \"#utility.yul\":476:483   */\n      0x00\n        /* \"#utility.yul\":519:524   */\n      dup2\n        /* \"#utility.yul\":512:525   */\n      iszero\n        /* \"#utility.yul\":505:526   */\n      iszero\n        /* \"#utility.yul\":494:526   */\n      swap1\n      pop\n        /* \"#utility.yul\":442:532   */\n      swap2\n      swap1\n      pop\n      jump\t// out\n        /* \"#utility.yul\":538:647   */\n    tag_214:\n        /* \"#utility.yul\":619:640   */\n      tag_265\n        /* \"#utility.yul\":634:639   */\n      dup2\n        /* \"#utility.yul\":619:640   */\n      tag_213\n      jump\t// in\n    tag_265:\n        /* \"#utility.yul\":614:617   */\n      dup3\n        /* \"#utility.yul\":607:641   */\n      mstore\n        /* \"#utility.yul\":538:647   */\n      pop\n      pop\n      jump\t// out\n        /* \"#utility.yul\":653:863   */\n    tag_30:\n        /* \"#utility.yul\":740:744   */\n      0x00\n        /* \"#utility.yul\":778:780   */\n      0x20\n        /* \"#utility.yul\":767:776   */\n      dup3\n        /* \"#utility.yul\":763:781   */\n      add\n        /* \"#utility.yul\":755:781   */\n      swap1\n      pop\n        /* \"#utility.yul\":791:856   */\n      tag_267\n        /* \"#utility.yul\":853:854   */\n      0x00\n        /* \"#utility.yul\":842:851   */\n      dup4\n        /* \"#utility.yul\":838:855   */\n      add\n        /* \"#utility.yul\":829:835   */\n      dup5\n        /* \"#utility.yul\":791:856   */\n      tag_214\n      jump\t// in\n    tag_267:\n        /* \"#utility.yul\":653:863   */\n      swap3\n      swap2\n      pop\n      pop\n      jump\t// out\n        /* \"#utility.yul\":950:1067   */\n    tag_216:\n        /* \"#utility.yul\":1059:1060   */\n      0x00\n        /* \"#utility.yul\":1056:1057   */\n      dup1\n        /* \"#utility.yul\":1049:1061   */\n      revert\n        /* \"#utility.yul\":1196:1322   */\n    tag_218:\n        /* \"#utility.yul\":1233:1240   */\n      0x00\n        /* \"#utility.yul\":1273:1315   */\n      0xffffffffffffffffffffffffffffffffffffffff\n        /* \"#utility.yul\":1266:1271   */\n      dup3\n        /* \"#utility.yul\":1262:1316   */\n      and\n        /* \"#utility.yul\":1251:1316   */\n      swap1\n      pop\n        /* \"#utility.yul\":1196:1322   */\n      swap2\n      swap1\n      pop\n      jump\t// out\n        /* \"#utility.yul\":1328:1424   */\n    tag_219:\n        /* \"#utility.yul\":1365:1372   */\n      0x00\n        /* \"#utility.yul\":1394:1418   */\n      tag_273\n        /* \"#utility.yul\":1412:1417   */\n      dup3\n        /* \"#utility.yul\":1394:1418   */\n      tag_218\n      jump\t// in\n    tag_273:\n        /* \"#utility.yul\":1383:1418   */\n      swap1\n      pop\n        /* \"#utility.yul\":1328:1424   */\n      swap2\n      swap1\n      pop\n      jump\t// out\n        /* \"#utility.yul\":1430:1552   */\n    tag_220:\n        /* \"#utility.yul\":1503:1527   */\n      tag_275\n        /* \"#utility.yul\":1521:1526   */\n      dup2\n        /* \"#utility.yul\":1503:1527   */\n      tag_219\n      jump\t// in\n    tag_275:\n        /* \"#utility.yul\":1496:1501   */\n      dup2\n        /* \"#utility.yul\":1493:1528   */\n      eq\n        /* \"#utility.yul\":1483:1546   */\n      tag_276\n      jumpi\n        /* \"#utility.yul\":1542:1543   */\n      0x00\n        /* \"#utility.yul\":1539:1540   */\n      dup1\n        /* \"#utility.yul\":1532:1544   */\n      revert\n        /* \"#utility.yul\":1483:1546   */\n    tag_276:\n        /* \"#utility.yul\":1430:1552   */\n      pop\n      jump\t// out\n        /* \"#utility.yul\":1558:1697   */\n    tag_221:\n        /* \"#utility.yul\":1604:1609   */\n      0x00\n        /* \"#utility.yul\":1642:1648   */\n      dup2\n        /* \"#utility.yul\":1629:1649   */\n      calldataload\n        /* \"#utility.yul\":1620:1649   */\n      swap1\n      pop\n        /* \"#utility.yul\":1658:1691   */\n      tag_278\n        /* \"#utility.yul\":1685:1690   */\n      dup2\n        /* \"#utility.yul\":1658:1691   */\n      tag_220\n      jump\t// in\n    tag_278:\n        /* \"#utility.yul\":1558:1697   */\n      swap3\n      swap2\n      pop\n      pop\n      jump\t// out\n        /* \"#utility.yul\":1703:2032   */\n    tag_33:\n        /* \"#utility.yul\":1762:1768   */\n      0x00\n        /* \"#utility.yul\":1811:1813   */\n      0x20\n        /* \"#utility.yul\":1799:1808   */\n      dup3\n        /* \"#utility.yul\":1790:1797   */\n      dup5\n        /* \"#utility.yul\":1786:1809   */\n      sub\n        /* \"#utility.yul\":1782:1814   */\n      slt\n        /* \"#utility.yul\":1779:1898   */\n      iszero\n      tag_280\n      jumpi\n        /* \"#utility.yul\":1817:1896   */\n      tag_281\n      tag_216\n      jump\t// in\n    tag_281:\n        /* \"#utility.yul\":1779:1898   */\n    tag_280:\n        /* \"#utility.yul\":1937:1938   */\n      0x00\n        /* \"#utility.yul\":1962:2015   */\n      tag_282\n        /* \"#utility.yul\":2007:2014   */\n      dup5\n        /* \"#utility.yul\":1998:2004   */\n      dup3\n        /* \"#utility.yul\":1987:1996   */\n      dup6\n        /* \"#utility.yul\":1983:2005   */\n      add\n        /* \"#utility.yul\":1962:2015   */\n      tag_221\n      jump\t// in\n    tag_282:\n        /* \"#utility.yul\":1952:2015   */\n      swap2\n      pop\n        /* \"#utility.yul\":1908:2025   */\n      pop\n        /* \"#utility.yul\":1703:2032   */\n      swap3\n      swap2\n      pop\n      pop\n      jump\t// out\n        /* \"#utility.yul\":2038:2456   */\n    tag_36:\n        /* \"#utility.yul\":2175:2179   */\n      0x00\n        /* \"#utility.yul\":2213:2215   */\n      0x60\n        /* \"#utility.yul\":2202:2211   */\n      dup3\n        /* \"#utility.yul\":2198:2216   */\n      add\n        /* \"#utility.yul\":2190:2216   */\n      swap1\n      pop\n        /* \"#utility.yul\":2226:2297   */\n      tag_284\n        /* \"#utility.yul\":2294:2295   */\n      0x00\n        /* \"#utility.yul\":2283:2292   */\n      dup4\n        /* \"#utility.yul\":2279:2296   */\n      add\n        /* \"#utility.yul\":2270:2276   */\n      dup7\n        /* \"#utility.yul\":2226:2297   */\n      tag_212\n      jump\t// in\n    tag_284:\n        /* \"#utility.yul\":2307:2373   */\n      tag_285\n        /* \"#utility.yul\":2369:2371   */\n      0x20\n        /* \"#utility.yul\":2358:2367   */\n      dup4\n        /* \"#utility.yul\":2354:2372   */\n      add\n        /* \"#utility.yul\":2345:2351   */\n      dup6\n        /* \"#utility.yul\":2307:2373   */\n      tag_214\n      jump\t// in\n    tag_285:\n        /* \"#utility.yul\":2383:2449   */\n      tag_286\n        /* \"#utility.yul\":2445:2447   */\n      0x40\n        /* \"#utility.yul\":2434:2443   */\n      dup4\n        /* \"#utility.yul\":2430:2448   */\n      add\n        /* \"#utility.yul\":2421:2427   */\n      dup5\n        /* \"#utility.yul\":2383:2449   */\n      tag_214\n      jump\t// in\n    tag_286:\n        /* \"#utility.yul\":2038:2456   */\n      swap5\n      swap4\n      pop\n      pop\n      pop\n      pop\n      jump\t// out\n        /* \"#utility.yul\":2462:2584   */\n    tag_222:\n        /* \"#utility.yul\":2535:2559   */\n      tag_288\n        /* \"#utility.yul\":2553:2558   */\n      dup2\n        /* \"#utility.yul\":2535:2559   */\n      tag_211\n      jump\t// in\n    tag_288:\n        /* \"#utility.yul\":2528:2533   */\n      dup2\n        /* \"#utility.yul\":2525:2560   */\n      eq\n        /* \"#utility.yul\":2515:2578   */\n      tag_289\n      jumpi\n        /* \"#utility.yul\":2574:2575   */\n      0x00\n        /* \"#utility.yul\":2571:2572   */\n      dup1\n        /* \"#utility.yul\":2564:2576   */\n      revert\n        /* \"#utility.yul\":2515:2578   */\n    tag_289:\n        /* \"#utility.yul\":2462:2584   */\n      pop\n      jump\t// out\n        /* \"#utility.yul\":2590:2729   */\n    tag_223:\n        /* \"#utility.yul\":2636:2641   */\n      0x00\n        /* \"#utility.yul\":2674:2680   */\n      dup2\n        /* \"#utility.yul\":2661:2681   */\n      calldataload\n        /* \"#utility.yul\":2652:2681   */\n      swap1\n      pop\n        /* \"#utility.yul\":2690:2723   */\n      tag_291\n        /* \"#utility.yul\":2717:2722   */\n      dup2\n        /* \"#utility.yul\":2690:2723   */\n      tag_222\n      jump\t// in\n    tag_291:\n        /* \"#utility.yul\":2590:2729   */\n      swap3\n      swap2\n      pop\n      pop\n      jump\t// out\n        /* \"#utility.yul\":2735:3209   */\n    tag_47:\n        /* \"#utility.yul\":2803:2809   */\n      0x00\n        /* \"#utility.yul\":2811:2817   */\n      dup1\n        /* \"#utility.yul\":2860:2862   */\n      0x40\n        /* \"#utility.yul\":2848:2857   */\n      dup4\n        /* \"#utility.yul\":2839:2846   */\n      dup6\n        /* \"#utility.yul\":2835:2858   */\n      sub\n        /* \"#utility.yul\":2831:2863   */\n      slt\n        /* \"#utility.yul\":2828:2947   */\n      iszero\n      tag_293\n      jumpi\n        /* \"#utility.yul\":2866:2945   */\n      tag_294\n      tag_216\n      jump\t// in\n    tag_294:\n        /* \"#utility.yul\":2828:2947   */\n    tag_293:\n        /* \"#utility.yul\":2986:2987   */\n      0x00\n        /* \"#utility.yul\":3011:3064   */\n      tag_295\n        /* \"#utility.yul\":3056:3063   */\n      dup6\n        /* \"#utility.yul\":3047:3053   */\n      dup3\n        /* \"#utility.yul\":3036:3045   */\n      dup7\n        /* \"#utility.yul\":3032:3054   */\n      add\n        /* \"#utility.yul\":3011:3064   */\n      tag_221\n      jump\t// in\n    tag_295:\n        /* \"#utility.yul\":3001:3064   */\n      swap3\n      pop\n        /* \"#utility.yul\":2957:3074   */\n      pop\n        /* \"#utility.yul\":3113:3115   */\n      0x20\n        /* \"#utility.yul\":3139:3192   */\n      tag_296\n        /* \"#utility.yul\":3184:3191   */\n      dup6\n        /* \"#utility.yul\":3175:3181   */\n      dup3\n        /* \"#utility.yul\":3164:3173   */\n      dup7\n        /* \"#utility.yul\":3160:3182   */\n      add\n        /* \"#utility.yul\":3139:3192   */\n      tag_223\n      jump\t// in\n    tag_296:\n        /* \"#utility.yul\":3129:3192   */\n      swap2\n      pop\n        /* \"#utility.yul\":3084:3202   */\n      pop\n        /* \"#utility.yul\":2735:3209   */\n      swap3\n      pop\n      swap3\n      swap1\n      pop\n      jump\t// out\n        /* \"#utility.yul\":3215:3333   */\n    tag_224:\n        /* \"#utility.yul\":3302:3326   */\n      tag_298\n        /* \"#utility.yul\":3320:3325   */\n      dup2\n        /* \"#utility.yul\":3302:3326   */\n      tag_219\n      jump\t// in\n    tag_298:\n        /* \"#utility.yul\":3297:3300   */\n      dup3\n        /* \"#utility.yul\":3290:3327   */\n      mstore\n        /* \"#utility.yul\":3215:3333   */\n      pop\n      pop\n      jump\t// out\n        /* \"#utility.yul\":3339:3561   */\n    tag_55:\n        /* \"#utility.yul\":3432:3436   */\n      0x00\n        /* \"#utility.yul\":3470:3472   */\n      0x20\n        /* \"#utility.yul\":3459:3468   */\n      dup3\n        /* \"#utility.yul\":3455:3473   */\n      add\n        /* \"#utility.yul\":3447:3473   */\n      swap1\n      pop\n        /* \"#utility.yul\":3483:3554   */\n      tag_300\n        /* \"#utility.yul\":3551:3552   */\n      0x00\n        /* \"#utility.yul\":3540:3549   */\n      dup4\n        /* \"#utility.yul\":3536:3553   */\n      add\n        /* \"#utility.yul\":3527:3533   */\n      dup5\n        /* \"#utility.yul\":3483:3554   */\n      tag_224\n      jump\t// in\n    tag_300:\n        /* \"#utility.yul\":3339:3561   */\n      swap3\n      swap2\n      pop\n      pop\n      jump\t// out\n        /* \"#utility.yul\":3567:3896   */\n    tag_64:\n        /* \"#utility.yul\":3626:3632   */\n      0x00\n        /* \"#utility.yul\":3675:3677   */\n      0x20\n        /* \"#utility.yul\":3663:3672   */\n      dup3\n        /* \"#utility.yul\":3654:3661   */\n      dup5\n        /* \"#utility.yul\":3650:3673   */\n      sub\n        /* \"#utility.yul\":3646:3678   */\n      slt\n        /* \"#utility.yul\":3643:3762   */\n      iszero\n      tag_302\n      jumpi\n        /* \"#utility.yul\":3681:3760   */\n      tag_303\n      tag_216\n      jump\t// in\n    tag_303:\n        /* \"#utility.yul\":3643:3762   */\n    tag_302:\n        /* \"#utility.yul\":3801:3802   */\n      0x00\n        /* \"#utility.yul\":3826:3879   */\n      tag_304\n        /* \"#utility.yul\":3871:3878   */\n      dup5\n        /* \"#utility.yul\":3862:3868   */\n      dup3\n        /* \"#utility.yul\":3851:3860   */\n      dup6\n        /* \"#utility.yul\":3847:3869   */\n      add\n        /* \"#utility.yul\":3826:3879   */\n      tag_223\n      jump\t// in\n    tag_304:\n        /* \"#utility.yul\":3816:3879   */\n      swap2\n      pop\n        /* \"#utility.yul\":3772:3889   */\n      pop\n        /* \"#utility.yul\":3567:3896   */\n      swap3\n      swap2\n      pop\n      pop\n      jump\t// out\n        /* \"#utility.yul\":3902:4431   */\n    tag_67:\n        /* \"#utility.yul\":4067:4071   */\n      0x00\n        /* \"#utility.yul\":4105:4108   */\n      0x80\n        /* \"#utility.yul\":4094:4103   */\n      dup3\n        /* \"#utility.yul\":4090:4109   */\n      add\n        /* \"#utility.yul\":4082:4109   */\n      swap1\n      pop\n        /* \"#utility.yul\":4119:4190   */\n      tag_306\n        /* \"#utility.yul\":4187:4188   */\n      0x00\n        /* \"#utility.yul\":4176:4185   */\n      dup4\n        /* \"#utility.yul\":4172:4189   */\n      add\n        /* \"#utility.yul\":4163:4169   */\n      dup8\n        /* \"#utility.yul\":4119:4190   */\n      tag_224\n      jump\t// in\n    tag_306:\n        /* \"#utility.yul\":4200:4272   */\n      tag_307\n        /* \"#utility.yul\":4268:4270   */\n      0x20\n        /* \"#utility.yul\":4257:4266   */\n      dup4\n        /* \"#utility.yul\":4253:4271   */\n      add\n        /* \"#utility.yul\":4244:4250   */\n      dup7\n        /* \"#utility.yul\":4200:4272   */\n      tag_212\n      jump\t// in\n    tag_307:\n        /* \"#utility.yul\":4282:4348   */\n      tag_308\n        /* \"#utility.yul\":4344:4346   */\n      0x40\n        /* \"#utility.yul\":4333:4342   */\n      dup4\n        /* \"#utility.yul\":4329:4347   */\n      add\n        /* \"#utility.yul\":4320:4326   */\n      dup6\n        /* \"#utility.yul\":4282:4348   */\n      tag_214\n      jump\t// in\n    tag_308:\n        /* \"#utility.yul\":4358:4424   */\n      tag_309\n        /* \"#utility.yul\":4420:4422   */\n      0x60\n        /* \"#utility.yul\":4409:4418   */\n      dup4\n        /* \"#utility.yul\":4405:4423   */\n      add\n        /* \"#utility.yul\":4396:4402   */\n      dup5\n        /* \"#utility.yul\":4358:4424   */\n      tag_214\n      jump\t// in\n    tag_309:\n        /* \"#utility.yul\":3902:4431   */\n      swap6\n      swap5\n      pop\n      pop\n      pop\n      pop\n      pop\n      jump\t// out\n        /* \"#utility.yul\":4437:4617   */\n    tag_77:\n        /* \"#utility.yul\":4485:4562   */\n      0x4e487b7100000000000000000000000000000000000000000000000000000000\n        /* \"#utility.yul\":4482:4483   */\n      0x00\n        /* \"#utility.yul\":4475:4563   */\n      mstore\n        /* \"#utility.yul\":4582:4586   */\n      0x32\n        /* \"#utility.yul\":4579:4580   */\n      0x04\n        /* \"#utility.yul\":4572:4587   */\n      mstore\n        /* \"#utility.yul\":4606:4610   */\n      0x24\n        /* \"#utility.yul\":4603:4604   */\n      0x00\n        /* \"#utility.yul\":4596:4611   */\n      revert\n        /* \"#utility.yul\":4623:4792   */\n    tag_225:\n        /* \"#utility.yul\":4707:4718   */\n      0x00\n        /* \"#utility.yul\":4741:4747   */\n      dup3\n        /* \"#utility.yul\":4736:4739   */\n      dup3\n        /* \"#utility.yul\":4729:4748   */\n      mstore\n        /* \"#utility.yul\":4781:4785   */\n      0x20\n        /* \"#utility.yul\":4776:4779   */\n      dup3\n        /* \"#utility.yul\":4772:4786   */\n      add\n        /* \"#utility.yul\":4757:4786   */\n      swap1\n      pop\n        /* \"#utility.yul\":4623:4792   */\n      swap3\n      swap2\n      pop\n      pop\n      jump\t// out\n        /* \"#utility.yul\":4798:4966   */\n    tag_226:\n        /* \"#utility.yul\":4938:4958   */\n      0x46756e6473206e6f742072656365697665640000000000000000000000000000\n        /* \"#utility.yul\":4934:4935   */\n      0x00\n        /* \"#utility.yul\":4926:4932   */\n      dup3\n        /* \"#utility.yul\":4922:4936   */\n      add\n        /* \"#utility.yul\":4915:4959   */\n      mstore\n        /* \"#utility.yul\":4798:4966   */\n      pop\n      jump\t// out\n        /* \"#utility.yul\":4972:5338   */\n    tag_227:\n        /* \"#utility.yul\":5114:5117   */\n      0x00\n        /* \"#utility.yul\":5135:5202   */\n      tag_314\n        /* \"#utility.yul\":5199:5201   */\n      0x12\n        /* \"#utility.yul\":5194:5197   */\n      dup4\n        /* \"#utility.yul\":5135:5202   */\n      tag_225\n      jump\t// in\n    tag_314:\n        /* \"#utility.yul\":5128:5202   */\n      swap2\n      pop\n        /* \"#utility.yul\":5211:5304   */\n      tag_315\n        /* \"#utility.yul\":5300:5303   */\n      dup3\n        /* \"#utility.yul\":5211:5304   */\n      tag_226\n      jump\t// in\n    tag_315:\n        /* \"#utility.yul\":5329:5331   */\n      0x20\n        /* \"#utility.yul\":5324:5327   */\n      dup3\n        /* \"#utility.yul\":5320:5332   */\n      add\n        /* \"#utility.yul\":5313:5332   */\n      swap1\n      pop\n        /* \"#utility.yul\":4972:5338   */\n      swap2\n      swap1\n      pop\n      jump\t// out\n        /* \"#utility.yul\":5344:5763   */\n    tag_89:\n        /* \"#utility.yul\":5510:5514   */\n      0x00\n        /* \"#utility.yul\":5548:5550   */\n      0x20\n        /* \"#utility.yul\":5537:5546   */\n      dup3\n        /* \"#utility.yul\":5533:5551   */\n      add\n        /* \"#utility.yul\":5525:5551   */\n      swap1\n      pop\n        /* \"#utility.yul\":5597:5606   */\n      dup2\n        /* \"#utility.yul\":5591:5595   */\n      dup2\n        /* \"#utility.yul\":5587:5607   */\n      sub\n        /* \"#utility.yul\":5583:5584   */\n      0x00\n        /* \"#utility.yul\":5572:5581   */\n      dup4\n        /* \"#utility.yul\":5568:5585   */\n      add\n        /* \"#utility.yul\":5561:5608   */\n      mstore\n        /* \"#utility.yul\":5625:5756   */\n      tag_317\n        /* \"#utility.yul\":5751:5755   */\n      dup2\n        /* \"#utility.yul\":5625:5756   */\n      tag_227\n      jump\t// in\n    tag_317:\n        /* \"#utility.yul\":5617:5756   */\n      swap1\n      pop\n        /* \"#utility.yul\":5344:5763   */\n      swap2\n      swap1\n      pop\n      jump\t// out\n        /* \"#utility.yul\":5769:5936   */\n    tag_228:\n        /* \"#utility.yul\":5909:5928   */\n      0x4e6f742061207368617265686f6c646572000000000000000000000000000000\n        /* \"#utility.yul\":5905:5906   */\n      0x00\n        /* \"#utility.yul\":5897:5903   */\n      dup3\n        /* \"#utility.yul\":5893:5907   */\n      add\n        /* \"#utility.yul\":5886:5929   */\n      mstore\n        /* \"#utility.yul\":5769:5936   */\n      pop\n      jump\t// out\n        /* \"#utility.yul\":5942:6308   */\n    tag_229:\n        /* \"#utility.yul\":6084:6087   */\n      0x00\n        /* \"#utility.yul\":6105:6172   */\n      tag_320\n        /* \"#utility.yul\":6169:6171   */\n      0x11\n        /* \"#utility.yul\":6164:6167   */\n      dup4\n        /* \"#utility.yul\":6105:6172   */\n      tag_225\n      jump\t// in\n    tag_320:\n        /* \"#utility.yul\":6098:6172   */\n      swap2\n      pop\n        /* \"#utility.yul\":6181:6274   */\n      tag_321\n        /* \"#utility.yul\":6270:6273   */\n      dup3\n        /* \"#utility.yul\":6181:6274   */\n      tag_228\n      jump\t// in\n    tag_321:\n        /* \"#utility.yul\":6299:6301   */\n      0x20\n        /* \"#utility.yul\":6294:6297   */\n      dup3\n        /* \"#utility.yul\":6290:6302   */\n      add\n        /* \"#utility.yul\":6283:6302   */\n      swap1\n      pop\n        /* \"#utility.yul\":5942:6308   */\n      swap2\n      swap1\n      pop\n      jump\t// out\n        /* \"#utility.yul\":6314:6733   */\n    tag_99:\n        /* \"#utility.yul\":6480:6484   */\n      0x00\n        /* \"#utility.yul\":6518:6520   */\n      0x20\n        /* \"#utility.yul\":6507:6516   */\n      dup3\n        /* \"#utility.yul\":6503:6521   */\n      add\n        /* \"#utility.yul\":6495:6521   */\n      swap1\n      pop\n        /* \"#utility.yul\":6567:6576   */\n      dup2\n        /* \"#utility.yul\":6561:6565   */\n      dup2\n        /* \"#utility.yul\":6557:6577   */\n      sub\n        /* \"#utility.yul\":6553:6554   */\n      0x00\n        /* \"#utility.yul\":6542:6551   */\n      dup4\n        /* \"#utility.yul\":6538:6555   */\n      add\n        /* \"#utility.yul\":6531:6578   */\n      mstore\n        /* \"#utility.yul\":6595:6726   */\n      tag_323\n        /* \"#utility.yul\":6721:6725   */\n      dup2\n        /* \"#utility.yul\":6595:6726   */\n      tag_229\n      jump\t// in\n    tag_323:\n        /* \"#utility.yul\":6587:6726   */\n      swap1\n      pop\n        /* \"#utility.yul\":6314:6733   */\n      swap2\n      swap1\n      pop\n      jump\t// out\n        /* \"#utility.yul\":6739:6906   */\n    tag_230:\n        /* \"#utility.yul\":6879:6898   */\n      0x416c72656164792077697468647261776e000000000000000000000000000000\n        /* \"#utility.yul\":6875:6876   */\n      0x00\n        /* \"#utility.yul\":6867:6873   */\n      dup3\n        /* \"#utility.yul\":6863:6877   */\n      add\n        /* \"#utility.yul\":6856:6899   */\n      mstore\n        /* \"#utility.yul\":6739:6906   */\n      pop\n      jump\t// out\n        /* \"#utility.yul\":6912:7278   */\n    tag_231:\n        /* \"#utility.yul\":7054:7057   */\n      0x00\n        /* \"#utility.yul\":7075:7142   */\n      tag_326\n        /* \"#utility.yul\":7139:7141   */\n      0x11\n        /* \"#utility.yul\":7134:7137   */\n      dup4\n        /* \"#utility.yul\":7075:7142   */\n      tag_225\n      jump\t// in\n    tag_326:\n        /* \"#utility.yul\":7068:7142   */\n      swap2\n      pop\n        /* \"#utility.yul\":7151:7244   */\n      tag_327\n        /* \"#utility.yul\":7240:7243   */\n      dup3\n        /* \"#utility.yul\":7151:7244   */\n      tag_230\n      jump\t// in\n    tag_327:\n        /* \"#utility.yul\":7269:7271   */\n      0x20\n        /* \"#utility.yul\":7264:7267   */\n      dup3\n        /* \"#utility.yul\":7260:7272   */\n      add\n        /* \"#utility.yul\":7253:7272   */\n      swap1\n      pop\n        /* \"#utility.yul\":6912:7278   */\n      swap2\n      swap1\n      pop\n      jump\t// out\n        /* \"#utility.yul\":7284:7703   */\n    tag_105:\n        /* \"#utility.yul\":7450:7454   */\n      0x00\n        /* \"#utility.yul\":7488:7490   */\n      0x20\n        /* \"#utility.yul\":7477:7486   */\n      dup3\n        /* \"#utility.yul\":7473:7491   */\n      add\n        /* \"#utility.yul\":7465:7491   */\n      swap1\n      pop\n        /* \"#utility.yul\":7537:7546   */\n      dup2\n        /* \"#utility.yul\":7531:7535   */\n      dup2\n        /* \"#utility.yul\":7527:7547   */\n      sub\n        /* \"#utility.yul\":7523:7524   */\n      0x00\n        /* \"#utility.yul\":7512:7521   */\n      dup4\n        /* \"#utility.yul\":7508:7525   */\n      add\n        /* \"#utility.yul\":7501:7548   */\n      mstore\n        /* \"#utility.yul\":7565:7696   */\n      tag_329\n        /* \"#utility.yul\":7691:7695   */\n      dup2\n        /* \"#utility.yul\":7565:7696   */\n      tag_231\n      jump\t// in\n    tag_329:\n        /* \"#utility.yul\":7557:7696   */\n      swap1\n      pop\n        /* \"#utility.yul\":7284:7703   */\n      swap2\n      swap1\n      pop\n      jump\t// out\n        /* \"#utility.yul\":7709:7889   */\n    tag_232:\n        /* \"#utility.yul\":7757:7834   */\n      0x4e487b7100000000000000000000000000000000000000000000000000000000\n        /* \"#utility.yul\":7754:7755   */\n      0x00\n        /* \"#utility.yul\":7747:7835   */\n      mstore\n        /* \"#utility.yul\":7854:7858   */\n      0x11\n        /* \"#utility.yul\":7851:7852   */\n      0x04\n        /* \"#utility.yul\":7844:7859   */\n      mstore\n        /* \"#utility.yul\":7878:7882   */\n      0x24\n        /* \"#utility.yul\":7875:7876   */\n      0x00\n        /* \"#utility.yul\":7868:7883   */\n      revert\n        /* \"#utility.yul\":7895:8305   */\n    tag_110:\n        /* \"#utility.yul\":7935:7942   */\n      0x00\n        /* \"#utility.yul\":7958:7978   */\n      tag_332\n        /* \"#utility.yul\":7976:7977   */\n      dup3\n        /* \"#utility.yul\":7958:7978   */\n      tag_211\n      jump\t// in\n    tag_332:\n        /* \"#utility.yul\":7953:7978   */\n      swap2\n      pop\n        /* \"#utility.yul\":7992:8012   */\n      tag_333\n        /* \"#utility.yul\":8010:8011   */\n      dup4\n        /* \"#utility.yul\":7992:8012   */\n      tag_211\n      jump\t// in\n    tag_333:\n        /* \"#utility.yul\":7987:8012   */\n      swap3\n      pop\n        /* \"#utility.yul\":8047:8048   */\n      dup3\n        /* \"#utility.yul\":8044:8045   */\n      dup3\n        /* \"#utility.yul\":8040:8049   */\n      mul\n        /* \"#utility.yul\":8069:8099   */\n      tag_334\n        /* \"#utility.yul\":8087:8098   */\n      dup2\n        /* \"#utility.yul\":8069:8099   */\n      tag_211\n      jump\t// in\n    tag_334:\n        /* \"#utility.yul\":8058:8099   */\n      swap2\n      pop\n        /* \"#utility.yul\":8248:8249   */\n      dup3\n        /* \"#utility.yul\":8239:8246   */\n      dup3\n        /* \"#utility.yul\":8235:8250   */\n      div\n        /* \"#utility.yul\":8232:8233   */\n      dup5\n        /* \"#utility.yul\":8229:8251   */\n      eq\n        /* \"#utility.yul\":8209:8210   */\n      dup4\n        /* \"#utility.yul\":8202:8211   */\n      iszero\n        /* \"#utility.yul\":8182:8265   */\n      or\n        /* \"#utility.yul\":8159:8298   */\n      tag_335\n      jumpi\n        /* \"#utility.yul\":8278:8296   */\n      tag_336\n      tag_232\n      jump\t// in\n    tag_336:\n        /* \"#utility.yul\":8159:8298   */\n    tag_335:\n        /* \"#utility.yul\":7943:8305   */\n      pop\n        /* \"#utility.yul\":7895:8305   */\n      swap3\n      swap2\n      pop\n      pop\n      jump\t// out\n        /* \"#utility.yul\":8311:8491   */\n    tag_233:\n        /* \"#utility.yul\":8359:8436   */\n      0x4e487b7100000000000000000000000000000000000000000000000000000000\n        /* \"#utility.yul\":8356:8357   */\n      0x00\n        /* \"#utility.yul\":8349:8437   */\n      mstore\n        /* \"#utility.yul\":8456:8460   */\n      0x12\n        /* \"#utility.yul\":8453:8454   */\n      0x04\n        /* \"#utility.yul\":8446:8461   */\n      mstore\n        /* \"#utility.yul\":8480:8484   */\n      0x24\n        /* \"#utility.yul\":8477:8478   */\n      0x00\n        /* \"#utility.yul\":8470:8485   */\n      revert\n        /* \"#utility.yul\":8497:8682   */\n    tag_112:\n        /* \"#utility.yul\":8537:8538   */\n      0x00\n        /* \"#utility.yul\":8554:8574   */\n      tag_339\n        /* \"#utility.yul\":8572:8573   */\n      dup3\n        /* \"#utility.yul\":8554:8574   */\n      tag_211\n      jump\t// in\n    tag_339:\n        /* \"#utility.yul\":8549:8574   */\n      swap2\n      pop\n        /* \"#utility.yul\":8588:8608   */\n      tag_340\n        /* \"#utility.yul\":8606:8607   */\n      dup4\n        /* \"#utility.yul\":8588:8608   */\n      tag_211\n      jump\t// in\n    tag_340:\n        /* \"#utility.yul\":8583:8608   */\n      swap3\n      pop\n        /* \"#utility.yul\":8627:8628   */\n      dup3\n        /* \"#utility.yul\":8617:8652   */\n      tag_341\n      jumpi\n        /* \"#utility.yul\":8632:8650   */\n      tag_342\n      tag_233\n      jump\t// in\n    tag_342:\n        /* \"#utility.yul\":8617:8652   */\n    tag_341:\n        /* \"#utility.yul\":8674:8675   */\n      dup3\n        /* \"#utility.yul\":8671:8672   */\n      dup3\n        /* \"#utility.yul\":8667:8676   */\n      div\n        /* \"#utility.yul\":8662:8676   */\n      swap1\n      pop\n        /* \"#utility.yul\":8497:8682   */\n      swap3\n      swap2\n      pop\n      pop\n      jump\t// out\n        /* \"#utility.yul\":8688:8847   */\n    tag_234:\n        /* \"#utility.yul\":8828:8839   */\n      0x4e6f20746f6b656e730000000000000000000000000000000000000000000000\n        /* \"#utility.yul\":8824:8825   */\n      0x00\n        /* \"#utility.yul\":8816:8822   */\n      dup3\n        /* \"#utility.yul\":8812:8826   */\n      add\n        /* \"#utility.yul\":8805:8840   */\n      mstore\n        /* \"#utility.yul\":8688:8847   */\n      pop\n      jump\t// out\n        /* \"#utility.yul\":8853:9218   */\n    tag_235:\n        /* \"#utility.yul\":8995:8998   */\n      0x00\n        /* \"#utility.yul\":9016:9082   */\n      tag_345\n        /* \"#utility.yul\":9080:9081   */\n      0x09\n        /* \"#utility.yul\":9075:9078   */\n      dup4\n        /* \"#utility.yul\":9016:9082   */\n      tag_225\n      jump\t// in\n    tag_345:\n        /* \"#utility.yul\":9009:9082   */\n      swap2\n      pop\n        /* \"#utility.yul\":9091:9184   */\n      tag_346\n        /* \"#utility.yul\":9180:9183   */\n      dup3\n        /* \"#utility.yul\":9091:9184   */\n      tag_234\n      jump\t// in\n    tag_346:\n        /* \"#utility.yul\":9209:9211   */\n      0x20\n        /* \"#utility.yul\":9204:9207   */\n      dup3\n        /* \"#utility.yul\":9200:9212   */\n      add\n        /* \"#utility.yul\":9193:9212   */\n      swap1\n      pop\n        /* \"#utility.yul\":8853:9218   */\n      swap2\n      swap1\n      pop\n      jump\t// out\n        /* \"#utility.yul\":9224:9643   */\n    tag_115:\n        /* \"#utility.yul\":9390:9394   */\n      0x00\n        /* \"#utility.yul\":9428:9430   */\n      0x20\n        /* \"#utility.yul\":9417:9426   */\n      dup3\n        /* \"#utility.yul\":9413:9431   */\n      add\n        /* \"#utility.yul\":9405:9431   */\n      swap1\n      pop\n        /* \"#utility.yul\":9477:9486   */\n      dup2\n        /* \"#utility.yul\":9471:9475   */\n      dup2\n        /* \"#utility.yul\":9467:9487   */\n      sub\n        /* \"#utility.yul\":9463:9464   */\n      0x00\n        /* \"#utility.yul\":9452:9461   */\n      dup4\n        /* \"#utility.yul\":9448:9465   */\n      add\n        /* \"#utility.yul\":9441:9488   */\n      mstore\n        /* \"#utility.yul\":9505:9636   */\n      tag_348\n        /* \"#utility.yul\":9631:9635   */\n      dup2\n        /* \"#utility.yul\":9505:9636   */\n      tag_235\n      jump\t// in\n    tag_348:\n        /* \"#utility.yul\":9497:9636   */\n      swap1\n      pop\n        /* \"#utility.yul\":9224:9643   */\n      swap2\n      swap1\n      pop\n      jump\t// out\n        /* \"#utility.yul\":9649:9981   */\n    tag_120:\n        /* \"#utility.yul\":9770:9774   */\n      0x00\n        /* \"#utility.yul\":9808:9810   */\n      0x40\n        /* \"#utility.yul\":9797:9806   */\n      dup3\n        /* \"#utility.yul\":9793:9811   */\n      add\n        /* \"#utility.yul\":9785:9811   */\n      swap1\n      pop\n        /* \"#utility.yul\":9821:9892   */\n      tag_350\n        /* \"#utility.yul\":9889:9890   */\n      0x00\n        /* \"#utility.yul\":9878:9887   */\n      dup4\n        /* \"#utility.yul\":9874:9891   */\n      add\n        /* \"#utility.yul\":9865:9871   */\n      dup6\n        /* \"#utility.yul\":9821:9892   */\n      tag_224\n      jump\t// in\n    tag_350:\n        /* \"#utility.yul\":9902:9974   */\n      tag_351\n        /* \"#utility.yul\":9970:9972   */\n      0x20\n        /* \"#utility.yul\":9959:9968   */\n      dup4\n        /* \"#utility.yul\":9955:9973   */\n      add\n        /* \"#utility.yul\":9946:9952   */\n      dup5\n        /* \"#utility.yul\":9902:9974   */\n      tag_212\n      jump\t// in\n    tag_351:\n        /* \"#utility.yul\":9649:9981   */\n      swap4\n      swap3\n      pop\n      pop\n      pop\n      jump\t// out\n        /* \"#utility.yul\":9987:10103   */\n    tag_236:\n        /* \"#utility.yul\":10057:10078   */\n      tag_353\n        /* \"#utility.yul\":10072:10077   */\n      dup2\n        /* \"#utility.yul\":10057:10078   */\n      tag_213\n      jump\t// in\n    tag_353:\n        /* \"#utility.yul\":10050:10055   */\n      dup2\n        /* \"#utility.yul\":10047:10079   */\n      eq\n        /* \"#utility.yul\":10037:10097   */\n      tag_354\n      jumpi\n        /* \"#utility.yul\":10093:10094   */\n      0x00\n        /* \"#utility.yul\":10090:10091   */\n      dup1\n        /* \"#utility.yul\":10083:10095   */\n      revert\n        /* \"#utility.yul\":10037:10097   */\n    tag_354:\n        /* \"#utility.yul\":9987:10103   */\n      pop\n      jump\t// out\n        /* \"#utility.yul\":10109:10246   */\n    tag_237:\n        /* \"#utility.yul\":10163:10168   */\n      0x00\n        /* \"#utility.yul\":10194:10200   */\n      dup2\n        /* \"#utility.yul\":10188:10201   */\n      mload\n        /* \"#utility.yul\":10179:10201   */\n      swap1\n      pop\n        /* \"#utility.yul\":10210:10240   */\n      tag_356\n        /* \"#utility.yul\":10234:10239   */\n      dup2\n        /* \"#utility.yul\":10210:10240   */\n      tag_236\n      jump\t// in\n    tag_356:\n        /* \"#utility.yul\":10109:10246   */\n      swap3\n      swap2\n      pop\n      pop\n      jump\t// out\n        /* \"#utility.yul\":10252:10597   */\n    tag_124:\n        /* \"#utility.yul\":10319:10325   */\n      0x00\n        /* \"#utility.yul\":10368:10370   */\n      0x20\n        /* \"#utility.yul\":10356:10365   */\n      dup3\n        /* \"#utility.yul\":10347:10354   */\n      dup5\n        /* \"#utility.yul\":10343:10366   */\n      sub\n        /* \"#utility.yul\":10339:10371   */\n      slt\n        /* \"#utility.yul\":10336:10455   */\n      iszero\n      tag_358\n      jumpi\n        /* \"#utility.yul\":10374:10453   */\n      tag_359\n      tag_216\n      jump\t// in\n    tag_359:\n        /* \"#utility.yul\":10336:10455   */\n    tag_358:\n        /* \"#utility.yul\":10494:10495   */\n      0x00\n        /* \"#utility.yul\":10519:10580   */\n      tag_360\n        /* \"#utility.yul\":10572:10579   */\n      dup5\n        /* \"#utility.yul\":10563:10569   */\n      dup3\n        /* \"#utility.yul\":10552:10561   */\n      dup6\n        /* \"#utility.yul\":10548:10570   */\n      add\n        /* \"#utility.yul\":10519:10580   */\n      tag_237\n      jump\t// in\n    tag_360:\n        /* \"#utility.yul\":10509:10580   */\n      swap2\n      pop\n        /* \"#utility.yul\":10465:10590   */\n      pop\n        /* \"#utility.yul\":10252:10597   */\n      swap3\n      swap2\n      pop\n      pop\n      jump\t// out\n        /* \"#utility.yul\":10603:10768   */\n    tag_238:\n        /* \"#utility.yul\":10743:10760   */\n      0x5472616e73666572206661696c65640000000000000000000000000000000000\n        /* \"#utility.yul\":10739:10740   */\n      0x00\n        /* \"#utility.yul\":10731:10737   */\n      dup3\n        /* \"#utility.yul\":10727:10741   */\n      add\n        /* \"#utility.yul\":10720:10761   */\n      mstore\n        /* \"#utility.yul\":10603:10768   */\n      pop\n      jump\t// out\n        /* \"#utility.yul\":10774:11140   */\n    tag_239:\n        /* \"#utility.yul\":10916:10919   */\n      0x00\n        /* \"#utility.yul\":10937:11004   */\n      tag_363\n        /* \"#utility.yul\":11001:11003   */\n      0x0f\n        /* \"#utility.yul\":10996:10999   */\n      dup4\n        /* \"#utility.yul\":10937:11004   */\n      tag_225\n      jump\t// in\n    tag_363:\n        /* \"#utility.yul\":10930:11004   */\n      swap2\n      pop\n        /* \"#utility.yul\":11013:11106   */\n      tag_364\n        /* \"#utility.yul\":11102:11105   */\n      dup3\n        /* \"#utility.yul\":11013:11106   */\n      tag_238\n      jump\t// in\n    tag_364:\n        /* \"#utility.yul\":11131:11133   */\n      0x20\n        /* \"#utility.yul\":11126:11129   */\n      dup3\n        /* \"#utility.yul\":11122:11134   */\n      add\n        /* \"#utility.yul\":11115:11134   */\n      swap1\n      pop\n        /* \"#utility.yul\":10774:11140   */\n      swap2\n      swap1\n      pop\n      jump\t// out\n        /* \"#utility.yul\":11146:11565   */\n    tag_127:\n        /* \"#utility.yul\":11312:11316   */\n      0x00\n        /* \"#utility.yul\":11350:11352   */\n      0x20\n        /* \"#utility.yul\":11339:11348   */\n      dup3\n        /* \"#utility.yul\":11335:11353   */\n      add\n        /* \"#utility.yul\":11327:11353   */\n      swap1\n      pop\n        /* \"#utility.yul\":11399:11408   */\n      dup2\n        /* \"#utility.yul\":11393:11397   */\n      dup2\n        /* \"#utility.yul\":11389:11409   */\n      sub\n        /* \"#utility.yul\":11385:11386   */\n      0x00\n        /* \"#utility.yul\":11374:11383   */\n      dup4\n        /* \"#utility.yul\":11370:11387   */\n      add\n        /* \"#utility.yul\":11363:11410   */\n      mstore\n        /* \"#utility.yul\":11427:11558   */\n      tag_366\n        /* \"#utility.yul\":11553:11557   */\n      dup2\n        /* \"#utility.yul\":11427:11558   */\n      tag_239\n      jump\t// in\n    tag_366:\n        /* \"#utility.yul\":11419:11558   */\n      swap1\n      pop\n        /* \"#utility.yul\":11146:11565   */\n      swap2\n      swap1\n      pop\n      jump\t// out\n        /* \"#utility.yul\":11571:11737   */\n    tag_240:\n        /* \"#utility.yul\":11711:11729   */\n      0x416c726561647920726563656976656400000000000000000000000000000000\n        /* \"#utility.yul\":11707:11708   */\n      0x00\n        /* \"#utility.yul\":11699:11705   */\n      dup3\n        /* \"#utility.yul\":11695:11709   */\n      add\n        /* \"#utility.yul\":11688:11730   */\n      mstore\n        /* \"#utility.yul\":11571:11737   */\n      pop\n      jump\t// out\n        /* \"#utility.yul\":11743:12109   */\n    tag_241:\n        /* \"#utility.yul\":11885:11888   */\n      0x00\n        /* \"#utility.yul\":11906:11973   */\n      tag_369\n        /* \"#utility.yul\":11970:11972   */\n      0x10\n        /* \"#utility.yul\":11965:11968   */\n      dup4\n        /* \"#utility.yul\":11906:11973   */\n      tag_225\n      jump\t// in\n    tag_369:\n        /* \"#utility.yul\":11899:11973   */\n      swap2\n      pop\n        /* \"#utility.yul\":11982:12075   */\n      tag_370\n        /* \"#utility.yul\":12071:12074   */\n      dup3\n        /* \"#utility.yul\":11982:12075   */\n      tag_240\n      jump\t// in\n    tag_370:\n        /* \"#utility.yul\":12100:12102   */\n      0x20\n        /* \"#utility.yul\":12095:12098   */\n      dup3\n        /* \"#utility.yul\":12091:12103   */\n      add\n        /* \"#utility.yul\":12084:12103   */\n      swap1\n      pop\n        /* \"#utility.yul\":11743:12109   */\n      swap2\n      swap1\n      pop\n      jump\t// out\n        /* \"#utility.yul\":12115:12534   */\n    tag_132:\n        /* \"#utility.yul\":12281:12285   */\n      0x00\n        /* \"#utility.yul\":12319:12321   */\n      0x20\n        /* \"#utility.yul\":12308:12317   */\n      dup3\n        /* \"#utility.yul\":12304:12322   */\n      add\n        /* \"#utility.yul\":12296:12322   */\n      swap1\n      pop\n        /* \"#utility.yul\":12368:12377   */\n      dup2\n        /* \"#utility.yul\":12362:12366   */\n      dup2\n        /* \"#utility.yul\":12358:12378   */\n      sub\n        /* \"#utility.yul\":12354:12355   */\n      0x00\n        /* \"#utility.yul\":12343:12352   */\n      dup4\n        /* \"#utility.yul\":12339:12356   */\n      add\n        /* \"#utility.yul\":12332:12379   */\n      mstore\n        /* \"#utility.yul\":12396:12527   */\n      tag_372\n        /* \"#utility.yul\":12522:12526   */\n      dup2\n        /* \"#utility.yul\":12396:12527   */\n      tag_241\n      jump\t// in\n    tag_372:\n        /* \"#utility.yul\":12388:12527   */\n      swap1\n      pop\n        /* \"#utility.yul\":12115:12534   */\n      swap2\n      swap1\n      pop\n      jump\t// out\n        /* \"#utility.yul\":12540:12705   */\n    tag_242:\n        /* \"#utility.yul\":12680:12697   */\n      0x4e6f207368617265686f6c646572730000000000000000000000000000000000\n        /* \"#utility.yul\":12676:12677   */\n      0x00\n        /* \"#utility.yul\":12668:12674   */\n      dup3\n        /* \"#utility.yul\":12664:12678   */\n      add\n        /* \"#utility.yul\":12657:12698   */\n      mstore\n        /* \"#utility.yul\":12540:12705   */\n      pop\n      jump\t// out\n        /* \"#utility.yul\":12711:13077   */\n    tag_243:\n        /* \"#utility.yul\":12853:12856   */\n      0x00\n        /* \"#utility.yul\":12874:12941   */\n      tag_375\n        /* \"#utility.yul\":12938:12940   */\n      0x0f\n        /* \"#utility.yul\":12933:12936   */\n      dup4\n        /* \"#utility.yul\":12874:12941   */\n      tag_225\n      jump\t// in\n    tag_375:\n        /* \"#utility.yul\":12867:12941   */\n      swap2\n      pop\n        /* \"#utility.yul\":12950:13043   */\n      tag_376\n        /* \"#utility.yul\":13039:13042   */\n      dup3\n        /* \"#utility.yul\":12950:13043   */\n      tag_242\n      jump\t// in\n    tag_376:\n        /* \"#utility.yul\":13068:13070   */\n      0x20\n        /* \"#utility.yul\":13063:13066   */\n      dup3\n        /* \"#utility.yul\":13059:13071   */\n      add\n        /* \"#utility.yul\":13052:13071   */\n      swap1\n      pop\n        /* \"#utility.yul\":12711:13077   */\n      swap2\n      swap1\n      pop\n      jump\t// out\n        /* \"#utility.yul\":13083:13502   */\n    tag_135:\n        /* \"#utility.yul\":13249:13253   */\n      0x00\n        /* \"#utility.yul\":13287:13289   */\n      0x20\n        /* \"#utility.yul\":13276:13285   */\n      dup3\n        /* \"#utility.yul\":13272:13290   */\n      add\n        /* \"#utility.yul\":13264:13290   */\n      swap1\n      pop\n        /* \"#utility.yul\":13336:13345   */\n      dup2\n        /* \"#utility.yul\":13330:13334   */\n      dup2\n        /* \"#utility.yul\":13326:13346   */\n      sub\n        /* \"#utility.yul\":13322:13323   */\n      0x00\n        /* \"#utility.yul\":13311:13320   */\n      dup4\n        /* \"#utility.yul\":13307:13324   */\n      add\n        /* \"#utility.yul\":13300:13347   */\n      mstore\n        /* \"#utility.yul\":13364:13495   */\n      tag_378\n        /* \"#utility.yul\":13490:13494   */\n      dup2\n        /* \"#utility.yul\":13364:13495   */\n      tag_243\n      jump\t// in\n    tag_378:\n        /* \"#utility.yul\":13356:13495   */\n      swap1\n      pop\n        /* \"#utility.yul\":13083:13502   */\n      swap2\n      swap1\n      pop\n      jump\t// out\n        /* \"#utility.yul\":13508:13651   */\n    tag_244:\n        /* \"#utility.yul\":13565:13570   */\n      0x00\n        /* \"#utility.yul\":13596:13602   */\n      dup2\n        /* \"#utility.yul\":13590:13603   */\n      mload\n        /* \"#utility.yul\":13581:13603   */\n      swap1\n      pop\n        /* \"#utility.yul\":13612:13645   */\n      tag_380\n        /* \"#utility.yul\":13639:13644   */\n      dup2\n        /* \"#utility.yul\":13612:13645   */\n      tag_222\n      jump\t// in\n    tag_380:\n        /* \"#utility.yul\":13508:13651   */\n      swap3\n      swap2\n      pop\n      pop\n      jump\t// out\n        /* \"#utility.yul\":13657:14008   */\n    tag_140:\n        /* \"#utility.yul\":13727:13733   */\n      0x00\n        /* \"#utility.yul\":13776:13778   */\n      0x20\n        /* \"#utility.yul\":13764:13773   */\n      dup3\n        /* \"#utility.yul\":13755:13762   */\n      dup5\n        /* \"#utility.yul\":13751:13774   */\n      sub\n        /* \"#utility.yul\":13747:13779   */\n      slt\n        /* \"#utility.yul\":13744:13863   */\n      iszero\n      tag_382\n      jumpi\n        /* \"#utility.yul\":13782:13861   */\n      tag_383\n      tag_216\n      jump\t// in\n    tag_383:\n        /* \"#utility.yul\":13744:13863   */\n    tag_382:\n        /* \"#utility.yul\":13902:13903   */\n      0x00\n        /* \"#utility.yul\":13927:13991   */\n      tag_384\n        /* \"#utility.yul\":13983:13990   */\n      dup5\n        /* \"#utility.yul\":13974:13980   */\n      dup3\n        /* \"#utility.yul\":13963:13972   */\n      dup6\n        /* \"#utility.yul\":13959:13981   */\n      add\n        /* \"#utility.yul\":13927:13991   */\n      tag_244\n      jump\t// in\n    tag_384:\n        /* \"#utility.yul\":13917:13991   */\n      swap2\n      pop\n        /* \"#utility.yul\":13873:14001   */\n      pop\n        /* \"#utility.yul\":13657:14008   */\n      swap3\n      swap2\n      pop\n      pop\n      jump\t// out\n        /* \"#utility.yul\":14014:14174   */\n    tag_245:\n        /* \"#utility.yul\":14154:14166   */\n      0x4f6e6c79206f776e657200000000000000000000000000000000000000000000\n        /* \"#utility.yul\":14150:14151   */\n      0x00\n        /* \"#utility.yul\":14142:14148   */\n      dup3\n        /* \"#utility.yul\":14138:14152   */\n      add\n        /* \"#utility.yul\":14131:14167   */\n      mstore\n        /* \"#utility.yul\":14014:14174   */\n      pop\n      jump\t// out\n        /* \"#utility.yul\":14180:14546   */\n    tag_246:\n        /* \"#utility.yul\":14322:14325   */\n      0x00\n        /* \"#utility.yul\":14343:14410   */\n      tag_387\n        /* \"#utility.yul\":14407:14409   */\n      0x0a\n        /* \"#utility.yul\":14402:14405   */\n      dup4\n        /* \"#utility.yul\":14343:14410   */\n      tag_225\n      jump\t// in\n    tag_387:\n        /* \"#utility.yul\":14336:14410   */\n      swap2\n      pop\n        /* \"#utility.yul\":14419:14512   */\n      tag_388\n        /* \"#utility.yul\":14508:14511   */\n      dup3\n        /* \"#utility.yul\":14419:14512   */\n      tag_245\n      jump\t// in\n    tag_388:\n        /* \"#utility.yul\":14537:14539   */\n      0x20\n        /* \"#utility.yul\":14532:14535   */\n      dup3\n        /* \"#utility.yul\":14528:14540   */\n      add\n        /* \"#utility.yul\":14521:14540   */\n      swap1\n      pop\n        /* \"#utility.yul\":14180:14546   */\n      swap2\n      swap1\n      pop\n      jump\t// out\n        /* \"#utility.yul\":14552:14971   */\n    tag_147:\n        /* \"#utility.yul\":14718:14722   */\n      0x00\n        /* \"#utility.yul\":14756:14758   */\n      0x20\n        /* \"#utility.yul\":14745:14754   */\n      dup3\n        /* \"#utility.yul\":14741:14759   */\n      add\n        /* \"#utility.yul\":14733:14759   */\n      swap1\n      pop\n        /* \"#utility.yul\":14805:14814   */\n      dup2\n        /* \"#utility.yul\":14799:14803   */\n      dup2\n        /* \"#utility.yul\":14795:14815   */\n      sub\n        /* \"#utility.yul\":14791:14792   */\n      0x00\n        /* \"#utility.yul\":14780:14789   */\n      dup4\n        /* \"#utility.yul\":14776:14793   */\n      add\n        /* \"#utility.yul\":14769:14816   */\n      mstore\n        /* \"#utility.yul\":14833:14964   */\n      tag_390\n        /* \"#utility.yul\":14959:14963   */\n      dup2\n        /* \"#utility.yul\":14833:14964   */\n      tag_246\n      jump\t// in\n    tag_390:\n        /* \"#utility.yul\":14825:14964   */\n      swap1\n      pop\n        /* \"#utility.yul\":14552:14971   */\n      swap2\n      swap1\n      pop\n      jump\t// out\n        /* \"#utility.yul\":14977:15198   */\n    tag_247:\n        /* \"#utility.yul\":15117:15151   */\n      0x43616e6e6f74206d6f646966792061667465722066756e647320726563656976\n        /* \"#utility.yul\":15113:15114   */\n      0x00\n        /* \"#utility.yul\":15105:15111   */\n      dup3\n        /* \"#utility.yul\":15101:15115   */\n      add\n        /* \"#utility.yul\":15094:15152   */\n      mstore\n        /* \"#utility.yul\":15186:15190   */\n      0x6564000000000000000000000000000000000000000000000000000000000000\n        /* \"#utility.yul\":15181:15183   */\n      0x20\n        /* \"#utility.yul\":15173:15179   */\n      dup3\n        /* \"#utility.yul\":15169:15184   */\n      add\n        /* \"#utility.yul\":15162:15191   */\n      mstore\n        /* \"#utility.yul\":14977:15198   */\n      pop\n      jump\t// out\n        /* \"#utility.yul\":15204:15570   */\n    tag_248:\n        /* \"#utility.yul\":15346:15349   */\n      0x00\n        /* \"#utility.yul\":15367:15434   */\n      tag_393\n        /* \"#utility.yul\":15431:15433   */\n      0x22\n        /* \"#utility.yul\":15426:15429   */\n      dup4\n        /* \"#utility.yul\":15367:15434   */\n      tag_225\n      jump\t// in\n    tag_393:\n        /* \"#utility.yul\":15360:15434   */\n      swap2\n      pop\n        /* \"#utility.yul\":15443:15536   */\n      tag_394\n        /* \"#utility.yul\":15532:15535   */\n      dup3\n        /* \"#utility.yul\":15443:15536   */\n      tag_247\n      jump\t// in\n    tag_394:\n        /* \"#utility.yul\":15561:15563   */\n      0x40\n        /* \"#utility.yul\":15556:15559   */\n      dup3\n        /* \"#utility.yul\":15552:15564   */\n      add\n        /* \"#utility.yul\":15545:15564   */\n      swap1\n      pop\n        /* \"#utility.yul\":15204:15570   */\n      swap2\n      swap1\n      pop\n      jump\t// out\n        /* \"#utility.yul\":15576:15995   */\n    tag_151:\n        /* \"#utility.yul\":15742:15746   */\n      0x00\n        /* \"#utility.yul\":15780:15782   */\n      0x20\n        /* \"#utility.yul\":15769:15778   */\n      dup3\n        /* \"#utility.yul\":15765:15783   */\n      add\n        /* \"#utility.yul\":15757:15783   */\n      swap1\n      pop\n        /* \"#utility.yul\":15829:15838   */\n      dup2\n        /* \"#utility.yul\":15823:15827   */\n      dup2\n        /* \"#utility.yul\":15819:15839   */\n      sub\n        /* \"#utility.yul\":15815:15816   */\n      0x00\n        /* \"#utility.yul\":15804:15813   */\n      dup4\n        /* \"#utility.yul\":15800:15817   */\n      add\n        /* \"#utility.yul\":15793:15840   */\n      mstore\n        /* \"#utility.yul\":15857:15988   */\n      tag_396\n        /* \"#utility.yul\":15983:15987   */\n      dup2\n        /* \"#utility.yul\":15857:15988   */\n      tag_248\n      jump\t// in\n    tag_396:\n        /* \"#utility.yul\":15849:15988   */\n      swap1\n      pop\n        /* \"#utility.yul\":15576:15995   */\n      swap2\n      swap1\n      pop\n      jump\t// out\n        /* \"#utility.yul\":16001:16166   */\n    tag_249:\n        /* \"#utility.yul\":16141:16158   */\n      0x496e76616c696420616464726573730000000000000000000000000000000000\n        /* \"#utility.yul\":16137:16138   */\n      0x00\n        /* \"#utility.yul\":16129:16135   */\n      dup3\n        /* \"#utility.yul\":16125:16139   */\n      add\n        /* \"#utility.yul\":16118:16159   */\n      mstore\n        /* \"#utility.yul\":16001:16166   */\n      pop\n      jump\t// out\n        /* \"#utility.yul\":16172:16538   */\n    tag_250:\n        /* \"#utility.yul\":16314:16317   */\n      0x00\n        /* \"#utility.yul\":16335:16402   */\n      tag_399\n        /* \"#utility.yul\":16399:16401   */\n      0x0f\n        /* \"#utility.yul\":16394:16397   */\n      dup4\n        /* \"#utility.yul\":16335:16402   */\n      tag_225\n      jump\t// in\n    tag_399:\n        /* \"#utility.yul\":16328:16402   */\n      swap2\n      pop\n        /* \"#utility.yul\":16411:16504   */\n      tag_400\n        /* \"#utility.yul\":16500:16503   */\n      dup3\n        /* \"#utility.yul\":16411:16504   */\n      tag_249\n      jump\t// in\n    tag_400:\n        /* \"#utility.yul\":16529:16531   */\n      0x20\n        /* \"#utility.yul\":16524:16527   */\n      dup3\n        /* \"#utility.yul\":16520:16532   */\n      add\n        /* \"#utility.yul\":16513:16532   */\n      swap1\n      pop\n        /* \"#utility.yul\":16172:16538   */\n      swap2\n      swap1\n      pop\n      jump\t// out\n        /* \"#utility.yul\":16544:16963   */\n    tag_155:\n        /* \"#utility.yul\":16710:16714   */\n      0x00\n        /* \"#utility.yul\":16748:16750   */\n      0x20\n        /* \"#utility.yul\":16737:16746   */\n      dup3\n        /* \"#utility.yul\":16733:16751   */\n      add\n        /* \"#utility.yul\":16725:16751   */\n      swap1\n      pop\n        /* \"#utility.yul\":16797:16806   */\n      dup2\n        /* \"#utility.yul\":16791:16795   */\n      dup2\n        /* \"#utility.yul\":16787:16807   */\n      sub\n        /* \"#utility.yul\":16783:16784   */\n      0x00\n        /* \"#utility.yul\":16772:16781   */\n      dup4\n        /* \"#utility.yul\":16768:16785   */\n      add\n        /* \"#utility.yul\":16761:16808   */\n      mstore\n        /* \"#utility.yul\":16825:16956   */\n      tag_402\n        /* \"#utility.yul\":16951:16955   */\n      dup2\n        /* \"#utility.yul\":16825:16956   */\n      tag_250\n      jump\t// in\n    tag_402:\n        /* \"#utility.yul\":16817:16956   */\n      swap1\n      pop\n        /* \"#utility.yul\":16544:16963   */\n      swap2\n      swap1\n      pop\n      jump\t// out\n        /* \"#utility.yul\":16969:17137   */\n    tag_251:\n        /* \"#utility.yul\":17109:17129   */\n      0x496e76616c69642070657263656e746167650000000000000000000000000000\n        /* \"#utility.yul\":17105:17106   */\n      0x00\n        /* \"#utility.yul\":17097:17103   */\n      dup3\n        /* \"#utility.yul\":17093:17107   */\n      add\n        /* \"#utility.yul\":17086:17130   */\n      mstore\n        /* \"#utility.yul\":16969:17137   */\n      pop\n      jump\t// out\n        /* \"#utility.yul\":17143:17509   */\n    tag_252:\n        /* \"#utility.yul\":17285:17288   */\n      0x00\n        /* \"#utility.yul\":17306:17373   */\n      tag_405\n        /* \"#utility.yul\":17370:17372   */\n      0x12\n        /* \"#utility.yul\":17365:17368   */\n      dup4\n        /* \"#utility.yul\":17306:17373   */\n      tag_225\n      jump\t// in\n    tag_405:\n        /* \"#utility.yul\":17299:17373   */\n      swap2\n      pop\n        /* \"#utility.yul\":17382:17475   */\n      tag_406\n        /* \"#utility.yul\":17471:17474   */\n      dup3\n        /* \"#utility.yul\":17382:17475   */\n      tag_251\n      jump\t// in\n    tag_406:\n        /* \"#utility.yul\":17500:17502   */\n      0x20\n        /* \"#utility.yul\":17495:17498   */\n      dup3\n        /* \"#utility.yul\":17491:17503   */\n      add\n        /* \"#utility.yul\":17484:17503   */\n      swap1\n      pop\n        /* \"#utility.yul\":17143:17509   */\n      swap2\n      swap1\n      pop\n      jump\t// out\n        /* \"#utility.yul\":17515:17934   */\n    tag_158:\n        /* \"#utility.yul\":17681:17685   */\n      0x00\n        /* \"#utility.yul\":17719:17721   */\n      0x20\n        /* \"#utility.yul\":17708:17717   */\n      dup3\n        /* \"#utility.yul\":17704:17722   */\n      add\n        /* \"#utility.yul\":17696:17722   */\n      swap1\n      pop\n        /* \"#utility.yul\":17768:17777   */\n      dup2\n        /* \"#utility.yul\":17762:17766   */\n      dup2\n        /* \"#utility.yul\":17758:17778   */\n      sub\n        /* \"#utility.yul\":17754:17755   */\n      0x00\n        /* \"#utility.yul\":17743:17752   */\n      dup4\n        /* \"#utility.yul\":17739:17756   */\n      add\n        /* \"#utility.yul\":17732:17779   */\n      mstore\n        /* \"#utility.yul\":17796:17927   */\n      tag_408\n        /* \"#utility.yul\":17922:17926   */\n      dup2\n        /* \"#utility.yul\":17796:17927   */\n      tag_252\n      jump\t// in\n    tag_408:\n        /* \"#utility.yul\":17788:17927   */\n      swap1\n      pop\n        /* \"#utility.yul\":17515:17934   */\n      swap2\n      swap1\n      pop\n      jump\t// out\n        /* \"#utility.yul\":17940:18131   */\n    tag_160:\n        /* \"#utility.yul\":17980:17983   */\n      0x00\n        /* \"#utility.yul\":17999:18019   */\n      tag_410\n        /* \"#utility.yul\":18017:18018   */\n      dup3\n        /* \"#utility.yul\":17999:18019   */\n      tag_211\n      jump\t// in\n    tag_410:\n        /* \"#utility.yul\":17994:18019   */\n      swap2\n      pop\n        /* \"#utility.yul\":18033:18053   */\n      tag_411\n        /* \"#utility.yul\":18051:18052   */\n      dup4\n        /* \"#utility.yul\":18033:18053   */\n      tag_211\n      jump\t// in\n    tag_411:\n        /* \"#utility.yul\":18028:18053   */\n      swap3\n      pop\n        /* \"#utility.yul\":18076:18077   */\n      dup3\n        /* \"#utility.yul\":18073:18074   */\n      dup3\n        /* \"#utility.yul\":18069:18078   */\n      add\n        /* \"#utility.yul\":18062:18078   */\n      swap1\n      pop\n        /* \"#utility.yul\":18097:18100   */\n      dup1\n        /* \"#utility.yul\":18094:18095   */\n      dup3\n        /* \"#utility.yul\":18091:18101   */\n      gt\n        /* \"#utility.yul\":18088:18124   */\n      iszero\n      tag_412\n      jumpi\n        /* \"#utility.yul\":18104:18122   */\n      tag_413\n      tag_232\n      jump\t// in\n    tag_413:\n        /* \"#utility.yul\":18088:18124   */\n    tag_412:\n        /* \"#utility.yul\":17940:18131   */\n      swap3\n      swap2\n      pop\n      pop\n      jump\t// out\n        /* \"#utility.yul\":18137:18299   */\n    tag_253:\n        /* \"#utility.yul\":18277:18291   */\n      0x4578636565647320313030250000000000000000000000000000000000000000\n        /* \"#utility.yul\":18273:18274   */\n      0x00\n        /* \"#utility.yul\":18265:18271   */\n      dup3\n        /* \"#utility.yul\":18261:18275   */\n      add\n        /* \"#utility.yul\":18254:18292   */\n      mstore\n        /* \"#utility.yul\":18137:18299   */\n      pop\n      jump\t// out\n        /* \"#utility.yul\":18305:18671   */\n    tag_254:\n        /* \"#utility.yul\":18447:18450   */\n      0x00\n        /* \"#utility.yul\":18468:18535   */\n      tag_416\n        /* \"#utility.yul\":18532:18534   */\n      0x0c\n        /* \"#utility.yul\":18527:18530   */\n      dup4\n        /* \"#utility.yul\":18468:18535   */\n      tag_225\n      jump\t// in\n    tag_416:\n        /* \"#utility.yul\":18461:18535   */\n      swap2\n      pop\n        /* \"#utility.yul\":18544:18637   */\n      tag_417\n        /* \"#utility.yul\":18633:18636   */\n      dup3\n        /* \"#utility.yul\":18544:18637   */\n      tag_253\n      jump\t// in\n    tag_417:\n        /* \"#utility.yul\":18662:18664   */\n      0x20\n        /* \"#utility.yul\":18657:18660   */\n      dup3\n        /* \"#utility.yul\":18653:18665   */\n      add\n        /* \"#utility.yul\":18646:18665   */\n      swap1\n      pop\n        /* \"#utility.yul\":18305:18671   */\n      swap2\n      swap1\n      pop\n      jump\t// out\n        /* \"#utility.yul\":18677:19096   */\n    tag_163:\n        /* \"#utility.yul\":18843:18847   */\n      0x00\n        /* \"#utility.yul\":18881:18883   */\n      0x20\n        /* \"#utility.yul\":18870:18879   */\n      dup3\n        /* \"#utility.yul\":18866:18884   */\n      add\n        /* \"#utility.yul\":18858:18884   */\n      swap1\n      pop\n        /* \"#utility.yul\":18930:18939   */\n      dup2\n        /* \"#utility.yul\":18924:18928   */\n      dup2\n        /* \"#utility.yul\":18920:18940   */\n      sub\n        /* \"#utility.yul\":18916:18917   */\n      0x00\n        /* \"#utility.yul\":18905:18914   */\n      dup4\n        /* \"#utility.yul\":18901:18918   */\n      add\n        /* \"#utility.yul\":18894:18941   */\n      mstore\n        /* \"#utility.yul\":18958:19089   */\n      tag_419\n        /* \"#utility.yul\":19084:19088   */\n      dup2\n        /* \"#utility.yul\":18958:19089   */\n      tag_254\n      jump\t// in\n    tag_419:\n        /* \"#utility.yul\":18950:19089   */\n      swap1\n      pop\n        /* \"#utility.yul\":18677:19096   */\n      swap2\n      swap1\n      pop\n      jump\t// out\n        /* \"#utility.yul\":19102:19296   */\n    tag_176:\n        /* \"#utility.yul\":19142:19146   */\n      0x00\n        /* \"#utility.yul\":19162:19182   */\n      tag_421\n        /* \"#utility.yul\":19180:19181   */\n      dup3\n        /* \"#utility.yul\":19162:19182   */\n      tag_211\n      jump\t// in\n    tag_421:\n        /* \"#utility.yul\":19157:19182   */\n      swap2\n      pop\n        /* \"#utility.yul\":19196:19216   */\n      tag_422\n        /* \"#utility.yul\":19214:19215   */\n      dup4\n        /* \"#utility.yul\":19196:19216   */\n      tag_211\n      jump\t// in\n    tag_422:\n        /* \"#utility.yul\":19191:19216   */\n      swap3\n      pop\n        /* \"#utility.yul\":19240:19241   */\n      dup3\n        /* \"#utility.yul\":19237:19238   */\n      dup3\n        /* \"#utility.yul\":19233:19242   */\n      sub\n        /* \"#utility.yul\":19225:19242   */\n      swap1\n      pop\n        /* \"#utility.yul\":19264:19265   */\n      dup2\n        /* \"#utility.yul\":19258:19262   */\n      dup2\n        /* \"#utility.yul\":19255:19266   */\n      gt\n        /* \"#utility.yul\":19252:19289   */\n      iszero\n      tag_423\n      jumpi\n        /* \"#utility.yul\":19269:19287   */\n      tag_424\n      tag_232\n      jump\t// in\n    tag_424:\n        /* \"#utility.yul\":19252:19289   */\n    tag_423:\n        /* \"#utility.yul\":19102:19296   */\n      swap3\n      swap2\n      pop\n      pop\n      jump\t// out\n        /* \"#utility.yul\":19302:19634   */\n    tag_182:\n        /* \"#utility.yul\":19423:19427   */\n      0x00\n        /* \"#utility.yul\":19461:19463   */\n      0x40\n        /* \"#utility.yul\":19450:19459   */\n      dup3\n        /* \"#utility.yul\":19446:19464   */\n      add\n        /* \"#utility.yul\":19438:19464   */\n      swap1\n      pop\n        /* \"#utility.yul\":19474:19545   */\n      tag_426\n        /* \"#utility.yul\":19542:19543   */\n      0x00\n        /* \"#utility.yul\":19531:19540   */\n      dup4\n        /* \"#utility.yul\":19527:19544   */\n      add\n        /* \"#utility.yul\":19518:19524   */\n      dup6\n        /* \"#utility.yul\":19474:19545   */\n      tag_212\n      jump\t// in\n    tag_426:\n        /* \"#utility.yul\":19555:19627   */\n      tag_427\n        /* \"#utility.yul\":19623:19625   */\n      0x20\n        /* \"#utility.yul\":19612:19621   */\n      dup4\n        /* \"#utility.yul\":19608:19626   */\n      add\n        /* \"#utility.yul\":19599:19605   */\n      dup5\n        /* \"#utility.yul\":19555:19627   */\n      tag_212\n      jump\t// in\n    tag_427:\n        /* \"#utility.yul\":19302:19634   */\n      swap4\n      swap3\n      pop\n      pop\n      pop\n      jump\t// out\n        /* \"#utility.yul\":19640:19802   */\n    tag_255:\n        /* \"#utility.yul\":19780:19794   */\n      0x4e6f2072656d61696e696e670000000000000000000000000000000000000000\n        /* \"#utility.yul\":19776:19777   */\n      0x00\n        /* \"#utility.yul\":19768:19774   */\n      dup3\n        /* \"#utility.yul\":19764:19778   */\n      add\n        /* \"#utility.yul\":19757:19795   */\n      mstore\n        /* \"#utility.yul\":19640:19802   */\n      pop\n      jump\t// out\n        /* \"#utility.yul\":19808:20174   */\n    tag_256:\n        /* \"#utility.yul\":19950:19953   */\n      0x00\n        /* \"#utility.yul\":19971:20038   */\n      tag_430\n        /* \"#utility.yul\":20035:20037   */\n      0x0c\n        /* \"#utility.yul\":20030:20033   */\n      dup4\n        /* \"#utility.yul\":19971:20038   */\n      tag_225\n      jump\t// in\n    tag_430:\n        /* \"#utility.yul\":19964:20038   */\n      swap2\n      pop\n        /* \"#utility.yul\":20047:20140   */\n      tag_431\n        /* \"#utility.yul\":20136:20139   */\n      dup3\n        /* \"#utility.yul\":20047:20140   */\n      tag_255\n      jump\t// in\n    tag_431:\n        /* \"#utility.yul\":20165:20167   */\n      0x20\n        /* \"#utility.yul\":20160:20163   */\n      dup3\n        /* \"#utility.yul\":20156:20168   */\n      add\n        /* \"#utility.yul\":20149:20168   */\n      swap1\n      pop\n        /* \"#utility.yul\":19808:20174   */\n      swap2\n      swap1\n      pop\n      jump\t// out\n        /* \"#utility.yul\":20180:20599   */\n    tag_203:\n        /* \"#utility.yul\":20346:20350   */\n      0x00\n        /* \"#utility.yul\":20384:20386   */\n      0x20\n        /* \"#utility.yul\":20373:20382   */\n      dup3\n        /* \"#utility.yul\":20369:20387   */\n      add\n        /* \"#utility.yul\":20361:20387   */\n      swap1\n      pop\n        /* \"#utility.yul\":20433:20442   */\n      dup2\n        /* \"#utility.yul\":20427:20431   */\n      dup2\n        /* \"#utility.yul\":20423:20443   */\n      sub\n        /* \"#utility.yul\":20419:20420   */\n      0x00\n        /* \"#utility.yul\":20408:20417   */\n      dup4\n        /* \"#utility.yul\":20404:20421   */\n      add\n        /* \"#utility.yul\":20397:20444   */\n      mstore\n        /* \"#utility.yul\":20461:20592   */\n      tag_433\n        /* \"#utility.yul\":20587:20591   */\n      dup2\n        /* \"#utility.yul\":20461:20592   */\n      tag_256\n      jump\t// in\n    tag_433:\n        /* \"#utility.yul\":20453:20592   */\n      swap1\n      pop\n        /* \"#utility.yul\":20180:20599   */\n      swap2\n      swap1\n      pop\n      jump\t// out\n\n    auxdata: 0xa2646970667358221220a326dc5160bec9fbfb6eb3d81d99fa2c31f0982cb9d7e053c6e1f098d5a9bce264736f6c634300081e0033\n}\n",
				"bytecode": {
					"linkReferences": {},
					"object": "608060405234801561001057600080fd5b50604051611f4d380380611f4d833981810160405281019061003291906101b6565b600073ffffffffffffffffffffffffffffffffffffffff168173ffffffffffffffffffffffffffffffffffffffff16036100a1576040517f08c379a000000000000000000000000000000000000000000000000000000000815260040161009890610240565b60405180910390fd5b336000806101000a81548173ffffffffffffffffffffffffffffffffffffffff021916908373ffffffffffffffffffffffffffffffffffffffff16021790555080600160006101000a81548173ffffffffffffffffffffffffffffffffffffffff021916908373ffffffffffffffffffffffffffffffffffffffff16021790555060006002819055506000600360006101000a81548160ff021916908315150217905550600060068190555050610260565b600080fd5b600073ffffffffffffffffffffffffffffffffffffffff82169050919050565b600061018382610158565b9050919050565b61019381610178565b811461019e57600080fd5b50565b6000815190506101b08161018a565b92915050565b6000602082840312156101cc576101cb610153565b5b60006101da848285016101a1565b91505092915050565b600082825260208201905092915050565b7f496e76616c696420746f6b656e00000000000000000000000000000000000000600082015250565b600061022a600d836101e3565b9150610235826101f4565b602082019050919050565b600060208201905081810360008301526102598161021d565b9050919050565b611cde8061026f6000396000f3fe608060405234801561001057600080fd5b50600436106100ea5760003560e01c8063757249901161008c5780639d76ea58116100665780639d76ea5814610217578063a3c2c46214610235578063ab377daa14610253578063ee38db9514610286576100ea565b806375724990146101bf57806382299a5c146101db5780638da5cb5b146101f9576100ea565b8063227d9f65116100c8578063227d9f6514610149578063243496711461017b57806341bcf6a414610185578063680e6c9b146101b5576100ea565b8063047c312a146100ef578063049728811461010d57806311318b331461012b575b600080fd5b6100f7610290565b6040516101049190611280565b60405180910390f35b610115610296565b6040516101229190611280565b60405180910390f35b6101336102a3565b60405161014091906112b6565b60405180910390f35b610163600480360381019061015e9190611334565b6102b6565b60405161017293929190611361565b60405180910390f35b6101836103ce565b005b61019f600480360381019061019a9190611334565b610771565b6040516101ac9190611280565b60405180910390f35b6101bd610789565b005b6101d960048036038101906101d491906113c4565b610966565b005b6101e3610e7f565b6040516101f09190611280565b60405180910390f35b610201610e89565b60405161020e9190611413565b60405180910390f35b61021f610ead565b60405161022c9190611413565b60405180910390f35b61023d610ed3565b60405161024a9190611280565b60405180910390f35b61026d6004803603810190610268919061142e565b610ed9565b60405161027d949392919061145b565b60405180910390f35b61028e610f53565b005b60065481565b6000600480549050905090565b600360009054906101000a900460ff1681565b600080600080600090505b6004805490508110156103ba578473ffffffffffffffffffffffffffffffffffffffff16600482815481106102f9576102f86114a0565b5b906000526020600020906003020160000160009054906101000a900473ffffffffffffffffffffffffffffffffffffffff1673ffffffffffffffffffffffffffffffffffffffff16036103ad576004818154811061035a576103596114a0565b5b906000526020600020906003020160010154600482815481106103805761037f6114a0565b5b906000526020600020906003020160020160009054906101000a900460ff166001935093509350506103c7565b80806001019150506102c1565b5060008060009250925092505b9193909250565b600360009054906101000a900460ff1661041d576040517f08c379a00000000000000000000000000000000000000000000000000000000081526004016104149061152c565b60405180910390fd5b60008060005b6004805490508110156104c1573373ffffffffffffffffffffffffffffffffffffffff166004828154811061045b5761045a6114a0565b5b906000526020600020906003020160000160009054906101000a900473ffffffffffffffffffffffffffffffffffffffff1673ffffffffffffffffffffffffffffffffffffffff16036104b457600192508091506104c1565b8080600101915050610423565b5081610502576040517f08c379a00000000000000000000000000000000000000000000000000000000081526004016104f990611598565b60405180910390fd5b60048181548110610516576105156114a0565b5b906000526020600020906003020160020160009054906101000a900460ff1615610575576040517f08c379a000000000000000000000000000000000000000000000000000000000815260040161056c90611604565b60405180910390fd5b600060646004838154811061058d5761058c6114a0565b5b9060005260206000209060030201600101546002546105ac9190611653565b6105b691906116c4565b9050600081116105fb576040517f08c379a00000000000000000000000000000000000000000000000000000000081526004016105f290611741565b60405180910390fd5b600160048381548110610611576106106114a0565b5b906000526020600020906003020160020160006101000a81548160ff0219169083151502179055506000600160009054906101000a900473ffffffffffffffffffffffffffffffffffffffff1690508073ffffffffffffffffffffffffffffffffffffffff1663a9059cbb33846040518363ffffffff1660e01b815260040161069b929190611761565b6020604051808303816000875af11580156106ba573d6000803e3d6000fd5b505050506040513d601f19601f820116820180604052508101906106de91906117b6565b61071d576040517f08c379a00000000000000000000000000000000000000000000000000000000081526004016107149061182f565b60405180910390fd5b3373ffffffffffffffffffffffffffffffffffffffff167f44d1ab781574735bc4050ac804fb34e512600e6cf637a801375f3ffa0b4b706f836040516107639190611280565b60405180910390a250505050565b60056020528060005260406000206000915090505481565b600360009054906101000a900460ff16156107d9576040517f08c379a00000000000000000000000000000000000000000000000000000000081526004016107d09061189b565b60405180910390fd5b600060048054905011610821576040517f08c379a000000000000000000000000000000000000000000000000000000000815260040161081890611907565b60405180910390fd5b6000600160009054906101000a900473ffffffffffffffffffffffffffffffffffffffff16905060008173ffffffffffffffffffffffffffffffffffffffff166370a08231306040518263ffffffff1660e01b81526004016108839190611413565b602060405180830381865afa1580156108a0573d6000803e3d6000fd5b505050506040513d601f19601f820116820180604052508101906108c4919061193c565b905060008111610909576040517f08c379a000000000000000000000000000000000000000000000000000000000815260040161090090611741565b60405180910390fd5b806002819055506001600360006101000a81548160ff0219169083151502179055507fbcdc7071c1beb6dcf2744621e0b29a2f2432ee20812d9ca5e3d5e8f9308d93a38160405161095a9190611280565b60405180910390a15050565b60008054906101000a900473ffffffffffffffffffffffffffffffffffffffff1673ffffffffffffffffffffffffffffffffffffffff163373ffffffffffffffffffffffffffffffffffffffff16146109f4576040517f08c379a00000000000000000000000000000000000000000000000000000000081526004016109eb906119b5565b60405180910390fd5b600360009054906101000a900460ff1615610a44576040517f08c379a0000000000000000000000000000000000000000000000000000000008152600401610a3b90611a47565b60405180910390fd5b600073ffffffffffffffffffffffffffffffffffffffff168273ffffffffffffffffffffffffffffffffffffffff1603610ab3576040517f08c379a0000000000000000000000000000000000000000000000000000000008152600401610aaa90611ab3565b60405180910390fd5b60008111610af6576040517f08c379a0000000000000000000000000000000000000000000000000000000008152600401610aed90611b1f565b60405180910390fd5b606481600654610b069190611b3f565b1115610b47576040517f08c379a0000000000000000000000000000000000000000000000000000000008152600401610b3e90611bbf565b60405180910390fd5b60008060005b600480549050811015610beb578473ffffffffffffffffffffffffffffffffffffffff1660048281548110610b8557610b846114a0565b5b906000526020600020906003020160000160009054906101000a900473ffffffffffffffffffffffffffffffffffffffff1673ffffffffffffffffffffffffffffffffffffffff1603610bde5760019250809150610beb565b8080600101915050610b4d565b508115610cbb57600060048281548110610c0857610c076114a0565b5b90600052602060002090600302016001015490508381600654610c2b9190611bdf565b610c359190611b3f565b6006819055508360048381548110610c5057610c4f6114a0565b5b9060005260206000209060030201600101819055508473ffffffffffffffffffffffffffffffffffffffff167fc7ce19f077ef8efce4ee2b5a828fce80c50fbe4bed9e59245675509d04cbee798286604051610cad929190611c13565b60405180910390a250610e79565b600060405180608001604052808673ffffffffffffffffffffffffffffffffffffffff168152602001858152602001600015158152602001600115158152509050600481908060018154018082558091505060019003906000526020600020906003020160009091909190915060008201518160000160006101000a81548173ffffffffffffffffffffffffffffffffffffffff021916908373ffffffffffffffffffffffffffffffffffffffff1602179055506020820151816001015560408201518160020160006101000a81548160ff02191690831515021790555060608201518160020160016101000a81548160ff02191690831515021790555050506001600480549050610dcd9190611bdf565b600560008773ffffffffffffffffffffffffffffffffffffffff1673ffffffffffffffffffffffffffffffffffffffff168152602001908152602001600020819055508360066000828254610e229190611b3f565b925050819055508473ffffffffffffffffffffffffffffffffffffffff167f3bc19114ca6a687ffd9445c87615db284e96364365d72b010ec53244b45e561b85604051610e6f9190611280565b60405180910390a2505b50505050565b6000600654905090565b60008054906101000a900473ffffffffffffffffffffffffffffffffffffffff1681565b600160009054906101000a900473ffffffffffffffffffffffffffffffffffffffff1681565b60025481565b60048181548110610ee957600080fd5b90600052602060002090600302016000915090508060000160009054906101000a900473ffffffffffffffffffffffffffffffffffffffff16908060010154908060020160009054906101000a900460ff16908060020160019054906101000a900460ff16905084565b60008054906101000a900473ffffffffffffffffffffffffffffffffffffffff1673ffffffffffffffffffffffffffffffffffffffff163373ffffffffffffffffffffffffffffffffffffffff1614610fe1576040517f08c379a0000000000000000000000000000000000000000000000000000000008152600401610fd8906119b5565b60405180910390fd5b600360009054906101000a900460ff16611030576040517f08c379a00000000000000000000000000000000000000000000000000000000081526004016110279061152c565b60405180910390fd5b6000600160009054906101000a900473ffffffffffffffffffffffffffffffffffffffff16905060008173ffffffffffffffffffffffffffffffffffffffff166370a08231306040518263ffffffff1660e01b81526004016110929190611413565b602060405180830381865afa1580156110af573d6000803e3d6000fd5b505050506040513d601f19601f820116820180604052508101906110d3919061193c565b905060008111611118576040517f08c379a000000000000000000000000000000000000000000000000000000000815260040161110f90611c88565b60405180910390fd5b8173ffffffffffffffffffffffffffffffffffffffff1663a9059cbb60008054906101000a900473ffffffffffffffffffffffffffffffffffffffff16836040518363ffffffff1660e01b8152600401611173929190611761565b6020604051808303816000875af1158015611192573d6000803e3d6000fd5b505050506040513d601f19601f820116820180604052508101906111b691906117b6565b6111f5576040517f08c379a00000000000000000000000000000000000000000000000000000000081526004016111ec9061182f565b60405180910390fd5b60008054906101000a900473ffffffffffffffffffffffffffffffffffffffff1673ffffffffffffffffffffffffffffffffffffffff167fb700c819c89549cd901221b05c2d1653b84086815ee1393d7dacb6f4ee3122758260405161125b9190611280565b60405180910390a25050565b6000819050919050565b61127a81611267565b82525050565b60006020820190506112956000830184611271565b92915050565b60008115159050919050565b6112b08161129b565b82525050565b60006020820190506112cb60008301846112a7565b92915050565b600080fd5b600073ffffffffffffffffffffffffffffffffffffffff82169050919050565b6000611301826112d6565b9050919050565b611311816112f6565b811461131c57600080fd5b50565b60008135905061132e81611308565b92915050565b60006020828403121561134a576113496112d1565b5b60006113588482850161131f565b91505092915050565b60006060820190506113766000830186611271565b61138360208301856112a7565b61139060408301846112a7565b949350505050565b6113a181611267565b81146113ac57600080fd5b50565b6000813590506113be81611398565b92915050565b600080604083850312156113db576113da6112d1565b5b60006113e98582860161131f565b92505060206113fa858286016113af565b9150509250929050565b61140d816112f6565b82525050565b60006020820190506114286000830184611404565b92915050565b600060208284031215611444576114436112d1565b5b6000611452848285016113af565b91505092915050565b60006080820190506114706000830187611404565b61147d6020830186611271565b61148a60408301856112a7565b61149760608301846112a7565b95945050505050565b7f4e487b7100000000000000000000000000000000000000000000000000000000600052603260045260246000fd5b600082825260208201905092915050565b7f46756e6473206e6f742072656365697665640000000000000000000000000000600082015250565b60006115166012836114cf565b9150611521826114e0565b602082019050919050565b6000602082019050818103600083015261154581611509565b9050919050565b7f4e6f742061207368617265686f6c646572000000000000000000000000000000600082015250565b60006115826011836114cf565b915061158d8261154c565b602082019050919050565b600060208201905081810360008301526115b181611575565b9050919050565b7f416c72656164792077697468647261776e000000000000000000000000000000600082015250565b60006115ee6011836114cf565b91506115f9826115b8565b602082019050919050565b6000602082019050818103600083015261161d816115e1565b9050919050565b7f4e487b7100000000000000000000000000000000000000000000000000000000600052601160045260246000fd5b600061165e82611267565b915061166983611267565b925082820261167781611267565b9150828204841483151761168e5761168d611624565b5b5092915050565b7f4e487b7100000000000000000000000000000000000000000000000000000000600052601260045260246000fd5b60006116cf82611267565b91506116da83611267565b9250826116ea576116e9611695565b5b828204905092915050565b7f4e6f20746f6b656e730000000000000000000000000000000000000000000000600082015250565b600061172b6009836114cf565b9150611736826116f5565b602082019050919050565b6000602082019050818103600083015261175a8161171e565b9050919050565b60006040820190506117766000830185611404565b6117836020830184611271565b9392505050565b6117938161129b565b811461179e57600080fd5b50565b6000815190506117b08161178a565b92915050565b6000602082840312156117cc576117cb6112d1565b5b60006117da848285016117a1565b91505092915050565b7f5472616e73666572206661696c65640000000000000000000000000000000000600082015250565b6000611819600f836114cf565b9150611824826117e3565b602082019050919050565b600060208201905081810360008301526118488161180c565b9050919050565b7f416c726561647920726563656976656400000000000000000000000000000000600082015250565b60006118856010836114cf565b91506118908261184f565b602082019050919050565b600060208201905081810360008301526118b481611878565b9050919050565b7f4e6f207368617265686f6c646572730000000000000000000000000000000000600082015250565b60006118f1600f836114cf565b91506118fc826118bb565b602082019050919050565b60006020820190508181036000830152611920816118e4565b9050919050565b60008151905061193681611398565b92915050565b600060208284031215611952576119516112d1565b5b600061196084828501611927565b91505092915050565b7f4f6e6c79206f776e657200000000000000000000000000000000000000000000600082015250565b600061199f600a836114cf565b91506119aa82611969565b602082019050919050565b600060208201905081810360008301526119ce81611992565b9050919050565b7f43616e6e6f74206d6f646966792061667465722066756e64732072656365697660008201527f6564000000000000000000000000000000000000000000000000000000000000602082015250565b6000611a316022836114cf565b9150611a3c826119d5565b604082019050919050565b60006020820190508181036000830152611a6081611a24565b9050919050565b7f496e76616c696420616464726573730000000000000000000000000000000000600082015250565b6000611a9d600f836114cf565b9150611aa882611a67565b602082019050919050565b60006020820190508181036000830152611acc81611a90565b9050919050565b7f496e76616c69642070657263656e746167650000000000000000000000000000600082015250565b6000611b096012836114cf565b9150611b1482611ad3565b602082019050919050565b60006020820190508181036000830152611b3881611afc565b9050919050565b6000611b4a82611267565b9150611b5583611267565b9250828201905080821115611b6d57611b6c611624565b5b92915050565b7f4578636565647320313030250000000000000000000000000000000000000000600082015250565b6000611ba9600c836114cf565b9150611bb482611b73565b602082019050919050565b60006020820190508181036000830152611bd881611b9c565b9050919050565b6000611bea82611267565b9150611bf583611267565b9250828203905081811115611c0d57611c0c611624565b5b92915050565b6000604082019050611c286000830185611271565b611c356020830184611271565b9392505050565b7f4e6f2072656d61696e696e670000000000000000000000000000000000000000600082015250565b6000611c72600c836114cf565b9150611c7d82611c3c565b602082019050919050565b60006020820190508181036000830152611ca181611c65565b905091905056fea2646970667358221220a326dc5160bec9fbfb6eb3d81d99fa2c31f0982cb9d7e053c6e1f098d5a9bce264736f6c634300081e0033",
					"opcodes": "PUSH1 0x80 PUSH1 0x40 MSTORE CALLVALUE DUP1 ISZERO PUSH2 0x10 JUMPI PUSH1 0x0 DUP1 REVERT JUMPDEST POP PUSH1 0x40 MLOAD PUSH2 0x1F4D CODESIZE SUB DUP1 PUSH2 0x1F4D DUP4 CODECOPY DUP2 DUP2 ADD PUSH1 0x40 MSTORE DUP2 ADD SWAP1 PUSH2 0x32 SWAP2 SWAP1 PUSH2 0x1B6 JUMP JUMPDEST PUSH1 0x0 PUSH20 0xFFFFFFFFFFFFFFFFFFFFFFFFFFFFFFFFFFFFFFFF AND DUP2 PUSH20 0xFFFFFFFFFFFFFFFFFFFFFFFFFFFFFFFFFFFFFFFF AND SUB PUSH2 0xA1 JUMPI PUSH1 0x40 MLOAD PUSH32 0x8C379A000000000000000000000000000000000000000000000000000000000 DUP2 MSTORE PUSH1 0x4 ADD PUSH2 0x98 SWAP1 PUSH2 0x240 JUMP JUMPDEST PUSH1 0x40 MLOAD DUP1 SWAP2 SUB SWAP1 REVERT JUMPDEST CALLER PUSH1 0x0 DUP1 PUSH2 0x100 EXP DUP2 SLOAD DUP2 PUSH20 0xFFFFFFFFFFFFFFFFFFFFFFFFFFFFFFFFFFFFFFFF MUL NOT AND SWAP1 DUP4 PUSH20 0xFFFFFFFFFFFFFFFFFFFFFFFFFFFFFFFFFFFFFFFF AND MUL OR SWAP1 SSTORE POP DUP1 PUSH1 0x1 PUSH1 0x0 PUSH2 0x100 EXP DUP2 SLOAD DUP2 PUSH20 0xFFFFFFFFFFFFFFFFFFFFFFFFFFFFFFFFFFFFFFFF MUL NOT AND SWAP1 DUP4 PUSH20 0xFFFFFFFFFFFFFFFFFFFFFFFFFFFFFFFFFFFFFFFF AND MUL OR SWAP1 SSTORE POP PUSH1 0x0 PUSH1 0x2 DUP2 SWAP1 SSTORE POP PUSH1 0x0 PUSH1 0x3 PUSH1 0x0 PUSH2 0x100 EXP DUP2 SLOAD DUP2 PUSH1 0xFF MUL NOT AND SWAP1 DUP4 ISZERO ISZERO MUL OR SWAP1 SSTORE POP PUSH1 0x0 PUSH1 0x6 DUP2 SWAP1 SSTORE POP POP PUSH2 0x260 JUMP JUMPDEST PUSH1 0x0 DUP1 REVERT JUMPDEST PUSH1 0x0 PUSH20 0xFFFFFFFFFFFFFFFFFFFFFFFFFFFFFFFFFFFFFFFF DUP3 AND SWAP1 POP SWAP2 SWAP1 POP JUMP JUMPDEST PUSH1 0x0 PUSH2 0x183 DUP3 PUSH2 0x158 JUMP JUMPDEST SWAP1 POP SWAP2 SWAP1 POP JUMP JUMPDEST PUSH2 0x193 DUP2 PUSH2 0x178 JUMP JUMPDEST DUP2 EQ PUSH2 0x19E JUMPI PUSH1 0x0 DUP1 REVERT JUMPDEST POP JUMP JUMPDEST PUSH1 0x0 DUP2 MLOAD SWAP1 POP PUSH2 0x1B0 DUP2 PUSH2 0x18A JUMP JUMPDEST SWAP3 SWAP2 POP POP JUMP JUMPDEST PUSH1 0x0 PUSH1 0x20 DUP3 DUP5 SUB SLT ISZERO PUSH2 0x1CC JUMPI PUSH2 0x1CB PUSH2 0x153 JUMP JUMPDEST JUMPDEST PUSH1 0x0 PUSH2 0x1DA DUP5 DUP3 DUP6 ADD PUSH2 0x1A1 JUMP JUMPDEST SWAP2 POP POP SWAP3 SWAP2 POP POP JUMP JUMPDEST PUSH1 0x0 DUP3 DUP3 MSTORE PUSH1 0x20 DUP3 ADD SWAP1 POP SWAP3 SWAP2 POP POP JUMP JUMPDEST PUSH32 0x496E76616C696420746F6B656E00000000000000000000000000000000000000 PUSH1 0x0 DUP3 ADD MSTORE POP JUMP JUMPDEST PUSH1 0x0 PUSH2 0x22A PUSH1 0xD DUP4 PUSH2 0x1E3 JUMP JUMPDEST SWAP2 POP PUSH2 0x235 DUP3 PUSH2 0x1F4 JUMP JUMPDEST PUSH1 0x20 DUP3 ADD SWAP1 POP SWAP2 SWAP1 POP JUMP JUMPDEST PUSH1 0x0 PUSH1 0x20 DUP3 ADD SWAP1 POP DUP2 DUP2 SUB PUSH1 0x0 DUP4 ADD MSTORE PUSH2 0x259 DUP2 PUSH2 0x21D JUMP JUMPDEST SWAP1 POP SWAP2 SWAP1 POP JUMP JUMPDEST PUSH2 0x1CDE DUP1 PUSH2 0x26F PUSH1 0x0 CODECOPY PUSH1 0x0 RETURN INVALID PUSH1 0x80 PUSH1 0x40 MSTORE CALLVALUE DUP1 ISZERO PUSH2 0x10 JUMPI PUSH1 0x0 DUP1 REVERT JUMPDEST POP PUSH1 0x4 CALLDATASIZE LT PUSH2 0xEA JUMPI PUSH1 0x0 CALLDATALOAD PUSH1 0xE0 SHR DUP1 PUSH4 0x75724990 GT PUSH2 0x8C JUMPI DUP1 PUSH4 0x9D76EA58 GT PUSH2 0x66 JUMPI DUP1 PUSH4 0x9D76EA58 EQ PUSH2 0x217 JUMPI DUP1 PUSH4 0xA3C2C462 EQ PUSH2 0x235 JUMPI DUP1 PUSH4 0xAB377DAA EQ PUSH2 0x253 JUMPI DUP1 PUSH4 0xEE38DB95 EQ PUSH2 0x286 JUMPI PUSH2 0xEA JUMP JUMPDEST DUP1 PUSH4 0x75724990 EQ PUSH2 0x1BF JUMPI DUP1 PUSH4 0x82299A5C EQ PUSH2 0x1DB JUMPI DUP1 PUSH4 0x8DA5CB5B EQ PUSH2 0x1F9 JUMPI PUSH2 0xEA JUMP JUMPDEST DUP1 PUSH4 0x227D9F65 GT PUSH2 0xC8 JUMPI DUP1 PUSH4 0x227D9F65 EQ PUSH2 0x149 JUMPI DUP1 PUSH4 0x24349671 EQ PUSH2 0x17B JUMPI DUP1 PUSH4 0x41BCF6A4 EQ PUSH2 0x185 JUMPI DUP1 PUSH4 0x680E6C9B EQ PUSH2 0x1B5 JUMPI PUSH2 0xEA JUMP JUMPDEST DUP1 PUSH4 0x47C312A EQ PUSH2 0xEF JUMPI DUP1 PUSH4 0x4972881 EQ PUSH2 0x10D JUMPI DUP1 PUSH4 0x11318B33 EQ PUSH2 0x12B JUMPI JUMPDEST PUSH1 0x0 DUP1 REVERT JUMPDEST PUSH2 0xF7 PUSH2 0x290 JUMP JUMPDEST PUSH1 0x40 MLOAD PUSH2 0x104 SWAP2 SWAP1 PUSH2 0x1280 JUMP JUMPDEST PUSH1 0x40 MLOAD DUP1 SWAP2 SUB SWAP1 RETURN JUMPDEST PUSH2 0x115 PUSH2 0x296 JUMP JUMPDEST PUSH1 0x40 MLOAD PUSH2 0x122 SWAP2 SWAP1 PUSH2 0x1280 JUMP JUMPDEST PUSH1 0x40 MLOAD DUP1 SWAP2 SUB SWAP1 RETURN JUMPDEST PUSH2 0x133 PUSH2 0x2A3 JUMP JUMPDEST PUSH1 0x40 MLOAD PUSH2 0x140 SWAP2 SWAP1 PUSH2 0x12B6 JUMP JUMPDEST PUSH1 0x40 MLOAD DUP1 SWAP2 SUB SWAP1 RETURN JUMPDEST PUSH2 0x163 PUSH1 0x4 DUP1 CALLDATASIZE SUB DUP2 ADD SWAP1 PUSH2 0x15E SWAP2 SWAP1 PUSH2 0x1334 JUMP JUMPDEST PUSH2 0x2B6 JUMP JUMPDEST PUSH1 0x40 MLOAD PUSH2 0x172 SWAP4 SWAP3 SWAP2 SWAP1 PUSH2 0x1361 JUMP JUMPDEST PUSH1 0x40 MLOAD DUP1 SWAP2 SUB SWAP1 RETURN JUMPDEST PUSH2 0x183 PUSH2 0x3CE JUMP JUMPDEST STOP JUMPDEST PUSH2 0x19F PUSH1 0x4 DUP1 CALLDATASIZE SUB DUP2 ADD SWAP1 PUSH2 0x19A SWAP2 SWAP1 PUSH2 0x1334 JUMP JUMPDEST PUSH2 0x771 JUMP JUMPDEST PUSH1 0x40 MLOAD PUSH2 0x1AC SWAP2 SWAP1 PUSH2 0x1280 JUMP JUMPDEST PUSH1 0x40 MLOAD DUP1 SWAP2 SUB SWAP1 RETURN JUMPDEST PUSH2 0x1BD PUSH2 0x789 JUMP JUMPDEST STOP JUMPDEST PUSH2 0x1D9 PUSH1 0x4 DUP1 CALLDATASIZE SUB DUP2 ADD SWAP1 PUSH2 0x1D4 SWAP2 SWAP1 PUSH2 0x13C4 JUMP JUMPDEST PUSH2 0x966 JUMP JUMPDEST STOP JUMPDEST PUSH2 0x1E3 PUSH2 0xE7F JUMP JUMPDEST PUSH1 0x40 MLOAD PUSH2 0x1F0 SWAP2 SWAP1 PUSH2 0x1280 JUMP JUMPDEST PUSH1 0x40 MLOAD DUP1 SWAP2 SUB SWAP1 RETURN JUMPDEST PUSH2 0x201 PUSH2 0xE89 JUMP JUMPDEST PUSH1 0x40 MLOAD PUSH2 0x20E SWAP2 SWAP1 PUSH2 0x1413 JUMP JUMPDEST PUSH1 0x40 MLOAD DUP1 SWAP2 SUB SWAP1 RETURN JUMPDEST PUSH2 0x21F PUSH2 0xEAD JUMP JUMPDEST PUSH1 0x40 MLOAD PUSH2 0x22C SWAP2 SWAP1 PUSH2 0x1413 JUMP JUMPDEST PUSH1 0x40 MLOAD DUP1 SWAP2 SUB SWAP1 RETURN JUMPDEST PUSH2 0x23D PUSH2 0xED3 JUMP JUMPDEST PUSH1 0x40 MLOAD PUSH2 0x24A SWAP2 SWAP1 PUSH2 0x1280 JUMP JUMPDEST PUSH1 0x40 MLOAD DUP1 SWAP2 SUB SWAP1 RETURN JUMPDEST PUSH2 0x26D PUSH1 0x4 DUP1 CALLDATASIZE SUB DUP2 ADD SWAP1 PUSH2 0x268 SWAP2 SWAP1 PUSH2 0x142E JUMP JUMPDEST PUSH2 0xED9 JUMP JUMPDEST PUSH1 0x40 MLOAD PUSH2 0x27D SWAP5 SWAP4 SWAP3 SWAP2 SWAP1 PUSH2 0x145B JUMP JUMPDEST PUSH1 0x40 MLOAD DUP1 SWAP2 SUB SWAP1 RETURN JUMPDEST PUSH2 0x28E PUSH2 0xF53 JUMP JUMPDEST STOP JUMPDEST PUSH1 0x6 SLOAD DUP2 JUMP JUMPDEST PUSH1 0x0 PUSH1 0x4 DUP1 SLOAD SWAP1 POP SWAP1 POP SWAP1 JUMP JUMPDEST PUSH1 0x3 PUSH1 0x0 SWAP1 SLOAD SWAP1 PUSH2 0x100 EXP SWAP1 DIV PUSH1 0xFF AND DUP2 JUMP JUMPDEST PUSH1 0x0 DUP1 PUSH1 0x0 DUP1 PUSH1 0x0 SWAP1 POP JUMPDEST PUSH1 0x4 DUP1 SLOAD SWAP1 POP DUP2 LT ISZERO PUSH2 0x3BA JUMPI DUP5 PUSH20 0xFFFFFFFFFFFFFFFFFFFFFFFFFFFFFFFFFFFFFFFF AND PUSH1 0x4 DUP3 DUP2 SLOAD DUP2 LT PUSH2 0x2F9 JUMPI PUSH2 0x2F8 PUSH2 0x14A0 JUMP JUMPDEST JUMPDEST SWAP1 PUSH1 0x0 MSTORE PUSH1 0x20 PUSH1 0x0 KECCAK256 SWAP1 PUSH1 0x3 MUL ADD PUSH1 0x0 ADD PUSH1 0x0 SWAP1 SLOAD SWAP1 PUSH2 0x100 EXP SWAP1 DIV PUSH20 0xFFFFFFFFFFFFFFFFFFFFFFFFFFFFFFFFFFFFFFFF AND PUSH20 0xFFFFFFFFFFFFFFFFFFFFFFFFFFFFFFFFFFFFFFFF AND SUB PUSH2 0x3AD JUMPI PUSH1 0x4 DUP2 DUP2 SLOAD DUP2 LT PUSH2 0x35A JUMPI PUSH2 0x359 PUSH2 0x14A0 JUMP JUMPDEST JUMPDEST SWAP1 PUSH1 0x0 MSTORE PUSH1 0x20 PUSH1 0x0 KECCAK256 SWAP1 PUSH1 0x3 MUL ADD PUSH1 0x1 ADD SLOAD PUSH1 0x4 DUP3 DUP2 SLOAD DUP2 LT PUSH2 0x380 JUMPI PUSH2 0x37F PUSH2 0x14A0 JUMP JUMPDEST JUMPDEST SWAP1 PUSH1 0x0 MSTORE PUSH1 0x20 PUSH1 0x0 KECCAK256 SWAP1 PUSH1 0x3 MUL ADD PUSH1 0x2 ADD PUSH1 0x0 SWAP1 SLOAD SWAP1 PUSH2 0x100 EXP SWAP1 DIV PUSH1 0xFF AND PUSH1 0x1 SWAP4 POP SWAP4 POP SWAP4 POP POP PUSH2 0x3C7 JUMP JUMPDEST DUP1 DUP1 PUSH1 0x1 ADD SWAP2 POP POP PUSH2 0x2C1 JUMP JUMPDEST POP PUSH1 0x0 DUP1 PUSH1 0x0 SWAP3 POP SWAP3 POP SWAP3 POP JUMPDEST SWAP2 SWAP4 SWAP1 SWAP3 POP JUMP JUMPDEST PUSH1 0x3 PUSH1 0x0 SWAP1 SLOAD SWAP1 PUSH2 0x100 EXP SWAP1 DIV PUSH1 0xFF AND PUSH2 0x41D JUMPI PUSH1 0x40 MLOAD PUSH32 0x8C379A000000000000000000000000000000000000000000000000000000000 DUP2 MSTORE PUSH1 0x4 ADD PUSH2 0x414 SWAP1 PUSH2 0x152C JUMP JUMPDEST PUSH1 0x40 MLOAD DUP1 SWAP2 SUB SWAP1 REVERT JUMPDEST PUSH1 0x0 DUP1 PUSH1 0x0 JUMPDEST PUSH1 0x4 DUP1 SLOAD SWAP1 POP DUP2 LT ISZERO PUSH2 0x4C1 JUMPI CALLER PUSH20 0xFFFFFFFFFFFFFFFFFFFFFFFFFFFFFFFFFFFFFFFF AND PUSH1 0x4 DUP3 DUP2 SLOAD DUP2 LT PUSH2 0x45B JUMPI PUSH2 0x45A PUSH2 0x14A0 JUMP JUMPDEST JUMPDEST SWAP1 PUSH1 0x0 MSTORE PUSH1 0x20 PUSH1 0x0 KECCAK256 SWAP1 PUSH1 0x3 MUL ADD PUSH1 0x0 ADD PUSH1 0x0 SWAP1 SLOAD SWAP1 PUSH2 0x100 EXP SWAP1 DIV PUSH20 0xFFFFFFFFFFFFFFFFFFFFFFFFFFFFFFFFFFFFFFFF AND PUSH20 0xFFFFFFFFFFFFFFFFFFFFFFFFFFFFFFFFFFFFFFFF AND SUB PUSH2 0x4B4 JUMPI PUSH1 0x1 SWAP3 POP DUP1 SWAP2 POP PUSH2 0x4C1 JUMP JUMPDEST DUP1 DUP1 PUSH1 0x1 ADD SWAP2 POP POP PUSH2 0x423 JUMP JUMPDEST POP DUP2 PUSH2 0x502 JUMPI PUSH1 0x40 MLOAD PUSH32 0x8C379A000000000000000000000000000000000000000000000000000000000 DUP2 MSTORE PUSH1 0x4 ADD PUSH2 0x4F9 SWAP1 PUSH2 0x1598 JUMP JUMPDEST PUSH1 0x40 MLOAD DUP1 SWAP2 SUB SWAP1 REVERT JUMPDEST PUSH1 0x4 DUP2 DUP2 SLOAD DUP2 LT PUSH2 0x516 JUMPI PUSH2 0x515 PUSH2 0x14A0 JUMP JUMPDEST JUMPDEST SWAP1 PUSH1 0x0 MSTORE PUSH1 0x20 PUSH1 0x0 KECCAK256 SWAP1 PUSH1 0x3 MUL ADD PUSH1 0x2 ADD PUSH1 0x0 SWAP1 SLOAD SWAP1 PUSH2 0x100 EXP SWAP1 DIV PUSH1 0xFF AND ISZERO PUSH2 0x575 JUMPI PUSH1 0x40 MLOAD PUSH32 0x8C379A000000000000000000000000000000000000000000000000000000000 DUP2 MSTORE PUSH1 0x4 ADD PUSH2 0x56C SWAP1 PUSH2 0x1604 JUMP JUMPDEST PUSH1 0x40 MLOAD DUP1 SWAP2 SUB SWAP1 REVERT JUMPDEST PUSH1 0x0 PUSH1 0x64 PUSH1 0x4 DUP4 DUP2 SLOAD DUP2 LT PUSH2 0x58D JUMPI PUSH2 0x58C PUSH2 0x14A0 JUMP JUMPDEST JUMPDEST SWAP1 PUSH1 0x0 MSTORE PUSH1 0x20 PUSH1 0x0 KECCAK256 SWAP1 PUSH1 0x3 MUL ADD PUSH1 0x1 ADD SLOAD PUSH1 0x2 SLOAD PUSH2 0x5AC SWAP2 SWAP1 PUSH2 0x1653 JUMP JUMPDEST PUSH2 0x5B6 SWAP2 SWAP1 PUSH2 0x16C4 JUMP JUMPDEST SWAP1 POP PUSH1 0x0 DUP2 GT PUSH2 0x5FB JUMPI PUSH1 0x40 MLOAD PUSH32 0x8C379A000000000000000000000000000000000000000000000000000000000 DUP2 MSTORE PUSH1 0x4 ADD PUSH2 0x5F2 SWAP1 PUSH2 0x1741 JUMP JUMPDEST PUSH1 0x40 MLOAD DUP1 SWAP2 SUB SWAP1 REVERT JUMPDEST PUSH1 0x1 PUSH1 0x4 DUP4 DUP2 SLOAD DUP2 LT PUSH2 0x611 JUMPI PUSH2 0x610 PUSH2 0x14A0 JUMP JUMPDEST JUMPDEST SWAP1 PUSH1 0x0 MSTORE PUSH1 0x20 PUSH1 0x0 KECCAK256 SWAP1 PUSH1 0x3 MUL ADD PUSH1 0x2 ADD PUSH1 0x0 PUSH2 0x100 EXP DUP2 SLOAD DUP2 PUSH1 0xFF MUL NOT AND SWAP1 DUP4 ISZERO ISZERO MUL OR SWAP1 SSTORE POP PUSH1 0x0 PUSH1 0x1 PUSH1 0x0 SWAP1 SLOAD SWAP1 PUSH2 0x100 EXP SWAP1 DIV PUSH20 0xFFFFFFFFFFFFFFFFFFFFFFFFFFFFFFFFFFFFFFFF AND SWAP1 POP DUP1 PUSH20 0xFFFFFFFFFFFFFFFFFFFFFFFFFFFFFFFFFFFFFFFF AND PUSH4 0xA9059CBB CALLER DUP5 PUSH1 0x40 MLOAD DUP4 PUSH4 0xFFFFFFFF AND PUSH1 0xE0 SHL DUP2 MSTORE PUSH1 0x4 ADD PUSH2 0x69B SWAP3 SWAP2 SWAP1 PUSH2 0x1761 JUMP JUMPDEST PUSH1 0x20 PUSH1 0x40 MLOAD DUP1 DUP4 SUB DUP2 PUSH1 0x0 DUP8 GAS CALL ISZERO DUP1 ISZERO PUSH2 0x6BA JUMPI RETURNDATASIZE PUSH1 0x0 DUP1 RETURNDATACOPY RETURNDATASIZE PUSH1 0x0 REVERT JUMPDEST POP POP POP POP PUSH1 0x40 MLOAD RETURNDATASIZE PUSH1 0x1F NOT PUSH1 0x1F DUP3 ADD AND DUP3 ADD DUP1 PUSH1 0x40 MSTORE POP DUP2 ADD SWAP1 PUSH2 0x6DE SWAP2 SWAP1 PUSH2 0x17B6 JUMP JUMPDEST PUSH2 0x71D JUMPI PUSH1 0x40 MLOAD PUSH32 0x8C379A000000000000000000000000000000000000000000000000000000000 DUP2 MSTORE PUSH1 0x4 ADD PUSH2 0x714 SWAP1 PUSH2 0x182F JUMP JUMPDEST PUSH1 0x40 MLOAD DUP1 SWAP2 SUB SWAP1 REVERT JUMPDEST CALLER PUSH20 0xFFFFFFFFFFFFFFFFFFFFFFFFFFFFFFFFFFFFFFFF AND PUSH32 0x44D1AB781574735BC4050AC804FB34E512600E6CF637A801375F3FFA0B4B706F DUP4 PUSH1 0x40 MLOAD PUSH2 0x763 SWAP2 SWAP1 PUSH2 0x1280 JUMP JUMPDEST PUSH1 0x40 MLOAD DUP1 SWAP2 SUB SWAP1 LOG2 POP POP POP POP JUMP JUMPDEST PUSH1 0x5 PUSH1 0x20 MSTORE DUP1 PUSH1 0x0 MSTORE PUSH1 0x40 PUSH1 0x0 KECCAK256 PUSH1 0x0 SWAP2 POP SWAP1 POP SLOAD DUP2 JUMP JUMPDEST PUSH1 0x3 PUSH1 0x0 SWAP1 SLOAD SWAP1 PUSH2 0x100 EXP SWAP1 DIV PUSH1 0xFF AND ISZERO PUSH2 0x7D9 JUMPI PUSH1 0x40 MLOAD PUSH32 0x8C379A000000000000000000000000000000000000000000000000000000000 DUP2 MSTORE PUSH1 0x4 ADD PUSH2 0x7D0 SWAP1 PUSH2 0x189B JUMP JUMPDEST PUSH1 0x40 MLOAD DUP1 SWAP2 SUB SWAP1 REVERT JUMPDEST PUSH1 0x0 PUSH1 0x4 DUP1 SLOAD SWAP1 POP GT PUSH2 0x821 JUMPI PUSH1 0x40 MLOAD PUSH32 0x8C379A000000000000000000000000000000000000000000000000000000000 DUP2 MSTORE PUSH1 0x4 ADD PUSH2 0x818 SWAP1 PUSH2 0x1907 JUMP JUMPDEST PUSH1 0x40 MLOAD DUP1 SWAP2 SUB SWAP1 REVERT JUMPDEST PUSH1 0x0 PUSH1 0x1 PUSH1 0x0 SWAP1 SLOAD SWAP1 PUSH2 0x100 EXP SWAP1 DIV PUSH20 0xFFFFFFFFFFFFFFFFFFFFFFFFFFFFFFFFFFFFFFFF AND SWAP1 POP PUSH1 0x0 DUP2 PUSH20 0xFFFFFFFFFFFFFFFFFFFFFFFFFFFFFFFFFFFFFFFF AND PUSH4 0x70A08231 ADDRESS PUSH1 0x40 MLOAD DUP3 PUSH4 0xFFFFFFFF AND PUSH1 0xE0 SHL DUP2 MSTORE PUSH1 0x4 ADD PUSH2 0x883 SWAP2 SWAP1 PUSH2 0x1413 JUMP JUMPDEST PUSH1 0x20 PUSH1 0x40 MLOAD DUP1 DUP4 SUB DUP2 DUP7 GAS STATICCALL ISZERO DUP1 ISZERO PUSH2 0x8A0 JUMPI RETURNDATASIZE PUSH1 0x0 DUP1 RETURNDATACOPY RETURNDATASIZE PUSH1 0x0 REVERT JUMPDEST POP POP POP POP PUSH1 0x40 MLOAD RETURNDATASIZE PUSH1 0x1F NOT PUSH1 0x1F DUP3 ADD AND DUP3 ADD DUP1 PUSH1 0x40 MSTORE POP DUP2 ADD SWAP1 PUSH2 0x8C4 SWAP2 SWAP1 PUSH2 0x193C JUMP JUMPDEST SWAP1 POP PUSH1 0x0 DUP2 GT PUSH2 0x909 JUMPI PUSH1 0x40 MLOAD PUSH32 0x8C379A000000000000000000000000000000000000000000000000000000000 DUP2 MSTORE PUSH1 0x4 ADD PUSH2 0x900 SWAP1 PUSH2 0x1741 JUMP JUMPDEST PUSH1 0x40 MLOAD DUP1 SWAP2 SUB SWAP1 REVERT JUMPDEST DUP1 PUSH1 0x2 DUP2 SWAP1 SSTORE POP PUSH1 0x1 PUSH1 0x3 PUSH1 0x0 PUSH2 0x100 EXP DUP2 SLOAD DUP2 PUSH1 0xFF MUL NOT AND SWAP1 DUP4 ISZERO ISZERO MUL OR SWAP1 SSTORE POP PUSH32 0xBCDC7071C1BEB6DCF2744621E0B29A2F2432EE20812D9CA5E3D5E8F9308D93A3 DUP2 PUSH1 0x40 MLOAD PUSH2 0x95A SWAP2 SWAP1 PUSH2 0x1280 JUMP JUMPDEST PUSH1 0x40 MLOAD DUP1 SWAP2 SUB SWAP1 LOG1 POP POP JUMP JUMPDEST PUSH1 0x0 DUP1 SLOAD SWAP1 PUSH2 0x100 EXP SWAP1 DIV PUSH20 0xFFFFFFFFFFFFFFFFFFFFFFFFFFFFFFFFFFFFFFFF AND PUSH20 0xFFFFFFFFFFFFFFFFFFFFFFFFFFFFFFFFFFFFFFFF AND CALLER PUSH20 0xFFFFFFFFFFFFFFFFFFFFFFFFFFFFFFFFFFFFFFFF AND EQ PUSH2 0x9F4 JUMPI PUSH1 0x40 MLOAD PUSH32 0x8C379A000000000000000000000000000000000000000000000000000000000 DUP2 MSTORE PUSH1 0x4 ADD PUSH2 0x9EB SWAP1 PUSH2 0x19B5 JUMP JUMPDEST PUSH1 0x40 MLOAD DUP1 SWAP2 SUB SWAP1 REVERT JUMPDEST PUSH1 0x3 PUSH1 0x0 SWAP1 SLOAD SWAP1 PUSH2 0x100 EXP SWAP1 DIV PUSH1 0xFF AND ISZERO PUSH2 0xA44 JUMPI PUSH1 0x40 MLOAD PUSH32 0x8C379A000000000000000000000000000000000000000000000000000000000 DUP2 MSTORE PUSH1 0x4 ADD PUSH2 0xA3B SWAP1 PUSH2 0x1A47 JUMP JUMPDEST PUSH1 0x40 MLOAD DUP1 SWAP2 SUB SWAP1 REVERT JUMPDEST PUSH1 0x0 PUSH20 0xFFFFFFFFFFFFFFFFFFFFFFFFFFFFFFFFFFFFFFFF AND DUP3 PUSH20 0xFFFFFFFFFFFFFFFFFFFFFFFFFFFFFFFFFFFFFFFF AND SUB PUSH2 0xAB3 JUMPI PUSH1 0x40 MLOAD PUSH32 0x8C379A000000000000000000000000000000000000000000000000000000000 DUP2 MSTORE PUSH1 0x4 ADD PUSH2 0xAAA SWAP1 PUSH2 0x1AB3 JUMP JUMPDEST PUSH1 0x40 MLOAD DUP1 SWAP2 SUB SWAP1 REVERT JUMPDEST PUSH1 0x0 DUP2 GT PUSH2 0xAF6 JUMPI PUSH1 0x40 MLOAD PUSH32 0x8C379A000000000000000000000000000000000000000000000000000000000 DUP2 MSTORE PUSH1 0x4 ADD PUSH2 0xAED SWAP1 PUSH2 0x1B1F JUMP JUMPDEST PUSH1 0x40 MLOAD DUP1 SWAP2 SUB SWAP1 REVERT JUMPDEST PUSH1 0x64 DUP2 PUSH1 0x6 SLOAD PUSH2 0xB06 SWAP2 SWAP1 PUSH2 0x1B3F JUMP JUMPDEST GT ISZERO PUSH2 0xB47 JUMPI PUSH1 0x40 MLOAD PUSH32 0x8C379A000000000000000000000000000000000000000000000000000000000 DUP2 MSTORE PUSH1 0x4 ADD PUSH2 0xB3E SWAP1 PUSH2 0x1BBF JUMP JUMPDEST PUSH1 0x40 MLOAD DUP1 SWAP2 SUB SWAP1 REVERT JUMPDEST PUSH1 0x0 DUP1 PUSH1 0x0 JUMPDEST PUSH1 0x4 DUP1 SLOAD SWAP1 POP DUP2 LT ISZERO PUSH2 0xBEB JUMPI DUP5 PUSH20 0xFFFFFFFFFFFFFFFFFFFFFFFFFFFFFFFFFFFFFFFF AND PUSH1 0x4 DUP3 DUP2 SLOAD DUP2 LT PUSH2 0xB85 JUMPI PUSH2 0xB84 PUSH2 0x14A0 JUMP JUMPDEST JUMPDEST SWAP1 PUSH1 0x0 MSTORE PUSH1 0x20 PUSH1 0x0 KECCAK256 SWAP1 PUSH1 0x3 MUL ADD PUSH1 0x0 ADD PUSH1 0x0 SWAP1 SLOAD SWAP1 PUSH2 0x100 EXP SWAP1 DIV PUSH20 0xFFFFFFFFFFFFFFFFFFFFFFFFFFFFFFFFFFFFFFFF AND PUSH20 0xFFFFFFFFFFFFFFFFFFFFFFFFFFFFFFFFFFFFFFFF AND SUB PUSH2 0xBDE JUMPI PUSH1 0x1 SWAP3 POP DUP1 SWAP2 POP PUSH2 0xBEB JUMP JUMPDEST DUP1 DUP1 PUSH1 0x1 ADD SWAP2 POP POP PUSH2 0xB4D JUMP JUMPDEST POP DUP2 ISZERO PUSH2 0xCBB JUMPI PUSH1 0x0 PUSH1 0x4 DUP3 DUP2 SLOAD DUP2 LT PUSH2 0xC08 JUMPI PUSH2 0xC07 PUSH2 0x14A0 JUMP JUMPDEST JUMPDEST SWAP1 PUSH1 0x0 MSTORE PUSH1 0x20 PUSH1 0x0 KECCAK256 SWAP1 PUSH1 0x3 MUL ADD PUSH1 0x1 ADD SLOAD SWAP1 POP DUP4 DUP2 PUSH1 0x6 SLOAD PUSH2 0xC2B SWAP2 SWAP1 PUSH2 0x1BDF JUMP JUMPDEST PUSH2 0xC35 SWAP2 SWAP1 PUSH2 0x1B3F JUMP JUMPDEST PUSH1 0x6 DUP2 SWAP1 SSTORE POP DUP4 PUSH1 0x4 DUP4 DUP2 SLOAD DUP2 LT PUSH2 0xC50 JUMPI PUSH2 0xC4F PUSH2 0x14A0 JUMP JUMPDEST JUMPDEST SWAP1 PUSH1 0x0 MSTORE PUSH1 0x20 PUSH1 0x0 KECCAK256 SWAP1 PUSH1 0x3 MUL ADD PUSH1 0x1 ADD DUP2 SWAP1 SSTORE POP DUP5 PUSH20 0xFFFFFFFFFFFFFFFFFFFFFFFFFFFFFFFFFFFFFFFF AND PUSH32 0xC7CE19F077EF8EFCE4EE2B5A828FCE80C50FBE4BED9E59245675509D04CBEE79 DUP3 DUP7 PUSH1 0x40 MLOAD PUSH2 0xCAD SWAP3 SWAP2 SWAP1 PUSH2 0x1C13 JUMP JUMPDEST PUSH1 0x40 MLOAD DUP1 SWAP2 SUB SWAP1 LOG2 POP PUSH2 0xE79 JUMP JUMPDEST PUSH1 0x0 PUSH1 0x40 MLOAD DUP1 PUSH1 0x80 ADD PUSH1 0x40 MSTORE DUP1 DUP7 PUSH20 0xFFFFFFFFFFFFFFFFFFFFFFFFFFFFFFFFFFFFFFFF AND DUP2 MSTORE PUSH1 0x20 ADD DUP6 DUP2 MSTORE PUSH1 0x20 ADD PUSH1 0x0 ISZERO ISZERO DUP2 MSTORE PUSH1 0x20 ADD PUSH1 0x1 ISZERO ISZERO DUP2 MSTORE POP SWAP1 POP PUSH1 0x4 DUP2 SWAP1 DUP1 PUSH1 0x1 DUP2 SLOAD ADD DUP1 DUP3 SSTORE DUP1 SWAP2 POP POP PUSH1 0x1 SWAP1 SUB SWAP1 PUSH1 0x0 MSTORE PUSH1 0x20 PUSH1 0x0 KECCAK256 SWAP1 PUSH1 0x3 MUL ADD PUSH1 0x0 SWAP1 SWAP2 SWAP1 SWAP2 SWAP1 SWAP2 POP PUSH1 0x0 DUP3 ADD MLOAD DUP2 PUSH1 0x0 ADD PUSH1 0x0 PUSH2 0x100 EXP DUP2 SLOAD DUP2 PUSH20 0xFFFFFFFFFFFFFFFFFFFFFFFFFFFFFFFFFFFFFFFF MUL NOT AND SWAP1 DUP4 PUSH20 0xFFFFFFFFFFFFFFFFFFFFFFFFFFFFFFFFFFFFFFFF AND MUL OR SWAP1 SSTORE POP PUSH1 0x20 DUP3 ADD MLOAD DUP2 PUSH1 0x1 ADD SSTORE PUSH1 0x40 DUP3 ADD MLOAD DUP2 PUSH1 0x2 ADD PUSH1 0x0 PUSH2 0x100 EXP DUP2 SLOAD DUP2 PUSH1 0xFF MUL NOT AND SWAP1 DUP4 ISZERO ISZERO MUL OR SWAP1 SSTORE POP PUSH1 0x60 DUP3 ADD MLOAD DUP2 PUSH1 0x2 ADD PUSH1 0x1 PUSH2 0x100 EXP DUP2 SLOAD DUP2 PUSH1 0xFF MUL NOT AND SWAP1 DUP4 ISZERO ISZERO MUL OR SWAP1 SSTORE POP POP POP PUSH1 0x1 PUSH1 0x4 DUP1 SLOAD SWAP1 POP PUSH2 0xDCD SWAP2 SWAP1 PUSH2 0x1BDF JUMP JUMPDEST PUSH1 0x5 PUSH1 0x0 DUP8 PUSH20 0xFFFFFFFFFFFFFFFFFFFFFFFFFFFFFFFFFFFFFFFF AND PUSH20 0xFFFFFFFFFFFFFFFFFFFFFFFFFFFFFFFFFFFFFFFF AND DUP2 MSTORE PUSH1 0x20 ADD SWAP1 DUP2 MSTORE PUSH1 0x20 ADD PUSH1 0x0 KECCAK256 DUP2 SWAP1 SSTORE POP DUP4 PUSH1 0x6 PUSH1 0x0 DUP3 DUP3 SLOAD PUSH2 0xE22 SWAP2 SWAP1 PUSH2 0x1B3F JUMP JUMPDEST SWAP3 POP POP DUP2 SWAP1 SSTORE POP DUP5 PUSH20 0xFFFFFFFFFFFFFFFFFFFFFFFFFFFFFFFFFFFFFFFF AND PUSH32 0x3BC19114CA6A687FFD9445C87615DB284E96364365D72B010EC53244B45E561B DUP6 PUSH1 0x40 MLOAD PUSH2 0xE6F SWAP2 SWAP1 PUSH2 0x1280 JUMP JUMPDEST PUSH1 0x40 MLOAD DUP1 SWAP2 SUB SWAP1 LOG2 POP JUMPDEST POP POP POP POP JUMP JUMPDEST PUSH1 0x0 PUSH1 0x6 SLOAD SWAP1 POP SWAP1 JUMP JUMPDEST PUSH1 0x0 DUP1 SLOAD SWAP1 PUSH2 0x100 EXP SWAP1 DIV PUSH20 0xFFFFFFFFFFFFFFFFFFFFFFFFFFFFFFFFFFFFFFFF AND DUP2 JUMP JUMPDEST PUSH1 0x1 PUSH1 0x0 SWAP1 SLOAD SWAP1 PUSH2 0x100 EXP SWAP1 DIV PUSH20 0xFFFFFFFFFFFFFFFFFFFFFFFFFFFFFFFFFFFFFFFF AND DUP2 JUMP JUMPDEST PUSH1 0x2 SLOAD DUP2 JUMP JUMPDEST PUSH1 0x4 DUP2 DUP2 SLOAD DUP2 LT PUSH2 0xEE9 JUMPI PUSH1 0x0 DUP1 REVERT JUMPDEST SWAP1 PUSH1 0x0 MSTORE PUSH1 0x20 PUSH1 0x0 KECCAK256 SWAP1 PUSH1 0x3 MUL ADD PUSH1 0x0 SWAP2 POP SWAP1 POP DUP1 PUSH1 0x0 ADD PUSH1 0x0 SWAP1 SLOAD SWAP1 PUSH2 0x100 EXP SWAP1 DIV PUSH20 0xFFFFFFFFFFFFFFFFFFFFFFFFFFFFFFFFFFFFFFFF AND SWAP1 DUP1 PUSH1 0x1 ADD SLOAD SWAP1 DUP1 PUSH1 0x2 ADD PUSH1 0x0 SWAP1 SLOAD SWAP1 PUSH2 0x100 EXP SWAP1 DIV PUSH1 0xFF AND SWAP1 DUP1 PUSH1 0x2 ADD PUSH1 0x1 SWAP1 SLOAD SWAP1 PUSH2 0x100 EXP SWAP1 DIV PUSH1 0xFF AND SWAP1 POP DUP5 JUMP JUMPDEST PUSH1 0x0 DUP1 SLOAD SWAP1 PUSH2 0x100 EXP SWAP1 DIV PUSH20 0xFFFFFFFFFFFFFFFFFFFFFFFFFFFFFFFFFFFFFFFF AND PUSH20 0xFFFFFFFFFFFFFFFFFFFFFFFFFFFFFFFFFFFFFFFF AND CALLER PUSH20 0xFFFFFFFFFFFFFFFFFFFFFFFFFFFFFFFFFFFFFFFF AND EQ PUSH2 0xFE1 JUMPI PUSH1 0x40 MLOAD PUSH32 0x8C379A000000000000000000000000000000000000000000000000000000000 DUP2 MSTORE PUSH1 0x4 ADD PUSH2 0xFD8 SWAP1 PUSH2 0x19B5 JUMP JUMPDEST PUSH1 0x40 MLOAD DUP1 SWAP2 SUB SWAP1 REVERT JUMPDEST PUSH1 0x3 PUSH1 0x0 SWAP1 SLOAD SWAP1 PUSH2 0x100 EXP SWAP1 DIV PUSH1 0xFF AND PUSH2 0x1030 JUMPI PUSH1 0x40 MLOAD PUSH32 0x8C379A000000000000000000000000000000000000000000000000000000000 DUP2 MSTORE PUSH1 0x4 ADD PUSH2 0x1027 SWAP1 PUSH2 0x152C JUMP JUMPDEST PUSH1 0x40 MLOAD DUP1 SWAP2 SUB SWAP1 REVERT JUMPDEST PUSH1 0x0 PUSH1 0x1 PUSH1 0x0 SWAP1 SLOAD SWAP1 PUSH2 0x100 EXP SWAP1 DIV PUSH20 0xFFFFFFFFFFFFFFFFFFFFFFFFFFFFFFFFFFFFFFFF AND SWAP1 POP PUSH1 0x0 DUP2 PUSH20 0xFFFFFFFFFFFFFFFFFFFFFFFFFFFFFFFFFFFFFFFF AND PUSH4 0x70A08231 ADDRESS PUSH1 0x40 MLOAD DUP3 PUSH4 0xFFFFFFFF AND PUSH1 0xE0 SHL DUP2 MSTORE PUSH1 0x4 ADD PUSH2 0x1092 SWAP2 SWAP1 PUSH2 0x1413 JUMP JUMPDEST PUSH1 0x20 PUSH1 0x40 MLOAD DUP1 DUP4 SUB DUP2 DUP7 GAS STATICCALL ISZERO DUP1 ISZERO PUSH2 0x10AF JUMPI RETURNDATASIZE PUSH1 0x0 DUP1 RETURNDATACOPY RETURNDATASIZE PUSH1 0x0 REVERT JUMPDEST POP POP POP POP PUSH1 0x40 MLOAD RETURNDATASIZE PUSH1 0x1F NOT PUSH1 0x1F DUP3 ADD AND DUP3 ADD DUP1 PUSH1 0x40 MSTORE POP DUP2 ADD SWAP1 PUSH2 0x10D3 SWAP2 SWAP1 PUSH2 0x193C JUMP JUMPDEST SWAP1 POP PUSH1 0x0 DUP2 GT PUSH2 0x1118 JUMPI PUSH1 0x40 MLOAD PUSH32 0x8C379A000000000000000000000000000000000000000000000000000000000 DUP2 MSTORE PUSH1 0x4 ADD PUSH2 0x110F SWAP1 PUSH2 0x1C88 JUMP JUMPDEST PUSH1 0x40 MLOAD DUP1 SWAP2 SUB SWAP1 REVERT JUMPDEST DUP2 PUSH20 0xFFFFFFFFFFFFFFFFFFFFFFFFFFFFFFFFFFFFFFFF AND PUSH4 0xA9059CBB PUSH1 0x0 DUP1 SLOAD SWAP1 PUSH2 0x100 EXP SWAP1 DIV PUSH20 0xFFFFFFFFFFFFFFFFFFFFFFFFFFFFFFFFFFFFFFFF AND DUP4 PUSH1 0x40 MLOAD DUP4 PUSH4 0xFFFFFFFF AND PUSH1 0xE0 SHL DUP2 MSTORE PUSH1 0x4 ADD PUSH2 0x1173 SWAP3 SWAP2 SWAP1 PUSH2 0x1761 JUMP JUMPDEST PUSH1 0x20 PUSH1 0x40 MLOAD DUP1 DUP4 SUB DUP2 PUSH1 0x0 DUP8 GAS CALL ISZERO DUP1 ISZERO PUSH2 0x1192 JUMPI RETURNDATASIZE PUSH1 0x0 DUP1 RETURNDATACOPY RETURNDATASIZE PUSH1 0x0 REVERT JUMPDEST POP POP POP POP PUSH1 0x40 MLOAD RETURNDATASIZE PUSH1 0x1F NOT PUSH1 0x1F DUP3 ADD AND DUP3 ADD DUP1 PUSH1 0x40 MSTORE POP DUP2 ADD SWAP1 PUSH2 0x11B6 SWAP2 SWAP1 PUSH2 0x17B6 JUMP JUMPDEST PUSH2 0x11F5 JUMPI PUSH1 0x40 MLOAD PUSH32 0x8C379A000000000000000000000000000000000000000000000000000000000 DUP2 MSTORE PUSH1 0x4 ADD PUSH2 0x11EC SWAP1 PUSH2 0x182F JUMP JUMPDEST PUSH1 0x40 MLOAD DUP1 SWAP2 SUB SWAP1 REVERT JUMPDEST PUSH1 0x0 DUP1 SLOAD SWAP1 PUSH2 0x100 EXP SWAP1 DIV PUSH20 0xFFFFFFFFFFFFFFFFFFFFFFFFFFFFFFFFFFFFFFFF AND PUSH20 0xFFFFFFFFFFFFFFFFFFFFFFFFFFFFFFFFFFFFFFFF AND PUSH32 0xB700C819C89549CD901221B05C2D1653B84086815EE1393D7DACB6F4EE312275 DUP3 PUSH1 0x40 MLOAD PUSH2 0x125B SWAP2 SWAP1 PUSH2 0x1280 JUMP JUMPDEST PUSH1 0x40 MLOAD DUP1 SWAP2 SUB SWAP1 LOG2 POP POP JUMP JUMPDEST PUSH1 0x0 DUP2 SWAP1 POP SWAP2 SWAP1 POP JUMP JUMPDEST PUSH2 0x127A DUP2 PUSH2 0x1267 JUMP JUMPDEST DUP3 MSTORE POP POP JUMP JUMPDEST PUSH1 0x0 PUSH1 0x20 DUP3 ADD SWAP1 POP PUSH2 0x1295 PUSH1 0x0 DUP4 ADD DUP5 PUSH2 0x1271 JUMP JUMPDEST SWAP3 SWAP2 POP POP JUMP JUMPDEST PUSH1 0x0 DUP2 ISZERO ISZERO SWAP1 POP SWAP2 SWAP1 POP JUMP JUMPDEST PUSH2 0x12B0 DUP2 PUSH2 0x129B JUMP JUMPDEST DUP3 MSTORE POP POP JUMP JUMPDEST PUSH1 0x0 PUSH1 0x20 DUP3 ADD SWAP1 POP PUSH2 0x12CB PUSH1 0x0 DUP4 ADD DUP5 PUSH2 0x12A7 JUMP JUMPDEST SWAP3 SWAP2 POP POP JUMP JUMPDEST PUSH1 0x0 DUP1 REVERT JUMPDEST PUSH1 0x0 PUSH20 0xFFFFFFFFFFFFFFFFFFFFFFFFFFFFFFFFFFFFFFFF DUP3 AND SWAP1 POP SWAP2 SWAP1 POP JUMP JUMPDEST PUSH1 0x0 PUSH2 0x1301 DUP3 PUSH2 0x12D6 JUMP JUMPDEST SWAP1 POP SWAP2 SWAP1 POP JUMP JUMPDEST PUSH2 0x1311 DUP2 PUSH2 0x12F6 JUMP JUMPDEST DUP2 EQ PUSH2 0x131C JUMPI PUSH1 0x0 DUP1 REVERT JUMPDEST POP JUMP JUMPDEST PUSH1 0x0 DUP2 CALLDATALOAD SWAP1 POP PUSH2 0x132E DUP2 PUSH2 0x1308 JUMP JUMPDEST SWAP3 SWAP2 POP POP JUMP JUMPDEST PUSH1 0x0 PUSH1 0x20 DUP3 DUP5 SUB SLT ISZERO PUSH2 0x134A JUMPI PUSH2 0x1349 PUSH2 0x12D1 JUMP JUMPDEST JUMPDEST PUSH1 0x0 PUSH2 0x1358 DUP5 DUP3 DUP6 ADD PUSH2 0x131F JUMP JUMPDEST SWAP2 POP POP SWAP3 SWAP2 POP POP JUMP JUMPDEST PUSH1 0x0 PUSH1 0x60 DUP3 ADD SWAP1 POP PUSH2 0x1376 PUSH1 0x0 DUP4 ADD DUP7 PUSH2 0x1271 JUMP JUMPDEST PUSH2 0x1383 PUSH1 0x20 DUP4 ADD DUP6 PUSH2 0x12A7 JUMP JUMPDEST PUSH2 0x1390 PUSH1 0x40 DUP4 ADD DUP5 PUSH2 0x12A7 JUMP JUMPDEST SWAP5 SWAP4 POP POP POP POP JUMP JUMPDEST PUSH2 0x13A1 DUP2 PUSH2 0x1267 JUMP JUMPDEST DUP2 EQ PUSH2 0x13AC JUMPI PUSH1 0x0 DUP1 REVERT JUMPDEST POP JUMP JUMPDEST PUSH1 0x0 DUP2 CALLDATALOAD SWAP1 POP PUSH2 0x13BE DUP2 PUSH2 0x1398 JUMP JUMPDEST SWAP3 SWAP2 POP POP JUMP JUMPDEST PUSH1 0x0 DUP1 PUSH1 0x40 DUP4 DUP6 SUB SLT ISZERO PUSH2 0x13DB JUMPI PUSH2 0x13DA PUSH2 0x12D1 JUMP JUMPDEST JUMPDEST PUSH1 0x0 PUSH2 0x13E9 DUP6 DUP3 DUP7 ADD PUSH2 0x131F JUMP JUMPDEST SWAP3 POP POP PUSH1 0x20 PUSH2 0x13FA DUP6 DUP3 DUP7 ADD PUSH2 0x13AF JUMP JUMPDEST SWAP2 POP POP SWAP3 POP SWAP3 SWAP1 POP JUMP JUMPDEST PUSH2 0x140D DUP2 PUSH2 0x12F6 JUMP JUMPDEST DUP3 MSTORE POP POP JUMP JUMPDEST PUSH1 0x0 PUSH1 0x20 DUP3 ADD SWAP1 POP PUSH2 0x1428 PUSH1 0x0 DUP4 ADD DUP5 PUSH2 0x1404 JUMP JUMPDEST SWAP3 SWAP2 POP POP JUMP JUMPDEST PUSH1 0x0 PUSH1 0x20 DUP3 DUP5 SUB SLT ISZERO PUSH2 0x1444 JUMPI PUSH2 0x1443 PUSH2 0x12D1 JUMP JUMPDEST JUMPDEST PUSH1 0x0 PUSH2 0x1452 DUP5 DUP3 DUP6 ADD PUSH2 0x13AF JUMP JUMPDEST SWAP2 POP POP SWAP3 SWAP2 POP POP JUMP JUMPDEST PUSH1 0x0 PUSH1 0x80 DUP3 ADD SWAP1 POP PUSH2 0x1470 PUSH1 0x0 DUP4 ADD DUP8 PUSH2 0x1404 JUMP JUMPDEST PUSH2 0x147D PUSH1 0x20 DUP4 ADD DUP7 PUSH2 0x1271 JUMP JUMPDEST PUSH2 0x148A PUSH1 0x40 DUP4 ADD DUP6 PUSH2 0x12A7 JUMP JUMPDEST PUSH2 0x1497 PUSH1 0x60 DUP4 ADD DUP5 PUSH2 0x12A7 JUMP JUMPDEST SWAP6 SWAP5 POP POP POP POP POP JUMP JUMPDEST PUSH32 0x4E487B7100000000000000000000000000000000000000000000000000000000 PUSH1 0x0 MSTORE PUSH1 0x32 PUSH1 0x4 MSTORE PUSH1 0x24 PUSH1 0x0 REVERT JUMPDEST PUSH1 0x0 DUP3 DUP3 MSTORE PUSH1 0x20 DUP3 ADD SWAP1 POP SWAP3 SWAP2 POP POP JUMP JUMPDEST PUSH32 0x46756E6473206E6F742072656365697665640000000000000000000000000000 PUSH1 0x0 DUP3 ADD MSTORE POP JUMP JUMPDEST PUSH1 0x0 PUSH2 0x1516 PUSH1 0x12 DUP4 PUSH2 0x14CF JUMP JUMPDEST SWAP2 POP PUSH2 0x1521 DUP3 PUSH2 0x14E0 JUMP JUMPDEST PUSH1 0x20 DUP3 ADD SWAP1 POP SWAP2 SWAP1 POP JUMP JUMPDEST PUSH1 0x0 PUSH1 0x20 DUP3 ADD SWAP1 POP DUP2 DUP2 SUB PUSH1 0x0 DUP4 ADD MSTORE PUSH2 0x1545 DUP2 PUSH2 0x1509 JUMP JUMPDEST SWAP1 POP SWAP2 SWAP1 POP JUMP JUMPDEST PUSH32 0x4E6F742061207368617265686F6C646572000000000000000000000000000000 PUSH1 0x0 DUP3 ADD MSTORE POP JUMP JUMPDEST PUSH1 0x0 PUSH2 0x1582 PUSH1 0x11 DUP4 PUSH2 0x14CF JUMP JUMPDEST SWAP2 POP PUSH2 0x158D DUP3 PUSH2 0x154C JUMP JUMPDEST PUSH1 0x20 DUP3 ADD SWAP1 POP SWAP2 SWAP1 POP JUMP JUMPDEST PUSH1 0x0 PUSH1 0x20 DUP3 ADD SWAP1 POP DUP2 DUP2 SUB PUSH1 0x0 DUP4 ADD MSTORE PUSH2 0x15B1 DUP2 PUSH2 0x1575 JUMP JUMPDEST SWAP1 POP SWAP2 SWAP1 POP JUMP JUMPDEST PUSH32 0x416C72656164792077697468647261776E000000000000000000000000000000 PUSH1 0x0 DUP3 ADD MSTORE POP JUMP JUMPDEST PUSH1 0x0 PUSH2 0x15EE PUSH1 0x11 DUP4 PUSH2 0x14CF JUMP JUMPDEST SWAP2 POP PUSH2 0x15F9 DUP3 PUSH2 0x15B8 JUMP JUMPDEST PUSH1 0x20 DUP3 ADD SWAP1 POP SWAP2 SWAP1 POP JUMP JUMPDEST PUSH1 0x0 PUSH1 0x20 DUP3 ADD SWAP1 POP DUP2 DUP2 SUB PUSH1 0x0 DUP4 ADD MSTORE PUSH2 0x161D DUP2 PUSH2 0x15E1 JUMP JUMPDEST SWAP1 POP SWAP2 SWAP1 POP JUMP JUMPDEST PUSH32 0x4E487B7100000000000000000000000000000000000000000000000000000000 PUSH1 0x0 MSTORE PUSH1 0x11 PUSH1 0x4 MSTORE PUSH1 0x24 PUSH1 0x0 REVERT JUMPDEST PUSH1 0x0 PUSH2 0x165E DUP3 PUSH2 0x1267 JUMP JUMPDEST SWAP2 POP PUSH2 0x1669 DUP4 PUSH2 0x1267 JUMP JUMPDEST SWAP3 POP DUP3 DUP3 MUL PUSH2 0x1677 DUP2 PUSH2 0x1267 JUMP JUMPDEST SWAP2 POP DUP3 DUP3 DIV DUP5 EQ DUP4 ISZERO OR PUSH2 0x168E JUMPI PUSH2 0x168D PUSH2 0x1624 JUMP JUMPDEST JUMPDEST POP SWAP3 SWAP2 POP POP JUMP JUMPDEST PUSH32 0x4E487B7100000000000000000000000000000000000000000000000000000000 PUSH1 0x0 MSTORE PUSH1 0x12 PUSH1 0x4 MSTORE PUSH1 0x24 PUSH1 0x0 REVERT JUMPDEST PUSH1 0x0 PUSH2 0x16CF DUP3 PUSH2 0x1267 JUMP JUMPDEST SWAP2 POP PUSH2 0x16DA DUP4 PUSH2 0x1267 JUMP JUMPDEST SWAP3 POP DUP3 PUSH2 0x16EA JUMPI PUSH2 0x16E9 PUSH2 0x1695 JUMP JUMPDEST JUMPDEST DUP3 DUP3 DIV SWAP1 POP SWAP3 SWAP2 POP POP JUMP JUMPDEST PUSH32 0x4E6F20746F6B656E730000000000000000000000000000000000000000000000 PUSH1 0x0 DUP3 ADD MSTORE POP JUMP JUMPDEST PUSH1 0x0 PUSH2 0x172B PUSH1 0x9 DUP4 PUSH2 0x14CF JUMP JUMPDEST SWAP2 POP PUSH2 0x1736 DUP3 PUSH2 0x16F5 JUMP JUMPDEST PUSH1 0x20 DUP3 ADD SWAP1 POP SWAP2 SWAP1 POP JUMP JUMPDEST PUSH1 0x0 PUSH1 0x20 DUP3 ADD SWAP1 POP DUP2 DUP2 SUB PUSH1 0x0 DUP4 ADD MSTORE PUSH2 0x175A DUP2 PUSH2 0x171E JUMP JUMPDEST SWAP1 POP SWAP2 SWAP1 POP JUMP JUMPDEST PUSH1 0x0 PUSH1 0x40 DUP3 ADD SWAP1 POP PUSH2 0x1776 PUSH1 0x0 DUP4 ADD DUP6 PUSH2 0x1404 JUMP JUMPDEST PUSH2 0x1783 PUSH1 0x20 DUP4 ADD DUP5 PUSH2 0x1271 JUMP JUMPDEST SWAP4 SWAP3 POP POP POP JUMP JUMPDEST PUSH2 0x1793 DUP2 PUSH2 0x129B JUMP JUMPDEST DUP2 EQ PUSH2 0x179E JUMPI PUSH1 0x0 DUP1 REVERT JUMPDEST POP JUMP JUMPDEST PUSH1 0x0 DUP2 MLOAD SWAP1 POP PUSH2 0x17B0 DUP2 PUSH2 0x178A JUMP JUMPDEST SWAP3 SWAP2 POP POP JUMP JUMPDEST PUSH1 0x0 PUSH1 0x20 DUP3 DUP5 SUB SLT ISZERO PUSH2 0x17CC JUMPI PUSH2 0x17CB PUSH2 0x12D1 JUMP JUMPDEST JUMPDEST PUSH1 0x0 PUSH2 0x17DA DUP5 DUP3 DUP6 ADD PUSH2 0x17A1 JUMP JUMPDEST SWAP2 POP POP SWAP3 SWAP2 POP POP JUMP JUMPDEST PUSH32 0x5472616E73666572206661696C65640000000000000000000000000000000000 PUSH1 0x0 DUP3 ADD MSTORE POP JUMP JUMPDEST PUSH1 0x0 PUSH2 0x1819 PUSH1 0xF DUP4 PUSH2 0x14CF JUMP JUMPDEST SWAP2 POP PUSH2 0x1824 DUP3 PUSH2 0x17E3 JUMP JUMPDEST PUSH1 0x20 DUP3 ADD SWAP1 POP SWAP2 SWAP1 POP JUMP JUMPDEST PUSH1 0x0 PUSH1 0x20 DUP3 ADD SWAP1 POP DUP2 DUP2 SUB PUSH1 0x0 DUP4 ADD MSTORE PUSH2 0x1848 DUP2 PUSH2 0x180C JUMP JUMPDEST SWAP1 POP SWAP2 SWAP1 POP JUMP JUMPDEST PUSH32 0x416C726561647920726563656976656400000000000000000000000000000000 PUSH1 0x0 DUP3 ADD MSTORE POP JUMP JUMPDEST PUSH1 0x0 PUSH2 0x1885 PUSH1 0x10 DUP4 PUSH2 0x14CF JUMP JUMPDEST SWAP2 POP PUSH2 0x1890 DUP3 PUSH2 0x184F JUMP JUMPDEST PUSH1 0x20 DUP3 ADD SWAP1 POP SWAP2 SWAP1 POP JUMP JUMPDEST PUSH1 0x0 PUSH1 0x20 DUP3 ADD SWAP1 POP DUP2 DUP2 SUB PUSH1 0x0 DUP4 ADD MSTORE PUSH2 0x18B4 DUP2 PUSH2 0x1878 JUMP JUMPDEST SWAP1 POP SWAP2 SWAP1 POP JUMP JUMPDEST PUSH32 0x4E6F207368617265686F6C646572730000000000000000000000000000000000 PUSH1 0x0 DUP3 ADD MSTORE POP JUMP JUMPDEST PUSH1 0x0 PUSH2 0x18F1 PUSH1 0xF DUP4 PUSH2 0x14CF JUMP JUMPDEST SWAP2 POP PUSH2 0x18FC DUP3 PUSH2 0x18BB JUMP JUMPDEST PUSH1 0x20 DUP3 ADD SWAP1 POP SWAP2 SWAP1 POP JUMP JUMPDEST PUSH1 0x0 PUSH1 0x20 DUP3 ADD SWAP1 POP DUP2 DUP2 SUB PUSH1 0x0 DUP4 ADD MSTORE PUSH2 0x1920 DUP2 PUSH2 0x18E4 JUMP JUMPDEST SWAP1 POP SWAP2 SWAP1 POP JUMP JUMPDEST PUSH1 0x0 DUP2 MLOAD SWAP1 POP PUSH2 0x1936 DUP2 PUSH2 0x1398 JUMP JUMPDEST SWAP3 SWAP2 POP POP JUMP JUMPDEST PUSH1 0x0 PUSH1 0x20 DUP3 DUP5 SUB SLT ISZERO PUSH2 0x1952 JUMPI PUSH2 0x1951 PUSH2 0x12D1 JUMP JUMPDEST JUMPDEST PUSH1 0x0 PUSH2 0x1960 DUP5 DUP3 DUP6 ADD PUSH2 0x1927 JUMP JUMPDEST SWAP2 POP POP SWAP3 SWAP2 POP POP JUMP JUMPDEST PUSH32 0x4F6E6C79206F776E657200000000000000000000000000000000000000000000 PUSH1 0x0 DUP3 ADD MSTORE POP JUMP JUMPDEST PUSH1 0x0 PUSH2 0x199F PUSH1 0xA DUP4 PUSH2 0x14CF JUMP JUMPDEST SWAP2 POP PUSH2 0x19AA DUP3 PUSH2 0x1969 JUMP JUMPDEST PUSH1 0x20 DUP3 ADD SWAP1 POP SWAP2 SWAP1 POP JUMP JUMPDEST PUSH1 0x0 PUSH1 0x20 DUP3 ADD SWAP1 POP DUP2 DUP2 SUB PUSH1 0x0 DUP4 ADD MSTORE PUSH2 0x19CE DUP2 PUSH2 0x1992 JUMP JUMPDEST SWAP1 POP SWAP2 SWAP1 POP JUMP JUMPDEST PUSH32 0x43616E6E6F74206D6F646966792061667465722066756E647320726563656976 PUSH1 0x0 DUP3 ADD MSTORE PUSH32 0x6564000000000000000000000000000000000000000000000000000000000000 PUSH1 0x20 DUP3 ADD MSTORE POP JUMP JUMPDEST PUSH1 0x0 PUSH2 0x1A31 PUSH1 0x22 DUP4 PUSH2 0x14CF JUMP JUMPDEST SWAP2 POP PUSH2 0x1A3C DUP3 PUSH2 0x19D5 JUMP JUMPDEST PUSH1 0x40 DUP3 ADD SWAP1 POP SWAP2 SWAP1 POP JUMP JUMPDEST PUSH1 0x0 PUSH1 0x20 DUP3 ADD SWAP1 POP DUP2 DUP2 SUB PUSH1 0x0 DUP4 ADD MSTORE PUSH2 0x1A60 DUP2 PUSH2 0x1A24 JUMP JUMPDEST SWAP1 POP SWAP2 SWAP1 POP JUMP JUMPDEST PUSH32 0x496E76616C696420616464726573730000000000000000000000000000000000 PUSH1 0x0 DUP3 ADD MSTORE POP JUMP JUMPDEST PUSH1 0x0 PUSH2 0x1A9D PUSH1 0xF DUP4 PUSH2 0x14CF JUMP JUMPDEST SWAP2 POP PUSH2 0x1AA8 DUP3 PUSH2 0x1A67 JUMP JUMPDEST PUSH1 0x20 DUP3 ADD SWAP1 POP SWAP2 SWAP1 POP JUMP JUMPDEST PUSH1 0x0 PUSH1 0x20 DUP3 ADD SWAP1 POP DUP2 DUP2 SUB PUSH1 0x0 DUP4 ADD MSTORE PUSH2 0x1ACC DUP2 PUSH2 0x1A90 JUMP JUMPDEST SWAP1 POP SWAP2 SWAP1 POP JUMP JUMPDEST PUSH32 0x496E76616C69642070657263656E746167650000000000000000000000000000 PUSH1 0x0 DUP3 ADD MSTORE POP JUMP JUMPDEST PUSH1 0x0 PUSH2 0x1B09 PUSH1 0x12 DUP4 PUSH2 0x14CF JUMP JUMPDEST SWAP2 POP PUSH2 0x1B14 DUP3 PUSH2 0x1AD3 JUMP JUMPDEST PUSH1 0x20 DUP3 ADD SWAP1 POP SWAP2 SWAP1 POP JUMP JUMPDEST PUSH1 0x0 PUSH1 0x20 DUP3 ADD SWAP1 POP DUP2 DUP2 SUB PUSH1 0x0 DUP4 ADD MSTORE PUSH2 0x1B38 DUP2 PUSH2 0x1AFC JUMP JUMPDEST SWAP1 POP SWAP2 SWAP1 POP JUMP JUMPDEST PUSH1 0x0 PUSH2 0x1B4A DUP3 PUSH2 0x1267 JUMP JUMPDEST SWAP2 POP PUSH2 0x1B55 DUP4 PUSH2 0x1267 JUMP JUMPDEST SWAP3 POP DUP3 DUP3 ADD SWAP1 POP DUP1 DUP3 GT ISZERO PUSH2 0x1B6D JUMPI PUSH2 0x1B6C PUSH2 0x1624 JUMP JUMPDEST JUMPDEST SWAP3 SWAP2 POP POP JUMP JUMPDEST PUSH32 0x4578636565647320313030250000000000000000000000000000000000000000 PUSH1 0x0 DUP3 ADD MSTORE POP JUMP JUMPDEST PUSH1 0x0 PUSH2 0x1BA9 PUSH1 0xC DUP4 PUSH2 0x14CF JUMP JUMPDEST SWAP2 POP PUSH2 0x1BB4 DUP3 PUSH2 0x1B73 JUMP JUMPDEST PUSH1 0x20 DUP3 ADD SWAP1 POP SWAP2 SWAP1 POP JUMP JUMPDEST PUSH1 0x0 PUSH1 0x20 DUP3 ADD SWAP1 POP DUP2 DUP2 SUB PUSH1 0x0 DUP4 ADD MSTORE PUSH2 0x1BD8 DUP2 PUSH2 0x1B9C JUMP JUMPDEST SWAP1 POP SWAP2 SWAP1 POP JUMP JUMPDEST PUSH1 0x0 PUSH2 0x1BEA DUP3 PUSH2 0x1267 JUMP JUMPDEST SWAP2 POP PUSH2 0x1BF5 DUP4 PUSH2 0x1267 JUMP JUMPDEST SWAP3 POP DUP3 DUP3 SUB SWAP1 POP DUP2 DUP2 GT ISZERO PUSH2 0x1C0D JUMPI PUSH2 0x1C0C PUSH2 0x1624 JUMP JUMPDEST JUMPDEST SWAP3 SWAP2 POP POP JUMP JUMPDEST PUSH1 0x0 PUSH1 0x40 DUP3 ADD SWAP1 POP PUSH2 0x1C28 PUSH1 0x0 DUP4 ADD DUP6 PUSH2 0x1271 JUMP JUMPDEST PUSH2 0x1C35 PUSH1 0x20 DUP4 ADD DUP5 PUSH2 0x1271 JUMP JUMPDEST SWAP4 SWAP3 POP POP POP JUMP JUMPDEST PUSH32 0x4E6F2072656D61696E696E670000000000000000000000000000000000000000 PUSH1 0x0 DUP3 ADD MSTORE POP JUMP JUMPDEST PUSH1 0x0 PUSH2 0x1C72 PUSH1 0xC DUP4 PUSH2 0x14CF JUMP JUMPDEST SWAP2 POP PUSH2 0x1C7D DUP3 PUSH2 0x1C3C JUMP JUMPDEST PUSH1 0x20 DUP3 ADD SWAP1 POP SWAP2 SWAP1 POP JUMP JUMPDEST PUSH1 0x0 PUSH1 0x20 DUP3 ADD SWAP1 POP DUP2 DUP2 SUB PUSH1 0x0 DUP4 ADD MSTORE PUSH2 0x1CA1 DUP2 PUSH2 0x1C65 JUMP JUMPDEST SWAP1 POP SWAP2 SWAP1 POP JUMP INVALID LOG2 PUSH5 0x6970667358 0x22 SLT KECCAK256 LOG3 0x26 0xDC MLOAD PUSH1 0xBE 0xC9 EXTSTATICCALL EXTSTATICCALL PUSH15 0xB3D81D99FA2C31F0982CB9D7E053C6 RJUMPI 0xF098 0xD5 0xA9 0xBC 0xE2 PUSH5 0x736F6C6343 STOP ADDMOD 0x1E STOP CALLER "
				},
				"gasEstimates": {
					"creation": {
						"codeDepositCost": "1478000",
						"executionCost": "infinite",
						"totalCost": "infinite"
					},
					"external": {
						"addShareholder(address,uint256)": "infinite",
						"fundsReceived()": "2539",
						"getShareholder(address)": "infinite",
						"getShareholderCount()": "2491",
						"getTotalAllocated()": "2482",
						"owner()": "2578",
						"receiveTokens()": "infinite",
						"shareholderIndex(address)": "2881",
						"shareholders(uint256)": "infinite",
						"tokenAddress()": "2536",
						"totalAllocatedPercentage()": "2453",
						"totalReceived()": "2473",
						"withdrawRemaining()": "infinite",
						"withdrawShare()": "infinite"
					}
				},
				"methodIdentifiers": {
					"addShareholder(address,uint256)": "75724990",
					"fundsReceived()": "11318b33",
					"getShareholder(address)": "227d9f65",
					"getShareholderCount()": "04972881",
					"getTotalAllocated()": "82299a5c",
					"owner()": "8da5cb5b",
					"receiveTokens()": "680e6c9b",
					"shareholderIndex(address)": "41bcf6a4",
					"shareholders(uint256)": "ab377daa",
					"tokenAddress()": "9d76ea58",
					"totalAllocatedPercentage()": "047c312a",
					"totalReceived()": "a3c2c462",
					"withdrawRemaining()": "ee38db95",
					"withdrawShare()": "24349671"
				}
			},
			"storageLayout": {
				"storage": [
					{
						"astId": 29,
						"contract": "contracts/DistributeFunding.sol:DistributeFunding",
						"label": "owner",
						"offset": 0,
						"slot": "0",
						"type": "t_address"
					},
					{
						"astId": 31,
						"contract": "contracts/DistributeFunding.sol:DistributeFunding",
						"label": "tokenAddress",
						"offset": 0,
						"slot": "1",
						"type": "t_address"
					},
					{
						"astId": 33,
						"contract": "contracts/DistributeFunding.sol:DistributeFunding",
						"label": "totalReceived",
						"offset": 0,
						"slot": "2",
						"type": "t_uint256"
					},
					{
						"astId": 35,
						"contract": "contracts/DistributeFunding.sol:DistributeFunding",
						"label": "fundsReceived",
						"offset": 0,
						"slot": "3",
						"type": "t_bool"
					},
					{
						"astId": 39,
						"contract": "contracts/DistributeFunding.sol:DistributeFunding",
						"label": "shareholders",
						"offset": 0,
						"slot": "4",
						"type": "t_array(t_struct(Shareholder)27_storage)dyn_storage"
					},
					{
						"astId": 43,
						"contract": "contracts/DistributeFunding.sol:DistributeFunding",
						"label": "shareholderIndex",
						"offset": 0,
						"slot": "5",
						"type": "t_mapping(t_address,t_uint256)"
					},
					{
						"astId": 45,
						"contract": "contracts/DistributeFunding.sol:DistributeFunding",
						"label": "totalAllocatedPercentage",
						"offset": 0,
						"slot": "6",
						"type": "t_uint256"
					}
				],
				"types": {
					"t_address": {
						"encoding": "inplace",
						"label": "address",
						"numberOfBytes": "20"
					},
					"t_array(t_struct(Shareholder)27_storage)dyn_storage": {
						"base": "t_struct(Shareholder)27_storage",
						"encoding": "dynamic_array",
						"label": "struct DistributeFunding.Shareholder[]",
						"numberOfBytes": "32"
					},
					"t_bool": {
						"encoding": "inplace",
						"label": "bool",
						"numberOfBytes": "1"
					},
					"t_mapping(t_address,t_uint256)": {
						"encoding": "mapping",
						"key": "t_address",
						"label": "mapping(address => uint256)",
						"numberOfBytes": "32",
						"value": "t_uint256"
					},
					"t_struct(Shareholder)27_storage": {
						"encoding": "inplace",
						"label": "struct DistributeFunding.Shareholder",
						"members": [
							{
								"astId": 20,
								"contract": "contracts/DistributeFunding.sol:DistributeFunding",
								"label": "addr",
								"offset": 0,
								"slot": "0",
								"type": "t_address"
							},
							{
								"astId": 22,
								"contract": "contracts/DistributeFunding.sol:DistributeFunding",
								"label": "percentage",
								"offset": 0,
								"slot": "1",
								"type": "t_uint256"
							},
							{
								"astId": 24,
								"contract": "contracts/DistributeFunding.sol:DistributeFunding",
								"label": "hasWithdrawn",
								"offset": 0,
								"slot": "2",
								"type": "t_bool"
							},
							{
								"astId": 26,
								"contract": "contracts/DistributeFunding.sol:DistributeFunding",
								"label": "exists",
								"offset": 1,
								"slot": "2",
								"type": "t_bool"
							}
						],
						"numberOfBytes": "96"
					},
					"t_uint256": {
						"encoding": "inplace",
						"label": "uint256",
						"numberOfBytes": "32"
					}
				}
			},
			"userdoc": {
				"kind": "user",
				"methods": {},
				"version": 1
			}
		}
	}
}